:020000040800F2
:1000000000000220D90700082D0800082D0800086C
:100010002D0800082D0800082D0800080000000029
:100020000000000000000000000000002D08000893
:100030002D080008000000002D08000801A6000897
:100040002D0800082D0800082D0800082D080008BC
:100050002D0800082D0800082D0800082D080008AC
:100060002D0800082D0800082D0800082D0800089C
:100070002D0800082D0800082D0800082D0800088C
:100080002D0800082D0800082D0800082D0800087C
:100090002D0800082D0800082D0800082D0800086C
:1000A0002D0800082D0800082D0800082D0800085C
:1000B0002D0800082D0800082D0800082D0800084C
:1000C0002D0800082D0800082D0800082D0800083C
:1000D0002D0800082D0800082D0800082D0800082C
:1000E0002D0800082D080008000000002D08000859
:1000F0002D0800082D0800082D0800082D0800080C
:100100002D0800082D0800082D0800082D080008FB
:100110002D080008A9A100082D0800082D080008D6
:100120002D0800082D0800082D0800082D080008DB
:100130002D0800082D0800082D0800082D080008CB
:1001400000000000000000000000000000000000AF
:100150002D0800082D0800082D0800082D080008AB
:100160002D0800082D0800082D0800082D0800089B
:100170002D08000805A600082D0800080000000052
:100180002D0800082D0800082D0800082D0800087B
:100190002D0800082D0800082D0800082D0800086B
:1001A0002D0800082D0800082D0800080000000098
:1001B0002D0800082D0800082D0800082D0800084B
:1001C0002D0800082D0800080000000000000000B5
:1001D00000000000000000002D08000800000000E2
:1001E000000000000000000000000000000000000F
:1001F00000000000000000002D0800082D08000885
:100200002D0800082D080008000000002D08000837
:100210002D0800082D0800082D0800082D080008EA
:100220002D080008000000002D0800080000000054
:100230002D0800082D080008000000002D08000807
:100240002D0800082D0800082D0800082D080008BA
:100250002D0800082D0800082D0800082D080008AA
:100260002D0800082D0800082D0800082D0800089A
:100270002D0800082D0800082D08000800000000C7
:100280002D0800082D0800082D0800082D0800087A
:10029000000000002D0800082D08000800000000E4
:1002A000000000002D0800082D0800082D08000897
:1002B0002D0800082D0800082D0800082D0800084A
:0C02C0002D0800082D0800082D0800087B
:1002D00010F8012B11F8013B012A28BF9A42F7D0F0
:1002E000D01A7047034613F8012B002AFBD1181AC5
:1002F000013870470000000000000000000000000E
:1003000001F0FF01102A2BDB10F0070F08D010F8C6
:10031000013B013A8B422DD010F0070F42B3F6D1CA
:10032000F0B441EA012141EA014122F007047FF0E3
:1003300000070023F0E80256083C85EA010586EA3A
:10034000010685FA47F5A3FA87F586FA47F6A5FA76
:1003500087F68EB9EED1F0BC01F0FF0102F0070282
:1003600032B110F8013B013A83EA010313B1F8D12D
:100370000020704701387047002D06BF354603380E
:10038000073815F0010F07D1013015F4807F02BF47
:10039000013015F4C03F0130F0BC0138704700BF98
:1003A00081F0004102E000BF83F0004330B54FEA26
:1003B00041044FEA430594EA050F08BF90EA020F93
:1003C0001FBF54EA000C55EA020C7FEA645C7FEA26
:1003D000655C00F0E2804FEA5454D4EB5555B8BF49
:1003E0006D420CDD2C4480EA020281EA030382EABA
:1003F000000083EA010180EA020281EA0303362D4C
:1004000088BF30BD11F0004F4FEA01314FF4801C1E
:100410004CEA113102D0404261EB410113F0004F30
:100420004FEA03334CEA133302D0524263EB4303E7
:1004300094EA050F00F0A780A4F10104D5F1200E85
:100440000DDB02FA0EFC22FA05F2801841F10001E0
:1004500003FA0EF2801843FA05F359410EE0A5F1B4
:1004600020050EF1200E012A03FA0EFC28BF4CF0E5
:10047000020C43FA05F3C01851EBE37101F000459B
:1004800007D54FF0000EDCF1000C7EEB00006EEBA8
:100490000101B1F5801F1BD3B1F5001F0CD3490832
:1004A0005FEA30004FEA3C0C04F101044FEA445289
:1004B00012F5800F80F09A80BCF1004F08BF5FEA10
:1004C000500C50F1000041EB045141EA050130BDF0
:1004D0005FEA4C0C404141EB0101013C28BFB1F502
:1004E000801FE9D291F0000F04BF01460020B1FA4D
:1004F00081F308BF2033A3F10B03B3F120020CDA20
:100500000C3208DD02F1140CC2F10C0201FA0CF0FD
:1005100021FA02F10CE002F11402D8BFC2F1200C62
:1005200001FA02F120FA0CFCDCBF41EA0C01904018
:10053000E41AA2BF01EB0451294330BD6FEA040461
:100540001F3C1CDA0C340EDC04F11404C4F120024C
:1005500020FA04F001FA02F340EA030021FA04F35E
:1005600045EA030130BDC4F10C04C4F1200220FAB5
:1005700002F001FA04F340EA0300294630BD21FAF3
:1005800004F0294630BD94F0000F83F4801306BFB9
:1005900081F480110134013D4EE77FEA645C18BFAD
:1005A0007FEA655C29D094EA050F08BF90EA020F44
:1005B00005D054EA000C04BF1946104630BD91EA3C
:1005C000030F1EBF0021002030BD5FEA545C05D13F
:1005D0004000494128BF41F0004130BD14F580047E
:1005E0003CBF01F5801130BD01F0004545F0FE41F2
:1005F00041F470014FF0000030BD7FEA645C1ABF27
:10060000194610467FEA655C1CBF0B46024650EA5D
:10061000013406BF52EA033591EA030F41F4002189
:1006200030BD00BF90F0000F04BF0021704730B50F
:100630004FF4806404F132044FF000054FF00001E4
:1006400050E700BF90F0000F04BF0021704730B5A5
:100650004FF4806404F1320410F0004548BF40427A
:100660004FF000013EE700BF42004FEAE2014FEACF
:1006700031014FEA02701FBF12F07F4393F07F4FAA
:1006800081F06051704732F07F4208BF704793F0AD
:100690007F4F04BF41F40021704730B54FF46074C0
:1006A00001F0004521F000411CE700BF50EA0102C3
:1006B00008BF704730B54FF000050AE050EA01026C
:1006C00008BF704730B511F0004502D5404261EBDC
:1006D00041014FF4806404F132045FEA915C3FF41D
:1006E000D8AE4FF003025FEADC0C18BF03325FEABA
:1006F000DC0C18BF033202EBDC02C2F1200300FA6B
:1007000003FC20FA02F001FA03FE40EA0E0021FA8F
:1007100002F11444BDE600BF53B94AB9002908BF2D
:1007200000281CBF4FF0FF314FF0FF3000F00CB835
:10073000ADF1080C6DE904CE1AF0F6FFDDF804E027
:10074000DDE9022304B07047704700BF0348044B43
:10075000834202D0034B03B118477047CC020020FC
:10076000CC020020000000000548064B1B1AD90FE0
:1007700001EBA301491002D0034B03B118477047A6
:10078000CC020020CC0200200000000010B5064C76
:10079000237843B9FFF7DAFF044B13B10448AFF3F2
:1007A00000800123237010BDE00200200000000043
:1007B00048BA010808B5054B1BB105490548AFF318
:1007C0000080BDE80840FFF7CFBF00BF0000000079
:1007D000E402002048BA0108DFF838D000F028F819
:1007E000002103E00C4B5B58435004310B480C4B89
:1007F00042189A42F6D30B4A02E0002342F8043B27
:10080000094B9A42F9D30DF0F3FE18F0E5FA06F021
:1008100099FD704700000220983104080000002074
:10082000CC020020E0020020C06C0120FEE70000A6
:10083000044AD36843F00203D36053689B04FCD599
:10084000704700BF00480258F7EE007ADFED1A5AF1
:10085000F0EE084A9FED196A20EE004A9FED183A23
:1008600077EEC07ADFED173A60EEA55ABEEE007A59
:1008700067EEA76A67EEA47A20EE045A66EEA46AD1
:1008800067EE847A20EE866A26EE800A27EE877A63
:1008900067EEA57A60EEA30ADFED0B3AA0EE037ACD
:1008A000E0EE067AA5EE237AE5EE207A80ED007A76
:1008B000C1ED007A704700BF9A99193FCDCCCC3E6C
:1008C0009A9919BEB7D1303F0AD77BC0164A012189
:1008D0000023164810B51170154C164A037013709A
:1008E0002370154A15481649164C136003600B70A7
:1008F0000DF03CFF144AFA38237810604BB11348CE
:1009000009F030FA237853B11148BDE8104009F0DE
:10091000F5B9104809F026FA2378002BF4D10E48D7
:10092000BDE8104009F0EAB96C0500207A05002006
:100930007905002078050020FC04002074050020C3
:100940006F0500206D05002068050020B8BA010879
:1009500000BB0108DCBA01081CBB010800B58BB064
:1009600000234FF0000C03AA04A807A98DED010A8B
:1009700006930993CDF80CC0CDE90433CDE90733D4
:100980000DF06EFCDDED087A1F4B9DED077AF1EE60
:10099000677ADDED066A0398B1EE477A1B49F1EEFE
:1009A000666A1B4AD3ED015A086093ED006A77EE40
:1009B000E57A92ED005A174B37EE467A76EEC56A25
:1009C000154993ED016A154A77EEC67AD3ED005AC0
:1009D000C1ED006A9FED125A37EE657AD1ED004AFB
:1009E000D2ED006AA7EE856A9DED010AE7EE055A91
:1009F000F0EE667AE4EE807A83ED016AC3ED005A88
:100A0000C2ED007A0BB000BD840500209C050020DB
:100A1000B40500207C050020B0050020AC050020B6
:100A2000CDCC4C3E10B582B004460DF09FFE144B69
:100A30001449154A0094DFF868C00978126893EDEC
:100A4000000A124BDCED000A93ED001ADFF854C0E7
:100A50000F4BDCED001A93ED002ADFF84CC00D4B74
:100A6000DCED002A93ED003ADFF840C00A4BDCEDE4
:100A7000003A93ED004A094B0BF08CF902B010BD1F
:100A8000B0050020C0050020BC050020A8050020FE
:100A9000A005002098050020900500204CE90108E1
:100AA000AC050020A40500209C0500209405002032
:100AB00000B5DFF86CC00B46DFF868E083B0174A7A
:100AC0009EF8001012689CED000ADFF85CC0DCEDB7
:100AD000000ADFF858C09CED001ADFF854C0DCEDC6
:100AE000001ADFF850C09CED002ADFF84CC0DCEDA6
:100AF000002ADFF848C09CED003ADFF844C0DCED86
:100B0000003ADFF840C09CED004A4FF0000CCDF8F1
:100B100000C00BF03FF903B000BD00BFBC050020D2
:100B2000B0050020C0050020AC050020A80500206D
:100B3000A4050020A00500209C05002098050020A9
:100B4000940500209005002070B5CCB003468021AC
:100B5000494A0CA817F0A0FF48490CA818F074F8EF
:100B6000002872D00346002406AD01E0062C0BD00D
:100B700045F8043B00204149013418F065F803466C
:100B80000028F3D1062C60D13D490698FFF7A0FB61
:100B900000285AD13B490798FFF79AFB002854D107
:100BA00039490898FFF794FB00284ED137490A9835
:100BB000FFF78EFB002848D1099C0A2205A9204690
:100BC00017F09CFE22780546002A47D0059B1B782B
:100BD000002B43D1012841D80B9E04A9304617F0C1
:100BE000CFFD3378002B40D0049B1B78002B3CD1E9
:100BF000F0EEC07A9FED267AF4EE477AF1EE10FA25
:100C000033D8B5EEC00AF1EE10FA2ED4DFED217A1A
:100C1000B4EEE70AF1EE10FA27DCE8B28DED030A34
:100C200009F006F89DED030A2B461B4AB7EEC00AF1
:100C300080212CA88DED000B17F02EFF2CA809F0B9
:100C40005DF82CA809F042F805E0144809F056F8C0
:100C5000124809F03BF801204CB070BD104809F073
:100C60004DF80F4809F032F8F5E70E4809F046F85C
:100C70000C4809F02BF8EEE738BB01083CBB010833
:100C800064BB010870BB010874BB01087CBB010890
:100C9000FFFF7F7F00003443D8BB010840BB010841
:100CA00088BB0108B0BB01082DE9F041B2B006468F
:100CB0000F469046A021384B384A0AA817F0ECFEA0
:100CC00037490AA817F0C0FF90B10346002401ADD0
:100CD00045F8043F00203249013417F0B5FF0346C0
:100CE000002855D0082CF3D1029B1A78522A03D041
:100CF000002032B0BDE8F0815A784B2AF8D19B78B9
:100D0000002BF5D127490398FFF7E2FA0028EFD12D
:100D100025490498FFF7DCFA0028E9D13146059807
:100D2000FFF7D6FA0028E3D120490698FFF7D0FA5A
:100D30000028DDD11E490898FFF7CAFA0028D7D14C
:100D4000099C1C492046FFF7C3FA28B11A492046DE
:100D5000FFF7BEFA0028CBD1079D0A2201A9284639
:100D600017F0CCFD2B780246002BC1D0019B1B78DD
:100D7000002BBDD10028BBD00E4920463A60FFF7BA
:100D8000A7FAB0FA80F301205B0988F80030B0E7D9
:100D9000082CADD1A8E700BF8003002038BB0108B4
:100DA0003CBB010808BC01080CBC01081CBC0108C4
:100DB00020BC010828BC01082CBC01082DE9F04129
:100DC000AAB006460F4690468021384B384A0AA8FA
:100DD00017F062FE37490AA817F036FF90B10346B4
:100DE000002401AD45F8043F00203249013417F0DA
:100DF0002BFF0346002855D0082CF3D1029B1A780C
:100E0000522A03D000202AB0BDE8F0815A784B2A3C
:100E1000F8D19B78002BF5D127490398FFF758FAB2
:100E20000028EFD125490498FFF752FA0028E9D1AC
:100E300031460598FFF74CFA0028E3D1204906987F
:100E4000FFF746FA0028DDD11E490898FFF740FA5F
:100E50000028D7D1099C1C492046FFF739FA28B150
:100E60001A492046FFF734FA0028CBD1079D0A2201
:100E700001A9284617F042FD2B780246002BC1D06D
:100E8000019B1B78002BBDD10028BBD00E4920460A
:100E90003A60FFF71DFAB0FA80F301205B0988F889
:100EA0000030B0E7082CADD1A8E700BFFC0200205D
:100EB00038BB01083CBB010834BC01083CBC01083C
:100EC0001CBC010820BC010828BC01082CBC01087E
:100ED0002DE9F04FDFB0602106A80CF0A7FE002836
:100EE00000F014818C4B06461978002900F05A83D3
:100EF0000DF11809894C8A4D09EB060899F8003064
:100F000026680A2B18BF0D2B0CBF0127002740F0C5
:100F10000583002383498248AB5517F0FBFE8246C8
:100F2000002800F00683AA4509D05046FFF7DAF9F9
:100F3000064651462846721C17F052FE2660002EC7
:100F400000F0E482784B1B780F2B00F000832B46D7
:100F5000764AA02136A817F09FFD754936A817F0EC
:100F600073FE0346002800F015811EAE4FF0000A04
:100F7000B3464BF8043B00206D490AF1010A17F013
:100F800063FE0346002800F00181BAF10C0FF0D196
:100F900033681A78522A40F0FD805A784B2A40F084
:100FA000F9809B78002B40F0F58062497068FFF76C
:100FB0008FF9002840F0EE805F49B068FFF788F9AC
:100FC000002840F0E7805D49F068FFF781F90028CC
:100FD00040F0E0805A493069FFF77AF9002840F084
:100FE000D9805849B069FFF773F9002840F0D280E2
:100FF0005549306AFFF76CF9002840F0CB8053491F
:10100000B06AFFF765F9002840F0C480D6F814B044
:101010000A2205A9584617F071FC9BF8003002908F
:10102000002B00F0B780059B93F800B0BBF1000FD8
:1010300040F0B080002800F0AD80F36944491846C4
:101040000393FFF745F9002800F07883039841499E
:10105000FFF73EF9002840F09D80736A0A2205A937
:101060001846039317F04AFC039B1B78002B00F0F3
:101070009180059B1B78002B40F08C80B0F5E17FC0
:1010800040F08880F66A0A2205A9304617F036FC3F
:101090003378002B7ED0059B1B78002B7AD1B0F5DE
:1010A000B47F77D12C4B1A782C4B1878024340F040
:1010B00013832B4A2B4812680068024340F00C83CC
:1010C000012002991870284B83F800B0274B196053
:1010D000274B1A70274B1A70274B1A70274B1A7020
:1010E000274B1A70BBF1000F00F02E831849029BAA
:1010F00036A8244A0091802117F0CEFC36A808F0CB
:10110000FDFD214808F0E2FD00232360002738465A
:101110005FB0BDE8F08F00BFC8040020C404002009
:101120002404002090BC0108C005002038BB010841
:101130003CBB010834BC01083CBC0108C0BC010830
:101140001CBC010820BC0108C8BC01087CBB01080C
:1011500028BC01082CBC0108F9040020E50400208B
:10116000E8040020DC040020E4040020E004002067
:10117000D8040020D7040020D6040020D504002085
:10118000D4040020ECBC010814BD0108BAF10C0F16
:101190003FF4FEAE2368002B00F0B8812B46814A55
:1011A000A02136A817F078FC7F4936A817F04CFD2F
:1011B0000346002839D04FF0000A0DF1780B4BF8A8
:1011C000043B002078490AF1010A17F03DFD03466F
:1011D000002800F0B781BAF10C0FF0D11E9B1A78ED
:1011E000522A22D15A784B2A1FD19B78EBB96F49EA
:1011F0001F98FFF76DF8C0B96D492098FFF768F8A0
:1012000098B96C492198FFF763F870B96A49229838
:10121000FFF75EF848B969492498FFF759F820B9F3
:10122000269B1A784C2A00F0F3812368002B00F0EB
:101230006D812B465B4AA02136A817F02DFC5A4938
:1012400036A81EAE17F000FD0346002800F0D0803F
:101250004FF0000AB3464BF8043B002052490AF114
:10126000010A17F0F1FC0346002800F0BD80BAF136
:101270000A0FF0D133681A78522A40F0B9805A78B0
:101280004B2A40F0B5809B78002B40F0B180474955
:101290007068FFF71DF8002840F0AA804449B06844
:1012A000FFF716F8002840F0A3804549F068FFF7E3
:1012B0000FF8002840F09C803F493069FFF708F89C
:1012C000002840F095803D49B069FFF701F80028FB
:1012D00040F08E803B49306AFEF7FAFF002840F06C
:1012E0008780D6F81CB038495846FEF7F1FF28B180
:1012F00036495846FEF7ECFF002879D1736905A9F5
:101300000A221846029317F0F9FA029B82461B78CC
:10131000002B6DD0059B05A91B78002B68D10028F8
:1013200066D0736A0A221846039317F0E7FA039B04
:1013300002901B78002B5BD0059B1B78002B57D1AC
:10134000431E062B54D858461F49FEF7C1FF204BB9
:10135000B0FA80F01A784009002A49D11D4A126873
:10136000524545D11C4A1278824241D1012119705F
:101370001A4B0299C3F800A0194B1960002A00F01B
:10138000E581114A029B6021009236A801935346E1
:10139000144A17F081FB36A808F0B0FC0023236044
:1013A000B5E600BF38BB01083CBB010834BC0108EE
:1013B00044BC0108C0BC01081CBC010820BC0108D9
:1013C000D8BD0108E0BD010828BC01082CBC0108FB
:1013D000F9040020E8040020F8040020F4040020B0
:1013E000EC040020E8BD0108BAF10A0F3FF442AF57
:1013F0002B46734AA02136A817F04EFB714936A838
:1014000017F022FC0346002865D00DF1740A00276E
:101410004AF8043F00206B49013717F015FC0346DA
:10142000002856D0082FF3D133681A78522A52D1A7
:101430005A784B2A4FD19B78002B4CD16249706867
:10144000FEF746FF002846D16049B068FEF740FF2E
:10145000002840D15E49F068FEF73AFF00283AD1F3
:101460005C493069FEF734FF002834D15A49B0692D
:10147000FEF72EFF78BBD6F81CA058495046FEF761
:1014800027FF20B156495046FEF722FF18BBD6F879
:1014900014B00A2205A9584617F030FA9BF800301C
:1014A0000746C3B1059B1B78ABB9A0B150464B4969
:1014B000FEF70EFF4B4BB0FA80F01B684009BB42B1
:1014C00009D1494B1B78834205D1484B01221A7040
:1014D0001CE0082FA8D04649284617F01BFC00281E
:1014E0005ED0444F3B46444A6021304617F0D4FA60
:1014F000304608F0EBFB26683B46404A602136A8A0
:10150000009617F0C9FA36A808F0F8FB002323600C
:1015100009F10109C8457FF4F1ACF7E5721C9F2A77
:1015200002D82260AB55F3E73548276008F0E6FBA8
:10153000EEE72F49284617F0EDFB824600287FF49E
:10154000F2ACFCE4BAF10C0F7FF46FAE46E62D4925
:101550004C23DFF8B8E001F10C0B0A78A3F1610C21
:10156000A3F120060131A2F12000A2F1610A5FFA85
:101570008CFCF6B2C0B2BCF1190F98BF3346BAF179
:10158000190F98BF02469A427FF4E1AC8B451EF8D2
:10159000013FE2D11B48FFF7D7FA00232360B5E5EE
:1015A0000A4F9FE701220F201A701D220AF06CFCDF
:1015B000002800F08D80144808F088FB98E400BFF4
:1015C00038BB01083CBB010834BC010844BC01081D
:1015D00018BE01081CBC010820BC010828BC010879
:1015E0002CBC0108E8040020F8040020E7040020D7
:1015F000A0BC01083CBC010820BE010840BE010897
:1016000068BE0108240400204CBC0108B0BC0108DD
:101610005A78312A7FF409AE9B78002B7FF405AE0F
:10162000289B1A784C2A7FF400AE5A78322A7FF42D
:10163000FCAD9B78002B7FF4F8AD239B0A2205A913
:101640001846029317F05AF9029B83461B78002B29
:101650003FF4EBAD059B1B78002B7FF4E6AD002833
:101660003FF4E3AD279B02935B78002B7FF4DDAD65
:10167000299B93F801A00393BAF1000F7FF4D5AD35
:1016800033492598FEF724FE00285AD02598314981
:10169000FEF71EFE00287FF4C8AD029B1E78A6F15F
:1016A0004103032B3FF6C1AD039B1878A0F1410322
:1016B000032B3FF6BAAD86423FF4B7AD264B1978FF
:1016C00011B92649096859B1254808F017FB1DE7EB
:1016D000244808F0FBFA0BE4234808F00FFB13E55D
:1016E00001221A701E22214B83F800A0204BC3F860
:1016F00000B0204B1E70204B18700F201F4B19603C
:101700000AF0C2FBA0B11E4808F0E0FABAF1000FDF
:1017100012D00F4A5B466021009236A8194A17F092
:10172000BBF936A808F0EAFA174808F0CFFA35E610
:10173000164808F0CBFAE9E7064AEBE74FF0010B51
:101740008BE44FF0010AA8E70249D0E4014A19E608
:1017500028BC01082CBC0108F9040020E804002082
:1017600034BD01086CBC0108D4BC0108F804002099
:10177000F4040020F1040020F0040020EC04002018
:101780004CBD010890BD0108B8BD01086CBD010841
:101790005F4BB9EE007AD3ED007AF4EEC77AF1EE42
:1017A00010FA00F19F80B1EE007ADFED5A6AF4EE94
:1017B000C77AF1EE10FA37FE277AF0EEC77AF4EE28
:1017C000E67AF1EE10FA40F28A80B5EEC07AF1EED8
:1017D00010FA40F3998037EE667AF9EE007AD3ED8D
:1017E000016AF4EEE76AF1EE10FA00F18480F1EE9E
:1017F000007A9FED486AF4EEE76AF1EE10FA77FEA0
:10180000A67AF0EEE76AF4EEC66AF1EE10FA75D940
:10181000F5EEC07AF1EE10FA73DD77EEC67A61EE7E
:10182000A75A90ED006A61EE277AD0ED016A9FED2C
:101830003A5AE1EE075AE1EEC77AA5EE826AE7EE80
:10184000826A76EE407AF4EEC57AF1EE10FA4FD461
:101850009FED327A9FED2F6AF4EEC77AF1EE10FA1F
:1018600037FE277A27EE066A76EEE07A9FED2A7A2F
:10187000F4EEC77AF1EE10FA37D49FED287ADFED57
:10188000256AF4EEC77AF1EE10FA77FE277A67EE52
:10189000A67A30EE067ADFED226AB0EEC00A70EE6C
:1018A000A77A80ED007AB4EEE60AC0ED017AF1EE97
:1018B00010FA13D8F0EEE00AF4EEE60AF1EE10FAB0
:1018C0000CD8184BD3ED007AF0EEE77AF4EEE67A16
:1018D000F1EE10FA02D800230360436070479FEDD9
:1018E000127A7AE79FED117A77E7DFED117AD0E788
:1018F0009FED0F6AB8E7DFED0D7A90E7DFED0A7A2A
:101900008DE777EE867A8AE737EE267A65E700BFBD
:101910007C0500200AD7A33D9A9919BE9A99193ED1
:101920000AD7A33CA80500200000000048E17AC0C7
:10193000A69B44BCF8B50B780E460746F3B10138B8
:101940000D4602E015F8013FC3B110F8012FA3F1D5
:101950006101A3F1200EA2F1200CA2F16104C9B231
:101960005FFA8EFE5FFA8CFC192998BF7346192C1A
:1019700098BF62469A42E5D00020F8BD3046FEF797
:10198000B1FC385C2C2818BF00280CBF01200020B7
:10199000F8BD00BF2DE9F047D4B0802104A80CF0B9
:1019A00045F928B304AC464DDFF8448100272618DA
:1019B000DFF8409107E0501C9F281CD8286008F8E9
:1019C0000230A64214D014F8013B2A680D2B06D031
:1019D000A3F10A01B1FA81F149090029EBD008F815
:1019E000027012B1D9F800303BB9A6422F60EAD19B
:1019F00054B0BDE8F0872960E3E732480DF10B02EF
:101A000003A9FFF751F920B1039BD9F800209342B5
:101A100027D00DF10B0203A92B48FFF745F920B1A0
:101A2000039BD9F8002093422CD00DF10B0203A99F
:101A30002648FFF739F90028D7D0039BD9F80020B2
:101A40009342D2D122499DF80B2009788A42CCD109
:101A5000204901200870002A2FD01F4A00921B4AFB
:101A60001DE01B4A9DF80B1012789142D1D11B4901
:101A7000097811B91A4901200870D2B1164A0092AA
:101A8000104A0CE0124A11789DF80B208A42CCD102
:101A900014490120087072B10F4A00920A4A01925B
:101AA000C021114A24A816F0F7FF24A808F026F94F
:101AB0009BE70E4AE3E70D4AEFE70C4ACEE700BF8B
:101AC0002004002094BE0108D4BE010818BE0108FD
:101AD000CD040020CA04002028BC0108C90400204D
:101AE000CC040020CB0400209CBE01082CBC0108C3
:101AF00080030020D00400202DE9F0410446013885
:101B0000504E522304F11E08054615F8012FA3F18B
:101B1000610EA3F1200CA2F12001A2F161075FFA8E
:101B20008EFE5FFA8CFCC9B2BEF1190F98BF6346F6
:101B3000192F98BF0A469A420DD1454516F8013F24
:101B4000E3D101234049414A0B7041481370BDE87D
:101B5000F04108F0BBB83F4E04F11008054652238F
:101B600015F8012FA3F1610EA3F1200CA2F12001C1
:101B7000A2F161075FFA8EFE5FFA8CFCC9B2BEF17A
:101B8000190F98BF6346192F98BF0A469A420BD186
:101B9000454516F8013FE3D12F4B00222F481A701C
:101BA000BDE8F04108F092B82D4F04F10F08064649
:101BB000522316F8012FA3F1610CA3F12005A2F125
:101BC0002001A2F1610E5FFA8CFCEDB2C9B2BCF14A
:101BD000190F98BF2B46BEF1190F98BF0A469A42BB
:101BE00008D1B04517F8013FE3D11E48BDE8F041E8
:101BF00008F06CB81C4E0B34522310F8012FA3F1DF
:101C0000610CA3F12005A2F12001A2F161075FFAA6
:101C10008CFCEDB2C9B2BCF1190F98BF2B46192F3D
:101C200098BF0A469A420BD1A04216F8013FE4D170
:101C3000064B01220D481A70BDE8F04108F046B885
:101C4000BDE8F081DCBE0108790500207A0500209E
:101C500064BF01088CBF01086C05002038BF010873
:101C600050BF010810BF010828BF0108FCBE0108D1
:101C70002DE9F04790B00CF079FD404B1B7823B96B
:101C80003F4A1368C31AF92B66D8402168460BF007
:101C9000CDFFF0B16C463B4E3B4D271806E0501C83
:101CA0005F2819D83060AB54BC4212D014F8013B05
:101CB00032680D2B06D0A3F10A01B1FA81F149096E
:101CC0000029ECD00023AB545AB90023BC42336046
:101CD000ECD110B0BDE8F0872C48316008F042F834
:101CE000E2E72B4807F0F2FF284607F0EFFF29480C
:101CF00007F0ECFF284B1A780F2A06D01B78072B29
:101D000003D02846FFF7F8FEDFE71F494C23DFF832
:101D1000A48001F10C0A0A78A3F1610EA3F120005E
:101D20000131A2F1200CA2F161095FFA8EFEC0B26E
:101D30005FFA8CFCBEF1190F98BF0346B9F1190F79
:101D400098BF62469A42DCD18A4518F8013FE2D139
:101D50000D48FEF7F9FEB8E71049114B10600A78FC
:101D60001B7822B933B10F4807F0C8FF8DE71BB1CC
:101D70000D48F9E70D48F7E70D48F5E7780500202D
:101D800068050020FC04002000050020E0BF0108D9
:101D9000D0BF0108DCBF0108C00500206C05002091
:101DA0006D050020A0BF010800BB0108B8BF0108F5
:101DB0001CBB0108B0BC010830B59FB00CF0D6FCCC
:101DC000294B04461B78E3B12849294B0A78EAB12C
:101DD0002849294D0A68A21AB2F5967F2AD2274BC4
:101DE0001B6843B9264B1B68002B36D1254B1B784B
:101DF0000BB9FFF73DFF2878003818BF01201FB04E
:101E000030BD1A49204B0A78002AE1D101201A4D31
:101E100005930870A4F5967016492A7008601B484F
:101E2000049107F09FFFDDE904130A68A21AB2F5D6
:101E3000967FD4D30C604FF4167240F29F1106A81F
:101E4000CDE9012140F28A21114A0091602116F06A
:101E500023FE06A807F052FFC1E70E4B1B78002BAC
:101E6000C9D1FFF735F8C6E76D05002078050020D9
:101E700028BC01087405002079050020DC0400203E
:101E8000E80400206F0500202CBC010804C00108F4
:101E900030C00108E6040020144B1B6810B504464E
:101EA00082B03BB9124B1B688BB9124B1B780BB934
:101EB000FFF7DEFE08F0C2FF18B9019008F0C4FF7A
:101EC00060B9204602B0BDE8104008F049BD0A4B99
:101ED0001B78002BEED1FEF7FBFFEBE7FEF7F6FCDD
:101EE000064A09210198116002B010BDDC040020EF
:101EF000E80400206F050020E6040020BC05002057
:101F0000154B1B6800B583B03BB9144B1B68A3B9D4
:101F1000134B1B780BB9FFF7ABFE08F08FFF18B916
:101F2000019008F091FF78B90CF020FC08F088FCD3
:101F300003B05DF804EB08F043BD0A4B1B78002B9F
:101F4000EBD1FEF7C5FFE8E7FEF7C0FC064A092122
:101F50000198116003B000BDDC040020E8040020FB
:101F60006F050020E6040020BC050020F8B50E46F1
:101F7000174604460CF0FAFB0546FFF71DFF154B0C
:101F80001B78D3B9304607F0EDFE09E0FFF714FFE8
:101F900098B9FFF7B5FF034601209BB10CF0ECFBAD
:101FA0000CF0E4FB401BA042F0D30B4807F0DAFE34
:101FB0000A4B08221A600020F8BD384607F0D2FE0E
:101FC0000120F8BD054B1A68092AF4D005221A60D1
:101FD000F1E700BF790500206CC00108BC050020B6
:101FE0002DE9F04FADF54B7D82460CF0BFFBA74BC2
:101FF00005901A6812F1010900F0C5814A46DFF820
:10200000E0B240F6B8381A609BF80030059A002B11
:102010009F4BA2F1C801A2F10A021B7808BF4FF43E
:10202000E16807910692002B00F0AB81994C9A4928
:102030005046FEF74DF94EF6602347F230524021EC
:10204000CDE900940024A04208BF1A46934B1AA879
:102050001C70934B09921C705346924A16F01CFD5B
:102060005346914A40212AA8CDF8009016F014FD5D
:1020700053468E4A40213AA8CDF8009016F00CFD48
:1020800053468B4A40214AA8CDF8009016F004FD33
:102090005346884A40215AA8CDF8009016F0FCFC1F
:1020A0005346854A40216AA8CDF8009016F0F4FC0A
:1020B0005346824A40217AA8CDF8009016F0ECFCF5
:1020C00053467F4A6021B2A8CDF8009016F0E4FC98
:1020D000B2A807F047FE0CF049FB059B05460494A7
:1020E0000893069BCDF80C90EB1A092B40D8079B60
:1020F000EB1AC72B46D800270DF128094021484686
:102100000BF094FD00B309EB00064D46204609E0B4
:10211000421C5F2A44D80DEB0004104684F8683254
:10212000B54210D015F8013B0D2B01D00A2BEFD191
:102130000DEB0003002283F86822002834D1B54259
:102140004FF00000EED104460CF010FB002F40F0E1
:10215000F880059BC01A404580F0348101200CF0C6
:102160000BFB0CF003FB069B0546EB1A092BBED9B3
:10217000FFF7C6FE002800F06881079B0695EB1A62
:10218000C72BB8D91AA807F0B9FD53464D4A6021AC
:10219000B2A816F081FCB2A807F098FD0795AAE74F
:1021A000494807F0DFFDCAE7484807F08FFD9AA8C5
:1021B00007F08CFD464807F089FD9AA8FFF79CFCC4
:1021C00040F6B8339BF800203AA943459AA838BF97
:1021D0004346002A18BF9846FFF7ACFB0446002888
:1021E00000F08080002F00F0A880039B6021394A16
:1021F000B2A80093534616F04FFCB2A807F0B2FD08
:102200004AA99AA8FFF796FB002872D17AA99AA842
:10221000FFF790FB0746002840F0B8806AA99AA80B
:10222000FFF788FB80B142F6E06398450AD0039B34
:102230006021294AB2A80093534616F02DFCB2A89B
:1022400007F090FD42F6E068DCB19AA85AA9FFF7C2
:1022500071FB08B9274663E70CF088FA039BA0F1ED
:10226000C8041E4A6021009305905346B2A8079403
:1022700016F012FCB2A807F075FD40F6B83800233E
:102280000493B54200F0948000204BE764050020E1
:102290006D05002028BC010894C0010871050020CC
:1022A00070050020A0C00108C0C00108D8C0010806
:1022B000F0C0010808C1010820C1010838C10108A7
:1022C00050C10108DCC10108E4C20108D0BF010807
:1022D000DCBF0108F4C101089CC20108B8C20108B2
:1022E0007A0500204AA99AA83C46FFF723FB00285C
:1022F0008CD059495046DDF80C90FDF7E9FF0028D5
:102300005AD156499AA816F005FD011E18BF0121A1
:10231000534C5346534AB2A8CDF800902170602127
:1023200016F0BAFBB2A807F01DFD2378002B45D1AB
:1023300001200DF54B7DBDE8F08F0CF017FA0490ED
:1023400053E701200CF018FA0CF010FA049B099ADC
:102350000546C31A93424CD2069BEB1A092B0AD8A6
:10236000089BEB1AB3F57A7FFFF4C8AE2AA807F0F2
:10237000C5FC0895C2E6FFF7C3FD002865D00695A9
:10238000EEE7394C53E60122914638E6DDF80C9031
:102390005346364A6021B2A8CDF8009016F07CFB77
:1023A000B2A807F0DFFC324B0A221A600020C0E717
:1023B00000240CF0DBF9CCE60021A9E72D4807F05A
:1023C000D1FCB5E7DDF80C9053462B4A6021B2A84A
:1023D000CDF8009016F060FBB2A807F0C3FC002116
:1023E0000122234B8BF800101D490A7008221A6045
:1023F000DCE7DDF80C905346204A6021B2A8CDF806
:10240000009016F049FBB2A807F0ACFC53461C4AFA
:1024100040218AA8CDF8009016F03EFB8AA807F06C
:102420006DFC8AA807F06AFC5346164A6021B2A8E0
:10243000CDF8009016F030FBB2A807F093FC012312
:10244000074A1370104A137072E7094B1A68092A79
:10245000ACD005221A60A9E794C001080CC201089B
:102460007105002020C201082CBC010878C20108B7
:10247000BC0500203CC2010800C301086CC1010872
:1024800090C10108A8C10108700500202DE9F04F96
:10249000ADF5617D0C4607900CF068F9A54B0C90EA
:1024A0001A6812F1010800F096814246DFF8C8A2CE
:1024B00040F6B8371A609AF800209F4B002A0C9A11
:1024C0001B78A2F1C801A2F10A0208BF4FF4E1672C
:1024D0000A910992002B00F07B81984B0D93002C00
:1024E00000F04C810D9BC0A8954A802100930223E7
:1024F0000F900193434616F0CFFA38A84346914A0D
:102500006021049016F0C8FA50A843468E4A602114
:10251000059016F0C1FA68A843468C4A60210690DF
:1025200016F0BAFA20A84346894A60210E9016F0A8
:10253000B3FA884B0893079B8021874AA0A802938F
:102540000D9BCDE90083089B16F0A6FAA0A807F022
:1025500009FC0CF00BF9002304461D460B93099B64
:10256000E31A092B3DD80A9BE31AC72B43D810AEB8
:10257000402130460BF05AFB8346002800F044818E
:102580004FF000090024284608E0421C7F2A45D865
:1025900080A90B54104601345C450DD2335D0D2BE0
:1025A00001D00A2BF1D1002380AA1354002839D17D
:1025B000013400205C45F1D305460CF0D7F8B9F1A1
:1025C000000F7ED10C9BC01A874240F2248101206B
:1025D0000CF0D2F80CF0CAF8099B0446E31A092B58
:1025E000C1D9FFF78DFC002800F03F810A9B0994B8
:1025F000E31AC72BBBD90F9807F080FB079B574AFC
:1026000080210293A0A80D9BCDE90083089B16F0C2
:1026100043FAA0A807F05AFB0A94A8E7504807F02D
:10262000A1FBC5E74F4807F051FB80A807F04EFB20
:102630004D4807F04BFB80A8FFF75EFA40F6B83331
:102640009AF8002080A80499002A18BF1F46FFF7B7
:1026500071F9054678B1B9F1000F2ED0079B8021A2
:10266000424AA0A8A946CDE90083089B16F014FAB7
:10267000A0A807F077FB059980A8FFF75BF9002871
:1026800040F0AC8080A80699FFF754F9002882D06A
:102690000799A0A8089B364ACDE90081802116F051
:1026A000FBF9A0A807F05EFB324B0A221A60002556
:1026B00028460DF5617DBDE8F08F0CF057F80B90C2
:1026C000CCE7012047F22F540CF056F80CF04EF8EE
:1026D00083460B9B099AABEB0303ABEB0202A342CD
:1026E00000F2B080092A1CD80A9BABEB0303B3F5B8
:1026F0007A7F10D2402130460BF098FA83460028AA
:102700007FF440AF0CF032F801200CF035F80CF0FB
:102710002DF88346DDE70E9807F0F0FACDF828B0E3
:10272000E8E7FFF7EDFB002800F09F80CDF824B02C
:10273000DAE700BF640500206D05002028BC010811
:1027400038C3010870C301089CC30108C8C301084D
:10275000ECC301082CC301088CC40108FCC40108A7
:10276000C8C50108D0BF0108DCBF010838C5010891
:1027700098C50108BC0500207A050020079BC0A869
:102780003E4A802101930D9B0F900093434616F023
:1027900083F938A843463A4A6021049016F07CF940
:1027A00050A84346374A6021059016F075F968A88D
:1027B0004346354A6021069016F06EF920A843463C
:1027C000324A60210E9016F067F9314B0893B2E659
:1027D000304B0D9383E60122904667E6079B054642
:1027E0002D49002001932D4A089BCDF800800870E8
:1027F0008021A0A816F050F9A0A807F0B3FA284647
:102800000DF5617DBDE8F08F0BF0B0FF0C9BC31A96
:10281000BB42FFF4DCAEDDE907238021A0A80192D2
:10282000CDF800801E4A16F037F9A0A807F09AFAF2
:10283000194A012100201B4B117008228AF8000060
:102840001A6034E70799A0A8089B174ACDE90081D0
:10285000802116F021F9A0A807F084FA0E49012082
:10286000104B082208701A6021E70E4B1A68092ADB
:102870003FF41DAF05221A6019E700BF10C401081C
:1028800044C4010868C40108C8C30108ECC30108B6
:1028900024C301082CBC01087105002068C501088B
:1028A000F0C50108BC050020C8C401082DE9F04F9F
:1028B000ADF5077D83460BF059FFA34B05901A68D1
:1028C00012F1010A00F0DE805246DFF8EC8240F699
:1028D000B8361A6098F80030059A002B9B4BA2F18D
:1028E000C801A2F10A021B7808BF4FF4E166039108
:1028F0000492002B00F0C480954B0027954A40219C
:1029000016A8CDE900A3944B1F705B4616F0C4F8DF
:102910005B46924A402126A8CDF800A016F0BCF8EC
:102920005B468F4A402136A8CDF800A016F0B4F8D7
:102930005B468C4A402146A8CDF800A016F0ACF8C2
:102940005B46894A60216EA8CDF800A016F0A4F875
:102950006EA807F007FA0BF009FF049B0446C31AA0
:10296000092B76D8039BE31AC72B7BD8402106A8F6
:102970000BF05CF900285BD006AC251809E07A1C46
:102980005F2A5FD86F4487F8583117460134AC424C
:102990004ED023780D2B08D0A3F10A09B9FA89F992
:1029A0004FEA5919B9F1000FE9D04FF000090DEBCA
:1029B000070383F85891002FE8D06C4807F086F998
:1029C00056A807F083F96A4807F080F956A8FFF780
:1029D00093F840F6B83398F8002026A9B34256A8D9
:1029E00038BF33464A4518BF1E46FEF7A3FF0028EE
:1029F0004BD146A956A8FEF79DFF0746002860D197
:102A000056A836A9FEF796FF08B342F6E0694E4590
:102A1000BCD05B46574A60216EA80134CDF800A0B7
:102A200016F03AF86EA807F09DF9AC424E46B0D1C8
:102A30000BF09CFE059BC01AB04269D201200BF03E
:102A40009BFE88E74C484F4607F08CF99EE7074607
:102A50009CE7FFF755FA00286FD0039B0494E31A14
:102A6000C72B83D916A807F049F95B46434A602172
:102A70006EA816F011F86EA807F028F9039475E710
:102A80003F4B3AE7012292461FE7334B07463D4949
:102A9000584683F800903C4BC3F800A0FDF718FCA3
:102AA00018B35B46394A60216EA8CDF800A015F036
:102AB000F3FF6EA807F056F938460DF5077DBDE81F
:102AC000F08F5B46324A60216EA8CDF800A015F069
:102AD000E3FF6EA807F046F92E4B0A221A60002782
:102AE00038460DF5077DBDE8F08F184B1A782A4B54
:102AF000C3F800A0294B1A70294B1870294B187085
:102B0000294B1870294B1870294807F02BF9C8E792
:102B10005B46284A60216EA8CDF800A015F0BCFFE6
:102B20006EA807F01FF9002101221A4B88F8001047
:102B300009490A7008221A60D1E7164B1A68092A57
:102B4000CDD005221A60CAE7640500206D0500207B
:102B500028BC0108A0C0010871050020D8C00108E8
:102B600020C1010838C1010828C60108D0BF0108EA
:102B7000DCBF0108DCC60108E4C2010848C6010840
:102B80002CBC01080CBC01086005002094C601089B
:102B9000B4C60108BC050020D0040020CD040020EC
:102BA000CC040020CB040020CA040020C90400206B
:102BB00068C6010800C701087A0500202DE9F04F1A
:102BC000DFF84082F5B007460BF0D0FDD8F80030B2
:102BD000002B00F0AD808146A0F1C80B0A38754A81
:102BE0004021009303903B4614A8002415F054FFA5
:102BF000D8F80030704A4021009324A83B4615F0D5
:102C00004BFFD8F800306D4A4021009334A83B4672
:102C100015F042FFD8F80030694A602100935CA8A3
:102C20003B4615F039FF5CA807F09CF80BF09EFDC1
:102C3000039B0546C31A092B63D8A5EB0B03C72BCF
:102C400068D8402104A80AF0F1FFE8B104AD05EB13
:102C5000000A07E05F290C4622D8013500F8C02C95
:102C6000554511D02A7804F5E873611C00260D2A19
:102C70000DEB030001D00A2AECD100F8C06C9CB91E
:102C8000013500245545EDD10BF070FD43F6972337
:102C9000A0EB0900984276D801200BF06DFDC5E746
:102CA000484807F05FF8EBE7474807F00FF844A8FB
:102CB00007F00CF8454807F009F844A8FEF71CFF98
:102CC00024A944A8FEF736FE044634A944A8002CE3
:102CD00035D1FEF72FFE0028D2D0D8F800003B46B1
:102CE0003B4A602100905CA815F0D6FE5CA807F076
:102CF00039F8384B0A221A600024204675B0BDE826
:102D0000F08FFFF7FDF800284DD0A5EB0B030395DE
:102D1000C72B96D914A8AB4606F0F0FF3B462E4AC7
:102D200060215CA815F0B8FE5CA806F0CFFF88E72C
:102D30002A4807F017F8274B0A221A60DCE7D8F870
:102D400000306021264A5CA800933B4615F0A4FEA3
:102D50005CA807F007F823493846C8F80060FDF77B
:102D6000B7FA0028C9D1204B204A1870204B1060B8
:102D700018702049204A214B0870107018702046A6
:102D800075B0BDE8F08FD8F800003B461C4A6021C2
:102D900000905CA815F080FE5CA806F0E3FF0D4BE8
:102DA00008221A60A8E70B4B1A68092AA4D005224A
:102DB0001A60A1E790C10108F0C0010838C10108FC
:102DC00050C70108E4C20108D0BF0108DCBF0108F8
:102DD000A8C70108BC05002070C7010828C7010862
:102DE00088C701080CBC0108CD040020D0040020D5
:102DF000CB040020CC040020CA040020C904002019
:102E0000D0C70108600500202DE9F04FADF53F7DEA
:102E100007460D4616460BF0A9FC8F4B04901C6824
:102E2000013420D022461A608C4B1B78CBB18C4ADF
:102E300047F230539E4298BFB5F57A7F07D8B7F175
:102E4000030A18BF4FF0010ABAF1000F0ED0854BEC
:102E500006221A604FF0000948460DF53F7DBDE897
:102E6000F08F814AE4E701221446DCE7049F4FF02B
:102E700003092346A021C83F009296A87B4ACDF8BB
:102E800004900597049FCDE9025615F005FE2346F0
:102E9000774A402106A8A7F10A0815F0FDFD234650
:102EA000744A402116A815F0F7FD2346724A4021C6
:102EB00026A815F0F1FD2346704A80214EA8CDF8D2
:102EC0000090CDE9015615F0E7FD4EA806F04AFF47
:102ED0000BF04CFCA0EB08030446092B00F2A08089
:102EE00057460DF1D80B059BE31AC72B00F28B80D8
:102EF000602158460AF09AFE8246002800F093802E
:102F000000265C46002509E0791C9F294BD86EA855
:102F1000C2550F460135013455450ED222780D2A8F
:102F200001D00A2AF0D100226EABDA55002F3ED133
:102F30000135002701345545F0D30BF017FC16BBC3
:102F4000049BC01A40F6B733984276D80120002679
:102F50000BF012FC0BF00AFCA0EB08030446092B53
:102F6000C1D9FEF7CDFF00286ED0A0460DF1D80BD9
:102F7000002EB8D0602158460AF058FE824600283C
:102F8000BFD10BF0F3FB801B41F2873398424DD841
:102F900001200BF0F1FB0BF0E9FBA0EB080304466A
:102FA000092BE7D9DDE7364806F0DCFEC0E73548F7
:102FB00006F08CFE6EA806F089FE334806F086FE09
:102FC00006A96EA8FEF7B6FC50B1002EB0D10BF0EA
:102FD000CDFB81462D48374606F078FE4E4699E7F0
:102FE00016A96EA8FEF7A6FC814688B96EA826A988
:102FF000FEF7A0FC00289BD0254806F0B3FE194B35
:103000000A221A6026E796A806F078FE05946FE774
:10301000204806F0A7FE48460DF53F7DBDE8F08F3D
:10302000564657469DE70BF0A1FB89E71A4806F084
:1030300099FE0C4B08221A600CE7184806F092FE25
:10304000084B08221A6005E7064B1A68092A3FF464
:1030500001AF05221A60FDE6640500206D05002021
:1030600028BC0108BC0500202CBC0108F4C70108DD
:1030700038C8010854C8010870C801088CC8010884
:103080000CC90108D0BF0108DCBF0108C8C801088D
:10309000F0C80108DCC801084CC9010830C90108A2
:1030A000F8B507460BF062FB0646A0F10A050BE0F7
:1030B0000BF05CFB431B092B03D90546FEF720FFF1
:1030C00040B101200BF058FB0BF050FB801BB842C5
:1030D000EED3F8BD044B1A68092A01D005221A6004
:1030E000024B07221A70F8BDBC050020C005002065
:1030F0002DE9F04F00232DED108BE5B09FED979A51
:10310000B0EE408A1993F0EE608A8DED129A8DED43
:10311000139A8DED149ACDE91A33CDE91C33CDE91C
:103120001E33CDE92033CDE917338D4BD3ED00EAC3
:103130000BF01CFBF0EE492ADFED981AB0EE492A9D
:1031400023AA012304908DED229A07EE903AF0EE27
:10315000480A16A915A8B8EEE70A013320EE210A9D
:10316000FDF772FBF0EE627ADDED162AB0EE427AE0
:103170009DED152A412B72EEE77A52ED016A32EE8F
:10318000477A67EEA77AE7EE077AB1EEE77A77EE4D
:10319000267AE2EC017AD8D19DED62BA9FED71CA30
:1031A000B4EECCBAF1EE10FA08D86F4B062200202C
:1031B0001A6065B0BDEC108BBDE8F08FDFED67AA3B
:1031C0006A4B9FED6B7AB0EE6A9AC3ED00AAF0EEFF
:1031D0006ABA684B68EE878ADFED677AB0EE6AAA52
:1031E000C3ED00AAF0EE6A9A644B68EEA77A9FEDF1
:1031F00064FAF0EE6ADAC3ED00AAB0EE6ADA614B67
:1032000028EE0F7A049EF0EE6ACAC3ED00AA5E4B68
:103210003746CDED087A7EEEA77AC3ED00AAA6F177
:10322000FA038DED027AB0460693CDED077AFEF7EC
:10323000C3FD002301220A93059209930BF096FA2D
:103240000646FEF7B9FD049A42F22733B21A9A42B3
:1032500000F24183F31B092B40F2BE83A6EB080367
:103260000A3707EE903AF31BF8EE677A092B88BF0E
:10327000374667EE8C7AF4EECC7AF1EE10FA00F174
:103280008983DFED42FAF4EEEF7AF1EE10FA7FFE79
:10329000A7FAB0EE6F0AFDF761FB14AB12AA1EA9E4
:1032A000009313AB3A4807F02BFA8046002800F051
:1032B000D183DFF8E0B0DBED007A77EEEE8AB0EE96
:1032C000680A14F069FBB0EE40FAB0EE680A14F038
:1032D00063FA9DED137ADDED127AF0EE401A67EE97
:1032E000006A9DF8643027EE0F7AE7EE8F6AA0EE51
:1032F000677AB0EE66EAF0EE478A002B00F0528360
:10330000B0EE6F2A17A8B0EE4F1AF0EE470AB0EEF3
:10331000660AFEF73DFA9DED17EADDED188A89EEA3
:103320008B6AB5EEC06AF1EE10FA00F13683F7EE63
:10333000002AB4EEE26AF1EE10FAF5EEC09A32FE1F
:10334000866AF1EE10FA40F28983F4EECB9AF1EE40
:1033500010FA5ADA23AA012332E000BF000000006D
:103360008C0500206F12833ABC050020A8050020C0
:10337000DA0FC93FA405002080B7803F98050020E0
:10338000B7D1303F9405002090050020CDCC4C3DB6
:103390006CE90108AC050020BD3786350000803C93
:1033A000CDCCCC3E9A99193F3333B3BE9A9919BE0E
:1033B0000AD75BC0AE47613F0133412B00F0478322
:1033C000D2ED007A0432F4EEE79AF1EE10FAF3D877
:1033D000013B1FED0F5A0DEB8302D2ED225A77EE1F
:1033E000E57AF4EEC57AF1EE10FA40F3078379EE50
:1033F000E55A85EEA75A07EE903AF8EEE72A5FED18
:10340000197A72EE852A62EEA72AF0EE480A16A90A
:10341000B0EE620A15A88DED036AFDF715FAF7EE16
:10342000005A5FED217AF0EE084A1FED224A28EE9D
:10343000275A1FED237A75EEE25A9DED023AF1EE1E
:10344000087A9DED036AA8EE443A65EEA43A65EE6B
:10345000A77A62EEA44A63EEA53AF0EE455A67EE0B
:10346000A27A64EEA24AD8EE045A65EEA75A67EE35
:10347000877A1FED327AE5EE235A1FED335AE3EED9
:10348000877AE4EE835AE4EE857A25EEA55AA7EE14
:10349000A75AF1EEC53AF4EECC3AF1EE10FA40F24A
:1034A000D982C5EEA34A5FED3D5AE54BD3ED002A24
:1034B00087EEA34ADFEDE33A68EEA33A6EEE255AB3
:1034C0007BEE697AA3EEAFDAE5EEAFCA23EEA43A5B
:1034D000A5EE843A63EE843AE4EEE53AF0EE625A01
:1034E000B0EEC35AE3EE2FDAE5EE2F5AC3ED005AE1
:1034F0007BEE6D5AF4EEE5AAF1EE10FAF4EEE7AACF
:103500003AFEA50AF1EE10FA7AFEA77AF4EEC07A36
:10351000F1EE10FA30FE270AB5EE400AF1EE10FA8D
:1035200000F1BB82F1EEC07ADFEDC72AF4EEE72AA4
:10353000F1EE10FA77FEA27AB4EEE7AAF6EE002AD0
:10354000F1EE10FA6FEEA22A40F10A827AEE222AF8
:10355000F4EEE72AF1EE10FA37FEA2AAEAEE2F9A6D
:10356000DFEDBA7AF4EECB9AF1EE10FA7BFE299AEF
:1035700079EEED2A62EEA72AFDEE007AF4EEE72A54
:10358000F1EE10FA07D4F5EE007AF4EEE72AF1EE48
:1035900010FA77FEA27A7AEE277AFDEE002AF4EE90
:1035A000E27AF1EE10FA00F10E82DFEDA72AF4EED6
:1035B000E27AF1EE10FA72FEA77A37EEC33ADFED47
:1035C000A42A63EE222AE2EEAFBAFDEE002AF4EE60
:1035D000E2BAF1EE10FA00F1F381F5EE002AF4EE12
:1035E000E2BAF1EE10FA72FEABBADFED9A2AE3EE20
:1035F000227AFDEE002A77EEAB7AF4EEE27AF1EE73
:1036000010FA07D4DFED902AF4EEE27AF1EE10FA28
:1036100072FEA72ADDED167A9DED152A7DEE677AFA
:10362000DFED8D0A3CEEC22A8C4B67EE847AC3ED47
:10363000002AE4EEC27A9FED8A2AB0EE673ADFED07
:10364000897A67EEE37AE3EE027AF4EEE07AF1EE5D
:1036500010FA07D4DFED840AF4EEE07AF1EE10FA06
:1036600070FEA70A814BDDED027A83ED003A9FEDF3
:10367000803A37EECD2A7F4B33EE6C3AC3ED000A29
:1036800062EE027A7C4BB5EEC03AC3ED003AF1EE41
:1036900010FA00F1778177EEAA7AB0EE6A3AF1EE8D
:1036A000E73ADFED767AB4EEE76AF1EE10FAC0F2AF
:1036B0006081DFED737AF4EEE73AF1EE10FA05D9A6
:1036C000F4EECC3AF1EE10FA00F39B81DFED6D0AD7
:1036D000F0EE6A7AB0EE603A604BC3ED007AF7EE36
:1036E000004A9DED087A82EE8B4A674BB4EEE46A9D
:1036F000B0EE001AF0EE082AF1EE10FAF1EE087AB8
:1037000021EEE00A34FE862AE2EE412A74EEC64A31
:1037100022EE022A66EE277A60EE8F0AA3EE0F0AE7
:1037200062EE822A9FED592A67EEA47AF0EE6E4A85
:10373000E3EE210AE7EE224A67EE272ADBED007A64
:1037400093ED003A74EEE77A67EE827AE2EE847ADD
:103750009FED4F4AE3EE447A9FED4E4AF4EEC47A71
:10376000F1EE10FA00F12981F4EEC27AF1EE10FACE
:1037700072FE277A9FED484A6FEE84FA39EE6F4A5F
:10378000B4EEE74AF1EE10FA00F3148179EE2FFA65
:10379000F4EEEF7AF1EE10FA3FFEA79A3F4A9DED64
:1037A000077A82ED009A3E4ADBED007AC2ED004ACC
:1037B000DFED324A77EE677AB4EEE46AF0EEE77A4C
:1037C000F1EE10FA80F2AE80F0EEE55A9FED357A18
:1037D000F4EEC75AF1EE10FA00F2B7809FED287AA6
:1037E000B4EEC75AF1EE10FA00F2AF809FED2E7AD8
:1037F000F4EEC77AF1EE10FA0AD8D3ED007A9FED15
:103800002B7AF0EEE77AF4EEC77AF1EE10FA0DD9E2
:10381000124BC3ED00AA174BC3ED00AA0A9B002B65
:1038200000F0E080CDF828804FF00008B0EE491A93
:103830001AA91F4806F0ECFE002800F00B8139E0C1
:10384000A00500209A99B93F3333B33F9A99993F25
:10385000CDCC4C3F3333B33E9A9999BEA805002096
:103860009A9919C0AE47613E9A99993E98050020F1
:103870000AD77BC094050020900500209A99593FF3
:103880008FC2F53C00000000B0050020CDCC0C40FC
:10389000CDCC4C3ECDCC0CC033337340A4050020BE
:1038A0008C0500206F12033C0AD7A33C0AD7233DA6
:1038B0006CE901081AA8FEF7EFFA002800F0DA8098
:1038C0000AF054FF1EA907F099F8A0B9059B5BB94F
:1038D000844806F047FA844B05221A60002065B040
:1038E000BDEC108BBDE8F08FCDE91E00CDE92000C6
:1038F0007E4806F037FA069BF31AF92B66D808F0D3
:10390000ADFDB8F1000F09D0099B002B68D0F31A68
:103910003B2B4FF0000300F2B38009930023B04625
:1039200005938BE49FED726AF4EEC63AF1EE10FA5D
:103930000BD828EEA87AAEEE0E7AF1EEC76AF4EE56
:10394000C66AF1EE10FA7FF651AF9FED6A7AF4EE97
:10395000C77AF1EE10FA1AD81B684FF0000865E735
:103960007AEE622AF4EEE27AF1EE10FA37FEA2AABB
:10397000F4E524EEE03A60EE840AA4EE223AE4EEA6
:10398000A20AACE6E3EE037AB1EE433A87E64FF0E3
:1039900000084BE7F0EE4CFA7BE4B0EE6A6AF0EE1A
:1039A0006A2A32E50123CDED176A8DED187A8DF87C
:1039B0006430B4E4B0EE449AF0E6F0EE447AD9E62E
:1039C000F0EE62BA11E6F0EE627AF6E51EA9304634
:1039D000FDF76EF8069692E701200AF0CDFE2DE481
:1039E00009969BE74448CDED0A0A8DED030A06F0DF
:1039F000B9F9DDED0A0A9DED030A13E7B0EE6A5A44
:103A0000F9E4DFED3E0ADFED3E7A62EE200A9FED3B
:103A10003D4A23EE273A60EEA04AE3EE034AF1EE78
:103A2000E47AF4EEC47AF1EE10FA1ADCDFED364AED
:103A3000F4EEE47AF1EE10FA7FF54EAE84EEA74A8A
:103A4000F0EE647A23EE043A60EE840A44E6F7EE80
:103A5000002ADAE4244B06221A603FE7DFED2B2A26
:103A6000D3E4C4EE274AF0EE447A23EE243A60EE23
:103A7000A40A31E61C4B1A68092A7FF42DAF2DE702
:103A8000234ADDED077AC2ED007A224A1360224A0A
:103A90001360FEF735FAFFF78CBBCDED111A8DEDF3
:103AA000106ACDED0F5ACDED0E3A8DED0D3ACDEDFC
:103AB0000C4A8DED0B4A8DED035A13F043FEDDEDFC
:103AC000111AF0EE407A9DED106ADDED0F5ADDED32
:103AD0000E3A9DED0D3ADDED0C4A9DED0B4A9DED44
:103AE000035A21E5C0C90108BC0500209CC9010892
:103AF0000AD7A33D0AD7A33C68C901089A99993F00
:103B00009A9999BF6666E63E8FC2F53D00000000B7
:103B10008C050020A8050020A40500202DE9F04F09
:103B2000994C0027994B4FF00108D4ED007ADFF84B
:103B3000B8B22DED0C8B89B030EE27AA93ED00DAE8
:103B400000970397DFED928ADFED92BA9FED929A8C
:103B5000DFED929A9FED92BACDE901770AF006FE69
:103B6000DFED907A904B8146B0EE67CAA0F1FA0A79
:103B7000C3ED007AF0EE67AA8C4B0646CBED007AD7
:103B80000546C3ED007A8A4B84ED00AAC3ED007AA6
:103B9000884BCDE90477CDE90677C3ED007A0AF0CA
:103BA000E5FD41F26F73A0EB090204469A4200F270
:103BB000DF80831B092B40F2C380431B0A3607EECC
:103BC000903A831BF8EE677A092B88BF064667EEAA
:103BD000A87AF4EEE87AF1EE10FA00F1A8809FEDF1
:103BE000768AF4EEC87AF1EE10FA38FE278A734D21
:103BF000B0EE480AFCF7B2FE7AEE4DCAD5ED007A77
:103C00006BEEE77AECEE897AF4EEE97AF1EE10FAEF
:103C100000F18A80F4EEC97AF1EE10FA79FE277A83
:103C200028EE0B8A3CEE487AB4EEE77AF1EE10FA11
:103C300077DC3CEE088AF4EEC87AF1EE10FA38FE32
:103C400027CAB0EE4C1A6946F0EE6A0A9FED550A93
:103C50005B488BED00CA06F0DBFC002800F08C808E
:103C6000584B1B6843B9584B1B68002B6ED1574B00
:103C70001B780BB9FDF7FCFF07F0E0F818B907F067
:103C8000E3F800286ED1684606F06AFE58B9504B3A
:103C90001A68092A01D005221A60002009B0BDEC7B
:103CA0000C8BBDE8F08F0AF061FD04A906F0A6FEBA
:103CB00070B9B8F1000F04D1464806F053F8444BF0
:103CC000E9E7CDE90400CDE90600434806F04AF8EB
:103CD000A4EB0A032D4AF92B92ED00DA2AD8F0EE74
:103CE000ECCA08F0BBFBDFED3D7AF4EEE7CAF1EE7B
:103CF00010FA12D8D5ED007A9FED397AF0EEE77A16
:103D0000F4EEC77AF1EE10FA07D837B3E31B4F2B66
:103D100036D84FF00008254641E700272546B8462B
:103D20003DE7B0EE47CA8CE7F0EE697A78E7B0EE8F
:103D3000688A5CE704A92046A246FCF7B9FECEE7F4
:103D40002C4601200AF018FD254628E7254B1B7854
:103D5000002B91D1FDF7BCF88EE727464FF0000805
:103D600025461CE7FCF7B2FD194B09221A608FE7C4
:103D7000174B07221A6090E7154B06221A608CE752
:103D8000FEF7BEF88AE700BF8C050020AC050020D6
:103D90006F12833ACDCC4C3ECDCC0C40CDCC0CC078
:103DA0003333734000000000A80500209805002070
:103DB0009405002090050020CDCC4C3DB00500209E
:103DC0006CE90108DC040020E80400206F050020F5
:103DD000BC050020C0C901089CC901080AD7A33C42
:103DE0000AD7233DE6040020A40500205B4B1A6897
:103DF0002DE9F04F01320D462DED088BADF53F7DDD
:103E0000B0EE40AA1B90089201D101220892002432
:103E10001A600AF0ABFC012D0E902494CDE92244E7
:103E2000CDE92644CDE92844CDE92A44CDE92C4406
:103E300024D0089E3EA84A4D60213346494A009549
:103E40001A9014F029FE1B9A3346029496ACA021D6
:103E500001922046444A00951D9414F01DFE204610
:103E600005F080FFB5EEC0AAF1EE10FA40F24982EB
:103E70003E4B1C68003C18BF01241EE03C4D3EA890
:103E8000089E6021374A334600951A9014F004FECC
:103E90001B9A3346009596ADA02101922846324ADE
:103EA00002941D9514F0F8FD284605F05BFFB5EE71
:103EB000C0AAF1EE10FA40F224822E4B00229FEDB0
:103EC0002E9A1C7093462D4BF0EE498AB0EE49BAFB
:103ED000DFED2B9A83ED009A92462A4BDFED2AAA5A
:103EE00083ED009A294B129283ED009A284B15928C
:103EF00083ED009A274B179283ED009A0E9B119247
:103F0000A3F12801A3F10A09169219921C921492A6
:103F100018921392CDE90C310123CDE90F220B93B6
:103F20000AF024FC0E994EF65F220790A0EB0108E0
:103F3000904500F2A082079B0D9A9A1A272A00F258
:103F4000838140212EA809F071FE002844D02EACB8
:103F5000002752462618CDE9098928E0640500208B
:103F600034CC010808CC010850CC0108E80400203A
:103F700098CC0108E604002000000000A8050020FD
:103F80006F12833AA4050020CDCCCC3D98050020CB
:103F90009405002090050020CDCC4C3D56AB9F549D
:103FA000002A40F0C18000220134B44211D02378AD
:103FB0000A2B18BF0D2B0CBF01250025EED0511C7C
:103FC0007F2900F2E780013456A8B44283540A46A0
:103FD000EDD1DDE909899246079BA3EB0902092A85
:103FE00040F25281079B0C9A9B1A07EE903AF8EE2A
:103FF000677A67EEA97AF4EEE97AF1EE10FA00F149
:1040000037811FED1B8AF4EEC87AF1EE10FA38FE04
:10401000278AB0EE480AFCF7A1FCBBF1000F00F0C4
:10402000E180079B139A9A1AB2F5AF7F00F2DE8007
:10403000F0EECB7AB7EE087AF4EEC77AF1EE10FA2A
:1040400040F33A81B14A9FEDB27AD2ED007A9FED0A
:10405000B11A67EE677A9FEDB07AEBEE077AF4EE6D
:10406000C17AF1EE10FA07D49FEDAC1AF4EEC17AE2
:10407000F1EE10FA31FE271ADDE90F321A4312F081
:10408000FF0200F0228114991C98002B18BF0146F2
:104090001B9BC91A642940F32A81B1EE4A7A9346E0
:1040A00068EE2A7A77EE686AF4EEE67AF1EE10FAB4
:1040B00040F1BA8078EEA78AF0EE496AB1EE680A5C
:1040C000E8EEA86AF1EEE67A954B2AA99548F0EE5B
:1040D000490AC3ED007A944B83ED001A06F098FA72
:1040E000002800F0D9812AA8FDF7D6FE002800F0AC
:1040F000D9810AF03BFB26A906F080FC002856D1A6
:104100000B9B002B4CD1894805F02CFE884B0522D7
:1041100088490B981A600870002420460DF53F7DF1
:10412000BDEC088BBDE8F08F0DF5EC790DF184083E
:104130000DF1800A1846FDF7DFFC1FAB1EAA7E4971
:1041400056A8CDF80890CDF80480CDF800A014F062
:10415000D5FC052803D11E9B089A93422FD056A860
:104160001EAA764914F0CAFC01287FF41CAF1E9BDE
:10417000089A93427FF417AF119B5A1C704B02FBB5
:1041800003F3119213F1333FFFF40DAF6D4805F0C7
:104190009DFD08E76C48AB4605F0E4FD2A4603E7C1
:1041A000CDE92600CDE92800684805F0DBFD08F0E0
:1041B00055F9DDF81C900023CDE90B39B0E6219BC1
:1041C000B3F5487FCBD1769BB3F5167FC7D1DDF829
:1041D0007C9041F27073994540F2C4805C4805F0D0
:1041E00075FDE0E60F9B0BB9109B33B1129B13B921
:1041F000584805F06BFD01231293B8F5FA7F29D2D8
:10420000179BB1EE4A7A002B42D0B0EE491A002338
:10421000B0EE49BA0122CDE916329B4619931493A8
:104220001893CDE90F333BE7B1EE676AF4EEC66A47
:10423000F1EE10FA1FD578EEE78AF0EE496AB1EE9A
:10424000680AE8EEA86A3DE71A9805F057FD079B53
:104250000D9376E6159B002B3CD001220023B0EE97
:104260004A7AB0EE491AB0EE49BACDE91523D4E73F
:10427000B0EE698ACDE6F0EE496AB1EE470AF0EE9B
:10428000478AE7EE076A1DE701200AF075FA47E65C
:10429000B7EECA6A4FF4FA72802176A802922E4ACB
:1042A0008DED097A8DED006B14F0F6FB76A805F024
:1042B0000DFD9DED097AA8E7DDE90F32B0EE491A50
:1042C0001A4312F0FF027FF4DEAEB0EE497A0F928D
:1042D0001092E5E6B7EECA7A204A802176A88DEDE5
:1042E000007B14F0D9FB76A805F0F0FCB5E764314B
:1042F00003DAB0EE4A7A9346D2E693469FED187AF7
:10430000CEE60B4B06221A6006E700BFB005002080
:104310000AD7A33DEC5138BE0AD7233DEC51383EB5
:10432000A80500206CE90108A4050020C0C9010807
:10433000BC050020E604002014CA0108E4CA0108F4
:10434000CDCCCCCC0CCB010834CB01089CC90108E6
:10435000BCCA01085CCB010890CB0108D0CB010896
:1043600000000000109B4BB1149BA9EB0303002B32
:10437000B8BF5B42B3F5E16F3FF730AF18997C4AA5
:10438000A2FB013222F0010303EB520322AACB1A53
:1043900042F823904B1C022B189300F28D809AED6B
:1043A00000BAF0EE046ADFED737AB8EECBBA2BEE0A
:1043B00027BAB0EECB6AB7EECB7AB4EEE66AF1EE8E
:1043C00010FA38D8199B022B03D80133032B199309
:1043D00033D11C9BA021DDF8748000930123664A31
:1043E000404604934B468DED027B14F055FB40464E
:1043F00005F06CFC189A022A40F288800F9A002A75
:104400006BD0DDE91B239B1A002BB8BF5B42642BEA
:1044100071DC169B022B00F283800133032B169371
:104420007ED00F9BCDF850909B461093079B139323
:1044300000231293B7E5002319931C9B4FF000084B
:10444000DDF874A0A0214C4AAB46009350464B4681
:10445000CDF810808DED027B14F01EFB504605F068
:1044600035FC079B1095CDF84880CDF850901393FC
:10447000CDF8588097E5FDF743FD00233F49404ABA
:104480000B60404940480B600B23136005F06AFC49
:1044900000233E4A13703FE6394B06223B491A601F
:1044A000087039E6364B1A68092A01D005221A60CD
:1044B0000023364A13702FE6DDE92231249A8B421D
:1044C0001C9114DD914206DC1C9313461C9A9A42FF
:1044D000A8BF1A461C920F9561E70F9BAB46079A3F
:1044E0001095CDF850901293139216935BE593427A
:1044F000ECDC1346EAE70F9A0023CDF85090934680
:104500001092079A1693CDE912324CE50023079AD0
:10451000AB461095CDF8509016931392129342E546
:104520001B4B16491A6800230B6016490B6019498A
:104530000B6019490B60194B1A60FDF7E1FC04464A
:1045400050B90F4B1A68092A01D005221A600024BD
:1045500000230E4A1370E0E55020FEF7A1FD104B3A
:104560001B78072BF3D00F4805F0FCFBF0E700BFEA
:10457000ABAAAAAA0AD7233C54CA0108A80500205E
:10458000BC050020A4050020ECC90108E6040020B9
:10459000AC05002094050020900500208C0500202B
:1045A000C005002094CA010860EEA07A0023002212
:1045B000E0EE007A2DE9F04F2DED108BE3B0DFF83F
:1045C0001084B1EEE79A06462E93329328932F93E8
:1045D0003593B0EE608A98ED007AF0EE408AF0EE06
:1045E00041FACDED062AB0EE61BA8DED0B7AB0EE50
:1045F00042CA229223922492CDE93033CDE933335B
:10460000CDE92933E04BD3ED007ACDED097A0028CE
:1046100000F02083DFEDDD7ACDED167AF0EEC87A7A
:10462000B0EEE87AF4EEC77AF1EE10FA40F30983BF
:10463000F1EE047ACDED0C7AF5EE007ACDED0A7A42
:10464000DFEDD3CA0AF092F8B4EEEC9AF1EE10FA6C
:1046500000F1EE82DFEDCF7AF4EEE7FAF1EE10FA38
:1046600040F2E682B4EEE7BAF1EE10FA40F2E082F0
:10467000B4EEE7CAF1EE10FA40F2DA8288EE89DA97
:10468000C54B9FEDC67A4FF0000CC3ED007A07468C
:10469000C34B0546C349C8EE09DAC3ED007AC24BE5
:1046A0009DED096AC3ED007AC04BB0EE67FADDED0F
:1046B000065AC3ED007A3FEEC77ABD4B36EE256A47
:1046C000F0EE4F9ADFEDBB6AC3ED007AB0EEC77A29
:1046D000B94BF0EE4F8A6FEE8D7ACBFE666A664577
:1046E00008BF1946A0F1FA03B0EE4F9A8DED126A99
:1046F000CDED137AF0EE4FBAB0EE4FAA10936FEEF5
:10470000AD7A0123CDED1F6A8DED187A1E91CDEDA6
:10471000147A0893CDF85CC0CDF844C0CDF864C0DD
:104720008DED0FFA8DED0EFA8DED04FA8DED05FA93
:10473000CDF854C00D900AF019F80D9A43F697235E
:104740000446821A9A4200F26185DFF888B2DBF8EB
:10475000003023B1994B1B78002B40F06885E31B98
:10476000092B40F2E383631B0A3707EE903AE31B01
:10477000F8EE677A092B88BF274667EEAC7AF4EE2D
:10478000EC7AF1EE10FA00F1B5839FED8D2AF4EE8C
:10479000C27AF1EE10FA72FE27EAC9EE2F7AF5EE30
:1047A000C07AF1EE10FA00F1A083B7EE008AB0EE05
:1047B000007AF4EEC87AF1EE10FA38FE278AF0EEAD
:1047C000087AE8EE477A28EE087A67EE877A9DED58
:1047D000067AB0EE6E0ADDED09AA6B4BE7EE27AA6A
:1047E000C3ED00AAFCF7BAF824AB22AA32A9754897
:1047F000009323AB05F084FF0546002800F01882E3
:104800009DED0B7AD8ED007A77EEC77AB0EE670AA5
:10481000CDED077A13F0C0F8B0EE40EA9DED070A3F
:1048200012F0BAFFDDED230ADDED227AF0EE401A38
:1048300060EE806A9DF8A83060EE8E0AE7EE8E6A20
:10484000E0EE670A002B00F05883B0EE660A28A855
:10485000B0EE6E2AB0EE4E1AFCF79AFFDDED286A34
:10486000DDED290A2DEEA06ADDED057A6DEE205A08
:10487000554BEEEEA67AADEE266AEDEEE65A3CEE2C
:104880000C7ACDED057AE6EE2EBADDED047AB0EEC7
:10489000C64AEEEEA07AA5EEAEFA3FEEEB5ACDEDAB
:1048A000047A7FEEC97AB4EEC5AAF1EE10FAB4EE3E
:1048B000E7AA3AFE050AF1EE10FA7AFE277AF4EE3C
:1048C000C07AF1EE10FA30FE270AD3ED007A20EE1E
:1048D000070AE4EE2E7AB5EE400AF1EE10FAC3EDC7
:1048E000007A314B83ED00FA314BC3ED005A00F1F1
:1048F000D186F1EEC07AB4EEE7BA6CEE2E3AF1EE64
:1049000010FA77FE8B7AF4EEE78AF1EE10FA40F1B6
:10491000C38278EEA38AF4EEE78AF1EE10FA77FE0E
:10492000A88AA8EEAE9A9DED063ADFED2D7AF0EE5C
:10493000C34AB4EEEF9AF1EE10FAF4EEE74A3FFE06
:10494000899AF1EE10FA40F3A48288EEAF7AF1EE84
:10495000087A63EE277AB7EE003A67EE887A33EE8C
:10496000483A67EE837A67EE877A39EE6B3A9FEDC5
:10497000177A23EE073ABDEE007AB4EEC73AF1EEAD
:1049800010FA37D42EE000BF8C0500206F12033CD4
:104990006F12833A00000000A805002056752640DB
:1049A000A4050020A8CC010898050020940500204B
:1049B00090050020CDCCCC3EE8CC0108E7040020D7
:1049C000CDCC4C3D6CE90108A00500209A99993F97
:1049D000AC050020E8040020CDCC4C3F3333B33E7F
:1049E00017B7D138B5EE007AB4EEC73AF1EE10FA47
:1049F00037FE037A38EE877ABDEE003AB4EEC37A1A
:104A0000F1EE10FA00F18482B4EECB7AF1EE10FAF6
:104A10003BFE077A37EE466A5FED112ABDEE003A9B
:104A200066EE222AE2EEAE9AF4EEC39AF1EE10FAA6
:104A300000F16B82B5EE003AF4EEC39AF1EE10FA93
:104A400073FE299A1FED1B3AA6EE037ABDEE006AAB
:104A500037EE297AB4EEC67AF1EE10FA05D4B4EE48
:104A6000CB7AF1EE10FA3BFE076A1FED237A7C4BFE
:104A7000F4EEC74A83ED006AF1EE10FA00F3028209
:104A8000002E40F0FA81B0EEC67A9FED763ADFED67
:104A9000762A27EE037A87EE223ADFED802AB4EEFB
:104AA000E23AF1EE10FA72FE832AB1EE623A98ED24
:104AB000007A9DED0C2A37EE6A7A6C4BE7EE427A6B
:104AC00093ED007A9DED0A2AE7EE427AF4EEC37A7E
:104AD000F1EE10FA05D4F4EEE27AF1EE10FA32FEBD
:104AE000A73A9FED637ADFED637A27EE657A624B32
:104AF00083ED003AAFEE277ADFED607AB4EEE77A25
:104B0000F1EE10FA07D4DFED5E7AB4EEE77AF1EE5B
:104B100010FA77FE877A9DED147ADDED045A594B31
:104B200077EE65AA9DED137ADDED055AC3ED007AA7
:104B300037EE658A002E00F0B9809FED587A2FEE8F
:104B4000877AB4EEEB7AF1EE10FA00F2EA81199668
:104B500068EE087A159BEAEEAA7AB1EEE77AD3B945
:104B60001E98CDED1D1A8DED1C7ACDED1B6ACDED95
:104B70001A0ACDED153ACDED074A05F0F3F8DDED53
:104B80001D1A9DED1C7ADDED1B6ADDED1A0ADDEDC7
:104B9000153ADDED074ADDED167AF4EEC77AF1EE4F
:104BA00010FA00F1EC812E4B83ED00AAC0F2CA810D
:104BB00066EEA66A9FED347AE0EEA06AF1EEE67A40
:104BC000F4EEC77AF1EE10FA00F2BC81DDED126A64
:104BD000D8ED007A76EEE77ADFED336AF0EEE77A29
:104BE000F4EEE67AF1EE10FA00F282821F4BD3ED7A
:104BF000007AF0EEE77A002E00F07185F4EEC77AC5
:104C0000F1EE10FA00F27682DDED0F7A3546DFED37
:104C10001F0A01237AEE676ADDED0E7A15963AEEE9
:104C2000677A26EEA66AF0EE607AA7EE076A9AE047
:104C3000174B06221A60002063B0BDEC108BBDE854
:104C4000F08FF2EE027ACDED0C7ADFED0D7ACDED3C
:104C50000A7AF5E4DFED0F7ACDED167ADEE400BFD7
:104C6000A80500206666263F7B14AE3EB0050020F6
:104C7000AE47613E9A9919C0A40500209A9999BE41
:104C80009A99993E940500200AD7233D0000000020
:104C9000BC0500208FC2753C0AD7233C3333333F19
:104CA0006F12033C8FC2F53C0AD7A33C1FED067A76
:104CB000DDED185AF4EEC75AF1EE10FA09D81FEDDF
:104CC000097A2FEE877AB4EEC97AF1EE10FA7FF600
:104CD0003FAF2DEEE77AB0EEC55A6DEE270AF0EE43
:104CE000477A1FED117AB4EEC75AEDEE067AEDEE73
:104CF000860AF1EE10FA00F2DE801FED167AB4EEAD
:104D0000C74AF1EE10FA00F2D680DDED126A98ED96
:104D1000007A36EEC77A5FED1C6AB0EEC77AB4EE61
:104D2000E67AF1EE10FA00F2CE81C54BDFEDC56AEE
:104D300093ED007AB0EEC77AB4EEE67A002E00F07A
:104D4000A381F1EE10FA00F254819DED0F7A002557
:104D500070EEC76A9DED0E7A2B4637EEC77A26EEC7
:104D6000A66AA7EE076AF1EEC65AF4EEE53AF1EE4E
:104D700010FA40F1338163EEA66A23EE877A86EE5D
:104D8000A56ADDED0E6AC7EE257A9DED0F7A37EE46
:104D9000067A8DED0F7A27EE077A76EEA77AA7EEE0
:104DA000A77ACDED0E7AF1EEC77AA74A9DED0E7A7D
:104DB000A649C2ED007ADDED0F7A6DEE277AEDEEB1
:104DC000C77AC1ED007A002B00F0118192ED007AD4
:104DD000DFED9C7AB4EEE77AF1EE10FA94BF4FF073
:104DE00001094FF00009DDED0F0ADDED0E7A21EE2D
:104DF000E00A974B60EE8E0A2EA993ED001AA7EEFB
:104E00008E0A9448E7EEA10A05F002FC00283FF460
:104E10000FAF2EA8FDF740F8002800F0038209F03C
:104E2000A5FC32A905F0EAFD78B9089B33B98A4898
:104E300004F098FF894B05221A60FCE6CDE93200A8
:104E4000CDE93400864804F08DFF109BE31AF92B5E
:104E500061D807F003FBB9F1000F26D0002D119A9D
:104E60000CBF3C23B423002A67D0A21A9A4280F0D8
:104E7000F2810023254608935DE49FED7A3ADFED49
:104E80007A2A14E6002EF8D19FED783ADFED782AE1
:104E90000DE6F0EE4A7A68E578EEE38AF4EEE87A19
:104EA000F1EE10FA77FEA88A3BE52546CDF844904E
:104EB000CDF820903FE4DDED126A98ED007A36EEF1
:104EC000C77ADFED6C6AB0EEC77AB4EEE67AF1EE3F
:104ED00010FA01D85A4B1B680025A9462B46002E14
:104EE00085D02A46179D17929AE0F0EE4A7A9FEDF8
:104EF000658A6CE4F0EE6CEA4FE40123CDED286A9C
:104F0000CDED290A8DF8A830ACE4F0EE439A99E58E
:104F1000B0EE437A7EE532A92046FBF7C9FD109436
:104F200097E7199B002B7FF413AED2E62C460120A5
:104F300009F022FC2546FFF7FEBB25461194089296
:104F4000FFF7F9BBDFED4F0AF0EE607ADDED126A94
:104F500098ED007A36EEC77ADFED466AB0EEC77A92
:104F6000B4EEE67AF1EE10FA01D8354B1B684FF03B
:104F7000000915954B46002E3FF439AFB1E7DFED40
:104F80003E7A6AEEA70A68EE277A60EEA06AE7EE3C
:104F9000A76AB1EEE67ADDED1F6AF4EEC76AF1EEBC
:104FA00010FA00F18380DFED356AB4EEE67AF1EEB7
:104FB00010FA0FD59DED1F6AC6FE666A86EE876AF7
:104FC00060EE860A67EE867A60EEA06AE7EEA76A70
:104FD000B1EEE67A1C4B83ED007AB7E720EEA07ABB
:104FE000CDED0F0ACDED0E7AA7EEA77ADBE6994656
:104FF000F9E6DFED237AF4EEE74AF1EE10FA40F33A
:10500000A8800023104A1360104A1360179B002BDE
:1050100000F01581DFED1B0A0023F0EE607A179394
:105020009DED0F7A179A70EEC76A9DED0E7A17956F
:10503000154637EEC77A26EEA66AA7EE076A92E60D
:10504000B00500200AD7233DA805002094050020C4
:10505000A40500206CE90108C0C90108BC050020B6
:105060009CC901083333B3BE3333B33E333333BF4C
:105070003333333F0AD7A33C6666E63F8FC2F53C25
:1050800017B7D13800000000F1EE10FA324694BF95
:105090004FF00109B1464B461FED077AF4EEC74ABF
:1050A000F1EE10FA72D8A9461546A0E6C6EE876A58
:1050B00060EEA60A67EEA67A60EEA06AE7EEA76A3F
:1050C000B1EEE67A86E7002E93D11FED137A3246D1
:1050D000F4EEC74AF1EE10FAE5D9B14633461FEDBA
:1050E000187AF4EEC74AF1EE10FA53DC15467EE664
:1050F000002E7DD05FED1E7AF4EEE74AF1EE10FA55
:1051000040F388805FED210A694BC3ED000A694BCB
:10511000C3ED000A179B002B40F0828299462A4675
:1051200015956548CDED1C1ACDED1A3A07931B92E3
:1051300004F018FEDFED610A1795F0EE607A1B9D12
:10514000DDED1C1ADDED1A3A079B002E3FF44FAE41
:10515000C7E64FF00009564B83ED00AA554B83ED8F
:1051600000AA179B2BB3DDED0F7A4D46DFED530AF6
:1051700000237AEE676ADDED0E7A3AEE677A26EE64
:10518000A66AF0EE607AA7EE076AECE5B9F1000FC7
:10519000A5D088E7464981ED00AA464981ED00AADD
:1051A00017990029BDD0DFED450A1546F0EE607A6B
:1051B0001DE64148CDED1A1ACDED073A04F0D2FDB7
:1051C000DDED0F7A0023DFED3D0A7AEE676ADDED53
:1051D0000E7A17954D463AEE677ADDED073A26EEE0
:1051E000A66ADDED1A1AF0EE607AA7EE076ABAE554
:1051F000DFED337A2A461595F4EEE74ADFED2F7A94
:10520000F1EE10FA09D8F0EE670A4CE72D4B0522B3
:105210001A6010E5A94615959DE7F0EE670AB146BC
:1052200033465CE7274B1A68092AF0D103E5FCF7FF
:1052300067FE00231E4A1360234A1360FBE41E48E6
:10524000CDED171ACDED073A04F08CFDDDED073AF0
:10525000DDED171ADEE61D4B0024DDED127AC3EDFD
:10526000007A134B1C60002E42D0DFED197AA0218A
:10527000184A3AA82AEEA76A28EE277AB7EEC66A35
:10528000B7EEC77A8DED026B8DED007B13F004FC59
:105290003AA804F067FDFCF733FE00287FF4CCAC9D
:1052A000084B1A68092A3FF4C7AC05221A60C3E408
:1052B000A80500209405002028CD0108000000006A
:1052C00017B7D138BC050020A40500208C050020AC
:1052D00000007A446CCD01086F12833A3333B3BEB9
:1052E0006F12033CEC5138BE9A9919C0AE47613E2B
:1052F00036963A962B9639963D965FED098A5FED84
:10530000099A5FED06AA1FED08AA1FED0A9A1FED84
:105310000CBACDE93766CDE93B66CDE92C6609F0DC
:1053200025FAC24B054682461C600120C04B2F4621
:1053300083ED00FABF4B1C60A5F1FA030493FBF761
:1053400071FB059609F012FAA0EB0A030446B3F5C7
:10535000FA5F80F09381C31B092B40F24981431B04
:105360000A3707EE903AC31BF8EE677A092B88BF1D
:10537000074667EEA87AF4EEE87AF1EE10FA00F14B
:1053800020819FEDAD8AF4EEC87AF1EE10FA38FE76
:10539000278AB0EE480AFBF7E1FA27AB25AA3AA91B
:1053A000009326ABA54805F0ABF9002800F0328148
:1053B000DDED0B7A98ED00CA3CEE67CAB0EE4C0A00
:1053C00012F0EAFAF0EE40BAB0EE4C0A12F0E4F94C
:1053D000DDED260AF0EE401ADDED257A20EE200AFA
:1053E0009DF8B4306BEEA00AABEEA70AE1EEE70A37
:1053F000002B00F0EF80B0EE482A2BA8B0EE6B1A1D
:10540000FCF7C6F99DED2B0ADDED2C0A6DEE200AA6
:105410008B4BDDED0A6AEDEEC00AC3ED000AD3ED59
:10542000007A834BA8EE27FADDED127A83ED00FABD
:10543000844B98ED007A37EE677AD3ED007A67EE09
:10544000E67ADDED0C6AE6EEC77AF4EEE97AF1EE83
:1054500010FA00F1BC809FED7C7AF4EEC77AF1EE91
:1054600010FA77FE277A794BC3ED007A744BD3EDAF
:10547000007A6AEEE77AEFEE0A7AF4EEC97AF1EE94
:1054800010FA00F1A1809FED727AF4EEC77AF1EE86
:1054900010FA77FE277A674B36A96848C3ED007A81
:1054A000D3ED007AD3ED000A6DEEE77A674B6DEE2F
:1054B000200A93ED001A20EEE10A6BEEA00AABEE93
:1054C000A70AE1EEA70A05F0A3F8002800F0A280E1
:1054D000604B1B684BB9DBF80030002B40F08C8030
:1054E0005D4B1B780BB9FCF7C3FB05F0A7FC20B99B
:1054F00005F0AAFC002840F0878036A805F030FAB5
:1055000040B9564B1A68092A01D005221A60304664
:10551000FFF792BB09F02AF93AA905F06FFA70B9C2
:10552000B9F1000F04D14E4804F01CFC4B4BECE7E2
:10553000CDE93A00CDE93C004A4804F013FC049B55
:10554000E31AF92B4ED806F089FFF0EECF7AF4EE8D
:10555000CB7AF1EE10FA31D8394B9FED437AD3ED87
:10556000007AF0EEE77AF4EEC77AF1EE10FA25D879
:10557000D8ED007ADDED126A9FED3C7A77EEE67A9F
:10558000F0EEE77AF4EEC77AF1EE10FA16D82D4B6A
:105590009FED377AD3ED007AF0EEE77AF4EEC77A32
:1055A000F1EE10FA0AD8059B002B65D0E31A3B2BCD
:1055B00000F2928025464FF00009C3E600230593D0
:1055C000F8E7B0EE688AE4E6F0EE497A63E7F0EED9
:1055D000697A48E701238DED2B0ACDED2C0A8DF871
:1055E000B43013E73AA92046FBF762FA0494AAE71D
:1055F000012009F0C1F8A5E61E4B1B78002B7FF4B3
:1056000074AFFBF765FC70E7FBF760F9134B0922F9
:105610001A6077E7114B062230461A60FFF70CBB81
:10562000179DF0EE607A00231595F9E4A805002097
:105630009805002094050020CDCC4C3D6CE9010874
:1056400090050020B00500203333B33EA4050020B0
:10565000EC51383EDC0400206F050020BC05002022
:10566000C0C901089CC901088FC2F53C0AD7A33CF8
:105670000AD7233DE604002005949BE7002303207E
:105680001F4A1360FBF7CEF9FCF73AFC064630469A
:10569000FFF7D2BACDED211ACDED206ACDED1D0A6E
:1056A0008DED1C5ACDED1B5A8DED1A6A8DED074A12
:1056B00012F048F8DDED211AF0EE407ADDED206AB7
:1056C000DDED1D0A9DED1C5ADDED1B5A9DED1A6A9C
:1056D0009DED074AFFF70FB900230220D0E7F4EE53
:1056E000C77ADFED087A2A461595F0EE670AF1EEE3
:1056F00010FA94BF4FF001094FF000094B46CBE47C
:1057000094050020000000002DE9F047C6B060219C
:1057100006A808F08BFA002835D006AD934E944FBA
:1057200005EB0008DFF8A49206E0611C7F292DD864
:1057300031603B55A84526D015F8013B34680D2B48
:1057400006D0A3F10A02B2FA82F25209002AECD082
:105750000023884986483B5513F0DCFA824650B155
:10576000B84208D0FAF7BEFD044651463846621CDE
:1057700013F036FA346014B1D9F80030E3B90023DD
:10578000A8453360D8D146B0BDE8F087DFF840A225
:1057900032609AF80020D9F80030002A5DD0764AAD
:1057A0000192A021754A1EA80092754A13F074F95F
:1057B0001EA804F0A3FABDE705AC72480DF1130270
:1057C0002146FBF7FBFA002849D02368D9F80020CE
:1057D000DFF8FCA193425CD00DF1130221466A4828
:1057E000FBF7ECFA20B12368D9F8002093426BD084
:1057F0000DF1130221466548FBF7E0FA20B123685A
:10580000D9F80020934277D00DF113022146604869
:10581000FBF7D4FA28B12368D9F80020934200F0AE
:1058200082800DF1130221465A48FBF7C7FAD9F8D6
:1058300000309AF8002010B124689C4214D08AB13C
:105840004D4A0192544A00924D4AA0211EA813F0DD
:1058500023F91EA804F052FA91E7504AA0E7DFF8B6
:1058600070A1B9E74D4AECE79DF813109142E6D1DB
:105870004B4B00224B481A7004F028FA9AF800307B
:10588000002B6ED03C4B434A009323460192464A7C
:10589000DBE79DF813109AF8002091429CD1434A0F
:1058A000127812B9424A012111704248039304F060
:1058B0000DFA9AF80020039B002A4CD1374A009237
:1058C000304A0192384AC0E79DF813109AF8002038
:1058D00091428DD1384A012138480393117004F068
:1058E000F5F99AF80020039B002A36D0224A00924C
:1058F000254A01922C4AA8E79DF813109AF8002037
:10590000914281D12E4A01212E480393117004F057
:10591000DDF99AF80020039B0AB3174A00921B4A4C
:105920000192214A91E79DF813109AF800209142C4
:105930007FF477AF1A4A012123480393117004F0D2
:10594000C5F99AF80020039B6AB10B4A0092104AED
:105950000192154A79E7084AB1E7104AC7E70F4AAA
:10596000DCE70E4B8FE70D4AF0E700BF7C03002019
:10597000FC020020A0BC010828BC0108E4CE0108FC
:10598000ACCE010894BE0108D4BE010818BE0108BF
:105990004CCE01087CCE0108DCCE01082CBC0108ED
:1059A000D404002084CE0108CCCD0108D504002009
:1059B000D8040020A4CD0108D7040020FCCD0108A4
:1059C000D604002024CE010854CE0108DC040020B7
:1059D000E4040020B5EEC00A00230022F1EE10FA24
:1059E0002DE9F04F2DED108BC1B0B0EE60CA1093D1
:1059F00014930D920E920F9213931793CDE91133D6
:105A0000CDE9153300F16783F7EE00CADFF8F4B192
:105A1000B0EEC0BADFF8F0A1DBED00BA08F0A6FEE8
:105A2000A0F1FA035F4902460793DAF800300968EB
:105A3000002B00F024830B1E4FF0010EB6EE00EA9F
:105A4000DFED59EA18BF01239FED58AADFED58FAA0
:105A5000F4460A93574B0593DFED577AB0EE6F9AF1
:105A6000564B16465649B0EE67FAC3ED007AF0EE93
:105A7000678A544BF0EE679ADFED53AA4FF00008A7
:105A8000C3ED007A1546514BDFED51DAC3ED007AD4
:105A9000504B9FED51DAC3ED007A504BCDF818C052
:105AA000C3ED007ADBF80030CDF820E00B60012375
:105AB0000492039308F05AFE049A0290831A059AFE
:105AC000934280F00F83069B002B00F0BC800A9B62
:105AD000002B00F0F981334B1B680993FBF75AFF49
