:020000040800F2
:10000000000002204104000895040008950400083F
:1000100095040008950400089504000800000000FD
:10002000000000000000000000000000950400082F
:10003000950400080000000095040008511C000809
:10004000950400089504000895040008950400082C
:10005000950400089504000895040008950400081C
:10006000950400089504000895040008950400080C
:1000700095040008950400089504000895040008FC
:1000800095040008950400089504000895040008EC
:1000900095040008950400089504000895040008DC
:1000A00095040008950400089504000895040008CC
:1000B00095040008950400089504000895040008BC
:1000C00095040008950400089504000895040008AC
:1000D000950400089504000895040008950400089C
:1000E000950400089504000800000000950400082D
:1000F000950400089504000895040008950400087C
:10010000950400089504000895040008950400086B
:10011000950400089504000895040008950400085B
:10012000950400089504000895040008950400084B
:10013000950400089504000895040008950400083B
:1001400000000000000000000000000000000000AF
:10015000950400089504000895040008950400081B
:10016000950400089504000895040008950400080B
:1001700095040008551C00089504000800000000C4
:1001800095040008950400089504000895040008EB
:1001900095040008950400089504000895040008DB
:1001A000950400089504000895040008000000006C
:1001B00095040008950400089504000895040008BB
:1001C00095040008950400080000000000000000ED
:1001D000000000000000000095040008000000007E
:1001E000000000000000000000000000000000000F
:1001F00000000000000000009504000895040008BD
:10020000950400089504000800000000950400080B
:10021000950400089504000895040008950400085A
:10022000950400080000000095040008000000008C
:1002300095040008950400080000000095040008DB
:10024000950400089504000895040008950400082A
:10025000950400089504000895040008950400081A
:10026000950400089504000895040008950400080A
:10027000950400089504000895040008000000009B
:1002800095040008950400089504000895040008EA
:10029000000000009504000895040008000000001C
:1002A000000000009504000895040008950400086B
:1002B00095040008950400089504000895040008BA
:0C02C0009504000895040008950400084F
:1002D000034613F8012B002AFBD1181A0138704786
:1002E00001F0FF01102A2BDB10F0070F08D010F8E7
:1002F000013B013A8B422DD010F0070F42B3F6D1EB
:10030000F0B441EA012141EA014122F007047FF003
:1003100000070023F0E80256083C85EA010586EA5A
:10032000010685FA47F5A3FA87F586FA47F6A5FA96
:1003300087F68EB9EED1F0BC01F0FF0102F00702A2
:1003400032B110F8013B013A83EA010313B1F8D14D
:100350000020704701387047002D06BF354603382E
:10036000073815F0010F07D1013015F4807F02BF67
:10037000013015F4C03F0130F0BC0138704700BFB8
:1003800053B94AB9002908BF00281CBF4FF0FF31FC
:100390004FF0FF3000F00CB8ADF1080C6DE904CE61
:1003A00009F068FFDDF804E0DDE9022304B07047DE
:1003B000704700BF0348044B834202D0034B03B194
:1003C000184770475401002054010020000000002D
:1003D0000548064B1B1AD90F01EBA301491002D0A7
:1003E000034B03B11847704754010020540100200B
:1003F0000000000010B5064C237843B9FFF7DAFF80
:10040000044B13B10448AFF300800123237010BDE7
:10041000600100200000000094A5000808B5054B0D
:100420001BB105490548AFF30080BDE80840FFF760
:10043000CFBF00BF000000006401002094A50008A9
:10044000DFF838D000F028F8002103E00C4B5B58AF
:10045000435004310B480C4B42189A42F6D30B4AD6
:1004600002E0002342F8043B094B9A42F9D302F020
:1004700027FE09F06FFA00F067FB704700000220CA
:10048000CCA80008000000205401002060010020DA
:1004900064A30020FEE70000044AD36843F002038F
:1004A000D36053689B04FCD5704700BF00480258D6
:1004B00000B5DFF848C00B46DFF844E00E4A9EF86E
:1004C000001012689CED000ADFF838C05DF804EBFC
:1004D000DCED000ADFF830C09CED001ADFF82CC01C
:1004E000DCED001ADFF828C09CED002ADFF824C0FC
:1004F000DCED002A01F018BE9C01002090010020D4
:10050000A00100208C01002088010020840100202F
:10051000800100207C01002008B5184C0723184DED
:1005200020602B7001F000FD01F016FD02F086FE48
:10053000144B2978226893ED000A134BD3ED000A7F
:10054000124B93ED001A124BD3ED001A114B93EDA1
:10055000002A114BD3ED002A104B01F0E5FD28785D
:10056000216801F01DFE01F027FF01F0DDFC01F024
:10057000F3FC4FF4FA7002F067FEF6E79C010020EE
:10058000A0010020900100208C01002088010020A3
:1005900084010020800100207C010020F8A50008D3
:1005A00000B58BB000234FF0000C03AA04A807A9E4
:1005B0008DED010A06930993CDF80CC0CDE9043303
:1005C000CDE9073302F0B4FBDDED067A03980C4960
:1005D000F1EE677A0B4B086093ED007A0A4A77EEEA
:1005E000C77A0A4B9DED010AC2ED007A92ED007ABE
:1005F000D3ED007AE7EE007AC3ED007A0BB000BDD0
:100600007C01002094010020900100208C0100203A
:100610002DE9F04F2DED0E8BF0EE41BA8FB09FED2E
:10062000A58A0023A44AF0EE40CADFEDA4AAB0EEEA
:1006300060CAF0EE489AD2ED00EA0693B0EE489A0E
:100640000A93F0EE488A8DED038A8DED048A8DEDD4
:10065000058A09930D939A4EDFF898929FED99BA07
:100660009FED99DA9FED99AA9FED99EADFED99DA6E
:10067000CDE90733CDE90B3302F0E0FD7BEEEAAACA
:1006800086ED008A8246A0F1FA0B0746F4EEEA9A5C
:10069000044689ED008AF1EE10FA40F1E480B4EEF0
:1006A000EA9AF1EE10FA40F1DE8043F6972802F064
:1006B000C5FDA0EB0A030546C21B434500F2F180CD
:1006C000092AF4D9031B0A3708EE103AC31BB8EE07
:1006D000488A092B88BF074628EE0B8AB4EECB8ADE
:1006E000F1EE10FA00F1DA80B4EECD8AF1EE10FAF4
:1006F0003DFE088AB0EE480AFFF752FF0AA92846D5
:1007000001F030FC002800F0CC8005A904AB03AA5E
:10071000714800910AA901F01BFB002800F0C1807C
:100720007BEEE97AD6ED006A3BEEC97A28EE0E6AD6
:10073000F4EEE78AF1EE10FAF4EEC78A78FEA77AB3
:10074000F1EE10FA38FE877AB4EEE77AF1EE10FA9D
:1007500077FE877A67EE8A7AB1EEE77AB4EEC7AAB7
:10076000F1EE10FA77FE0A7AF4EEE76A96ED007A77
:10077000F1EE10FA40F1858037EE067A86ED007AC8
:1007800096ED007AB4EEE77AF1EE10FA01DDC6EDEF
:10079000007AF6EE005A96ED006A504B464A26EE75
:1007A000256ADFED4F7AD2ED006AD3ED005A9FED56
:1007B0004D7A76EEEE6A67EEE57A9FED4B5AC6EE1D
:1007C0002D5AE6EE857AF4EEC75AF1EE10FA37FEAE
:1007D000257AF1EE476AF4EEE67AF1EE10FA05D4E6
:1007E000F4EEC77AF1EE10FA77FE276AC9ED006AD7
:1007F00006A996ED000AD6ED000A20EE2C0A99ED26
:10080000001A60EE8C0A344801F02AFA00284DD014
:1008100006A801F059FB002843D0DDED047AA5EBD2
:100820000B03DDED036A6CEE277A304A92ED007A15
:10083000E6EEAC7AF4EEE78AF1EE10FA78FEA77AEB
:10084000A8EE277AE8EE279AF92B82ED007AD6ED0A
:10085000007AA7EE889A0DD82C46F4EEEA9AF1EECB
:1008600010FA3FF51CAF01F05FFB0FB0BDEC0E8B33
:10087000BDE8F08F0AA92846AB462C46FFF718FEC4
:10088000EBE737EE467A86ED007A96ED007AB4EE25
:10089000E77AF1EE10FA7FF57CAF78E7B0EE4B8A9D
:1008A00028E7134B05221A600020DEE7104B0622D2
:1008B0001A60F9E7000000008C0100206F12833BF2
:1008C000880100206F12833ACDCC4C3D6666E63F2E
:1008D0006666663F7B14AE3E18A6000890010020B5
:1008E0009A99193E3333B33ECDCC2CC08001002001
:1008F0009C010020840100202DE9F04FDFF8F8A1D1
:1009000000262DED0A8BDAED00AA89B0DFED6B8AA7
:100910007AEE80AA029603969FED699ADFED69BA96
:100920009FED69BADFED699A9FED69AACDE900668E
:1009300002F084FCDFED677A674B0746B0EE67CACA
:10094000A0F1FA08C3ED007A0546644B0446CDE9F0
:100950000466CDE90666C3ED007A41F26F7B02F0D2
:100960006DFCC21B8146411B5A4500F29C8009293F
:10097000F5D9031B0A3500EE103A421BB8EE400AC7
:10098000092A88BF054620EE280AB4EEE80AF1EEEF
:1009900010FA6DD4B4EEC90AF1EE10FA39FE008AED
:1009A000B0EE480AFFF7FCFD04A9484601F0DAFA68
:1009B00000286FD04A4CDAED00CAD4ED007A7AEE06
:1009C000ECCA6BEEE77AECEE8B7AF4EEE97AF1EEB4
:1009D00010FA50D4F4EECA7AF1EE10FA7AFE277AC1
:1009E0009FED407A28EE070A3CEE407AB4EEE77AB3
:1009F000F1EE10FA42DC3CEE000AF4EEC07AF1EEC1
:100A000010FA30FE27CADFED330AB0EE4C1A334B32
:100A10006946B0EE600A344883ED00CA01F020F95F
:100A2000002844D0684601F04FFA98B3A9EB0802B9
:100A3000F92A26D8F0EEECCADFED2C7AF4EEE7CAFC
:100A4000F1EE10FA11D8D4ED007A9FED297AF0EE8C
:100A5000E77AF4EEC77AF1EE10FA06D8BEB1A9EB48
:100A60000602C72A27D84C4677E700264C4674E78B
:100A7000B0EE688A94E7F0EE697AB1E7B0EE47CA63
:100A8000C1E704A94846C846FFF712FDD2E74E4623
:100A90004C4662E7174B05221A60002009B0BDECF6
:100AA0000A8BBDE8F08F134B07221A60F5E7114B54
:100AB00006221A60F1E701F037FAEFE76F12833A86
:100AC000CDCC4C3DCDCC4C3ECDCC0C409A9999BF71
:100AD0009A99993F000000008801002084010020BD
:100AE000900100206666E63F18A600080AD7A33CDE
:100AF0000AD7233D9C0100208C01002070B582B0F4
:100B0000054602F09BFB0446A0F10A0604E002F051
:100B100095FB821B092A06D802F090FB001BA84215
:100B2000F5D302B070BD019001F0FEF9019E0028DE
:100B3000F2D103490520034B072208601A70F0E741
:100B40009C010020A00100202DE9F0472DED048B31
:100B50008EB06B4D00F04AFB41F26F7401F0DAFA8F
:100B6000002340F2DC502B7002F06EFB02F066FBBB
:100B700006460CE000F0A4FE01F0D6F920B1C82131
:100B8000082000F0D7FE50B9322002F05DFB02F0E1
:100B900055FB801BA042EDD90320FFF7BDFC0124CB
:100BA0002C7002F0B7F8574B18701A7802F0FF0358
:100BB000002A47D1DFED637A02224FF4FA76524CD5
:100BC000B0EE678A0693F0EE678A2A700A93CDED3D
:100BD000057ACDE90733CDE90B3305AA0AA906A8A2
:100BE00002F0A6F8DDED087A059B0420A7EEA78A9F
:100BF00078EEE78A236002F027FB013EEDD19FEDFE
:100C0000437A434BC8EE876AC8EE077AC3ED006AA1
:100C1000D3ED006A93ED007AE6EEC77AF5EEC07A7E
:100C2000F1EE10FA06D49FED3B7AF4EEC77AF1EEBE
:100C300010FA0ADC03232B7001F082F940B904207A
:100C4000FFF76AFC2046FFF767FC0220FFF764FC11
:100C5000C821082000F06EFE0028F0D001F076F9DF
:100C60000028ECD0C821082000F064FE0028E6D05F
:100C700001F05AF90028E2D0C821082000F05AFEFD
:100C80000028DCD04FF4FA70FFF738FF2B78072BE1
:100C900032D002F0D3FA00230646CDE90A33CDE97B
:100CA0000C3308E002F0CAFA831BB3F57A7F21D82F
:100CB0000A2002F0C9FA02F0C1FA0AA901F052F9B9
:100CC0000028EFD09FED1F8AB6EE081A124BF7EE00
:100CD000000AB0EE480A83ED008A104B83ED008ACB
:100CE00004232B70FFF794FC70BB0D4B1A680AB1FC
:100CF000186852E7052050E7094B1868FFF70CFC0D
:100D0000A0010020980100207C0100200000FA438F
:100D1000940100200BD7233B8C0100208001002090
:100D20009C01002019304A401830CABF33331340A9
:100D30003333733FF40435BFF404353F1830CA3FF2
:100D400012A49740000000004FF49670FFF7D6FE03
:100D50002B78072BD0D00823B1EE001ABFEE000A83
:100D6000F0EE480A2B70FFF753FC0028BDD04FF47B
:100D70009670FFF7C3FE2B78072BBDD009231FED1C
:100D8000110A2B70FFF7B8FD0028AED04FF4967013
:100D9000FFF7B4FE2B78072BAED00A231FED1F0AF6
:100DA0002B70FFF7A9FD00289FD04FF49670FFF736
:100DB000A5FE2B78072B9FD00B23B7EE081ABFEEAA
:100DC000000AF0EE480A2B70FFF722FC00288CD0B6
:100DD0004FF49670FFF792FE2B78072B8CD00C23E4
:100DE0001FED2F0A2B70FFF787FD00283FF47DAF22
:100DF0004FF49670FFF782FE2B78072B3FF47CAF01
:100E00000D23BFEE000A1FED371A5FED320A2B707B
:100E1000FFF7FEFB00283FF468AF4FF49670FFF732
:100E20006DFE2B78072B3FF467AF1023F7EE000A17
:100E30001FED411A1FED3D0A2B70FFF7E9FB00285B
:100E40003FF453AF4FF49670FFF758FE2B78072B03
:100E50003FF452AF1123B7EE001A5FED4A0A1FEDBF
:100E60004A0A2B70FFF7D4FB00283FF43EAF4FF443
:100E70009670FFF743FE2B78072B3FF43DAF12230C
:100E80001FED520A2B70FFF737FD00283FF42DAFFE
:100E90004FF49670FFF732FE2B78072B3FF42CAF00
:100EA00013235FED597A1FED598A00262B70A74B4B
:100EB000F0EE488A8DED038A374693ED007A8DED8A
:100EC000048A77EE277A8DED058ACDE90666B0EEC5
:100ED000679ACDE90866CDE90A66CDE90C6602F0AD
:100EE000ADF99B4AA0F1FA09804682ED008A82465C
:100EF000984A82ED008A064602F0A0F942F6DF63C6
:100F0000A0EB0A029A4200F2CB80A0EB0802092A69
:100F1000F2D903463046DFED907A08F10A011E4609
:100F20001B1A08EE103A731AB8EE488A092B94BFC0
:100F30008846B04628EE278AB4EEE78AF1EE10FA2A
:100F400000F1AB80DFED857AB4EEE78AF1EE10FABE
:100F500037FE888AB0EE480AFFF722FB0AA930461E
:100F600001F000F8002800F0948005AB03AA0AA95C
:100F70007B48009304AB00F0EBFE002800F0898072
:100F8000724B9FED787A93ED006A774B79EE465A73
:100F9000DFED766A93ED006ADFED757A27EE467A2B
:100FA000F0EE659AA5EEA67AB4EEE77AF1EE10FAC5
:100FB00007D4DFED707AB4EEE77AF1EE10FA77FE3F
:100FC000877A9FED6D7AF0EE686A28EE077A78EE00
:100FD000C78AF4EEE78AF1EE10FA07DC77EE268A8C
:100FE000F4EEE87AF1EE10FA78FEA78ADFED630AF4
:100FF000B0EE681A564B06A968EEA00A9FED600A8B
:101000005748F0EEE07AC3ED007A524BC3ED008A08
:1010100000F026FE002838D006A800F055FF002872
:1010200037D0DDED057ADFED576AF0EEE77A564B03
:1010300093ED007A67EEA67AA8EE277A83ED007A20
:10104000A6EB0903F92B04D9B1460AA93046FFF7EC
:101050002FFAF0EEE97A9FED4D7AF4EEC77AF1EED1
:1010600010FA6FD8404B9FED4A7AD3ED007AF0EE3C
:10107000E77AF4EEC77AF1EE10FA63D8002F5ED06B
:10108000F31BC72B10D8304635E7424B06221A60B7
:101090002CE6404B05221A6028E69FED2F8A59E77F
:1010A0003C4B07221A6021E600F03EFF00283FF487
:1010B0001CAE4FF49670FFF721FD2B78072B3FF401
:1010C0001BAE15239FED340A0020324E2B7000F02A
:1010D00027FB9FED310A012000F022FB4FF42F7017
:1010E00002F0B2F805234FF47A702B70FFF706FD7B
:1010F00000F032FF06232B7002F0A0F81A4B29787B
:10110000326893ED000A114BDFED1D1AD3ED000A92
:101110001D4BB0EE611A93ED002AD4ED002A1F4B4F
:1011200001F002F82878316801F03AF801F044F94A
:1011300000F0FAFE4FF47A7002F086F8F8E73746CE
:101140003046D8E600273046D5E600BF8C010020A7
:1011500088010020840100206F12833ACDCC4C3DE1
:1011600018A60008CDCC4C3E90010020CDCC0C4000
:101170009A9999BF9A99993F6666E63F9A9999BE5E
:10118000000000009A99993E800100200AD7A33CF4
:101190000AD7233D9C0100200000BE4208A600089B
:1011A00072B6FEE700B58DB000212C2201A808F030
:1011B000C9FB01A90A4802F043FC58B9069B13B9C0
:1011C00001200DB000BD074A1368013313600020F1
:1011D0000DB000BD044A136801331360F7E700BF88
:1011E000E80300202C02002030020020C24A53698C
:1011F00013F4003370B5A8B011D1BFF34F8FBFF314
:101200006F8FC2F85032BFF34F8FBFF36F8F5369A8
:1012100043F400335361BFF34F8FBFF36F8FB64872
:10122000436913F4803326D1C0F88430BFF34F8F65
:10123000D0F8804043F6E075C4F34E3CC4F3C904D3
:101240004FEA4C1C0CEA0501234641EA8372013B3C
:10125000C0F860225A1CF8D1ACF1200C1CF1200F10
:10126000F0D1BFF34F8F436943F480334361BFF341
:101270004F8FBFF36F8F01F0A5FF4C22002115A8FF
:1012800008F060FB202200210DA808F05BFB022083
:1012900002F066FE994A00230993936923F44043C0
:1012A0009361936903F440430993099B93699E04F6
:1012B000FCD5212102230122282015914FF48031F1
:1012C0001B921E931691062122920C2224932190A8
:1012D00015A82391CDE91F330023CDE925232793BA
:1012E00003F060FD002840F0D08140230025032159
:1012F0003F2214930DA8CDE911330823CDE90F53F4
:101300004FF48063CDE90D21139304F017F8002802
:1013100040F0B88100247A4B09217A4819940125BC
:10132000CDE91544CDE91744D3F8E02042F001029D
:10133000C3F8E020D3F8E02002F001020792079AF8
:10134000D3F8E02042F00402C3F8E0200122D3F8F1
:10135000E03003F004030893089B02F0FDFD09232D
:1013600015A968481794CDE915350323189302F0A1
:10137000BDFC2A464FF40041624802F0EDFD4FF4F7
:101380000043604815A915931695CDE9174402F05E
:10139000ADFC5D4A5D4B1046946013604FF48003D2
:1013A000146253600723D462D3604FF000739463D8
:1013B00013614FF0807353614FF0806393614FF07E
:1013C0008043C2E90944C2E90F44C2E91144C2E9B9
:1013D0001344C2E91544D361536305F0C5FA0028EC
:1013E00040F04D814A4900234A4A08460B610A6091
:1013F0004FF4E1328B614A600C22C1E90233C1E94A
:1014000007334A61C1E9093306F048FC30B90146A7
:101410003F4806F0B9FC002800F04181FFF7C0FE0C
:101420000023CDE90D33CDE90F3311930A931B93BC
:10143000CDE91533CDE91733CDE91933CDE90B33B8
:1014400004F0F8F8054604F09DF80446854218BFFC
:101450006C0004F0DDF8064604F094F82E4B86424A
:10146000054618BF75009C4240F203819D4240F240
:101470000081234B294A2A48A2FB0412D3F8F0101A
:1014800041F00101920CC3F8F010013AD3F8F010CA
:1014900001F0010103910399D3F8E81041F0010133
:1014A000C3F8E810D3F8E81001F0010104910499A1
:1014B000D3F8E01041F00101C3F8E010D3F8E010D8
:1014C00001F0010105910599D3F8E01041F01001F8
:1014D000C3F8E010D3F8E030426003F01003069345
:1014E000069B002383608361C0E904330D4B0360D6
:1014F00044F61F63C36017E000ED00E000480258A7
:1015000000440258000802586003002000380040E0
:1015100034020020001001403F420F0083DE1B43D5
:10152000140300200000014005F0B0FE002840F048
:101530009D80714BA3FB0523704A9B0C1046013B19
:10154000536000239360136193614FF080431360F5
:1015500044F61F63D36005F099FE002840F08C80AC
:1015600000230AA966480A930C9305F0A7FF0028F8
:1015700079D10AA9614805F0A1FF002873D10022A2
:10158000602315A95D481992CDE91532CDE91722DE
:10159000CDE91A2205F0F2FE38B9082215A95748FC
:1015A00005F0ECFE002800F08880FFF7F9FD00242C
:1015B0000522022301250DA952480D92CDE90E34D2
:1015C000CDE9104502F092FB4FF408530DA94E48A7
:1015D00011950D9302F08AFB2146484805F0D4FD91
:1015E00028B90821454805F0CFFD002876D0FFF73F
:1015F000D7FD01F013F80124444900224448142384
:101600000C70444903620A704349048201603B2123
:101610008274C1610821C0E905431023C0E90F238A
:101620000423C0E90222C0E90944C0E90B44C0E92F
:101630000D22C0E91132C0E91332C0E91532C0E908
:101640001721C0E9192301F0B9FE38B90146234634
:1016500002222F48009402F0A7F8C8B128B0BDE8D4
:101660007040FFF79DBDFFF79BFD88E7FFF798FDF2
:101670005FE7FFF795FDFCE6FFF792FD70E7FFF7E8
:101680008FFDAFE6FFF78CFD44E6FFF789FD2CE602
:101690001F4802F0A3F80028E0D128B070BD014631
:1016A0001E4806F0A3FB00287FF4B8AE1B4806F0E6
:1016B0004BFB00287FF4B2AEB2E6024615A91048F3
:1016C00005F05CFE00287FF470AF082215A90C48D5
:1016D00005F054FE00287FF468AF68E7014608482B
:1016E00005F052FD002882D10821054805F04CFD87
:1016F00000287FF47CAF7CE783DE1B43C802002018
:101700001403002000000258001002582402002098
:10171000E80300202502002000A000403402002041
:10172000B5EEC00AF1EE10FA30D49FED1A7AF6EE5B
:10173000007ADFED196A44F62062B4EEC70AF1EED2
:1017400010FA37FE000A80EE076AE6EE267AFCEE13
:10175000E77A17EE903A03F5FA73934228BF1346DF
:10176000032806D8DFE800F00E0A06020B4A1268CA
:10177000D3637047094A126853637047084A126876
:10178000D3637047064A1268536370474FF4FA7385
:10179000E6E700BF000034430000FA4414030020D1
:1017A000C8020020174A1278012A2AD148B32DE92D
:1017B000F8438046FEF78CFD814600B3B8FA88F7FF
:1017C0007F09A9EB070601F039FD08EB0701054683
:1017D000802E0D4828BF80263246B4B208F0E0F8CB
:1017E00004E001F02BFD401B142808D821460648D0
:1017F00000F096FF0028F4D13744B945E1D8BDE8A0
:10180000F883704724020020A401002010B504468C
:1018100068B1FEF75DFD4FF6FF724FF47A73214613
:10182000824228BF0246044892B206F06BF9204675
:10183000BDE81040FFF7B6BF3402002000000000F2
:1018400000B5002389B0049330B103F180430268EE
:1018500003F588339A4201D009B000BD164B02202F
:101860004FF0070C02A9D3F8F02042F01002C3F8A1
:10187000F020D3F8F02002F010020092009AD3F882
:10188000E02042F00102C3F8E020D3F8E0300590F8
:1018900003F001030948CDF818C00193019B9FEDA7
:1018A000047B8DED027B02F021FA09B000BD00BF80
:1018B0000006000002000000004402580000025828
:1018C0002DE9F041DFF86880D8F80030D3F8CC502B
:1018D0002DB90022134B01201A70BDE8F081294672
:1018E000404601F0DBFF044688B901F0A7FC0E4F2B
:1018F0000646D8F800300134D3F8CC302B42E8D07B
:1019000001F09CFC801B012801D8BC42F1D1074AA0
:1019100000201368013313600122024B1A70BDE8E6
:10192000F08100BF25020020400D030028020020A6
:10193000E8030020F0B5064683B007460C4601F0E8
:101940007DFC731E072B0DD805460E4E01E0337843
:1019500063B101F073FC401BA042F8D30A4A13683C
:10196000013313600023184603B0F0BDFFF71AFCE3
:101970000028EED00190054802F096F8B842019B8D
:10198000E7D3F0E72502002030020020E803002022
:101990002DE9F0418CB010B1284B1B7843B1284A97
:1019A000136801331360002420460CB0BDE8F081B9
:1019B00005460193FFF7F6FB0028F0D03221042002
:1019C000FFF7B8FF04460028E9D0019B2F1D57F808
:1019D0003320002AE3D035F833200133B2F5006F0D
:1019E000DDD2042BF3D100264FF000082022002185
:1019F00004A807F0A7FF4FF4002235F8363003A9FA
:101A00000692104857F83620039301F005FF48B9B5
:101A10000C4801F03FFF731C48EA0008042B1E46E7
:101A2000E4D1C1E7064A136801331360B8F1000F2F
:101A3000B9D04146034801F031FFB4E72502002048
:101A400030020020E803002010B58AB004462822A6
:101A50000021684607F076FF24B140210F4802F0CC
:101A600015F810B900200AB010BDA31C6A46402129
:101A70000A4801F025FF58B9019B069A1343F1D19A
:101A8000039BB3F5002FEDD1009B01202380EAE7F3
:101A9000034A136801331360E4E700BFE803002042
:101AA0003002002010B5B8B000210446B8220AA8C0
:101AB0000891CDE90411CDE9061107F043FF1CB1EF
:101AC000274B22689A4201D038B010BD4FF48052A3
:101AD00000230AA8CDE90A2303F09EFE00283BD18B
:101AE000204B062002210524D3F8E82042F480424E
:101AF000C3F8E820D3F8E82002F480420192019A6A
:101B0000D3F8E02042F00202C3F8E020D3F8E0204E
:101B100002F002020292029AD3F8E02042F004029C
:101B2000C3F8E020D3F8E030089403F00403CDE9D3
:101B30000401002003210393039BCDE9060104A9BE
:101B4000094802F0D3F84FF4005304A9074804935E
:101B500002F0CCF838B010BDFFF722FBC0E700BFA1
:101B6000003800400044025800080258000402589F
:101B700010B5B6B000210446B82208A80691CDE9F8
:101B80000211CDE9041107F0DDFE1CB1244B2268DF
:101B90009A4201D036B010BD9FED1B7B4FF08053B1
:101BA00008A88DED087B239303F036FE40BB1D4B48
:101BB000092402A91C48D3F8EC2042F48072C3F82F
:101BC000EC20D3F8EC2002F480720092009AD3F853
:101BD000E02042F00802C3F8E020D3F8E030069499
:101BE00003F008039FED0A7B0193019B8DED027BBF
:101BF0009FED097B8DED047B02F078F836B010BDC7
:101C0000FFF7CEFAD3E700BF00800000000000001D
:101C100003000000020000000000000000000000BF
:101C200000A0004000440258000C0258074B82B04C
:101C3000D3F8F42042F00202C3F8F420D3F8F430D1
:101C400003F002030193019B02B070470044025865
:101C500001F0E8BA014802F069BA00BFE89C002030
:101C6000002918BF002803460CBF0120002068D0BF
:101C700093ED006AB5EEC06AF1EE10FA62D9D3EDC9
:101C8000037AF5EEC07AF1EE10FA5BD970EE606A75
:101C900093ED027AD3ED017A30EE200A0A4601F183
:101CA000100C77EE877A0846B0EE665A9FED277AD9
:101CB000F0EE405AE7EE816AA7EEC15AE7EE815A8C
:101CC000A7EEC10AC5EE067AC1ED007A93ED006A6F
:101CD000C5EE867AC1ED017A93ED006AC0EE067A10
:101CE000C1ED027A93ED006AC6EE867AC1ED037A01
:101CF000F0EC017AF5EEC07AF1EE10FA01D5F1EED2
:101D0000677AF4EEC77AF1EE10FA37FE877A60450B
:101D1000EED1D3ED037AF4EEC77AF1EE10FA12D4D5
:101D2000F7EE006A1033F3EC017A92ED007A67EE79
:101D3000A67A67EE877AE2EC017A6245F3D1012058
:101D4000704700207047C7EE876AEBE7000000008D
:101D5000002918BF002810B50CBF4FF0010E4FF03E
:101D6000000E66D0002B18BF002A029C0CBF4FF05B
:101D7000010C4FF0000C002C08BF4CF0010CBCF122
:101D8000000F54D1D0ED006AF5EEC06AF1EE10FA02
:101D90004DD991ED017AB5EE006AD1ED007AF1EE00
:101DA000005A91ED024A4FF0010E77EE877A91EDDD
:101DB000035AD0ED024A90ED017A77EE847A37EE3D
:101DC000247A77EE857A27EE257A67EEA67A67EE93
:101DD000867AC2ED007AD1ED017AD1ED004A91ED1B
:101DE000025A77EEE47AD1ED035AD0ED006A77EE2D
:101DF000857A77EEE57A67EEA67A67EE867AC3EDA6
:101E0000007AD1ED017A91ED005AD1ED025A77EEC8
:101E1000C57A91ED036AD0ED006A77EEE57A77EE48
:101E2000867A67EEA67AC7EE876AC4ED006A7046C6
:101E300010BD4FF0000E704610BD00BF2DE9F041FF
:101E400090B02022114E804608AC6D460F460DEB37
:101E50000200002107F076FD3388284665600236CF
:101E60003B440834083524F8083CC047082808D10A
:101E700010AB9C42F0D108A8FFF78AFD10B0BDE876
:101E8000F081002010B0BDE8F08100BF58A6000826
:101E900070B506460A2400213046FFF7CFFF0546FD
:101EA000022075B101F0D0F9013CF4D103244FF4C4
:101EB00000713046FFF7C2FF022001F0C5F9013C76
:101EC000F5D1284670BD00BF2DE9F041202290B029
:101ED000054600210DEB020007F034FDEDB1114C79
:101EE00008AF6E4604F10808238830467E6002344D
:101EF00003F5007395ED000A0837043527F8083C10
:101F0000083601F0D1F8082807D14445ECD108A8DB
:101F1000FFF73EFD10B0BDE8F081002010B0BDE835
:101F2000F08100BF58A6000808B5FFF7C9FC00B94A
:101F300008BD0248BDE80840FFF7C6BF38A6000844
:101F40000148FFF7A5BF00BF752F00080148FFF744
:101F50009FBF00BF912F00080148FFF799BF00BF46
:101F6000AD2F00082DE9F041002306460F46DFF8AB
:101F7000C8802C4C2C4D2DED028B9FED2C8A88B007
:101F8000CDE90033ADF808306846FFF75DFD8446C3
:101F900000230DF10201264803AABCF1000F22D054
:101FA0000793CDE90333CDE9053301F00DF8214A5C
:101FB00001210028E8D19DF80C30013BD8B202EB9A
:101FC0008302032805EB830CDED8DDED057A92ED64
:101FD000007A67EE887A48F82360E15467EE877AE2
:101FE000CCED007AD0E72FB10F4C0FCC3860796080
:101FF000BA60FB600B4B104A1C1D187838B1116891
:1020000001330432711A642906D8A342F5D108B00D
:10201000BDEC028BBDE8F081002008B0BDEC028B66
:10202000BDE8F08188040020B00400203333634011
:1020300060A6000848A60008A004002000EB80204D
:10204000194B1A4A410103EB4010CB58934201D07F
:10205000002070474368012BFAD18368B3F5007FF5
:10206000F6D89B0110B518D0DFF848C04FF0FF320A
:102070000F4C8C440CEB030E9CF8003008215A40A6
:1020800042F30003013903EA040383EA5202F7D161
:102090000CF1010CF445EFD1D3438069C01AB0FABA
:1020A00080F0400910BD00BF00000E084C4F4732C1
:1020B0002083B8ED20000E082DE9F0470027814667
:1020C0008A46134E3D46B8463C462046FFF7B6FFCB
:1020D00004EB842350B106EB4313DB69B8F1000F26
:1020E00001D0AB4202D327461D4680460134032C63
:1020F000EBD1B8F1000F08D007EB8722044BC9F8E9
:10210000007003EB4213CAF800304046BDE8F08788
:1021100000000E0800230249024A0B60137070474A
:10212000C4040020C004002030B5184D1C462B68A4
:102130005CB3B3F5007F28D2DFF85CC04FEA831EA2
:102140004CF80E000EF1280EE6440CEB831CCCF884
:102150000C3001338CED040ACCED050A8CED061A27
:10216000CCED071A8CED082ACCED092A2B60CCE9BE
:102170000112A268E36820686168AEE80F00044AB3
:10218000044B12681B68CCE90E2330BDC404002048
:10219000300200202C020020E0040020000000009B
:1021A0002DE9F04F97B00025774E80460DF13F04A2
:1021B0000F462022294624F01F0407952046CDE92A
:1021C0000355CDE9055507F0BDFB009535781DB1E8
:1021D000284617B0BDE8F08FFA2363616B4B1B688C
:1021E00067A1D1E90001A3609B01C4E90387C4E9A9
:1021F000000115D0DFF8B4C14FF0FF32644903EBA2
:102200000C071CF8013B08205A4042F30003013838
:1022100003EA010383EA5202F7D1BC45F1D1D3436B
:102220004FF00008DFF878B148F2200AA361C146F8
:1022300047463846FFF702FF40B1DBF81C30B8F1E3
:10224000000F01D0994501D8994680460137D34403
:10225000032FEED109FB08F30133E361012304935B
:102260000693072305932023079301F023FC0028FE
:10227000AED1019002A901A8FFF71EFF18B3019B80
:10228000DFF82CA1DFF818915F1CDFF8088103F15B
:10229000040EAAFB072323F0010000EB5300381AB9
:1022A00000EB80214FEA802C09EB411308EB411130
:1022B00001E08B4232D01A6804330132F9D0013781
:1022C000BE45E6D10FE0334F48F2200C32497B186F
:1022D00001E09F4220D01A6804330132F9D0013066
:1022E00067440328F3D103A8694601F07FFC002866
:1022F00041D001F0F3FBBFF34F8FBFF36F8F274B3C
:102300000022C3F85022BFF34F8FBFF36F8F2846D0
:10231000357017B0BDE8F08F4FEA802C8444204B15
:1023200003EB4C194FEA4C1C184B1B6843B922466F
:102330004946012001F018FCB0FA80F56D09D8E794
:102340005FEA8318F3D0174F174BDFF868B0674484
:10235000A3EB0C0AABEB0C0B03E00BEB070398456C
:10236000E5D90AEB070239460120203701F0FCFBD2
:102370000028F2D0BDE78446DFF82490D4E700BF00
:102380004C4F473201000000C0040020C40400206C
:102390002083B8ED20800E08E07FFFFF00ED00E015
:1023A00000000E0820000E08C004F217E004002010
:1023B000ABAAAAAAE0FFF1F72DE9F0412DED028BBF
:1023C000D2B0002511A910A8CDE91055FFF774FE71
:1023D000002800F00D818A4A4FF4807112A8DDE9CF
:1023E0001048D8F814300493D8F810300393D8F874
:1023F0000C300293D8F808300193D8F81C300093C1
:10240000234607F06DFA12A8FFF700FA7D48FFF7A0
:10241000FDF9D8F80830002B00F0E28004EB8424AA
:10242000794BF6EE008A9FED798A03EB4414AAE01B
:1024300037EEA87AD4ED057ABDEEC77A67EE887AD2
:1024400017EE101AF5EEC07AF1EE10FAC0F2C58060
:1024500037EEA84AD4ED067ABDEEC44A67EE887A14
:10246000F5EEC07AF1EE10FAC0F2B48077EEA87AF9
:1024700094ED077AFDEEE77A27EE087AB5EEC07A9A
:10248000F1EE10FAC0F2A38037EE287AD4ED086A94
:10249000BDEEC77A66EE886AF5EEC06AF1EE10FA14
:1024A000C0F2928076EEA86A94ED096AFDEEE66AC3
:1024B00026EE086AB5EEC06AF1EE10FAC0F281802D
:1024C00036EE286AD4ED0A5ABDEEC66A65EE885A21
:1024D000F5EEC05AF1EE10FA70DB75EEA85A94EDE5
:1024E0000B5AFDEEE55A25EE085A15EE900AB5EEA8
:1024F000C05AF1EE10FA5EDB35EE285AD4ED0C5AD4
:10250000BDEEC55A65EE885AF5EEC05AF1EE10FAE6
:102510004EDB75EEA84AD4ED0D5AFDEEE44A65EEA9
:10252000885AF5EEC05AF1EE10FA3EDB75EEA85A65
:10253000E26BFDEEE55A013540340E9254F8082C5A
:10254000CDED0B4A8DED0A5A099012A80D92CDEDF2
:102550000C5A2F4A8DED086ACDED076A8DED067A8B
:10256000CDED057A8DED044A03914FF4807100960C
:10257000CDE9017C07F0B4F912A8FFF747F9D8F8C4
:102580000830AB422CD9D4ED047AE36867EE887A40
:10259000D4F808C0D4E90067F5EEC07AF1EE10FA7D
:1025A000BFF646AF37EEE87A44E775EEE85ABFE784
:1025B00075EEE84AAFE735EE685A9FE775EEE85AE0
:1025C0008DE736EE686A7DE776EEE86A6CE737EE0F
:1025D000687A5BE777EEE87A4AE737EEE84A39E768
:1025E0000C48FFF713F952B0BDEC028BBDE8F08147
:1025F000094852B0BDEC028BBDE8F041FFF706B9C7
:1026000098A60008E4A6000820000E0800007A44FE
:102610008CA70008D0A7000888A6000808B50122EA
:1026200019491A4806F0C0F988B91949174806F03F
:10263000CFF9A0B91749154807F0F4F8B8B913480D
:1026400006F0E4F9D0B9BDE8084001F0ADBCFEF7F2
:10265000A7FD0F490D4806F0BBF90028EAD0FEF7A8
:102660009FFD0C49094807F0DDF80028E7D0FEF788
:1026700097FD064806F0CAF90028E4D0FEF790FD61
:10268000BDE8084001F090BC48000020E084002034
:10269000C00000200000002000207047002070478C
:1026A0000020704770B50446B8B1B1B10B68A3B152
:1026B00003F1FF3E411E0D4A0D4D86440D4E136839
:1026C00028680133DBB2984207D011F801CF1068B7
:1026D0007145136006F800C0F1D12146064807F0A5
:1026E000BBF8054807F0E2F8002070BDC088002064
:1026F000BC880020BC870020E0840020002205491F
:10270000054808B507F09AF80449034807F0A4F80B
:10271000002008BDC4880020E0840020C490002070
:1027200010B50C4CD4F8BC32002918BF002B0FD0C8
:1027300070B1D3F814320BB1012010BD0A46014626
:10274000204607F07BF82046BDE8104007F090B81F
:10275000032010BDE0840020122301480B80704745
:1027600034000020042301480B8070473000002013
:102770000A460348034908B506F0FCFD014808BDB8
:10278000DCA70008C49800200A460348034908B59E
:1027900006F0F0FD014808BDE4A70008C498002039
:1027A0000A460348034908B506F0E4FD014808BDA0
:1027B000F4A70008C49800200A460348034908B556
:1027C00006F0D8FD014808BD04A80008C498002000
:1027D000194A30B5D2F800381A24D2F808080C800B
:1027E000191801D1154830BD144B0024D2F804C883
:1027F00003F110051A46080FD470023209010928A6
:1028000000F1370E98BF00F1300E82F800E09542DB
:10281000F1D10B4C00204FEA1C72D87402334FEAFE
:102820000C1C092A02F1370198BF02F1300119741A
:102830009C42F0D1014830BD00E0F11F140000209F
:102840001C0000200000000010B5B0B00446B82203
:10285000002102A807F076F8194B22689A4201D0AD
:1028600030B010BD9FED147B4FF4401302A88DEDE6
:10287000027B239302F0D0FFC0B901F095FB114B0E
:1028800000224D20D3F8D8C011464CF0007CC3F88C
:10289000D8C0D3F8D83003F000730193019B00F047
:1028A000F7FC4D2000F024FD30B010BDFEF778FCA1
:1028B000E3E700BFAFF30080000004000000000069
:1028C000000004400044025800F2C441D0F808055A
:1028D00006F0B0B8034601EBC102D0F8080503EBDF
:1028E0008203D3F8882206F0DBB800BF034601EB71
:1028F000C102D0F8080503EB82039A6C06F00EB90A
:10290000D0F8080506F0BAB9016910B5044611B14E
:1029100002290AD10121D4F8080506F093F9D4F868
:102920000805BDE8104006F05FB9FEF739FC01214B
:10293000F1E700BF10B50446D0F8080506F086F9A7
:102940002268D2F8003E43F00103C2F8003E236A39
:1029500023B1034A136943F00603136110BD00BF9E
:1029600000ED00E0D0F8080506F07EB9D0F80805C3
:1029700006F0AAB9D0F8080506F090B9D0F8080515
:1029800006F0B8B9D0F8080506F0B6B908B503786E
:10299000012B01D0002008BD034617480022022168
:1029A000C0F80835DFF854C0C3F8C8020923C0F8DE
:1029B00000C043604263C0E90321C0E90612C0E9D8
:1029C0000822C0E90B2201F0F7FA88B94FF4007130
:1029D000094802F057F980220021074802F02CF93B
:1029E0004FF4BA720121044802F026F9002008BD14
:1029F000FEF7D6FBEAE700BFE89C00200000044099
:102A00000346D0F8C80200B583B040B1019301F08D
:102A100081FFC82000F018FC019BD3F8C80201F028
:102A200063FB18B102280CBF0120032003B000BDD6
:102A30009446D0F8C8021A4608B5634601F0B0FFC4
:102A400018B102280CBF0120032008BD08B5D0F83A
:102A5000C80201F0E3FF18B102280CBF01200320D7
:102A600008BD00BF08B5D0F8C80202F05DF818B183
:102A700002280CBF0120032008BD00BF08B5D0F814
:102A8000C80202F09DF818B102280CBF01200320F3
:102A900008BD00BF0A06D0F8C83206D401EBC10158
:102AA00003EB810393F87E02704701F07F0101EB95
:102AB000C10103EB810393F83E00704708B5D0F8DD
:102AC000C80201F053FF18B102280CBF01200320F7
:102AD00008BD00BF08B5D0F8C80202F003F818B16D
:102AE00002280CBF0120032008BD00BF08B5D0F8A4
:102AF000C80201F0C9FF18B102280CBF0120032051
:102B000008BD00BFD0F8C80201F0E2BF004870471E
:102B1000C49A0020704700BFF8B500F0F5F9802096
:102B200000F012FA552000F00FFA552000F00CFAD0
:102B300000F0F2F9962000F0CBF900F0E5F98020E2
:102B400000F002FA552000F0FFF9552000F0FCF9E2
:102B500000F0E2F9962000F0BBF900F0D5F97E20F4
:102B600000F0F2F9B62000F0EFF900F0D5F95020AE
:102B700000F08AF900F0C8F9802000F0E5F955204E
:102B800000F0E2F9552000F0DFF900F0C5F99620D9
:102B900000F09EF900F0B8F9802000F0D5F955203A
:102BA00000F0D2F9552000F0CFF9044600F0B4F956
:102BB000962000F08DF91E2C2AD10025184C00F02B
:102BC000A3F9277866780334384600F0BDF930461B
:102BD00000F0BAF900F0A0F9962000F079F900F0C1
:102BE00093F947F0800000F0AFF9552000F0ACF900
:102BF000552000F0A9F9074600F08EF9962000F064
:102C000067F9BE4206D10135062DD8D10020F8BDA6
:102C1000FF20F8BD05EB4505014B2B449878F8BD26
:102C20002CA80008F8B500F07FF9802000F08CF99E
:102C3000552000F089F900F07FF9962000F048F95E
:102C400000F072F9802000F07FF9552000F07CF947
:102C500000F072F9962000F03BF900F065F91420BD
:102C600000F072F9B62000F06FF900F065F950201D
:102C700000F00AF900F058F9802000F065F95520BD
:102C800000F062F900F058F9962000F021F900F008
:102C90004BF9802000F058F9552000F055F9044612
:102CA00000F04AF9962000F013F90F2C27D10025E7
:102CB000174C00F039F9277866780334384600F06D
:102CC00043F9304600F040F900F036F9962000F064
:102CD000FFF800F029F947F0800000F035F95520A1
:102CE00000F032F9074600F027F9962000F0F0F8DE
:102CF000BE4206D10135062DDBD10020F8BDFF20F4
:102D0000F8BD05EB4505024B2B449878F8BD00BF94
:102D100018A8000810B500F0B3F800F0B3F8FFF7FA
:102D2000FBFE0446FFF77EFF2043C0B210BD00BF8C
:102D30002DE9F041002382B00E46174680466C46CE
:102D40000DF10605CDE9003300F0DEF8922000F029
:102D5000FBF8922000F0F8F8552000F0F5F804F8A0
:102D6000010BAC42F8D100F0D7F8BDF90030BDF945
:102D700002206C4606EE903A3F4B07EE102ABDF952
:102D80000420F8EEE66AD3ED007AB8EEC77A66EE74
:102D9000A76A07EE902AF8EEE77AC6ED006AD3ED4F
:102DA000006A27EE267A67EEA67A86ED017AC6EDEE
:102DB000027A00F0B9F8802000F0C6F8552000F043
:102DC000C3F802AB04F8010B9C42F7D100F0B4F851
:102DD0009DF800300F2B22D1BDF90230BDF904203F
:102DE00006EE903A254B07EE102ABDF90620F8EEC4
:102DF000E66A93ED006A07EE902AB8EEC77A66EEAF
:102E0000866AF8EEE77AC8ED006AD3ED006A27EE2D
:102E1000267A67EEA67A88ED017AC8ED027A00F08C
:102E200073F8A22000F090F8A22000F08DF8552051
:102E300000F08AF80546552000F086F8044600F0B8
:102E40006BF8F4EE006AC4F34713B3EE077A43EA73
:102E5000C5031BB2A3F5006212B2B3F5806FA8BF21
:102E6000134607EE903AF8EEE77AA7EEA67A87EDDA
:102E7000007A02B0BDE8F081680000206400002004
:102E8000704700BF704700BFF0B14FF0E021F0B5D0
:102E9000461E0E4D4FF6FF774C6900208A698B69FC
:102EA0009342FCD0A4EB030C02EB000E09D2AEEB74
:102EB0000300A8421A46F2D9013EB6B2BE42EBD197
:102EC000F0BD94446044F4E7704700BFFF52070030
:102ED0004FF0E021C0EB00104FF0000C400130B586
:102EE0004D698A698B699342FCD0A5EB030E0CEB0C
:102EF000020405D2A4EB030C84451A46F2D330BD7C
:102F0000F4449444F8E700BF00220121014801F095
:102F100023B800BF0008025801220248114601F000
:102F20001BB800BF0008025800220821014801F028
:102F300013B800BF0008025801220821014801F01F
:102F40000BB800BF0008025800B54FF47A7C87B078
:102F500001238DF80F000DF117020DF10F01CDF8CF
:102F600000C0034803F0D8FD9DF8170007B000BD6E
:102F700060030020034640B14FF0FF32FB210820E0
:102F80001A60D971C3F8032070474FF0FF307047C3
:102F9000034640B14FF0FF32FC2108201A60D9717E
:102FA000C3F8032070474FF0FF307047034640B12D
:102FB0004FF0FF32FD2108201A60D971C3F80320B9
:102FC00070474FF0FF307047002A18BF002964D0C7
:102FD0000346002861D0B1F801C008799CFA9CFC36
:102FE0009FED2F3ADFED2F2A1FFA8CFC10B591F8D8
:102FF00000E007EE90CACC780EF00F0E91F805C0F5
:10300000B8EEE77A82F800E04FEA002E000940EAC5
:10301000041007EE900A0EF470604CEA000CF8EE13
:10302000E77AB3FA83F006EE90CA91F800C040093F
:103030004FEA1C1CB8EEE65A82F801C0D3ED003A04
:1030400093ED024AD3ED044AD3ED015A93ED036A9E
:10305000D3ED056A75EEE35A36EE446A76EEE46A1D
:1030600065EE875A26EE277A66EE857A85EEA26AA5
:10307000C7EE036A87EE837A36EE236A82ED016A31
:1030800076EE846AC2ED026A77EE247AC2ED037AA4
:103090008B791374CB79537410BD4FF0FF307047A8
:1030A00000F07F4500FF7F47034630B1002210EE5D
:1030B000101A082019605A6070474FF0FF307047AF
:1030C0002349244AD1F8883043F47003C1F888308A
:1030D000136803F00F03062B05D8136823F00F03C2
:1030E00043F0070313601C4B4FF0000C1B4A196898
:1030F000184841F001011960C3F810C019680A406E
:103100001A6003681B0705D5036823F00F0343F01B
:1031100007030360104B00221149DFF850C011482B
:103120009A61DA611A62C3F828C043F2D20CD862FD
:1031300019635A639963DA6319645A6419680A480F
:1031400021F4802119601A66C0F800C0704700BFE2
:1031500000ED00E000200052004402587FEDF6EA46
:10316000800201010000FF01004000520002020243
:10317000114B1B780BB90120704700B583B00F4A83
:1031800001904FF47A70B0FBF3F31068B0FBF3F0EA
:1031900000F0BCF801990F2900D810B1012003B04C
:1031A00000BD02464FF0FF3000F072F8044B0020E3
:1031B0000199196003B000BD740000207000002068
:1031C0007800002010B50320124C00F04FF802F0F8
:1031D00093F8114B11499A699B69C2F3032203F0DA
:1031E0000F03A25CE35C02F01F020D4C03F01F030F
:1031F000D04020FA03F320600F200B60FFF7B8FFE8
:1032000010B10124204610BD0446FEF70FFD2046F4
:1032100010BD00BF40A80008004402586C00002008
:1032200070000020034A044B11681B780B441360A4
:10323000704700BFF4A1002074000020014B186803
:10324000704700BFF4A1002038B50446FFF7F6FF31
:103250000546631C02D0044B1B781C44FFF7EEFFAD
:10326000401BA042FAD338BD7400002006494FF637
:10327000FF0C0002054BCA6800F4E06002EA0C0291
:1032800010430343CB60704700ED00E00000FA05F7
:10329000144BDB68C3F30223A3F1030CBCF1040F4E
:1032A00000B516D84FF0FF3EC3F107030EFA03F343
:1032B0000EFA0CFEDB4322EA0E021940002801FA46
:1032C0000CF141EA02014FEA011106DB064B1954E9
:1032D00000BD00220F239446EFE700F00F00034BE0
:1032E000195400BD00ED00E000E400E014ED00E042
:1032F000002807DB012300F01F01034A40098B402F
:1033000042F82030704700BF00E100E0431EB3F1F7
:10331000807F01D3012070474FF0E0220020054953
:103320004FF0F00C5361072381F823C090611361C3
:10333000704700BF00ED00E0F0B5D1E901740E69FF
:103340000D68002F32D1264346EA8546D1E906545E
:1033500025434C692543CC682543846E04FB03F365
:10336000D0F88440086A44F8236004EB830445EAFB
:1033700000656560104DCB89EB5CB3B14FF0000C7C
:10338000907804EB0C0ED7780CF1040C000416783E
:103390005378043240EA0760304340EA0320CEF815
:1033A0000800C889285C6045EAD8F0BD2E43264352
:1033B00046F08046CAE700BF50A800082DE9F04754
:1033C00098B004464C22484905A806F0E9FA002CBA
:1033D0007AD02368454A934200F0818094F898207F
:1033E00002F0FF01002A73D09A6922F010029A615C
:1033F000FFF724FF054604E0FFF720FF401B0A28E3
:1034000059D823689A691107F6D49A6942F00102E3
:103410009A61FFF713FF054604E0FFF70FFF401B1B
:103420000A2848D823689A69D207F6D59A6942F0E3
:1034300002029A61227C012A9A690CBF22F04002A2
:1034400042F040029A61627C012A9A690CBF42F400
:10345000804222F480429A61A27C012A9A690CBFC0
:1034600022F4805242F480529A619A69D4E90201AE
:1034700022F44072012942EA00029A619A6922F01C
:10348000A4029A611A6922F010021A6130D0002950
:1034900032D002299A6900F07D8142F0800203292E
:1034A0009A611A6942F010021A6125D19A6942F0B4
:1034B00020029A6120E0D4F89C30032243F00103FB
:1034C000C4F89C3084F89820012018B0BDE8F0873B
:1034D000204684F89910FEF74BFB236884E702F539
:1034E000807262607AE700BFACA5000800A00040CF
:1034F0009A6942F004029A61B0F5407FD4E906125D
:1035000002F1FF3201F1FF314FEA022242EA416249
:10351000216A01F1FF3142EA0102616901F1FF31E3
:1035200042EA0142DA610ED1A16AD4E90B02013903
:10353000013A0138120142EA00220A43616A013964
:1035400042EA0142DA60226E00922AB1D3F8C0202A
:10355000616E0A43C3F8C020E26D0098A16E9146E7
:10356000D0428A4609D0D3F8C8200DEB810122F061
:10357000070249690A43C3F8C820226C656C0192AE
:103580004AB1D3F8BC200DEB850122F0070249694E
:103590000A43C3F8BC20D4E912C0BCF1000F0AD022
:1035A000D3F8BC200DEB800122F07002496942EA99
:1035B0000112C3F8BC20D4E9142E52B1D3F8BC10C8
:1035C0000DEB8E0621F4E061766941EA0621C3F82D
:1035D000BC1072498B4200F0D6800EFB02F24FF015
:1035E0000008666B03920122C4F89C8084F898203E
:1035F000D3F88420C4F894806FF38F02A76B0199ED
:1036000042EA8602D4F83CE005FB01F5C3F88420C9
:10361000D3F88420029522F47F0242EA0742C3F8DD
:103620008420F219D3F888106FF38F0141EA8201E8
:1036300002EB4E02C3F88810D3F8881021F4FE0183
:1036400041EA0E41C3F88810D3F8A0106FF38F0140
:1036500041EA82012A44019DC3F8A010D3F8A010CA
:1036600021F4FE0141EA054100FB0CF50398C3F883
:10367000A010D3F8B0106FF38F0141EA8201C3F8B4
:10368000B0105119D3F8B02022F4FE0242EA0C42E5
:10369000C3F8B020D3F8AC206FF38F0242EA810266
:1036A0000144C3F8AC20D3F8F0206FF38F0242EA54
:1036B0008102C3F8F020D3F8F020D4F858C022F4E7
:1036C0007C1201EB4C0142EA0C42C3F8F020344A70
:1036D000B218920002EB8706029F06EBCE0E01960F
:1036E0000EEB870707EB8505029505EB8005D3F800
:1036F000C00005EBCC0C03956FF38F000AFB09F5B6
:1037000040EA810100980CEB8505C3F8C010D3F89E
:10371000C01021F47C1141EA0941C3F8C0100AFB32
:1037200000F1D3F8C00020F07C56009805EB810131
:1037300046EA0060019EC3F8C000029BA767E367EA
:10374000039BC4F88850E266C4F89010C4E9203C9A
:10375000144B9942C4E91C6E0BD88A4205D242F838
:10376000048BD4F890309A42F9D3002018B0BDE809
:10377000F087D4F89C30032243F02003C4F89C3037
:1037800084F89820A0E661686668896821F00301E2
:10379000B16022E742F020029A61ADE600A000404D
:1037A000002B0010FCD30040844690F898000128BC
:1037B00007D0DCF89C30012043F00403CCF89C30A7
:1037C00070470098DCF800C040EA4303002043EA59
:1037D000820343EA0113CCF88030704790F89820B8
:1037E0000346012A07D0D0F89C20012042F00402B1
:1037F000C3F89C207047D0F800C00222002180F856
:103800009820DCF81820084622F00102CCF8182095
:10381000C3F89C10704700BF70B590F8983082B024
:103820000446022B13D103681D46D3F8C03013F0B1
:103830007C5F15D0D5F8C43013F400131E4616D0A3
:10384000D0F89C3043F40073C0F89C3005E0D0F809
:103850009C3043F00803C0F89C30012002B070BDDA
:10386000D0F89C3043F02003C0F89C30F5E7D5F841
:10387000C430C3F304430193FFF75EFD0122019BB3
:10388000304602FA03F3C5F8D030C4F8943002B0E1
:1038900070BD00BFD0F89400704700BF90F898202A
:1038A0000346022A07D0D0F89C20012042F00802EB
:1038B000C3F89C20704703680020C3F8D4107047F9
:1038C000F0B50D4690F89810022957D1402D64D0DC
:1038D000412D7ED0016DA94258D9416D0027C46F9A
:1038E00005FB01F104EB81010C6804F08044546095
:1038F0000E68002C40F09080C6F38A4616600C6873
:1039000004F0005494600C6804F0004414618C8846
:10391000D4614C6804F47024D460240C4E6806F41E
:10392000801656614E6806F400169661CE7906F050
:103930007F061662414E16F804C04C68E40F5462CC
:10394000BCF1000F0ED0013B01F1070EAEF1060CE9
:103950001EF8014F03F8014FACEB010CD489345D24
:103960006445F3D8402D036859D0412D62D01F2DF6
:1039700059D80122AA40C3F8982052E0D0F89C30D0
:1039800043F00803C0F89C300120F0BDD0F89C3013
:1039900043F02003C0F89C30F6E70168D1F8A0405E
:1039A00014F4FE0FF2D0D1F8A44064062DD0D1F863
:1039B000A440E70101D5D1F8A040D1F8A410C1F38B
:1039C0000524416C274604FB01F1446F04EB81019F
:1039D0008AE70168D1F8B04014F4FE0FD6D0D1F8D0
:1039E000B440660611D0D1F8B440E40101D5D1F855
:1039F000B040D1F8B410C1F30524C16C274604FBD4
:103A000001F1846F04EB81016EE7D0F89C3043F440
:103A10008073C0F89C30B7E726F060466EE7C3F8C5
:103A2000A8700020F0BD05F01F050122AA40C3F8D0
:103A30009C20F6E7C3F8B870F3E700BF50A8000871
:103A4000034600201B685B6C03F0070CC3F30222E3
:103A5000C1E900C203F0180CC3F34012C1E902C26D
:103A6000C3F3801CC3F3C012C1E904C2C3F3C02C6A
:103A7000C3F30032C1E906C2C3F3403CC3F3803252
:103A8000C3F30643C1E908C28B627047402903684B
:103A900004D0D3F8B40000F07F007047D3F8A4003E
:103AA00000F07F00704700BF0368D3F8C40000F047
:103AB0003F007047064BD86810F0010006D005495A
:103AC000054A59605A60D86800F00100704700BF8D
:103AD0000020005223016745AB89EFCD044BDA6823
:103AE00042F00102DA60D868C04300F0010070477C
:103AF0000020005270B504460D46FFF79FFB174AA1
:103B000013695E0704D5611C19D113695C07FCD4E5
:103B1000012D01D0002070BD104A114913690B40DE
:103B200006D11369DB03F5D54FF480335361F1E718
:103B30000C4C2846A1691943A161536170BD06462A
:103B4000FFF77CFB801BA04205D824B1034A136910
:103B50005807F5D4DCE7032070BD00BF00200052F9
:103B60000000EE17F8A1002038B51E4B187D012883
:103B700036D001F1784C0120BCF5801F187500D3B8
:103B800038BD154600220C4601464CF250309A6171
:103B9000FFF7B0FF134B00BB13482A46C16841F042
:103BA0000201C160BFF36F8FBFF34F8F05F1200C8F
:103BB000611B1068505004326245FAD1BFF36F8F19
:103BC000BFF34F8F01214CF25030FFF793FF0649AE
:103BD000044BCA6822F00202CA6000221A7538BD7E
:103BE000022038BDF8A10020002000522DE9F84342
:103BF0003B4F3B7D012B70D00023012489460546B5
:103C00003C75BB614368D90740D40368012B3BD0A6
:103C10004FF0FF33C9F80030AA68D5F80CC016463B
:103C200002EB0C039A422FD2DFF8BC802D4C06E049
:103C3000D5E9022C01360CEB0203B34224D96B68A0
:103C400001214CF25030DB07F4D5D8F80C302A694A
:103C500023F4E663C8F80C30D8F80C3043EA0623A6
:103C6000134343F08403C8F80C30FFF743FFD8F840
:103C70000C302340C8F80C300028D9D0C9F80060B7
:103C800000233B75BDE8F8830020F9E721464CF29C
:103C90005030FFF72FFFF0B92968A142B8D16A6808
:103CA0002B69D207F0D5104C4CF25030E26822F06C
:103CB0003002E260E2681343E360E36843F08803A4
:103CC000E360FFF717FFE368003823F0080318BF2D
:103CD0000120E360D4E72046D2E70220BDE8F88364
:103CE000F8A10020FBF8FFFF002000522DE9F04F63
:103CF0000E46096885B0002900F0AD8000234FF022
:103D0000010B4FF0B04E00960BFA03FC1CEA010ABF
:103D100000F09C80009E5A007468032604F003059E
:103D200006FA02F705F1FF38B8F1010F40F296806C
:103D3000032D0BD0009ED0F80C80B66828EA070847
:103D400006FA02FC4CEA080CC0F80CC005FA02F2B4
:103D5000056814F4403F25EA070542EA05020260BF
:103D600074D0744D03F003070F26D5F8F420BF007C
:103D700042F0020206FA07FC6F4EC5F8F420D5F8AF
:103D8000F42023F00305B04205F1B04502F0020231
:103D900005F580650392039AAA6822EA0C022CD0EA
:103DA00006F58066B04200F0A080644EB04200F09C
:103DB000A280DFF88CC1604500F09180DFF884C1FB
:103DC000604500F0A480DFF880C1604500F0A58068
:103DD000DFF878C1604500F09480DFF874C1604579
:103DE00000F0A180DFF86CC160450CBF4FF0090CFA
:103DF0004FF00A0C0CFA07F73A43AA60E702DEF824
:103E0000002054BF22EA0A024AEA0202A602CEF8C1
:103E10000020DEF8042054BF22EA0A024AEA020225
:103E2000A503CEF80420DEF8842054BF22EA0A025B
:103E30004AEA0202E403CEF88420DEF8802054BF70
:103E400022EA0A024AEA0202CEF88020013331FA5D
:103E500003F27FF459AF05B0BDE8F08F009E022D4C
:103E6000D0F80890F66829EA070906FA02F8009ED9
:103E700048EA0908B668C0F80880C4F30018D0F80A
:103E8000049008FA03F829EA0C0C48EA0C0CC0F874
:103E900004C006FA02FCD0F80C8028EA07084CEAB5
:103EA000080CC0F80CC07FF451AF03F0070C009E63
:103EB0004FEAD3084FEA8C0C366900EB880806FA03
:103EC0000CF6D8F8209001960F2606FA0CFC019EFD
:103ED00029EA0C0946EA090CC8F820C036E74FF079
:103EE000030C0CFA07F73A4387E74FF0010C0CFA82
:103EF00007F73A4381E74FF0020C0CFA07F73A4311
:103F00007BE74FF0060C0CFA07F73A4375E74FF0E2
:103F1000040C0CFA07F73A436FE74FF0050C0CFA64
:103F200007F73A4369E74FF0070C0CFA07F73A43F3
:103F300063E700BF0044025800000258000802581E
:103F4000000C0258001002580014025800180258C1
:103F5000001C02580024025802B90904816170470C
:103F600038B5104CE36813F0040FE36805D103F093
:103F70000703181A18BF012038BD23F007030343B5
:103F8000E360FFF75BF9054605E0FFF757F9401BD3
:103F9000B0F57A7F04D863689B04F6D5002038BD5D
:103FA000012038BD00480258024AD36843F08073AC
:103FB000D360704700480258F0B58DB078B390F8E0
:103FC000BD340446056803F0FF02002B00F0818039
:103FD00028460323261D84F8BD34EB6B254613F4D5
:103FE000807308BFE36004F02DF855F8107BEC46B1
:103FF000AE46BEE80F00ACE80F00BEE80F00ACE82C
:104000000F009EE803008CE80300384696E80E0097
:1040100003F048FF014630B1022384F8BD34012586
:1040200028460DB0F0BD0B90206804F013F8D4F8CA
:1040300004C00B99BCF1000F2AD00A46012708469C
:1040400002EBC20302F1010E04EB830383F83C2070
:10405000A3F856205FFA8EF283F83D70624583F82C
:104060004000D864C3E91100EAD3002201EBC10388
:10407000481C04EB830383F87C12C1B283F87D22D1
:10408000614583F88022C3F88C22C3E9A122EDD3D5
:10409000EC460FCDACE80F000FCDACE80F0095E873
:1040A00003008CE8030096E80E00206804F05AF83C
:1040B00005460028B0D10122636A84F83800934293
:1040C00084F8BD240BD0206804F0F4FB28460DB022
:1040D000F0BD80F8BC24FEF7B7FB206879E72046E6
:1040E00000F0D6FDEFE700BF90F8BC34012B1BD0E9
:1040F0000122036810B580F8BC24DA6BD20502D423
:10410000826A012A0BD00446184603F093FF206808
:1041100004F0C0FB0023184684F8BC3410BD9A6B31
:1041200042F480329A63EEE7022070472DE9F04FA7
:10413000066889B00446304604F0F8FB10B109B0B7
:10414000BDE8F08F0546206804F0C4FB0028F6D0D7
:10415000D6F8083806F500622068C3F30D230392F1
:10416000C4F8FC3404F0B6FB8107236803D55A6910
:1041700002F002025A61184604F0ACFBC206236842
:1041800014D59A6922F010029A61376A07F4F01286
:1041900007F00F08B2F5802F00F0F482B2F5402F3F
:1041A00000F03E829A6942F010029A61184604F0CB
:1041B00091FB070300F15981206804F08BFB10F498
:1041C000802F206840F0F68004F084FB0028C0F2C5
:1041D000D080206804F07EFB030500F1BF802068DA
:1041E00004F078FB000114D52268536903F00063E2
:1041F000536194F8F434002B40F0FB8101212046F8
:1042000084F8F414536DC3F38303C4F8F83400F056
:1042100053FD206804F05EFB10F4805F206840F0DE
:104220009F8104F057FB10F4005F206840F081810B
:1042300004F050FB010700F17381206804F04AFB91
:1042400002061CD5B369626823F08003012AB361BA
:1042500015D92746012503E001352437AA420ED996
:1042600097F8A332012BF7D105EBC501206804EBC9
:10427000810101F51F7104F013FA6268ECE7206810
:1042800004F028FBC30235D56268012A14D906F56B
:1042900012632746B046012526461C4697F864302F
:1042A0002168012B01D1002976DB01352034243728
:1042B000AA42F3D8344646462068436903F4801383
:1042C000436104F007FB870216D4206804F002FB68
:1042D000400000F11C81206804F0FCFA41077FF5E2
:1042E0002EAF23685D686A0700F16B825A682A4323
:1042F0005A6024E72068E4E76768012F28D906F5AB
:1043000032622346012103E08F4203F124031FD0D0
:1043100093F8A4020131156820320128F4D1002D50
:10432000F2DAD4F8FC0405F4803500F0010085428F
:10433000EAD1012083F8A302B06940F08000B061A7
:1043400070690506E0D4039A536843F40073536020
:104350002068436903F400134361B7E7039B9B683C
:10436000DF0700F133822068436903F4006343618F
:1043700036E7039A536823F00103536094F8F4344A
:10438000012B00F046812046FEF7ECFA20684369D5
:1043900003F0004343611DE705F00F0187F8633028
:1043A000306801EBC10106EB81013C3104F078F982
:1043B00072687AE704F09AFA002800F0448106F562
:1043C00010628046AB4620683546A1460026174657
:1043D00004E001364FEA58082434203718F0010F62
:1043E00007D101364FEA58082434203718F0010F5E
:1043F000EFD0F1B204F08AFA03465FFA86FAD807E2
:1044000016D5012006F00F01039A00FA01F1526B54
:1044100022EA010203994A63D9F80C10B86081427C
:1044200000F0D881514648460493FEF75FFA049B9A
:10443000190701D50822BA60DA0601D51022BA6040
:10444000580601D54022BA60990700F158811A0632
:1044500000F10381D9F800005FEA5803984600F0A4
:10446000F880013624342037C0E7206804F036FA9B
:10447000074600283FF4A0AEAA4623460494B1465E
:10448000002506F5306403E001357F08203424332D
:10449000FE0705D401357F0820342433FE07F3D509
:1044A000049AE9B205935FFA85F8106804F026FAD9
:1044B00010F0010F0646059B40F02F81300700F1F8
:1044C0004D81F10601D51022A260B2070FD5D9F8AF
:1044D0001420100604D503994A6842F480624A60A9
:1044E00093F87F22012A00F0BB810222A260B1066C
:1044F00001D52022A260B20402D54FF40052A2607E
:104500007F0800F0A280013520342433C6E720461E
:10451000FEF734FA2068436903F080434361DBE629
:104520002046FEF7EDF92068436903F00803436174
:1045300084E604F0FFF9206803F0EAFE25682061B4
:1045400001F020F8227C0146284603F0F9FC2046C1
:10455000FEF7DAF92068436903F40053436167E624
:10456000039A1021536823F00103536003F0A8FD60
:104570006068D8B106F510634FF67F319960013558
:104580001A682033854222F4001243F8202CC3F825
:10459000E811D3F8E02122F40012C3F8E021D3F8A7
:1045A000E02142F00062C3F8E021E7D10399226BD9
:1045B000CB6943F00113CB61FAB9039942F22B03A3
:1045C0004A6913434B610B6943F00B030B61D6F847
:1045D000003804F2C442217B23F4FE632068C6F84D
:1045E000003804F0B7F92068436903F4805343614D
:1045F00017E62046FEF79EF90BE6039AD2F88430C0
:1046000043F00B03C2F88430536C43F00B03536444
:10461000DDE70021204684F8F41400F04DFBB5E6F8
:10462000082204F2C441304604F09CF8C7F30A1291
:1046300008EBC801236804EB8101D1F89002024421
:10464000C1F89022AEE52068BEE54E465546049C72
:10465000B2E52E464C465D46B6E5D4E91321D9F8BD
:10466000000091423FF6F8AEA2EB010E636C00F53C
:10467000106C07909E450CEB461C28BF9E46DCF84C
:1046800018300EF1030E9BB2B3EB9E0FC0F0E48026
:1046900006960646CDE90475654617461AE0636C32
:1046A000524630469F4228BF1F4699F80C3000936F
:1046B000BBB2A16C04F042F8216DA36CF81C394424
:1046C0003B44E76C2165A364AB699BB2B3EB900FED
:1046D000C0F0BC808F42A7EB0107E0D8DDE904758C
:1046E000069ED9F80000079B06F00F0201219140B9
:1046F000D3F8342822EA0102C3F83428ACE6314664
:104700002846049303F0DCFC94F83F20049B012A24
:1047100000F0BF800222BA6099E60499012208687D
:10472000A260C96800F53062D0F840E002EB4512A3
:104730000129D2F808C07AD074498E4500F09F80D4
:104740002DB9049AD2F88C22002A00F0CD8041467F
:1047500004980593FEF7BEF8059BAFE6049A05930F
:1047600011680822A26001F53062086C684902EB0A
:1047700045128842D2F808C041D80498FEF7A4F840
:10478000059B9EE647F6F07217423FF40BAD08EB2F
:10479000C803C7F30A12304604EB83031746D3F865
:1047A0008812049303F0DEFF049BD3F888223A4476
:1047B000C3F88822D3F890223A44C3F890222368A1
:1047C000F0E42046FEF7DEF823688FE52046FEF78A
:1047D000B1F8C8E5D4E911020244A264002E7FF4C6
:1047E00021AED9F84C20002A7FF41CAE09F2C44255
:1047F000D9F80000049304F0ADF8049B12E61CF411
:10480000004F37D04FF4004104989160FEF75CF8F8
:10481000059B049AD16801297FF453AE0593134692
:1048200002F2C442186804F095F8059B49E61CF0B2
:10483000080F37D036498E457FF640AE1CF4004F46
:104840003FF43CAE4FF40041916037E63A46D9F868
:104850000000049FDDE905568A423FF6FDAD42E7C0
:1048600000224146049883F87F220593FEF77EF8E4
:10487000059B3AE60498FEF727F8059BC9E71CF468
:10488000004FDFD11CF0200F3FF461AF2021916079
:104890005DE700225146484684F83F20FEF76AF85B
:1048A000049B37E71CF0200F02D02021916005E621
:1048B00017498E4502D91CF4004FC3D11169D3F8B2
:1048C0009C22C1F31201521AC3F89022002D7FF4EA
:1048D0003EAF0499D1F88C1279B10498D0F88812BF
:1048E0001144C0F8881232E705932946049B03F26D
:1048F000C44204F02FF8059B29E705930121049B8E
:1049000003F2C44204F026F8059B20E70A31544F15
:104910000A30544F90F8BC34012B1AD00346026879
:104920000121104600B583B083F8BC1401920093B6
:1049300003F0C0FF019A009BD16B11F4807F02D17C
:10494000996A012907D00022104683F8BC2403B0DD
:1049500000BD02207047916B21F4803191630022E9
:10496000104683F8BC2403B000BD00BF034690F896
:10497000BC04012812D04FF0010C186800B583B0B8
:1049800083F8381083F8BCC4019303F071FF002250
:10499000019B104683F8BC2403B000BD0220704781
:1049A00010B501F00F0E090682B00EEBCE0C4FEAE7
:1049B0008C0C26D40CF51F714FF000048444014484
:1049C0008CF87D428A604A7881F800E00B710AB168
:1049D000A1F81AE0022B01D100234B7190F8BC34EE
:1049E000012B17D003460122006883F8BC240193F1
:1049F00003F09AFC0022019B104683F8BC2402B00D
:104A000010BD0CF13C014FF00104844401448CF8CA
:104A10003D40D7E7022002B010BD00BF01F00F02F9
:104A2000090602EBC2034FEA83031DD403F51F718D
:104A30004FF0000C0344014483F87DC20A7090F8E3
:104A4000BC34012B1DD003460122006800B583B0A1
:104A500083F8BC24019303F0B1FC0022019B1046B3
:104A600083F8BC2403B000BD03F13C014FF0010CFE
:104A70000344014483F83DC00A7090F8BC34012B14
:104A8000E1D10220704700BF01F00F0101EBC10C22
:104A90004FEA8C0C10B500EB0C0E1C4600238EF870
:104AA0007C120CF51F718EF87D32CEF88C420144D9
:104AB000CEF89032C368CEF88822012B006808BF78
:104AC000CEF89822DAB203F0D7FC002010BD00BF68
:104AD00001F00F0101EBC10100EB8100D0F8900261
:104AE000704700BF01F00F0101EBC10C4FEA8C0CC5
:104AF00038B500EB0C0E012500248EF83C100CF1AB
:104B00003C018EF83D500144CEE91334C368CEF821
:104B10004820AB42006808BFCEF85820DAB203F054
:104B2000ABFC002038BD00BF436801F00F029A4281
:104B300034D80B0626D401EBC1014FF0000C8B00DA
:104B400003F51F710344014483F87DC24FF0010C4B
:104B50000A7081F802C090F8BC3463452DD003463A
:104B6000006800B583B083F8BCC4CDE9003203F01F
:104B70001FFEDDE900329AB10022104683F8BC2402
:104B800003B000BD02EBC2034FF0010C9B0003F128
:104B90003C010344014483F83DC0D7E7012070473E
:104BA00003F2C442197B186803F0D4FE0022009B74
:104BB000104683F8BC2403B000BD0220704700BF3C
:104BC000436801F00F029A4234D802EBC20309068F
:104BD00010B54FEA830382B01BD403F51F71002484
:104BE0000344014483F87D4200240A708C7090F8DD
:104BF000BC34012B1BD003460122006883F8BC247F
:104C0000019303F009FE2046019B83F8BC4402B0E7
:104C100010BD03F13C0101240344014483F83D40ED
:104C200000240A708C7090F8BC34012BE3D1022070
:104C300002B010BD0120704700B5D0F800E0DEF8EA
:104C4000243029B943EA02430020CEF8283000BDC1
:104C5000DEF82800013903EB104C0AD00023184677
:104C600001330EEB80008B42D0F804010CEB104CAA
:104C7000F5D140314CEA024200200EEB810ECEF815
:104C8000042000BD034600201B685962704700BF26
:104C900001464FF0010C0020064A0B6881F8F4042D
:104CA000C1F800C5996941F000619961596D0A43E5
:104CB0005A65704703000010704700BF344B996A73
:104CC000D3F828C01CF47C7FCCF3051000B5D3F8D2
:104CD0002CE05A6B36D0C2F3CC020EF0010E01F07C
:104CE000030107EE900A0EFB02F20129B8EEE77A03
:104CF00006EE902AFAEEE96A02D0022941D011B3F9
:104D0000DFED247A87EE876A1B6BC3F3080307EE97
:104D1000903AF7EE005AF8EEE77A77EEA67A77EE59
:104D2000A57A67EE867A1A4B1B6BC3F346230133D1
:104D300007EE103AF8EEC76A87EEA67AFCEEC77A5D
:104D400017EE900A00BD1A6892061DD51968F7EE95
:104D5000005A114A1B6BC1F3C101C3F30803CA40D7
:104D600007EE903A06EE102AF8EEE77AB8EEC66A39
:104D700077EEA66AC6EE077A36EEA57A67EE877AF0
:104D8000D1E7DFED067ABDE7DFED057ABAE700BFD0
:104D9000004402580024744A0090D003001BB74B13
:104DA0000024744C002800F0BD81036870B50446EF
:104DB000D8072ED593490A69896A02F03802102A69
:104DC00000F0F080182A00F0E8806368B3F5803FB7
:104DD00000F00881002B00F04681B3F5A02F894B2D
:104DE0001A6800F0538222F480321A601A6822F4A2
:104DF00080221A60FEF722FA824D064605E0FEF791
:104E00001DFA801B642800F22C812B689A03F6D5CA
:104E100023689E077ED4D80628D57A490A69896A0C
:104E200002F03802082A00F0CD80182A00F0C58070
:104E3000E369744D002B00F04E812B6843F0800332
:104E40002B60FEF7FBF9064605E0FEF7F7F9801B3D
:104E5000022800F206812B68DA05F6D5EB68226A93
:104E600023F07C5343EA0263EB6023681D0716D5E9
:104E70006369644D002B00F00C816B6F43F00103FC
:104E80006B67FEF7DBF9064605E0FEF7D7F9801BF6
:104E9000022800F2E6806B6F9807F6D523689A0621
:104EA00016D5A369574D002B00F004812B6843F4FD
:104EB00080532B60FEF7C2F9064605E0FEF7BEF907
:104EC000801B022800F2CD802B689B04F6D5236856
:104ED000590700F18D80636AD3B14A4D2A6902F007
:104EE0003802182A00F08581022B2B6823F080738A
:104EF0002B6000F01981FEF7A1F9044605E0FEF7EA
:104F00009DF9001B022800F2AC802B689B01F6D4AF
:104F1000002070BD3B4A1369926A13F0380322D116
:104F2000384BE2681B68580701D5002A43D0354D3D
:104F30002B6823F0190313432B60FEF77FF9064615
:104F400005E0FEF77BF9801B022800F28A802B68BF
:104F50005907F6D56B68226923F0FE4343EA0263E2
:104F60006B60236857E7182B00F0D880254DE26866
:104F70002B68002A00F0C18023F0190313432B6033
:104F8000FEF75CF9064604E0FEF758F9801B02289C
:104F900067D82B685A07F7D5DCE701F0030102292F
:104FA0007FF413AF174A126891037FF532AF62683E
:104FB000002A7FF42EAF012070BD01F0030101290A
:104FC0007FF436AF0F4A1268D10502D5E269802A14
:104FD000F1D10C49206ACA6822F07C5242EA006290
:104FE000CA6043E7074A136843F48033136001E75C
:104FF000054D2B6843F480732B60FEF71FF90646BE
:1050000009E000BF0044025800480258FEF716F9B4
:10501000801B642825D82B68DA05F7D5A368012BF7
:1050200000F05A81002B00F03981052BA84B1A6F34
:1050300000F0588122F001021A671A6F22F0040270
:105040001A67FEF7FBF8A24D064606E0FEF7F6F8F3
:1050500041F28833801B984203D82B6F9B07F5D50C
:1050600039E7032070BD9A4D2B6823F480332B6001
:105070002B6823F480232B60FEF7E0F8064604E05B
:10508000FEF7DCF8801B6428EBD82B689B03F7D471
:10509000BEE66B6F23F001036B67FEF7CFF80646A1
:1050A00004E0FEF7CBF8801B0228DAD86B6F990773
:1050B000F7D4F3E62B6823F480532B60FEF7BEF899
:1050C000064604E0FEF7BAF8801B0228C9D82B6810
:1050D0009804F7D4FBE62B6823F080032B60FEF7DF
:1050E000ADF8064604E0FEF7A9F8801B0228B8D800
:1050F0002B68DB05F7D42368B8E623F001032B60A7
:10510000FEF79CF8064604E0FEF798F8801B02289C
:10511000A7D82B685B07F7D423687CE695077FF454
:1051200025AFFDE601207047FEF788F8064604E04B
:10513000FEF784F8801B022893D82B689901F7D4D6
:10514000A96A644BA26A0B401343E26A43EA021362
:10515000AB62216BD4E90D320139013B013AC1F355
:1051600008015B0212049BB202F4FE021343E26BDD
:10517000013A0B43120602F0FE4213432B63EB6A23
:1051800023F00103EB626B6BA26C6FF3CF0343EA76
:10519000C2036B63EB6A226C23F00C031343EB62D4
:1051A000EB6A626C23F00203494C1343EB62EB6A37
:1051B00043F48033EB62EB6A43F40033EB62EB6A57
:1051C00043F48023EB62EB6A43F00103EB622B684C
:1051D00043F080732B60FEF731F8054605E0FEF7DB
:1051E0002DF8401B02283FF63CAF23689A01F6D504
:1051F0008EE6012BAA6A286B3FF4DDAE02F00303B2
:10520000A16A8B427FF4D7AEC2F30512E36A9A42D9
:105210007FF4D1AE236BC0F30802013B9A427FF4C6
:10522000CAAE636BC0F34622013B9A427FF4C3AE21
:10523000A36BC0F30642013B9A427FF4BCAEE36B22
:10524000C0F30660013B98427FF4B5AE6B6BA26C75
:10525000C3F3CC039A423FF45BAE1D4AD36A23F0FA
:105260000103D362FDF7EAFF0546FDF7E7FFA84219
:10527000FBD0174AA16C536B6FF3CF0343EAC10312
:105280005363D36A43F00103D36241E642F48022C0
:105290001A601A6842F480321A60ABE50C4D2B6F2D
:1052A00023F001032B672B6F23F004032B67FDF71B
:1052B000C5FF064607E0FDF7C1FF41F28833801BBA
:1052C00098423FF6CEAE2B6F9807F4D403E600BFAA
:1052D000004402580CFCFFFF064A136F43F0010321
:1052E0001367AEE642F004021A671A6F42F0010239
:1052F0001A67A6E6004402580C4A136903F0380303
:10530000102B0DD0182B09D063B913689B060BD551
:1053100013680748C3F3C103D8407047FFF7CEBCFA
:1053200004487047044870470148704700440258D9
:105330000090D00300366E0100093D0078B18B4A21
:10534000136803F00F038B420BD2136823F00F0393
:105350000B431360136803F00F038B4201D001204D
:10536000704703682DE9F0415F070BD5804C056954
:10537000A26902F07002954204D9A26922F070027B
:105380002A43A2611E070BD5794C4569E26902F0F8
:105390007002954204D9E26922F070022A43E26168
:1053A000DD060BD5724C8569E26902F4E062954234
:1053B00004D9E26922F4E0622A43E2619C060BD53B
:1053C0006B4CC569226A02F07002954204D9226AC8
:1053D00022F070022A43226288469907074603F0AA
:1053E000010257D5624CC068A16901F00F018842E3
:1053F00004D9A16921F00F010143A16182B35C4A84
:10540000B968936923F470630B43936179681368F7
:10541000022900F0A180032900F09A80012900F000
:10542000A1805D0733D5524C41F28835236923F0C2
:1054300007030B432361FDF701FF064605E0FDF777
:10544000FDFE801BA84200F28B8023697A6803F07E
:105450003803B3EBC20FF2D13B689C0706D5F8685E
:1054600043498A6902F00F0282426BD83F490A68B9
:1054700002F00F02424510D90A6822F00F0242EAF8
:1054800008020A600A6802F00F02424505D00120B6
:10549000BDE8F081002AB2D1E8E758070BD53449BE
:1054A00038698A6902F07002904204D28A6922F057
:1054B000700202438A6119070BD52D497869CA69C0
:1054C00002F07002904204D2CA6922F070020243D4
:1054D000CA61DA060BD52649B869CA6902F4E062E6
:1054E000904204D2CA6922F4E0620243CA619B0678
:1054F0000BD51F4AF969136A03F07003994204D26D
:10550000136A23F070030B431362FFF7F5FE184A8A
:105510000346184891699269C1F30321164D02F0C0
:105520000F02164C415C825C01F01F01144802F02E
:105530001F02CB4000682B60D3402360BDE8F041E0
:10554000FDF716BE8A6922F00F0202438A618DE7D9
:105550009B013FF568AF9AE79A033FF564AF96E782
:10556000032095E7DE053FF55EAF90E7002000528F
:105570000044025840A80008700000206C00002081
:10558000780000201B4A08B5136903F03803102B7C
:1055900029D0182B09D043BB13689B0627D5126866
:1055A000154BC2F3C102D34002E0FFF787FB03466D
:1055B0001048DFF854C082698069C2F30322DFF823
:1055C0004CE000F00F000D491CF802201CF8000010
:1055D00002F01F0200F01F00D34023FA00F00B601E
:1055E000CEF8000008BD064BE2E7064BE0E7024BB1
:1055F000DEE700BF004402580090D0037000002096
:1056000000366E0100093D0040A800086C00002033
:1056100008B5FFF7B7FF054B054ADB69C3F3021373
:10562000D35C03F01F03D84008BD00BF00440258FC
:1056300040A8000808B5FFF7A5FF054B054ADB6940
:10564000C3F30223D35C03F01F03D84008BD00BF9F
:105650000044025840A80008F8B5364C06460F46EC
:10566000236823F080632360FDF7E8FD054604E02E
:10567000FDF7E4FD401B022856D823681A01F7D431
:10568000A36A326823F47C3343EA0233A362D6E987
:105690000232013B013A5B0212049BB202F4FE02A9
:1056A00013437268013AC2F3080213433269013AA4
:1056B000120602F0FE421343A363E36A726923F009
:1056C000C0031343E362E36AB26923F02003134388
:1056D000E362E36A23F01003E362E36BF2696FF3C2
:1056E000CF0343EAC203E363E36A43F01003E362D8
:1056F000E36ADFB1012F0CBF43F4801343F40013BE
:10570000E3620C4C236843F080632360FDF796FD51
:10571000054604E0FDF792FD401B022804D82368EB
:105720001B01F7D50020F8BD0320F8BD43F400238A
:10573000E362E6E700440258F8B5364C06460F46E9
:10574000236823F080532360FDF778FD054604E0CD
:10575000FDF774FD401B022856D823689A00F7D441
:10576000A36A326823F07C7343EA0253A362D6E94A
:105770000232013B013A5B0212049BB202F4FE02C8
:1057800013437268013AC2F3080213433269013AC3
:10579000120602F0FE4213432364E36A726923F4A3
:1057A00040631343E362E36AB26923F40073134373
:1057B000E362E36A23F48073E362636CF2696FF37C
:1057C000CF0343EAC2036364E36A43F48073E36292
:1057D000E36ADFB1012F0CBF43F4000343F0807391
:1057E000E3620C4C236843F080532360FDF726FDF1
:1057F000054604E0FDF722FD401B022804D823687B
:105800009B00F7D50020F8BD0320F8BD43F48003CA
:10581000E362E6E7004402582DE9F843D0E900329C
:105820000446180140F13181616EB1F5001F00F0AE
:10583000758500F26586002900F0C785B1F5801FE7
:1058400040F062869949896A01F00301032900F05A
:105850005B86022104F10800FFF7FEFED4E9003266
:10586000002840F0C086616E904D0026286D20F41F
:10587000401001432965D90500F10C8135465F05CB
:1058800028D5D4F8A410B1F5800F00F0658500F29A
:105890002986002900F08E85B1F5001F40F02C8686
:1058A0008249896A01F00301032900F0258600215D
:1058B00004F10800FFF7D0FE0546D4E90032002DC0
:1058C00040F05C85794FD4F8A400B96D21F46001F3
:1058D0000143B965180528D5D4F8A810B1F1007FA7
:1058E00000F0F28400F21386002900F05385B1F134
:1058F000807F40F016866D49896A01F00301032913
:1059000000F00F86002104F10800FFF7A5FE054610
:10591000D4E90032002D40F0E984644FD4F8A800A7
:10592000B96D21F0E0610143B965990118D5E16CC9
:10593000202900F0778400F2048639B1102940F064
:1059400003865A48C16A41F40031C162002D40F01B
:10595000C283564FE06CF96C21F030010143F964C9
:10596000DF0426D5E16DB1F5005F00F0988400F208
:10597000DC85002900F01585B1F5805F40F0DD85FC
:105980004A49896A01F00301032900F0D685002104
:1059900004F10800FFF760FE0546D4E90032002D4F
:1059A00040F08F84414FE06D396D21F4E0410143B7
:1059B0003965980424D5216EB1F5003F00F0E683E7
:1059C00000F2668591B1B1F5803F40F06B853749B3
:1059D000896A01F00301032900F06485012104F1C3
:1059E0000800FFF739FE0546D4E90032002D40F0EB
:1059F000CB842E4F206E396D21F4E02101433965AF
:105A0000590426D5D4F8AC10B1F1005F00F0D18371
:105A100000F25A8591B1B1F1805F40F05F85234972
:105A2000896A01F00301032900F05885012104F17E
:105A30000800FFF711FE0546D4E90032002D40F0C2
:105A4000A6841A4FD4F8AC00B96D21F0E0410143AF
:105A5000B9651F040DD5E16EB1F1805F00F02282BF
:105A6000B1F1005F00F07A85002900F02082012664
:105A70003546D8012BD5A16C032900F29785DFE8C4
:105A800011F01C001700AB031C0003F00066D905E1
:105A90007FF5F4AEA16D042900F28585DFE811F0F1
:105AA000EE024C042904F302F30200BF0044025842
:105AB0003C48C16A41F40031C162002D40F00983C5
:105AC000384FA06CF96C21F003010143F9645902CD
:105AD00000F13982D9072FD5A16F28292AD8DFE80C
