:020000040800F2
:1000000000000220B90700080D0800080D080008CC
:100010000D0800080D0800080D0800080000000089
:100020000000000000000000000000000D080008B3
:100030000D080008000000000D080008093800083D
:100040000D0800080D0800080D0800080D0800083C
:100050000D0800080D0800080D0800080D0800082C
:100060000D0800080D0800080D0800080D0800081C
:100070000D0800080D0800080D0800080D0800080C
:100080000D0800080D0800080D0800080D080008FC
:100090000D0800080D0800080D0800080D080008EC
:1000A0000D0800080D0800080D0800080D080008DC
:1000B0000D0800080D0800080D0800080D080008CC
:1000C0000D0800080D0800080D0800080D080008BC
:1000D0000D0800080D0800080D0800080D080008AC
:1000E0000D0800080D080008000000000D080008B9
:1000F0000D0800080D0800080D0800080D0800088C
:100100000D0800080D0800080D0800080D0800087B
:100110000D0800080D0800080D0800080D0800086B
:100120000D0800080D0800080D0800080D0800085B
:100130000D0800080D0800080D0800080D0800084B
:1001400000000000000000000000000000000000AF
:100150000D0800080D0800080D0800080D0800082B
:100160000D0800080D0800080D0800080D0800081B
:100170000D0800080D3800080D08000800000000F8
:100180000D0800080D0800080D0800080D080008FB
:100190000D0800080D0800080D0800080D080008EB
:1001A0000D0800080D0800080D08000800000000F8
:1001B0000D0800080D0800080D0800080D080008CB
:1001C0000D0800080D0800080000000000000000F5
:1001D00000000000000000000D0800080000000002
:1001E000000000000000000000000000000000000F
:1001F00000000000000000000D0800080D080008C5
:100200000D0800080D080008000000000D08000897
:100210000D0800080D0800080D0800080D0800086A
:100220000D080008000000000D0800080000000094
:100230000D0800080D080008000000000D08000867
:100240000D0800080D0800080D0800080D0800083A
:100250000D0800080D0800080D0800080D0800082A
:100260000D0800080D0800080D0800080D0800081A
:100270000D0800080D0800080D0800080000000027
:100280000D0800080D0800080D0800080D080008FA
:10029000000000000D0800080D0800080000000024
:1002A000000000000D0800080D0800080D080008F7
:1002B0000D0800080D0800080D0800080D080008CA
:0C02C0000D0800080D0800080D080008DB
:1002D000034613F8012B002AFBD1181A0138704786
:1002E00001F0FF01102A2BDB10F0070F08D010F8E7
:1002F000013B013A8B422DD010F0070F42B3F6D1EB
:10030000F0B441EA012141EA014122F007047FF003
:1003100000070023F0E80256083C85EA010586EA5A
:10032000010685FA47F5A3FA87F586FA47F6A5FA96
:1003300087F68EB9EED1F0BC01F0FF0102F00702A2
:1003400032B110F8013B013A83EA010313B1F8D14D
:100350000020704701387047002D06BF354603382E
:10036000073815F0010F07D1013015F4807F02BF67
:10037000013015F4C03F0130F0BC0138704700BFB8
:1003800081F0004102E000BF83F0004330B54FEA46
:1003900041044FEA430594EA050F08BF90EA020FB3
:1003A0001FBF54EA000C55EA020C7FEA645C7FEA46
:1003B000655C00F0E2804FEA5454D4EB5555B8BF69
:1003C0006D420CDD2C4480EA020281EA030382EADA
:1003D000000083EA010180EA020281EA0303362D6C
:1003E00088BF30BD11F0004F4FEA01314FF4801C3F
:1003F0004CEA113102D0404261EB410113F0004F51
:100400004FEA03334CEA133302D0524263EB430307
:1004100094EA050F00F0A780A4F10104D5F1200EA5
:100420000DDB02FA0EFC22FA05F2801841F1000100
:1004300003FA0EF2801843FA05F359410EE0A5F1D4
:1004400020050EF1200E012A03FA0EFC28BF4CF005
:10045000020C43FA05F3C01851EBE37101F00045BB
:1004600007D54FF0000EDCF1000C7EEB00006EEBC8
:100470000101B1F5801F1BD3B1F5001F0CD3490852
:100480005FEA30004FEA3C0C04F101044FEA4452A9
:1004900012F5800F80F09A80BCF1004F08BF5FEA30
:1004A000500C50F1000041EB045141EA050130BD10
:1004B0005FEA4C0C404141EB0101013C28BFB1F522
:1004C000801FE9D291F0000F04BF01460020B1FA6D
:1004D00081F308BF2033A3F10B03B3F120020CDA40
:1004E0000C3208DD02F1140CC2F10C0201FA0CF01E
:1004F00021FA02F10CE002F11402D8BFC2F1200C83
:1005000001FA02F120FA0CFCDCBF41EA0C01904038
:10051000E41AA2BF01EB0451294330BD6FEA040481
:100520001F3C1CDA0C340EDC04F11404C4F120026C
:1005300020FA04F001FA02F340EA030021FA04F37E
:1005400045EA030130BDC4F10C04C4F1200220FAD5
:1005500002F001FA04F340EA0300294630BD21FA13
:1005600004F0294630BD94F0000F83F4801306BFD9
:1005700081F480110134013D4EE77FEA645C18BFCD
:100580007FEA655C29D094EA050F08BF90EA020F64
:1005900005D054EA000C04BF1946104630BD91EA5C
:1005A000030F1EBF0021002030BD5FEA545C05D15F
:1005B0004000494128BF41F0004130BD14F580049E
:1005C0003CBF01F5801130BD01F0004545F0FE4112
:1005D00041F470014FF0000030BD7FEA645C1ABF47
:1005E000194610467FEA655C1CBF0B46024650EA7E
:1005F000013406BF52EA033591EA030F41F40021AA
:1006000030BD00BF90F0000F04BF0021704730B52F
:100610004FF4806404F132044FF000054FF0000104
:1006200050E700BF90F0000F04BF0021704730B5C5
:100630004FF4806404F1320410F0004548BF40429A
:100640004FF000013EE700BF42004FEAE2014FEAEF
:1006500031014FEA02701FBF12F07F4393F07F4FCA
:1006600081F06051704732F07F4208BF704793F0CD
:100670007F4F04BF41F40021704730B54FF46074E0
:1006800001F0004521F000411CE700BF50EA0102E3
:1006900008BF704730B54FF000050AE050EA01028C
:1006A00008BF704730B511F0004502D5404261EBFC
:1006B00041014FF4806404F132045FEA915C3FF43D
:1006C000D8AE4FF003025FEADC0C18BF03325FEADA
:1006D000DC0C18BF033202EBDC02C2F1200300FA8B
:1006E00003FC20FA02F001FA03FE40EA0E0021FAB0
:1006F00002F11444BDE600BF53B94AB9002908BF4E
:1007000000281CBF4FF0FF314FF0FF3000F00CB855
:10071000ADF1080C6DE904CE0EF048FEDDF804E002
:10072000DDE9022304B07047704700BF0348044B63
:10073000834202D0034B03B1184770475401002095
:1007400054010020000000000548064B1B1AD90F79
:1007500001EBA301491002D0034B03B118477047C6
:1007600054010020540100200000000010B5064C88
:10077000237843B9FFF7DAFF044B13B10448AFF312
:1007800000800123237010BD6001002000000000E4
:10079000CCF6000808B5054B1BB105490548AFF379
:1007A0000080BDE80840FFF7CFBF00BF0000000099
:1007B00064010020CCF60008DFF838D000F028F8FB
:1007C000002103E00C4B5B58435004310B480C4BA9
:1007D00042189A42F6D30B4A02E0002342F8043B47
:1007E000094B9A42F9D305F097FE0EF04FF901F04C
:1007F000D1FF7047000002209C4003080000002049
:100800005401002060010020F4C40020FEE7000035
:10081000044AD36843F00203D36053689B04FCD5B9
:10082000704700BF0048025800B5DFF86CC00B46A7
:10083000DFF868E083B0174A9EF8001012689CED5C
:10084000000ADFF85CC0DCED000ADFF858C09CED60
:10085000001ADFF854C0DCED001ADFF850C09CED40
:10086000002ADFF84CC0DCED002ADFF848C09CED20
:10087000003ADFF844C0DCED003ADFF840C09CED00
:10088000004A4FF0000CCDF800C003F037FA03B077
:1008900000BD00BF180200200C0200201C02002036
:1008A000080200200402002000020020FC010020B9
:1008B000F8010020F4010020F0010020EC010020EC
:1008C00010B582B0044605F0E5FE144B1449154AF4
:1008D0000094DFF868C00978126893ED000A124BA3
:1008E000DCED000A93ED001ADFF854C00F4BDCED8D
:1008F000001A93ED002ADFF84CC00D4BDCED002A06
:1009000093ED003ADFF840C00A4BDCED003A93ED7E
:10091000004A094B03F0F2F902B010BD0C020020AE
:100920001C0200201802002004020020FC0100200C
:10093000F4010020EC010020CCFC0008080200209B
:1009400000020020F8010020F001002030B507234C
:10095000294C2A4D83B020602B7003F0C1F803F0BE
:10096000D7F805F097FE264B2978226893ED000A08
:10097000244BD3ED000A244B93ED001A234BD3ED07
:10098000001A234B93ED002A224BD3ED002A224B71
:1009900093ED003A214BD3ED003A214B93ED004A01
:1009A000142300931F4B03F0A9F92878216803F062
:1009B000EFF903F001FB1C4803F00CFE1B4802F0AA
:1009C00025FC01E005F06CFE03F08AF803F0A0F8C6
:1009D00003F018FD01F0F0FF03461420002BF1D0C6
:1009E000134B012213481A7003F0F4FD124803B0B0
:1009F000BDE8304002F00ABC180200201C020020B2
:100A00000C02002008020020040200200002002046
:100A1000FC010020F8010020F4010020F00100207A
:100A2000EC010020DCFC000834F700083CF700086B
:100A3000E401002064F7000868F7000800B58BB0F7
:100A400000234FF0000C03AA04A807A98DED010AAA
:100A500006930993CDF80CC0CDE90433CDE90733F3
:100A600005F092FBDDED067A03980C49F1EE677A0A
:100A70000B4B086093ED007A0A4A77EEC77A0A4B6F
:100A80009DED010AC2ED007A92ED007AD3ED007A75
:100A9000E7EE007AC3ED007A0BB000BDF80100204C
:100AA000100200200C020020080200202DE9F04F67
:100AB000364D91B005F0EEFD2B7823B934490B6823
:100AC000C31AF92B5DD84021684605F043F8F8B108
:100AD0006E46304F304C0DEB000806E0501C5F288E
:100AE00019D83860A354464512D016F8013B3A682D
:100AF0000D2B06D0A3F10A01B1FA81F149090029B1
:100B0000ECD00023A3545AB9002346453B60ECD1F6
:100B100011B0BDE8F08F2148396002F077FBE2E7C1
:100B20001F4802F027FB204602F024FB1D4802F07C
:100B300021FB1949DFF87890522301F10C0B0A7858
:100B4000A3F16100A3F1200E0131A2F1200CA2F16A
:100B5000610AC0B25FFA8EFE5FFA8CFC192898BF5A
:100B60007346BAF1190F98BF62469A42CCD18B45B1
:100B700019F8013FE3D101230B482B7002F0FAFA78
:100B8000C2E70860094802F00DFB9CE7E70100207E
:100B9000E00100207C01002080010020ACF700086B
:100BA00090F700082CFA0008D0F7000884F7000836
:100BB0009CF70008F8B5064605F06CFD0546A0F167
:100BC0000A0705E005F066FDC31B0446092B05D89E
:100BD00005F060FD401BB042F4D3F8BD0B4B1B7811
:100BE0005BB1274602F07CFF0028F1D108490520BF
:100BF000084B072208601A70F8BDFFF757FF274619
:100C000002F06EFF0028E3D1F0E700BFE50100200D
:100C1000180200201C0200202DE9F04FE5B04FF033
:100C2000000B05F037FD7D4B7D4A40218046A0F149
:100C3000C807A0F10A0614A80DF0E8FE774B794A20
:100C4000402124A80DF0E2FE744B774A60214CA8A5
:100C50000DF0DCFE4CA802F0D9FA05F01BFD43F6BE
:100C60009723A0EB080204469A4200F2C280831B3D
:100C7000092B00F2A380E31BC72B00F2AC804021BC
:100C800004A804F067FF0028E7D00DF110090396CF
:100C90005A46464609EB000A0AE00DEB0203002122
:100CA00083F8D010E2B909F101090022D14513D02F
:100CB00099F800300A2B18BF0D2B0CBF012400241B
:100CC000EBD0511C5F2972D809F101096A44D14562
:100CD00082F8D0300A46EBD1B0469346039EBCE77B
:100CE00052480DF1D00802F045FA34A802F042FA59
:100CF0004F4802F03FFA0DF1DC0BDFF858C14146D6
:100D00005223CDE901780A78A3F1610EA3F12007FF
:100D10000131A2F12000A2F161085FFA8EFEFFB25C
:100D2000C0B2BEF1190F98BF3B46B8F1190F98BF7A
:100D300002469A423FD159451CF8013FE3D13D4B51
:100D400001223D481A70DDE9017802F013FA9DF89E
:100D50009030FBB10DF1900B98F80020A3F1610CDD
:100D6000A3F1200008F10108A2F12001A2F1610E17
:100D70005FFA8CFCC0B2C9B2BCF1190F98BF034630
:100D8000BEF1190F98BF0A469A428CD11BF8013F59
:100D9000002BE1D1214B6021284A4CA80DF036FEF2
:100DA0004CA802F033FA204665B0BDE8F08F244825
:100DB00002F02CFA77E7DDE90178C8E7214B1B78D0
:100DC0000BB9FFF773FE02F08BFE18B3E31B264648
:100DD000C72B7FF654AF14A8274602F0E3F90F4B58
:100DE000194A60214CA80DF011FE4CA802F0C2F97E
:100DF00045E70A4B6021154A4CA80DF007FE4CA8A8
:100E000002F004FA124B08221A600024204665B052
:100E1000BDE8F08F0E4B05221A60F6E7E4F70008F4
:100E2000F4F7000804F8000814F8000890F7000828
:100E30002CFA0008E7010020D0F7000860F800084D
:100E400078F80008E501002048F800082CF80008B0
:100E5000180200209CF700082DE9F04FE3B005F0E0
:100E600019FC7E4B1C787E4B1B78002C40F0E380F5
:100E7000A0F1C8097B4B7C4A4021A0F10A0712A8C7
:100E80000DF0C4FD774B794A402122A8A2460DF00F
:100E9000BDFD4E46734B6021754A4AA80DF0B6FD64
:100EA0004AA802F0B3F905F0F5FBC31B0446092B71
:100EB00036D8A31BC72B41D8402102A804F04AFE14
:100EC0000028F0D00DF10809524609EB000B0BE0A9
:100ED0000DEB0203002183F8C810002A3CD109F170
:100EE00001090022D94514D099F800300A2B18BF07
:100EF0000D2B0CBF01240024EAD0511C5F2900F205
:100F0000938009F101096A44D94582F8C8300A463C
:100F1000EAD1924605F0BEFBC31B0446092BC8D993
:100F2000544B1B780BB9FFF7C1FD02F0D9FD002827
:100F300000F08F80A31B2746C72BBDD912A82646D9
:100F400002F030F9474B4C4A60214AA80DF05EFD93
:100F50004AA802F00FF9AFE748480DF1C80802F0BF
:100F600009F932A802F006F9454802F003F90DF13B
:100F7000D40ADFF824C141465223CDE900760A782D
:100F8000A3F16107A3F120060131A2F12000A2F133
:100F9000610EFFB2F6B2C0B2192F98BF3346BEF150
:100FA000190F98BF02469A4242D151451CF8013FA1
:100FB000E5D101232A4A33481370DDE9007602F0B7
:100FC000D9F8274B1B789DF8883003B30DF1880AB8
:100FD00098F80020A3F1610CA3F1200008F10108AA
:100FE000A2F12001A2F1610E5FFA8CFCC0B2C9B27D
:100FF000BCF1190F98BF0346BEF1190F98BF0A46FE
:101000009A427FF46CAF1AF8013F002BE0D1154BE8
:1010100060211D4A4AA80DF0F9FC4AA802F0F6F832
:10102000204663B0BDE8F08F184802F0EFF856E7AD
:10103000DDE90076C5E70B4B6021154A4AA80DF0A3
:10104000E5FC4AA802F0E2F80024204663B0BDE8BF
:10105000F08F104B05221A60F6E700BFE601002072
:10106000E7010020E4F70008B4F80008C4F800081D
:10107000D4F80008E5010020ECF8000890F700081B
:101080002CFA0008D0F700080CF9000878F80008DE
:1010900094F80008180200209CF700082DE9F04F92
:1010A000ADF5177D029005F0F5FAB14B1D78B14B07
:1010B0001B78002D40F09A81029CA0F1C803814664
:1010C000AD4A4021049316A823460DF09FFC234609
:1010D000AA4A402126A8A9F10A070DF097FC234649
:1010E000A74A402136A8AA460DF090FC2346A54AFF
:1010F000402146A80DF08AFC2346A34A402156A869
:101100000DF084FC2346A14A60217EA80DF07EFCF0
:101110007EA802F07BF8CDF8149005F0BBFAC31B53
:101120000446092B37D8BAF1000F42D0059BE31AC9
:10113000B3F57A7F80F05581402106A804F00AFDBE
:101140000028EAD006AC039726180AE00DEB050349
:10115000002283F89821002D3DD100250134B442AE
:1011600012D023780A2B18BF0D2B0CBF01270027A4
:10117000ECD06A1C5F2A00F2E88001346D44B4426E
:1011800085F898311546ECD1039F05F083FA0446A3
:10119000C31B092BC7D97E4B1B780BB9FFF786FC05
:1011A00002F09EFC002800F024812746BAF1000FCF
:1011B000BCD1049BE31AC72BBED916A801F0F2FFDD
:1011C000029B744A60217EA80DF020FC7EA801F0ED
:1011D000D1FF0494B0E7704866AD01F0CBFF66A87C
:1011E00001F0C8FF6D4801F0C5FFDFF8C4910DF5AF
:1011F000D27B2946522301970A78A3F1610CA3F10F
:1012000020070131A2F12000A2F1610E5FFA8CFCEF
:10121000FFB2C0B2BCF1190F98BF3B46BEF1190F27
:1012200098BF02469A4240F0C580594519F8013FDF
:10123000E2D101234F4A5A481370019F01F09AFFEF
:101240004C4B1B789DF8D830002B00F0BB800DF183
:10125000D80B0DF5CC7E04E01BF8013F002B00F00D
:10126000B1809EF80020A3F1610CA3F120000EF1E3
:10127000010EA2F12001A2F161095FFA8CFCC0B25B
:10128000C9B2BCF1190F98BF0346B9F1190F98BF45
:101290000A469A42E0D09DF81831002B59D00DF53E
:1012A000CC7C0DF58C7903E019F8013F002B50D070
:1012B0009CF80020A3F16107A3F120000CF1010CC0
:1012C000A2F12001A2F1610EFFB2C0B2C9B2192F82
:1012D00098BF0346BEF1190F98BF0A469A42E3D061
:1012E000BAF1000F3FF439AF9DF85831E3B10DF575
:1012F000AC7E2A78A3F16107A3F120000135A2F1A9
:101300002001A2F1610CFFB2C0B2C9B2192F98BF7F
:101310000346BCF1190F98BF0A469A427FF41DAFED
:101320001EF8013F002BE4D105F0B4F9A0F1C80389
:101330001C4A602104937EA8029B00250DF066FBE9
:101340007EA8AA4601F062FF08E7174801F05EFF99
:1013500003E7029B154A60217EA80DF057FB7EA88B
:1013600001F054FF01200DF5177DBDE8F08F00BF9F
:10137000E6010020E7010020B4F8000824F9000885
:10138000C4F8000804F8000834F9000844F900081B
:10139000E501002058F9000890F700082CFA000831
:1013A000D0F7000894F9000878F8000880F90008E0
:1013B0009CF70008114B019F1B789DF8D830002B3B
:1013C0007FF445AF029B60210D4A7EA80DF01EFB05
:1013D0007EA801F01BFF9DF81831002BB9D0BA464A
:1013E0005DE726A801F0DEFE0594A5E6029B054A0E
:1013F000B1E7054B05221A60B5E700BFE701002001
:1014000070F9000894F800081802002060EEA07A35
:101410000023F0EEE06A0022B0EEC07A3449E0EE3C
:10142000007AF4EEC76A2DE9F04FF1EE10FA2DEDD7
:10143000108B9FB0F1EEE7AAD1ED00CA0E93129384
:101440000892B0EE608A0992F0EE408A0A92F0EEBD
:1014500041EA1193F0EE61DA1593B0EE42CACDE99C
:101460000F33CDE9133340F3C581F1EE04FAB5EE45
:1014700000FA9FED20DA05F00DF9F4EECDAAF1EEB9
:1014800010FA00F1AE81DFED1C7AF4EEE7DAF1EE4E
:1014900010FA40F2A681B4EEE7CAF1EE10FA40F27B
:1014A000A081A0F1FA03154D154FC8EEAA9A9FED41
:1014B00015EA0646DFF854908346DFF8548004931B
:1014C000114B88EE2AAAC5ED007A0390C7ED007A89
:1014D000C3ED007AB0EE679AC9ED007A3EEECEEA2F
:1014E000C8ED007AF0EE67BAB0EE67BAAFE000BFC1
:1014F000E80100206F12833A00000000040200207F
:10150000000200206F12833BF4010020F001002054
:10151000EC0100207B14AE3E37EE057A85ED007AB3
:1015200095ED007AB4EEE77AF1EE10FA01DDC5ED43
:10153000007AB6EE005AD5ED007A5FED0A4ABA4B52
:1015400067EE857A9AED007A37EE6C7A87EEA45AC8
:10155000D3ED007A6FEE677AEFEEC77A9FEDB37A3C
:10156000B4EEC75AF1EE10FA37FE057AB1EE475ADB
:10157000F4EEC57AF1EE10FA05D4F4EEC77AF1EE86
:1015800010FA37FE275A9FEDBC7ADFEDBD7A27EEC1
:10159000657A87ED005AA9EE277ADFEDA57AB4EED9
:1015A000E77AF1EE10FA07D4DFEDA27AB4EEE77A2B
:1015B000F1EE10FA77FE877AC9ED007A69EEA70A94
:1015C0006AEE677A95ED007A0EA99B48E7EE297AD4
:1015D00095ED007A97ED001AE7EE0A0A26EE600A0A
:1015E00060EEA60AA7EEA60AE7EE860A02F014F954
:1015F000002800F0F680914B1B780BB9FFF756FAE4
:101600000EA802F03DFA002800F009816AEE288A4F
:10161000DFED8B7A8B4BE9EEAA8A93ED007AF4EE3C
:10162000E87AF1EE10FA77FEA87AA7EE887AA7EEAC
:1016300088BA83ED007A049BD5ED007AE31AE7EED1
:1016400088BAF92B00F2E580A34602F0DBFEB4EE87
:10165000CEBAF1EE10FA40F11581F4EECEBAF1EE09
:1016600010FA40F10F8143F6972A05F013F8039B17
:10167000821BC31A534500F2D280092AF5D9A0EB88
:101680000B030A36044608EE103A831BB8EE488A6C
:10169000092B88BF064628EE0D8AB4EECD8AF1EEFE
:1016A00010FA00F1AC80DFED687AB4EEE78AF1EE73
:1016B00010FA37FE888AB0EE480AFFF7BFF912A980
:1016C000204602F02BFA002800F0A9800AAB08AAF5
:1016D00012A95948009309AB02F016F9002800F04E
:1016E0009E80DFF884A19FED627ADAED007A77EED2
:1016F000EC7AF4EEC77AF1EE10FA00F18380DFEDB8
:10170000538AF4EEE87AF1EE10FA78FEA78AB0EE8A
:10171000680A0DF05DF88DED050AB0EE680A0CF070
:1017200057FFB0EE406AB1EE407ADDED056ADDEDBF
:10173000098A3EEEEB5ADDED087A68EE86AA444B44
:1017400068EEA68AE7EEA6AAE7EE878A9FED3C7AC6
:101750007EEECB7AB4EEE77A69EEA85AF1EE10FA93
:10176000B4EEC57AEAEE6A5A77FE277AF1EE10FAFD
:1017700037FE057AB4EEE77AA8EE259AF1EE10FA74
:1017800077FE877A3CEE0C7A83ED009AC8ED005A1A
:1017900067EE877AF5EE407AF1EE10FA00F1BA8141
:1017A000B1EEE77AF4EEC7DA2CEE085AF1EE10FA51
:1017B00077FE2D7A95ED007AB4EEE77A95ED007A12
:1017C000F1EE10FA3FF5A8AE37EE457A85ED007AD6
:1017D00095ED007AB4EEE77AF1EE10FA7FF5A9AE56
:1017E000A5E61C4B06221A6000201FB0BDEC108B32
:1017F000BDE8F08FF1EE0EFA9FED17FA39E6B0EE84
:101800004D8A58E79FED157A9FED156ADFED156A51
:101810008DE712A92046FFF707F8049414E70D4B53
:1018200005221A60E0E700BF0C0200203333333F8B
:101830009A9999BE9A99993EFCFC0008E50100200E
:1018400000000000FC010020CDCC4C3D8FC2F53DD6
:10185000F401002018020020AE47613EAC2BF53D9C
:10186000AC2BF5BDB5287E3F080200206F12833AED
:101870008FC2F5BD3333B3BE9A99193EEC5138BED1
:101880006666E6BF00245FED078A1FED07DA16944F
:101890001A9419941D941FED09BA1FED09CA5FED42
:1018A00008BA5FED0AAACDE91744CDE91B4404F05C
:1018B000F1FE00230646A14A2B600120A6F1FA0B97
:1018C000B246354682ED009AC9F80030FEF7F8FFBF
:1018D000039404F0DFFE831B0446B3F5FA7F80F027
:1018E0000E81A0EB0A03092BF3D9431B0AF10A0A64
:1018F00007EE903AA0EB0A03F8EE677A092B88BF4F
:10190000824667EEA87AF4EEE87AF1EE10FA00F17A
:10191000D0809FED8B8AF4EEC87AF1EE10FA38FE93
:10192000278AB0EE480AFFF789F81AA9204602F084
:10193000F5F800283FF473AF0DAB0BAA1AA9814844
:1019400000930CAB01F0E0FF00283FF468AF7E4D40
:10195000D5ED007A77EEEC7AF4EECD7AF1EE10FA6E
:1019600000F1B0809FED79EAF4EECE7AF1EE10FA54
:101970003EFE27EAB0EE4E0A0CF02AFFF0EE40DA07
:10198000B0EE4E0A0CF024FEB0EE407AF1EE405A72
:10199000DDED0C7A9DED0B6A67EE876A674B67EEAB
:1019A000AD7AE6EE2D6AE6EE257A67EEA97AEAEEE2
:1019B000667AC8ED007AD8ED007AA8EE279A83ED12
:1019C000009A634BD5ED006AD3ED007A76EEEC6AAF
:1019D00067EECF7AEFEEE67AF4EECB7AF1EE10FA1C
:1019E0006DD4DFED5C6AF4EEE67AF1EE10FA76FE85
:1019F000A77AC7ED007AD8ED007A6CEE677AE9EE47
:101A00002B7AF4EEEA7AF1EE10FA55D4DFED526A51
:101A1000F4EEE67AF1EE10FA76FEA77AC9ED007AD6
:101A200016A9D9ED007AD9ED000A6AEE677A97ED2A
:101A3000001A69EEA00A434827EE600A60EEAD0A7C
:101A4000A7EEAD0AE7EE870A01F0E6FE00283FF4B4
:101A5000C8AE424D2B780BB9FFF728F816A802F054
:101A60000FF800283FF4DBAEA4EB0B03F92B30D8C2
:101A700002F0C8FCF0EEC97A9FED397AF4EEC77A2D
:101A8000F1EE10FA11D8D8ED007A9FED367AF0EE2B
:101A9000E77AF4EEC77AF1EE10FA06D8039BF3B1B9
:101AA000E31A3B2B1ED8254613E700232546039354
:101AB0000FE7B0EE688A34E7F0EE6A7AAEE7F0EE50
:101AC0004B7A96E7DFED285A9FED287ADFED28DA8A
:101AD0005EE71AA92046A346FEF7A6FEC8E72546FC
:101AE0000394F6E600230220C9F80030FEF7E8FE72
:101AF0002B780BB9FEF7DAFF01F0F2FF75E6002351
:101B00000320C9F80030FEF7DBFE144B1B78002BD6
:101B1000F2D1EFE7B0EE670A8DED076ACDED066A08
:101B2000CDED055A0CF02AFD9DED076AB0EE407A26
:101B3000DDED066ADDED055A34E600BFF401002054
:101B4000CDCC4C3DFCFC0008080200208FC2F53DC6
:101B50000C0200203333B33EEC51383EE501002047
:101B60006F12033C8FC2F53CAC2BF53DAC2BF5BDA1
:101B7000B5287E3F2DE9F04F7D4D00247D4BD5EDFE
:101B8000007AA046DFF834B22DED0C8B89B070EEF0
:101B900027AA93ED00DA00940394DFED778ADFED56
:101BA000779ADFED77BA9FED779A9FED77AA9FED51
:101BB00077BACDE9014404F06DFDDFED757A754B20
:101BC0008146B0EE67CAA0F1FA0AC3ED007A064674
:101BD000714BCBED007AC3ED007A704BC5ED00AAD6
:101BE000C3ED007A6E4BCDE90444CDE906440446CA
:101BF000C3ED007A41F26F7704F04CFDA0EB0903CE
:101C00000546821BBB4200F2A480092AF4D9031BBB
:101C10000A3600EE103A831BB8EE400A092B88BF43
:101C2000064620EE280AB4EEE80AF1EE10FA75D462
:101C3000B4EEE90AF1EE10FA39FE808AB0EE480AF5
:101C4000FEF7FCFE04A9284601F068FF002877D0C3
:101C5000544C7AEECDCAD4ED007A6BEEE77AECEE16
:101C6000897AF4EECA7AF1EE10FA5AD4F4EEC97A0F
:101C7000F1EE10FA79FE277A28EE0B0A3CEE407A54
:101C8000B4EEE77AF1EE10FA4EDC3CEE000AF4EE28
:101C9000C07AF1EE10FA30FE27CADFED3D0AB0EE51
:101CA0004C1A69464048B0EE600A8BED00CA01F05C
:101CB000B3FD002851D03D4F3B780BB9FEF7F6FE3F
:101CC000684601F0DDFED8B3A5EB0A03294AF92BDB
:101CD00092ED00DA2BD8F0EEECCA02F093FBDFEDC8
:101CE000347AF4EEE7CAF1EE10FA13D8D4ED007AA4
:101CF0009FED307AF0EEE77AF4EEC77AF1EE10FA63
:101D000008D8B8F1000F18D0A5EB08034F2B28D83E
:101D10002C466FE74FF000082C466BE7B0EE688A60
:101D20008CE7F0EE4A7AA7E7B0EE47CAB5E704A918
:101D30002846AA46FEF778FDCDE7A8462C4659E787
:101D40001D4B05221A60002009B0BDEC0C8BBDE8CC
:101D5000F08F194B07221A60F5E7174B06221A601D
:101D6000F1E73B780BB9FEF7A1FE01F0B9FEEBE716
:101D7000E8010020080200206F12833ACDCC4C3DD0
:101D8000CDCC4C3ECDCC0C40CDCC0CC033337340CD
:101D90000000000004020020F4010020F0010020F7
:101DA000EC0100200C020020FCFC0008E5010020F2
:101DB0000AD7A33C0AD7233D1802002000020020C6
:101DC000014B1878704700BFE70100202DE9F04F64
:101DD0002DED0C8B93B0DFF8B892DFF8B8B200F0BD
:101DE00053FEDFF8B4A209AE934C02F04BFA9FED1C
:101DF000939ADFED939A9FED93AA934D99F8003053
:101E0000002B62D00023914889F8003002F0E2FBF9
:101E100000278F4B1F708F4BCAF8007083ED009A1C
:101E20008D4B277083ED009A8C4B1F608C4B83ED9C
:101E3000009A8C4B83ED009A8B4B83ED009A8B4B71
:101E400083ED009A01F046FF04F024FC884BFA3839
:101E50001860884801F0DAF98BF8007004F01AFC79
:101E6000074606E023780BB9FEF720FE142004F0A5
:101E700017FC04F00FFCC01BB0F5C87FF2D304F0D0
:101E800009FC41F26F77804612E023780BB9FEF728
:101E90000DFE01F015FA01F023FE0346C8210820CB
:101EA0001BB101F047FA00283FD1322004F0F8FBC3
:101EB00004F0F0FBA0EB0800B842E6D90320FEF7DF
:101EC00045FD99F80030002B9CD104F0E3FB0F2373
:101ED000A0F57A7868488BF8003002F07BFB674801
:101EE00001F094F906E000F067FD03460A20ABB963
:101EF00004F0D6FB04F0CEFB074602F083FAA7EB12
:101F00000803B3F57A7FEED35D48B84601F07EF959
:101F100000F052FD03460A20002BE9D04B4802F0A6
:101F200059FB584801F072F972E701278BF80070ED
:101F300004F01CF9544B18701A7802F0FF03002AC1
:101F400047D19FED3E8A4FF496770C93F0EE488A86
:101F500010938DED099ACDE90A33CDE90E330223B2
:101F60008BF8003032460EA90AA804F00DF9DDED19
:101F70000C7A099A2378A7EEA78A78EEE78A2A6076
:101F80000BB9FEF793FD032004F08AFB013FE9D172
:101F900088EEA97A3D4BC8EE297A83ED007AD3ED1D
:101FA000006A93ED007AE6EEC77AF5EEC07AF1EEBC
:101FB00010FA04D4F4EECA7AF1EE10FA0DDC032321
:101FC0008BF8003001F098FD58B90420FEF7BEFCF4
:101FD00014E73846FEF7BAFC10E70220FEF7B6FC1D
:101FE0000CE7C821082001F0A5F90028EDD001F088
:101FF00089FD0028E9D0C821082001F09BF90028BC
:10200000E3D001F06DFD0028DFD0C821082001F0E9
:1020100091F90028D9D0FA20FEF7CCFD9BF80030CA
:10202000072B00F04E8104F035FB00230746CDE975
:102030000E33CDE910333BE0E50100200000000045
:10204000000096430BD7233BF801002064F70008FB
:10205000E601002004020020000200207C01002094
:10206000FC010020F4010020F0010020EC01002020
:10207000E001002030FA0008B8F90008C0F90008B3
:10208000F8F9000814FA00081402002010020020D9
:10209000E40100201C0200201802002004F0FAFADB
:1020A000C31B0A20B3F57A7F00F2108104F0F8FA1E
:1020B00004F0F0FA0EA901F031FD0028EED08B4BB0
:1020C000B0EE002AF7EE000ADFED941A83ED009AD5
:1020D000874B9FED881A83ED009A874B9FED940AFA
:1020E00083ED009A04238BF80030FFF78FF9A8B333
:1020F000B0EE490AFFF73EFD002800F0E9805020CD
:10210000FEF758FD9BF80030072B00F0DA8008231B
:10211000BFEE000A9FED792ADFED791A9FED791A5B
:10212000DFED830A8BF80030FFF770F9B0B19FED57
:10213000800AFFF71FFD002800F0CA805020FEF73C
:1021400039FD9BF80030072B00F0BB8009239FED81
:10215000770A8BF80030FFF70DFD38B9DAF8003058
:10216000002B00F0B380DAF80000A8E65020FEF75C
:1021700021FD9BF80030072B00F0A380012362486B
:10218000237001F043F816230A208BF80030FEF785
:1021900097FB5E48FEF782FF002800F0A0805C4BB2
:1021A0001B78002B0CBF0B200C20FEF789FB0A23A9
:1021B000B0EE002ADFED591AB7EE000A9FED4F1A74
:1021C000DFED5B0A8BF80030FFF720F90028C5D05F
:1021D0005020FEF7EFFC9BF80030072B71D00B234B
:1021E0009FED520A8BF80030FFF7C4FC0028B5D0F1
:1021F0005020FEF7DFFC9BF80030072B61D00C234A
:10220000B0EE002ABFEE000ADFED441A9FED3B1A44
:10221000DFED470A8BF80030FFF7F8F800289DD073
:102220005020FEF7C7FC9BF80030072B49D00E2347
:102230009FED3E0A8BF80030FFF79CFC00288DD004
:102240005020FEF7B7FC9BF80030072B39D04FF039
:10225000030817230A208BF80030FEF731FB2D48C6
:10226000FEF71CFF00283AD0294B1B78002B0CBF2F
:102270000B200C20FEF724FBB8F101084FF05000B2
:1022800058D0FEF797FC9BF80020B0EE002A1023F0
:10229000072AFFEE000ADFED211A9FED1F1A9FEDBE
:1022A000240A0ED08BF80030FFF7B0F80346502018
:1022B000002B3FF453AFFEF77DFC9BF80030072B5B
:1022C000C7D1DAF80000FEF741FB97E50520F6E5F7
:1022D000DAF80030002B7FF446AF0720EFE5DAF89C
:1022E0000030002B7FF43FAF0820E8E50802002013
:1022F000E8010020CDCC4C3FFC010020CDCCCC3FF0
:10230000CDCC0C403333834050FA000874FA0008F7
:10231000E601002080FA00083333B33E66662640AB
:102320005FD1673F6666663FCDCCCCBD1830CA3FF3
:10233000000000001123B0EE002A5FED081A1FED27
:10234000081A5FED070A1FED090A8BF80030FFF746
:102350005DF800283FF402AF5020FEF72BFC9BF8FD
:102360000030072BADD012231FED100A8BF8003080
:10237000FFF700FC00283FF4F1AE5020FEF71AFCF6
:102380009BF80030072B9CD018230A201FED188AD9
:102390008BF80030FEF794FAFEF75EFD0746C0F1B9
:1023A0000C00F0EE488AFEF78BFA894BDFED897A54
:1023B000D3ED00AA1323884A8BF800307AEEA7AA3F
:1023C000D2ED00CA8DED078A8DED088A8DED098A60
:1023D0009FED82BADFED82BACDE90A88CDE90C889B
:1023E000CDE90E88CDE9108804F054F97D49784B89
:1023F00081ED008A7C49C3ED00AAA0F1FA0381EDCA
:10240000008A7A49CDF80880804681ED008A7849B3
:102410000393034681ED008A7649CDE9047081ED8E
:10242000008A1F4604F036F9059B42F6DF62A0EBF6
:102430000801C31A934200F2C7800929F2D93B462A
:1024400008F10A080746C31A08EE103AA0EB080381
:10245000B8EE488A092B88BF804628EE0B8AB4EE76
:10246000CB8AF1EE10FA00F1AC80B4EEEB8AF1EE1B
:1024700010FA3BFE888AB0EE480AFEF7DFFA0EA992
:10248000384601F04BFB002800F0978008AB07AA04
:102490000EA95948009601F037FA002800F08D8007
:1024A000564BB5EE007A3AEEECCADFED556A93ED85
:1024B000006AFFEE007A27EE467AACEE267AB4EE9A
:1024C000E77AF1EE10FA07D4F7EE007AB4EEE77A85
:1024D000F1EE10FA77FE877A9FED497A28EE077AB7
:1024E00038EEC7DAB4EEE7DAF1EE10FA07DC77EE91
:1024F000288AF4EEE87AF1EE10FA38FEA7DAFEEE5A
:10250000000A384BB0EE4D1A9FED440A0AA93A482A
:102510006DEE200AF0EEE07AC3ED007A324B83EDE7
:1025200000DA01F079F9002843D023780BB9FEF7DF
:10253000BDFA0AA801F0A4FA00283ED0DDED097A20
:10254000F6EE006A244BF0EEE77AD3ED00CA2D4B8D
:1025500067EEA67A93ED007AA8EE277A83ED007AEB
:10256000039BFB1AF92B00F2FB80B0EECCCA01F002
:1025700049FFDFED257AB4EEE7CAF1EE10FA00F27A
:10258000EC801E4B9FED217AD3ED007AF0EEE77AD6
:10259000F4EEC77AF1EE10FA00F2DF80029B002B16
:1025A00000F0D980FB1A4F2B3AD8F0EE4D8A3B460B
:1025B00037E70623CAF80030D0E50523CAF8003013
:1025C000CCE5B0EE4B8A56E70723CAF80030C5E5E4
:1025D000E801002012A49740080200206F12833AFD
:1025E000CDCC4C3D0402002000020020F40100206C
:1025F000F0010020EC010020FCFC00080C0200208F
:102600006666E63FFC0100200AD7A33C0AD7233DBB
:10261000666626409A99993E0000BE42000000007E
:102620002378049F0BB9FEF741FA01F059FA00280C
:102630003FF494AD5020FEF7BDFA9BF80030072B15
:102640003FF43FAE1423B0EE002AB7EE000A5FED70
:10265000101A1FED101A5FED0F0A8BF80030FEF70D
:10266000D5FE00283FF47AAD5020FEF7A3FA9BF880
:102670000030072B3FF425AE6FB118230D208BF8E7
:102680000030FEF71DF9FEF7C7FA00283FF427AE29
:102690000E20FEF715F915271FED210A00208BF8F3
:1026A000007000F007FD1FED240A012000F002FD7C
:1026B0004FF42F7003F0F4FF1FED280A002000F004
:1026C000F9FC1FED2A0A012000F0F4FC4FF42F70F2
:1026D00003F0E6FF002000F02FFD012000F02CFDAC
:1026E00005234FF47A708BF80030FEF763FA01F09F
:1026F0000FFA06238BF8003003F0CCFF1B4B9BF83E
:1027000000100097DAF8002093ED000A184BDFED77
:10271000191AD3ED000A184BB0EE611A93ED002A96
:10272000164BD5ED002A93ED003A154BD3ED003A48
:10273000144B93ED004A144B01F0E0FA9BF80000B3
:10274000DAF8001001F024FB01F036FC0F4800F02D
:102750005DFDFFF753BB029727E70023029324E7B1
:102760000EA93846FEF760F80397FEE60C0200203B
:102770000802002000000000FC010020F4010020FD
:10278000F0010020EC010020ECFC000890FA0008A9
:1027900072B6FEE708B5FFF719FB002008BD00BFC1
:1027A00010B58AB024220021044668460CF060F976
:1027B000164804F017FD0623042040F2FF7C042293
:1027C000694602901148CDF80CC0CDE900430023C2
:1027D000CDE9042303F0FEFFA0B90C4804F032FC5D
:1027E00068B90221094803F06DFF20B9074803F0DA
:1027F000EDFF0AB010BD4FF0FF300AB010BDFFF77B
:10280000C7FFEEE7FFF7C4FFE7E700BF940500202E
:1028100000B59FB04C2200210AA80CF029F9202213
:10282000002102A80CF024F9022005F077FE264AC8
:1028300000230193936923F440439361936903F464
:1028400040430193019B93699B04FCD50121022322
:1028500000220AA8109117910621159318910C21B6
:1028600019931C929FED167BCDE9133328238DED30
:102870000A7BCDE91A12169306F072FDB0B94FF03B
:102880003F0C00220321402304924FF4806202A8EF
:102890000993CDE902C14FF0080CCDE90732CDE92B
:1028A00005C307F029F820B91FB000BDFFF770FF7E
:1028B000E5E7FFF76DFF1FB000BD00BFAFF300807D
:1028C00021000000000001000048025810B500235C
:1028D000134C14484FF4E1310C2284E80B002046DD
:1028E000C4E90333C4E90523C4E90733C4E9093360
:1028F0000AF022F820B9014609480AF093F818B105
:10290000BDE81040FFF744BF014605480AF0BCF897
:102910000028F5D102480AF065F80028F0D110BD72
:10292000B80200200010014000B58DB000212C221B
:1029300001A80CF09DF801A90A4805F059FB58B907
:10294000069B13B901200DB000BD074A136801337F
:10295000136000200DB000BD044A136801331360FA
:10296000F7E700BFF4040020AC020020B002002012
:102970000D4808B5FFF714FFB0F5803F10D207EE01
:10298000900A9FED0A6ADFED0A6AB2EE067AF8EE67
:10299000E77A67EE867A87EEA60A20EE070A08BD78
:1029A0009FED040A08BD00BF1000C0103333534030
:1029B00000FF7F470000000010B582B003F06AFE00
:1029C00004462B48FFF7ECFEB0F5803F28D2B0F567
:1029D000486F18D36FF42F5341F2BE22C3189342AD
:1029E00011D9244BC31893420DD9234BC3189342DA
:1029F00009D96FF42F4242F6BE3382189A428CBF37
:102A0000002201220DE04FF400411C4805F07CFD3E
:102A10001B4B1A78DAB1012A20D0002002B010BD79
:102A200000224FF400411548019205F06DFD144B52
:102A3000019A1978002808BF42F0010229B1012942
:102A40000AD0002AE9D11A70E7E7002AE5D00D493B
:102A500001220C601A70E0E7002AF4D0094A1268DB
:102A6000A21A632AD9D9022201201A70D6E700BF20
:102A70000000B84F3FA2FFFF7F76FFFF0000025823
:102A8000A4020020A0020020C24A536913F40033BC
:102A900070B59CB011D1BFF34F8FBFF36F8FC2F8E9
:102AA0005032BFF34F8FBFF36F8F536943F400333E
:102AB0005361BFF34F8FBFF36F8FB648436913F471
:102AC000803326D1C0F88430BFF34F8FD0F88040D8
:102AD00043F6E075C4F34E3CC4F3C9044FEA4C1C02
:102AE0000CEA0501234641EA8372013B5E1CC0F8F3
:102AF0006022F8D1ACF1200C1CF1200FF0D1BFF313
:102B00004F8F436943F480334361BFF34F8FBFF36B
:102B10006F8F002403F082FDFFF77AFE9E4B17941F
:102B20000122092101254FF40046CDE91344CDE9E6
:102B30001544D3F8E0001043C3F8E000D3F8E000F8
:102B4000104009900998D3F8E00040F00400C3F861
:102B5000E000D3F8E030914803F004030A930A9BA5
:102B600005F0D8FC0323092213A98C481693159469
:102B7000CDE9132505F092FB2A464FF40041874822
:102B800005F0C8FC13A98548CDE91365CDE91544C6
:102B900005F084FB824813A9CDE91364CDE91554EF
:102BA00005F07CFB7F49804A4FF0804308468C60EB
:102BB0000A604FF48002CB614A6007224B634FF0FA
:102BC0008073CA604FF000724B614FF080630A61FE
:102BD0008B618C65C1E90844C1E90A44C1E90E442E
:102BE000C1E91044C1E91244C1E9144408F0C4FB2E
:102BF000002840F01B820024674B4FF400416B48D3
:102C00001794CDE91344CDE91544D3F8E02042F000
:102C10000202C3F8E020D3F8E02002F0020206929C
:102C2000069AD3F8E02042F00802C3F8E020D3F877
:102C3000E02002F008020792079AD3F8E02042F061
:102C40001002C3F8E0202246D3F8E03003F010036E
:102C50000893089B05F05EFC22464FF440615448FF
:102C600005F058FC22464FF48061524805F052FCB2
:102C700001224FF4004313A94C4813931694CDE955
:102C8000142405F00BFB4FF4406313A94848139339
:102C900005F004FB4FF4806313A94648139305F035
:102CA000FDFA45494FF48003444A4B6007230A600C
:102CB0004FF40032CB604FF080638A604FF00072B7
:102CC0008B614FF080430A614FF0005208464C611F
:102CD0000C624C628C62CC628C63CA61CC634B63C5
:102CE0008C65C1E91044C1E91244C1E9144408F0FB
:102CF00043FB002840F097810024242213A821469A
:102D00001094CDE90E440BF0B3FE2D4A2D4B104626
:102D1000946013604FF4101314615360042382F81D
:102D2000204053614FF4807394621383012382F82F
:102D30004440D361C2E90B44C2E90F4404F012FBE2
:102D4000002840F06D8100230EA91D480E9304F069
:102D5000F9FC002840F061811B4904230622184831
:102D6000139140F2FF71CDE914230022CDE916132F
:102D700013A9189203F02EFD002840F04B8140F279
:102D8000FF7200210E4804F07FFC002840F03F81D4
:102D90001CE000BF00ED00E00044025800080258AB
:102DA00000000258E40300200038004000100258E0
:102DB00000040258000C02586C040020003001404E
:102DC00094050020002002401000C010AC4804F020
:102DD00039F9002840F01881FFF778FD0023CDE98C
:102DE0000E33CDE9103312930B931993CDE91333BE
:102DF000CDE91533CDE91733CDE90C3306F0F8FEF4
:102E0000054606F09DFE0446854218BF6C0006F09C
:102E1000DDFE064606F094FE9A4B8642054618BF34
:102E200075009C4240F2ED809D4240F2EA80964B54
:102E3000964A9748A2FB0412D3F8F01041F0010122
:102E4000920CC3F8F010013AD3F8F01001F0010130
:102E500002910299D3F8E81041F00101C3F8E8109B
:102E6000D3F8E81001F0010103910399D3F8E010C1
:102E700041F00101C3F8E010D3F8E01001F00101C6
:102E800004910499D3F8E01041F01001C3F8E01068
:102E9000D3F8E030426003F010030593059B002354
:102EA00083608361C0E904337A4B036044F61F6397
:102EB000C36009F039F8002840F0A080734BA3FBF1
:102EC0000523754A9B0C1046013B53600023936019
:102ED000136193614FF08043136044F61F63D36026
:102EE00009F022F8002840F0868000230BA96848EA
:102EF0000B930D9309F030F9002879D10BA966489E
:102F000009F02AF9002873D10022602313A962482E
:102F10001792CDE91332CDE91522CDE9182209F037
:102F20007BF838B9082213A95B4809F075F8002826
:102F300000F08680FFF72CFC0024052202230125E7
:102F40000EA956480E92CDE90F34CDE9114505F092
:102F5000A5F94FF408530EA9514812950E9305F0A8
:102F60009DF921464C4808F05DFF28B908214A48E0
:102F700008F058FF002874D0FFF70AFC02F04CFD5F
:102F8000012448490022484814230C704749036231
:102F90000A704749048201603B218274C1610821A3
:102FA000C0E905431023C0E90F230423C0E902222E
:102FB000C0E90944C0E90B44C0E90D22C0E911325F
:102FC000C0E91332C0E91532C0E91721C0E919235D
:102FD00004F0CCFC38B90146234602223248009462
:102FE00004F0BAFE28B31CB0BDE87040FFF7D0BBB8
:102FF000FFF7CEFB88E7FFF7CBFB76E7FFF7C8FBD1
:103000005CE7FFF7C5FB12E7FFF7C2FBE4E6FFF75B
:10301000BFFBDBE6FFF7BCFBB1E6FFF7B9FB9BE6C6
:10302000FFF7B6FB8FE6FFF7B3FB65E6FFF7B0FBF4
:10303000E1E51D4804F0AAFE0028D4D11CB070BD03
:10304000024613A9124808F0E7FF00287FF472AF88
:10305000082213A90E4808F0DFFF00287FF46AAFAA
:103060006AE701460A4808F0DDFE002884D10821FD
:10307000074808F0D7FE00287FF47EAF7EE700BF48
:10308000940500203F420F000044025883DE1B439A
:1030900098030020000001404C030020000002586B
:1030A00000100258A5020020F4040020A60200200F
:1030B00000A00040B5EEC00AF1EE10FA30D49FED4A
:1030C0001A7AF6EE007ADFED196A44F62062B4EE61
:1030D000C70AF1EE10FA37FE000A80EE076AE6EE44
:1030E000267AFCEEE77A17EE903A03F5FA739342EC
:1030F00028BF1346032806D8DFE800F00E0A0602B0
:103100000B4A1268D3637047094A126853637047C9
:10311000084A1268D3637047064A126853637047BF
:103120004FF4FA73E6E700BF000034430000FA44AE
:10313000980300204C030020032807D8DFE800F0A4
:10314000110C0702094B00221B68DA637047074B1A
:1031500000221B685A637047054B00221B68DA6324
:103160007047034B00221B685A6370479803002086
:103170004C03002098B100B583B00190FDF7A8F88A
:103180004FF6FF724FF47A730199824228BF0246CC
:10319000034892B203B05DF804EB09F001BB70473D
:1031A000B8020020174A1278012A2AD148B32DE923
:1031B000F8438046FDF78CF8814600B3B8FA88F7EB
:1031C0007F09A9EB070603F065FA08EB070105463E
:1031D000802E0D4828BF80263246B4B20BF07CFC0E
:1031E00004E003F057FA401B142808D8214606488B
:1031F00002F094FC0028F4D13744B945E1D8BDE889
:10320000F8837047A50200202002002010B5044674
:1032100068B1FDF75DF84FF6FF724FF47A732146FF
:10322000824228BF0246044892B209F0B9FA204609
:10323000BDE81040FFF7B6BFB80200200000000054
:1032400000B5002389B0049330B103F180430268D4
:1032500003F588339A4201D009B000BD164B022015
:103260004FF0070C02A9D3F8F02042F01002C3F887
:10327000F020D3F8F02002F010020092009AD3F868
:10328000E02042F00102C3F8E020D3F8E0300590DE
:1032900003F001030948CDF818C00193019B9FED8D
:1032A000047B8DED027B04F0F9FF09B000BD00BF87
:1032B000000600000200000000440258000002580E
:1032C0002DE9F041DFF86880D8F80030D3F8CC5011
:1032D0002DB90022134B01201A70BDE8F081294658
:1032E000404604F0B3FD044688B903F0D3F90E4F0D
:1032F0000646D8F800300134D3F8CC302B42E8D061
:1033000003F0C8F9801B012801D8BC42F1D1074A5B
:1033100000201368013313600122024B1A70BDE8CC
:10332000F08100BFA6020020400D0300A80200208B
:10333000F4040020F0B5064683B007460C4603F0BF
:10334000A9F9731E072B0DD805460E4E01E0337800
:1033500063B103F09FF9401BA042F8D30A4A1368F7
:10336000013313600023184603B0F0BDFFF7DCFA09
:103370000028EED00190054804F06EFEB842019B93
:10338000E7D3F0E7A6020020B0020020F4040020FA
:103390002DE9F0418CB010B1284B1B7843B1284A7D
:1033A000136801331360002420460CB0BDE8F0819F
:1033B00005460193FFF7B8FA0028F0D03221042027
:1033C000FFF7B8FF04460028E9D0019B2F1D57F8EE
:1033D0003320002AE3D035F833200133B2F5006FF3
:1033E000DDD2042BF3D100264FF00008202200216B
:1033F00004A80BF03DFB4FF4002235F8363003A94A
:103400000692104857F83620039304F0DDFC48B9C3
:103410000C4804F017FD731C48EA0008042B1E46F4
:10342000E4D1C1E7064A136801331360B8F1000F15
:10343000B9D04146034804F009FDB4E7A6020020D4
:10344000B0020020F404002010B58AB004462822FF
:10345000002168460BF00CFB24B140210F4804F01A
:10346000EDFD10B900200AB010BDA31C6A46402132
:103470000A4804F0FDFC58B9019B069A1343F1D1A8
:10348000039BB3F5002FEDD1009B01202380EAE7D9
:10349000034A136801331360E4E700BFF40400201B
:1034A000B00200200000000010B5BAB000210446B0
:1034B000B8220CA80B91CDE90711CDE909110BF049
:1034C000D7FA34B12368584A934257D0574A9342A7
:1034D00001D03AB010BD9FED507B022310220CA802
:1034E0000E9311938DED0C7B9FED4D7BCDE90F235A
:1034F0004FF480538DED127B239306F06BFC002874
:1035000039D14B4B022100200624D3F8E82042F4A5
:103510008042C3F8E820D3F8E82002F48042049205
:10352000049AD3F8E0200A43C3F8E020D3F8E0205F
:103530000A400592059AD3F8E02042F00402C3F84D
:10354000E0200322D3F8E030089107A903F0040338
:10355000079406930523069C0B93CDE90902354891
:1035600004F09CFE4FF4005307A93348079304F07E
:1035700095FE3AB010BDFFF70BF9C2E79FED267B31
:10358000022310220CA80E9311938DED0C7B9FED5E
:10359000247BCDE90F234FF480538DED127B2393D1
:1035A00006F018FC002834D1214B02210820002409
:1035B000D3F8F02042F48052C3F8F020D3F8F02082
:1035C00002F480520192019AD3F8E0200A43C3F832
:1035D000E020D3F8E0200A400292029AD3F8E020DB
:1035E0000243C3F8E0200522D3F8E03007900340FF
:1035F0000891114807A90393039B0B92CDE9094455
:1036000004F04CFE802307A90C48079304F046FE03
:103610005FE7FFF7BDF8C7E70010000000000000FB
:1036200002000000C00000000030014000380040EF
:10363000004402580008025800040258000C0258C6
:1036400010B5B8B000210446B8220AA80891CDE907
:103650000411CDE906110BF00BFA1CB12E4B2268B8
:103660009A4201D038B010BD9FED277B0223102273
:103670000AA80C930F938DED0A7B9FED257BCDE976
:103680000D238DED107B06F0A5FB002839D1234BCF
:10369000202003210024D3F8D82042F02002C3F8D0
:1036A000D820D3F8D82002F020020192019AD3F852
:1036B000E02042F00102C3F8E020D3F8E02002F05D
:1036C00001020292029AD3F8E02042F00402C3F809
:1036D000E020D3F8E030069403F00403CDE90401C0
:1036E000039304A90E48039B04F0D8FD1022032382
:1036F00004A90C480694CDE9042304F0CFFD38B0AA
:1037000010BDFFF745F8C2E7000008000000000008
:1037100002000000C00000000020024000440258E7
:10372000000002580008025810B5B6B00021044647
:10373000B82208A80691CDE90211CDE904110BF0D9
:1037400097F91CB1244B22689A4201D036B010BDC3
:103750009FED1B7B4FF0805308A88DED087B2393D2
:1037600006F038FB40BB1D4B092402A91C48D3F8C6
:10377000EC2042F48072C3F8EC20D3F8EC2002F481
:1037800080720092009AD3F8E02042F00802C3F859
:10379000E020D3F8E030069403F008039FED0A7BA5
:1037A0000193019B8DED027B9FED097B8DED047BE9
:1037B00004F074FD36B010BDFEF7EAFFD3E700BF9A
:1037C0000080000000000000030000000200000074
:1037D000000000000000000000A00040004402586B
:1037E000000C0258074B82B0D3F8F42042F00202DA
:1037F000C3F8F420D3F8F43003F002030193019BE3
:1038000002B070470044025802F038BF014804F08B
:103810006BBF00BF78BE0020002918BF00280346F8
:103820000CBF0120002068D093ED006AB5EEC06A9D
:10383000F1EE10FA62D9D3ED037AF5EEC07AF1EE2B
:1038400010FA5BD970EE606A93ED027AD3ED017ADB
:1038500030EE200A0A4601F1100C77EE877A08460E
:10386000B0EE665A9FED277AF0EE405AE7EE816A95
:10387000A7EEC15AE7EE815AA7EEC10AC5EE067A55
:10388000C1ED007A93ED006AC5EE867AC1ED017A4A
:1038900093ED006AC0EE067AC1ED027A93ED006AFC
:1038A000C6EE867AC1ED037AF0EC017AF5EEC07AC5
:1038B000F1EE10FA01D5F1EE677AF4EEC77AF1EE87
:1038C00010FA37FE877A6045EED1D3ED037AF4EE35
:1038D000C77AF1EE10FA12D4F7EE006A1033F3EC67
:1038E000017A92ED007A67EEA67A67EE877AE2ECCB
:1038F000017A6245F3D10120704700207047C7EE7E
:10390000876AEBE700000000002918BF002810B507
:103910000CBF4FF0010E4FF0000E66D0002B18BF09
:10392000002A029C0CBF4FF0010C4FF0000C002C41
:1039300008BF4CF0010CBCF1000F54D1D0ED006A6F
:10394000F5EEC06AF1EE10FA4DD991ED017AB5EEBF
:10395000006AD1ED007AF1EE005A91ED024A4FF083
:10396000010E77EE877A91ED035AD0ED024A90ED81
:10397000017A77EE847A37EE247A77EE857A27EE2D
:10398000257A67EEA67A67EE867AC2ED007AD1EDE7
:10399000017AD1ED004A91ED025A77EEE47AD1ED49
:1039A000035AD0ED006A77EE857A77EEE57A67EE16
:1039B000A67A67EE867AC3ED007AD1ED017A91EDB1
:1039C000005AD1ED025A77EEC57A91ED036AD0ED37
:1039D000006A77EEE57A77EE867A67EEA67AC7EE2A
:1039E000876AC4ED006A704610BD4FF0000E704645
:1039F00010BD00BF2DE9F04190B02022114E80464D
:103A000008AC6D460F460DEB020000210BF030F8BC
:103A100033882846656002363B440834083524F86C
:103A2000083CC047082808D110AB9C42F0D108A838
:103A3000FFF7AEFC10B0BDE8F081002010B0BDE88B
:103A4000F08100BF3CFD000870B506460A24002145
:103A50003046FFF7CFFF0546022075B102F020FE89
:103A6000013CF4D103244FF400713046FFF7C2FF4C
:103A7000022002F015FE013CF5D1284670BD00BFC2
:103A80002DE9F041202290B0054600210DEB020007
:103A90000AF0EEFFEDB1114C08AF6E4604F10808D4
:103AA000238830467E60023403F5007395ED000AEA
:103AB0000837043527F8083C083602F021FD0828AD
:103AC00007D14445ECD108A8FFF762FC10B0BDE86F
:103AD000F081002010B0BDE8F08100BF3CFD00087F
:103AE00008B5FFF7EDFB00B908BD0248BDE8084086
:103AF000FFF7C6BF1CFD00080148FFF7A5BF00BFC8
:103B0000CD6300080148FFF79FBF00BFE9630008CD
:103B10000148FFF799BF00BF056400082DE9F04197
:103B2000002306460F46DFF8C8802C4C2C4D2DEDA7
:103B3000028B9FED2C8A88B0CDE90033ADF80830B8
:103B40006846FFF781FC844600230DF102012648F8
:103B500003AABCF1000F22D00793CDE90333CDE9CE
:103B6000053302F05DFC214A01210028E8D19DF8CF
:103B70000C30013BD8B202EB8302032805EB830C27
:103B8000DED8DDED057A92ED007A67EE887A48F8A6
:103B90002360E15467EE877ACCED007AD0E72FB14D
:103BA0000F4C0FCC38607960BA60FB600B4B104A49
:103BB0001C1D187838B1116801330432711A642958
:103BC00006D8A342F5D108B0BDEC028BBDE8F08168
:103BD000002008B0BDEC028BBDE8F0810406002097
:103BE000300600203333634044FD00082CFD0008FC
:103BF000200600204AF220011C4B1D4A01FB00F068
:103C0000C15800EB030C914201D000207047DCF852
:103C10000430022BF9D1DCF80830B3F5007FF4D87A
:103C200003EB83031B0110B51A46C3B1DFF848E06C
:103C30004FF0FF3286440F480EEB03049EF800302D
:103C400008215A4042F30003013903EA000383EAE2
:103C50005202F7D10EF1010EA645EFD1D243DCF8A6
:103C60001800801AB0FA80F0400910BD00000E085C
:103C70004C4F47322083B8ED20000E082DE9F84F55
:103C80004FF0000982468B464AF22007C8464D464F
:103C90004C460F4E2046FFF7ADFF07FB046330B1E3
:103CA000DB690DB1434502D3A14698460546013470
:103CB000032CEFD145B14AF22002054BCAF800901F
:103CC00002FB0933CBF800302846BDE8F88F00BF6F
:103CD00000000E084FF420420021054808B50AF004
:103CE000C7FE00230349044A0B60137008BD00BFE0
:103CF00060060020440600204006002070B51F4DDD
:103D00001C462B68CCB3B3F5007F36D203EB830C93
:103D1000DFF874E00E4611464FEA0C120EEB0C1C55
:103D20004EF802002832CCF80C3001338CED040A36
:103D30009644CCED050A8CED061ACCED071A8CEDF5
:103D4000082ACCED092A2B60CCE90161A268E3685E
:103D500020686168AEE80F00094B8CED103A1A68D4
:103D6000084BCCF838201B68CCED113ACCF83C302D
:103D7000049B8CED124ACCF84C3070BD44060020F8
:103D8000B0020020AC02002060060020000000000D
:103D90002DE9F04F97B000257B4E80460DF13F0492
:103DA0000F462022294624F01F0407952046CDE91E
:103DB0000355CDE905550AF05BFE009535781DB138
:103DC000284617B0BDE8F08FFA2363616F4B1B687C
:103DD000A36003EB83036AA1D1E900011B01C4E9DD
:103DE00003871A46C4E90001A3B1694F4FF0FF32BF
:103DF000684903EB070E17F8013B08205A4042F3CD
:103E00000003013803EA010383EA5202F7D1774540
:103E1000F1D1D2434FF00008DFF87CB14AF2200A1A
:103E2000A261C14647463846FFF7E4FE40B1DBF8E1
:103E30001C30B8F1000F01D0994501D89946804651
:103E40000137D344032FEED109FB08F30133E361BB
:103E5000012304930693072305932023079304F07B
:103E600001F90028ACD1019002A901A8FFF706FFD3
:103E700010B3019B4AF22009DFF834A1464F03F149
:103E8000010E03F104084549AAFB0E2323F00100AB
:103E900000EB5300AEEB000009FB007309FB001CB4
:103EA00001E0634531D01A6804330132F9D00EF1D4
:103EB000010EF045E8D10FE0384F4AF2200C3849A6
:103EC0007B1801E09F4220D01A6804330132F9D0F8
:103ED000013067440328F3D103A8694604F05EF972
:103EE000002846D004F0D2F8BFF34F8FBFF36F8F96
:103EF0002C4B0022C3F85022BFF34F8FBFF36F8FBC
:103F00002846357017B0BDE8F08F4AF22003DFF87D
:103F1000889000FB03F399441C4A126842B9224678
:103F20004946012004F0F8F8B0FA80F56D09D9E7A8
:103F300002EB82024FEA021808F11F0838F01F084E
:103F4000EDD0194F194ADFF86CB01F44A2EB030AF9
:103F5000ABEB030B03E00BEB07039845DFD90AEB50
:103F6000070239460120203704F0D6F80028F2D0A5
:103F7000B8E70346DFF82090CEE700BFAFF300803C
:103F80004C4F47320200000040060020440600204B
:103F9000600600202083B8ED00000E0820A00E0867
:103FA000E05FFFFF00ED00E020000E084006F21782
:103FB000ABAAAAAAE0FFF1F72DE9F0412DED028BA3
:103FC000D6B0002515A914A8CDE91455FFF756FE63
:103FD000002800F04181159E5023149F4FF48071FA
:103FE000059316A87369A04A049333690393F36891
:103FF0000293B3680193F36900933B460AF006FD10
:1040000016A8FFF703F99948FFF700F9B368002BEA
:1040100000F01A814AF22003954CF6EE008A9FEDDB
:10402000958A03FB0744B046D9E075EEA85A94ED93
:10403000055AFDEEE55A25EE085AB5EEC05AF1EEE6
:1040400010FAC0F2FE8035EE285AD4ED064ABDEED5
:10405000C55A64EE884AF5EEC04AF1EE10FAC0F295
:10406000ED8074EEA84A94ED074AFDEEE44A24EE92
:10407000084AB5EEC04AF1EE10FAC0F2DC8034EE28
:10408000284AD4ED083ABDEEC44A63EE883AF5EE0C
:10409000C03AF1EE10FAC0F2CB8073EEA83AD4ED3C
:1040A000097AFDEEE33A67EE887AF5EEC07AF1EE32
:1040B00010FAC0F2BA8077EEA87A94ED0A7ABDEED3
:1040C000E73A27EE087AB5EEC07AF1EE10FAC0F2C0
:1040D000A98037EE287AD4ED0B7AFDEEC72A67EE79
:1040E000887AF5EEC07AF1EE10FAC0F2988077EE99
:1040F000A87A94ED0C7ABDEEE72A27EE087AB5EEA1
:10410000C07AF1EE10FAC0F2878037EE287AD4ED4B
:104110000D7AFDEEC71A67EE887AF5EEC07AF1EEF9
:1041200010FA76DB77EEA87A94ED107AFDEEE77A56
:1041300027EE087AD4E90E7CB5EEC07AF1EE10FADB
:1041400064DB37EE287AD4ED116ABDEEC77A66EEED
:10415000886AF5EEC06AF1EE10FA54DB76EEA86AD2
:1041600094ED126AFDEEE66A26EE086AB5EEC06AC4
:10417000F1EE10FA44DB36EE286ABDEEC66AE66C54
:10418000CDED0B1A01358DED0A2A5034CDED092AFB
:104190008DED083ACDED073A8DED064ACDED054A95
:1041A0008DED045ACDED035A00914FF480718DEDE1
:1041B000116ACDED106A8DED0F7ACDED0C7A129665
:1041C000CDE901022C4A16A8CDE90D7C0AF01EFCAF
:1041D00016A8FFF71BF8D8F80830AB4234D9D4ED55
:1041E000045AE36865EE885AA268D4E90010F5EE37
:1041F000C05AF1EE10FABFF618AF75EEE85A16E79E
:1042000036EE686AB9E776EEE86AA9E737EE687ACB
:1042100099E777EEE87A87E737EE687A77E777EE1F
:10422000E87A66E737EE687A55E777EEE87A44E7AA
:1042300073EEE83A33E734EE684A22E774EEE84A70
:1042400011E735EE685A00E70C48FEF7DFFF56B07D
:10425000BDEC028BBDE8F081094856B0BDEC028B85
:10426000BDE8F041FEF7D2BFBCFA000818FB000819
:1042700020000E0800007A44ECFB000840FC000817
:10428000B0FA000830B585B0002400F087FF0021A7
:104290004B48F0234FF48C7210250090084600F034
:1042A00011FF1820009447F6FF73464A0621CDE916
:1042B0000104082000F00AFD242348F23041204682
:1042C00040F217120091194600F002FB00944FF6DD
:1042D000FF733D4A2E210820CDE9015400F0F6FC81
:1042E00000944FF6FF73394A2E21A820CDE90154DE
:1042F00000F0ECFC00944FF6FF73354A482108208B
:10430000CDE9015400F0E2FC00944FF6FF73314A0E
:104310004821A820CDE9015400F0D8FC00944FF6C4
:10432000FF732D4A62210820CDE9015400F0CEFC34
:1043300000944FF6FF73294A6221A820CDE9015469
:1043400000F0C4FC00944FF6FF73254A7C2108203E
:10435000CDE9015400F0BAFC00944FF6FF73214AF6
:1043600096210820CDE9015400F0B0FC00944FF6EE
:10437000FF731D4A96216020CDE9015400F0A6FC90
:1043800096214FF4FC63194A60200094CDE9015452
:1043900000F09CFC0124FEF7EBFA154A154B82ED68
:1043A000000A1C7002F076F9134B6438186002F0B2
:1043B00071F9124A124B10601C7005B030BD00BF7D
:1043C000603101084CFC000854FC00085CFC00084B
:1043D00060FC000864FC000868FC000870FC000831
:1043E00074FC000878FC000880FC0008B8F900089C
:1043F00060A6002064A600206CA6002068A600200D
:1044000070A60020644B1B7803B9704710B584B0C8
:1044100002F040F9614A04461368C31A632B47D877
:104420005F4A1368E31AB3F5FA7F2ED35D4B14602D
:104430001B78012B61D0022B29D15B4B9FED5B0ACE
:10444000D3ED007AF4EEC07AF1EE10FA07D49FEDC6
:10445000580AF4EEC07AF1EE10FA30FE270A102165
:1044600000224FF6FF700223CDE9012100901A4689
:104470006221582000F04CFC4A4A13780133DBB229
:10448000032B84BF0123474A137004B010BDFDF70E
:1044900097FC002867D0002110204FF4FC63454AA8
:1044A0000091CDE901017C21602000F00FFCE3E7E1
:1044B0001060FEF75DFA404BF5EE006A9FED3F6A33
:1044C000D3ED007A30EE677AE7EE267AF4EEC67A1C
:1044D000C3ED007AB0EE670AF1EE10FA31D4DFEDE9
:1044E000347AB4EEE70AF1EE10FA48DDB0EE670A6E
:1044F0004FF4FC60C3ED007A29E0314B9FED317A37
:10450000D3ED007A9FED300A67EE877AF4EEC07A39
:10451000F1EE10FA07D49FED2D0AF4EEC07AF1EE19
:1045200010FA30FE270A102100224FF6E070012316
:10453000CDE90121009003224821582000F0E8FB3A
:104540009AE7B0EE460A4FF4784083ED006A1021F6
:104550000022009002235820CDE9012103222E21C0
:1045600000F0CCFC5CE7102100904FF47843184A2F
:10457000CDE901107C21602000F0A8FB7CE7F3EE80
:10458000067AF4EEC07AF1EE10FACCBF4FF4784020
:104590004FF4FC60DBE700BF70A600206CA6002093
:1045A00068A6002064A60020FC0100200000C6C20E
:1045B0000000C64288FC000860A600200000000041
:1045C00008020020E12E654200C079C400C0794491
:1045D0008CFC000870B584B0C0B1044600251026DC
:1045E0004FF6FF730A4A962160200095CDE90165D8
:1045F00000F06CFB4FF4FC6322469621602000958E
:10460000CDE9016500F062FB04B070BD014CE5E747
:1046100080FC00088CFC000810B5002282B0044623
:104620004FF48061104803F075FF00224FF4004101
:104630000E488DF8074003F06DFF4FF6FF730DF144
:10464000070101220A4806F06FFF01224FF40041E2
:10465000064803F05FFF01224FF48061024802B078
:10466000BDE8104003F056BF000C0258001002587D
:104670006C040020F0B50F4683B002F1140400F181
:10468000140500224FF480618E481E4603F042FF5D
:104690002A2300224FF400418B488DF8073003F0A5
:1046A00039FF4FF6FF730DF107010122874806F02D
:1046B0003BFF01224FF40041834803F02BFF01220E
:1046C0004FF480617F4803F025FF00222B0A4FF44E
:1046D00000417D488DF8073003F01CFF4FF6FF7353
:1046E0000DF107010122794806F01EFF01224FF467
:1046F0000041754803F00EFF00224FF4004172485C
:104700008DF8075003F006FF4FF6FF730DF1070118
:1047100001226E4806F008FF01224FF400416A486A
:1047200003F0F8FE0022230A4FF4004166488DF89A
:10473000073003F0EFFE4FF6FF730DF10701012282
:10474000624806F0F1FE01224FF400415E4803F09A
:10475000E1FE00224FF400415B488DF8074003F072
:10476000D9FE4FF6FF730DF107010122574806F0FD
:10477000DBFE01224FF40041534803F0CBFE002240
:104780004FF480614F4803F0C5FE2B2300224FF405
:1047900000414D488DF8073003F0BCFE4FF6FF7323
:1047A0000DF107010122494806F0BEFE01224FF437
:1047B0000041454803F0AEFE01224FF480614148BC
:1047C00003F0A8FE00223B0A4FF400413E488DF85A
:1047D000073003F09FFE4FF6FF730DF10701012232
:1047E0003A4806F0A1FE01224FF40041364803F09A
:1047F00091FE00224FF4004133488DF8077003F01A
:1048000089FE4FF6FF730DF1070101222F4806F0D4
:104810008BFE01224FF400412B4803F07BFE002267
:10482000330A4FF4004128488DF8073003F072FE38
:104830004FF6FF730DF107010122244806F074FEC4
:1048400001224FF40041204803F064FE00224FF49F
:1048500000411D488DF8076003F05CFE4FF6FF73C2
:104860000DF107010122194806F05EFE01224FF406
:104870000041154803F04EFE00224FF480611148BC
:1048800003F048FE2C2300224FF400410E488DF81F
:10489000073003F03FFE4FF6FF730DF107010122D1
:1048A0000A4806F041FE01224FF40041064803F099
:1048B00031FE01224FF48061024803B0BDE8F040B0
:1048C00003F028BE000C0258001002586C040020AF
:1048D0002DE9F04F814687B08846A3EB010AA2EB91
:1048E000090BBDF84000BBF1000F65DDBAF1000F08
:1048F0005ADD4FF0010EDA4556464FF0010CB8BFB5
:104900005E460025030ACDF80CC02F462C460093C6
:10491000CDE901BE83461FFA89F201341FFA88F3FC
:1049200055441046A4B21946FFF7A4FE009B00228E
:104930004FF400413C488DF8173003F0EBFD4FF683
:10494000FF7301220DF11701384806F0EDFD012239
:104950004FF40041344803F0DDFD00224FF40041E4
:1049600031488DF817B003F0D5FD4FF6FF730122E3
:104970000DF117012D4806F0D7FD01224FF400413B
:10498000294803F0C7FD019B1F44B74202DD029B8B
:10499000BF1B9944B54202DD039BAD1B9844B44252
:1049A000B9DD07B0BDE8F08F14D15E464FF0010EBF
:1049B0004FF0000CE246A4E704D1BAF1000F14DD79
:1049C000DE4698E7BAF1000FA9EB020B11DD4FF0BC
:1049D000FF3E90E7A1EB030A5E464FF0FF3C4FF02D
:1049E000010ED345B8BF56468BE715D15E46DE466D
:1049F000DEE705D12BEAEB76D4464FF0FF3E80E7A9
:104A0000A1EB030A5E46D345B8BF5646002EC8DB6D
:104A10004FF0FF3CE64674E7A1EB030ADE464FF099
:104A2000FF3C2AEAEA766CE7001002586C0400208A
:104A30002DE9F04F8FB016469846421E9DF86450FF
:104A4000824600934B1E15F00E04BDF8607002EB19
:104A500055022B4418BF012402979DF8687092B24A
:104A600004EB151403919BB2059705FB04F4FFF7C3
:104A700001FE002C54D0203E8E4B8F49A5F10C0234
:104A8000F6B28E4804926F0803EB061E554606EBFD
:104A9000460300EB861001EB8301621800240692A6
:104AA000874A02EB031C4FEA18230193049A142A45
:104AB00036D8DFE802F0A7353535A435353535353C
:104AC0003535AA353535353535353800002608F009
:104AD000010389468346CDF824E0CDE9074C002B3D
:104AE00040F0968001350136ADB248FA06F3A5EBE9
:104AF0000A0203F00103BA4200F0D080082EEED182
:104B0000DDF824E049465846DDE9074C0131069BB3
:104B10000EF1010E0CF1010C994200F10100C5D11A
:104B20000FB0BDE8F08F90F80080059E002ECDD12B
:104B3000029B0DF1370907958346CDF82CA008F0AC
:104B400001054FEA132A0A91CDE908CE37E0019B0F
:104B50008DF8373003F0DEFC4FF6FF730122494633
:104B6000584806F0E1FC01224FF40041564803F09A
:104B7000D1FC00224FF40041009B013452488DF8D3
:104B8000373003F0C7FCE4B24FF6FF730122494609
:104B90004C48013606F0C8FC01224FF400414A4857
:104BA00003F0B8FC48FA06F5B4FBF7F307FB134330
:104BB00005F0010513F0FF0367D0082E5DD0002239
:104BC0004FF400414048002DC1D12A464FF4004126
:104BD0003D488DF837A003F09DFC4FF6FF7301228E
:104BE0004946384806F0A0FC01224FF400413648FF
:104BF00003F090FC4FF400412A46029BBDE79EF86B
:104C0000008092E791F800808FE79CF800808CE7A5
:104C1000039B2A4628461946FFF72CFD019B0022DC
:104C20004FF4004128488DF8373003F073FC4FF6FD
:104C3000FF730DF137010122224806F075FC0122B5
:104C40004FF40041204803F065FC009B00224FF424
:104C500000411D488DF8373003F05CFC0DF1370141
:104C60004FF6FF730122174806F05EFC01224FF455
:104C70000041154803F04EFC34E7DDE9075CDDE94F
:104C800009E15846DDF82CA040E7DDE9075CDDE9E5
:104C900009E15846DDF82CA01C4637E7039B49463E
:104CA000DDF824E05846013355469BB2DDE9074C58
:104CB00003932BE7FC260108EC2C01086CFD00088F
:104CC0002C1501086C040020001002582DE9F04753
:104CD000154684B01278BDF830A09DF834609DF878
:104CE000387092B189469846044620464346494664
:104CF000CDF800A004EB5604CDE90167FFF798FE5C
:104D000015F8012FA4B2002AEFD104B0BDE8F08756
:104D10002DE9F04F8DB08946BDF85810BDF85C60A4
:104D200005919DF860100693049149080891002BA5
:104D300000F0DA80591E0123013903EB8303C9B265
:104D40005B00FF29F8D107EE903AF8EE677A67EE3C
:104D5000807AFDEEE77A089BB5EEC00A571C00EB9F
:104D6000030817EE903AFFB2F1EE10FA1FFA88F836
:104D70001CB2049BCDE900634FF00003079402933B
:104D8000059B00F1A98020224946FFF751FE089BB0
:104D90004946404607FB0384069B1C44049B4B4446
:104DA000A4B29BB222460993FFF764FC099B5A1CEC
:104DB00092B24A4543D9013409974FEA162B474628
:104DC000A5B2C8469A46BD4230D93C4600224FF4AF
:104DD0000041474801348DF82FB003F09BFB4FF69C
:104DE000FF7301220DF12F01424806F09DFB0122C5
:104DF0004FF400413E4803F08DFB00224FF4004188
:104E00003B48A4B28DF82F6003F084FB4FF6FF738C
:104E100001220DF12F01374806F086FB01224FF4E5
:104E20000041334803F076FBA542CFD8C24508F1D4
:104E3000010202D01FFA82F8C5E7B846099F97B36E
:104E40000024DFF8B4B0DDF820A02546069BF81A50
:104E500084422BD03A1BD2B2012A3BD0023A012322
:104E6000013A03EB8303D2B25B00FF2AF8D1079A21
:104E7000B2FBF3F3049A04FB0A800134029580B27A
:104E8000E4B2CDE90062ABFB03124946D20802EB63
:104E90008202A3EB420303F13002059BD2B2FFF77B
:104EA000C7FDA742D2D80DB0BDE8F08F013401375D
:104EB000049B00FB0A80E4B22E22FFB2019380B271
:104EC000059B494602950096FFF7B2FD3A1BD2B208
:104ED000012AC3D1079BCDE72D224946FFF7A8FD44
:104EE00063421BB2079352E7F0EE407A31E700BF0E
:104EF000001002586C040020CDCCCCCC2DE9F04F32
:104F00002DED028B8DB0B0EE408ABDF86040BDF84B
:104F1000645005949DF8684007934FEA5408049440
:104F200073B15C1E0123013C03EB8303E4B25B001D
:104F3000FF2CF8D107EE903AF8EE677A28EE278A30
:104F400040440132049B1FFA80F90798D7B203EB63
:104F5000010A069107FB08921FFA8AF302441C46D5
:104F600048461FFA82FB5A46FFF784FB631C0699EA
:104F70009BB28B424BD90BF1010B0697CDF82080E9
:104F80002E0AC846274689461FFA8BFA0991C24560
:104F900032D9444600224FF40041474801348DF88D
:104FA0002F6003F0B7FA4FF6FF7301220DF12F01C6
:104FB000424806F0B9FA01224FF400413E4803F09E
:104FC000A9FA00224FF400413B488DF82F5003F01E
:104FD000A1FA4FF6FF7301220DF12F01374806F0B9
:104FE000A3FA01224FF40041334803F093FAA4B22C
:104FF0001FFA8BF3A342CDD14F4509F1010302D033
:105000001FFA83F9C3E7C146069FDDE90881B7B3FC
:10501000BDEEC88A0024DFF8A8B0A246069118EEBB
:10502000103A1EB2079BF81A84422DD03A1BD2B216
:10503000012A3ED0023A0123013A03EB8303D2B2A4
:105040005B00FF2AF8D1B6FBF3F3049A04FB089047
:105050000134CDF808A080B2E4B2CDE90052ABFB38
:105060000312D20802EB8202A3EB420303F13002E7
:10507000DDE90531D2B2FFF7DBFCA742D2D80DB093
:10508000BDEC028BBDE8F08F01340137049B00FBBF
:105090000890E4B22E22FFB2019380B2059B0699DC
:1050A000CDF808A00095FFF7C3FC3A1BD2B2012A45
:1050B000C0D13346C9E700BF001002586C0400207D
:1050C000CDCCCCCC2DE9F04F03F1FF399246013A1B
:1050D00098461FFA89F985B0024401EB09030E9E38
:1050E00092B29BB2FFF7C6FABAF1000F46D0B8F100
:1050F000000F46D04FF0000B09F10103771CC146A9
:10510000D846019309EB0B055C4616F814300022D3
:105110004FF400411F488DF80F3003F0FBF94FF6B4
:10512000FF7301220DF10F011B4806F0FDF901226A
:105130004FF40041174803F0EDF917F8143000223E
:105140004FF40041134801348DF80F3003F0E2F9B9
:105150004FF6FF7301220DF10F010F4806F0E4F93D
:1051600001224FF400410B4803F0D4F9AC42CCD1FA
:1051700008F10108019BD0459B44C3D105B0BDE8AF
:10518000F08F08F1010308F102085345F6D0C2453B
:10519000F7D1F3E7001002586C0400202DE9F04F1E
:1051A000002283B04FF40061E34803F0B3F96420B8
:1051B00001F076FA01224FF40061DF4803F0AAF90A
:1051C000642001F06DFA01224FF48061DA4803F0A7
:1051D000A1F9642001F064FA1120FFF71DFA78208C
:1051E00001F05EFA3620FFF717FA702300224FF421
:1051F0000041D24805268DF8073003F08BF94FF6B1
:10520000FF730DF107010122CD4806F08DF901224F
:105210004FF40041C94803F07DF93A20FFF7FCF94B
:1052200000224FF40041C5488DF8076003F072F981
:105230004FF6FF730DF107010122C14806F074F922
:1052400001224FF40041BD4803F064F90C24B22060
:105250000025FFF7E1F900224FF40041B7488DF82F
:10526000074003F057F94FF6FF730DF107010122D4
:10527000B34806F059F901224FF40041AF4803F05A
:1052800049F900224FF40041AC488DF8074003F083
:1052900041F94FF6FF730DF107010122A84806F00E
:1052A00043F901224FF40041A44803F033F92A46A0
:1052B0004FF40041A1488DF8075003F02BF94FF649
:1052C000FF730DF1070101229D4806F02DF94FF003
:1052D000330801224FF400419848012403F01AF9E1
:1052E0002A464FF4004195488DF8078003F012F9E3
:1052F0004FF6FF730DF107010122914806F014F9F2
:1053000001224FF400418D4803F004F92A464FF47E
:1053100000418A488DF8078003F0FCF84FF6FF73D0
:105320000DF107010122864806F0FEF801224FF434
:105330000041824803F0EEF8B720FFF76DF93523FE
:105340002A464FF400417D4815278DF8073003F0B9
:10535000E1F84FF6FF730DF107010122784806F0DE
:10536000E3F801224FF40041744803F0D3F8BB2066
:10537000FFF752F932232A464FF400416F484FF0AD
:10538000D00B8DF8073003F0C5F84FF6FF730DF121
:10539000070101226A4806F0C7F801224FF40041D4
:1053A000664803F0B7F8C220FFF736F92A464FF4F3
:1053B000004162488DF8074003F0ACF84FF6FF73E8
:1053C00022460DF107015E4806F0AEF822464FF482
:1053D00000415A4803F09EF8C320FFF71DF92A4602
:1053E0004FF4004155488DF8077003F093F84FF6DD
:1053F000FF7322460DF10701514806F095F8224649
:105400004FF400414D4803F085F8C420FFF704F93C
:1054100020232A464FF4004148484FF009098DF8EF
:10542000073003F077F84FF6FF7322460DF10701BE
:10543000434806F079F822464FF400413F4803F014
:1054400069F8C620FFF7E8F80F232A464FF4004119
:105450003A484FF0340A8DF8073003F05BF84FF606
:10546000FF7322460DF10701354806F05DF822462C
:105470004FF40041314803F04DF8D020FFF7CCF84D
:10548000A4232A464FF400412C488DF8073003F03E
:1054900041F84FF6FF7322460DF10701284806F048
:1054A00043F822464FF40041244803F033F8A12387
:1054B0002A464FF4004121488DF8073003F02AF8BE
:1054C0004FF6FF7322460DF107011D4806F02CF838
:1054D00022464FF40041194803F01CF8E020FFF782
:1054E0009BF82A464FF4004114488DF807B003F0AA
:1054F00011F84FF6FF7322460DF10701104806F030
:1055000013F822464FF400410C4803F003F84FF023
:1055100008032A464FF4004108488DF8073002F08E
:10552000F9FF4FF6FF7322460DF10701044805F01D
:10553000FBFF224606E000BF00040258001002589C
:105540006C0400204FF40041E04802F0E3FF4FF00C
:105550000E024FF40041DD488DF807202A4602F084
:10556000D9FF4FF6FF7322460DF10701D84805F029
:10557000DBFF22464FF40041D44802F0CBFF2A461D
:105580004FF40041D1488DF8079002F0C3FF4FF669
:10559000FF7322460DF10701CD4805F0C5FF2246F5
:1055A0004FF40041C94802F0B5FF2A464FF40041CC
:1055B000C6488DF8079002F0ADFF4FF6FF73224604
:1055C0000DF10701C24805F0AFFF22464FF400413C
:1055D000BE4802F09FFF2A464FF40041BB488DF8B9
:1055E000076002F097FF4FF6FF7322460DF10701A7
:1055F000B74805F099FF312622464FF40041B348E1
:1056000002F088FF2A464FF40041B0488DF8076049
:1056100002F080FF4FF6FF7322460DF10701AC4800
:1056200005F082FF22464FF40041A84802F072FFC5
:105630002A464FF40041A5488DF8078002F06AFF22
:105640004FF6FF7322460DF10701A14805F06CFFEC
:1056500022464FF400419D4802F05CFF4FF04801A4
:105660002A469A488DF807104FF4004102F052FF85
:105670004FF6FF7322460DF10701954805F054FFE0
:1056800022464FF40041914802F044FF4FF01700CA
:105690002A464FF400418DF807008C4802F03AFF8B
:1056A0004FF6FF7322460DF10701894805F03CFFD4
:1056B00022464FF40041854802F02CFF4FF0140CB5
:1056C0002A464FF4004181488DF807C002F022FFBE
:1056D0004FF6FF7322460DF107017D4805F024FFC8
:1056E00022464FF40041794802F014FF2A464FF455
:1056F000004176488DF8077002F00CFF4FF6FF73FB
:1057000022460DF10701724805F00EFF22464FF4C4
:1057100000416E4802F0FEFE2A464FF400416B48FD
:105720008DF8076002F0F6FE4FF6FF7322460DF18A
:105730000701674805F0F8FE22464FF40041634830
:1057400002F0E8FE2A464FF4004160488DF807A0B9
:1057500002F0E0FE4FF6FF7322460DF107015C48B0
:1057600005F0E2FE22464FF40041584802F0D2FE16
:10577000E120FEF751FF2A464FF4004153488DF8CF
:1057800007B002F0C7FE4FF6FF7322460DF1070186
:105790004F4805F0C9FE22464FF400414B4802F045
:1057A000B9FE4FF008032A464FF4004147488DF8F0
:1057B000073002F0AFFE4FF6FF7322460DF10701EE
:1057C000434805F0B1FE22464FF400413F4802F045
:1057D000A1FE4FF00E024FF400413C488DF8072027
:1057E0002A4602F097FE4FF6FF7322460DF107019D
:1057F000374805F099FE22464FF40041334802F045
:1058000089FE2A464FF4004130488DF8079002F097
:1058100081FE4FF6FF7322460DF107012C4805F07B
:1058200083FE22464FF40041284802F073FE2A46C8
:105830004FF4004125488DF8079002F06BFE4FF6BB
:10584000FF7322460DF10701214805F06DFE224647
:105850004FF400411D4802F05DFE2A464FF400411E
:105860001A488DF8077002F055FE4FF6FF73224676
:105870000DF10701164805F057FE22464FF400418E
:10588000124802F047FE2A464FF400410F488DF8B7
:10589000076002F03FFE4FF6FF7322460DF107014D
:1058A0000B4805F041FE22464FF40041074802F044
:1058B00031FE2A464FF4004104488DF8078002F07B
:1058C00029FE4FF6FF73224604E000BF0010025885
:1058D0006C0400200DF107014D4805F025FE22461D
:1058E0004FF400414B4802F015FE4FF048012A46A4
:1058F00048488DF807104FF4004102F00BFE4FF6B8
:10590000FF7322460DF10701414805F00DFE2246C6
:105910004FF400413F4802F0FDFD4FF017002A46CA
:105920004FF400418DF807003A4802F0F3FD4FF6BE
:10593000FF7322460DF10701354805F0F5FD2246BB
:105940004FF40041334802F0E5FD4FF0140C2A46B5
:105950004FF400412F488DF807C002F0DBFD4FF6F1
:10596000FF7322460DF10701294805F0DDFD2246AF
:105970004FF40041274802F0CDFD2A464FF4004184
:1059800024488DF8077002F0C5FD4FF6FF732246DC
:105990000DF107011E4805F0C7FD22464FF40041F6
:1059A0001C4802F0B7FD2A464FF4004119488DF813
:1059B000076002F0AFFD4FF6FF7322460DF10701BD
:1059C000134805F0B1FD22464FF40041114802F0A2
:1059D000A1FD2A464FF400410E488DF807A002F0C1
:1059E00099FD4FF6FF730DF107012246084805F0B7
:1059F0009BFD22464FF40041064802F08BFD21201A
:105A0000FEF70AFE292003B0BDE8F04FFEF704BE02
:105A10006C0400200010025808B5012219491A48E8
:105A200007F010FE88B91949174807F01FFEA0B902
:105A30001749154808F044FDB8B9134807F034FE7B
:105A4000D0B9BDE8084002F08DBDFCF7A1FE0F49BA
:105A50000D4807F00BFE0028EAD0FCF799FE0C4930
:105A6000094808F02DFD0028E7D0FCF791FE064814
:105A700007F01AFE0028E4D0FCF78AFEBDE80840D3
:105A800002F070BD4800002074A60020C000002075
:105A90000000002000207047002070470020704761
:105AA00070B50446B8B1B1B10B68A3B103F1FF3EC4
:105AB000411E0D4A0D4D86440D4E13682868013372
:105AC000DBB2984207D011F801CF1068714513601E
:105AD00006F800C0F1D12146064808F00BFD054844
