:020000040800F2
:1000000000000220D90700082D0800082D0800086C
:100010002D0800082D0800082D0800080000000029
:100020000000000000000000000000002D08000893
:100030002D080008000000002D0800087991000834
:100040002D0800082D0800082D0800082D080008BC
:100050002D0800082D0800082D0800082D080008AC
:100060002D0800082D0800082D0800082D0800089C
:100070002D0800082D0800082D0800082D0800088C
:100080002D0800082D0800082D0800082D0800087C
:100090002D0800082D0800082D0800082D0800086C
:1000A0002D0800082D0800082D0800082D0800085C
:1000B0002D0800082D0800082D0800082D0800084C
:1000C0002D0800082D0800082D0800082D0800083C
:1000D0002D0800082D0800082D0800082D0800082C
:1000E0002D0800082D080008000000002D08000859
:1000F0002D0800082D0800082D0800082D0800080C
:100100002D0800082D0800082D0800082D080008FB
:100110002D080008218D00082D0800082D08000872
:100120002D0800082D0800082D0800082D080008DB
:100130002D0800082D0800082D0800082D080008CB
:1001400000000000000000000000000000000000AF
:100150002D0800082D0800082D0800082D080008AB
:100160002D0800082D0800082D0800082D0800089B
:100170002D0800087D9100082D08000800000000EF
:100180002D0800082D0800082D0800082D0800087B
:100190002D0800082D0800082D0800082D0800086B
:1001A0002D0800082D0800082D0800080000000098
:1001B0002D0800082D0800082D0800082D0800084B
:1001C0002D0800082D0800080000000000000000B5
:1001D00000000000000000002D08000800000000E2
:1001E000000000000000000000000000000000000F
:1001F00000000000000000002D0800082D08000885
:100200002D0800082D080008000000002D08000837
:100210002D0800082D0800082D0800082D080008EA
:100220002D080008000000002D0800080000000054
:100230002D0800082D080008000000002D08000807
:100240002D0800082D0800082D0800082D080008BA
:100250002D0800082D0800082D0800082D080008AA
:100260002D0800082D0800082D0800082D0800089A
:100270002D0800082D0800082D08000800000000C7
:100280002D0800082D0800082D0800082D0800087A
:10029000000000002D0800082D08000800000000E4
:1002A000000000002D0800082D0800082D08000897
:1002B0002D0800082D0800082D0800082D0800084A
:0C02C0002D0800082D0800082D0800087B
:1002D00010F8012B11F8013B012A28BF9A42F7D0F0
:1002E000D01A7047034613F8012B002AFBD1181AC5
:1002F000013870470000000000000000000000000E
:1003000001F0FF01102A2BDB10F0070F08D010F8C6
:10031000013B013A8B422DD010F0070F42B3F6D1CA
:10032000F0B441EA012141EA014122F007047FF0E3
:1003300000070023F0E80256083C85EA010586EA3A
:10034000010685FA47F5A3FA87F586FA47F6A5FA76
:1003500087F68EB9EED1F0BC01F0FF0102F0070282
:1003600032B110F8013B013A83EA010313B1F8D12D
:100370000020704701387047002D06BF354603380E
:10038000073815F0010F07D1013015F4807F02BF47
:10039000013015F4C03F0130F0BC0138704700BF98
:1003A00081F0004102E000BF83F0004330B54FEA26
:1003B00041044FEA430594EA050F08BF90EA020F93
:1003C0001FBF54EA000C55EA020C7FEA645C7FEA26
:1003D000655C00F0E2804FEA5454D4EB5555B8BF49
:1003E0006D420CDD2C4480EA020281EA030382EABA
:1003F000000083EA010180EA020281EA0303362D4C
:1004000088BF30BD11F0004F4FEA01314FF4801C1E
:100410004CEA113102D0404261EB410113F0004F30
:100420004FEA03334CEA133302D0524263EB4303E7
:1004300094EA050F00F0A780A4F10104D5F1200E85
:100440000DDB02FA0EFC22FA05F2801841F10001E0
:1004500003FA0EF2801843FA05F359410EE0A5F1B4
:1004600020050EF1200E012A03FA0EFC28BF4CF0E5
:10047000020C43FA05F3C01851EBE37101F000459B
:1004800007D54FF0000EDCF1000C7EEB00006EEBA8
:100490000101B1F5801F1BD3B1F5001F0CD3490832
:1004A0005FEA30004FEA3C0C04F101044FEA445289
:1004B00012F5800F80F09A80BCF1004F08BF5FEA10
:1004C000500C50F1000041EB045141EA050130BDF0
:1004D0005FEA4C0C404141EB0101013C28BFB1F502
:1004E000801FE9D291F0000F04BF01460020B1FA4D
:1004F00081F308BF2033A3F10B03B3F120020CDA20
:100500000C3208DD02F1140CC2F10C0201FA0CF0FD
:1005100021FA02F10CE002F11402D8BFC2F1200C62
:1005200001FA02F120FA0CFCDCBF41EA0C01904018
:10053000E41AA2BF01EB0451294330BD6FEA040461
:100540001F3C1CDA0C340EDC04F11404C4F120024C
:1005500020FA04F001FA02F340EA030021FA04F35E
:1005600045EA030130BDC4F10C04C4F1200220FAB5
:1005700002F001FA04F340EA0300294630BD21FAF3
:1005800004F0294630BD94F0000F83F4801306BFB9
:1005900081F480110134013D4EE77FEA645C18BFAD
:1005A0007FEA655C29D094EA050F08BF90EA020F44
:1005B00005D054EA000C04BF1946104630BD91EA3C
:1005C000030F1EBF0021002030BD5FEA545C05D13F
:1005D0004000494128BF41F0004130BD14F580047E
:1005E0003CBF01F5801130BD01F0004545F0FE41F2
:1005F00041F470014FF0000030BD7FEA645C1ABF27
:10060000194610467FEA655C1CBF0B46024650EA5D
:10061000013406BF52EA033591EA030F41F4002189
:1006200030BD00BF90F0000F04BF0021704730B50F
:100630004FF4806404F132044FF000054FF00001E4
:1006400050E700BF90F0000F04BF0021704730B5A5
:100650004FF4806404F1320410F0004548BF40427A
:100660004FF000013EE700BF42004FEAE2014FEACF
:1006700031014FEA02701FBF12F07F4393F07F4FAA
:1006800081F06051704732F07F4208BF704793F0AD
:100690007F4F04BF41F40021704730B54FF46074C0
:1006A00001F0004521F000411CE700BF50EA0102C3
:1006B00008BF704730B54FF000050AE050EA01026C
:1006C00008BF704730B511F0004502D5404261EBDC
:1006D00041014FF4806404F132045FEA915C3FF41D
:1006E000D8AE4FF003025FEADC0C18BF03325FEABA
:1006F000DC0C18BF033202EBDC02C2F1200300FA6B
:1007000003FC20FA02F001FA03FE40EA0E0021FA8F
:1007100002F11444BDE600BF53B94AB9002908BF2D
:1007200000281CBF4FF0FF314FF0FF3000F00CB835
:10073000ADF1080C6DE904CE19F0B2FDDDF804E06E
:10074000DDE9022304B07047704700BF0348044B43
:10075000834202D0034B03B118477047CC020020FC
:10076000CC020020000000000548064B1B1AD90FE0
:1007700001EBA301491002D0034B03B118477047A6
:10078000CC020020CC0200200000000010B5064C76
:10079000237843B9FFF7DAFF044B13B10448AFF3F2
:1007A00000800123237010BDE00200200000000043
:1007B000C0A5010808B5054B1BB105490548AFF3B5
:1007C0000080BDE80840FFF7CFBF00BF0000000079
:1007D000E4020020C0A50108DFF838D000F028F8B6
:1007E000002103E00C4B5B58435004310B480C4B89
:1007F00042189A42F6D30B4A02E0002342F8043B27
:10080000094B9A42F9D30CF0AFFC17F0A1F805F0B0
:1008100097FF7047000002208814040800000020A1
:10082000CC020020E0020020206C0120FEE7000046
:10083000044AD36843F00203D36053689B04FCD599
:10084000704700BF00480258F7EE007ADFED1A5AF1
:10085000F0EE084A9FED196A20EE004A9FED187AE3
:1008600077EEC07A9FED173A60EEA55ADFED162AB3
:1008700020EE045ADFED153A67EEA76A67EEA47A18
:1008800020EE866A66EEA46A67EE847A60EEA20ABB
:1008900026EE800A27EE877A67EEA57AA0EE037A25
:1008A000E0EE067AA5EE237AE5EE207A80ED007A76
:1008B000C1ED007A704700BF0C75203F4627AB3D65
:1008C000CDCC0CBF9A9919BE14AE073F1F857BC0D3
:1008D000164A01210023164810B51170154C164A0E
:1008E000037013702370154A15481649164C13608F
:1008F00003600B700CF0F6FC144AFA382378106091
:100900004BB1134807F0ECFF237853B11148BDE811
:10091000104007F0B1BF104807F0E2FF2378002B2A
:10092000F4D10E48BDE8104007F0A6BFBC0400207B
:10093000CA040020C9040020C80400204C04002080
:10094000C4040020BF040020BD040020B80400201F
:1009500030A6010878A6010854A6010894A601084B
:1009600000B58BB000234FF0000C03AA04A807A920
:100970008DED010A06930993CDF80CC0CDE904333F
:10098000CDE907330CF028FADDED087A1F4B9DED19
:10099000077AF1EE677ADDED066A0398B1EE477AE1
:1009A0001B49F1EE666A1B4AD3ED015A086093EDCC
:1009B000006A77EEE57A92ED005A174B37EE467AE9
:1009C00076EEC56A154993ED016A154A77EEC67A47
:1009D000D3ED005AC1ED006A9FED125A37EE657AE9
:1009E000D1ED004AD2ED006AA7EE856A9DED010ABD
:1009F000E7EE055AF0EE667AE4EE807A83ED016A5E
:100A0000C3ED005AC2ED007A0BB000BDD404002043
:100A1000EC04002004050020CC0400200005002088
:100A2000FC040020CDCC4C3E10B582B004460CF046
:100A300059FC144B1449154A0094DFF868C0097832
:100A4000126893ED000A124BDCED000A93ED001AD8
:100A5000DFF854C00F4BDCED001A93ED002ADFF8ED
:100A60004CC00D4BDCED002A93ED003ADFF840C09E
:100A70000A4BDCED003A93ED004A094B09F046FFC2
:100A800002B010BD00050020100500200C0500205C
:100A9000F8040020F0040020E8040020E004002016
:100AA00040CC0108FC040020F4040020EC040020E9
:100AB000E404002000B5DFF86CC00B46DFF868E006
:100AC00083B0174A9EF8001012689CED000ADFF808
:100AD0005CC0DCED000ADFF858C09CED001ADFF8BE
:100AE00054C0DCED001ADFF850C09CED002ADFF89E
:100AF0004CC0DCED002ADFF848C09CED003ADFF87E
:100B000044C0DCED003ADFF840C09CED004A4FF0F5
:100B1000000CCDF800C009F0F9FE03B000BD00BF25
:100B20000C0500200005002010050020FC0400201A
:100B3000F8040020F4040020F0040020EC0400205D
:100B4000E8040020E4040020E004002070B5CCB0EC
:100B500003468021494A0CA816F05AFD48490CA8C2
:100B600016F02EFE002872D00346002406AD01E0E8
:100B7000062C0BD045F8043B00204149013416F007
:100B80001FFE03460028F3D1062C60D13D4906988C
:100B9000FFF79EFB00285AD13B490798FFF798FBC7
:100BA000002854D139490898FFF792FB00284ED10C
:100BB00037490A98FFF78CFB002848D1099C0A2284
:100BC00005A9204616F056FC22780546002A47D093
:100BD000059B1B78002B43D1012841D80B9E04A90B
:100BE000304616F089FB3378002B40D0049B1B78ED
:100BF000002B3CD1F0EEC07A9FED267AF4EE477AD6
:100C0000F1EE10FA33D8B5EEC00AF1EE10FA2ED498
:100C1000DFED217AB4EEE70AF1EE10FA27DCE8B254
:100C20008DED030A07F0C2FD9DED030A2B461B4A1A
:100C3000B7EEC00A80212CA88DED000B16F0E8FC61
:100C40002CA807F019FE2CA807F0FEFD05E01448BB
:100C500007F012FE124807F0F7FD01204CB070BDFE
:100C6000104807F009FE0F4807F0EEFDF5E70E48C3
:100C700007F002FE0C4807F0E7FDEEE7B0A601081A
:100C8000B4A60108DCA60108E8A60108ECA6010844
:100C9000F4A60108FFFF7F7F0000344350A701083E
:100CA000B8A6010800A7010828A701082DE9F0410E
:100CB000AAB006460F4690468021384B384A0AA80B
:100CC00016F0A6FC37490AA816F07AFD90B1034643
:100CD000002401AD45F8043F00203249013416F0EC
:100CE0006FFD0346002855D0082CF3D1029B1A78DB
:100CF000522A03D000202AB0BDE8F0815A784B2A4E
:100D0000F8D19B78002BF5D127490398FFF7E0FA3B
:100D10000028EFD125490498FFF7DAFA0028E9D135
:100D200031460598FFF7D4FA0028E3D12049069808
:100D3000FFF7CEFA0028DDD11E490898FFF7C8FA60
:100D40000028D7D1099C1C492046FFF7C1FA28B1D9
:100D50001A492046FFF7BCFA0028CBD1079D0A228A
:100D600001A9284616F086FB2B780246002BC1D03D
:100D7000019B1B78002BBDD10028BBD00E4920461B
:100D80003A60FFF7A5FAB0FA80F301205B0988F812
:100D90000030B0E7082CADD1A8E700BFFC0200206E
:100DA000B0A60108B4A6010880A7010888A7010819
:100DB00090A7010894A701089CA70108A0A7010813
:100DC0002DE9F04FD3B0602112A80BF0EBFC002806
:100DD00000F014818C4B06461978002900F04583F9
:100DE0000DF14809894C8A4D09EB060899F8003045
:100DF00026680A2B18BF0D2B0CBF0127002740F0D7
:100E0000F282002383498248AB5516F03FFD8246AB
:100E1000002800F0F382AA4509D05046FFF762FA95
:100E2000064651462846721C16F096FC2660002E97
:100E300000F0D182784B1B780F2B00F0ED822B460F
:100E4000764AA0212AA816F0E3FB75492AA816F0D5
:100E5000B7FC0346002800F0158106AE4FF0000AEB
:100E6000B3464BF8043B00206D490AF1010A16F025
:100E7000A7FC0346002800F00181BAF10C0FF0D165
:100E800033681A78522A40F0FD805A784B2A40F095
:100E9000F9809B78002B40F0F58062497068FFF77D
:100EA00017FA002840F0EE805F49B068FFF710FAAB
:100EB000002840F0E7805D49F068FFF709FA002854
:100EC00040F0E0805A493069FFF702FA002840F00C
:100ED000D9805849B069FFF7FBF9002840F0D2806B
:100EE0005549306AFFF7F4F9002840F0CB805349A8
:100EF000B06AFFF7EDF9002840F0C480D6F814B0CE
:100F00000A2205A9584616F0B5FA9BF8003002905F
:100F1000002B00F0B780059B93F800B0BBF1000FE9
:100F200040F0B080002800F0AD80F36944491846D5
:100F30000393FFF7CDF9002800F066830398414939
:100F4000FFF7C6F9002840F09D80736A0A2205A9C0
:100F50001846039316F08EFA039B1B78002B00F0C3
:100F60009180059B1B78002B40F08C80B0F5C87FEA
:100F700040F08880F66A0A2205A9304616F07AFA0F
:100F80003378002B7ED0059B1B78002B7AD1B0F5EF
:100F9000B47F77D12C4B1A782C4B1878024340F051
:100FA00001832B4A2B4812680068024340F0FA8202
:100FB000012002991870284B83F800B0274B196064
:100FC000274B1A70274B1A70274B1A70274B1A7031
:100FD000274B1A70BBF1000F00F01C831849029BCD
:100FE0002AA8244A0091802116F012FB2AA807F0B3
:100FF00043FC214807F028FC0023236000273846E3
:1010000053B0BDE8F08F00BF24040020200400206E
:1010100080030020ECA7010810050020B0A60108FD
:10102000B4A6010880A7010888A701081CA8010828
:1010300090A7010894A7010824A80108F4A60108B4
:101040009CA70108A0A7010849040020350400203E
:10105000380400202C040020340400203004002038
:101060002904002028040020270400202604002052
:101070002504002048A8010870A80108BAF10C0F47
:101080003FF4FEAE2368002B00F0A5812B46804A7A
:10109000A0212AA816F0BCFA7E492AA816F090FBD7
:1010A0000346002839D04FF0000A0DF1180B4BF819
:1010B000043B002077490AF1010A16F081FB034640
:1010C000002800F0A481BAF10C0FF0D1069B1A7829
:1010D000522A22D15A784B2A1FD19B78EBB96E49FC
:1010E0000798FFF7F5F8C0B96C490898FFF7F0F8D2
:1010F00098B96B490998FFF7EBF870B969490A98F4
:10110000FFF7E6F848B968490C98FFF7E1F820B90D
:101110000E9B1A784C2A00F0B4812368002B00F053
:101120005A812B465A4AA0212AA816F071FA594929
:101130002AA816F045FB0346002800F0CF8006AE33
:101140004FF0000AB3464BF8043B002051490AF126
:10115000010A16F035FB0346002800F0BB80BAF107
:101160000A0FF0D133681A78522A40F0B7805A78C3
:101170004B2A40F0B3809B78002B40F0AF8046496B
:101180007068FFF7A5F8002840F0A8804349B068D0
:10119000FFF79EF8002840F0A1804449F068FFF76F
:1011A00097F8002840F09A803E493069FFF790F8A0
:1011B000002840F093803C49B069FFF789F8002887
:1011C00040F08C803A49306AFFF782F8002840F0FE
:1011D0008580D6F81CB037495846FFF779F828B112
:1011E00035495846FFF774F8002877D1736905A987
:1011F0000A221846029316F03DF9029B82461B789C
:10120000002B6BD0059B05A91B78002B66D100280D
:1012100064D0736A0A221846029316F02BF9029BD7
:1012200006461B78002B59D0059B1B78002B55D107
:10123000431E062B52D858461E49FFF749F81F4B4C
:10124000B0FA80F01A784009002A47D11C4A126887
:10125000524543D11B4A127882423FD10121197075
:10126000194BC3F800A0194B1E60002A00F0D4816E
:10127000104A00925346164A60212AA8019616F099
:10128000C7F92AA807F0F8FA00232360B7E600BFE1
:10129000B0A60108B4A6010880A7010890A801081B
:1012A0001CA8010890A7010894A701083CA90108FF
:1012B00044A901089CA70108A0A70108490400202F
:1012C0003804002048040020440400203C0400208E
:1012D0004CA90108BAF10A0F3FF444AF2B469B4AD0
:1012E000A0212AA816F094F999492AA816F068FABC
:1012F0000346002863D0002605AF47F8043F0020CE
:101300009349013616F05CFA0346002855D0082EA2
:10131000F3D1069B1A78522A51D15A784B2A4ED1D2
:101320009B78002B4BD18B490798FEF7D1FF002803
:1013300045D189490898FEF7CBFF00283FD187495E
:101340000998FEF7C5FF002839D185490A98FEF7AC
:10135000BFFF002833D183490C98FEF7B9FF70BB5B
:101360000D9F81493846FEF7B3FF20B17F493846CB
:10137000FEF7AEFF18BBDDF82CB00A2205A95846CF
:1013800016F078F89BF800300646C3B1059B1B7831
:10139000ABB9A0B174493846FEF79AFF744BB0FA66
:1013A00080F01B684009B34209D1724B1B7883421D
:1013B00005D1714B01221A700DE0082EA9D06F489B
:1013C00007F042FA6E4A236860212AA816F020F935
:1013D0002AA807F051FA0023236009F10109C84542
:1013E0007FF404AD0AE6721C9F2A02D82260AB5536
:1013F000F3E76448276007F03FFAEEE762492846C2
:1014000016F044FA824600287FF405AD0FE5BAF1E4
:101410000C0F7FF482AE59E65C494C23DFF880E183
:1014200001F10C0B0A78A3F1610CA3F12006013144
:10143000A2F12000A2F1610A5FFA8CFCF6B2C0B200
:10144000BCF1190F98BF3346BAF1190F98BF024685
:101450009A427FF4F4AC8B451EF8013FE2D14B4831
:10146000FFF774FB00232360C8E501220F201A70E8
:101470001D2209F0C5FA002864D0454807F0E4F9B8
:10148000AEE45A78312A7FF448AE9B78002B7FF483
:1014900044AE109B1A784C2A7FF43FAE5A78322A19
:1014A0007FF43BAE9B78002B7FF437AE0B9B0A2278
:1014B00005A91846029315F0DDFF029B83461B78B1
:1014C000002B3FF42AAE059B1B78002B7FF425AE42
:1014D00000283FF422AE0F9B02935B78002B7FF431
:1014E0001CAE119B93F801A00393BAF1000F7FF497
:1014F00014AE1D490D98FEF7EBFE002800F0878022
:101500000D981A49FEF7E4FE00287FF406AE029B10
:101510001E78A6F14103032B3FF6FFAD039B18781D
:10152000A0F14103032B3FF6F8AD86423FF4F5AD41
:10153000184B197811B90E490968B9B3164807F064
:101540009BF948E7154807F07FF949E4B0A6010880
:10155000B4A6010880A7010890A801087CA9010889
:1015600090A7010894A701089CA70108A0A701085B
:1015700038040020480400203704002084A9010812
:10158000A8A90108D4A90108FCA70108800300202C
:10159000A8A701084904002098A80108C8A70108C5
:1015A0000CA801081D4807F067F925E501221A700B
:1015B0001E221B4B83F800A01A4BC3F800B01A4B35
:1015C0001E701A4B18700F20194B196009F018FA89
:1015D000A0B1184807F038F9BAF1000F12D0164A36
:1015E0005B46602100922AA8144A16F011F82AA836
:1015F00007F042F9124807F027F945E6114807F0CD
:1016000023F9E9E7104AEBE74FF0010B9DE44FF0B7
:10161000010A7CE70C49E2E40B4A2AE630A80108FB
:10162000480400204404002041040020400400201D
:101630003C040020B0A801089CA70108F4A80108F8
:101640001CA90108D0A80108A0A701085F4BB9EEAA
:10165000007AD3ED007AF4EEC77AF1EE10FA00F1D9
:101660009F80B1EE007ADFED5A6AF4EEC77AF1EEB0
:1016700010FA37FE277AF0EEC77AF4EEE67AF1EE4A
:1016800010FA40F28A80B5EEC07AF1EE10FA40F31B
:10169000998037EE667AF9EE007AD3ED016AF4EEBE
:1016A000E76AF1EE10FA00F18480F1EE007A9FED26
:1016B000486AF4EEE76AF1EE10FA77FEA67AF0EEE9
:1016C000E76AF4EEC66AF1EE10FA75D9F5EEC07A63
:1016D000F1EE10FA73DD77EEC67A61EEA75A90ED5F
:1016E000006A61EE277AD0ED016A9FED3A5AE1EE89
:1016F000075AE1EEC77AA5EE826AE7EE826A76EED5
:10170000407AF4EEC57AF1EE10FA4FD49FED327ABA
:101710009FED2F6AF4EEC77AF1EE10FA37FE277AC2
:1017200027EE066A76EEE07A9FED2A7AF4EEC77A23
:10173000F1EE10FA37D49FED287ADFED256AF4EE4A
:10174000C77AF1EE10FA77FE277A67EEA67A30EEC6
:10175000067ADFED226AB0EEC00A70EEA77A80ED5D
:10176000007AB4EEE60AC0ED017AF1EE10FA13D871
:10177000F0EEE00AF4EEE60AF1EE10FA0CD8184B9F
:10178000D3ED007AF0EEE77AF4EEE67AF1EE10FAB5
:1017900002D800230360436070479FED127A7AE716
:1017A0009FED117A77E7DFED117AD0E79FED0F6AB1
:1017B000B8E7DFED0D7A90E7DFED0A7A8DE777EE97
:1017C000867A8AE737EE267A65E700BFCC040020E8
:1017D0000AD7A33D9A9919BE9A99193E0AD7A33CF4
:1017E000F80400200000000048E17AC0A69B44BC39
:1017F000F8B50B780E460746F3B101380D4602E006
:1018000015F8013FC3B110F8012FA3F16101A3F155
:10181000200EA2F1200CA2F16104C9B25FFA8EFE83
:101820005FFA8CFC192998BF7346192C98BF624641
:101830009A42E5D00020F8BD3046FEF753FD385CF3
:101840002C2818BF00280CBF01200020F8BD00BFC5
:101850002DE9F04104460138524E522304F11E088E
:10186000054615F8012FA3F1610EA3F1200CA2F19A
:101870002001A2F161075FFA8EFE5FFA8CFCC9B20B
:10188000BEF1190F98BF6346192F98BF0A469A42B6
:101890000DD1454516F8013FE3D101234249434AA2
:1018A0000B7043481370BDE8F04106F0CDBF414EC8
:1018B00004F110080546522315F8012FA3F1610E1B
:1018C000A3F1200CA2F12001A2F161075FFA8EFEC4
:1018D0005FFA8CFCC9B2BEF1190F98BF6346192F8D
:1018E00098BF0A469A420ED1454516F8013FE3D10A
:1018F000002431492D4B01220C701A702F48BDE88D
:10190000F04106F0A1BF2E4F04F10F080646522306
:1019100016F8012FA3F1610CA3F12005A2F120011B
:10192000A2F1610E5FFA8CFCEDB2C9B2BCF1190FE5
:1019300098BF2B46BEF1190F98BF0A469A4208D1AC
:10194000B04517F8013FE3D11E48BDE8F04106F06D
:101950007BBF1D4E0B34522310F8012FA3F1610CF5
:10196000A3F12005A2F12001A2F161075FFA8CFC2E
:10197000EDB2C9B2BCF1190F98BF2B46192F98BF11
:101980000A469A420BD1A04216F8013FE4D1074B18
:1019900001220E481A70BDE8F04106F055BFBDE8BF
:1019A000F08100BF00AA0108C9040020CA04002079
:1019B00088AA0108B0AA0108BC0400205CAA01089A
:1019C00074AA010834AA01084CAA010820AA010837
:1019D0002DE9F04790B00BF085FC404B1B7823B904
:1019E0003F4A1368C31AF92B66D8402168460AF0AB
:1019F000D9FEF0B16C463B4E3B4D271806E0501C1B
:101A00005F2819D83060AB54BC4212D014F8013BA7
:101A100032680D2B06D0A3F10A01B1FA81F1490910
:101A20000029ECD00023AB545AB90023BC423360E8
:101A3000ECD110B0BDE8F0872C48316006F050FFC3
:101A4000E2E72B4806F000FF284606F0FDFE294895
:101A500006F0FAFE284B1A780F2A06D01B78072BBF
:101A600003D02846FFF7F4FEDFE71F494C23DFF8D9
:101A7000A48001F10C0A0A78A3F1610EA3F1200001
:101A80000131A2F1200CA2F161095FFA8EFEC0B211
:101A90005FFA8CFCBEF1190F98BF0346B9F1190F1C
:101AA00098BF62469A42DCD18A4518F8013FE2D1DC
:101AB0000D48FFF74BF8B8E71049114B10600A7852
:101AC0001B7822B933B10F4806F0D6FE8DE71BB163
:101AD0000D48F9E70D48F7E70D48F5E7C804002081
:101AE000B80400204C0400205004002004AB01087E
:101AF000F4AA010800AB010810050020BC04002076
:101B0000BD040020C4AA010878A60108DCAA0108C7
:101B100094A601080CA8010830B59FB00BF0E2FBB9
:101B2000284B04461B78E3B12749284B0A78EAB1D1
:101B30002749284D0A68A21AB2F5967F2AD2264B69
:101B40001B6843B9254B1B68002B34D1244B1B78F1
:101B50000BB9FFF73DFF2878003818BF01201FB0F0
:101B600030BD19491F4B0A78002AE1D10120194DD7
:101B700005930870A4F5967015492A7008601A48F4
:101B8000049106F0ADFEDDE904130A68A21AB2F56D
:101B9000967FD4D34FF4167240F28A200C606021F5
:101BA000029006A8CDE90022104A15F031FD06A8E2
:101BB00006F062FEC3E70E4B1B78002BCBD1FFF77C
:101BC000FFF8C8E7BD040020C80400209CA7010856
:101BD000C4040020C90400202C0400203804002084
:101BE000BF040020A0A7010828AB010854AB0108DE
:101BF00036040020144B1B6810B5044682B03BB974
:101C0000124B1B688BB9124B1B780BB9FFF7E0FE28
:101C100007F0D0FE18B9019007F0D2FE60B9204657
:101C200002B0BDE8104007F057BC0A4B1B78002BF0
:101C3000EED1FFF7C5F8EBE7FEF74AFE064A0921A9
:101C40000198116002B010BD2C040020380400205F
:101C5000BF040020360400200C050020154B1B6833
:101C600000B583B03BB9144B1B68A3B9134B1B7869
:101C70000BB9FFF7ADFE07F09DFE18B9019007F014
:101C80009FFE78B90BF02EFB07F096FB03B05DF8D2
:101C900004EB07F051BC0A4B1B78002BEBD1FFF78C
:101CA0008FF8E8E7FEF714FE064A09210198116053
:101CB00003B000BD2C04002038040020BF04002025
:101CC000360400200C0500202DE9F04FADF54B7DCA
:101CD00082460BF007FBA74B05901A6812F1010929
:101CE00000F0C5814A46DFF8E0B240F6B8381A6025
:101CF0009BF80030059A002B9F4BA2F1C801A2F17E
:101D00000A021B7808BF4FF4E16807910692002B86
:101D100000F0AB81994C9A495046FEF7D9FA4EF63D
:101D2000602347F230524021CDE900940024A042C4
:101D300008BF1A46934B1AA81C70934B09921C704B
:101D40005346924A15F064FC5346914A40212AA812
:101D5000CDF8009015F05CFC53468E4A40213AA81D
:101D6000CDF8009015F054FC53468B4A40214AA808
:101D7000CDF8009015F04CFC5346884A40215AA8F3
:101D8000CDF8009015F044FC5346854A40216AA8DE
:101D9000CDF8009015F03CFC5346824A40217AA8C9
:101DA000CDF8009015F034FC53467F4A6021B2A86C
:101DB000CDF8009015F02CFCB2A806F091FD0BF0C8
:101DC00091FA059B054604940893069BCDF80C9068
:101DD000EB1A092B40D8079BEB1AC72B46D80027D4
:101DE0000DF12809402148460AF0DCFC00B309EB5C
:101DF00000064D46204609E0421C5F2A44D80DEB00
:101E00000004104684F86832B54210D015F8013B42
:101E10000D2B01D00A2BEFD10DEB0003002283F82C
:101E20006822002834D1B5424FF00000EED10446BC
:101E30000BF058FA002F40F0F880059BC01A40457F
:101E400080F0348101200BF053FA0BF04BFA069B23
:101E50000546EB1A092BBED9FFF700FF002800F05A
:101E60006881079B0695EB1AC72BB8D91AA806F00C
:101E700003FD53464D4A6021B2A815F0C9FBB2A834
:101E800006F0E2FC0795AAE7494806F029FDCAE7F3
:101E9000484806F0D9FC9AA806F0D6FC464806F059
:101EA000D3FC9AA8FFF7D4FC40F6B8339BF8002087
:101EB0003AA943459AA838BF4346002A18BF984616
:101EC000FFF796FC0446002800F08080002F00F009
:101ED000A880039B6021394AB2A80093534615F0AD
:101EE00097FBB2A806F0FCFC4AA99AA8FFF780FC71
:101EF000002872D17AA99AA8FFF77AFC0746002831
:101F000040F0B8806AA99AA8FFF772FC80B142F647
:101F1000E06398450AD0039B6021294AB2A8009348
:101F2000534615F075FBB2A806F0DAFC42F6E068FD
:101F3000DCB19AA85AA9FFF75BFC08B9274663E70A
:101F40000BF0D0F9039BA0F1C8041E4A6021009356
:101F500005905346B2A8079415F05AFBB2A806F0B4
:101F6000BFFC40F6B83800230493B54200F09480DB
:101F700000204BE7B4040020BD0400209CA701080A
:101F800090AB0108C1040020C00400209CAB0108F4
:101F9000BCAB0108D4AB0108ECAB010804AC0108F0
:101FA0001CAC010834AC01084CAC0108D8AC0108E9
:101FB000E0AD0108F4AA010800AB0108F0AC01088B
:101FC00098AD0108B4AD0108CA0400204AA99AA836
:101FD0003C46FFF70DFC00288CD059495046DDF8EF
:101FE0000C90FEF775F900285AD156499AA815F0B9
:101FF0004DFC011E18BF0121534C5346534AB2A851
:10200000CDF800902170602115F002FBB2A806F017
:1020100067FC2378002B45D101200DF54B7DBDE8F1
:10202000F08F0BF05FF9049053E701200BF060F99B
:102030000BF058F9049B099A0546C31A93424CD2F7
:10204000069BEB1A092B0AD8089BEB1AB3F57A7F8B
:10205000FFF4C8AE2AA806F00FFC0895C2E6FFF709
:10206000FDFD002865D00695EEE7394C53E60122C8
:10207000914638E6DDF80C905346364A6021B2A806
:10208000CDF8009015F0C4FAB2A806F029FC324B46
:102090000A221A600020C0E700240BF023F9CCE6E6
:1020A0000021A9E72D4806F01BFCB5E7DDF80C90F0
:1020B00053462B4A6021B2A8CDF8009015F0A8FA3B
:1020C000B2A806F00DFC00210122234B8BF8001072
:1020D0001D490A7008221A60DCE7DDF80C905346AF
:1020E000204A6021B2A8CDF8009015F091FAB2A86C
:1020F00006F0F6FB53461C4A40218AA8CDF8009012
:1021000015F086FA8AA806F0B7FB8AA806F0B4FB99
:102110005346164A6021B2A8CDF8009015F078FA1F
:10212000B2A806F0DDFB0123074A1370104A1370B2
:1021300072E7094B1A68092AACD005221A60A9E790
:1021400090AB010808AD0108C10400201CAD0108D6
:10215000A0A7010874AD01080C05002038AD0108E6
:10216000FCAD010868AC01088CAC0108A4AC010806
:10217000C00400202DE9F04FADF5617D0C460790BD
:102180000BF0B0F8A54B0C901A6812F1010800F0A2
:1021900096814246DFF8C8A240F6B8371A609AF82E
:1021A00000209F4B002A0C9A1B78A2F1C801A2F1D3
:1021B0000A0208BF4FF4E1670A910992002B00F070
:1021C0007B81984B0D93002C00F04C810D9BC0A897
:1021D000954A8021009302230F900193434615F006
:1021E00017FA38A84346914A6021049015F010FA76
:1021F00050A843468E4A6021059015F009FA68A858
:1022000043468C4A6021069015F002FA20A8434606
:10221000894A60210E9015F0FBF9884B0893079BC3
:102220008021874AA0A802930D9BCDE90083089BDB
:1022300015F0EEF9A0A806F053FB0BF053F80023BD
:1022400004461D460B93099BE31A092B3DD80A9BB4
:10225000E31AC72B43D810AE402130460AF0A2FA49
:102260008346002800F044814FF0000900242846EE
:1022700008E0421C7F2A45D880A90B54104601343F
:102280005C450DD2335D0D2B01D00A2BF1D100231B
:1022900080AA1354002839D1013400205C45F1D3C1
:1022A00005460BF01FF8B9F1000F7ED10C9BC01A48
:1022B000874240F2248101200BF01AF80BF012F84B
:1022C000099B0446E31A092BC1D9FFF7C7FC002874
:1022D00000F03F810A9B0994E31AC72BBBD90F98E2
:1022E00006F0CAFA079B574A80210293A0A80D9BCB
:1022F000CDE90083089B15F08BF9A0A806F0A4FA9D
:102300000A94A8E7504806F0EBFAC5E74F4806F0F4
:102310009BFA80A806F098FA4D4806F095FA80A836
:10232000FFF796FA40F6B8339AF8002080A804998F
:10233000002A18BF1F46FFF75BFA054678B1B9F1CE
:10234000000F2ED0079B8021424AA0A8A946CDE9C4
:102350000083089B15F05CF9A0A806F0C1FA059966
:1023600080A8FFF745FA002840F0AC8080A80699C5
:10237000FFF73EFA002882D00799A0A8089B364AAA
:10238000CDE90081802115F043F9A0A806F0A8FA54
:10239000324B0A221A60002528460DF5617DBDE802
:1023A000F08F0AF09FFF0B90CCE7012047F22F54EB
:1023B0000AF09EFF0AF096FF83460B9B099AABEB4F
:1023C0000303ABEB0202A34200F2B080092A1CD83F
:1023D0000A9BABEB0303B3F57A7F10D24021304662
:1023E0000AF0E0F9834600287FF440AF0AF07AFF54
:1023F00001200AF07DFF0AF075FF8346DDE70E98A5
:1024000006F03AFACDF828B0E8E7FFF727FC0028F5
:1024100000F09F80CDF824B0DAE700BFB4040020BC
:10242000BD0400209CA7010834AE01086CAE010871
:1024300098AE0108C4AE0108E8AE010828AE010854
:1024400088AF0108F8AF0108C4B00108F4AA010878
:1024500000AB010834B0010894B001080C0500205D
:10246000CA040020079BC0A83E4A802101930D9B0F
:102470000F900093434615F0CBF838A843463A4AEC
:102480006021049015F0C4F850A84346374A6021F3
:10249000059015F0BDF868A84346354A60210690BE
:1024A00015F0B6F820A84346324A60210E9015F088
:1024B000AFF8314B0893B2E6304B0D9383E601221F
:1024C000904667E6079B05462D49002001932D4A5B
:1024D000089BCDF8008008708021A0A815F098F81E
:1024E000A0A806F0FDF928460DF5617DBDE8F08F46
:1024F0000AF0F8FE0C9BC31ABB42FFF4DCAEDDE928
:1025000007238021A0A80192CDF800801E4A15F073
:102510007FF8A0A806F0E4F9194A012100201B4B1E
:10252000117008228AF800001A6034E70799A0A801
:10253000089B174ACDE90081802115F069F8A0A811
:1025400006F0CEF90E490120104B082208701A60DF
:1025500021E70E4B1A68092A3FF41DAF05221A60C5
:1025600019E700BF0CAF010840AF010864AF0108D4
:10257000C4AE0108E8AE010820AE0108A0A701081A
:10258000C104002064B00108ECB001080C05002073
:10259000C4AF01082DE9F04FADF5077D83460AF081
:1025A000A1FE974B05901A6812F1010A00F0DE8037
:1025B0005246DFF89C8240F6B8361A6098F8003030
:1025C000059A002B8F4BA2F1C801A2F10A021B78D9
:1025D00008BF4FF4E16603910492002B00F0C48021
:1025E000894B0027894A402116A8CDE900A3884BD2
:1025F0001F705B4615F00CF85B46864A402126A802
:10260000CDF800A015F004F85B46834A402136A8B7
:10261000CDF800A014F0FCFF5B46804A402146A89C
:10262000CDF800A014F0F4FF5B467D4A60216EA84F
:10263000CDF800A014F0ECFF6EA806F051F90AF0F6
:1026400051FE049B0446C31A092B76D8039BE31A58
:10265000C72B7BD8402106A80AF0A4F800285BD03D
:1026600006AC251809E07A1C5F2A5FD86F4487F80A
:10267000583117460134AC424ED023780D2B08D088
:10268000A3F10A09B9FA89F94FEA5919B9F1000F0A
:10269000E9D04FF000090DEB070383F85891002FA4
:1026A000E8D0604806F0D0F856A806F0CDF85E48AD
:1026B00006F0CAF856A8FFF7CBF840F6B83398F8FA
:1026C000002026A9B34256A838BF33464A4518BF52
:1026D0001E46FFF78DF800284BD146A956A8FFF7F4
:1026E00087F8074600285BD156A836A9FFF780F87F
:1026F00008B342F6E0694E45BCD05B464B4A6021C8
:102700006EA80134CDF800A014F082FF6EA806F088
:10271000E7F8AC424E46B0D10AF0E4FD059BC01A82
:10272000B04251D201200AF0E3FD88E740484F460D
:1027300006F0D6F89EE707469CE7FFF78FFA0028D9
:1027400057D0039B0494E31AC72B83D916A806F02D
:1027500093F85B46374A60216EA814F059FF6EA8C3
:1027600006F072F8039475E7334B3AE7012292467C
:102770001FE7274B074631496EA883F800905B4658
:102780002F4ACDF800A0C1F800A0602114F040FF4E
:102790006EA806F0A5F838460DF5077DBDE8F08F68
:1027A0005B46284A60216EA8CDF800A014F030FFE7
:1027B0006EA806F095F8244B0A221A6000273846C6
:1027C0000DF5077DBDE8F08F5B46204A60216EA8BD
:1027D000CDF800A014F01CFF6EA806F081F80021CF
:1027E0000122194B88F8001009490A7008221A6062
:1027F000E4E7154B1A68092AE0D005221A60DDE7E4
:10280000B4040020BD0400209CA701089CAB010873
:10281000C1040020D4AB01081CAC010834AC010891
:1028200024B10108F4AA010800AB0108ACB1010809
:10283000E0AD010844B10108A0A70108B0040020E0
:1028400064B1010884B101080C050020D0B1010871
:10285000CA0400202DE9F04FDFF80C82F5B0039098
:102860000AF040FDD8F80030002B00F0B280039C45
:102870004021704AA0F10A0A009381462346A0F144
:10288000C80B14A814F0C4FED8F800306A4A4021DE
:10289000009324A8234614F0BBFED8F80030674A02
:1028A0004021009334A8234614F0B2FED8F800303B
:1028B000634A602100935CA82346002414F0A8FE1C
:1028C0005CA806F00DF80AF00DFDA0EB0A03054622
:1028D000092B37D8A5EB0B03C72B3CD8402104A804
:1028E00009F060FFE0B104AD2F1807E05F290C4646
:1028F0003FD8013500F8C02CBD4211D02A7804F52C
:10290000E873611C00260D2A0DEB030001D00A2A92
:10291000ECD100F8C06C84BB01350024BD42EDD180
:102920000AF0E0FC43F69723A0EB0900984269D82F
:1029300001200AF0DDFC0AF0D5FCA0EB0A030546F5
:10294000092BC7D9FFF78AF900286BD0A5EB0B0339
:10295000AA46C72BC2D914A8AB4605F08DFF039B2E
:10296000384A60215CA814F053FE5CA805F06CFFA7
:10297000B4E7354805F0B4FFCEE7344805F064FF0E
:1029800044A805F061FF324805F05EFF44A8FEF759
:102990005FFF24A944A8FEF72BFF044634A944A8EE
:1029A000F4B9FEF725FF0028B6D0D8F80000602162
:1029B000039B284A00905CA814F02AFE5CA805F04E
:1029C0008FFF254B0A221A600024204675B0BDE80F
:1029D000F08F224805F084FF1F4B0A221A60F3E7AC
:1029E000D8F800206021039B5CA800921C4A14F0D8
:1029F0000FFE5CA805F074FF2046C8F8006075B0B3
:102A0000BDE8F08FD8F800006021039B154A0090C4
:102A10005CA814F0FDFD5CA805F062FF0E4B0822D7
:102A20001A60D1E70C4B1A68092ACDD005221A602A
:102A3000CAE700BF8CAC0108ECAB010834AC01085C
:102A400020B2010840B20108E0AD0108F4AA010873
:102A500000AB010878B201080C050020F8B10108AC
:102A600058B20108A0B20108B00400202DE9F04FCF
:102A7000ADF5437D0D4617461E4604460AF032FC6E
:102A8000A64A0690116811F1010800F0D380434670
:102A90001360A34B1B78002B00F0CA80A14A172CAF
:102AA00018BF0C2C0CBF012300230BD0032E09D020
:102AB0009D4B06221A604FF0000840460DF5437DFD
:102AC000BDE8F08F0EB1002BF2D10CB1032EEFD088
:102AD000A5F5FA71B1F5FA6FEAD842F20F718F429B
:102AE000E6D806990092A1F1C8000A39089007912A
:102AF000002B00F0D7809AA80AAE43468B4AA0214B
:102B000001940990CDE9025714F082FD4346884AAA
:102B10004021304614F07CFD1AA84346854A4021E6
:102B2000834614F075FD2AA84346834A4021059048
:102B300014F06EFD814B824A802152A8CDE9003409
:102B4000CDE90257434614F063FD52A805F0C8FED4
:102B50000AF0C8FB079B0446C31A092B00F2C98080
:102B60004FF000080DF1E80A089BE31AC72B00F2AA
:102B700094806021504609F015FE8146002800F03F
:102B8000BB80002554460027424609E0511C9F297E
:102B900053D872A883540A46013701344F450ED2E8
:102BA00023780D2B01D00A2BF0D1002372A98B546E
:102BB000002A46D10137002201344F45F0D3904618
:102BC0000AF090FB25BB069BC01A40F6B73398422B
:102BD00000F29580012000250AF08AFB0AF082FBB2
:102BE000079B0446C31A092BBED9FFF737F8002804
:102BF00000F0BE800DF1E80A0794002DB4D06021EA
:102C0000504609F0CFFD81460028BBD10AF06AFB8F
:102C1000401B41F28733984278D801200AF068FBC4
:102C20000AF060FB079B0446C31A092BE7D9DCE7CF
:102C3000444A34E7012398462AE7434805F050FE0A
:102C4000B8E7424805F000FE72A805F0FDFD4048D7
:102C500005F0FAFD314672A8FEF7CAFD50B1002D0D
:102C6000A8D10AF03FFB80463A4805F0EDFD2A4620
:102C7000454691E7594672A8FEF7BAFD002833D1C0
:102C800072A80599FEF7B4FD002893D0324805F0EC
:102C900027FE254B0A221A600DE7099805F0ECFD86
:102CA000089466E79AA8019634460AAE43462B4A32
:102CB000A0210990CDE9025714F0AAFC43461C4A12
:102CC0004021304614F0A4FC1AA84346194A40217A
:102CD000834614F09DFC2AA84346174A40210590DC
:102CE00014F096FC1E4B26E780461E4805F0F8FDC2
:102CF000E3E60025A84678E70AF0F4FA63E71A4805
:102D000005F0EEFD084B08221A60D4E6174805F0DE
:102D1000E7FD054B08221A60CDE600BFB404002091
:102D2000BD0400209CA701080C050020C8B20108C2
:102D30000CB3010824B301083CB30108E4CB01083B
:102D400098B30108A0A7010814B40108F4AA010867
:102D500000AB0108D4B30108F8B3010854B301086B
:102D6000C4B20108E4B3010834B401084CB401084A
:102D7000034B1A68092A3FF49EAE05221A609AE6B0
:102D80000C050020F8B507460AF0ACFA0646A0F19B
:102D90000A050BE00AF0A6FA431B092B03D90546E6
:102DA000FEF75CFF40B101200AF0A2FA0AF09AFA9D
:102DB000801BB842EED3F8BD044B1A68092A01D033
:102DC00005221A60024B07221A70F8BD0C0500207C
:102DD000100500202DE9F04F00232DED108BE5B0FC
:102DE0009FED999AB0EE408A1993F0EE608A8DEDCE
:102DF000129A8DED139A8DED149ACDE91A33CDE91F
:102E00001C33CDE91E33CDE92033CDE917338F4B89
:102E1000D3ED00EA0AF066FAB0EE492A9FED9A1A5D
:102E2000F0EE491A23AA012305908DED229A07EEB0
:102E3000903AF0EE480A16A915A8B8EEE70A013351
:102E400020EE010AFDF700FDF0EE427A9DED162A14
:102E5000B0EE617ADDED151A412B72EE677A52ED14
:102E6000016A31EEC77A67EEA77AE7EE077AB1EE2C
:102E7000E77A77EE267AE2EC017AD8D19DED62BA54
:102E80009FED73CAB4EECCBAF1EE10FA08D8714BCC
:102E9000062200201A6065B0BDEC108BBDE8F08FF3
:102EA000DFED69AA6C4B9FED6D7AB0EE6A9AC3EDC7
:102EB00000AAF0EE6ABA6A4B68EE878ADFED697A9B
:102EC000B0EE6AAAC3ED00AAF0EE6A9A664B68EE0D
:102ED000A77A9FED66FAF0EE6ADAC3ED00AAB0EECB
:102EE0006ADA634B28EE0F7A059EF0EE6ACAC3EDEC
:102EF00000AA604B3746CDED097A7EEEA77AC3ED86
:102F000000AAA6F1FA038DED027AB0460793CDED43
:102F1000087AFEF701FE00230122CDED03EA0B93B0
:102F200006920A930AF0DEF90646FEF7F5FD059AC9
:102F300042F22733B21A9A4200F24183F31B092B63
:102F400040F2BE83A6EB08030A3707EE903AF31B64
:102F5000F8EE677A092B88BF374667EE8C7AF4EE75
:102F6000CC7AF1EE10FA00F189839FED432AF4EE5A
:102F7000C27AF1EE10FA72FE27EAB0EE6E0AFDF7A1
:102F8000EFFC14AB12AA1EA9009313AB3B4806F04A
:102F900073F98046002800F0D183DFF8E4B0DDED5E
:102FA000037ADBED008A78EEE78AB0EE680A13F068
:102FB000AFFAF0EE40FAB0EE680A13F0A9F99DED11
:102FC000137ADDED127AF0EE401A67EE006A9DF892
:102FD000643027EE2F7AE7EEAF6AA0EE677AB0EEA4
:102FE00066FAB0EE47EA002B00F05083B0EE6E2A8E
:102FF00017A8B0EE6F1AF0EE470AB0EE660AFEF7B9
:1030000025FB9DED17FA9DED18EA89EE8B6AB5EE6A
:10301000C06AF1EE10FA00F13483F7EE008AB4EEE4
:10302000E86AF1EE10FAF5EEC09A38FE866AF1EE23
:1030300010FA40F28783F4EECB9AF1EE10FA5ADAE6
:1030400023AA012332E000BF00000000DC040020BE
:103050006F12833A0C050020F8040020DA0FC93FF4
:10306000F404002080B7803FE804002014AE073F3E
:10307000E4040020E0040020CDCC4C3D60CC0108ED
:10308000FC040020BD3786350000803C4627AB3D60
:103090000C75203FCDCCCCBE9A9919BEEC5158C0CE
:1030A000AE47613F0133412B00F04583D2ED007AFA
:1030B0000432F4EEE79AF1EE10FAF3D8013B1FED7B
:1030C0000F5A0DEB8302D2ED225A77EEE57AF4EE39
:1030D000C57AF1EE10FA40F3058379EEE55A85EEF4
:1030E000A75A07EE903AF8EEE78A5FED197A78EE84
:1030F000858A68EEA78AF0EE480A16A9B0EE680A3B
:1031000015A88DED046AFDF79FFBF7EE005A5FED01
:10311000217AF0EE084A1FED224A28EE275A1FEDC9
:10312000237A75EEE85A9DED023AF1EE087A9DEDAC
:10313000046AA8EE443A65EEA43A65EEA77A68EE12
:10314000A44A63EEA53AF0EE455A67EEA87A64EE1B
:10315000A84AD8EE045A65EEA75A67EE877A1FEDA3
:10316000327AE5EE235A1FED335AE3EE877AE4EE26
:10317000835AE4EE857A25EEA55AA7EEA75AB1EE5A
:10318000C54AB4EECC4AF1EE10FA40F2D78285EE91
:10319000845A5FED3D5AE74B93ED003AC7EE844AFF
:1031A0009FEDE54A2EEE044A6FEE255A7BEE697AD2
:1031B000A4EE2EDAE5EEAECA64EE053AE5EEA43AE8
:1031C00024EE244AA5EE654AE3EEAEDAF0EEE35AC9
:1031D000A5EEAE3A7BEE6D8AF4EEE8AA83ED003AF6
:1031E000F1EE10FAF4EEE7AA3AFEA80AF1EE10FAB0
:1031F0007AFEA77AF4EEC07AF1EE10FA30FE270AD2
:10320000B5EE400AF1EE10FA00F1BB82F1EEC07AA1
:103210009FEDCA3AB4EEE73AF1EE10FA77FE837A00
:10322000B4EEE7AAB6EE003AF1EE10FA2EEE833ACB
:1032300040F10A823AEE033AB4EEE73AF1EE10FAC0
:1032400037FE83AAEAEE2E9ADFEDBD7AF4EECB9A32
:10325000F1EE10FA7BFE299A39EEED3A23EE273A89
:10326000FDEE007AB4EEE73AF1EE10FA07D4F5EE8F
:10327000007AB4EEE73AF1EE10FA77FE837A7AEE4E
:10328000277ABDEE003AF4EEC37AF1EE10FA00F1BF
:103290000E829FEDAA3AF4EEC37AF1EE10FA73FEB5
:1032A000277A77EEE33A9FEDA73A23EE833AE3EEEF
:1032B0002EBABDEE003AF4EEC3BAF1EE10FA00F108
:1032C000F381B5EE003AF4EEC3BAF1EE10FA73FEF4
:1032D0002BBA9FED9D3AE3EE837ABDEE003A77EE8E
:1032E000AB7AF4EEC37AF1EE10FA07D49FED933A7D
:1032F000F4EEC37AF1EE10FA33FE273ADDED167ADA
:10330000DDED152A7DEE677ADFED900A7CEEE22A8C
:103310008F4B67EEA47A83ED003AE5EE627ADFED3B
:103320008D2AF0EE673ADFED8C7A67EEC47AE3EE31
:10333000A27AF4EEE07AF1EE10FA07D4DFED870A14
:10334000F4EEE07AF1EE10FA70FEA70A844BDDEDA0
:10335000027AC3ED003ADFED833A77EECD2A824B55
:1033600073EEEC3AC3ED000A62EEA27A7F4BF5EE03
:10337000C03A83ED004AF1EE10FA00F1778177EE62
:10338000AA7AF0EE6A3AB1EEE74ADFED797AB4EE66
:10339000E76AF1EE10FAC0F26081DFED767AB4EE02
:1033A000E74AF1EE10FA05D9B4EECC4AF1EE10FA84
:1033B00000F39B81DFED700AF0EE6A7AF0EE603A7E
:1033C000634BC3ED007AB7EE005A9DED097AC3EE68
:1033D0000B4A6A4BB4EEC56AB0EE001AB0EE083A7A
:1033E000F1EE10FAF1EE087A21EEE00A75FE062AF7
:1033F000A2EEC13A62EEA22A35EE465A66EE277A6E
:1034000060EEAF0AA3EEAF0A23EE223ADFED5C2AAC
:1034100067EE857A9DED035AE3EEA10AA7EE035A03
:1034200027EE273ADBED007AD3ED003A75EE677AA6
:1034300067EEA27AE3EE247ADFED524AE3EEE47A15
:10344000DFED514AF4EEE47AF1EE10FA00F1298151
:10345000F4EEE27AF1EE10FA72FEA77ADFED4B4A53
:103460002EEEA42A79EE424AF4EEE74AF1EE10FA83
:1034700000F3148139EE022AF4EEC27AF1EE10FA6A
:1034800032FE279A424A9DED087A82ED009A414A1F
:10349000DBED007A82ED005A9FED355A77EE677AC0
:1034A000B4EEC56AF0EEE77AF1EE10FA80F2AE8083
:1034B000F0EEE88A9FED387AF4EEC78AF1EE10FA62
:1034C00000F2B7809FED2B7AF4EEC75AF1EE10FAB6
:1034D00000F2AF809FED317AF4EEC77AF1EE10FA88
:1034E0000AD8D3ED007A9FED2E7AF0EEE77AF4EE6B
:1034F000C77AF1EE10FA0DD9154BC3ED00AA1A4B9D
:10350000C3ED00AA0B9B002B00F0E080CDF82C80CF
:103510004FF00008B0EE491A1AA9224805F034FE0F
:10352000002800F00B811AA8FEF764FB002800F0C9
:10353000158139E0F00400209A99B93F3333B33F45
:103540009A99993FCDCC4C3F3333B33E9A9999BE6B
:10355000F80400209A9919C0AE47613E9A99993EA5
:10356000E80400201F857BC0E4040020E004002064
:103570009A99593F8FC2F53C0000000000050020D9
:10358000CDCC0C40CDCC4C3ECDCC0CC033337340B5
:10359000F4040020DC0400206F12033C0AD7A33C93
:1035A0000AD7233D60CC010809F09CFE1EA905F056
:1035B000E1FFA0B9069B5BB9824805F091F9824B07
:1035C00005221A60002065B0BDEC108BBDE8F08FBD
:1035D000CDE91E00CDE920007C4805F081F9079B6C
:1035E000F31AF92B66D807F0F5FCB8F1000F09D0F3
:1035F0000A9B002B68D0F31A3B2B4FF0000300F21C
:10360000B3800A930023B04606938BE49FED706A63
:10361000B4EEC64AF1EE10FA0BD82EEE0E7AAFEEEB
:103620000F7AF1EEC76AF4EEC66AF1EE10FA7FF691
:1036300051AF9FED687AF4EEC77AF1EE10FA1AD81E
:103640001B684FF0000865E73AEE433AF4EEC37AA0
:10365000F1EE10FA37FE83AAF4E565EE603A60EE0B
:10366000A40AE4EE833AE5EE030AACE6E3EEA37ABD
:10367000F1EE633A87E64FF000084BE7F0EE4CEAD4
:103680007BE4B0EE6A6AF0EE6A8A34E50123CDEDA0
:10369000176A8DED187A8DF86430B6E4B0EE649A4E
:1036A000F0E6F0EE647AD9E6F0EE43BA11E6F0EE19
:1036B000437AF6E51EA93046FDF7FCF9079692E736
:1036C000012009F015FE2DE40A969BE74248CDED56
:1036D0000B0A8DED040A05F003F9DDED0B0A9DEDF3
:1036E000040A13E7B0EE6A5AFBE4DFED3C0ADFEDB3
:1036F0003C7A62EEA00ADFED3B4A63EEA73A20EE89
:10370000A05AA3EEA35AF1EEC57AF4EEE47AF1EEF4
:1037100010FA1ADC9FED345AF4EEC57AF1EE10FA85
:103720007FF54EAEC5EE274AF0EE457A63EEA43A39
:1037300060EEA40A44E6F7EE008ADCE4224B06229F
:103740001A603FE7DFED298AD5E484EEA75AF0EE50
:10375000647A63EE853A60EE850A31E61A4B1A68A0
:10376000092A7FF42DAF2DE7214ADDED087AC2ED5D
:10377000007A204A1360204A1360FEF76FFAFFF7C1
:103780008ABBCDED111A8DED106A8DED0F4ACDED8E
:103790000E3A8DED0D5ACDED0C4ACDED045A12F0D6
:1037A0008DFDDDED111AF0EE407A9DED106A9DED74
:1037B0000F4ADDED0E3A9DED0D5ADDED0C4ADDEDC3
:1037C000045A25E5C0B401080C0500209CB401088A
:1037D0000AD7A33D0AD7A33C68B401089A99993F38
:1037E0009A9999BF6666E63E8FC2F53D00000000DB
:1037F000DC040020F8040020F4040020BA4B1A680E
:103800002DE9F04F01320D462DED088BADF51F7DF2
:10381000F0EE40AA1390089201D1012208920024F0
:103820001A6009F05FFD012D0F902494CDE9224428
:10383000CDE92644CDE92844CDE92A44CDE92C44FC
:1038400024D0089E3EA8A94D60213346A84A009581
:10385000129013F0DDFE139A3346029476ACA02149
:1038600001922046A34A00951B9413F0D1FE2046F6
:1038700005F036F8F5EEC0AAF1EE10FA40F22B8210
:103880009D4B1C68003C18BF01241EE09B4D3EA8C8
:10389000089E6021964A33460095129013F0B8FEB8
:1038A000139A3346009576ADA02101922846914A9D
:1038B00002941B9513F0ACFE284605F011F8F5EEC6
:1038C000C0AAF1EE10FA40F206828D4B00229FED65
:1038D0008D9A1C7090468C4BF0EE498AB0EE49BA36
:1038E000DFED8A9A83ED009A9346894B9FED89AA72
:1038F00083ED009A884B149283ED009A874B1692C1
:1039000083ED009A864B109283ED009A0F9B1A92DA
:10391000A3F12801A3F10A0A0C9301230E910B9342
:103920000D92179215921192CDE9182209F0DAFC46
:103930000F994EF65F230790A0EB0109994500F21D
:10394000CE81079B0E9A9B1A272B00F27D81402186
:103950002EA808F027FF20B32EAC00275A462518C2
:10396000CDE9099A08E056AB9F54002A40F0EC805C
:1039700000220134AC4211D023780A2B18BF0D2B42
:103980000CBF01260026EED0511C7F2900F21281C7
:10399000013456A8AC4283540A46EDD1DDE9099AB8
:1039A0009346079BA3EB0A03092B40F26681079B12
:1039B0000C9A9B1A07EE103AB8EE477A27EE297A4E
:1039C000B4EEE97AF1EE10FA00F14B81DFED557AB1
:1039D000B4EEE77AF1EE10FA37FE878AB0EE480AC5
:1039E000FCF7BEFFB8F1000F00F0F980079B119AB9
:1039F0009B1AB3F5AF7F00F2F280F0EECB7AB7EE10
:103A0000087AF4EEC77AF1EE10FA40F34581464B9E
:103A10009FED467AD3ED007A9FED451A67EE677AFF
:103A20009FED447AEBEE077AF4EEC17AF1EE10FAEC
:103A300007D49FED411AF4EEC17AF1EE10FA31FE8F
:103A4000271A0D9A002A00F02D81159B13995B1AF5
:103A5000642B40F32A81B1EE6A7A904668EE0A7AC6
:103A600077EE686AF4EEE67AF1EE10FA40F1DC8067
:103A700078EEA78AF0EE496AB1EE680AE8EEA86A25
:103A8000F1EEE67A204B2AA92C48F0EE490AC3ED64
:103A9000007A1F4B83ED001A05F076FB002800F03A
:103AA0002F812AA8FEF7A6F8002800F0988109F0D7
:103AB00019FC26A905F05EFD002840F088800B9BCC
:103AC000002B7DD11E4804F00BFF1E4B05220C4934
:103AD0000B981A60087000230D930D980DF51F7D4B
:103AE000BDEC088BBDE8F08FB404002000B70108DE
:103AF000D4B601081CB701083804002064B70108D7
:103B00003604002000000000F80400206F12833A01
:103B1000F4040020CDCCCC3DE8040020E4040020D7
:103B2000E0040020CDCC4C3D000500200AD7A33D89
:103B3000EC5138BE0AD7233DEC51383E60CC010829
:103B4000C0B401080C0500200DF1840A0DF18009B4
:103B50000DF17C0B1846FDF77BFE1EAB1DAAAD498F
:103B600056A8CDF808A0CDF80490CDF800B013F019
:103B700081FD052803D11D9B089A934242D056A887
:103B80001DAAA54913F076FD01287FF4F1AE1D9B17
:103B9000089A93427FF4ECAE109B5A1C9F4B02FB99
:103BA00003F3109213F1333FFFF4E2AE9C4804F0AC
:103BB0004BFEDDE69B48B04604F092FE3246D8E666
:103BC000CDE92600CDE92800974804F089FE07F0EA
:103BD00001FADDF81CA00023CDE90B3AA6E60D9B07
:103BE000002B37D140F2DB5399454AD8169BB1EEF2
:103BF0006A7A002B60D001239FED8C1A4FF00008E9
:103C000016932BE7209BB3F5487FB8D1219BB3F5E2
:103C1000167FB4D1DDF8789041F27073994575D96B
:103C2000834804F011FEA3E6B1EE676AF4EEC66ABB
:103C3000F1EE10FA18D578EEE78AF0EE496AB1EEA7
:103C4000680AE8EEA86A1BE7129804F015FE079BC5
:103C50000E937CE6B0EE491A4FF00008B0EE497AB8
:103C6000FCE6B0EE698AB9E6F0EE496AB1EE470AC1
:103C7000F0EE478AE7EE076A02E7012009F038FB19
:103C800054E6149B03B30123B0EE6A7AB0EE491AEE
:103C90004FF000081493E1E60D9AB0EE491A002A9D
:103CA0007FF4D3AEB0EE497AD8E6643310DAB0EEE2
:103CB0006A7ADDF83480D1E65E488DED097A04F049
:103CC000C3FD9DED097A96E75B4804F0BDFDDAE798
:103CD0009FED567AC2E6594B06221A60FBE6FDF7C5
:103CE000BDFF00235649554A0B60564956480B60A4
:103CF0000B23136004F0F4FD0023544A1370EAE62A
:103D00004E4B062251491A600870E4E6179B002BBF
:103D10006FD119994E4AA2FB013222F0010303EB45
:103D2000520322AACB1A42F823904B1C022B199360
:103D300000F294809BED00BAF0EE046ADFED457A64
:103D4000B8EECBBA2BEE27BAB0EECB6AB7EECB7A91
:103D5000B4EEE66AF1EE10FA28D81A9B022B53D97A
:103D6000159BA021DDF86C80009301233A4A404660
:103D700004934B468DED027B13F04AFC404604F061
:103D800063FD199A022A24D90D9A12B3159B139A2E
:103D90009B1A002BB8BF5B42642B73DD0D9BCDF8E3
:103DA000609098461793079B1193E1E500231A93BF
:103DB000159BA021DDF86C8000930023264A404625
:103DC00004934B468DED027B13F022FC404604F039
:103DD0003BFD079BB046CDE917691193C8E5174B2A
:103DE0001A68092A01D005221A600023174A1370A5
:103DF00071E6189BA9EB0303002BB8BF5B42B3F538
:103E0000E16F3FF70DAF84E70133032B1A93A7D07F
:103E1000CEE700BF14B50108E4B50108CDCCCCCC89
:103E20000CB6010834B601089CB40108000000007B
:103E3000BCB501085CB601089CB601080C05002061
:103E4000F8040020F4040020ECB40108360400203B
:103E5000ABAAAAAA0AD7233C54B50108DDE922314E
:103E6000249A8B4215910ADD914206DC1593134684
:103E7000159A9A42A8BF1A4615920D965AE7934290
:103E8000F6DCF4E7054A064B126806481A6004F0AF
:103E900027FD0023044A13701FE600BFFC04002026
:103EA000DC04002094B501083604002060EEA07AFE
:103EB0000023F0EEE06A0022B0EEC07AE0EE007A75
:103EC0002DE9F04FF4EEC76ADE4D2DED108BAFB04B
:103ED000F1EE10FAB1EEE79A95ED006A1E93229387
:103EE000189321932593B0EE608AF0EE408A8DED11
:103EF000086AB0EE41AA1292B0EE61BA1392B0EE27
:103F000042DA1492F0EE62EACDE91F33CDE92333B1
:103F1000CDE91933CC4BD3ED007ACDED057A40F3E2
:103F20007E82F1EE047ACDED0A7AF5EE007ACDEDDF
:103F3000077ADFEDC6DA09F0D5F9B4EEED9AF1EEC5
:103F400010FA00F16382DFEDC27AB4EEE7BAF1EE67
:103F500010FA40F25B82B4EEE7DAF1EE10FA40F2CA
:103F60005582BC4BC8EE89BADFF814830021C3ED3B
:103F7000007A8246B84B0446C8ED007AC3ED007A59
:103F800088EE09CAB54B9DED057AC3ED007AB44BB6
:103F900037EE2E7A0B91C3ED007AA0F1FA03F0EE22
:103FA00067FA0D91B0EE679A0993B0EE678A012324
:103FB000F0EE678A8DED0C7AF0EE67CA0493F0EEAE
:103FC00067AACDED02EA069009F08CF9069A43F64D
:103FD00097238146821A9A4200F21482A14E3368D6
:103FE00023B1A14B1B78002B40F0D382A9EB0A032D
:103FF000092B40F2B582A9EB04030AF10A0A07EE85
:10400000903AA9EB0A03F8EE677A092B88BFCA46F3
:1040100067EEAD7AF4EEED7AF1EE10FA00F18B82F4
:104020009FED922AF4EEC27AF1EE10FA72FE27EAC0
:10403000C8EE8A7AF5EEC07AF1EE10FA00F17682D7
:10404000F7EE009AB0EE007AF4EEE97AF1EE10FAAB
:1040500079FEA79AF0EE087AE9EEC77A29EEA97AF6
:1040600067EE877A9DED027AB0EE6E0A9DED05EA65
:10407000754BA7EE27EA83ED00EAFCF771FC14AB61
:1040800012AA22A97A48009313AB05F0F5F804466A
:10409000002800F0BB819DED087AD5ED007A77EE1F
:1040A000C77AB0EE670ACDED037A12F031FAB0EEBE
:1040B00040FA9DED030A12F02BF9DDED130AF0EE44
:1040C000401ADDED127A20EE800A9DF8683060EE2D
:1040D0008F0AA7EE8F0AE1EEE70A002B00F02E828E
:1040E000B0EE6E2A18A8B0EE4F1AFDF7AFFA9DEDAC
:1040F000180ADDED190A6CEE204A5E4B7AEE687AFA
:104100006BEEA00A93ED006AEBEE804A3DEE0D7A6D
:10411000ECEE400AE4EEAECAF0EEE46AE0EEAEFA8F
:10412000A6EEAE6A7AEE6C5AF4EEE5AA83ED006A6A
:10413000494BF1EE10FAF4EEE7AAC3ED00FA484B52
:104140003AFEA50AF1EE10FAC3ED000A7AFEA77A4C
:10415000F4EEC07AF1EE10FA30FE270A20EE070ADC
:10416000B5EE400AF1EE10FA00F11A84F1EEC07AD1
:10417000B4EEE7BA2DEE2E7AF1EE10FA77FE8B7AD6
:10418000B4EEE78AF1EE10FA40F1748138EE077A66
:10419000B4EEE77AF1EE10FA37FE878AE8EE2E8A5F
:1041A0009DED025ADFED387AB0EEC56AF4EECA8AA8
:1041B000F1EE10FAB4EEE76A7AFE288AF1EE10FA10
:1041C00040F35581C8EE0A7AB1EE087A25EE077AF7
:1041D000B7EE005A27EE297A35EE695A27EE057AAE
:1041E00027EE277A78EEEC7A9FED235A67EE857AF0
:1041F000BDEE005AF4EEC57AF1EE10FA07D4B5EE32
:10420000005AF4EEC57AF1EE10FA35FE275A38EE70
:10421000055AFDEE007AB4EEE75AF1EE10FA05D435
:10422000B4EECB5AF1EE10FA7BFE057A77EEE44A53
:104230009FED124ABDEE005A24EE844AA4EE2E9A57
:1042400024E000BFFC040020DC0400206F12833A4D
:1042500000000000F8040020E8040020E40400202E
:10426000E00400203804002037040020CDCC4C3D71
:1042700060CC0108F00400209A99993FCDCC4C3FC6
:10428000F40400203333B33E17B7D138B4EEC59AE7
:10429000F1EE10FA00F15A81B5EE005AB4EEC59A6B
:1042A000F1EE10FA35FE099A1FED0A5AE4EE857A0E
:1042B000BDEE005A77EE897AF4EEC57AF1EE10FA87
:1042C00005D4F4EECB7AF1EE10FA3BFE275A5FEDFF
:1042D000127AB44BB4EEE76A83ED005AF1EE10FAAD
:1042E00000F3F580F0EEC57ADFEDAF4A9FEDAF4AFF
:1042F00067EEA47AC7EE844ADFEDAD7AF4EEE74AC2
:10430000F1EE10FA77FEA47AB1EE674AD5ED004AD5
:10431000DDED0A3A74EECE4AA64FF1EE639AA3EEB3
:10432000E47AD7ED004ADDED073AA4EEE37AB4EE85
:10433000C47AF1EE10FA05D4B4EEE77AF1EE10FA91
:1043400037FE874ADFED9C7A9FED9C7A67EEE07A34
:10435000DFED9B0A88ED004AEFEE877AF4EEE07A13
:10436000F1EE10FA07D4DFED970AF4EEE07AF1EE01
:1043700010FA70FEA70AF0EEE55A9FED937A934B80
:104380006CEE607AF4EEC75AC3ED000A6BEEA00A39
:1043900095ED007AEBEE857AF1EE10FAECEE050A77
:1043A00071D9DDED0C6A36EEC77ADFED896AB0EEC1
:1043B000C77AB4EEE67AF1EE10FA00D83B684FF017
:1043C000000B21EEE00A98ED001A60EE8F0A1EA99C
:1043D0008048A7EE8F0AE7EEA10A04F0D5FEA8B147
:1043E0001EA8FDF707FC0446002800F0CC8008F06A
:1043F00079FF22A905F0BEF808BB049BC3B9764833
:1044000004F06EFA754B05221A6002E0734B062227
:104410001A6000202FB0BDEC108BBDE8F08FF2EEDB
:10442000027ACDED0A7ADFED677ACDED077A80E585
:10443000CDE92200CDE92400694804F051FA099B36
:10444000A9EB0303F92B00F2848006F0C3FDBBF156
:10445000000F41D00B9B002B00F08880A9EB0303D9
:104460003B2B00F2CB8000234C460493ACE5B0EE2E
:104470006A7AB7E638EE477AF4EEC77AF1EE10FAC8
:1044800037FE878A8AE6DDED0C5A35EEC77ADFED16
:10449000505AB0EEC77AB4EEE57AF1EE10FA21D8B0
:1044A00097ED007ADFED4F5AB0EEC77AB4EEE57AB9
:1044B000F1EE10FA16D89FED4C7AF4EEC76AF1EEE1
:1044C00010FA94BF4FF0010B4FF0000B79E79FED0E
:1044D000474ADFED377A19E74C46CDF82CB0CDF8D6
:1044E00010B071E59FED407AF4EEC76AF1EE10FA74
:1044F0003FF665AF9FED3E7AB4EEC76AF1EE10FA73
:1045000002D84FF0010B5CE77FF759AF254BC3EDA5
:1045100000AA2E4BC3ED00AA0D9B63B3F0EE6A0A0E
:104520004FF0000BDFED337A0D944AE7F0EE6A7A34
:10453000DFED309A96E5F0EE6DEA79E501238DED39
:10454000180ACDED190A8DF86830D4E5B0EE459A19
:10455000AAE622A94846FCF7ADFACDF8249074E704
:10456000A146012008F0C4FE4C462DE54C46CDF88E
:104570002C90049328E52048CDED031A04F0B0F9FF
:10458000DDED031ACAE7154B1A68092A7FF43BAF21
:104590003FE7FDF763FB0023024A1360C8F80030D1
:1045A00037E700BFF80400206666263F7B14AE3E66
:1045B0003333333F00050020AE47613E9A9919C05E
:1045C0009A9999BE9A99993E6F12033CE40400208F
:1045D0000AD7A33C60CC0108C0B401080C05002038
:1045E0009CB401080AD7233D8FC2F53C333333BF57
:1045F00017B7D1380000000074B70108DDED0C7A60
:104600004FF00009C64BDFEDC78AC3ED007A0023E7
:104610009FEDC5AA26932A931B9329932D939FED73
:10462000C3BADFEDC3AA9FEDC39ADFEDC3CACDE9DC
:104630002733CDE92B33CDE91C33C04BC3F80090B1
:1046400008F050FEBD4BBE4AC3F80090C2ED00FA20
:10465000BC4A0290C2F80090A0F1FA020120039235
:10466000FCF7E2F9DDF808B00023D946049308F01E
:1046700039FE029B8246C31AB3F5FA5F80F0878148
:10468000A0EB0903092B40F23F81A0EB0B0309F1DA
:104690000A0907EE903AA0EB0903F8EE677A092BB6
:1046A00088BF814667EEA87AF4EEE87AF1EE10FA58
:1046B00000F112819FEDA48AF4EEC87AF1EE10FAAF
:1046C00038FE278AB0EE480AFCF74AF917AB15AA5C
:1046D0002AA9009316AB9D4804F0CEFD00283FF4B4
:1046E00095AEDDED087AD5ED00DA7DEEE7DAB0EED5
:1046F0006D0A11F00DFFB0EE40DAB0EE6D0A11F068
:1047000007FEDDED160AF0EE401ADDED157A20EE1B
:10471000200A9DF874306DEE200AADEE270AE1EE16
:10472000E70A002B00F0DB80B0EE482A1BA8B0EEB1
:104730004D1AFCF78BFF9DED1B0ADDED1C0A6BEE9D
:10474000A00A834BDDED076AECEE400AC3ED000AD8
:10475000D3ED007A7A4BE8EE27FADDED0C7AC3ED63
:1047600000FA95ED007A37EE677AD7ED007A67EEBA
:10477000E67AE9EE877AF4EECA7AF1EE10FA00F101
:10478000B9809FED747AF4EEC77AF1EE10FA77FEF5
:10479000277A6F4BC8ED007AD3ED007A6BEE677A1B
:1047A000EFEEAA7AF4EEC97AF1EE10FA00F19F80EA
:1047B0009FED697AF4EEC77AF1EE10FA77FE277A68
:1047C000604B26A96148C3ED007AD3ED007AD3EDA2
:1047D000000A6CEE677A98ED001A6BEEA00A20EEE4
:1047E000E10A6DEE200AADEE270AE1EEA70A04F019
:1047F000CBFC00283FF40AAE584B1B6843B9336822
:10480000002B40F08580564B1B780BB9FDF7E0F884
:1048100005F0D0F820B905F0D3F8002840F0AE80BC
:1048200026A804F059FE28B94E4B1A68092A7FF4CD
:10483000EAADEEE508F056FD2AA904F09BFE48B962
:10484000002C3FF4DCADCDE92A00CDE92C00464830
:1048500004F046F8039BAAEB0303F92B4DD806F0AE
:10486000B9FBF0EEEF7AF4EEEC7AF1EE10FA30D814
:10487000374B9FED3E7AD3ED007AF0EEE77AF4EE17
:10488000C77AF1EE10FA24D8D5ED007ADDED0C6A86
:104890009FED377A77EEE67AF0EEE77AF4EEC77AB4
:1048A000F1EE10FA15D8D7ED007A9FED327AF0EEDE
:1048B000E77AF4EEC77AF1EE10FA0AD8049B002BDF
:1048C00062D0AAEB03033B2B00F28480D346002482
:1048D000CDE600230493F9E7B0EE688AF2E60123FF
:1048E0008DED1B0ACDED1C0A8DF8743027E7F0EE34
:1048F000497A65E7F0EE4A7A4BE72AA95046FCF779
:10490000D9F8CDF80CA0AAE7012008F0F1FCAEE63A
:10491000194B1B78002B7FF47BAFFCF751FA77E73C
:10492000DC0400206F12833A3333B3BEAE47613EDE
:104930009A9919C0EC5138BE6F12033CF80400205C
:10494000E8040020E4040020CDCC4C3D60CC0108FC
:10495000E00400203333B33EEC51383E2C040020F9
:10496000BF0400200C0500209CB401088FC2F53C58
:104970000AD7A33C0AD7233D36040020FBF7A8FF43
:10498000194B09221A6050E7CDF810A09EE70023CA
:10499000164A03201360FCF747F8FDF75FF939E585
:1049A000CDED111ACDED105ACDED0F0ACDED0E4A19
:1049B000CDED036A11F082FCDDED111AF0EE407AC4
:1049C000DDED105ADDED0F0ADDED0E4ADDED036A77
:1049D000FFF7CEBB0023054A02201360FCF724F842
:1049E000FDF73CF916E500BF0C050020E4040020AB
:1049F0002DE9F047C6B0602106A807F0D3FE0028D5
:104A000035D006AD934E944F05EB0008DFF8A49225
:104A100006E0611C7F292DD831603B55A84526D082
:104A200015F8013B34680D2B06D0A3F10A02B2FA47
:104A300082F25209002AECD00023884986483B556F
:104A400012F024FF824650B1B84208D0FBF74AFC6E
:104A5000044651463846621C12F07EFE346014B1A2
:104A6000D9F80030E3B90023A8453360D8D146B067
:104A7000BDE8F087DFF840A232609AF80020D9F84C
:104A80000030002A5DD0764A0192A021754A1EA806
:104A90000092754A12F0BCFD1EA803F0EDFEBDE7C2
:104AA00005AC72480DF113022146FCF7FFF800280F
:104AB00049D02368D9F80020DFF8FCA193425CD0EC
:104AC0000DF1130221466A48FCF7F0F820B1236883
:104AD000D9F8002093426BD00DF1130221466548AE
:104AE000FCF7E4F820B12368D9F80020934277D08E
:104AF0000DF1130221466048FCF7D8F828B123686D
:104B0000D9F80020934200F082800DF11302214673
:104B10005A48FCF7CBF8D9F800309AF8002010B1C9
:104B200024689C4214D08AB14D4A0192544A0092A2
:104B30004D4AA0211EA812F06BFD1EA803F09CFE9A
:104B400091E7504AA0E7DFF870A1B9E74D4AECE7DA
:104B50009DF813109142E6D14B4B00224B481A703E
:104B600003F072FE9AF80030002B6ED03C4B434AA3
:104B7000009323460192464ADBE79DF813109AF80A
:104B8000002091429CD1434A127812B9424A012135
:104B900011704248039303F057FE9AF80020039BDC
:104BA000002A4CD1374A0092304A0192384AC0E775
:104BB0009DF813109AF8002091428DD1384A0121B6
:104BC00038480393117003F03FFE9AF80020039BCE
:104BD000002A36D0224A0092254A01922C4AA8E7A0
:104BE0009DF813109AF80020914281D12E4A01219C
:104BF0002E480393117003F027FE9AF80020039BC0
:104C00000AB3174A00921B4A0192214A91E79DF884
:104C100013109AF8002091427FF477AF1A4A0121CD
:104C200023480393117003F00FFE9AF80020039BB2
:104C30006AB10B4A0092104A0192154A79E7084A74
:104C4000B1E7104AC7E70F4ADCE70E4B8FE70D4A82
:104C5000F0E700BF7C030020FC020020FCA7010855
:104C60009CA7010808B90108D0B80108B8B7010825
:104C700018B801087CA9010870B80108A0B801089B
:104C800000B90108A0A7010825040020A8B8010860
:104C9000E8B701082604002029040020C0B7010855
:104CA0002804002020B801082704002048B8010883
:104CB00078B801082C04002034040020B5EEC00AA6
:104CC00000230022F1EE10FA2DE9F04F2DED108BAC
:104CD000B7B0B0EE60CA0E9312930B920C920D9285
:104CE00011931593CDE90F33CDE9133300F174829D
:104CF000F7EE00CADFF828A3B0EEC0BADFF824B39D
:104D0000DAED00BA08F0EEFADBF80070A0F1FA0371
:104D100002460693002F00F05382F6EE00DAA84B0D
:104D2000DFEDA8FA01279FEDA8AA9FEDA8FA059349
:104D3000DFEDA77AB0EE4F9AA64B1646A649F0EEE5
:104D400067EAC3ED007AB0EE678AA44BF0EE679A8B
:104D5000DFEDA3AA1546C3ED007A4FF00008A14B82
:104D60009FEDA1DAC3ED007AA04B9FEDA1EAC3ED60
:104D7000007AA04B0492C3ED007ADAF800300B60A1
:104D80000123039308F0AEFA049B059A0446C31A64
:104D9000934280F0B582002F40F04681A31B092B7F
:104DA00040F2C681631B0A3607EE903AA31BF8EE69
:104DB000677A092B88BF264667EEAA7AF4EEEA7A6C
:104DC000F1EE10FA00F1A181DFED8B8AF4EEE87AC2
:104DD000F1EE10FA78FEA78AB0EE680AFBF7C0FD84
:104DE0000DAB0BAA12A900930CAB844804F044FA53
:104DF000002800F0F481DAED007AB5EE007A77EE63
:104E0000EB7ADAED00BAF0EEE76AF4EEC76AF1EE9B
:104E100010FA07D8ECEEA7EAF4EEEE9AF1EE10FAEB
:104E200079FEAEEA7BEE6E7AF4EEE79AF1EE10FAD6
:104E300079FEA77A002F00F0BF80714B2DEEA87A83
:104E40001B78002B4FFE2F6AB4EEE69AF1EE10FAB3
:104E500040F1678139EE079A89FE669A3AEE0A0AAE
:104E600020EE270AB5EE400AF1EE10FA00F15B825F
:104E7000F1EEC07AB4EEE79A2AEE287AF1EE10FA53
:104E800078EE476A77FE897A67EEAC7AF4EEE67AD6
:104E9000F1EE10FA00F13C8138EE078AF4EEC87AA0
:104EA000F1EE10FA38FE278A6CEE480A494BB0EE54
:104EB000481A0EA9B0EE690A5048F0EEE07AC3ED48
:104EC000007A464B83ED008A04F05EF9002800F07A
:104ED0008681DBF800304BB94A4B1B68002B40F051
:104EE0002D81494B1B780BB9FCF772FD04F062FD74
:104EF00020B904F065FD002840F058810EA804F0A8
:104F0000EBFA58B9414B1A68092A01D005221A60F8
:104F1000002037B0BDEC108BBDE8F08F08F0E2F94F
:104F200012A904F027FB78B9039B33B9384803F082
:104F3000D7FC364B05221A60EAE7CDE91200CDE92D
:104F40001400344803F0CCFCDDED0D7A324BF0EE6A
:104F5000E77A93ED007A67EE8C7AA7EEA87A83ED74
:104F6000007A069BE31AF92B00F2D58006F032F89E
:104F70007BEE4D7AF4EEEE7AF1EE10FA16D8274B6E
:104F8000D3ED007AF0EEE77AF4EECE7AF1EE10FA95
:104F90000CD8B8F1000F00F00481A4EB08034F2BEC
:104FA00000F2BA81002325460393EBE64FF0000898
:104FB0002546CDF80C80E5E6B0EE4F9A4EE700BFEF
:104FC000C0D401000AD7A33D9A99193FCDCC4C3EDD
:104FD00000000000F8040020DC040020F40400209D
:104FE0006F12833AE80400200AD7A33CE4040020AF
:104FF0000AD7233DE0040020CDCC4C3D60CC010815
:105000002504002038040020BF0400200C050020E7
:10501000C0B401089CB40108F00400200005002081
:10502000FC0400202C040020DBF800300793FFF77D
:10503000DFFCA04B93F80090B9F1000F40F08680A0
:105040009D4B1B78002B3FF4A9AEFCF707FE09909F
:10505000002800F05F81984B984A83F80090012364
:105060001370974B1B78002B00F0A680954B019393
:105070008021079B16A8944A0093944B12F0C8FA1B
:1050800016A803F0F9FB08F02DF98146904803F0CB
:10509000DBFB8A4B1B78002B3FF480AE089509E0C0
:1050A00005F098FF0A2008F023F9844B1B78002BA9
:1050B00000F0FE8008F016F90546FFF799FC04F0B1
:1050C0007FFCA5EB0902002840F08D80794B1B780E
:1050D000002B40F0AC807F490978002940F0CA805D
:1050E000F92ADDD9764B7C4A1B7803B1754A0192C7
:1050F0008021079A16A8754BA9460092724A12F0B1
:1051000087FA16A803F0B8FBCAE7F0EE6A8A63E6EE
:10511000B0EE668AC8E612A92046FBF7CBFC0694DF
:1051200024E77FF79BAE39EE479A89FE269A95E6EB
:105130002C46012008F0DCF8254623E6674B1B7857
:10514000002B7FF4D3AEFBF73BFECFE6FCF786FDEA
:10515000002800F0DF805A4B1B78002B2ED0594BD3
:10516000079A8021019316A85D4B0092564A12F0CF
:105170004FFA16A803F080FB00234E4A4E491370E5
:10518000584A0B7013704D485249574ACBF80030BB
:1051900003700B701360DAF800300120534A13607B
:1051A000B7E60023A04625460393EBE5FBF790FB0B
:1051B0004D4B09221A60A6E6474B58E7464BCFE70E
:1051C000F7EE00FA42F6E0639FED49AADFED49DA17
:1051D000B0EE6FFA0593ABE5FFEE00CA8AE5424BED
:1051E00006221A6094E6FCF739FD354B1B78002B3C
:1051F00040F08A80384B01938021079B16A8324AE1
:105200000093374B12F004FA16A803F035FB002385
:10521000294A2A491370274ACBF800301370314AC3
:105220000B701370304A13602A4A1370B3E7FCF70F
:1052300015FD00286ED0224B1B78002B68D1264B21
:1052400001938021079B16A81F4A0093244B12F05C
:10525000DFF916A803F010FB0023174A1749137053
:10526000144ACBF8003013701F4A0B701360194AB0
:10527000137090E7114A17491370114A0B70127896
:105280001849089D0B70002A40D1134B01938021CF
:10529000079B16A80C4A0093174B12F0B9F916A8F1
:1052A00003F0EAFA154803F0CFFA099B039375E57A
:1052B000089D73E52704002029040020260400200F
:1052C000340400209CA7010820B9010844B9010852
:1052D0004CB9010828040020A0A7010836040020CA
:1052E00018B90108250400200C050020DC0400206A
:1052F0006666E63F0000000068B9010870B9010861
:105300000B4B07221A6003E60A4B74E7094BBDE713
:10531000084B95E7064BF9E5DAF80030064A1360CA
:10532000FCF79CFCF5E510F0C9FFF0EE407AA1E532
:105330000C0500209CA70108DC040020014B187814
:10534000704700BFCA04002038B507F0CBFF044601
:10535000FCF7E2FB174B1B78E3B9174840F6B7356B
:1053600003F0BEFA09E0FCF7D7FBC0B9FCF776FC06
:1053700003460120BBB107F0BBFF07F0B3FF001BE2
:10538000A842F0D90D4803F0ABFA0D4B08221A6081
:10539000002038BD0B4803F0A3FA012038BD0A48AD
:1053A00003F09EFAF9E7064B1A68092AF0D00522A5
:1053B0001A60EDE7C9040020C0B9010820BA01084D
:1053C0000C05002090B90108F0B9010808B502F0F9
:1053D00017FE05F017FDBDE8084004F08FBA00BFC6
:1053E000544B1A7822B1002253481A7005F000BFBE
:1053F000F0B59BB0514F02F0B7FD07F073FF504B73
:105400000F22A0F57A754F481A7005F0F1FE4E484C
:1054100003F066FA07F066FFA0F57A7602E00A204C
:1054200007F066FF02F0A6FD08B307F05BFF044635
:1054300005F0D0FDFBF7C4FCA31B90B93A78002A15
:105440005AD1B3F57A7F07D204F0BAFA0028E6D031
:105450003C4805F0CDFEE2E73C48264603F040FA22
:10546000F2E7354805F0C4FE394803F0EDF9334E54
:1054700007F038FF044605F0ADFD631BB3F57A7FF6
:1054800012D204F09DFA18BBFBF79AFC20BB3378CC
:1054900053BB02F08FFD18B102F060FD002832D13D
:1054A0000A2007F025FFE3E702F028FD074602F097
:1054B0001FFD284A3B466021009002A812F0A8F880
:1054C00002A8254603F00CFA04F07AFA0028DBD093
:1054D0001C4805F08DFECBE7174805F089FE1C48F7
:1054E00003F0FEF91BB0F0BD134805F081FE1A4829
:1054F00003F0F6F91BB0F0BD0F4805F079FE164831
:1055000003F0A2F9B3E70C4805F072FE05F092FE35
:1055100002F024FD012809D0022803D00F4803F02F
:10552000DFF9DFE70E4803F0DBF9DBE70D4803F0B6
:10553000D7F9D7E7BE04002048BA01083504002097
:10554000100500204CBA010854BA0108DCBA010861
:105550008CBA0108F8BA0108B4BA010860BB0108A6
:1055600040BB010820BB0108002918BF0028844661
:105570000CBF0120002039D0002B18BF002A10B525
:10558000029C0CBF4FF0010E4FF0000E012C98BF93
:105590004EF0010EBEF1000F00D010BDDFF858E054
:1055A0009EF80040002CF8D08EF80000DFF84CE0A8
:1055B0009EF800E08CF800E0DFF844C0DCF8004022
:1055C000DFF840C00C609CF800C082F800C0DFF833
:1055D00038C09CF800C083F800C05070044A58706E
:1055E000107001200B68034A136010BD0020704743
:1055F000370400203804002049040020480400201B
:10560000440400204104002040040020014B18689D
:10561000704700BF3C0400202DE9F0410446A2B0D1
:105620001E4D1F4E1F4FDFF89C8001E007F060FE0B
:10563000FBF7C6FB04F0C4F905F0CCFC2B680A208C
:10564000A34225D133786BB93B78002BEED0D8F844
:105650000030A342EAD1144B1B68013B062BE5D86E
:10566000012016E0114B1B78B3B1114B114A802178
:10567000019302A8104B009411F0CAFF02A803F096
:10568000FBF8002307490D4A2B6033700B70136041
:10569000002022B0BDE8F081094BE7E73804002084
:1056A00037040020490400203C0400204804002066
:1056B0009CA7010884BB010818B901080C0500204B
:1056C000A0A70108440400200038024B18BF0120A5
:1056D00018707047BD0400200023184918480022A4
:1056E00010B50B70174C184923600B7017490370E5
:1056F0000B70174C1748184923700B600370174C38
:10570000174918480B60237003601749174B184C52
:105710000A601848226018491A60184B02600A6033
:105720001A6005F0D3F8164B164A1B68126813432B
:1057300000D010BDBDE81040FBF7CAB8C10400207E
:10574000C00400200C050020CA040020C904002069
:10575000BF040020C8040020C4040020BC040020B2
:10576000B00400204C040020F8040020F0040020C5
:10577000F4040020E8040020E4040020E0040020F9
:10578000380400202C04002008B507F0ABFD084BBE
:10579000084AFA381B78106023B10748BDE8084072
:1057A00003F09EB80548BDE8084003F099B800BF73
:1057B000BD040020B8040020A8BB0108D0BB01082C
:1057C0002DE9F0411D4C07F08DFD05461C4803F006
:1057D00087F8237863B31B4E1B4FDFF87C800BE008
:1057E00098F800300BB9FCF7F3F805F0F3FB0A204A
:1057F00007F07EFD2378DBB107F074FD40F6AB5374
:10580000401B98420CD83368002BEED13B68002B2C
:10581000E6D00E4B1B78002BE7D1FBF7D1FAE4E77B
:1058200023782BB10A4803F05BF80020BDE8F08133
:10583000084803F055F80120BDE8F081BC040020C1
:10584000F8BB01082C040020380400203604002096
:1058500044BC01081CBC0108BF040020024B01220B
:1058600002481A7003F03CB8BF04002070BC010865
:10587000FBF72EB8084B1B6853B9084B1B6823B9BC
:10588000074B1B7823B9FCF7A3B8064B1B7803B171
:105890007047FBF795BA00BF2C04002038040020A5
:1058A000BF0400203604002008B5FCF735F9024893
:1058B000BDE8084003F014B894BC01080023034875
:1058C0000349044A03600B6013607047FC04002026
:1058D000DC040020F0040020014B1878704700BF62
:1058E000C1040020014B1878704700BFC00400209D
:1058F000F8B507F0F7FC2E4D04462E4E2E4F0AE069
:105900003B780BB9FCF764F804F05AF8034614200E
:10591000C3B907F0EDFC07F0E5FC001B312816D8F1
:105920002B68002BF0D13368002BE9D0234B1B7878
:10593000002BE9D1FBF744FA04F042F803461420A7
:10594000002BE6D01E4B09221A600020F8BD07F09C
:10595000C9FC174D0446174E174F15E03B780BB99D
:10596000FCF736F804F02CF80028EBD103F05AF8D5
:1059700003F0E2FD28B1C821082003F08DF80028CB
:10598000E4D1322007F0B4FC07F0ACFC41F28733DD
:10599000001B9842D9D82B68002BE3D13368002B29
:1059A000DCD0064B1B78002BDCD1FBF709FAD9E7DA
:1059B0002C04002038040020BF04002036040020FE
:1059C0000C0500202DE9F043DFED467A0023782412
:1059D000454D464E464FDFF83481DFF834912DEDCA
:1059E000088B89B0F0EE678AB0EE679AF0EE679A9E
:1059F0000293B0EE67AA0593CDED017ACDE90333AA
:105A0000CDE9063315E098F800300BB9FBF7E0FF5D
:105A100003F0D6FF0346022053BB07F069FC013CAC
:105A2000E8EE089A3AEE48AA39EE4B9A78EEEA8AFE
:105A300027D001AA05A902A807F0CEF9019A336878
:105A40009DED048A9DED05BADDED06AA2A60002BC6
:105A5000DED13B68002BD6D099F80030002BD7D18F
:105A6000FBF7AEF903F0ACFF03460220002BD4D0C5
:105A7000204B092200201A6009B0BDEC088BBDE85C
:105A8000F083DFED1D7A00201C4B89EEA77A1C4ABB
:105A90001C4908604860CAEE276A89EE275AC8EE9A
:105AA000A75AF0EE477AC3ED006A93ED006AD3ED92
:105AB000006AE6EE667A82ED005AF5EEC07AC2ED33
:105AC000015AF1EE10FA0BD49FED0F7AF4EEC77A7B
:105AD000F1EE10FACCBF0120002080F00100CBE7EE
