:020000040800F2
:1000000000000220D90700082D0800082D0800086C
:100010002D0800082D0800082D0800080000000029
:100020000000000000000000000000002D08000893
:100030002D080008000000002D080008F9CC000879
:100040002D0800082D0800082D0800082D080008BC
:100050002D0800082D0800082D0800082D080008AC
:100060002D0800082D0800082D0800082D0800089C
:100070002D0800082D0800082D0800082D0800088C
:100080002D0800082D0800082D0800082D0800087C
:100090002D0800082D0800082D0800082D0800086C
:1000A0002D0800082D0800082D0800082D0800085C
:1000B0002D0800082D0800082D0800082D0800084C
:1000C0002D0800082D0800082D0800082D0800083C
:1000D0002D0800082D0800082D0800082D0800082C
:1000E0002D0800082D080008000000002D08000859
:1000F0002D0800082D0800082D0800082D0800080C
:100100002D0800082D0800082D0800082D080008FB
:100110002D080008A1C800082D0800082D080008B7
:100120002D0800082D0800082D0800082D080008DB
:100130002D0800082D0800082D0800082D080008CB
:1001400000000000000000000000000000000000AF
:100150002D0800082D0800082D0800082D080008AB
:100160002D0800082D0800082D0800082D0800089B
:100170002D080008FDCC00082D0800080000000034
:100180002D0800082D0800082D0800082D0800087B
:100190002D0800082D0800082D0800082D0800086B
:1001A0002D0800082D0800082D0800080000000098
:1001B0002D0800082D0800082D0800082D0800084B
:1001C0002D0800082D0800080000000000000000B5
:1001D00000000000000000002D08000800000000E2
:1001E000000000000000000000000000000000000F
:1001F00000000000000000002D0800082D08000885
:100200002D0800082D080008000000002D08000837
:100210002D0800082D0800082D0800082D080008EA
:100220002D080008000000002D0800080000000054
:100230002D0800082D080008000000002D08000807
:100240002D0800082D0800082D0800082D080008BA
:100250002D0800082D0800082D0800082D080008AA
:100260002D0800082D0800082D0800082D0800089A
:100270002D0800082D0800082D08000800000000C7
:100280002D0800082D0800082D0800082D0800087A
:10029000000000002D0800082D08000800000000E4
:1002A000000000002D0800082D0800082D08000897
:1002B0002D0800082D0800082D0800082D0800084A
:0C02C0002D0800082D0800082D0800087B
:1002D00010F8012B11F8013B012A28BF9A42F7D0F0
:1002E000D01A7047034613F8012B002AFBD1181AC5
:1002F000013870470000000000000000000000000E
:1003000001F0FF01102A2BDB10F0070F08D010F8C6
:10031000013B013A8B422DD010F0070F42B3F6D1CA
:10032000F0B441EA012141EA014122F007047FF0E3
:1003300000070023F0E80256083C85EA010586EA3A
:10034000010685FA47F5A3FA87F586FA47F6A5FA76
:1003500087F68EB9EED1F0BC01F0FF0102F0070282
:1003600032B110F8013B013A83EA010313B1F8D12D
:100370000020704701387047002D06BF354603380E
:10038000073815F0010F07D1013015F4807F02BF47
:10039000013015F4C03F0130F0BC0138704700BF98
:1003A00081F0004102E000BF83F0004330B54FEA26
:1003B00041044FEA430594EA050F08BF90EA020F93
:1003C0001FBF54EA000C55EA020C7FEA645C7FEA26
:1003D000655C00F0E2804FEA5454D4EB5555B8BF49
:1003E0006D420CDD2C4480EA020281EA030382EABA
:1003F000000083EA010180EA020281EA0303362D4C
:1004000088BF30BD11F0004F4FEA01314FF4801C1E
:100410004CEA113102D0404261EB410113F0004F30
:100420004FEA03334CEA133302D0524263EB4303E7
:1004300094EA050F00F0A780A4F10104D5F1200E85
:100440000DDB02FA0EFC22FA05F2801841F10001E0
:1004500003FA0EF2801843FA05F359410EE0A5F1B4
:1004600020050EF1200E012A03FA0EFC28BF4CF0E5
:10047000020C43FA05F3C01851EBE37101F000459B
:1004800007D54FF0000EDCF1000C7EEB00006EEBA8
:100490000101B1F5801F1BD3B1F5001F0CD3490832
:1004A0005FEA30004FEA3C0C04F101044FEA445289
:1004B00012F5800F80F09A80BCF1004F08BF5FEA10
:1004C000500C50F1000041EB045141EA050130BDF0
:1004D0005FEA4C0C404141EB0101013C28BFB1F502
:1004E000801FE9D291F0000F04BF01460020B1FA4D
:1004F00081F308BF2033A3F10B03B3F120020CDA20
:100500000C3208DD02F1140CC2F10C0201FA0CF0FD
:1005100021FA02F10CE002F11402D8BFC2F1200C62
:1005200001FA02F120FA0CFCDCBF41EA0C01904018
:10053000E41AA2BF01EB0451294330BD6FEA040461
:100540001F3C1CDA0C340EDC04F11404C4F120024C
:1005500020FA04F001FA02F340EA030021FA04F35E
:1005600045EA030130BDC4F10C04C4F1200220FAB5
:1005700002F001FA04F340EA0300294630BD21FAF3
:1005800004F0294630BD94F0000F83F4801306BFB9
:1005900081F480110134013D4EE77FEA645C18BFAD
:1005A0007FEA655C29D094EA050F08BF90EA020F44
:1005B00005D054EA000C04BF1946104630BD91EA3C
:1005C000030F1EBF0021002030BD5FEA545C05D13F
:1005D0004000494128BF41F0004130BD14F580047E
:1005E0003CBF01F5801130BD01F0004545F0FE41F2
:1005F00041F470014FF0000030BD7FEA645C1ABF27
:10060000194610467FEA655C1CBF0B46024650EA5D
:10061000013406BF52EA033591EA030F41F4002189
:1006200030BD00BF90F0000F04BF0021704730B50F
:100630004FF4806404F132044FF000054FF00001E4
:1006400050E700BF90F0000F04BF0021704730B5A5
:100650004FF4806404F1320410F0004548BF40427A
:100660004FF000013EE700BF42004FEAE2014FEACF
:1006700031014FEA02701FBF12F07F4393F07F4FAA
:1006800081F06051704732F07F4208BF704793F0AD
:100690007F4F04BF41F40021704730B54FF46074C0
:1006A00001F0004521F000411CE700BF50EA0102C3
:1006B00008BF704730B54FF000050AE050EA01026C
:1006C00008BF704730B511F0004502D5404261EBDC
:1006D00041014FF4806404F132045FEA915C3FF41D
:1006E000D8AE4FF003025FEADC0C18BF03325FEABA
:1006F000DC0C18BF033202EBDC02C2F1200300FA6B
:1007000003FC20FA02F001FA03FE40EA0E0021FA8F
:1007100002F11444BDE600BF53B94AB9002908BF2D
:1007200000281CBF4FF0FF314FF0FF3000F00CB835
:10073000ADF1080C6DE904CE1DF072FBDDF804E0AC
:10074000DDE9022304B07047704700BF0348044B43
:10075000834202D0034B03B118477047CC020020FC
:10076000CC020020000000000548064B1B1AD90FE0
:1007700001EBA301491002D0034B03B118477047A6
:10078000CC020020CC0200200000000010B5064C76
:10079000237843B9FFF7DAFF044B13B10448AFF3F2
:1007A00000800123237010BDE00200200000000043
:1007B00040E1010808B5054B1BB105490548AFF3F9
:1007C0000080BDE80840FFF7CFBF00BF0000000079
:1007D000E402002040E10108DFF838D000F028F8FA
:1007E000002103E00C4B5B58435004310B480C4B89
:1007F00042189A42F6D30B4A02E0002342F8043B27
:10080000094B9A42F9D310F06FFA1AF061FE08F022
:1008100055FF704700000220F06A04080000002025
:10082000CC020020E0020020E06C0120FEE7000086
:10083000044AD36843F00203D36053689B04FCD599
:10084000704700BF0048025870B594B015461E4668
:1008500000F1300408AA0346844696469CED007ACF
:100860000CF1080C5CED017A0EF1080E64450EEDFA
:10087000027A4EED017AF1D10446F1EE045A90ED80
:10088000016AEE462030D4ED006AEC46B0EE667A9E
:10089000D3ED026AF0EE467A93ED036A08330CF169
:1008A000080C36EEC77A76EE677A984227EE257AFC
:1008B00067EEA57A0CED027A4CED017AE6D1F7EEFF
:1008C000005A02F1280C75EEC05A9DED096A1046D7
:1008D000DDED086AF0EE664AD0ED026AB0EE465AE7
:1008E00090ED036A26EE807A083066EE007A844541
:1008F000A4EEA57AE5EE257A00ED027A40ED017AC4
:10090000E8D1ACF1080C6245DFD10EF1180C9DED79
:10091000016A7046DDED006AF0EE664AD0ED026ACB
:10092000B0EE465A90ED036A26EE807A083066EE05
:10093000007A6045A4EEA57AE5EE257A00ED027A0C
:1009400040ED017AE8D1A0F1080CE645DFD1089B23
:10095000009A0B60099B2B603260019B189A136010
:1009600014B070BDF7EE007ADFED1A5AF0EE084AC7
:100970009FED196A20EE004A9FED183A77EEC07A93
:10098000DFED173A60EEA55ABEEE007A67EEA76A71
:1009900067EEA47A20EE045A66EEA46A67EE847AC3
:1009A00020EE866A26EE800A27EE877A67EEA57A21
:1009B00060EEA30ADFED0B3AA0EE037AE0EE067AD2
:1009C000A5EE237AE5EE207A80ED007AC1ED007A7B
:1009D000704700BFAE47213FF628DC3E9A9919BE0A
:1009E000B7D1303F5C8F7AC0164A012100231648E8
:1009F00010B51170154C164A037013702370154A08
:100A000015481649164C136003600B7010F02AFA53
:100A1000144AFA38237810604BB113480BF020FDCC
:100A2000237853B11148BDE810400BF0E5BC1048E5
:100A30000BF016FD2378002BF4D10E48BDE81040D2
:100A40000BF0DABC6C05002086050020850500202F
:100A500084050020FC04002080050020740500208F
:100A60006D05002068050020B0E10108F8E10108EB
:100A7000D4E1010814E2010810B582B0044610F078
:100A8000F1F9144B1449154A0094DFF868C009784D
:100A9000126893ED000A124BDCED000A93ED001A88
:100AA000DFF854C00F4BDCED001A93ED002ADFF89D
:100AB0004CC00D4BDCED002A93ED003ADFF840C04E
:100AC0000A4BDCED003A93ED004A094B0DF0DEFCD9
:100AD00002B010BDBC050020CC050020C8050020D8
:100AE000B4050020AC050020A40500209C050020D2
:100AF000A0220208B8050020B0050020A8050020AB
:100B0000A005002000B5DFF86CC00B46DFF868E0F8
:100B100083B0174A9EF8001012689CED000ADFF8B7
:100B20005CC0DCED000ADFF858C09CED001ADFF86D
:100B300054C0DCED001ADFF850C09CED002ADFF84D
:100B40004CC0DCED002ADFF848C09CED003ADFF82D
:100B500044C0DCED003ADFF840C09CED004A4FF0A5
:100B6000000CCDF800C00DF091FC03B000BD00BF3B
:100B7000C8050020BC050020CC050020B8050020D9
:100B8000B4050020B0050020AC050020A805002019
:100B9000A4050020A00500209C05002000B58BB016
:100BA00000234FF0000C03AA04A807A98DED010A49
:100BB00006930993CDF80CC0CDE90433CDE9073392
:100BC0000FF0CAFEDDED087A1F4B9DED077AF1EEBE
:100BD000677ADDED066A0398B1EE477A1B49F1EEBC
:100BE000666A1B4AD3ED015A086093ED006A77EEFE
:100BF000E57A92ED005A174B37EE467A76EEC56AE3
:100C0000154993ED016A154A77EEC67AD3ED005A7D
:100C1000C1ED006A9FED125A37EE657AD1ED004AB8
:100C2000D2ED006AA7EE856A9DED010AE7EE055A4E
:100C3000F0EE667AE4EE807A83ED016AC3ED005A45
:100C4000C2ED007A0BB000BD90050020A805002081
:100C5000C005002088050020BC050020B805002044
:100C6000CDCC4C3E70B5CCB003468021494A0CA88F
:100C70001AF08EFA48490CA81AF062FB002872D0CC
:100C80000346002406AD01E0062C0BD045F8043BDA
:100C90000020414901341AF053FB03460028F3D1E8
:100CA000062C60D13D490698FFF712FB00285AD167
:100CB0003B490798FFF70CFB002854D139490898A5
:100CC000FFF706FB00284ED137490A98FFF700FBD3
:100CD000002848D1099C0A2205A920461AF08AF961
:100CE00022780546002A47D0059B1B78002B43D16C
:100CF000022841D80B9C04A920461AF0BDF823789D
:100D0000002B40D0049B1B78002B3CD1F0EEC07A26
:100D10009FED267AF4EE477AF1EE10FA33D8B5EE6D
:100D2000C00AF1EE10FA2ED4DFED217AB4EEE70A14
:100D3000F1EE10FA27DCE8B28DED030A0BF0EEFAC3
:100D40009DED030A2B461B4AB7EEC00A80212CA852
:100D50008DED000B1AF01CFA2CA80BF04DFB2CA803
:100D60000BF032FB05E014480BF046FB12480BF089
:100D70002BFB01204CB070BD10480BF03DFB0F4821
:100D80000BF022FBF5E70E480BF036FB0C480BF09E
:100D90001BFBEEE730E2010834E201085CE20108E7
:100DA00068E201086CE2010874E20108FFFF7F7F3E
:100DB00000003443D0E2010838E2010880E2010873
:100DC000A8E201082DE9F041B2B006460F46904670
:100DD000A021384B384A0AA81AF0DAF937490AA88C
:100DE0001AF0AEFA90B10346002401AD45F8043F75
:100DF0000020324901341AF0A3FA0346002855D0E6
:100E0000082CF3D1029B1A78522A03D0002032B06A
:100E1000BDE8F0815A784B2AF8D19B78002BF5D1A8
:100E200027490398FFF754FA0028EFD12549049881
:100E3000FFF74EFA0028E9D131460598FFF748FA46
:100E40000028E3D120490698FFF742FA0028DDD1B7
:100E50001E490898FFF73CFA0028D7D1099C1C4985
:100E60002046FFF735FA28B11A492046FFF730FA35
:100E70000028CBD1079D0A2201A928461AF0BAF80A
:100E80002B780246002BC1D0019B1B78002BBDD1D3
:100E90000028BBD00E4920463A60FFF719FAB0FA95
:100EA00080F301205B0988F80030B0E7082CADD151
:100EB000A8E700BF8003002030E2010834E2010807
:100EC00000E3010804E3010814E3010818E3010842
:100ED00020E3010824E301082DE9F041AAB0064609
:100EE0000F4690468021384B384A0AA81AF050F92C
:100EF00037490AA81AF024FA90B10346002401AD3C
:100F000045F8043F0020324901341AF019FA03462B
:100F1000002855D0082CF3D1029B1A78522A03D00E
:100F200000202AB0BDE8F0815A784B2AF8D19B788E
:100F3000002BF5D127490398FFF7CAF90028EFD114
:100F400025490498FFF7C4F90028E9D131460598EE
:100F5000FFF7BEF90028E3D120490698FFF7B8F95A
:100F60000028DDD11E490898FFF7B2F90028D7D133
:100F7000099C1C492046FFF7ABF928B11A492046C5
:100F8000FFF7A6F90028CBD1079D0A2201A9284620
:100F90001AF030F82B780246002BC1D0019B1B7849
:100FA000002BBDD10028BBD00E4920463A60FFF788
:100FB0008FF9B0FA80F301205B0988F80030B0E7C0
:100FC000082CADD1A8E700BFFC02002030E20108E8
:100FD00034E201082CE3010834E3010814E30108BA
:100FE00018E3010820E3010824E301085F4BB9EE90
:100FF000007AD3ED007AF4EEC77AF1EE10FA00F140
:101000009F80B1EE007ADFED5A6AF4EEC77AF1EE16
:1010100010FA37FE277AF0EEC77AF4EEE67AF1EEB0
:1010200010FA40F28A80B5EEC07AF1EE10FA40F381
:10103000998037EE667AF9EE007AD3ED016AF4EE24
:10104000E76AF1EE10FA00F18480F1EE007A9FED8C
:10105000486AF4EEE76AF1EE10FA77FEA67AF0EE4F
:10106000E76AF4EEC66AF1EE10FA75D9F5EEC07AC9
:10107000F1EE10FA73DD77EEC67A61EEA75A90EDC5
:10108000006A61EE277AD0ED016A9FED3A5AE1EEEF
:10109000075AE1EEC77AA5EE826AE7EE826A76EE3B
:1010A000407AF4EEC57AF1EE10FA4FD49FED327A21
:1010B0009FED2F6AF4EEC77AF1EE10FA37FE277A29
:1010C00027EE066A76EEE07A9FED2A7AF4EEC77A8A
:1010D000F1EE10FA37D49FED287ADFED256AF4EEB1
:1010E000C77AF1EE10FA77FE277A67EEA67A30EE2D
:1010F000067ADFED226AB0EEC00A70EEA77A80EDC4
:10110000007AB4EEE60AC0ED017AF1EE10FA13D8D7
:10111000F0EEE00AF4EEE60AF1EE10FA0CD8184B05
:10112000D3ED007AF0EEE77AF4EEE67AF1EE10FA1B
:1011300002D800230360436070479FED127A7AE77C
:101140009FED117A77E7DFED117AD0E79FED0F6A17
:10115000B8E7DFED0D7A90E7DFED0A7A8DE777EEFD
:10116000867A8AE737EE267A65E700BF8805002091
:101170000AD7A33D9A9919BE9A99193E0AD7A33C5A
:10118000B40500200000000048E17AC0A69B44BCE2
:10119000F8B50B780E460746F3B101380D4602E06C
:1011A00015F8013FC3B110F8012FA3F16101A3F1BC
:1011B000200EA2F1200CA2F16104C9B25FFA8EFEEA
:1011C0005FFA8CFC192998BF7346192C98BF6246A8
:1011D0009A42E5D00020F8BD3046FFF783F8385C2E
:1011E0002C2818BF00280CBF01200020F8BD00BF2C
:1011F0002DE9F047D4B0802104A80FF093F828B36C
:1012000004AC464DDFF8448100272618DFF84091F2
:1012100007E0501C9F281CD8286008F80230A6421E
:1012200014D014F8013B2A680D2B06D0A3F10A0153
:10123000B1FA81F149090029EBD008F8027012B126
:10124000D9F800303BB9A6422F60EAD154B0BDE8CE
:10125000F0872960E3E732480DF10B0203A9FFF79D
:10126000B1FD20B1039BD9F80020934227D00DF1A6
:101270000B0203A92B48FFF7A5FD20B1039BD9F86A
:10128000002093422CD00DF10B0203A92648FFF752
:1012900099FD0028D7D0039BD9F800209342D2D1E2
:1012A00022499DF80B2009788A42CCD1204901209F
:1012B0000870002A2FD01F4A00921B4A1DE01B4ACB
:1012C0009DF80B1012789142D1D11B49097811B9C0
:1012D0001A4901200870D2B1164A0092104A0CE057
:1012E000124A11789DF80B208A42CCD11449012072
:1012F000087072B10F4A00920A4A0192C021114A45
:1013000024A819F045FF24A80BF076F89BE70E4AB5
:10131000E3E70D4AEFE70C4ACEE700BF20040020C8
:101320003CE301087CE3010884E30108CD040020CC
:10133000CA04002020E30108C9040020CC040020D6
:10134000CB04002044E3010824E3010880030020CB
:10135000D00400202DE9F04FDFB0602106A80EF088
:10136000E1FF002800F014818C4B06461978002913
:1013700000F05A830DF11809894C8A4D09EB0608D3
:1013800099F8003026680A2B18BF0D2B0CBF0127D7
:10139000002740F00583002383498248AB551AF0AB
:1013A00035F88246002800F00683AA4509D0504649
:1013B000FEF798FF064651462846721C19F08CFF2E
:1013C0002660002E00F0E482784B1B780F2B00F093
:1013D00000832B46764AA02136A819F0D9FE75491C
:1013E00036A819F0ADFF0346002800F015811EAEA7
:1013F0004FF0000AB3464BF8043B00206D490AF158
:10140000010A19F09DFF0346002800F00181BAF19E
:101410000C0FF0D133681A78522A40F0FD805A78C8
:101420004B2A40F0F9809B78002B40F0F580624910
:101430007068FEF74DFF002840F0EE805F49B0680D
:10144000FEF746FF002840F0E7805D49F068FEF7B0
:101450003FFF002840F0E0805A493069FEF738FF2E
:10146000002840F0D9805849B069FEF731FF0028C4
:1014700040F0D2805549306AFEF72AFF002840F03C
:10148000CB805349B06AFEF723FF002840F0C480A8
:10149000D6F814B00A2205A9584619F0ABFD9BF8FE
:1014A00000300290002B00F0B780059B93F800B04D
:1014B000BBF1000F40F0B080002800F0AD80F36970
:1014C000444918460393FEF703FF002800F0788391
:1014D00003984149FEF7FCFE002840F09D80736AA6
:1014E0000A2205A91846039319F084FD039B1B7873
:1014F000002B00F09180059B1B78002B40F08C8026
:10150000B0F5E17F40F08880F66A0A2205A93046EE
:1015100019F070FD3378002B7ED0059B1B78002BD3
:101520007AD1B0F5B47F77D12C4B1A782C4B187840
:10153000024340F013832B4A2B4812680068024391
:1015400040F00C83012002991870284B83F800B0FA
:10155000274B1960274B1A70274B1A70274B1A70AC
:10156000274B1A70274B1A70BBF1000F00F02E8327
:101570001849029B36A8244A0091802119F008FEE0
:1015800036A80AF039FF21480AF01EFF0023236025
:10159000002738465FB0BDE8F08F00BFC8040020C8
:1015A000C404002024040020D8E30108CC05002056
:1015B00030E2010834E201082CE3010834E30108B9
:1015C00008E4010814E3010818E3010810E4010825
:1015D00074E2010820E3010824E30108F904002073
:1015E000E5040020E8040020DC040020E4040020DE
:1015F000E0040020D8040020D7040020D6040020F6
:10160000D5040020D404002034E401085CE401087F
:10161000BAF10C0F3FF4FEAE2368002B00F0B88146
:101620002B46814AA02136A819F0B2FD7F4936A881
:1016300019F086FE0346002839D04FF0000A0DF15C
:10164000780B4BF8043B002078490AF1010A19F0A5
:1016500077FE0346002800F0B781BAF10C0FF0D1F5
:101660001E9B1A78522A22D15A784B2A1FD19B7876
:10167000EBB96F491F98FEF72BFEC0B96D49209852
:10168000FEF726FE98B96C492198FEF721FE70B945
:101690006A492298FEF71CFE48B969492498FEF76A
:1016A00017FE20B9269B1A784C2A00F0F381236894
:1016B000002B00F06D812B465B4AA02136A819F063
:1016C00067FD5A4936A81EAE19F03AFE03460028B7
:1016D00000F0D0804FF0000AB3464BF8043B0020E6
:1016E00052490AF1010A19F02BFE0346002800F0C6
:1016F000BD80BAF10A0FF0D133681A78522A40F04F
:10170000B9805A784B2A40F0B5809B78002B40F086
:10171000B18047497068FEF7DBFD002840F0AA80E1
:101720004449B068FEF7D4FD002840F0A380454945
:10173000F068FEF7CDFD002840F09C803F493069FD
:10174000FEF7C6FD002840F095803D49B069FEF7E0
:10175000BFFD002840F08E803B49306AFEF7B8FD9F
:10176000002840F08780D6F81CB038495846FEF76C
:10177000AFFD28B136495846FEF7AAFD002879D1B9
:10178000736905A90A221846029319F033FC029BDB
:1017900082461B78002B6DD0059B05A91B78002B7A
:1017A00068D1002866D0736A0A221846039319F09C
:1017B00021FC039B02901B78002B5BD0059B1B78C0
:1017C000002B57D1431E062B54D858461F49FEF70D
:1017D0007FFD204BB0FA80F01A784009002A49D1E9
:1017E0001D4A1268524545D11C4A1278824241D1A5
:1017F000012119701A4B0299C3F800A0194B196006
:10180000002A00F0E581114A029B6021009236A86F
:1018100001935346144A19F0BBFC36A80AF0ECFDBC
:1018200000232360B5E600BF30E2010834E201087E
:101830002CE301088CE3010808E4010814E3010823
:1018400018E3010820E5010828E5010820E3010864
:1018500024E30108F9040020E8040020F804002033
:10186000F4040020EC04002030E50108BAF10A0F6E
:101870003FF442AF2B46734AA02136A819F088FCEA
:10188000714936A819F05CFD0346002865D00DF1BA
:10189000740A00274AF8043F00206B49013719F009
:1018A0004FFD0346002856D0082FF3D133681A782D
:1018B000522A52D15A784B2A4FD19B78002B4CD1C7
:1018C00062497068FEF704FD002846D16049B0689F
:1018D000FEF7FEFC002840D15E49F068FEF7F8FCF8
:1018E00000283AD15C493069FEF7F2FC002834D177
:1018F0005A49B069FEF7ECFC78BBD6F81CA05849F1
:101900005046FEF7E5FC20B156495046FEF7E0FC94
:1019100018BBD6F814B00A2205A9584619F06AFB7C
:101920009BF800300746C3B1059B1B78ABB9A0B14B
:1019300050464B49FEF7CCFC4B4BB0FA80F01B688D
:101940004009BB4209D1494B1B78834205D1484B22
:1019500001221A701CE0082FA8D04649284619F029
:1019600055FD00285ED0444F3B46444A6021304636
:1019700019F00EFC30460AF027FD26683B46404A27
:10198000602136A8009619F003FC36A80AF034FD51
:101990000023236009F10109C8457FF4F1ACF7E5A4
:1019A000721C9F2A02D82260AB55F3E735482760A6
:1019B0000AF022FDEEE72F49284619F027FD82465E
:1019C00000287FF4F2ACFCE4BAF10C0F7FF46FAEA8
:1019D00046E62D494C23DFF8B8E001F10C0B0A78FC
:1019E000A3F1610CA3F120060131A2F12000A2F1C4
:1019F000610A5FFA8CFCF6B2C0B2BCF1190F98BF55
:101A00003346BAF1190F98BF02469A427FF4E1AC0F
:101A10008B451EF8013FE2D11B48FFF723F9002355
:101A20002360B5E50A4F9FE701220F201A701D229F
:101A30000CF0A6FD002800F08D8014480AF0C4FCCC
:101A400098E400BF30E2010834E201082CE3010809
:101A50008CE3010884E3010814E3010818E301089A
:101A600020E3010824E30108E8040020F804002032
:101A7000E7040020E8E3010834E3010860E5010819
:101A800080E50108A8E501082404002094E301088A
:101A9000F8E301085A78312A7FF409AE9B78002BCD
:101AA0007FF405AE289B1A784C2A7FF400AE5A7852
:101AB000322A7FF4FCAD9B78002B7FF4F8AD239B9A
:101AC0000A2205A91846029319F094FA029B83464C
:101AD0001B78002B3FF4EBAD059B1B78002B7FF4AC
:101AE000E6AD00283FF4E3AD279B02935B78002B23
:101AF0007FF4DDAD299B93F801A00393BAF1000FA9
:101B00007FF4D5AD33492598FEF7E2FB00285AD083
:101B100025983149FEF7DCFB00287FF4C8AD029B15
:101B20001E78A6F14103032B3FF6C1AD039B187845
:101B3000A0F14103032B3FF6BAAD86423FF4B7ADA7
:101B4000264B197811B92649096859B125480AF078
:101B500053FC1DE724480AF037FC0BE423480AF045
:101B60004BFC13E501221A701E22214B83F800A0C2
:101B7000204BC3F800B0204B1E70204B18700F2074
:101B80001F4B19600CF0FCFCA0B11E480AF01CFCB5
:101B9000BAF1000F12D00F4A5B466021009236A8BE
:101BA000194A19F0F5FA36A80AF026FC17480AF087
:101BB0000BFC35E616480AF007FCE9E7064AEBE7B6
:101BC0004FF0010B8BE44FF0010AA8E70249D0E483
:101BD000014A19E620E3010824E30108F904002082
:101BE000E80400207CE40108B4E301081CE40108D7
:101BF000F8040020F4040020F1040020F004002088
:101C0000EC04002094E40108D8E4010800E5010890
:101C1000B4E40108784B2DE9F0431B780546441ED7
:101C2000002B7CD0DFF800C200F10F0852232746BA
:101C300017F8012FA3F16106A3F12000A2F1200102
:101C4000A2F1610EF6B2C0B2C9B2192E98BF034616
:101C5000BEF1190F98BF0A469A420BD147451CF8AE
:101C6000013FE5D1654B002265481A70BDE8F0439D
:101C70000AF0AABB2746634E05F11E0920465223EF
:101C800010F8012FA3F1610EA3F1200CA2F12001A5
:101C9000A2F161085FFA8EFE5FFA8CFCC9B2BEF158
:101CA000190F98BF6346B8F1190F98BF0A469A42B8
:101CB0000DD1814516F8013FE2D101235249534A23
:101CC0000B7053481370BDE8F0430AF07DBBDFF89A
:101CD0005CE105F11009A44652231CF8012FA3F181
:101CE0006106A3F12000A2F12001A2F16108F6B281
:101CF000C0B2C9B2192E98BF0346B8F1190F98BFE8
:101D00000A469A422CD1E1451EF8013FE5D1414BEC
:101D1000002241481A70BDE8F0430AF055BBDFF8D5
:101D200010C100F110085223274617F8012FA3F124
:101D30006106A3F12000A2F12001A2F1610EF6B22A
:101D4000C0B2C9B2192E98BF0346BEF1190F98BF91
:101D50000A469A428ED147451CF8013FE5D181E7FA
:101D6000DFF8D0C005F10F0E522314F8012FA3F1B4
:101D70006106A3F12000A2F12001A2F16108F6B2F0
:101D8000C0B2C9B2192E98BF0346B8F1190F98BF57
:101D90000A469A4208D174451CF8013FE5D11F4814
:101DA000BDE8F0430AF010BB1D4E0B35522317F867
:101DB000012FA3F16104A3F12000A2F12001A2F1FF
:101DC000610CE4B2C0B2C9B2192C98BF0346BCF191
:101DD000190F98BF0A469A420BD1AF4216F8013F3D
:101DE000E5D10A4B01220F481A70BDE8F0430AF012
:101DF000EBBABDE8F08300BF6D0500207C05002034
:101E00001CE60108E8E5010885050020860500209C
:101E1000ACE601086C05002080E6010858E60108E0
:101E200070E6010844E60108D4E50108D4E601089B
:101E300008E6010898E601082DE9F0430446ADF5EF
:101E40001D7D0FF00FF8002C68D0804653492046C6
:101E5000FEF73EFA0546002860D1514B1B68002B67
:101E60005CD0504A1268934258D14F4A11784F4A79
:101E70001278914252D14A4E40214D4A14A8009303
:101E8000234619F085F933684A4A4021009324A873
:101E90002346A8F1C80919F07BF93268234640218E
:101EA000009234A8444A19F073F944480AF0D8FA69
:101EB0002B4603930EF0D6FFA0EB0902039BC72A23
:101EC00048D8402104A803930EF02CFA039BB8B124
:101ED00004AA5CAE1718144606E0FF290CD801349A
:101EE000F2540B46BC420BD02278591C0D2A01D06B
:101EF0000A2AF2D1F554D3B901340023BC42F3D1FC
:101F000003930EF0AFFF43F69722A0EB0800904238
:101F10002CD801200EF0ACFF039BCAE7284B062209
:101F20001A60002318460DF51D7DBDE8F08330468C
:101F3000FFF770FE24A93046FFF72AF9034634A9BB
:101F400030466BB9FFF724F90028D5D01C4B0A2284
:101F50001A60E6E7814614A80AF04EFA039BB0E740
:101F6000184803930AF07CFA039BDBE70F4B082029
:101F700013491A780A4B08601B686AB11248134A61
:101F80006021009044A819F003F944A80AF034FA3B
:101F90000F480AF065FAC4E70E48F0E704E30108C9
:101FA00060050020D0040020CD0400206D05002035
:101FB000E8E6010800E701081CE7010834E701082A
:101FC000C805002058E7010820E301087CE7010864
:101FD000B0E7010824E301082DE9F04790B00EF0C6
:101FE00041FF4F4B1B78002B34D04E4A1368C31A65
:101FF000F92B2FD94C4B10601B78002B40F08780B9
:102000004A480AF0F9F9402168460EF08BF9F0B120
:102010006C46474E474D271806E0501C5F2831D8C4
:102020003060AB54BC4212D014F8013B32680D2B27
:1020300006D0A3F10A01B1FA81F149090029ECD0D7
:102040000023AB541ABB0023BC423360ECD110B068
:10205000BDE8F087384B1B78002BD4D1374A136882
:10206000C31AF92BCFD9364B10601B78002B49D0FF
:10207000344B1B78002B4ED12B4B1B78002B48D0B8
:102080003148BEE7314831600AF0EAF9CAE7304822
:102090000AF09AF928460AF097F92E480AF094F9BE
:1020A0002D4B1A780F2A06D01B78072B03D0284611
:1020B000FFF7B0FDC7E71F494C23DFF8AC8001F103
:1020C0000C0A0A78A3F1610EA3F120000131A2F1FC
:1020D000200CA2F161095FFA8EFEC0B25FFA8CFC9F
:1020E000BEF1190F98BF0346B9F1190F98BF6246A8
:1020F0009A42DCD18A4518F8013FE2D10D48FEF73B
:10210000B1FDA0E7084B1B78002B3FF479AF1348D3
:1021100077E7134875E713480AF06EF973E700BFD5
:102120007C050020780500206D050020F0E70108FF
:10213000FC04002000050020840500206805002024
:102140006C0500207D050020F8E101082CE801085D
:102150001CE8010828E80108CC050020D8E70108A0
:1021600014E2010808E80108F8E3010810B598B086
:1021700004460BF0DFF918B90BF0E2F9002839D169
:1021800020460AF069FF044618B90024204618B01A
:1021900010BD204A1368A3B11F4B197889B90121DA
:1021A00018201970FEF768FC0EF05CFE194A6021D9
:1021B00013681A4AC31A684618F0EAFF68460AF01C
:1021C00003F9174B1A783AB1164A002112781970A0
:1021D000B2B915480AF010F9144B1B68002BD5D181
:1021E000134B1B6873B9134B1B78002BCED1FFF731
:1021F000F3FECBE7FEF7F8FB0F4B09221A60C4E7AA
:102200000E48E7E70E4B1B78002BBFD1FFF7A2F873
:10221000BCE700BF700500206E0500206CE80108D7
:10222000770500206D0500205CE80108DC04002033
:10223000E804002074050020C805002050E80108CB
:10224000E6040020154B1B6800B583B03BB9144B66
:102250001B68A3B9134B1B780BB9FFF7BDFE0BF03E
:1022600069F918B901900BF06BF978B90EF0FAFD25
:102270000AF062FE03B05DF804EB0AF01DBF0A4BE2
:102280001B78002BEBD1FFF765F8E8E7FEF7ACFB16
:10229000064A09210198116003B000BDDC0400204A
:1022A000E804002074050020E6040020C805002092
:1022B0002DE9F04FADF53F7D07460D4616460EF071
:1022C000D1FD8F4B04901C68013420D022461A6047
:1022D0008C4B1B78CBB18C4A47F230539E4298BF4F
:1022E000B5F57A7F07D8B7F1030A18BF4FF0010A96
:1022F000BAF1000F0ED0854B06221A604FF000098C
:1023000048460DF53F7DBDE8F08F814AE4E70122A4
:102310001446DCE7049F4FF003092346A021C83F81
:10232000009296A87B4ACDF804900597049FCDE9CA
:10233000025618F02DFF2346774A402106A8A7F140
:102340000A0818F025FF2346744A402116A818F001
:102350001FFF2346724A402126A818F019FF234682
:10236000704A80214EA8CDF80090CDE9015618F0B2
:102370000FFF4EA80AF074F80EF074FDA0EB0803EE
:102380000446092B00F2A08057460DF1D80B059B9F
:10239000E31AC72B00F28B80602158460DF0C2FF74
:1023A0008246002800F0938000265C46002509E064
:1023B000791C9F294BD86EA8C2550F4601350134B0
:1023C00055450ED222780D2A01D00A2AF0D10022DA
:1023D0006EABDA55002F3ED101350027013455454B
:1023E000F0D30EF03FFD16BB049BC01A40F6B73386
:1023F000984276D8012000260EF03AFD0EF032FD0C
:10240000A0EB08030446092BC1D9FFF71BFF0028E6
:102410006ED0A0460DF1D80B002EB8D060215846E2
:102420000DF080FF82460028BFD10EF01BFD801BFF
:1024300041F2873398424DD801200EF019FD0EF07D
:1024400011FDA0EB08030446092BE7D9DDE7364868
:102450000AF006F8C0E7354809F0B6FF6EA809F0A3
:10246000B3FF334809F0B0FF06A96EA8FEF790FE4F
:1024700050B1002EB0D10EF0F5FC81462D48374604
:1024800009F0A2FF4E4699E716A96EA8FEF780FE56
:10249000814688B96EA826A9FEF77AFE00289BD04F
:1024A000254809F0DDFF194B0A221A6026E796A895
:1024B00009F0A2FF05946FE7204809F0D1FF4846D4
:1024C0000DF53F7DBDE8F08F564657469DE70EF06F
:1024D000C9FC89E71A4809F0C3FF0C4B08221A60AF
:1024E0000CE7184809F0BCFF084B08221A6005E702
:1024F000064B1A68092A3FF401AF05221A60FDE66F
:10250000640500206D05002020E30108C8050020B7
:1025100024E3010894E80108D8E80108F4E8010878
:1025200010E901082CE90108ACE901081CE80108E0
:1025300028E8010868E9010890E901087CE9010838
:10254000ECE90108D0E90108F8B507460EF08AFC6D
:102550000646A0F10A050BE00EF084FC431B092B94
:1025600003D90546FFF76EFE40B101200EF080FC56
:102570000EF078FC801BB842EED3F8BD044B1A680D
:10258000092A01D005221A60024B07221A70F8BDF1
:10259000C8050020CC0500202DE9F04F884C00270D
:1025A000884B4FF00108D4ED007ADFF864B22DEDCE
:1025B0000C8B89B030EE27AA93ED00DA00970397D1
:1025C000DFED818ADFED81BA9FED819ADFED819A9F
:1025D0009FED81BACDE901770EF044FCDFED7F7A03
:1025E0007F4B8146B0EE67CAA0F1FA0AC3ED007ACC
:1025F000F0EE67AA7B4B0646CBED007A0546C3EDAD
:10260000007A794B84ED00AAC3ED007A774BCDE9CF
:102610000477CDE90677C3ED007A0EF023FC41F292
:102620006F73A0EB090204469A4200F2B980831B43
:10263000092B40F2AA80431B0A3607EE903A831B0F
:10264000F8EE677A092B88BF064667EEA87AF4EEA3
:10265000E87AF1EE10FA00F18F809FED658AF4EED2
:10266000C87AF1EE10FA38FE278A624DB0EE480AB9
:10267000FEF794FA7AEE4DCAD5ED007A6BEEE77A62
:10268000ECEE897AF4EEE97AF1EE10FA71D4F4EE18
:10269000C97AF1EE10FA79FE277A28EE0B8A3CEE21
:1026A000487AB4EEE77AF1EE10FA5FDC3CEE088A85
:1026B000F4EEC87AF1EE10FA38FE27CAB0EE4C1AE2
:1026C0006946F0EE6A0A9FED450A4B488BED00CA59
:1026D0000AF01AFB002867D06846FFF747FD00287C
:1026E00066D00EF0BFFB04A90AF004FDA8B9B8F14A
:1026F000000F0BD1414809F0B3FE414B05221A608F
:10270000002009B0BDEC0C8BBDE8F08FCDE90400D2
:10271000CDE906003B4809F0A3FEA4EB0A03294AD1
:10272000F92B92ED00DA2AD8F0EEECCA0CF012FA8E
:10273000DFED357AF4EEE7CAF1EE10FA12D8D5EDF6
:10274000007A9FED327AF0EEE77AF4EEC77AF1EE96
:1027500010FA07D8FFB1E31B4F2B2ED84FF000081B
:1027600025465AE700272546B84656E7B0EE47CA41
:10277000A4E7F0EE697A90E7B0EE688A75E704A9FD
:102780002046A246FEF7BEF9CEE72C4601200EF009
:102790006FFB254641E727464FF0000825463CE7FA
:1027A000174B07221A60ABE7154B06221A60A7E702
:1027B000134B1A68092AA1D1A2E7FFF743FDA0E74E
:1027C00098050020B80500206F12833ACDCC4C3E0E
:1027D000CDCC0C40CDCC0CC0333373400000000096
:1027E000B4050020A4050020A00500209C050020C1
:1027F000CDCC4C3DBC050020B02202082CEA0108DB
:10280000C805002008EA01080AD7A33C0AD7233DDF
:10281000B005002030B59FB00EF024FB274B0546D5
:102820001B78EBB12649274B0A78F2B1264C227867
:102830002AB926490A68AA1AB2F5967F2AD2244BE9
:102840001B683BB9234B1B68EBB9234B1B780BB9B7
:10285000FFF7C2FB2078003818BF01201FB030BD41
:1028600017491E4B0A78002AE0D10120164C059327
:102870000870A5F59670154922700860184809F08F
:10288000EFFD059BD3E7174B1B78002BE2D1FEF73A
:1028900061FDDFE70D604FF4167240F29D1106A84E
:1028A000CDE9012140F28A210F4A0091602118F000
:1028B0006FFC06A809F0A0FDC1E700BF6D05002070
:1028C0008405002020E30108850500208005002004
:1028D000DC040020E80400207405002024E3010843
:1028E00058EA0108E604002084EA01082DE9F04FC7
:1028F00000232DED108BE7B09FED8D8AF0EE40FAAE
:102900001B93B0EE60EA8DED148A8DED158A8DED86
:10291000168ACDE91C33CDE91E33CDE92033CDE94C
:102920002233CDE91933834B93ED00FA0EF09AFA76
:10293000B0EE482A9FED8C1AF0EE481A25AA012322
:1029400009908DED248A07EE903AF0EE6F0A18A9EF
:1029500017A8B8EEE70A013320EE010AFEF702F8E5
:10296000F0EE427A9DED182AB0EE617ADDED171A8D
:10297000412B72EE677A52ED016A31EEC77A67EE4B
:10298000A77AE7EE077AB1EEE77A77EE267AE2ECFD
:10299000017AD8D1DDED64AADFED67DAF4EEEDAAB5
:1029A000F1EE10FA40F258849FED61AA0023634AC9
:1029B000DFED637AF0EE4A8A82ED00AAB0EE4ABA01
:1029C000604A2EEE27EADFED60EAF0EE4A9A82EDE9
:1029D00000AAB0EE4A9A5D4A6FEEAE7AB0EE4ADADD
:1029E000079382ED00AAF0EE4ACA594AB0EE4ACAED
:1029F000CDED037A7FEE0E7A82ED00AA554ACDED39
:102A00000D7A82ED00AA099A0C93A2F1FA011746F9
:102A1000924601220B9108920EF024FA099A42F292
:102A200027330646821A9A4200F24183C31B092BC0
:102A300040F2E583A0EB0A030A3707EE903AC31B86
:102A4000F8EE677A092B88BF074667EEAD7AF4EE99
:102A5000ED7AF1EE10FA00F1A983DFED3FEAF4EE32
:102A6000EE7AF1EE10FA7EFEA7EAB0EE6E0AFEF7FD
:102A700095F816AB14AA20A9009315AB37480AF0B5
:102A8000BBF90A90002800F0F283DFF8D4A0DAED59
:102A9000007A77EECFBAB0EE6B0A17F0F9FAB0EE23
:102AA000408AB0EE6B0A17F0F3F99DED157ADDED73
:102AB000147AF0EE40BA67EE006A9DF86C3027EEAB
:102AC000087AE7EE886AA0EE677A002B00F071833F
:102AD000F0EE401A19A8F0EE470AB0EE660AB0EE22
:102AE0006E2AB0EE481AFEF781FA89EE2A6ADDED09
:102AF000196A9DED1A7AB5EEC06AF1EE10FA00F18E
:102B00006783F7EE002AB4EEE26AF1EE10FAB5EE52
:102B1000C09A32FE866AF1EE10FA40F2AC83B4EE4F
:102B2000EA9AF1EE10FA54DA25AA01232CE000BF4C
:102B300000000000980500206F12833AB4050020C1
:102B4000DA0FC93FB0050020B7D1303FA4050020FF
:102B5000A00500209C050020CDCC4C3DB0220208F1
:102B6000B8050020BD3786350000803CF628DC3EE5
:102B7000AE47213F3333B3BE5C8F5AC09A9919BE1A
:102B80000133412B00F06583D2ED007A0432B4EEBC
:102B9000E79AF1EE10FAF3D8013B1FED0E5A0DEB58
:102BA0008302D2ED245A77EEE57AF4EEC57AF1EE9F
:102BB00010FA40F32A8379EE655A85EEA75A07EE9C
:102BC000903AF8EEE72A5FED187A72EE852A62EE07
:102BD000A72AB0EE620A18A9F0EE6F0A17A88DEDC9
:102BE000067ACDED056A8DED046AFDF7BBFEF7EEC2
:102BF000007A1FED227AB0EE085A1FED233A2FEE2D
:102C0000874A1FED247A77EEE27A5FED253AF1EEFE
:102C1000085A9DED046ADDED056A67EE854A22EEED
:102C2000855A64EEA74A67EEA57AF0EE445A25EE7F
:102C3000225A67EEA27ADDED032ADFEE835AEFEE29
:102C4000C32A65EEA75A67EE877A1FED347AE4EE61
:102C5000245AE4EE877A9DED067AE5EE225AE5EEF7
:102C6000237A65EEA54AB0EE645AA7EEA75AF1EEB4
:102C7000C53AF4EEED3AF1EE10FA40F2F882C5EE04
:102C8000A34AE44BD3ED005A87EEA34ADFEDE23AC4
:102C9000DFEDE27A67EE233A66EEA77AE3EEAECA9C
:102CA000A7EEAECA23EEA43AA7EE843A63EE843AC6
:102CB000E4EEE73A7AEEC97AB0EEC35AA3EE2EDA22
:102CC000E5EE2E5AC3ED005A7AEECD5AB4EEE5AADF
:102CD000F1EE10FAB4EEE7AA3AFE250AF1EE10FA88
:102CE0007AFE277AF4EEC07AF1EE10FA30FE270A67
:102CF000B5EE400AF1EE10FA00F1E082F1EEC07A92
:102D0000DFEDC72AF4EEE72AF1EE10FA77FEA27A99
:102D1000F4EEE79AF6EE002AF1EE10FA6EEEA22A31
:102D200040F1278279EEA22AF4EEE72AF1EE10FABA
:102D300077FEA29AA9EEAE9ADFEDBA7AB4EEEA9ADD
:102D4000F1EE10FA3AFE899A79EE4D2A62EEA72A40
:102D5000FDEE007AF4EEE72AF1EE10FA07D4F5EE74
:102D6000007AF4EEE72AF1EE10FA77FEA27A79EE15
:102D7000A77AFDEE002AF4EEE27AF1EE10FA00F105
:102D80002C82DFEDA72AF4EEE27AF1EE10FA72FE61
:102D9000A77A37EEC33ADFEDA42A63EE222AA2EE29
:102DA000AEBAFDEE002AB4EEE2BAF1EE10FA00F18E
:102DB0001782F5EE002AB4EEE2BAF1EE10FA32FE16
:102DC0008BBADFED9A2AE3EE227AFDEE002A77EE47
:102DD0008B7AF4EEE27AF1EE10FA07D4DFED902A66
:102DE000F4EEE27AF1EE10FA72FEA72ADDED187A1F
:102DF0009DED173A7CEEE77A9FED8D2A3CEE433A43
:102E00008C4B67EE847AC3ED002AE4EEC37A9FED23
:102E10008A3A23EE633AA7EE823A9FED882AB4EE0F
:102E2000C23AF1EE10FA07D49FED852AB4EEC23A09
:102E3000F1EE10FA32FE032A824BC3ED007A824B88
:102E4000DDED037A83ED002A804B37EEEC1AC3EDFB
:102E5000003ADFED7F3A61EE017A73EECC3AF5EE9F
:102E6000C03AF1EE10FA00F1998177EE8A7AF0EE2D
:102E70004A3AB1EEE73ADFED777AB4EEE76AF1EE7F
:102E800010FAC0F27F81DFED747AB4EEE73AF1EE2A
:102E900010FA05D9B4EEED3AF1EE10FA00F3BB8169
:102EA000DFED6E7AF0EE4A4AF0EE673A614BC3ED21
:102EB000004AB7EE004A6A4B82EEAA2AB4EEC46A10
:102EC000F0EE000AF0EE082AF1EE10FAF1EE084AF0
:102ED00034FE061AE1EE602A34EE464A21EE011A6B
:102EE00066EE244A62EE812A9FED5E1A64EE844A01
:102EF000B0EE4F4AAEEE224A6EEE242ADAED004AD8
:102F0000D3ED000A74EE644A64EE814AE2EE824A2E
:102F10009FED552ADFED552AE0EEC24AF4EEE24A73
:102F2000F1EE10FA00F16281F4EEC14AF1EE10FA0E
:102F300071FE244ADFED4E2A6EEEA2EA78EEEE2A0A
:102F4000F4EEE42AF1EE10FA00F34D8178EEAEEAE9
:102F5000F4EEEE4AF1EE10FA7EFEA48A454AC2ED86
:102F6000008A454ADAED004A82ED004A9DED0D4A9D
:102F700074EE644A9FED374AB4EEC46AF1EE10FA7B
:102F800080F2BD80F0EEE55A9FED3C7AF4EEC75A30
:102F9000F1EE10FA00F2C6809FED2F7AB4EEC75A18
:102FA000F1EE10FA00F2BE80F0EEE44ADFED347A82
:102FB000F4EEE74AF1EE10FA00F22A81D3ED007A3E
:102FC0009FED307AF0EEE77AF4EEC77AF1EE10FA80
:102FD00094BF4FF0010A4FF0000A0A9BF0EE4A0A34
:102FE000144A0793284B9FED290A1360164B83ED73
:102FF00000AAB0EE681A1CA9254809F085FE002831
:1030000000F035811CA8FFF7B1F8002800F04781D7
:1030100040E000BFAC0500209A99B93FAE47613F40
:103020003333B33F9A99993FCDCC4C3F3333B33EC2
:103030009A9919C0B4050020AE47613E9A9999BE8D
:103040009A99993EA4050020A00500209C05002027
:103050005C8F7AC09A99593F8FC2F53C00000000FE
:10306000BC050020CDCC0C40CDCC4C3ECDCC0CC012
:1030700033337340B0050020980500206F12033CE5
:103080000AD7A33C0AD7233D295C8F3D295C8FBD1D
:10309000B0220208FFF7BEFB0DF0E4FE20A90AF003
:1030A00029F8B0B9089B6BB9994809F0D9F9994B3F
:1030B00005221A604FF0000A504667B0BDEC108B35
:1030C000BDE8F08FCDE92000CDE92200924809F05B
:1030D000C7F90B9BF31AF92B00F28B800BF03AFD2A
:1030E000BAF1000F57D00C9B002B00F08C80F31A24
:1030F0003B2B00F2DA800023B24608938CE49FED6C
:10310000876AB4EEC63AF1EE10FA0BD827EE077ACA
:10311000A6EEA67AF1EEC76AF4EEC66AF1EE10FAF0
:103120007FF642AFF0EEE44A9FED7D7AF4EEC74AB7
:10313000F1EE10FA37D893ED007ADFED7A6AB0EE4F
:10314000C77A079B03F0010AB4EEE67AF1EE10FAB3
:1031500088BF4FF0000A079B002B7FF43EAF2BEE99
:10316000E70A9A4667EE880AA3EE880AE3EEAB0AFE
:103170003FE779EEE22AF4EEE27AF1EE10FA77FE1A
:10318000A29AD7E564EEC23A62EE047AE4EE223AFD
:10319000E4EEA27A8DE6CDF830A0ACE7E3EEA37AB8
:1031A000F1EE633A65E64FF0000AD4E7F0EE6DEA1F
:1031B0005BE489EE2A6A0123CDED196A8DED1A7A56
:1031C0008DF86C30B5EEC06AF1EE10FA7FF599AC6F
:1031D000B0EE4A6AF0EE4A2AFBE4F0EE627AD8E5F5
:1031E000B0EE62BAEDE5F0EE628AB7E6F0EE624A62
:1031F000A0E620A93046FDF785FC0B966EE701207E
:103200000DF036FE08E40C9675E7B0EE4A5AD6E4A7
:103210004FF0000AE1E6DFED447ADFED444A61EE6B
:10322000277A9FED432A63EEA43A27EEA74AA3EE3E
:10323000A34AF1EEC44AF4EEC24AF1EE10FA1DDDE3
:1032400082EE244AF0EE424A63EE843A67EE847AD4
:103250002CE6F7EE002ABCE44FF0000A2D4B0622C4
:1032600050461A6067B0BDEC108BBDE8F08F294B5B
:1032700006221A601EE7DFED2F2AAAE49FED2E4AF0
:10328000F4EEC44AF1EE10FA7FF510AE84EE242A73
:10329000F0EE444A63EE823A67EE827A06E61D4B10
:1032A0001A68092A7FF404AF04E7244B0122244959
:1032B000DDED0D7A1A70C1ED007AFDE68DED137A21
:1032C000CDED126ACDED115ACDED103A8DED0F3ADC
:1032D000CDED0E4A8DED064A8DED056A8DED045A51
:1032E00016F0ACFD9DED137AF0EE407ADDED126A3A
:1032F000DDED115ADDED103A9DED0F3ADDED0E4A90
:103300009DED064A9DED056A9DED045AF8E400BF67
:103310002CEA0108C805002008EA01080AD7A33DE5
:103320000AD7A33C0AD7233D9A99993F9A9999BF06
:103330006666E63E000000008FC2F53D7405002081
:10334000980500202DE9F04FADF54B7D82460DF03C
:1033500089FDA84B05901A6812F1010900F0C88197
:103360004A46DFF8E4B240F6B8381A609BF80030FD
:10337000059A002BA04BA2F1C801A2F10A021B780A
:1033800008BF4FF4E16807910692002B00F0AE8170
:103390009A4C9B495046FCF79BFF4EF6602347F240
:1033A00030524021CDE900940024A04208BF1A46C3
:1033B000944B1AA81C70944B09921C705346934A64
:1033C00017F0E6FE5346924A40212AA8CDF8009015
:1033D00017F0DEFE53468F4A40213AA8CDF8009000
:1033E00017F0D6FE53468C4A40214AA8CDF80090EB
:1033F00017F0CEFE5346894A40215AA8CDF80090D6
:1034000017F0C6FE5346864A40216AA8CDF80090C0
:1034100017F0BEFE5346834A40217AA8CDF80090AB
:1034200017F0B6FE5346804A6021B2A8CDF800904E
:1034300017F0AEFEB2A809F013F80DF013FD059BCE
:10344000054604940893069BCDF80C90EB1A092BC3
:1034500040D8079BEB1AC72B46D800260DF1280948
:10346000402148460CF05EFF00B309EB00074D46D3
:10347000204609E0421C5F2A44D80DEB00041046A8
:1034800084F86832BD4210D015F8013B0D2B01D0F5
:103490000A2BEFD10DEB0003002283F868220028ED
:1034A00034D1BD424FF00000EED104460DF0DAFCFD
:1034B000002E40F0FB80059BC01A404580F03B8108
:1034C00001200DF0D5FC0DF0CDFC069B0546EB1A56
:1034D000092BBED9FEF7B6FE002800F07A81079BC3
:1034E0000695EB1AC72BB8D91AA808F085FF5346E2
:1034F0004E4A6021B2A817F04BFEB2A808F064FF54
:103500000795AAE74A4808F0ABFFCAE7494808F020
:103510005BFF9AA808F058FF474808F055FF9AA8A3
:10352000FEF778FB40F6B8339BF800203AA94345F4
:103530009AA838BF4346002A18BF9846FDF728FED0
:103540000446002800F08280002E00F0AB80039B30
:1035500060213A4AB2A80093534617F019FEB2A868
:1035600008F07EFF4AA99AA8FDF712FE0646002839
:1035700074D17AA99AA8FDF70BFE0646002840F000
:10358000BA806AA99AA8FDF703FE80B142F6E0630B
:1035900098450AD0039B6021294AB2A8009353465C
:1035A00017F0F6FDB2A808F05BFF42F6E068DCB168
:1035B0009AA85AA9FDF7ECFD08B9264662E70DF076
:1035C00051FC039BA0F1C8041E4A602100930590A2
:1035D0005346B2A8079417F0DBFDB2A808F040FFED
:1035E00040F6B83800230493BD4200F096800020D6
:1035F0004AE700BF640500206D05002020E30108B4
:10360000C0EA01087605002075050020CCEA010813
:10361000ECEA010804EB01081CEB010834EB01089B
:103620004CEB01081CE7010864EB010804EC0108FD
:103630000CED01081CE8010828E801081CEC010851
:10364000C4EC0108E0EC0108860500204AA99AA80C
:103650003446FDF79DFD064600288AD06049504655
:10366000DDF80C90FCF734FE00285AD19AA85D4989
:1036700017F0CCFE031E18BF01235B4C60215B4A90
:10368000B2A8CDF800902370534617F081FDB2A880
:1036900008F0E6FE2378002B45D130460DF54B7D32
:1036A000BDE8F08F0DF0DEFB049050E701200DF037
:1036B000DFFB0DF0D7FB049B099A0546C31A934222
:1036C00050D2069BEB1A092B0AD8089BEB1AB3F5CC
:1036D0007A7FFFF4C5AE2AA808F08EFE0895BFE6F3
:1036E000FEF7B0FD002874D00695EEE7404C50E69A
:1036F0000122914635E6DDF80C9053463D4A6021A3
:10370000B2A8CDF8009017F043FDB2A808F0A8FECB
:10371000394B0A221A600026BFE700240DF0A2FBF5
:10372000C9E60023A9E7354808F09AFE30460DF5B2
:103730004B7DBDE8F08FDDF80C905346304A602198
:10374000B2A8CDF8009017F023FDB2A808F088FECB
:1037500000210122284B8BF8001023490A7008220F
:103760001A60D8E7DDF80C905346264A6021B2A8CB
:10377000CDF8009017F00CFDB2A808F071FE53468A
:10378000214A40218AA8CDF8009017F001FD8AA8AF
:1037900008F032FE8AA808F02FFE53461B4A60212B
:1037A000B2A8CDF8009017F0F3FCB2A808F058FECC
:1037B00001230D4A504616491370164A1370FCF740
:1037C00087FD00287FF469AF0B4B082206461A607C
:1037D00063E7094B1A68092A9DD005221A609AE707
:1037E000C0EA010834EC01087605002048EC010825
:1037F00024E30108A0EC0108C805002064EC0108DE
:1038000028ED010880EB0108A4EB0108BCEB0108DE
:10381000F0EB0108750500202DE9F04F0546ADF5E8
:103820002D7D0E4614460391002702900DF01AFBE1
:103830002B46A0F1C8087B4A4021814614A817F006
:10384000A7FC2B46784A602124A817F0A1FC2B4640
:10385000764A60213CA817F09BFC2B46744A6021F5
:1038600054A817F095FC2346724A80218CA8CDE914
:10387000005617F08DFC8CA808F0F2FD04AE0DF098
:10388000F1FAA0EB0803C72B3AD8402130460CF0E0
:1038900049FDF0B13418B24608E000236CAAD355B4
:1038A000B7BB0AF1010A0027A24512D09AF80030EE
:1038B0000A2B18BF0D2B0CBF01250025EDD0791C5C
:1038C0007F2959D80AF1010A6CA8A245C3550F46B1
:1038D000ECD10DF0C7FA41F28733A0EB0900984212
:1038E00000F28680FEF7AEFC002800F093800120F5
:1038F0000DF0BEFA0DF0B6FAA0EB0803C72BC4D941
:10390000804614A808F078FD4B4808F05DFDBCE740
:103910004A4808F059FD6CA808F056FD484808F0E0
:1039200053FD6CA8FEF776F924A96CA8FDF730FCCE
:1039300030BB3CA96CA8FDF72BFC834650BB54A9B7
:103940006CA8FDF725FC0028ABD06CA83D4917F00A
:103950005DFD0446002835D03B4808F035FD0123C5
:103960003A4928463A4A0B7013703A4BC3F800B0F4
:103970000DF52D7DBDE8F08F374808F071FD90E71B
:10398000364808F021FD3CA96CA8FDF701FC8346F0
:103990000028D4D003998CA8029B314A0091802141
:1039A00017F0F6FB8CA808F05BFD01232748284997
:1039B00003702846274A0B70002313600DF52D7DF8
:1039C000BDE8F08F03998CA8029B264A00918021C4
:1039D00017F0DEFB8CA808F043FD23491D4B08229D
:1039E0000C701A60002528460DF52D7DBDE8F08F7E
:1039F00003988021029B1D4A00908CA817F0C8FBF9
:103A00008CA808F02DFD18490020124B08220870E0
:103A10001A60E7E70F4B1A68092AE3D005221A60FB
:103A2000E0E700BF4CED010870ED010898ED0108DA
:103A3000BCED0108E0ED010820EE01081CE80108DA
:103A400028E80108B0EE0108C8EE0108760500205C
:103A500075050020C80500202CEF01084CEE010878
:103A600078EE0108F4EE0108860500205CEF0108FD
:103A70002DE9F04FADF5617D0C4607900DF0F2F9A0
:103A8000A74B0C901A6812F1010800F09E81424683
:103A9000DFF8D8A240F6B8371A609AF80020A14B98
:103AA000002A0C9A1B78A2F1C801A2F10A0208BFF1
:103AB0004FF4E1670A910992002B00F083819A4B41
:103AC0000D930023994A1370994A1370002C00F04B
:103AD0004F810D9BC0A8974A8021009302230F902D
:103AE0000193434617F054FB38A84346924A60219D
:103AF000049017F04DFB50A84346904A6021059072
:103B000017F046FB68A843468D4A6021069017F0DF
:103B10003FFB20A843468B4A60210E9017F038FBEC
:103B2000894B0893079B8021884AA0A802930D9B8C
:103B3000CDE90083089B17F02BFBA0A808F090FCB0
:103B40000DF090F9002304461D460B93099BE31AE0
:103B5000092B3DD80A9BE31AC72B43D810AE40214E
:103B600030460CF0DFFB8346002800F047814FF021
:103B700000090024284608E0421C7F2A45D880A975
:103B80000B54104601345C450DD2335D0D2B01D032
:103B90000A2BF1D1002380AA1354002839D1013413
:103BA00000205C45F1D305460DF05CF9B9F1000F3A
:103BB0007ED10C9BC01A874240F2278101200DF074
:103BC00057F90DF04FF9099B0446E31A092BC1D9A7
:103BD000FEF738FB002800F03E810A9B0994E31AA7
:103BE000C72BBBD90F9808F007FC079B584A8021C8
:103BF0000293A0A80D9BCDE90083089B17F0C8FA9B
:103C0000A0A808F0E1FB0A94A8E7524808F028FCB5
:103C1000C5E7514808F0D8FB80A808F0D5FB4F480D
:103C200008F0D2FB80A8FDF7F5FF40F6B8339AF80C
:103C3000002080A80499002A18BF1F46FDF7A8FAA3
:103C4000054678B1B9F1000F2ED0079B8021444A78
:103C5000A0A8A946CDE90083089B17F099FAA0A86F
:103C600008F0FEFB059980A8FDF792FA002840F0C5
:103C7000AF8080A80699FDF78BFA002882D00799BB
:103C8000A0A8089B374ACDE90081802117F080FA6F
:103C9000A0A808F0E5FB344B0A221A60002528464C
:103CA0000DF5617DBDE8F08F0DF0DCF80B90CCE7F1
:103CB000012047F22F540DF0DBF80DF0D3F88346C6
:103CC0000B9B099AABEB0303ABEB0202A34200F29E
:103CD000AF80092A1CD80A9BABEB0303B3F57A7FAC
:103CE00010D2402130460CF01DFB834600287FF4A3
:103CF00040AF0DF0B7F801200DF0BAF80DF0B2F8B2
:103D00008346DDE70E9808F077FBCDF828B0E8E7AA
:103D1000FEF798FA002800F09E80CDF824B0DAE78C
:103D2000640500206D05002020E3010876050020D1
:103D300075050020ACEF0108E4EF010810F0010860
:103D4000BCED01083CF00108A0EF0108B8F0010843
:103D500044F1010810F201081CE8010828E80108F4
:103D600080F10108E0F10108C80500208605002067
:103D7000079BC0A83C4A802101930D9B0F900093A4
:103D8000434617F005FA38A84346384A60210490A4
:103D900017F0FEF950A84346354A6021059017F008
:103DA000F7F968A84346334A6021069017F0F0F906
:103DB00020A84346304A60210E9017F0E9F92F4BB6
:103DC0000893AFE62E4B0D937BE6012290465FE60B
:103DD000079B054600212B4801932B4A089BCDF8F1
:103DE000008001708021A0A817F0D2F9A0A808F0E7
:103DF00037FB28460DF5617DBDE8F08F0DF032F8F8
:103E00000C9BC31ABB42FFF4D9AE079C8021089BD0
:103E1000A0A81E4ACDE9008417F0BAF9A0A808F0BE
:103E20001FFB1B4A21464046FFF7F6FC054636E7D6
:103E3000079C8021089BA0A8164ACDE9008417F0B2
:103E4000A7F9A0A808F00CFB134A21464046FFF74B
:103E5000E3FC054623E7114B1A68092A3FF41EAF1D
:103E600005221A601AE700BF60F0010894F001080B
:103E700098ED0108BCED01083CF0010898EF01083D
:103E800024E3010876050020B0F1010838F20108AA
:103E900080F20108F4F0010834F10108C80500209F
:103EA0002DE9F04FADF5077D83460CF0DBFFA34B0A
:103EB00005901A6812F1010A00F0DE805246DFF820
:103EC000EC8240F6B8361A6098F80030059A002B5C
:103ED0009B4BA2F1C801A2F10A021B7808BF4FF464
:103EE000E16603910492002B00F0C480954B0027FB
:103EF000954A402116A8CDE900A3944B1F705B465C
:103F000017F046F95B46924A402126A8CDF800A05A
:103F100017F03EF95B468F4A402136A8CDF800A045
:103F200017F036F95B468C4A402146A8CDF800A030
:103F300017F02EF95B46894A60216EA8CDF800A0E3
:103F400017F026F96EA808F08BFA0CF08BFF049B93
:103F50000446C31A092B76D8039BE31AC72B7BD8D8
:103F6000402106A80CF0DEF900285BD006AC25182D
:103F700009E07A1C5F2A5FD86F4487F858311746EA
:103F80000134AC424ED023780D2B08D0A3F10A099E
:103F9000B9FA89F94FEA5919B9F1000FE9D04FF090
:103FA00000090DEB070383F85891002FE8D06C4807
:103FB00008F00AFA56A808F007FA6A4808F004FA66
:103FC00056A8FDF727FE40F6B83398F8002026A93A
:103FD000B34256A838BF33464A4518BF1E46FDF7C0
:103FE000D7F800284BD146A956A8FDF7D1F80746C7
:103FF000002860D156A836A9FDF7CAF808B342F6E2
:10400000E0694E45BCD05B46574A60216EA801343A
:10401000CDF800A017F0BCF86EA808F021FAAC4269
:104020004E46B0D10CF01EFF059BC01AB04269D2BB
:1040300001200CF01DFF88E74C484F4608F010FAAD
:104040009EE707469CE7FEF7FDF800286FD0039B2C
:104050000494E31AC72B83D916A808F0CDF95B4660
:10406000434A60216EA817F093F86EA808F0ACF9E7
:10407000039475E73F4B3AE7012292461FE7334B23
:1040800007463D49584683F800903C4BC3F800A0D2
:10409000FCF71EF918B35B46394A60216EA8CDF8CB
:1040A00000A017F075F86EA808F0DAF938460DF59B
:1040B000077DBDE8F08F5B46324A60216EA8CDF8DF
:1040C00000A017F065F86EA808F0CAF92E4B0A2276
:1040D0001A60002738460DF5077DBDE8F08F184BB4
:1040E0001A782A4BC3F800A0294B1A70294B187074
:1040F000294B1870294B1870294B1870294808F063
:10410000AFF9C8E75B46284A60216EA8CDF800A049
:1041100017F03EF86EA808F0A3F9002101221A4B0F
:1041200088F8001009490A7008221A60D1E7164B76
:104130001A68092ACDD005221A60CAE76405002052
:104140006D05002020E30108CCEA01087605002077
:1041500004EB01084CEB01081CE701088CF2010894
:104160001CE8010828E8010840F301080CED0108EB
:10417000ACF2010824E3010804E301086005002013
:10418000F8F2010818F30108C8050020D004002047
:10419000CD040020CC040020CB040020CA04002061
:1041A000C9040020CCF2010864F301088605002050
:1041B0002DE9F047ADF5327D05460CF053FE6B4B13
:1041C00080461A68541C17D022461A605DB16849AF
:1041D0002846FCF77DF830B9664B1B681BB1664A70
:1041E000126893420BD0654B06221A6000252846C0
:1041F0000DF5327DBDE8F08701221446E5E7604AFF
:10420000604B12781B789342EDD1A8F1C809A8F150
:104210000A0A002B74D15C4B5C4A602112A8CDE9DC
:1042200000432B4616F0B4FF2B46594A60210094F8
:104230002AA816F0ADFF2B46564A6021009442A8EA
:1042400016F0A6FF2B46544A602100945AA816F097
:104250009FFF2B46514A8021009492A816F098FFA8
:1042600092A808F0FDF800250CF0FCFDA0EB0A0375
:104270000446092B33D8A4EB0903C72B38D84021B7
:1042800002A80CF04FF8C0B102AC0027261808E0D5
:104290006A1C7F2A36D8013472A9B4424B551546A0
:1042A0000BD023780D2B01D00A2BF1D172AB5F55C7
:1042B00065BB01340025B442F3D10CF0D3FD43F6C5
:1042C0009723A0EB0800984240D801200CF0D0FDC5
:1042D0000CF0C8FDA0EB0A030446092BCBD9FDF76F
:1042E000B1FF002839D0A4EB0903A246C72BC6D9D9
:1042F00012A8A14608F080F8294808F065F8BEE742
:10430000284B89E7284808F0ABF8D2E71846FDF7B4
:1043100081FC2AA972A8FCF73BFF78B942A972A8D0
:10432000FCF736FF054668B972A85AA9FCF730FFBA
:104330000028BED0114B0A221A6057E71B4808F02C
:1043400043F8B6E71A4808F03FF850E70B4B08224D
:1043500018481A6008F084F848E7084B1A68092AD8
:104360003FF444AF05221A6040E700BF6405002017
:1043700004E3010860050020D0040020C8050020E7
:104380006D050020CD04002024E301088CF3010812
:1043900004EB01081CEB01081CE70108B0F301085D
:1043A000D4F3010820E301080CED0108F8F301083B
:1043B0001CF4010840F401089FEDDA7A60EEA07A5F
:1043C0000023DFEDD96A31EE477AE0EE007AB0EEF5
:1043D000C77A2DE9F04F2DED108BE7B0B4EEE67AF9
:1043E000DFF89083B1EEE79A3293074636932C9329
:1043F00035933993F1EE10FAD8ED007AB0EE608A79
:10440000F0EE408A8DED1A7ACDED0C7AF0EE41FA9D
:10441000B0EE61AA8DED162AB0EE62EA0991CDE9FF
:104420003333CDE93733CDE92D334FF000032693F5
:1044300027932893BD4BD3ED007ACDED087A00F297
:10444000F982F0EE087ACDED127ADFEDB97ACDED92
:10445000117ADFEDB87ACDED107A002F00F0E58209
:10446000DFEDB57ACDED1B7AF0EEC87AB0EEE87AE2
:10447000F4EEC77AF1EE10FA40F3CE82F1EE047A50
:10448000CDED0D7AF5EE007ACDED0B7A0CF0EAFC6D
:10449000DFEDAA7A0246B4EEE79AF1EE10FA00F1E7
:1044A000B282F5EEC0FAF1EE10FA40F2AC82B5EE4F
:1044B000C0AAF1EE10FA40F2A682099B002B00F090
:1044C0009A8288EE89FA9E4BDFEDAB8A4FF0000CA2
:1044D0009C491646C3ED008A15469B4BC8EE09EA77
:1044E000CDF870C0C3ED008A984BCDF850C0C3ED35
:1044F000008A974BF0EE68BAB0EE68DACDF874C077
:10450000C3ED008AF0EE68CA924BB0EE689AF0EE06
:1045100068AACDED0F8AC3ED008AB0EE68BA6FEEDF
:104520008F7A8D4BB0EE68CACDED0E8A674508BF15
:104530001946A2F1FA03CDED177ADFED7D7A1393D8
:104540000123CAFE677ACDED237ADDED087A229148
:1045500077EE8E7A0793CDF864C08DED05EACDED48
:10456000157A6FEEAE7A0A92CDED187A0CF07AFCDD
:104570000A9A43F697230446821A9A4200F2F38578
:10458000764B1B6823B1764B1B78002B40F0FC85E3
:10459000A31B092B40F24F84631B9FED687A0A36F8
:1045A00007EE903AA31BF8EE677A092B88BF2646E0
:1045B00067EE877AF4EEC77AF1EE10FA00F187839E
:1045C0009FED682AF4EEC27AF1EE10FA32FE27EA85
:1045D000CBEE2F7AF5EEC07AF1EE10FA00F172838D
:1045E000B7EE008AB0EE007AF4EEC87AF1EE10FA77
:1045F00038FE278AF0EE087AE8EE477A28EE087A45
:1046000067EE877A9DED057AB0EE4E0ADDED089AE9
:10461000464BE7EE279AC3ED009AFCF7BFFA28ABAA
:1046200026AA36A95048009327AB08F0E5FB0546BB
:10463000002800F0E8819DED0C7AD8ED007A77EE45
:10464000C77AB0EE670ACDED067A15F021FDF0EEDF
:1046500040DA9DED060A15F01BFCDDED270ADDEDC5
:10466000267AF0EE401A60EE806A9DF8B83060EE6F
:10467000AD0AE7EEAD6AE0EE670A002B00F02A8390
:10468000B0EE660A2CA8B0EE4E2AB0EE6D1AFCF71A
:10469000ADFCDDED2C6ADDED2D0A20EEAE6A334B6C
:1046A00020EE8F7AD3ED007AEEEE26CAAFEE266AC0
:1046B000AEEEE67AA0EE8EDAA6EE0ECAB0EEC64AEE
:1046C000E7EE0EBAE4EE0E7A3FEECC5AF4EEC58A6F
:1046D000C3ED007A1D4BF1EE10FAC3ED00BA1D4B8D
:1046E00038FE850A83ED007A099B002B00F02583B4
:1046F000DFED117AB4EEE70ADDED057AF0EEE74A78
:10470000DFED207AF1EE10FAF4EEE74A40F3F3829F
:10471000F1EE10FA00F3B8839FED153AFDEE007A42
:1047200032E000BF115224400AD7233C98050020F4
:104730009A99993E5C8FC23E6F12033C6F12833A86
:10474000B405002068F40108B0050020A40500208D
:10475000A00500209C050020A8F40108E804002022
:10476000E7040020CDCC4C3DB0220208AC0500206F
:104770009A99993FB805002000000000CDCC4C3F2D
:104780003333B33E17B7D13825EE033AB4EEE73AE8
:10479000F1EE10FA00F1A2845FED097AF0EE4AAA78
:1047A000B0EE6FBAF0EE673AF5EE005AB4EEE53AC5
:1047B000F1EE10FA75FE835A75EEAA5ABDEE003A74
:1047C000F4EEC35AF1EE10FA00F18C82F4EECA5AFC
:1047D000F1EE10FA7AFE255A35EEC63A5FED192A47
:1047E000BDEE006A63EE222AA2EE8E9AB4EEC69A5D
:1047F000F1EE10FA00F17C82B5EE006AB4EEC69AD2
:10480000F1EE10FA36FE099AB0EE656A5FED245AB1
:10481000A3EE256AFDEE005A36EE096AB4EEE56AAB
:10482000F1EE10FA00F16182B4EECA6AF1EE10FA0C
:104830003AFE066A5FED2D5A854BF4EEE54A83EDAC
:10484000006AF1EE10FA00F31682002F40F00E829B
:10485000F0EEC65A9FED7F3ADFED7F2A65EE835A70
:1048600085EEA23ADFED7D2AB4EEE23AF1EE10FADF
:1048700072FE832AB1EE623AD8ED005A9DED0D2A00
:1048800075EEE95ADFF8F8B1E5EEC27ADBED005AD1
:104890009DED0B2AE5EEC27AF4EEC37AF1EE10FA42
:1048A00005D4F4EEE27AF1EE10FA32FEA73ADDED2D
:1048B000117ADDED105A27EEC77ADDED127A684BDA
:1048C000A7EEEB7A83ED003AF1EE657AB4EEE77A83
:1048D000F1EE10FA05D4B4EEE57AF1EE10FA75FEB9
:1048E000877A9DED187A5F4B77EE4D9A9DED177A9A
:1048F000C3ED007A37EE6C8A002F00F0CF809FED79
:10490000627A2FEE877AB4EECC7AF1EE10FA00F2EA
:104910008D821D9768EE087A199BE9EEA97AB1EEAF
:10492000E77AD3B92298CDED211ACDED204A8DED4D
:104930001F7ACDED1E3ACDED196ACDED060A07F0CE
:104940008FFDDDED211ADDED204A9DED1F7ADDEDB5
:104950001E3ADDED196ADDED060ADDED1B7AF4EE97
:10496000C77AF1EE10FA00F1BB82394BC3ED008A31
:10497000C0F26D8266EEA66ADFED3B7AE0EEA06AD9
:10498000B1EEE67AB4EEE77AF1EE10FA00F25F8269
:104990009DED157AD8ED007A77EE677A9FED3D7A36
:1049A000F0EEE77AF4EEC77AF1EE10FA00F25283F5
:1049B000DBED007AF0EEE77A002F00F017869FED2E
:1049C000367AF4EEC77AF1EE10FA00F24583DDEDA7
:1049D0000F7A3D46DFED250A012378EEE76ADDED2B
:1049E0000E7A199738EEE77A26EEA66AF0EE607A2C
:1049F000A7EE076AAEE0DDED167AF5EEC07AF1EECD
:104A000010FA3FF65EAD1A4B06221A60002067B01E
:104A1000BDEC108BBDE8F08FF2EE027ACDED0D7A91
:104A2000DFED147ACDED0B7A30E5DFED167ACDEDC2
:104A30001B7A19E5DFED107ACDED117ADFED0F7AF3
:104A4000CDED127ADFED0B7ACDED107A05E500BFE2
:104A5000B40500206666263F7B14AE3E3333333FF9
:104A6000B0050020A0050020CDCCCC3C000000000B
:104A7000C80500209A99993EAE47613E9A9919401F
:104A8000BC0500200AD7233CCDCC4C3E6F12033C22
:104A90008FC2F53C0AD7A33C0AD7233D1FED077A06
:104AA000DDED1A5AF4EEC75AF1EE10FA09D81FEDEF
:104AB0000A7A2FEE877AB4EECB7AF1EE10FA7FF60F
:104AC00029AF2EEEE77AB0EEC55A6FEE270AF0EE68
:104AD000477A1FED127AB4EEC75AEFEE067AEEEE81
:104AE000860AF1EE10FA00F2D3801FED177AB4EEC9
:104AF000C74AF1EE10FA00F2CB80DDED156A98EDB1
:104B0000007A36EEC77A5FED1D6AB0EEC77AB4EE72
:104B1000E67AF1EE10FA00F288829BED007A5FED02
:104B2000226AB0EEC77AB4EEE67A002F00F00D826A
:104B3000F1EE10FA00F21C829DED0F7A002570EE66
:104B4000C76A9DED0E7A2B4637EEC77A26EEA66A27
:104B5000A7EE076AF1EEC65AF4EEE35AF1EE10FA48
:104B600040F3E88163EEA66A23EE877A86EEA56AB3
:104B7000DDED0E6AC7EE257A9DED0F7A37EE067AE7
:104B80008DED0F7A27EE077A76EEA77AA7EEA77A51
:104B9000CDED0E7AF1EEC77AC04A9DED0E7AC0498E
:104BA000C2ED007ADDED0F7A6FEE277AEEEEC77A6E
:104BB000C1ED007A002B00F0C68192ED007ADFEDA6
:104BC000B97AB4EEE77AF1EE10FA94BF4FF001092A
:104BD0004FF00009DDED0F0ADDED0E7A21EEE00A5F
:104BE000B14B60EEAD0A32A993ED001AA7EEAD0A03
:104BF000AE48E7EEA10A08F087F800283FF403AFBB
:104C000032A8FDF7B3FA002800F0B9820CF02AF9B7
:104C100036A908F06FFA78B9079B33B9A44807F0B2
:104C20001FFCA44B05221A60F0E6CDE93600CDE961
:104C30003800A14807F014FC139BE31AF92B00F28B
:104C4000EF8009F087FFB9F1000F1BD0002D149AF7
:104C50000CBF3C23FA23002A00F0F480A21A9A42E7
:104C600080F0A6820023254607937FE49FED933AC8
:104C7000DFED932A00E6002FF8D19FED923ADFEDA9
:104C8000922AF9E52546CDF85090CDF81C906DE4B8
:104C9000DDED156A98ED007A36EEC77ADFED8B6AA6
:104CA000B0EEC77AB4EEE67AF1EE10FA01D8DBF88E
:104CB00000300025A9462B46002F8FD02A461C9D88
:104CC0001C926BE1F0EE687AB0EE688A9AE49FED90
:104CD00080EA7DE40123CDED2C6ACDED2D0A8DF81F
:104CE000B830DAE4F0EE435A76E5B0EE656AA1E555
:104CF000B0EE469A88E5F1EE10FA76DCDFED757AD3
:104D0000FDEE005A65EE277AF4EEE57AF1EE10FA40
:104D100000F1F281F5EE005AB0EE6FBAF4EEE57AEA
:104D2000F1EE10FA75FEA75ADFED6B7A75EEA85A10
:104D3000F0EE673AF0EE67AA48E57FEECB7AF4EE44
:104D4000E78AF1EE10FA78FEA77AF4EEC07AF1EE77
:104D500010FA30FE270ADDED167A77EEA77A20EEFC
:104D6000270AB5EE400AF1EE10FA00F1FA83F1EEEF
:104D7000C07ADDED165AB4EEE7AA65EE8E3AF1EE92
:104D800010FA77FE8A7AF4EEE7AAF1EE10FA40F113
:104D9000C8807AEEA3AAF4EEE7AAF1EE10FA77FE45
:104DA000AAAAAAEE8EBADDED057AF0EEE74ADFEDAB
:104DB0004B7AB4EEEFBAF1EE10FAF4EEE74A3FFEAA
:104DC0008BBA3BEE4C3AF1EE10FA16DCF0EE687A54
:104DD000DFED405A23EE253AFDEE005AB4EEE53AF7
:104DE000F1EE10FA7FF5E0ACE6E4B0EE453AB0EE55
:104DF0006FBAF0EE68AAF0EE683ACAEEAF5ADDED8F
:104E0000052AF1EE087A62EEA77AF7EE002A67EE3D
:104E1000887A72EEC82A67EEA27A67EEA57AD7E79B
:104E200036A92046FBF76EFE13940AE71D9B002B64
:104E30007FF470AD45E62C4601200CF019F82546AC
:104E4000FFF794BB254614940792FFF78FBBDFED65
:104E5000220AF0EE607ADDED156A98ED007A36EE02
:104E6000C77ADFED1A6AB0EEC77AB4EEE67AF1EEF1
:104E700010FA01D8DBF800304FF0000919954B46C5
:104E8000002F3FF4ABAE19E7B0EE453AF0EE4AAA78
:104E9000B0EE6FBAF0EE683AAFE700BFB40500209D
:104EA000A0050020CDCCCC3CB0050020B0220208EB
:104EB0002CEA0108C805002008EA01083333B3BE14
:104EC0003333B33E333333BF3333333F0AD7A33C9B
:104ED0006F12833A9A99993F0000000017B7D138B2
:104EE00079EEA90A78EE087A60EEA06AE7EEA76A82
:104EF000B1EEE67ADDED236AF4EEC76AF1EE10FA60
:104F00005CD5C6EE876A60EEA60A67EEA67A60EE0A
:104F1000A06AE7EEA76AB1EEE67ABC4B83ED007AB1
:104F200099E77AEEE3AAF4EEEA7AF1EE10FA77FE68
:104F3000AAAA36E720EEA07ACDED0F0ACDED0E7AC3
:104F4000A7EEA77A26E6994644E6F1EE10FA3A462D
:104F500094BF4FF00109B9464B469FEDAD7AF4EE90
:104F6000C74AF1EE10FA00F2A680A946154635E6CA
:104F7000DFEDA77AF4EEE74AF1EE10FA36DD002312
:104F8000A24A1360A34A13601C9B002B00F004810B
:104F9000DFEDA10A0023F0EE607A1C939DED0F7AFD
:104FA0001C9A70EEC76A9DED0E7A1C95154637EE79
:104FB000C77A26EEA66AA7EE076ACBE5DFED976A09
:104FC000B4EEE67AF1EE10FAA7D59DED236AC6FE9F
:104FD000666A86EE876A60EE860A67EE867A60EE1B
:104FE000A06AE7EEA76AB1EEE67A96E74FF000090D
:104FF000864BC3ED008A874BC3ED008A1C9B002BB8
:1050000000F08480DDED0F7A4D46DFED830A00234A
:1050100078EEE76ADDED0E7A38EEE77A26EEA66ADC
:10502000F0EE607AA7EE076A94E5002FA0D19FED1D
:10503000787A3A46F4EEC74AF1EE10FA95D9B946B5
:105040003B469FED737AF4EEC74AF1EE10FA36DC78
:105050001546C3E5002F78D0DFED6D7AF4EEE74A10
:10506000F1EE10FA40F38380DFED6B0A674BC3ED7E
:10507000000A684BC3ED000A1C9B002B40F05582D0
:1050800099462A4619956648CDED201ACDED1F3A6E
:105090001E93069207F0E4F9DFED5F0A1C95F0EE2F
:1050A000607A069DDDED201ADDED1F3A1E9B002F74
:1050B0003FF494AD02E6B9F1000FC2D055E7534971
:1050C000C1ED008A5349C1ED008A1C990029DAD04C
:1050D000DFED510A1546F0EE607A7FE5F5EE005AF5
:1050E000DFED4D7AF0EE4AAAB0EE6FBA7AEE655A6D
:1050F000F0EE673AFFF76ABBDFED477AB0EE6FBAC2
:10510000F0EE673AF0EE67AAFFF760BB4448CDEDDA
:105110001E1ACDED063A07F0A3F9DDED0F7A002354
:10512000DFED3D0A78EEE76ADDED0E7A1C954D461F
:1051300038EEE77ADDED063A26EEA66ADDED1E1AB8
:10514000F0EE607AA7EE076A04E5DFED317A2A46D1
:105150001995F4EEE74ADFED307AF1EE10FA09D84E
:10516000F0EE670A01E72F4B05221A604EE4A946CC
:1051700019953DE7F0EE670AB9463B4661E7294BD2
:105180001A68092AF0D141E4FDF75CF800231F4AB0
:105190001360254A136039E42148CDED1C1ACDED8A
:1051A000063A07F05DF9DDED063ADDED1C1AEFE693
:1051B0001E4B0024DDED157AC3ED007A134B1C6005
:1051C000002F45D0DFED1A7AA0211A4A3EA829EE19
:1051D000A76A28EE277AB7EEC66AB7EEC77A8DEDD2
:1051E000026B8DED007B15F0D3FF3EA807F038F978
:1051F000FDF728F800287FF40AAC0A4B1A68092A40
:105200003FF405AC05221A6001E400BFB40500209C
:1052100017B7D138A0050020000000008FC2F53C70
:10522000E8F40108C8050020B0050020980500201A
:1052300000007A442CF501086F12833A3333B3BE71
:105240006F12033CEC5138BE9A9919C0AE47613ECB
:105250003A973E972F973D9741975FED098A5FED0B
:10526000099A5FED06AA1FED08AA1FED0A9A1FED25
:105270000CBACDE93B77CDE93F77CDE930770BF03C
:10528000F1FDCA4B824601201C60C94B564655466B
:10529000C3ED00BAC74B1C60AAF1FA030593FBF7F4
:1052A000EBFB06970BF0DEFDA0EB0A030446B3F51B
:1052B000FA5F80F04281831B092B40F22C81431B53
:1052C0000A3607EE903A831BF8EE677A092B88BFFF
:1052D000064667EEA87AF4EEE87AF1EE10FA00F1ED
:1052E00003819FEDB58AF4EEC87AF1EE10FA38FE2C
:1052F000278AB0EE480AFBF751FC2BAB29AA3EA93E
:1053000000932AABAD4807F077FD002800F0078135
:10531000DDED0C7AD8ED00CA7CEEE7CAB0EE6C0A7F
:1053200014F0B6FEB0EE40CAB0EE6C0A14F0B0FD58
:10533000DDED2A0AF0EE401ADDED297A20EE200A92
:105340009DF8C4306CEE200AACEE270AE1EEE70AC5
:10535000002B00F0D280B0EE482A2FA8B0EE4C1AF5
:10536000FBF744FE9DED2F0ADDED300A6FEE200ABB
:10537000934BDDED0B6AEEEEC00AC3ED000AD3EDF0
:10538000007A8B4BE8EE27BADDED157AC3ED00BA53
:1053900098ED007A37EE677ADBED007A67EEE67A11
:1053A000DDED0D6AE6EEC77AF4EEE97AF1EE10FA79
:1053B00000F1A0809FED837AF4EEC77AF1EE10FA47
:1053C00077FE277A804BC3ED007A7D4BD3ED007AD0
:1053D0006AEEE77AEBEE8A7AF4EEC97AF1EE10FA29
:1053E00000F185809FED797AF4EEC77AF1EE10FA3C
:1053F00077FE277A6F4B3AA97048C3ED007AD3ED58
:10540000007AD3ED000A6EEEE77A6F4B6FEE200A5A
:1054100093ED001A20EEE10A6CEE200AACEE270AAA
:10542000E1EEA70A07F070FC002878D03AA8FCF754
:105430009DFE002800F08D800BF014FD3EA907F0C2
:1054400059FE90B9B9F1000F08D1614807F008F88A
:10545000604B052238461A60FFF7D9BACDE93E0005
:10546000CDE940005C4806F0FBFF059BE31AF92BF1
:105470004BD809F06FFBF0EEEB7AF4EECB7AF1EE5D
:1054800010FA2ED84E4B9FED557AD3ED007AF0EE00
:10549000E77AF4EEC77AF1EE10FA22D8D8ED007A66
:1054A000DDED156A9FED4E7A77EEE67AF0EEE77A5B
:1054B000F4EEC77AF1EE10FA13D8DBED007A9FED27
:1054C000497AF0EEE77AF4EEC77AF1EE10FA08D8EE
:1054D000069B83B3E31A3B2B65D825464FF00009A2
:1054E000E0E600230693F8E7B0EE688A01E7F0EE05
:1054F000497A7FE7F0EE697A64E701238DED2F0AA0
:10550000CDED300A8DF8C43030E73EA92046FBF7D8
:10551000F9FA0594ADE701200BF0AAFCC2E62D4B89
:10552000062238461A60FFF772BA1C9DF0EE607AC8
:105530000023199532E50694CFE7002303201D4A86
:105540001360FBF799FAFCF77DFE07463846FFF734
:105550005EBA204B1A68092A7FF47BAF3846FFF702
:1055600056BACDED251ACDED246A8DED215A8DED7B
:10557000207A8DED1F6ACDED1E0A8DED064A14F0DE
:105580005DFCDDED251AF0EE407ADDED246A9DED3F
:10559000215A9DED207A9DED1F6ADDED1E0A9DEDDD
:1055A000064AFFF7E6BB00230220C8E7B405002047
:1055B000A4050020A0050020CDCC4C3DB02202085F
:1055C0009C0500203333B33EB0050020EC51383E3B
:1055D0002CEA0108C805002008EA01088FC2F53C42
:1055E0000AD7A33C0AD7233D000000001FED037A31
:1055F0002A461995F4EEC77A5FED057AF0EE670A50
:10560000F1EE10FA94BF4FF001094FF000094B463C
:10561000A3E400BF2DE9F04F002304462DED108BCD
:10562000ADF5157DF0EE608AB0EE409A1D93B0EEB8
:10563000418AF0EE61BACDED022AF0EE42DA08902E
:10564000CDE91E33CDE92033CDE92233CDE9243332
:10565000CDE91B33604BD3ED007A604BCDED0B7A77
:10566000D3ED007ACDED0A7A0BF0FCFB68EEA87A58
:105670000790E9EE097AB1EEE77A002C00F0C080DD
:10568000DFED577AB4EEE77AF1EE10FA00F19A8086
:10569000DFED547AB4EEE78AF1EE10FA40F2928030
:1056A00029EE089ADFED504A68EE888A9FED4F4A4E
:1056B000B6EE006A9FED4E2AC9EE075A0DF1980B1F
:1056C0000DF1CC094FF0010819AE18AD1AAF17A9AA
:1056D000CBED007AC8EE876ACBED017ACBED027A8A
:1056E000CBED0C7AF0EE673AB0EE671ACBED0A5AC2
:1056F00026EE867ACBED0B6A25EE866A26EEA45A54
:1057000027EE243AE6EE243AF0EE452AF0EE431A6C
:105710008BED033AA6EE041A9FED363AE7EE042A23
:105720009FED357AE6EE841AE5EE823AA6EE875AC8
:1057300025EE877AB0EE674A8BED041AE6EE822AF0
:10574000A6EE247ACBED051ACBED063AF0EE673AD9
:105750008BED095ACBED072A8BED087A07EE908A7C
:1057600033462A465846B8EEE70A009708F1010882
:1057700080EE030AFBF768F859ED016AB8F1610F92
:10578000F0EE447A95ED004AB0EE637AD1ED003A3E
:1057900074EE677A33EEC77A67EEA77AE7EE077A98
:1057A000B1EEE77A77EE267AE9EC017AD6D1DBED35
:1057B0006C7A0C46B4EEE78ACBED6D7AF1EE10FA16
:1057C00000F1DB830D4B06221A6000200DF5157DDC
:1057D000BDEC108BBDE8F08FB805002098050020C7
:1057E0006F12833A000000009A99193F9A99993EE6
:1057F000CDCCCC3D0000C042CDCCCC3EC805002075
:10580000C9EE075A0DF1980B002291499148CBF847
:10581000002001F11004CBF804205A4688EE876A74
:10582000F0EC017A0832B1EC017A8C4266EE676ADC
:1058300028EE077A65EEA77AE5EE876AE6EE077A44
:10584000C2ED006AC2ED017AEAD1DFED837A68EE3B
:10585000255A28EE066A9FED8B3AB0EE674A0BF1A7
:105860003409F0EE673A4FF0010819AE18AD1AAFDF
:1058700017A9CBED0C7ACBED0A5A8BED0B6A07EE2C
:10588000908A33462A465846B8EEE70A009708F150
:10589000010880EE030AFAF7D7FF59ED016AB8F163
:1058A000610FF0EE447A95ED004AB0EE637AD1EDE7
:1058B000003A74EE677A33EEC77A67EEA77AE7EEBE
:1058C000077AB1EEE77A77EE267AE9EC017AD6D15B
:1058D000DBED6C7A0C46B4EEE78ACBED6D7AF1EE37
:1058E00010FA7FF56FAF9FED5D7AF4EEC77AF1EEB7
:1058F00010FA7FF767AFB5EEC08AF1EE10FA7FF6C7
:1059000061AFF5EEC0BAF1EE10FA7FF65BAFF5EEDF
:10591000C0DAF1EE10FA7FF655AF514806F0A0FD5F
:10592000DFED4DAA4F4BDDED0A7AB0EE6ABAC3ED5A
:1059300000AAB0EE6AAA4C4BB0EE6AEA9DED027A7C
:10594000F0EE6A8AC3ED00AAB0EE6ADA474B77EE52
:10595000877AF0EE6ACACDED04AAC3ED00AA444BE3
:10596000CDED0E7AC3ED00AA424BCDED03AAC3EDF7
:1059700000AA079BA3F1FA029A46994601230C92CA
:10598000099300230D930BF06DFA079A43F69723C2
:105990008046821A9A4200F29E83A0EB0A03092BEA
:1059A00040F28F83A0EB09039FED2C7A0AF10A0ADB
:1059B00007EE903AA0EB0A03F8EE677A092B88BF4E
:1059C000824667EE877AF4EEC77AF1EE10FA00F1BC
:1059D00051839FED299AF4EEC97AF1EE10FA39FE5F
:1059E000279A9BED6D7AC8EE877AF5EEC07AF1EED4
:1059F00010FA00F14283F7EE009AF0EE006AF4EE3E
:105A0000E97AF1EE10FA79FEA79AF0EE087AE9EE5B
:105A1000E67A69EEA96A67EEA67ADDED0A6AF5EE26
:105A2000C08A9DED026A154BE6EE276AF1EE10FA88
:105A3000CDED056AC3ED006A40F24083B4EEE87A2A
:105A4000F1EE10FA40F21E8333AA012322E000BFD8
:105A50008022020870220208000000006F12833AC0
:105A600030F60108B4050020B0050020A405002090
:105A7000A00500209C050020CDCC4C3D98050020C1
:105A8000BD3786350000C04217B7D1380133612BCE
:105A900000F0F88292ED007A0432F4EEC78AF1EE5B
:105AA00010FAF3D80BEB83021FED0B6A013BD2ED2A
:105AB0000B6A07EE903A37EE667AB4EEC67AF1EEEC
:105AC00010FA40F3058378EEE66A86EE876A1FEDEA
:105AD000137AF8EEE77A77EE867A87EE870A5846E9
