:020000040800F2
:1000000000000220D90700082D0800082D0800086C
:100010002D0800082D0800082D0800080000000029
:100020000000000000000000000000002D08000893
:100030002D080008000000002D080008D1940008D9
:100040002D0800082D0800082D0800082D080008BC
:100050002D0800082D0800082D0800082D080008AC
:100060002D0800082D0800082D0800082D0800089C
:100070002D0800082D0800082D0800082D0800088C
:100080002D0800082D0800082D0800082D0800087C
:100090002D0800082D0800082D0800082D0800086C
:1000A0002D0800082D0800082D0800082D0800085C
:1000B0002D0800082D0800082D0800082D0800084C
:1000C0002D0800082D0800082D0800082D0800083C
:1000D0002D0800082D0800082D0800082D0800082C
:1000E0002D0800082D080008000000002D08000859
:1000F0002D0800082D0800082D0800082D0800080C
:100100002D0800082D0800082D0800082D080008FB
:100110002D080008799000082D0800082D08000817
:100120002D0800082D0800082D0800082D080008DB
:100130002D0800082D0800082D0800082D080008CB
:1001400000000000000000000000000000000000AF
:100150002D0800082D0800082D0800082D080008AB
:100160002D0800082D0800082D0800082D0800089B
:100170002D080008D59400082D0800080000000094
:100180002D0800082D0800082D0800082D0800087B
:100190002D0800082D0800082D0800082D0800086B
:1001A0002D0800082D0800082D0800080000000098
:1001B0002D0800082D0800082D0800082D0800084B
:1001C0002D0800082D0800080000000000000000B5
:1001D00000000000000000002D08000800000000E2
:1001E000000000000000000000000000000000000F
:1001F00000000000000000002D0800082D08000885
:100200002D0800082D080008000000002D08000837
:100210002D0800082D0800082D0800082D080008EA
:100220002D080008000000002D0800080000000054
:100230002D0800082D080008000000002D08000807
:100240002D0800082D0800082D0800082D080008BA
:100250002D0800082D0800082D0800082D080008AA
:100260002D0800082D0800082D0800082D0800089A
:100270002D0800082D0800082D08000800000000C7
:100280002D0800082D0800082D0800082D0800087A
:10029000000000002D0800082D08000800000000E4
:1002A000000000002D0800082D0800082D08000897
:1002B0002D0800082D0800082D0800082D0800084A
:0C02C0002D0800082D0800082D0800087B
:1002D00010F8012B11F8013B012A28BF9A42F7D0F0
:1002E000D01A7047034613F8012B002AFBD1181AC5
:1002F000013870470000000000000000000000000E
:1003000001F0FF01102A2BDB10F0070F08D010F8C6
:10031000013B013A8B422DD010F0070F42B3F6D1CA
:10032000F0B441EA012141EA014122F007047FF0E3
:1003300000070023F0E80256083C85EA010586EA3A
:10034000010685FA47F5A3FA87F586FA47F6A5FA76
:1003500087F68EB9EED1F0BC01F0FF0102F0070282
:1003600032B110F8013B013A83EA010313B1F8D12D
:100370000020704701387047002D06BF354603380E
:10038000073815F0010F07D1013015F4807F02BF47
:10039000013015F4C03F0130F0BC0138704700BF98
:1003A00081F0004102E000BF83F0004330B54FEA26
:1003B00041044FEA430594EA050F08BF90EA020F93
:1003C0001FBF54EA000C55EA020C7FEA645C7FEA26
:1003D000655C00F0E2804FEA5454D4EB5555B8BF49
:1003E0006D420CDD2C4480EA020281EA030382EABA
:1003F000000083EA010180EA020281EA0303362D4C
:1004000088BF30BD11F0004F4FEA01314FF4801C1E
:100410004CEA113102D0404261EB410113F0004F30
:100420004FEA03334CEA133302D0524263EB4303E7
:1004300094EA050F00F0A780A4F10104D5F1200E85
:100440000DDB02FA0EFC22FA05F2801841F10001E0
:1004500003FA0EF2801843FA05F359410EE0A5F1B4
:1004600020050EF1200E012A03FA0EFC28BF4CF0E5
:10047000020C43FA05F3C01851EBE37101F000459B
:1004800007D54FF0000EDCF1000C7EEB00006EEBA8
:100490000101B1F5801F1BD3B1F5001F0CD3490832
:1004A0005FEA30004FEA3C0C04F101044FEA445289
:1004B00012F5800F80F09A80BCF1004F08BF5FEA10
:1004C000500C50F1000041EB045141EA050130BDF0
:1004D0005FEA4C0C404141EB0101013C28BFB1F502
:1004E000801FE9D291F0000F04BF01460020B1FA4D
:1004F00081F308BF2033A3F10B03B3F120020CDA20
:100500000C3208DD02F1140CC2F10C0201FA0CF0FD
:1005100021FA02F10CE002F11402D8BFC2F1200C62
:1005200001FA02F120FA0CFCDCBF41EA0C01904018
:10053000E41AA2BF01EB0451294330BD6FEA040461
:100540001F3C1CDA0C340EDC04F11404C4F120024C
:1005500020FA04F001FA02F340EA030021FA04F35E
:1005600045EA030130BDC4F10C04C4F1200220FAB5
:1005700002F001FA04F340EA0300294630BD21FAF3
:1005800004F0294630BD94F0000F83F4801306BFB9
:1005900081F480110134013D4EE77FEA645C18BFAD
:1005A0007FEA655C29D094EA050F08BF90EA020F44
:1005B00005D054EA000C04BF1946104630BD91EA3C
:1005C000030F1EBF0021002030BD5FEA545C05D13F
:1005D0004000494128BF41F0004130BD14F580047E
:1005E0003CBF01F5801130BD01F0004545F0FE41F2
:1005F00041F470014FF0000030BD7FEA645C1ABF27
:10060000194610467FEA655C1CBF0B46024650EA5D
:10061000013406BF52EA033591EA030F41F4002189
:1006200030BD00BF90F0000F04BF0021704730B50F
:100630004FF4806404F132044FF000054FF00001E4
:1006400050E700BF90F0000F04BF0021704730B5A5
:100650004FF4806404F1320410F0004548BF40427A
:100660004FF000013EE700BF42004FEAE2014FEACF
:1006700031014FEA02701FBF12F07F4393F07F4FAA
:1006800081F06051704732F07F4208BF704793F0AD
:100690007F4F04BF41F40021704730B54FF46074C0
:1006A00001F0004521F000411CE700BF50EA0102C3
:1006B00008BF704730B54FF000050AE050EA01026C
:1006C00008BF704730B511F0004502D5404261EBDC
:1006D00041014FF4806404F132045FEA915C3FF41D
:1006E000D8AE4FF003025FEADC0C18BF03325FEABA
:1006F000DC0C18BF033202EBDC02C2F1200300FA6B
:1007000003FC20FA02F001FA03FE40EA0E0021FA8F
:1007100002F11444BDE600BF53B94AB9002908BF2D
:1007200000281CBF4FF0FF314FF0FF3000F00CB835
:10073000ADF1080C6DE904CE19F05EFFDDF804E0C0
:10074000DDE9022304B07047704700BF0348044B43
:10075000834202D0034B03B118477047CC020020FC
:10076000CC020020000000000548064B1B1AD90FE0
:1007700001EBA301491002D0034B03B118477047A6
:10078000CC020020CC0200200000000010B5064C76
:10079000237843B9FFF7DAFF044B13B10448AFF3F2
:1007A00000800123237010BDE00200200000000043
:1007B00018A9010808B5054B1BB105490548AFF359
:1007C0000080BDE80840FFF7CFBF00BF0000000079
:1007D000E402002018A90108DFF838D000F028F85A
:1007E000002103E00C4B5B58435004310B480C4B89
:1007F00042189A42F6D30B4A02E0002342F8043B27
:10080000094B9A42F9D30CF05BFE17F04DFA06F053
:1008100039F9704700000220301904080000002058
:10082000CC020020E0020020C06C0120FEE70000A6
:10083000044AD36843F00203D36053689B04FCD599
:10084000704700BF00480258F7EE007ADFED1A5AF1
:10085000F0EE084A9FED196A20EE004A9FED187AE3
:1008600077EEC07A9FED173A60EEA55ADFED162AB3
:1008700020EE045ADFED153A67EEA76A67EEA47A18
:1008800020EE866A66EEA46A67EE847A60EEA20ABB
:1008900026EE800A27EE877A67EEA57AA0EE037A25
:1008A000E0EE067AA5EE237AE5EE207A80ED007A76
:1008B000C1ED007A704700BF0C75203F4627AB3D65
:1008C000CDCC0CBF9A9919BE14AE073F1F857BC0D3
:1008D000164A01210023164810B51170154C164A0E
:1008E000037013702370154A15481649164C13608F
:1008F00003600B700CF0A2FE144AFA3823781060E3
:100900004BB1134808F098F9237853B11148BDE86A
:10091000104008F05DB9104808F08EF92378002BDC
:10092000F4D10E48BDE8104008F052B96C05002023
:100930007A0500207905002078050020FC040020BD
:10094000740500206F0500206D050020680500205B
:1009500088A90108D0A90108ACA90108ECA90108DF
:1009600000B58BB000234FF0000C03AA04A807A920
:100970008DED010A06930993CDF80CC0CDE904333F
:10098000CDE907330CF0D4FBDDED087A1F4B9DED6C
:10099000077AF1EE677ADDED066A0398B1EE477AE1
:1009A0001B49F1EE666A1B4AD3ED015A086093EDCC
:1009B000006A77EEE57A92ED005A174B37EE467AE9
:1009C00076EEC56A154993ED016A154A77EEC67A47
:1009D000D3ED005AC1ED006A9FED125A37EE657AE9
:1009E000D1ED004AD2ED006AA7EE856A9DED010ABD
:1009F000E7EE055AF0EE667AE4EE807A83ED016A5E
:100A0000C3ED005AC2ED007A0BB000BD8405002092
:100A10009C050020B40500207C050020B0050020C6
:100A2000AC050020CDCC4C3E10B582B004460CF095
:100A300005FE144B1449154A0094DFF868C0097884
:100A4000126893ED000A124BDCED000A93ED001AD8
:100A5000DFF854C00F4BDCED001A93ED002ADFF8ED
:100A60004CC00D4BDCED002A93ED003ADFF840C09E
:100A70000A4BDCED003A93ED004A094B0AF0F2F81C
:100A800002B010BDB0050020C0050020BC0500204C
:100A9000A8050020A0050020980500209005002052
:100AA000E4D00108AC050020A40500209C0500202E
:100AB0009405002000B5DFF86CC00B46DFF868E055
:100AC00083B0174A9EF8001012689CED000ADFF808
:100AD0005CC0DCED000ADFF858C09CED001ADFF8BE
:100AE00054C0DCED001ADFF850C09CED002ADFF89E
:100AF0004CC0DCED002ADFF848C09CED003ADFF87E
:100B000044C0DCED003ADFF840C09CED004A4FF0F5
:100B1000000CCDF800C00AF0A5F803B000BD00BF7E
:100B2000BC050020B0050020C0050020AC05002059
:100B3000A8050020A4050020A00500209C05002099
:100B400098050020940500209005002070B5CCB0D9
:100B500003468021494A0CA816F006FF48490CA814
:100B600016F0DAFF002872D00346002406AD01E03B
:100B7000062C0BD045F8043B00204149013416F007
:100B8000CBFF03460028F3D1062C60D13D490698DF
:100B9000FFF79EFB00285AD13B490798FFF798FBC7
:100BA000002854D139490898FFF792FB00284ED10C
:100BB00037490A98FFF78CFB002848D1099C0A2284
:100BC00005A9204616F002FE22780546002A47D0E5
:100BD000059B1B78002B43D1012841D80B9E04A90B
:100BE000304616F035FD3378002B40D0049B1B783F
:100BF000002B3CD1F0EEC07A9FED267AF4EE477AD6
:100C0000F1EE10FA33D8B5EEC00AF1EE10FA2ED498
:100C1000DFED217AB4EEE70AF1EE10FA27DCE8B254
:100C20008DED030A07F06EFF9DED030A2B461B4A6C
:100C3000B7EEC00A80212CA88DED000B16F094FEB3
:100C40002CA807F0C5FF2CA807F0AAFF05E0144860
:100C500007F0BEFF124807F0A3FF01204CB070BDA3
:100C6000104807F0B5FF0F4807F09AFFF5E70E4868
:100C700007F0AEFF0C4807F093FFEEE708AA010863
:100C80000CAA010834AA010840AA010844AA0108D4
:100C90004CAA0108FFFF7F7F00003443A8AA010887
:100CA00010AA010858AA010880AA01082DE9F041FC
:100CB000B2B006460F469046A021384B384A0AA8E3
:100CC00016F052FE37490AA816F026FF90B10346E7
:100CD000002401AD45F8043F00203249013416F0EC
:100CE0001BFF0346002855D0082CF3D1029B1A782D
:100CF000522A03D0002032B0BDE8F0815A784B2A46
:100D0000F8D19B78002BF5D127490398FFF7E0FA3B
:100D10000028EFD125490498FFF7DAFA0028E9D135
:100D200031460598FFF7D4FA0028E3D12049069808
:100D3000FFF7CEFA0028DDD11E490898FFF7C8FA60
:100D40000028D7D1099C1C492046FFF7C1FA28B1D9
:100D50001A492046FFF7BCFA0028CBD1079D0A228A
:100D600001A9284616F032FD2B780246002BC1D08F
:100D7000019B1B78002BBDD10028BBD00E4920461B
:100D80003A60FFF7A5FAB0FA80F301205B0988F812
:100D90000030B0E7082CADD1A8E700BF80030020E9
:100DA00008AA01080CAA0108D8AA0108DCAA0108AF
:100DB000ECAA0108F0AA0108F8AA0108FCAA010897
:100DC0002DE9F041AAB006460F4690468021384BE7
:100DD000384A0AA816F0C8FD37490AA816F09CFE42
:100DE00090B10346002401AD45F8043F002032498C
:100DF000013416F091FE0346002855D0082CF3D19B
:100E0000029B1A78522A03D000202AB0BDE8F08154
:100E10005A784B2AF8D19B78002BF5D127490398B3
:100E2000FFF756FA0028EFD125490498FFF750FA4A
:100E30000028E9D131460598FFF74AFA0028E3D1A6
:100E400020490698FFF744FA0028DDD11E4908988A
:100E5000FFF73EFA0028D7D1099C1C492046FFF72E
:100E600037FA28B11A492046FFF732FA0028CBD1C9
:100E7000079D0A2201A9284616F0A8FC2B780246F5
:100E8000002BC1D0019B1B78002BBDD10028BBD00B
:100E90000E4920463A60FFF71BFAB0FA80F30120B2
:100EA0005B0988F80030B0E7082CADD1A8E700BF97
:100EB000FC02002008AA01080CAA010804AB0108E2
:100EC0000CAB0108ECAA0108F0AA0108F8AA010875
:100ED000FCAA01082DE9F04FD3B0602112A80BF055
:100EE0000DFE002800F014818C4B0646197800296D
:100EF00000F045830DF14809894C8A4D09EB06083D
:100F000099F8003026680A2B18BF0D2B0CBF01275B
:100F1000002740F0F282002383498248AB5516F047
:100F200061FE8246002800F0F382AA4509D05046AF
:100F3000FFF7D8F9064651462846721C16F0B8FD50
:100F40002660002E00F0D182784B1B780F2B00F02A
:100F5000ED822B46764AA0212AA816F005FD754998
:100F60002AA816F0D9FD0346002800F0158106AE28
:100F70004FF0000AB3464BF8043B00206D490AF1DC
:100F8000010A16F0C9FD0346002800F00181BAF1FC
:100F90000C0FF0D133681A78522A40F0FD805A784D
:100FA0004B2A40F0F9809B78002B40F0F580624995
:100FB0007068FFF78DF9002840F0EE805F49B06857
:100FC000FFF786F9002840F0E7805D49F068FFF7F9
:100FD0007FF9002840F0E0805A493069FFF778F93E
:100FE000002840F0D9805849B069FFF771F900280E
:100FF00040F0D2805549306AFFF76AF9002840F086
:10100000CB805349B06AFFF763F9002840F0C480F1
:10101000D6F814B00A2205A9584616F0D7FB9BF85B
:1010200000300290002B00F0B780059B93F800B0D1
:10103000BBF1000F40F0B080002800F0AD80F369F4
:10104000444918460393FFF743F9002800F06683EC
:1010500003984149FFF73CF9002840F09D80736AEE
:101060000A2205A91846039316F0B0FB039B1B78D0
:10107000002B00F09180059B1B78002B40F08C80AA
:10108000B0F5C87F40F08880F66A0A2205A930468C
:1010900016F09CFB3378002B7ED0059B1B78002B31
:1010A0007AD1B0F5B47F77D12C4B1A782C4B1878C5
:1010B000024340F001832B4A2B4812680068024328
:1010C00040F0FA82012002991870284B83F800B092
:1010D000274B1960274B1A70274B1A70274B1A7031
:1010E000274B1A70274B1A70BBF1000F00F01C83BE
:1010F0001849029B2AA8244A0091802116F034FC4A
:101100002AA807F065FD214807F04AFD0023236067
:101110000027384653B0BDE8F08F00BFC804002058
:10112000C40400202404002058AB0108C00500209E
:1011300008AA01080CAA010804AB01080CAB0108BD
:1011400088AB0108ECAA0108F0AA010890AB0108DD
:101150004CAA0108F8AA0108FCAA0108F904002019
:10116000E5040020E8040020DC040020E404002062
:10117000E0040020D8040020D7040020D60400207A
:10118000D5040020D4040020B4AB0108DCAB010876
:10119000BAF10C0F3FF4FEAE2368002B00F0A581DE
:1011A0002B46804AA0212AA816F0DEFB7E492AA8F9
:1011B00016F0B2FC0346002839D04FF0000A0DF1BA
:1011C000180B4BF8043B002077490AF1010A16F08E
:1011D000A3FC0346002800F0A481BAF10C0FF0D163
:1011E000069B1A78522A22D15A784B2A1FD19B7813
:1011F000EBB96E490798FFF76BF8C0B96C490898CE
:10120000FFF766F898B96B490998FFF761F870B96C
:1012100069490A98FFF75CF848B968490C98FFF7E4
:1012200057F820B90E9B1A784C2A00F0B481236835
:10123000002B00F05A812B465A4AA0212AA816F00A
:1012400093FB59492AA816F067FC0346002800F0D2
:10125000CF8006AE4FF0000AB3464BF8043B0020A7
:1012600051490AF1010A16F057FC0346002800F024
:10127000BB80BAF10A0FF0D133681A78522A40F0D5
:10128000B7805A784B2A40F0B3809B78002B40F00F
:10129000AF8046497068FFF71BF8002840F0A8802F
:1012A0004349B068FFF714F8002840F0A180444992
:1012B000F068FFF70DF8002840F09A803E49306949
:1012C000FFF706F8002840F093803C49B069FEF72C
:1012D000FFFF002840F08C803A49306AFEF7F8FFA3
:1012E000002840F08580D6F81CB037495846FEF7F4
:1012F000EFFF28B135495846FEF7EAFF002877D1BD
:10130000736905A90A221846029316F05FFA029B38
:1013100082461B78002B6BD0059B05A91B78002B00
:1013200066D1002864D0736A0A221846029316F028
:101330004DFA029B06461B78002B59D0059B1B7863
:10134000002B55D1431E062B52D858461E49FEF796
:10135000BFFF1F4BB0FA80F01A784009002A47D12E
:101360001C4A1268524543D11B4A127882423FD12F
:1013700001211970194BC3F800A0194B1E60002AF7
:1013800000F0D481104A00925346164A60212AA8E0
:10139000019616F0E9FA2AA807F01AFC0023236048
:1013A000B7E600BF08AA01080CAA010804AB0108AF
:1013B000FCAB010888AB0108ECAA0108F0AA0108FF
:1013C000A8AC0108B0AC0108F8AA0108FCAA010801
:1013D000F9040020E8040020F8040020F4040020B0
:1013E000EC040020B8AC0108BAF10A0F3FF444AF96
:1013F0002B469B4AA0212AA816F0B6FA99492AA89A
:1014000016F08AFB0346002863D0002605AF47F894
:10141000043F00209349013616F07EFB0346002866
:1014200055D0082EF3D1069B1A78522A51D15A78FA
:101430004B2A4ED19B78002B4BD18B490798FEF756
:1014400047FF002845D189490898FEF741FF002849
:101450003FD187490998FEF73BFF002839D18549DC
:101460000A98FEF735FF002833D183490C98FEF720
:101470002FFF70BB0D9F81493846FEF729FF20B131
:101480007F493846FEF724FF18BBDDF82CB00A224E
:1014900005A9584616F09AF99BF800300646C3B1E4
:1014A000059B1B78ABB9A0B174493846FEF710FF15
:1014B000744BB0FA80F01B684009B34209D1724BFB
:1014C0001B78834205D1714B01221A700DE0082E62
:1014D000A9D06F4807F064FB6E4A236860212AA8F0
:1014E00016F042FA2AA807F073FB0023236009F1E3
:1014F0000109C8457FF404AD0AE6721C9F2A02D890
:101500002260AB55F3E76448276007F061FBEEE724
:101510006249284616F066FB824600287FF405AD36
:101520000FE5BAF10C0F7FF482AE59E65C494C230B
:10153000DFF880E101F10C0B0A78A3F1610CA3F153
:1015400020060131A2F12000A2F1610A5FFA8CFCB1
:10155000F6B2C0B2BCF1190F98BF3346BAF1190FF9
:1015600098BF02469A427FF4F4AC8B451EF8013FC7
:10157000E2D14B48FFF7EAFA00232360C8E50122D5
:101580000F201A701D2209F0E7FB002864D045489F
:1015900007F006FBAEE45A78312A7FF448AE9B7818
:1015A000002B7FF444AE109B1A784C2A7FF43FAE98
:1015B0005A78322A7FF43BAE9B78002B7FF437AE0B
:1015C0000B9B0A2205A91846029316F0FFF8029B0E
:1015D00083461B78002B3FF42AAE059B1B78002B1B
:1015E0007FF425AE00283FF422AE0F9B02935B7878
:1015F000002B7FF41CAE119B93F801A00393BAF16A
:10160000000F7FF414AE1D490D98FEF761FE00280F
:1016100000F087800D981A49FEF75AFE00287FF4E3
:1016200006AE029B1E78A6F14103032B3FF6FFADE9
:10163000039B1878A0F14103032B3FF6F8AD8642D7
:101640003FF4F5AD184B197811B90E490968B9B3D3
:10165000164807F0BDFA48E7154807F0A1FA49E433
:1016600008AA01080CAA010804AB0108FCAB010898
:10167000E8AC0108ECAA0108F0AA0108F8AA0108E0
:10168000FCAA0108E8040020F8040020E704002078
:10169000F0AC010814AD010840AD010868AB0108C9
:1016A0002404002014AB0108F904002004AC010854
:1016B00034AB010878AB01081D4807F089FA25E52D
:1016C00001221A701E221B4B83F800A01A4BC3F88C
:1016D00000B01A4B1E701A4B18700F20194B19606E
:1016E00009F03AFBA0B1184807F05AFABAF1000F16
:1016F00012D0164A5B46602100922AA8144A16F0BE
:1017000033F92AA807F064FA124807F049FA45E6C7
:10171000114807F045FAE9E7104AEBE74FF0010BF3
:101720009DE44FF0010A7CE70C49E2E40B4A2AE60B
:101730009CAB0108F8040020F4040020F104002010
:10174000F0040020EC0400201CAC0108F8AA0108F9
:1017500060AC010888AC01083CAC0108FCAA010897
:101760005F4BB9EE007AD3ED007AF4EEC77AF1EE72
:1017700010FA00F19F80B1EE007ADFED5A6AF4EEC4
:10178000C77AF1EE10FA37FE277AF0EEC77AF4EE58
:10179000E67AF1EE10FA40F28A80B5EEC07AF1EE08
:1017A00010FA40F3998037EE667AF9EE007AD3EDBD
:1017B000016AF4EEE76AF1EE10FA00F18480F1EECE
:1017C000007A9FED486AF4EEE76AF1EE10FA77FED0
:1017D000A67AF0EEE76AF4EEC66AF1EE10FA75D971
:1017E000F5EEC07AF1EE10FA73DD77EEC67A61EEAF
:1017F000A75A90ED006A61EE277AD0ED016A9FED5D
:101800003A5AE1EE075AE1EEC77AA5EE826AE7EEB0
:10181000826A76EE407AF4EEC57AF1EE10FA4FD491
:101820009FED327A9FED2F6AF4EEC77AF1EE10FA4F
:1018300037FE277A27EE066A76EEE07A9FED2A7A5F
:10184000F4EEC77AF1EE10FA37D49FED287ADFED87
:10185000256AF4EEC77AF1EE10FA77FE277A67EE82
:10186000A67A30EE067ADFED226AB0EEC00A70EE9C
:10187000A77A80ED007AB4EEE60AC0ED017AF1EEC7
:1018800010FA13D8F0EEE00AF4EEE60AF1EE10FAE0
:101890000CD8184BD3ED007AF0EEE77AF4EEE67A46
:1018A000F1EE10FA02D800230360436070479FED09
:1018B000127A7AE79FED117A77E7DFED117AD0E7B8
:1018C0009FED0F6AB8E7DFED0D7A90E7DFED0A7A5A
:1018D0008DE777EE867A8AE737EE267A65E700BFEE
:1018E0007C0500200AD7A33D9A9919BE9A99193E02
:1018F0000AD7A33CA80500200000000048E17AC0F8
:10190000A69B44BCF8B50B780E460746F3B10138E8
:101910000D4602E015F8013FC3B110F8012FA3F105
:101920006101A3F1200EA2F1200CA2F16104C9B261
:101930005FFA8EFE5FFA8CFC192998BF7346192C4A
:1019400098BF62469A42E5D00020F8BD3046FEF7C7
:10195000C9FC385C2C2818BF00280CBF01200020CF
:10196000F8BD00BF2DE9F047D4B0802104A80BF0EA
:10197000C5F828B304AC464DDFF84481002726188B
:10198000DFF8409107E0501C9F281CD8286008F819
:101990000230A64214D014F8013B2A680D2B06D061
:1019A000A3F10A01B1FA81F149090029EBD008F845
:1019B000027012B1D9F800303BB9A6422F60EAD1CB
:1019C00054B0BDE8F0872960E3E732480DF10B021F
:1019D00003A9FFF76BF920B1039BD9F800209342CC
:1019E00027D00DF10B0203A92B48FFF75FF920B1B7
:1019F000039BD9F8002093422CD00DF10B0203A9D0
:101A00002648FFF753F90028D7D0039BD9F80020C8
:101A10009342D2D122499DF80B2009788A42CCD139
:101A2000204901200870002A2FD01F4A00921B4A2B
:101A30001DE01B4A9DF80B1012789142D1D11B4931
:101A4000097811B91A4901200870D2B1164A0092DA
:101A5000104A0CE0124A11789DF80B208A42CCD132
:101A600014490120087072B10F4A00920A4A01928B
:101A7000C021114A24A815F077FF24A807F0A8F880
:101A80009BE70E4AE3E70D4AEFE70C4ACEE700BFBB
:101A9000200400206CAD0108ACAD0108E8AC0108E1
:101AA000CD040020CA040020F8AA0108C9040020BF
:101AB000CC040020CB04002074AD0108FCAA01086E
:101AC00080030020D00400202DE9F04104460138B5
:101AD000524E522304F11E08054615F8012FA3F1BA
:101AE000610EA3F1200CA2F12001A2F161075FFABF
:101AF0008EFE5FFA8CFCC9B2BEF1190F98BF634627
:101B0000192F98BF0A469A420DD1454516F8013F54
:101B1000E3D101234249434A0B7043481370BDE8A7
:101B2000F04107F03DB8414E04F11008054652233C
:101B300015F8012FA3F1610EA3F1200CA2F12001F1
:101B4000A2F161075FFA8EFE5FFA8CFCC9B2BEF1AA
:101B5000190F98BF6346192F98BF0A469A420ED1B3
:101B6000454516F8013FE3D1002431492D4B0122B0
:101B70000C701A702F48BDE8F04107F011B82E4FD5
:101B800004F10F080646522316F8012FA3F1610C49
:101B9000A3F12005A2F12001A2F1610E5FFA8CFCF5
:101BA000EDB2C9B2BCF1190F98BF2B46BEF1190FA7
:101BB00098BF0A469A4208D1B04517F8013FE3D1D1
:101BC0001E48BDE8F04106F0EBBF1D4E0B3452231A
:101BD00010F8012FA3F1610CA3F12005A2F120015F
:101BE000A2F161075FFA8CFCEDB2C9B2BCF1190F2A
:101BF00098BF2B46192F98BF0A469A420BD1A04294
:101C000016F8013FE4D1074B01220E481A70BDE8D7
:101C1000F04106F0C5BFBDE8F08100BFB4AD0108DA
:101C2000790500207A0500203CAE010864AE010869
:101C30006C05002010AE010828AE0108E8AD0108CF
:101C400000AE0108D4AD01082DE9F04790B00BF0CB
:101C5000F5FC404B1B7823B93F4A1368C31AF92B94
:101C600066D8402168460AF049FFF0B16C463B4E09
:101C70003B4D271806E0501C5F2819D83060AB5444
:101C8000BC4212D014F8013B32680D2B06D0A3F1F0
:101C90000A01B1FA81F149090029ECD00023AB54C3
:101CA0005AB90023BC423360ECD110B0BDE8F087D4
:101CB0002C48316006F0C0FFE2E72B4806F070FFC9
:101CC000284606F06DFF294806F06AFF284B1A786F
:101CD0000F2A06D01B78072B03D02846FFF7F4FE07
:101CE000DFE71F494C23DFF8A48001F10C0A0A78D2
:101CF000A3F1610EA3F120000131A2F1200CA2F1A9
:101D000061095FFA8EFEC0B25FFA8CFCBEF1190F5A
:101D100098BF0346B9F1190F98BF62469A42DCD1C9
:101D20008A4518F8013FE2D10D48FEF70FFFB8E7EA
:101D30001049114B10600A781B7822B933B10F4853
:101D400006F046FF8DE71BB10D48F9E70D48F7E7B0
:101D50000D48F5E77805002068050020FC04002008
:101D600000050020B8AE0108A8AE0108B4AE010815
:101D7000C00500206C0500206D05002078AE01082C
:101D8000D0A9010890AE0108ECA9010878AB0108C0
:101D900030B59FB00BF052FC294B04461B78E3B1E1
:101DA0002849294B0A78EAB12849294D0A68A21A1C
:101DB000B2F5967F2AD2274B1B6843B9264B1B6886
:101DC000002B36D1254B1B780BB9FFF73DFF287848
:101DD000003818BF01201FB030BD1A49204B0A78C7
:101DE000002AE1D101201A4D05930870A4F59670E0
:101DF00016492A7008601B48049106F01DFFDDE9B2
:101E000004130A68A21AB2F5967FD4D30C604FF47B
:101E100016724FF4AF7106A8CDE9012140F28A2174
:101E2000114A0091602115F09FFD06A806F0D0FE32
:101E3000C1E70E4B1B78002BC9D1FFF74BF8C6E763
:101E40006D05002078050020F8AA0108740500201F
:101E500079050020DC040020E80400206F05002044
:101E6000FCAA0108DCAE010808AF0108E604002066
:101E7000144B1B6810B5044682B03BB9124B1B686B
:101E80008BB9124B1B780BB9FFF7DEFE07F03EFF54
:101E900018B9019007F040FF60B9204602B0BDE8D4
:101EA000104007F0C5BC0A4B1B78002BEED1FFF7A2
:101EB00011F8EBE7FEF70CFD064A092101981160C5
:101EC00002B010BDDC040020E80400206F050020F3
:101ED000E6040020BC050020154B1B6800B583B04C
:101EE0003BB9144B1B68A3B9134B1B780BB9FFF715
:101EF000ABFE07F00BFF18B9019007F00DFF78B9A2
:101F00000BF09CFB07F004FC03B05DF804EB07F05A
:101F1000BFBC0A4B1B78002BEBD1FEF7DBFFE8E7D9
:101F2000FEF7D6FC064A09210198116003B000BDF6
:101F3000DC040020E80400206F050020E6040020F7
:101F4000BC0500202DE9F04FADF54B7D82460BF02E
:101F500075FBA74B05901A6812F1010900F0C581C5
:101F60004A46DFF8E0B240F6B8381A609BF8003015
:101F7000059A002B9F4BA2F1C801A2F10A021B781F
:101F800008BF4FF4E16807910692002B00F0AB8187
:101F9000994C9A495046FEF79BF94EF6602347F25A
:101FA00030524021CDE900940024A04208BF1A46D7
:101FB000934B1AA81C70934B09921C705346924A7B
:101FC00015F0D2FC5346914A40212AA8CDF8009042
:101FD00015F0CAFC53468E4A40213AA8CDF800902D
:101FE00015F0C2FC53468B4A40214AA8CDF8009018
:101FF00015F0BAFC5346884A40215AA8CDF8009003
:1020000015F0B2FC5346854A40216AA8CDF80090ED
:1020100015F0AAFC5346824A40217AA8CDF80090D8
:1020200015F0A2FC53467F4A6021B2A8CDF800907B
:1020300015F09AFCB2A806F0FFFD0BF0FFFA059B25
:10204000054604940893069BCDF80C90EB1A092BD7
:1020500040D8079BEB1AC72B46D800270DF128095B
:10206000402148460AF04AFD00B309EB00064D4600
:10207000204609E0421C5F2A44D80DEB00041046BC
:1020800084F86832B54210D015F8013B0D2B01D011
:102090000A2BEFD10DEB0003002283F86822002801
:1020A00034D1B5424FF00000EED104460BF0C6FA31
:1020B000002F40F0F880059BC01A404580F0348125
:1020C00001200BF0C1FA0BF0B9FA069B0546EB1A9A
:1020D000092BBED9FFF700FF002800F06881079B9D
:1020E0000695EB1AC72BB8D91AA806F071FD53460E
:1020F0004D4A6021B2A815F037FCB2A806F050FD99
:102100000795AAE7494806F097FDCAE7484806F050
:1021100047FD9AA806F044FD464806F041FD9AA8FE
:10212000FFF7D2FC40F6B8339BF800203AA94345AC
:102130009AA838BF4346002A18BF9846FFF7E2FB2B
:102140000446002800F08080002F00F0A880039B48
:102150006021394AB2A80093534615F005FCB2A895
:1021600006F06AFD4AA99AA8FFF7CCFB002872D1B5
:102170007AA99AA8FFF7C6FB0746002840F0B88066
:102180006AA99AA8FFF7BEFB80B142F6E0639845C2
:102190000AD0039B6021294AB2A80093534615F048
:1021A000E3FBB2A806F048FD42F6E068DCB19AA86D
:1021B0005AA9FFF7A7FB08B9274663E70BF03EFAD9
:1021C000039BA0F1C8041E4A60210093059053466A
:1021D000B2A8079415F0C8FBB2A806F02DFD40F692
:1021E000B83800230493B54200F0948000204BE7F8
:1021F000640500206D050020F8AA010844AF01081D
:10220000710500207005002050AF010870AF010873
:1022100088AF0108A0AF0108B8AF0108D0AF01082E
:10222000E8AF010800B001088CB0010894B10108C2
:10223000A8AE0108B4AE0108A4B001084CB1010871
:1022400068B101087A0500204AA99AA83C46FFF720
:1022500059FB00288CD059495046DDF80C90FEF708
:1022600037F800285AD156499AA815F0BBFC011E30
:1022700018BF0121534C5346534AB2A8CDF80090E1
:102280002170602115F070FBB2A806F0D5FC237810
:10229000002B45D101200DF54B7DBDE8F08F0BF0F3
:1022A000CDF9049053E701200BF0CEF90BF0C6F9FD
:1022B000049B099A0546C31A93424CD2069BEB1A1B
:1022C000092B0AD8089BEB1AB3F57A7FFFF4C8AE46
:1022D0002AA806F07DFC0895C2E6FFF7FDFD002860
:1022E00065D00695EEE7394C53E60122914638E673
:1022F000DDF80C905346364A6021B2A8CDF8009024
:1023000015F032FBB2A806F097FC324B0A221A6095
:102310000020C0E700240BF091F9CCE60021A9E7EA
:102320002D4806F089FCB5E7DDF80C9053462B4AA2
:102330006021B2A8CDF8009015F016FBB2A806F007
:102340007BFC00210122234B8BF800101D490A70F1
:1023500008221A60DCE7DDF80C905346204A602121
:10236000B2A8CDF8009015F0FFFAB2A806F064FC10
:1023700053461C4A40218AA8CDF8009015F0F4FA83
:102380008AA806F025FC8AA806F022FC5346164AC5
:102390006021B2A8CDF8009015F0E6FAB2A806F0D8
:1023A0004BFC0123074A1370104A137072E7094B64
:1023B0001A68092AACD005221A60A9E744AF0108BF
:1023C000BCB0010871050020D0B00108FCAA0108CA
:1023D00028B10108BC050020ECB00108B0B101082B
:1023E0001CB0010840B0010858B001087005002079
:1023F0002DE9F04FADF5617D0C4607900BF01EF90D
:10240000A54B0C901A6812F1010800F09681424623
:10241000DFF8C8A240F6B8371A609AF800209F4B40
:10242000002A0C9A1B78A2F1C801A2F10A0208BF87
:102430004FF4E1670A910992002B00F07B81984BE1
:102440000D93002C00F04C810D9BC0A8954A802173
:10245000009302230F900193434615F085FA38A8A4
:102460004346914A6021049015F07EFA50A84346F5
:102470008E4A6021059015F077FA68A843468C4A89
:102480006021069015F070FA20A84346894A602121
:102490000E9015F069FA884B0893079B8021874AB4
:1024A000A0A802930D9BCDE90083089B15F05CFA70
:1024B000A0A806F0C1FB0BF0C1F8002304461D469E
:1024C0000B93099BE31A092B3DD80A9BE31AC72BF0
:1024D00043D810AE402130460AF010FB8346002856
:1024E00000F044814FF000090024284608E0421C17
:1024F0007F2A45D880A90B54104601345C450DD283
:10250000335D0D2B01D00A2BF1D1002380AA135487
:10251000002839D1013400205C45F1D305460BF089
:102520008DF8B9F1000F7ED10C9BC01A874240F2A2
:10253000248101200BF088F80BF080F8099B0446F9
:10254000E31A092BC1D9FFF7C7FC002800F03F812F
:102550000A9B0994E31AC72BBBD90F9806F038FBE6
:10256000079B574A80210293A0A80D9BCDE90083C9
:10257000089B15F0F9F9A0A806F012FB0A94A8E749
:10258000504806F059FBC5E74F4806F009FB80A804
:1025900006F006FB4D4806F003FB80A8FFF794FA0F
:1025A00040F6B8339AF8002080A80499002A18BF92
:1025B0001F46FFF7A7F9054678B1B9F1000F2ED0F5
:1025C000079B8021424AA0A8A946CDE90083089B29
:1025D00015F0CAF9A0A806F02FFB059980A8FFF70F
:1025E00091F9002840F0AC8080A80699FFF78AF99D
:1025F000002882D00799A0A8089B364ACDE900811F
:10260000802115F0B1F9A0A806F016FB324B0A2282
:102610001A60002528460DF5617DBDE8F08F0BF0AE
:102620000DF80B90CCE7012047F22F540BF00CF87B
:102630000BF004F883460B9B099AABEB0303ABEB5F
:102640000202A34200F2B080092A1CD80A9BABEB1D
:102650000303B3F57A7F10D2402130460AF04EFAD8
:10266000834600287FF440AF0AF0E8FF01200AF01B
:10267000EBFF0AF0E3FF8346DDE70E9806F0A8FAC9
:10268000CDF828B0E8E7FFF727FC002800F09F808E
:10269000CDF824B0DAE700BF640500206D05002006
:1026A000F8AA0108E8B1010820B201084CB20108FB
:1026B00078B201089CB20108DCB101083CB3010802
:1026C000ACB3010878B40108A8AE0108B4AE0108A3
:1026D000E8B3010848B40108BC0500207A050020D1
:1026E000079BC0A83E4A802101930D9B0F90009349
:1026F000434615F039F938A843463A4A6021049018
:1027000015F032F950A84346374A6021059015F07C
:102710002BF968A84346354A6021069015F024F944
:1027200020A84346324A60210E9015F01DF9314B26
:102730000893B2E6304B0D9383E60122904667E69C
:10274000079B05462D49002001932D4A089BCDF893
:10275000008008708021A0A815F006F9A0A806F056
:102760006BFA28460DF5617DBDE8F08F0AF066FF33
:102770000C9BC31ABB42FFF4DCAEDDE907238021CA
:10278000A0A80192CDF800801E4A15F0EDF8A0A88F
:1027900006F052FA194A012100201B4B1170082241
:1027A0008AF800001A6034E70799A0A8089B174A26
:1027B000CDE90081802115F0D7F8A0A806F03CFAF9
:1027C0000E490120104B082208701A6021E70E4BB9
:1027D0001A68092A3FF41DAF05221A6019E700BFE5
:1027E000C0B20108F4B2010818B3010878B20108B8
:1027F0009CB20108D4B10108FCAA010871050020AF
:1028000018B40108A0B40108BC05002078B3010881
:102810002DE9F04FADF5077D83460AF00FFFA34B7E
:1028200005901A6812F1010A00F0DE805246DFF8C6
:10283000EC8240F6B8361A6098F80030059A002B02
:102840009B4BA2F1C801A2F10A021B7808BF4FF40A
:10285000E16603910492002B00F0C480954B0027A1
:10286000954A402116A8CDE900A3944B1F705B4602
:1028700015F07AF85B46924A402126A8CDF800A0D0
:1028800015F072F85B468F4A402136A8CDF800A0BB
:1028900015F06AF85B468C4A402146A8CDF800A0A6
:1028A00015F062F85B46894A60216EA8CDF800A059
:1028B00015F05AF86EA806F0BFF90AF0BFFE049BA7
:1028C0000446C31A092B76D8039BE31AC72B7BD87F
:1028D000402106A80AF012F900285BD006AC2518A2
:1028E00009E07A1C5F2A5FD86F4487F85831174691
:1028F0000134AC424ED023780D2B08D0A3F10A0945
:10290000B9FA89F94FEA5919B9F1000FE9D04FF036
:1029100000090DEB070383F85891002FE8D06C48AD
:1029200006F03EF956A806F03BF96A4806F038F979
:1029300056A8FFF7C9F840F6B83398F8002026A942
:10294000B34256A838BF33464A4518BF1E46FEF765
:10295000D9FF00284BD146A956A8FEF7D3FF07465A
:10296000002860D156A836A9FEF7CCFF08B342F67E
:10297000E0694E45BCD05B46574A60216EA80134E1
:10298000CDF800A014F0F0FF6EA806F055F9AC42A7
:102990004E46B0D10AF052FE059BC01AB04269D231
:1029A00001200AF051FE88E74C484F4606F044F9F2
:1029B0009EE707469CE7FFF78FFA00286FD0039B3E
:1029C0000494E31AC72B83D916A806F001F95B46D5
:1029D000434A60216EA814F0C7FF6EA806F0E0F825
:1029E000039475E73F4B3AE7012292461FE7334BCA
:1029F00007463D49584683F800903C4BC3F800A079
:102A0000FDF766FC18B35B46394A60216EA8CDF825
:102A100000A014F0A9FF6EA806F00EF938460DF5D7
:102A2000077DBDE8F08F5B46324A60216EA8CDF885
:102A300000A014F099FF6EA806F0FEF82E4B0A22B3
:102A40001A60002738460DF5077DBDE8F08F184B5A
:102A50001A782A4BC3F800A0294B1A70294B18701A
:102A6000294B1870294B1870294B1870294806F00B
:102A7000E3F8C8E75B46284A60216EA8CDF800A0BD
:102A800014F072FF6EA806F0D7F8002101221A4B4D
:102A900088F8001009490A7008221A60D1E7164B1D
:102AA0001A68092ACDD005221A60CAE764050020F9
:102AB0006D050020F8AA010850AF0108710500203B
:102AC00088AF0108D0AF0108E8AF0108D8B4010809
:102AD000A8AE0108B4AE01088CB5010894B1010894
:102AE000F8B40108FCAA0108DCAA0108600500206E
:102AF00044B5010864B50108BC050020D0040020DD
:102B0000CD040020CC040020CB040020CA04002007
:102B1000C904002018B50108B0B501087A050020E5
:102B20002DE9F04FDFF84082F5B007460AF086FD48
:102B3000D8F80030002B00F0AD808146A0F1C80B22
:102B40000A38754A4021009303903B4614A800249C
:102B500014F00AFFD8F80030704A4021009324A8EE
:102B60003B4614F001FFD8F800306D4A4021009335
:102B700034A83B4614F0F8FED8F80030694A6021CA
:102B800000935CA83B4614F0EFFE5CA806F054F8F6
:102B90000AF054FD039B0546C31A092B63D8A5EB25
:102BA0000B03C72B68D8402104A809F0A7FFE8B1A0
:102BB00004AD05EB000A07E05F290C4622D8013579
:102BC00000F8C02C554511D02A7804F5E873611C33
:102BD00000260D2A0DEB030001D00A2AECD100F8E3
:102BE000C06C9CB9013500245545EDD10AF026FD95
:102BF00043F69723A0EB0900984276D801200AF00B
:102C000023FDC5E7484806F017F8EBE7474805F00D
:102C1000C7FF44A805F0C4FF454805F0C1FF44A81C
:102C2000FEF752FF24A944A8FEF76CFE044634A91F
:102C300044A8002C35D1FEF765FE0028D2D0D8F884
:102C400000003B463B4A602100905CA814F08CFEDB
:102C50005CA805F0F1FF384B0A221A6000242046D8
:102C600075B0BDE8F08FFFF737F900284DD0A5EB20
:102C70000B030395C72B96D914A8AB4605F0A8FF04
:102C80003B462E4A60215CA814F06EFE5CA805F05D
:102C900087FF88E72A4805F0CFFF274B0A221A60F2
:102CA000DCE7D8F800306021264A5CA800933B4658
:102CB00014F05AFE5CA805F0BFFF23493846C8F857
:102CC0000060FDF705FB0028C9D1204B204A187091
:102CD000204B106018702049204A214B087010705A
:102CE0001870204675B0BDE8F08FD8F800003B465C
:102CF0001C4A602100905CA814F036FE5CA805F028
:102D00009BFF0D4B08221A60A8E70B4B1A68092A93
:102D1000A4D005221A60A1E740B00108A0AF0108C5
:102D2000E8AF010800B6010894B10108A8AE010897
:102D3000B4AE010858B60108BC05002020B6010851
:102D4000D8B5010838B60108DCAA0108CD04002076
:102D5000D0040020CB040020CC040020CA040020B2
:102D6000C904002080B60108600500202DE9F04F5D
:102D7000ADF53F7D07460D4616460AF05FFC8F4BCA
:102D800004901C68013420D022461A608C4B1B78BA
:102D9000CBB18C4A47F230539E4298BFB5F57A7F4B
:102DA00007D8B7F1030A18BF4FF0010ABAF1000FB4
:102DB0000ED0854B06221A604FF0000948460DF5EB
:102DC0003F7DBDE8F08F814AE4E701221446DCE74D
:102DD000049F4FF003092346A021C83F009296A804
:102DE0007B4ACDF804900597049FCDE9025614F074
:102DF000BBFD2346774A402106A8A7F10A0814F034
:102E0000B3FD2346744A402116A814F0ADFD2346B5
:102E1000724A402126A814F0A7FD2346704A80215B
:102E20004EA8CDF80090CDE9015614F09DFD4EA8B6
:102E300005F002FF0AF002FCA0EB08030446092B90
:102E400000F2A08057460DF1D80B059BE31AC72B63
:102E500000F28B806021584609F050FE824600281F
:102E600000F0938000265C46002509E0791C9F292C
:102E70004BD86EA8C2550F460135013455450ED2C8
:102E800022780D2A01D00A2AF0D100226EABDA5541
:102E9000002F3ED10135002701345545F0D30AF00B
:102EA000CDFB16BB049BC01A40F6B733984276D8C8
:102EB000012000260AF0C8FB0AF0C0FBA0EB0803C3
:102EC0000446092BC1D9FFF707F800286ED0A046A9
:102ED0000DF1D80B002EB8D06021584609F00EFE37
:102EE00082460028BFD10AF0A9FB801B41F287333C
:102EF00098424DD801200AF0A7FB0AF09FFBA0EBF7
:102F000008030446092BE7D9DDE7364805F094FEAF
:102F1000C0E7354805F044FE6EA805F041FE334891
:102F200005F03EFE06A96EA8FEF7ECFC50B1002E9F
:102F3000B0D10AF083FB81462D48374605F030FEBC
:102F40004E4699E716A96EA8FEF7DCFC814688B9C3
:102F50006EA826A9FEF7D6FC00289BD0254805F0D0
:102F60006BFE194B0A221A6026E796A805F030FE80
:102F700005946FE7204805F05FFE48460DF53F7D5C
:102F8000BDE8F08F564657469DE70AF057FB89E7A4
:102F90001A4805F051FE0C4B08221A600CE718483D
:102FA00005F04AFE084B08221A6005E7064B1A682E
:102FB000092A3FF401AF05221A60FDE664050020EE
:102FC0006D050020F8AA0108BC050020FCAA010834
:102FD000A4B60108E8B6010804B7010820B7010843
:102FE0003CB70108BCB70108A8AE0108B4AE01089F
:102FF00078B70108A0B701088CB70108FCB7010831
:10300000E0B70108F8B507460AF018FB0646A0F13C
:103010000A050BE00AF012FB431B092B03D90546F6
:10302000FEF75AFF40B101200AF00EFB0AF006FB42
:10303000801BB842EED3F8BD044B1A68092A01D0B0
:1030400005221A60024B07221A70F8BDBC05002049
:10305000C00500202DE9F04F00232DED108BE5B0C9
:103060009FED999AB0EE408A1993F0EE608A8DED4B
:10307000129A8DED139A8DED149ACDE91A33CDE99C
:103080001C33CDE91E33CDE92033CDE917338F4B07
:10309000D3ED00EA0AF0D2FAB0EE492A9FED9A1A6F
:1030A000F0EE491A23AA012305908DED229A07EE2E
:1030B000903AF0EE480A16A915A8B8EEE70A0133CF
:1030C00020EE010AFDF7C0FBF0EE427A9DED162AD4
:1030D000B0EE617ADDED151A412B72EE677A52ED92
:1030E000016A31EEC77A67EEA77AE7EE077AB1EEAA
:1030F000E77A77EE267AE2EC017AD8D19DED62BAD2
:103100009FED73CAB4EECCBAF1EE10FA08D8714B49
:10311000062200201A6065B0BDEC108BBDE8F08F70
:10312000DFED69AA6C4B9FED6D7AB0EE6A9AC3ED44
:1031300000AAF0EE6ABA6A4B68EE878ADFED697A18
:10314000B0EE6AAAC3ED00AAF0EE6A9A664B68EE8A
:10315000A77A9FED66FAF0EE6ADAC3ED00AAB0EE48
:103160006ADA634B28EE0F7A059EF0EE6ACAC3ED69
:1031700000AA604B3746CDED097A7EEEA77AC3ED03
:1031800000AAA6F1FA038DED027AB0460793CDEDC1
:10319000087AFEF7FDFD00230122CDED03EA0B9333
:1031A00006920A930AF04AFA0646FEF7F1FD059ADE
:1031B00042F22733B21A9A4200F24183F31B092BE1
:1031C00040F2BE83A6EB08030A3707EE903AF31BE2
:1031D000F8EE677A092B88BF374667EE8C7AF4EEF3
:1031E000CC7AF1EE10FA00F189839FED432AF4EED8
:1031F000C27AF1EE10FA72FE27EAB0EE6E0AFDF71F
:10320000AFFB14AB12AA1EA9009313AB3B4806F008
:10321000DFF98046002800F0D183DFF8E4B0DDED6F
:10322000037ADBED008A78EEE78AB0EE680A13F0E5
:103230001BFBF0EE40FAB0EE680A13F015FA9DEDB4
:10324000137ADDED127AF0EE401A67EE006A9DF80F
:10325000643027EE2F7AE7EEAF6AA0EE677AB0EE21
:1032600066FAB0EE47EA002B00F05083B0EE6E2A0B
:1032700017A8B0EE6F1AF0EE470AB0EE660AFEF736
:103280006FFA9DED17FA9DED18EA89EE8B6AB5EE9F
:10329000C06AF1EE10FA00F13483F7EE008AB4EE62
:1032A000E86AF1EE10FAF5EEC09A38FE866AF1EEA1
:1032B00010FA40F28783F4EECB9AF1EE10FA5ADA64
:1032C00023AA012332E000BF000000008C0500208B
:1032D0006F12833ABC050020A8050020DA0FC93F11
:1032E000A405002080B7803F9805002014AE073F5A
:1032F0009405002090050020CDCC4C3D04D1010860
:10330000AC050020BD3786350000803C4627AB3D2C
:103310000C75203FCDCCCCBE9A9919BEEC5158C04B
:10332000AE47613F0133412B00F04583D2ED007A77
:103330000432F4EEE79AF1EE10FAF3D8013B1FEDF8
:103340000F5A0DEB8302D2ED225A77EEE57AF4EEB6
:10335000C57AF1EE10FA40F3058379EEE55A85EE71
:10336000A75A07EE903AF8EEE78A5FED197A78EE01
:10337000858A68EEA78AF0EE480A16A9B0EE680AB8
:1033800015A88DED046AFDF75FFAF7EE005A5FEDC0
:10339000217AF0EE084A1FED224A28EE275A1FED47
:1033A000237A75EEE85A9DED023AF1EE087A9DED2A
:1033B000046AA8EE443A65EEA43A65EEA77A68EE90
:1033C000A44A63EEA53AF0EE455A67EEA87A64EE99
:1033D000A84AD8EE045A65EEA75A67EE877A1FED21
:1033E000327AE5EE235A1FED335AE3EE877AE4EEA4
:1033F000835AE4EE857A25EEA55AA7EEA75AB1EED8
:10340000C54AB4EECC4AF1EE10FA40F2D78285EE0E
:10341000845A5FED3D5AE74B93ED003AC7EE844A7C
:103420009FEDE54A2EEE044A6FEE255A7BEE697A4F
:10343000A4EE2EDAE5EEAECA64EE053AE5EEA43A65
:1034400024EE244AA5EE654AE3EEAEDAF0EEE35A46
:10345000A5EEAE3A7BEE6D8AF4EEE8AA83ED003A73
:10346000F1EE10FAF4EEE7AA3AFEA80AF1EE10FA2D
:103470007AFEA77AF4EEC07AF1EE10FA30FE270A4F
:10348000B5EE400AF1EE10FA00F1BB82F1EEC07A1F
:103490009FEDCA3AB4EEE73AF1EE10FA77FE837A7E
:1034A000B4EEE7AAB6EE003AF1EE10FA2EEE833A49
:1034B00040F10A823AEE033AB4EEE73AF1EE10FA3E
:1034C00037FE83AAEAEE2E9ADFEDBD7AF4EECB9AB0
:1034D000F1EE10FA7BFE299A39EEED3A23EE273A07
:1034E000FDEE007AB4EEE73AF1EE10FA07D4F5EE0D
:1034F000007AB4EEE73AF1EE10FA77FE837A7AEECC
:10350000277ABDEE003AF4EEC37AF1EE10FA00F13C
:103510000E829FEDAA3AF4EEC37AF1EE10FA73FE32
:10352000277A77EEE33A9FEDA73A23EE833AE3EE6C
:103530002EBABDEE003AF4EEC3BAF1EE10FA00F185
:10354000F381B5EE003AF4EEC3BAF1EE10FA73FE71
:103550002BBA9FED9D3AE3EE837ABDEE003A77EE0B
:10356000AB7AF4EEC37AF1EE10FA07D49FED933AFA
:10357000F4EEC37AF1EE10FA33FE273ADDED167A57
:10358000DDED152A7DEE677ADFED900A7CEEE22A0A
:103590008F4B67EEA47A83ED003AE5EE627ADFEDB9
:1035A0008D2AF0EE673ADFED8C7A67EEC47AE3EEAF
:1035B000A27AF4EEE07AF1EE10FA07D4DFED870A92
:1035C000F4EEE07AF1EE10FA70FEA70A844BDDED1E
:1035D000027AC3ED003ADFED833A77EECD2A824BD3
:1035E00073EEEC3AC3ED000A62EEA27A7F4BF5EE81
:1035F000C03A83ED004AF1EE10FA00F1778177EEE0
:10360000AA7AF0EE6A3AB1EEE74ADFED797AB4EEE3
:10361000E76AF1EE10FAC0F26081DFED767AB4EE7F
:10362000E74AF1EE10FA05D9B4EECC4AF1EE10FA01
:1036300000F39B81DFED700AF0EE6A7AF0EE603AFB
:10364000634BC3ED007AB7EE005A9DED097AC3EEE5
:103650000B4A6A4BB4EEC56AB0EE001AB0EE083AF7
:10366000F1EE10FAF1EE087A21EEE00A75FE062A74
:10367000A2EEC13A62EEA22A35EE465A66EE277AEB
:1036800060EEAF0AA3EEAF0A23EE223ADFED5C2A2A
:1036900067EE857A9DED035AE3EEA10AA7EE035A81
:1036A00027EE273ADBED007AD3ED003A75EE677A24
:1036B00067EEA27AE3EE247ADFED524AE3EEE47A93
:1036C000DFED514AF4EEE47AF1EE10FA00F12981CF
:1036D000F4EEE27AF1EE10FA72FEA77ADFED4B4AD1
:1036E0002EEEA42A79EE424AF4EEE74AF1EE10FA01
:1036F00000F3148139EE022AF4EEC27AF1EE10FAE8
:1037000032FE279A424A9DED087A82ED009A414A9C
:10371000DBED007A82ED005A9FED355A77EE677A3D
:10372000B4EEC56AF0EEE77AF1EE10FA80F2AE8000
:10373000F0EEE88A9FED387AF4EEC78AF1EE10FADF
:1037400000F2B7809FED2B7AF4EEC75AF1EE10FA33
:1037500000F2AF809FED317AF4EEC77AF1EE10FA05
:103760000AD8D3ED007A9FED2E7AF0EEE77AF4EEE8
:10377000C77AF1EE10FA0DD9154BC3ED00AA1A4B1A
:10378000C3ED00AA0B9B002B00F0E080CDF82C804D
:103790004FF00008B0EE491A1AA9224805F0A0FE21
:1037A000002800F00B811AA8FEF762FB002800F049
:1037B000158139E0A00500209A99B93F3333B33F12
:1037C0009A99993FCDCC4C3F3333B33E9A9999BEE9
:1037D000A80500209A9919C0AE47613E9A99993E72
:1037E000980500201F857BC09405002090050020CF
:1037F0009A99593F8FC2F53C00000000B0050020A7
:10380000CDCC0C40CDCC4C3ECDCC0CC03333734032
:10381000A40500208C0500206F12033C0AD7A33CAE
:103820000AD7233D04D1010809F008FF1EA906F0BC
:103830004DF8A0B9069B5BB9824805F0FDF9824BB3
:1038400005221A60002065B0BDEC108BBDE8F08F3A
:10385000CDE91E00CDE920007C4805F0EDF9079B7D
:10386000F31AF92B66D807F061FDB8F1000F09D003
:103870000A9B002B68D0F31A3B2B4FF0000300F299
:10388000B3800A930023B04606938BE49FED706AE1
:10389000B4EEC64AF1EE10FA0BD82EEE0E7AAFEE69
:1038A0000F7AF1EEC76AF4EEC66AF1EE10FA7FF60F
:1038B00051AF9FED687AF4EEC77AF1EE10FA1AD89C
:1038C0001B684FF0000865E73AEE433AF4EEC37A1E
:1038D000F1EE10FA37FE83AAF4E565EE603A60EE89
:1038E000A40AE4EE833AE5EE030AACE6E3EEA37A3B
:1038F000F1EE633A87E64FF000084BE7F0EE4CEA52
:103900007BE4B0EE6A6AF0EE6A8A34E50123CDED1D
:10391000176A8DED187A8DF86430B6E4B0EE649ACB
:10392000F0E6F0EE647AD9E6F0EE43BA11E6F0EE96
:10393000437AF6E51EA93046FDF7BCF8079692E7F4
:10394000012009F081FE2DE40A969BE74248CDED67
:103950000B0A8DED040A05F06FF9DDED0B0A9DED04
:10396000040A13E7B0EE6A5AFBE4DFED3C0ADFED30
:103970003C7A62EEA00ADFED3B4A63EEA73A20EE06
:10398000A05AA3EEA35AF1EEC57AF4EEE47AF1EE72
:1039900010FA1ADC9FED345AF4EEC57AF1EE10FA03
:1039A0007FF54EAEC5EE274AF0EE457A63EEA43AB7
:1039B00060EEA40A44E6F7EE008ADCE4224B06221D
:1039C0001A603FE7DFED298AD5E484EEA75AF0EECE
:1039D000647A63EE853A60EE850A31E61A4B1A681E
:1039E000092A7FF42DAF2DE7214ADDED087AC2EDDB
:1039F000007A204A1360204A1360FEF76DFAFFF741
:103A00008ABBCDED111A8DED106A8DED0F4ACDED0B
:103A10000E3A8DED0D5ACDED0C4ACDED045A12F053
:103A2000F9FDDDED111AF0EE407A9DED106A9DED85
:103A30000F4ADDED0E3A9DED0D5ADDED0C4ADDED40
:103A4000045A25E570B80108BC0500204CB80108EF
:103A50000AD7A33D0AD7A33C18B801089A99993F01
:103A60009A9999BF6666E63E8FC2F53D0000000058
:103A70008C050020A8050020A40500202DE9F04FAA
:103A8000A74B0D462DED068BADF53D7D11921A68C5
:103A900015900132079201D10122079200241A6089
:103AA00009F0CCFD012DA0F12803A0F10A0B0D9027
:103AB00022940B93CDE92444CDE92644CDE9284452
:103AC000CDE92A44CDE9204400F01E82079E3CA89F
:103AD000944D60213346944A0095129013F044FFB0
:103AE000159A3346029494ACA021019220468F4A45
:103AF00000951B9413F038FF204605F09DF88C4B81
:103B00001C68003C18BF01248A4B00229FED8A9A52
:103B10001C709046894BF0EE498AF0EE49AADFED21
:103B2000889A83ED009A9246864B9FED87AA83ED93
:103B3000009A864B139283ED009A854B169283ED83
:103B4000009A844B0F9283ED009A0D9B1A920A9370
:103B500001230E920C93179214921092CDE9182221
:103B600009F06CFD0D994EF65F230690A0EB01095C
:103B7000994500F2E681069B0B9A9B1A272B00F2CF
:103B8000808140212CA808F0B9FF20B32CAC00277D
:103B900052462518CDE9089B08E054AB9F54002AF3
:103BA00040F0EE8000220134A54211D023780A2B88
:103BB00018BF0D2B0CBF01260026EED0511C7F290B
:103BC00000F21481013454A8A54283540A46EDD171
:103BD000DDE9089B9246069BA3EB0B03092B40F201
:103BE0006981069B0A9A9B1A07EE103AB8EE477A4B
:103BF00027EE297AB4EEE97AF1EE10FA00F14E815F
:103C0000DFED557AB4EEE77AF1EE10FA37FE878AE7
:103C1000B0EE480AFCF7A4FEB8F1000F00F0EC800B
:103C2000069B109A9B1AB3F5AF7F00F2E580F0EE89
:103C3000EA7AB7EE087AF4EEC77AF1EE10FA40F3BA
:103C40004B81464B9FED467AD3ED007A9FED451AA6
:103C500067EE677A9FED447AEAEE877AF4EEC17AEE
:103C6000F1EE10FA07D49FED411AF4EEC17AF1EEAD
:103C700010FA31FE271A0E9B002B00F02A81DDE995
:103C800014329B1A642B40F32A819FED397ADDF8B8
:103C9000388068EE0A7A77EE686AF4EEE67AF1EE3A
:103CA00010FA40F1DE8078EEA78AF0EE496AB1EEB4
:103CB000680AE8EEA86AF1EEE67A204B28A92D48BA
:103CC000F0EE490AC3ED007A1E4B83ED001A05F0B1
:103CD00007FC002800F0438128A8FEF7C9F8002857
:103CE00000F0E48109F0AAFC24A905F0EFFD00280A
:103CF00040F09B800C9B002B40F090801E4804F00D
:103D00009BFF1E4B05221A6000230A4A0E93137074
:103D10000E980DF53D7DBDEC068BBDE8F08F00BF24
:103D200064050020B0BA010884BA0108CCBA0108C1
:103D3000E8040020E604002000000000A8050020A0
:103D40006F12833AA4050020CDCCCC3D980500200D
:103D50009405002090050020CDCC4C3DB0050020FE
:103D60000AD7A33DEC5138BE0AD7233DEC51383E6B
:103D7000CDCCCCBD04D1010870B80108BC05002031
:103D80000DF5E87A0DF17C090DF1780B1846FDF779
:103D90009BFE1DAB1CAAAF4954A8CDF808A0CDF8D6
:103DA0000490CDF800B013F011FE052803D11C9B40
:103DB000079A934242D054A81CAAA74913F006FEC2
:103DC00001287FF4EFAE1C9B079A93427FF4EAAE82
:103DD0000F9B5A1CA14B02FB03F30F9213F1333FCD
:103DE000FFF4E0AE9E4804F0DBFEDBE69D48B04603
:103DF00004F022FF3246D6E60E9B002B47D1119BE2
:103E000099455BD2169B002B70D001239FED961A2B
:103E10009FED967A4FF0000816933AE7CDE924001B
:103E2000CDE92600924804F007FF07F07FFADDF89D
:103E300018B00023CDF828B00C9391E61F9BB3F582
:103E4000487FB8D1749BB3F5167FB4D1DDF8749078
:103E500041F27073994540F28680864804F0A0FED6
:103E6000A0E6B1EE676AF4EEC66AF1EE10FA18D574
:103E700078EEE78AF0EE496AB1EE680AE8EEA86AE1
:103E800019E7129804F0A4FE069B0B9379E6B0EEB6
:103E9000491A4FF00008B0EE497AFAE6B0EE698AA6
:103EA000B6E6F0EE496AB1EE470AF0EE478AE7EE71
:103EB000076A00E7012009F0C7FB51E6139BFBB13D
:103EC0000123B0EE491AB0EE4A7A4FF0000813937E
:103ED000DFE6B0EE497ADCE6B0EE491ACBE66433B1
:103EE0002CDA9FED657ADDF83880D2E6119B8021CF
:103EF000624A74A813F038FD74A804F051FE84E7F8
:103F00005F4804F04DFEDBE7079E3CA85D4D602155
:103F100033465D4A0095129013F026FD159A3346FC
:103F2000009594AD0192A021584A284602941B9511
:103F300013F01AFD284604F07FFEE5E59FED4A7A6E
:103F4000A7E6FDF7C9FF00235149524A0B605249C9
:103F500052480B600B23136004F06EFED4E64D4B09
:103F600006221A60D0E6179B4BB1189BA9EB0303FE
:103F7000002BB8BF5B42B3F5E16F3FF76EAF199905
:103F8000474AA2FB013222F0010303EB520320AAAD
:103F9000CB1A42F823904B1C022B199300F28C8011
:103FA000DBED00AAF0EE046ADFED3E7AF8EEEAAA55
:103FB0006AEEA7AAB0EEEA6AB7EEEA7AB4EEE66A6B
:103FC000F1EE10FA2CD81A9B022B03D80133032BE5
:103FD0001A9327D1149BA021DDF86C800093012354
:103FE000314A404604934B468DED027B13F0BCFCF6
:103FF000404604F0D5FD199A022A24D90E9A12B32C
:10400000DDE914329B1A002BB8BF5B42642B68DDDC
:104010000E9BCDF8609098461793069B1093C1E5D0
:1040200000231A93149BA021DDF86C8000930023D9
:104030001D4A404604934B468DED027B13F094FCE1
:10404000404604F0ADFD069BB046CDE917691093DC
:10405000A8E500BFC4B8010894B90108CDCCCCCC08
:10406000BCB90108E4B9010800000000CDCCCCBD0A
:104070004CB801086CB90108CDCCCC3D0CBA010894
:104080004CBA010814BB010884BA0108CCBA010873
:10409000A8050020BC050020A40500209CB801084C
:1040A000ABAAAAAA0AD7233C04B90108124B1A6882
:1040B000092A7FF427AE27E6DDE92031229A8B42D8
:1040C00014910ADD914206DC14931346149A9A4225
:1040D000A8BF1A4614920E9662E79342F6DC134686
:1040E000F4E7064A064B126806481A6004F0A4FD7D
:1040F0000023054A13700BE6BC050020AC05002028
:104100008C05002044B90108E604002060EEA07A86
:104110000023F0EEE06A0022B0EEC07AE0EE007A12
:104120002DE9F04FF4EEC76ADE4D2DED108BAFB0E8
:10413000F1EE10FAB1EEE79A95ED006A1E93229324
:10414000189321932593B0EE608AF0EE408A8DEDAE
:10415000086AB0EE41AA1292B0EE61BA1392B0EEC4
:1041600042DA1492F0EE62EACDE91F33CDE923334F
:10417000CDE91933CC4BD3ED007ACDED057A40F380
:104180007E82F1EE047ACDED0A7AF5EE007ACDED7D
:10419000077ADFEDC6DA09F051FAB4EEED9AF1EEE6
:1041A00010FA00F16382DFEDC27AB4EEE7BAF1EE05
:1041B00010FA40F25B82B4EEE7DAF1EE10FA40F268
:1041C0005582BC4BC8EE89BADFF814830021C3EDD9
:1041D000007A8246B84B0446C8ED007AC3ED007AF7
:1041E00088EE09CAB54B9DED057AC3ED007AB44B54
:1041F00037EE2E7A0B91C3ED007AA0F1FA03F0EEC0
:1042000067FA0D91B0EE679A0993B0EE678A0123C1
:10421000F0EE678A8DED0C7AF0EE67CA0493F0EE4B
:1042200067AACDED02EA069009F008FA069A43F66D
:1042300097238146821A9A4200F21482A14E336873
:1042400023B1A14B1B78002B40F0D382A9EB0A03CA
:10425000092B40F2B582A9EB04030AF10A0A07EE22
:10426000903AA9EB0A03F8EE677A092B88BFCA4691
:1042700067EEAD7AF4EEED7AF1EE10FA00F18B8292
:104280009FED922AF4EEC27AF1EE10FA72FE27EA5E
:10429000C8EE8A7AF5EEC07AF1EE10FA00F1768275
:1042A000F7EE009AB0EE007AF4EEE97AF1EE10FA49
:1042B00079FEA79AF0EE087AE9EEC77A29EEA97A94
:1042C00067EE877A9DED027AB0EE6E0A9DED05EA03
:1042D000754BA7EE27EA83ED00EAFCF741FB14AB30
:1042E00012AA22A97A48009313AB05F071F904468B
:1042F000002800F0BB819DED087AD5ED007A77EEBD
:10430000C77AB0EE670ACDED037A12F0ADFAB0EEDF
:1043100040FA9DED030A12F0A7F9DDED130AF0EE65
:10432000401ADDED127A20EE800A9DF8683060EECA
:104330008F0AA7EE8F0AE1EEE70A002B00F02E822B
:10434000B0EE6E2A18A8B0EE4F1AFDF709FA9DEDEF
:10435000180ADDED190A6CEE204A5E4B7AEE687A97
:104360006BEEA00A93ED006AEBEE804A3DEE0D7A0B
:10437000ECEE400AE4EEAECAF0EEE46AE0EEAEFA2D
:10438000A6EEAE6A7AEE6C5AF4EEE5AA83ED006A08
:10439000494BF1EE10FAF4EEE7AAC3ED00FA484BF0
:1043A0003AFEA50AF1EE10FAC3ED000A7AFEA77AEA
:1043B000F4EEC07AF1EE10FA30FE270A20EE070A7A
:1043C000B5EE400AF1EE10FA00F11A84F1EEC07A6F
:1043D000B4EEE7BA2DEE2E7AF1EE10FA77FE8B7A74
:1043E000B4EEE78AF1EE10FA40F1748138EE077A04
:1043F000B4EEE77AF1EE10FA37FE878AE8EE2E8AFD
:104400009DED025ADFED387AB0EEC56AF4EECA8A45
:10441000F1EE10FAB4EEE76A7AFE288AF1EE10FAAD
:1044200040F35581C8EE0A7AB1EE087A25EE077A94
:10443000B7EE005A27EE297A35EE695A27EE057A4B
:1044400027EE277A78EEEC7A9FED235A67EE857A8D
:10445000BDEE005AF4EEC57AF1EE10FA07D4B5EECF
:10446000005AF4EEC57AF1EE10FA35FE275A38EE0E
:10447000055AFDEE007AB4EEE75AF1EE10FA05D4D3
:10448000B4EECB5AF1EE10FA7BFE057A77EEE44AF1
:104490009FED124ABDEE005A24EE844AA4EE2E9AF5
:1044A00024E000BFAC0500208C0500206F12833A89
:1044B00000000000A80500209805002094050020B9
:1044C00090050020E8040020E7040020CDCC4C3DFE
:1044D00004D10108A00500209A99993FCDCC4C3F0A
:1044E000A40500203333B33E17B7D138B4EEC59AD4
:1044F000F1EE10FA00F15A81B5EE005AB4EEC59A09
:10450000F1EE10FA35FE099A1FED0A5AE4EE857AAB
:10451000BDEE005A77EE897AF4EEC57AF1EE10FA24
:1045200005D4F4EECB7AF1EE10FA3BFE275A5FED9C
:10453000127AB44BB4EEE76A83ED005AF1EE10FA4A
:1045400000F3F580F0EEC57ADFEDAF4A9FEDAF4A9C
:1045500067EEA47AC7EE844ADFEDAD7AF4EEE74A5F
:10456000F1EE10FA77FEA47AB1EE674AD5ED004A73
:10457000DDED0A3A74EECE4AA64FF1EE639AA3EE51
:10458000E47AD7ED004ADDED073AA4EEE37AB4EE23
:10459000C47AF1EE10FA05D4B4EEE77AF1EE10FA2F
:1045A00037FE874ADFED9C7A9FED9C7A67EEE07AD2
:1045B000DFED9B0A88ED004AEFEE877AF4EEE07AB1
:1045C000F1EE10FA07D4DFED970AF4EEE07AF1EE9F
:1045D00010FA70FEA70AF0EEE55A9FED937A934B1E
:1045E0006CEE607AF4EEC75AC3ED000A6BEEA00AD7
:1045F00095ED007AEBEE857AF1EE10FAECEE050A15
:1046000071D9DDED0C6A36EEC77ADFED896AB0EE5E
:10461000C77AB4EEE67AF1EE10FA00D83B684FF0B4
:10462000000B21EEE00A98ED001A60EE8F0A1EA939
:104630008048A7EE8F0AE7EEA10A04F051FFA8B167
:104640001EA8FDF715FC0446002800F0CC8008F0F9
:10465000F5FF22A905F03AF908BB049BC3B97648D7
:1046600004F0EAFA754B05221A6002E0734B062249
:104670001A6000202FB0BDEC108BBDE8F08FF2EE79
:10468000027ACDED0A7ADFED677ACDED077A80E523
:10469000CDE92200CDE92400694804F0CDFA099B58
:1046A000A9EB0303F92B00F2848006F03FFEBBF177
:1046B000000F41D00B9B002B00F08880A9EB030377
:1046C0003B2B00F2CB8000234C460493ACE5B0EECC
:1046D0006A7AB7E638EE477AF4EEC77AF1EE10FA66
:1046E00037FE878A8AE6DDED0C5A35EEC77ADFEDB4
:1046F000505AB0EEC77AB4EEE57AF1EE10FA21D84E
:1047000097ED007ADFED4F5AB0EEC77AB4EEE57A56
:10471000F1EE10FA16D89FED4C7AF4EEC76AF1EE7E
:1047200010FA94BF4FF0010B4FF0000B79E79FEDAB
:10473000474ADFED377A19E74C46CDF82CB0CDF873
:1047400010B071E59FED407AF4EEC76AF1EE10FA11
:104750003FF665AF9FED3E7AB4EEC76AF1EE10FA10
:1047600002D84FF0010B5CE77FF759AF254BC3ED43
:1047700000AA2E4BC3ED00AA0D9B63B3F0EE6A0AAC
:104780004FF0000BDFED337A0D944AE7F0EE6A7AD2
:10479000DFED309A96E5F0EE6DEA79E501238DEDD7
:1047A000180ACDED190A8DF86830D4E5B0EE459AB7
:1047B000AAE622A94846FCF77DF9CDF8249074E7D3
:1047C000A146012008F040FF4C462DE54C46CDF8AF
:1047D0002C90049328E52048CDED031A04F02CFA20
:1047E000DDED031ACAE7154B1A68092A7FF43BAFBF
:1047F0003FE7FDF771FB0023024A1360C8F8003061
:1048000037E700BFA80500206666263F7B14AE3E52
:104810003333333FB0050020AE47613E9A9919C04B
:104820009A9999BE9A99993E6F12033C940500207B
:104830000AD7A33C04D1010870B80108BC050020C8
:104840004CB801080AD7233D8FC2F53C333333BF40
:1048500017B7D1380000000024BB0108DDED0C7A49
:104860004FF00009C64BDFEDC78AC3ED007A002385
:104870009FEDC5AA26932A931B9329932D939FED11
:10488000C3BADFEDC3AA9FEDC39ADFEDC3CACDE97A
:104890002733CDE92B33CDE91C33C04BC3F800904F
:1048A00008F0CCFEBD4BBE4AC3F80090C2ED00FA42
:1048B000BC4A0290C2F80090A0F1FA0201200392D3
:1048C000FCF7B2F8DDF808B00023D946049308F0ED
:1048D000B5FE029B8246C31AB3F5FA5F80F087816A
:1048E000A0EB0903092B40F23F81A0EB0B0309F178
:1048F0000A0907EE903AA0EB0903F8EE677A092B54
:1049000088BF814667EEA87AF4EEE87AF1EE10FAF5
:1049100000F112819FEDA48AF4EEC87AF1EE10FA4C
:1049200038FE278AB0EE480AFCF71AF817AB15AA2A
:104930002AA9009316AB9D4804F04AFE00283FF4D4
:1049400095AEDDED087AD5ED00DA7DEEE7DAB0EE72
:104950006D0A11F089FFB0EE40DAB0EE6D0A11F089
:1049600083FEDDED160AF0EE401ADDED157A20EE3D
:10497000200A9DF874306DEE200AADEE270AE1EEB4
:10498000E70A002B00F0DB80B0EE482A1BA8B0EE4F
:104990004D1AFCF7E5FE9DED1B0ADDED1C0A6BEEE2
:1049A000A00A834BDDED076AECEE400AC3ED000A76
:1049B000D3ED007A7A4BE8EE27FADDED0C7AC3ED01
:1049C00000FA95ED007A37EE677AD7ED007A67EE58
:1049D000E67AE9EE877AF4EECA7AF1EE10FA00F19F
:1049E000B9809FED747AF4EEC77AF1EE10FA77FE93
:1049F000277A6F4BC8ED007AD3ED007A6BEE677AB9
:104A0000EFEEAA7AF4EEC97AF1EE10FA00F19F8087
:104A10009FED697AF4EEC77AF1EE10FA77FE277A05
:104A2000604B26A96148C3ED007AD3ED007AD3ED3F
:104A3000000A6CEE677A98ED001A6BEEA00A20EE81
:104A4000E10A6DEE200AADEE270AE1EEA70A04F0B6
:104A500047FD00283FF40AAE584B1B6843B9336842
:104A6000002B40F08580564B1B780BB9FDF7ECF816
:104A700005F04CF920B905F04FF9002840F0AE8060
:104A800026A804F0D5FE28B94E4B1A68092A7FF4EF
:104A9000EAADEEE508F0D2FD2AA904F017FF48B907
:104AA000002C3FF4DCADCDE92A00CDE92C004648CE
:104AB00004F0C2F8039BAAEB0303F92B4DD806F0D0
:104AC00035FCF0EEEF7AF4EEEC7AF1EE10FA30D835
:104AD000374B9FED3E7AD3ED007AF0EEE77AF4EEB5
:104AE000C77AF1EE10FA24D8D5ED007ADDED0C6A24
:104AF0009FED377A77EEE67AF0EEE77AF4EEC77A52
:104B0000F1EE10FA15D8D7ED007A9FED327AF0EE7B
:104B1000E77AF4EEC77AF1EE10FA0AD8049B002B7C
:104B200062D0AAEB03033B2B00F28480D34600241F
:104B3000CDE600230493F9E7B0EE688AF2E601239C
:104B40008DED1B0ACDED1C0A8DF8743027E7F0EED1
:104B5000497A65E7F0EE4A7A4BE72AA95046FBF717
:104B6000A9FFCDF80CA0AAE7012008F06DFDAEE684
:104B7000194B1B78002B7FF47BAFFCF7ABF977E781
:104B80008C0500206F12833A3333B3BEAE47613ECB
:104B90009A9919C0EC5138BE6F12033CA805002049
:104BA0009805002094050020CDCC4C3D04D101088F
:104BB000900500203333B33EEC51383EDC04002036
:104BC0006F050020BC0500204CB801088FC2F53CE1
:104BD0000AD7A33C0AD7233DE6040020FBF778FE62
:104BE000194B09221A6050E7CDF810A09EE7002368
:104BF000164A03201360FBF717FFFDF76DF939E53F
:104C0000CDED111ACDED105ACDED0F0ACDED0E4AB6
:104C1000CDED036A11F0FEFCDDED111AF0EE407AE5
:104C2000DDED105ADDED0F0ADDED0E4ADDED036A14
:104C3000FFF7CEBB0023054A02201360FBF7F4FE0A
:104C4000FDF74AF916E500BFBC05002094050020D9
:104C50002DE9F047C6B0602106A807F04FFF0028F5
:104C600035D006AD934E944F05EB0008DFF8A492C3
:104C700006E0611C7F292DD831603B55A84526D020
:104C800015F8013B34680D2B06D0A3F10A02B2FAE5
:104C900082F25209002AECD00023884986483B550D
:104CA00012F0A0FF824650B1B84208D0FBF71AFBC1
:104CB000044651463846621C12F0FAFE346014B1C4
:104CC000D9F80030E3B90023A8453360D8D146B005
:104CD000BDE8F087DFF840A232609AF80020D9F8EA
:104CE0000030002A5DD0764A0192A021754A1EA8A4
:104CF0000092754A12F038FE1EA803F069FFBDE766
:104D000005AC72480DF113022146FCF759F8002852
:104D100049D02368D9F80020DFF8FCA193425CD089
:104D20000DF1130221466A48FCF74AF820B12368C6
:104D3000D9F8002093426BD00DF11302214665484B
:104D4000FCF73EF820B12368D9F80020934277D0D1
:104D50000DF1130221466048FCF732F828B12368B0
:104D6000D9F80020934200F082800DF11302214611
:104D70005A48FCF725F8D9F800309AF8002010B10D
:104D800024689C4214D08AB14D4A0192544A009240
:104D90004D4AA0211EA812F0E7FD1EA803F018FF3F
:104DA00091E7504AA0E7DFF870A1B9E74D4AECE778
:104DB0009DF813109142E6D14B4B00224B481A70DC
:104DC00003F0EEFE9AF80030002B6ED03C4B434AC5
:104DD000009323460192464ADBE79DF813109AF8A8
:104DE000002091429CD1434A127812B9424A0121D3
:104DF00011704248039303F0D3FE9AF80020039BFE
:104E0000002A4CD1374A0092304A0192384AC0E712
:104E10009DF813109AF8002091428DD1384A012153
:104E200038480393117003F0BBFE9AF80020039BEF
:104E3000002A36D0224A0092254A01922C4AA8E73D
:104E40009DF813109AF80020914281D12E4A012139
:104E50002E480393117003F0A3FE9AF80020039BE1
:104E60000AB3174A00921B4A0192214A91E79DF822
:104E700013109AF8002091427FF477AF1A4A01216B
:104E800023480393117003F08BFE9AF80020039BD4
:104E90006AB10B4A0092104A0192154A79E7084A12
:104EA000B1E7104AC7E70F4ADCE70E4B8FE70D4A20
:104EB000F0E700BF7C030020FC02002068AB010883
:104EC000F8AA0108A8BC010870BC01086CAD010873
:104ED000ACAD0108E8AC010810BC010840BC0108F9
:104EE000A0BC0108FCAA0108D404002048BC0108A9
:104EF00090BB0108D5040020D804002068BB01083D
:104F0000D7040020C0BB0108D6040020E8BB01087C
:104F100018BC0108DC040020E4040020B5EEC00A3F
:104F200000230022F1EE10FA2DE9F04F2DED108B49
:104F3000C1B0B0EE60CA109314930D920E920F920E
:104F400013931793CDE91133CDE9153300F167833E
:104F5000F7EE00CADFF8F4B1B0EEC0BADFF8F0A1A6
:104F6000DBED00BA08F06AFBA0F1FA035F490246E4
:104F70000793DAF800300968002B00F024830B1E39
:104F80004FF0010EB6EE00EADFED59EA18BF01233B
:104F90009FED58AADFED58FAF4460A93574B059354
:104FA000DFED577AB0EE6F9A564B16465649B0EE83
:104FB00067FAC3ED007AF0EE678A544BF0EE679A19
:104FC000DFED53AA4FF00008C3ED007A1546514BB0
:104FD000DFED51DAC3ED007A504B9FED51DAC3EDAE
:104FE000007A504BCDF818C0C3ED007ADBF80030E2
:104FF000CDF820E00B6001230492039308F01EFB20
:10500000049A0290831A059A934280F00F83069BBC
:10501000002B00F0BC800A9B002B00F0F981334B81
:105020001B680993FCF79EFC3F4B1F78002F40F054
:105030007F823E4C2378002B00F0A980FCF74CFFC8
:10504000002800F0A9830123394A27701370394BD7
:105050001B78002B40F0CA82374B18AF0193099B95
:10506000A021364A38460093354B12F07DFC384675
:1050700003F0AEFD08F0E2FA2D4B81461B784BB9E8
:1050800085E006F053F90A2008F0DEFA284B1B7879
:10509000002B7CD008F0D2FA0446FCF763FC04F045
:1050A0003BFEA4EB0902002840F0C4821E4B1B7893
:1050B000002B40F02D8323490978002940F05583C7
:1050C000F92ADED91B4B1B78002B00F0A6821E4A62
:1050D000099938461A4BA146CDE90012174AA0217A
:1050E00012F042FC384603F073FDCAE7D0040020FA
:1050F0000AD7A33D9A99193FCDCC4C3EC0D40100AC
:1051000000000000A80500208C050020A405002058
:105110006F12833A980500200AD7A33C940500201B
:10512000CDCC4C3D90050020CA040020CC040020CA
:10513000C9040020CD040020FCAA0108C0BC01085D
:10514000ECBC0108CB040020F8AA0108AC05002043
:10515000DC0400209C4A9D4913709D4A0B9D1278E7
:1051600023700B70002A00F01D839A4B019380215D
:10517000099B3846984A0093984B12F0F5FB384645
:1051800003F026FD964803F00BFD01230393029BD9
:105190009B1B092B40F2BA81029B0A365A1B08EE70
:1051A000102A1A469B1BB8EE488A092B88BF164660
:1051B00028EE2A8AB4EEEA8AF1EE10FA00F1FD80B8
:1051C000B4EECD8AF1EE10FA3DFE088AB0EE480A40
:1051D000FBF7C6FB0FAB0DAA14A900930EAB8148D9
:1051E00004F0F6F9002800F01D82DBED007AF5EE00
:1051F000006A77EEEB7ADBED00BAB0EEE76AB4EE68
:10520000E66AF1EE10FA07D8ACEEA7FAF4EECF9A00
:10521000F1EE10FA39FE8FFA7BEE4F7A089BF4EE2E
:10522000E79AF1EE10FA79FEA77A002B00F0C2801F
:10523000664B6EEE086A1B78002B0FFEAE6AB4EE6A
:10524000C69AF1EE10FA40F15A8139EE269A89FE9B
:10525000469A3AEE0A0A20EE270AB5EE400AF1EE27
:1052600010FA00F1AC82F1EEC07AB4EEE79A6AEE81
:10527000086AF1EE10FA38EEE66A77FE897A67EE90
:10528000AC7AF4EEC67AF1EE10FA00F1998078EE7D
:10529000A68AF4EEE87AF1EE10FA78FEA78A6CEEB0
:1052A000680A514BB0EE681A10A9B0EE690A4D4871
:1052B000F0EEE07AC3ED007A4C4BC3ED008A04F0C7
:1052C0000FF9002800F0AE81DAF800304BB9484BF6
:1052D0001B68002B40F01F81464B1B780BB9FCF775
:1052E000B3FC04F013FD20B904F016FD002840F0D3
:1052F000648110A804F09CFA58B93F4B1A68092A37
:1053000001D005221A60002041B0BDEC108BBDE831
:10531000F08F08F093F914A904F0D8FA78B9039B38
:1053200033B9364803F088FC334B05221A60EAE7AC
:10533000CDE91400CDE91600314803F07DFCDDED28
:105340000F7A304BF0EEE77A079AD3ED006A67EEFA
:105350008C7AE7EE886AC3ED006A029B9B1AF92BF0
:1053600000F2C68005F0E2FF7BEE6D7AF4EECF7AB4
:10537000F1EE10FA19D8244B9FED247AD3ED007A80
:10538000F0EEE77AF4EEC77AF1EE10FA0DD8B8F144
:10539000000F00F0C880029BA3EB08034F2B00F224
:1053A000078200230393029D28E64FF00008CDF802
:1053B0000C80F8E7B0EE6F9A4BE7B0EE6A8A05E72B
:1053C000F0EE468A6BE700BFD5040020D40400202D
:1053D000E4040020F8AA0108FCBC0108F4BC0108A0
:1053E0003CBD010804D10108A8050020A405002047
:1053F000E80400206F050020BC05002070B80108FB
:105400004CB80108A0050020B00500200AD7233DB4
:10541000DAF800300993FFF71BFCA54B1B78002B33
:1054200040F0A080A34B1B78002B3FF4B0AEFCF7FC
:1054300053FD002800F0B0819E4B0A9A1A70012398
:105440009D4A13709D4B1B78002B40F0CD809C4BE8
:1054500018AF0193099B80219A4A384600939A4BD2
:1054600012F082FA384603F0B3FB08F0E7F8814601
:10547000964803F095FB904B1B78002B3FF487AECA
:10548000934C0B9509E005F051FF0A2008F0DCF879
:10549000894B1B78002B00F07D8108F0CFF8054682
:1054A000FFF7D6FB04F038FCA5EB0902002840F01A
:1054B000DA807F4B1B78002B40F034812178002963
:1054C0007FF448AEF92ADED97C4B1B78002B00F024
:1054D000A280804A099938467B4BA946CDE9001243
:1054E000784A802112F040FA384603F071FBCAE78F
:1054F000029C14A92046FBF7DDFA079432E77FF7F8
:10550000A8AE39EE669A89FE069AA2E6012008F056
:105510009BF8029547E7704B1B78002B7FF4E1AEB8
:10552000FBF7D8FCDDE60023DDF8088003933AE7BB
:10553000FCF7D2FC002800F02F81684B1B78002B71
:1055400058D15F4B099AA021019318A8644B00928F
:10555000644A12F009FA18A803F03AFB0023624AE1
:10556000137024E0FCF7B8FC002800F01581534BC1
:105570001B78002B3CD1524B01938021099B18A82A
:10558000504A0093564B12F0EFF918A803F020FB95
:105590000023474A47491370474A0B701370534A18
:1055A0004B491370524ACAF800300B701360DBF895
:1055B000003001204F4A1360A6E6FBF789F94C4BF7
:1055C00009221A609AE6B9B1DFED4BEA9E464FF028
:1055D000010C4A4BF0EE6EFA9FED49AA9FED49EAA5
:1055E0000593CDF828C0DBE43A4B31E7394B34E57D
:1055F000384BC1E7374BA5E7F7EE00EA42F6E06328
:105600008E469FED41AA9FED3FEA8C46F0EE6EFA82
:1056100005930A91C4E42A4A5CE7294A58E5FFEE5B
:1056200000CA97E4324B06221A606CE6304B072220
:105630001A6068E6FCF750FC284B1B78002B6FD0F3
:10564000244B0193A021099B3846264A0093244B02
:1056500012F08AF9384603F0BBFA00232B4A137084
:10566000214A1370A3E7FCF737FC144B1B78002B7F
:1056700000F09680174B01938021099B3846114A10
:105680000093174B12F070F9384603F0A1FA00238B
:10569000084A09491370064ACAF800301370134AC1
:1056A0000B701370124A1360094A13707FE700BF32
:1056B000D6040020D8040020D5040020E4040020F3
:1056C000FCAA0108FCBC0108ECBC010820BD0108D3
:1056D000D7040020F8AA0108E6040020CD04002029
:1056E000B8BC0108C0BC0108CA040020D4040020D2
:1056F000BC0500208C050020CDCC4C3EC0D4010060
:105700009A99193F000000006666E63FC904002030
:10571000FCF7E2FB00283FD02B4B1B78002B8FD1EE
:105720002A4B8EE7FCF7D8FB002835D0284B1B7896
:10573000002B3BD0274B01938021099B3846264AFA
:105740000093264B12F010F9384603F041FA00237B
:10575000234A24491370244ACAF800301370234A9C
:105760000B701360224A137021E7224A1370224AF9
:105770001370154B1B78BBB1164B0193A021099BED
:1057800038461E4A00931E4B12F0EEF8384603F0DE
:105790001FFAFAE40B9DFAE4144B05221A60B2E5F5
:1057A0000A4B68E7094BE1E4084BE6E7074BC2E721
:1057B000DBF80030134A1360FCF78EFBA4E510F011
:1057C00029FFF0EE407A50E5CD040020FCAA010844
:1057D000E4040020F8AA0108FCBC0108B8BC0108D8
:1057E000D8040020D5040020D6040020BC050020E9
:1057F000D7040020CB040020C9040020C0BC01084D
:10580000F4BC01088C050020014B1878704700BFDC
:105810007A05002038B507F011FF0446FCF7B8FA06
:10582000174B1B78E3B9174840F6B73503F004FA75
:1058300009E0FCF7ADFAC0B9FCF74EFB03460120C6
:10584000BBB107F001FF07F0F9FE001BA842F0D939
:105850000D4803F0F1F90D4B08221A60002038BD05
:105860000B4803F0E9F9012038BD0A4803F0E4F9D8
:10587000F9E7064B1A68092AF0D005221A60EDE70D
:10588000790500208CBD0108ECBD0108BC05002095
:105890005CBD0108BCBD010808B502F05DFD05F066
:1058A0005DFCBDE8084004F0D5B900BF704B2DE9A0
:1058B000F0411E789AB03EB100226E481A701AB0BC
:1058C000BDE8F04105F040BE02F0FAFC6A4F07F077
:1058D000B5FE6A4B0F22804669481A7005F034FE07
:1058E000684803F0A9F907F0A9FEA0F57A7512E05F
:1058F00005F01CFDFBF7EEFA631B00BB3A78002AAB
:1059000040F08480B3F57A7F34D204F005FA68BBA6
:105910000A2007F099FE02F0D9FC80B307F08EFE52
:10592000044602F0F3FC0028E2D002F0C3FC064675
:1059300005F0FCFCFBF7CEFA631B0028DED04D48D7
:1059400005F002FE504803F02BF902F0B3FCE0B181
:10595000484805F0F9FD02F0ADFC01280CBF4B48AA
:105960004B481AB0BDE8F04103F066B9444805F071
:10597000EBFDCDE74748254603F05EF9C5E7002E6D
:1059800067D102F097FC0028E2D1A8F57A753A4E6B
:1059900007F054FE044605F0C9FC631BB3F57A7F9B
:1059A00013D204F0B9F920BBFBF794FA28BB337883
:1059B000002B32D102F0AAFC18B102F07BFC0028C7
:1059C00034D10A2007F040FEE2E702F043FC05462E
:1059D00002F03AFC304A2B466021009002A811F0F8
:1059E000C3FF02A8254603F027F904F095F9002823
:1059F000DAD0234805F0A8FDCAE71E4805F0A4FD4B
:105A0000214803F019F91AB0BDE8F081194805F0F2
:105A10009BFD224803F0C4F8B3E7164805F094FD57
:105A20001E4803F009F91AB0BDE8F081114805F0ED
:105A30008BFD05F0ABFD02F03DFC012813D00228E0
:105A400003D0174803F0F8F8DDE7114803F0F4F845
:105A5000D9E7084805F078FD012E0CBF0B480C482B
:105A600003F0EAF88DE7094803F0E6F8CBE700BF5A
:105A70006E05002054BE0108E5040020C00500208A
:105A800058BE010860BE010898BE010814BE010896
:105A900034BE0108E8BE010804BF0108C0BE010809
:105AA0002CBF0108002918BF002884460CBF012024
:105AB000002039D0002B18BF002A10B5029C0CBF63
:105AC0004FF0010E4FF0000E012C98BF4EF0010E6A
:105AD000BEF1000F00D010BDDFF858E09EF8004086
