:020000040800F2
:1000000000000220D90700082D0800082D0800086C
:100010002D0800082D0800082D0800080000000029
:100020000000000000000000000000002D08000893
:100030002D080008000000002D080008E1AB0008B2
:100040002D0800082D0800082D0800082D080008BC
:100050002D0800082D0800082D0800082D080008AC
:100060002D0800082D0800082D0800082D0800089C
:100070002D0800082D0800082D0800082D0800088C
:100080002D0800082D0800082D0800082D0800087C
:100090002D0800082D0800082D0800082D0800086C
:1000A0002D0800082D0800082D0800082D0800085C
:1000B0002D0800082D0800082D0800082D0800084C
:1000C0002D0800082D0800082D0800082D0800083C
:1000D0002D0800082D0800082D0800082D0800082C
:1000E0002D0800082D080008000000002D08000859
:1000F0002D0800082D0800082D0800082D0800080C
:100100002D0800082D0800082D0800082D080008FB
:100110002D08000889A700082D0800082D080008F0
:100120002D0800082D0800082D0800082D080008DB
:100130002D0800082D0800082D0800082D080008CB
:1001400000000000000000000000000000000000AF
:100150002D0800082D0800082D0800082D080008AB
:100160002D0800082D0800082D0800082D0800089B
:100170002D080008E5AB00082D080008000000006D
:100180002D0800082D0800082D0800082D0800087B
:100190002D0800082D0800082D0800082D0800086B
:1001A0002D0800082D0800082D0800080000000098
:1001B0002D0800082D0800082D0800082D0800084B
:1001C0002D0800082D0800080000000000000000B5
:1001D00000000000000000002D08000800000000E2
:1001E000000000000000000000000000000000000F
:1001F00000000000000000002D0800082D08000885
:100200002D0800082D080008000000002D08000837
:100210002D0800082D0800082D0800082D080008EA
:100220002D080008000000002D0800080000000054
:100230002D0800082D080008000000002D08000807
:100240002D0800082D0800082D0800082D080008BA
:100250002D0800082D0800082D0800082D080008AA
:100260002D0800082D0800082D0800082D0800089A
:100270002D0800082D0800082D08000800000000C7
:100280002D0800082D0800082D0800082D0800087A
:10029000000000002D0800082D08000800000000E4
:1002A000000000002D0800082D0800082D08000897
:1002B0002D0800082D0800082D0800082D0800084A
:0C02C0002D0800082D0800082D0800087B
:1002D00010F8012B11F8013B012A28BF9A42F7D0F0
:1002E000D01A7047034613F8012B002AFBD1181AC5
:1002F000013870470000000000000000000000000E
:1003000001F0FF01102A2BDB10F0070F08D010F8C6
:10031000013B013A8B422DD010F0070F42B3F6D1CA
:10032000F0B441EA012141EA014122F007047FF0E3
:1003300000070023F0E80256083C85EA010586EA3A
:10034000010685FA47F5A3FA87F586FA47F6A5FA76
:1003500087F68EB9EED1F0BC01F0FF0102F0070282
:1003600032B110F8013B013A83EA010313B1F8D12D
:100370000020704701387047002D06BF354603380E
:10038000073815F0010F07D1013015F4807F02BF47
:10039000013015F4C03F0130F0BC0138704700BF98
:1003A00081F0004102E000BF83F0004330B54FEA26
:1003B00041044FEA430594EA050F08BF90EA020F93
:1003C0001FBF54EA000C55EA020C7FEA645C7FEA26
:1003D000655C00F0E2804FEA5454D4EB5555B8BF49
:1003E0006D420CDD2C4480EA020281EA030382EABA
:1003F000000083EA010180EA020281EA0303362D4C
:1004000088BF30BD11F0004F4FEA01314FF4801C1E
:100410004CEA113102D0404261EB410113F0004F30
:100420004FEA03334CEA133302D0524263EB4303E7
:1004300094EA050F00F0A780A4F10104D5F1200E85
:100440000DDB02FA0EFC22FA05F2801841F10001E0
:1004500003FA0EF2801843FA05F359410EE0A5F1B4
:1004600020050EF1200E012A03FA0EFC28BF4CF0E5
:10047000020C43FA05F3C01851EBE37101F000459B
:1004800007D54FF0000EDCF1000C7EEB00006EEBA8
:100490000101B1F5801F1BD3B1F5001F0CD3490832
:1004A0005FEA30004FEA3C0C04F101044FEA445289
:1004B00012F5800F80F09A80BCF1004F08BF5FEA10
:1004C000500C50F1000041EB045141EA050130BDF0
:1004D0005FEA4C0C404141EB0101013C28BFB1F502
:1004E000801FE9D291F0000F04BF01460020B1FA4D
:1004F00081F308BF2033A3F10B03B3F120020CDA20
:100500000C3208DD02F1140CC2F10C0201FA0CF0FD
:1005100021FA02F10CE002F11402D8BFC2F1200C62
:1005200001FA02F120FA0CFCDCBF41EA0C01904018
:10053000E41AA2BF01EB0451294330BD6FEA040461
:100540001F3C1CDA0C340EDC04F11404C4F120024C
:1005500020FA04F001FA02F340EA030021FA04F35E
:1005600045EA030130BDC4F10C04C4F1200220FAB5
:1005700002F001FA04F340EA0300294630BD21FAF3
:1005800004F0294630BD94F0000F83F4801306BFB9
:1005900081F480110134013D4EE77FEA645C18BFAD
:1005A0007FEA655C29D094EA050F08BF90EA020F44
:1005B00005D054EA000C04BF1946104630BD91EA3C
:1005C000030F1EBF0021002030BD5FEA545C05D13F
:1005D0004000494128BF41F0004130BD14F580047E
:1005E0003CBF01F5801130BD01F0004545F0FE41F2
:1005F00041F470014FF0000030BD7FEA645C1ABF27
:10060000194610467FEA655C1CBF0B46024650EA5D
:10061000013406BF52EA033591EA030F41F4002189
:1006200030BD00BF90F0000F04BF0021704730B50F
:100630004FF4806404F132044FF000054FF00001E4
:1006400050E700BF90F0000F04BF0021704730B5A5
:100650004FF4806404F1320410F0004548BF40427A
:100660004FF000013EE700BF42004FEAE2014FEACF
:1006700031014FEA02701FBF12F07F4393F07F4FAA
:1006800081F06051704732F07F4208BF704793F0AD
:100690007F4F04BF41F40021704730B54FF46074C0
:1006A00001F0004521F000411CE700BF50EA0102C3
:1006B00008BF704730B54FF000050AE050EA01026C
:1006C00008BF704730B511F0004502D5404261EBDC
:1006D00041014FF4806404F132045FEA915C3FF41D
:1006E000D8AE4FF003025FEADC0C18BF03325FEABA
:1006F000DC0C18BF033202EBDC02C2F1200300FA6B
:1007000003FC20FA02F001FA03FE40EA0E0021FA8F
:1007100002F11444BDE600BF53B94AB9002908BF2D
:1007200000281CBF4FF0FF314FF0FF3000F00CB835
:10073000ADF1080C6DE904CE1BF0E6FADDF804E03B
:10074000DDE9022304B07047704700BF0348044B43
:10075000834202D0034B03B118477047CC020020FC
:10076000CC020020000000000548064B1B1AD90FE0
:1007700001EBA301491002D0034B03B118477047A6
:10078000CC020020CC0200200000000010B5064C76
:10079000237843B9FFF7DAFF044B13B10448AFF3F2
:1007A00000800123237010BDE00200200000000043
:1007B00028C0010808B5054B1BB105490548AFF332
:1007C0000080BDE80840FFF7CFBF00BF0000000079
:1007D000E402002028C00108DFF838D000F028F833
:1007E000002103E00C4B5B58435004310B480C4B89
:1007F00042189A42F6D30B4A02E0002342F8043B27
:10080000094B9A42F9D30EF0E3F918F0D5FD06F042
:100810004FFF704700000220683A040800000020E3
:10082000CC020020E0020020C06C0120FEE70000A6
:10083000044AD36843F00203D36053689B04FCD599
:10084000704700BF00480258F7EE007ADFED1A5AF1
:10085000F0EE084A9FED196A20EE004A9FED183A23
:1008600077EEC07ADFED173A60EEA55ABEEE007A59
:1008700067EEA76A67EEA47A20EE045A66EEA46AD1
:1008800067EE847A20EE866A26EE800A27EE877A63
:1008900067EEA57A60EEA30ADFED0B3AA0EE037ACD
:1008A000E0EE067AA5EE237AE5EE207A80ED007A76
:1008B000C1ED007A704700BF9A99193FCDCCCC3E6C
:1008C0009A9919BEB7D1303F0AD77BC0164A012189
:1008D0000023164810B51170154C164A037013709A
:1008E0002370154A15481649164C136003600B70A7
:1008F0000EF02CFA144AFA38237810604BB11348E2
:1009000009F020FD237853B11148BDE8104009F0EB
:10091000E5BC104809F016FD2378002BF4D10E48F1
:10092000BDE8104009F0DABC6C0500207A05002013
:100930007905002078050020FC04002074050020C3
:100940006F0500206D0500206805002098C0010893
:10095000E0C00108BCC00108FCC0010800B58BB0B4
:1009600000234FF0000C03AA04A807A98DED010A8B
:1009700006930993CDF80CC0CDE90433CDE90733D4
:100980000DF05EFFDDED087A1F4B9DED077AF1EE6D
:10099000677ADDED066A0398B1EE477A1B49F1EEFE
:1009A000666A1B4AD3ED015A086093ED006A77EE40
:1009B000E57A92ED005A174B37EE467A76EEC56A25
:1009C000154993ED016A154A77EEC67AD3ED005AC0
:1009D000C1ED006A9FED125A37EE657AD1ED004AFB
:1009E000D2ED006AA7EE856A9DED010AE7EE055A91
:1009F000F0EE667AE4EE807A83ED016AC3ED005A88
:100A0000C2ED007A0BB000BD840500209C050020DB
:100A1000B40500207C050020B0050020AC050020B6
:100A2000CDCC4C3E10B582B004460EF08FF9144B7D
:100A30001449154A0094DFF868C00978126893EDEC
:100A4000000A124BDCED000A93ED001ADFF854C0E7
:100A50000F4BDCED001A93ED002ADFF84CC00D4B74
:100A6000DCED002A93ED003ADFF840C00A4BDCEDE4
:100A7000003A93ED004A094B0BF07CFC02B010BD2C
:100A8000B0050020C0050020BC050020A8050020FE
:100A9000A005002098050020900500201CF2010808
:100AA000AC050020A40500209C0500209405002032
:100AB00000B5DFF86CC00B46DFF868E083B0174A7A
:100AC0009EF8001012689CED000ADFF85CC0DCEDB7
:100AD000000ADFF858C09CED001ADFF854C0DCEDC6
:100AE000001ADFF850C09CED002ADFF84CC0DCEDA6
:100AF000002ADFF848C09CED003ADFF844C0DCED86
:100B0000003ADFF840C09CED004A4FF0000CCDF8F1
:100B100000C00BF02FFC03B000BD00BFBC050020DF
:100B2000B0050020C0050020AC050020A80500206D
:100B3000A4050020A00500209C05002098050020A9
:100B4000940500209005002070B5CCB003468021AC
:100B5000494A0CA818F090FA48490CA818F064FB10
:100B6000002872D00346002406AD01E0062C0BD00D
:100B700045F8043B00204149013418F055FB034679
:100B80000028F3D1062C60D13D490698FFF7A0FB61
:100B900000285AD13B490798FFF79AFB002854D107
:100BA00039490898FFF794FB00284ED137490A9835
:100BB000FFF78EFB002848D1099C0A2205A9204690
:100BC00018F08CF922780546002A47D0059B1B783F
:100BD000002B43D1012841D80B9E04A9304618F0C0
:100BE000BFF83378002B40D0049B1B78002B3CD1FE
:100BF000F0EEC07A9FED267AF4EE477AF1EE10FA25
:100C000033D8B5EEC00AF1EE10FA2ED4DFED217A1A
:100C1000B4EEE70AF1EE10FA27DCE8B28DED030A34
:100C200009F0F6FA9DED030A2B461B4AB7EEC00AFF
:100C300080212CA88DED000B18F01EFA2CA809F0CD
:100C40004DFB2CA809F032FB05E0144809F046FBE7
:100C5000124809F02BFB01204CB070BD104809F080
:100C60003DFB0F4809F022FBF5E70E4809F036FB83
:100C70000C4809F01BFBEEE718C101081CC1010874
:100C800044C1010850C1010854C101085CC10108F8
:100C9000FFFF7F7F00003443B8C1010820C1010875
:100CA00068C1010890C101082DE9F041B2B00646C3
:100CB0000F469046A021384B384A0AA818F0DCF9B4
:100CC00037490AA818F0B0FA90B10346002401ADE4
:100CD00045F8043F00203249013418F0A5FA0346D4
:100CE000002855D0082CF3D1029B1A78522A03D041
:100CF000002032B0BDE8F0815A784B2AF8D19B78B9
:100D0000002BF5D127490398FFF7E2FA0028EFD12D
:100D100025490498FFF7DCFA0028E9D13146059807
:100D2000FFF7D6FA0028E3D120490698FFF7D0FA5A
:100D30000028DDD11E490898FFF7CAFA0028D7D14C
:100D4000099C1C492046FFF7C3FA28B11A492046DE
:100D5000FFF7BEFA0028CBD1079D0A2201A9284639
:100D600018F0BCF82B780246002BC1D0019B1B78F1
:100D7000002BBDD10028BBD00E4920463A60FFF7BA
:100D8000A7FAB0FA80F301205B0988F80030B0E7D9
:100D9000082CADD1A8E700BF8003002018C10108CE
:100DA0001CC10108E8C10108ECC10108FCC101082F
:100DB00000C2010808C201080CC201082DE9F04177
:100DC000AAB006460F4690468021384B384A0AA8FA
:100DD00018F052F937490AA818F026FA90B10346DC
:100DE000002401AD45F8043F00203249013418F0D9
:100DF0001BFA0346002855D0082CF3D1029B1A7821
:100E0000522A03D000202AB0BDE8F0815A784B2A3C
:100E1000F8D19B78002BF5D127490398FFF758FAB2
:100E20000028EFD125490498FFF752FA0028E9D1AC
:100E300031460598FFF74CFA0028E3D1204906987F
:100E4000FFF746FA0028DDD11E490898FFF740FA5F
:100E50000028D7D1099C1C492046FFF739FA28B150
:100E60001A492046FFF734FA0028CBD1079D0A2201
:100E700001A9284618F032F82B780246002BC1D081
:100E8000019B1B78002BBDD10028BBD00E4920460A
:100E90003A60FFF71DFAB0FA80F301205B0988F889
:100EA0000030B0E7082CADD1A8E700BFFC0200205D
:100EB00018C101081CC1010814C201081CC20108A4
:100EC000FCC1010800C2010808C201080CC20108E7
:100ED0002DE9F04FDFB0602106A80DF097F900284A
:100EE00000F014818C4B06461978002900F05A83D3
:100EF0000DF11809894C8A4D09EB060899F8003064
:100F000026680A2B18BF0D2B0CBF0127002740F0C5
:100F10000583002383498248AB5518F0EBF98246DC
:100F2000002800F00683AA4509D05046FFF7DAF9F9
:100F3000064651462846721C18F042F92660002EDB
:100F400000F0E482784B1B780F2B00F000832B46D7
:100F5000764AA02136A818F08FF8754936A818F0FF
:100F600063F90346002800F015811EAE4FF0000A19
:100F7000B3464BF8043B00206D490AF1010A18F012
:100F800053F90346002800F00181BAF10C0FF0D1AB
:100F900033681A78522A40F0FD805A784B2A40F084
:100FA000F9809B78002B40F0F58062497068FFF76C
:100FB0008FF9002840F0EE805F49B068FFF788F9AC
:100FC000002840F0E7805D49F068FFF781F90028CC
:100FD00040F0E0805A493069FFF77AF9002840F084
:100FE000D9805849B069FFF773F9002840F0D280E2
:100FF0005549306AFFF76CF9002840F0CB8053491F
:10100000B06AFFF765F9002840F0C480D6F814B044
:101010000A2205A9584617F061FF9BF8003002909C
:10102000002B00F0B780059B93F800B0BBF1000FD8
:1010300040F0B080002800F0AD80F36944491846C4
:101040000393FFF745F9002800F07883039841499E
:10105000FFF73EF9002840F09D80736A0A2205A937
:101060001846039317F03AFF039B1B78002B00F000
:101070009180059B1B78002B40F08C80B0F5E17FC0
:1010800040F08880F66A0A2205A9304617F026FF4C
:101090003378002B7ED0059B1B78002B7AD1B0F5DE
:1010A000B47F77D12C4B1A782C4B1878024340F040
:1010B00013832B4A2B4812680068024340F00C83CC
:1010C000012002991870284B83F800B0274B196053
:1010D000274B1A70274B1A70274B1A70274B1A7020
:1010E000274B1A70BBF1000F00F02E831849029BAA
:1010F00036A8244A0091802117F0BEFF36A809F0D7
:10110000EDF8214809F0D2F8002323600027384683
:101110005FB0BDE8F08F00BFC8040020C404002009
:101120002404002070C20108C005002018C1010875
:101130001CC1010814C201081CC20108A0C2010898
:10114000FCC1010800C20108A8C201085CC1010875
:1011500008C201080CC20108F9040020E5040020BF
:10116000E8040020DC040020E4040020E004002067
:10117000D8040020D7040020D6040020D504002085
:10118000D4040020CCC20108F4C20108BAF10C0F4B
:101190003FF4FEAE2368002B00F0B8812B46814A55
:1011A000A02136A817F068FF7F4936A818F03CF850
:1011B0000346002839D04FF0000A0DF1780B4BF8A8
:1011C000043B002078490AF1010A18F02DF8034683
:1011D000002800F0B781BAF10C0FF0D11E9B1A78ED
:1011E000522A22D15A784B2A1FD19B78EBB96F49EA
:1011F0001F98FFF76DF8C0B96D492098FFF768F8A0
:1012000098B96C492198FFF763F870B96A49229838
:10121000FFF75EF848B969492498FFF759F820B9F3
:10122000269B1A784C2A00F0F3812368002B00F0EB
:101230006D812B465B4AA02136A817F01DFF5A4945
:1012400036A81EAE17F0F0FF0346002800F0D0804D
:101250004FF0000AB3464BF8043B002052490AF114
:10126000010A17F0E1FF0346002800F0BD80BAF143
:101270000A0FF0D133681A78522A40F0B9805A78B0
:101280004B2A40F0B5809B78002B40F0B180474955
:101290007068FFF71DF8002840F0AA804449B06844
:1012A000FFF716F8002840F0A3804549F068FFF7E3
:1012B0000FF8002840F09C803F493069FFF708F89C
:1012C000002840F095803D49B069FFF701F80028FB
:1012D00040F08E803B49306AFEF7FAFF002840F06C
:1012E0008780D6F81CB038495846FEF7F1FF28B180
:1012F00036495846FEF7ECFF002879D1736905A9F5
:101300000A221846029317F0E9FD029B82461B78D9
:10131000002B6DD0059B05A91B78002B68D10028F8
:1013200066D0736A0A221846039317F0D7FD039B11
:1013300002901B78002B5BD0059B1B78002B57D1AC
:10134000431E062B54D858461F49FEF7C1FF204BB9
:10135000B0FA80F01A784009002A49D11D4A126873
:10136000524545D11C4A1278824241D1012119705F
:101370001A4B0299C3F800A0194B1960002A00F01B
:10138000E581114A029B6021009236A801935346E1
:10139000144A17F071FE36A808F0A0FF002323605E
:1013A000B5E600BF18C101081CC1010814C201083C
:1013B00024C20108A0C20108FCC1010800C2010842
:1013C000B8C30108C0C3010808C201080CC2010863
:1013D000F9040020E8040020F8040020F4040020B0
:1013E000EC040020C8C30108BAF10A0F3FF442AF71
:1013F0002B46734AA02136A817F03EFE714936A845
:1014000017F012FF0346002865D00DF1740A00277B
:101410004AF8043F00206B49013717F005FF0346E7
:10142000002856D0082FF3D133681A78522A52D1A7
:101430005A784B2A4FD19B78002B4CD16249706867
:10144000FEF746FF002846D16049B068FEF740FF2E
:10145000002840D15E49F068FEF73AFF00283AD1F3
:101460005C493069FEF734FF002834D15A49B0692D
:10147000FEF72EFF78BBD6F81CA058495046FEF761
:1014800027FF20B156495046FEF722FF18BBD6F879
:1014900014B00A2205A9584617F020FD9BF8003029
:1014A0000746C3B1059B1B78ABB9A0B150464B4969
:1014B000FEF70EFF4B4BB0FA80F01B684009BB42B1
:1014C00009D1494B1B78834205D1484B01221A7040
:1014D0001CE0082FA8D04649284617F00BFF00282B
:1014E0005ED0444F3B46444A6021304617F0C4FD6D
:1014F000304608F0DBFE26683B46404A602136A8AD
:10150000009617F0B9FD36A808F0E8FE0023236026
:1015100009F10109C8457FF4F1ACF7E5721C9F2A77
:1015200002D82260AB55F3E73548276008F0D6FEB5
:10153000EEE72F49284617F0DDFE824600287FF4AB
:10154000F2ACFCE4BAF10C0F7FF46FAE46E62D4925
:101550004C23DFF8B8E001F10C0B0A78A3F1610C21
:10156000A3F120060131A2F12000A2F1610A5FFA85
:101570008CFCF6B2C0B2BCF1190F98BF3346BAF179
:10158000190F98BF02469A427FF4E1AC8B451EF8D2
:10159000013FE2D11B48FFF7D7FA00232360B5E5EE
:1015A0000A4F9FE701220F201A701D220AF05CFFEC
:1015B000002800F08D80144808F078FE98E400BF01
:1015C00018C101081CC1010814C2010824C2010885
:1015D000F8C30108FCC1010800C2010808C20108E3
:1015E0000CC20108E8040020F8040020E7040020F1
:1015F00080C201081CC2010800C4010820C40108FF
:1016000048C40108240400202CC2010890C201082B
:101610005A78312A7FF409AE9B78002B7FF405AE0F
:10162000289B1A784C2A7FF400AE5A78322A7FF42D
:10163000FCAD9B78002B7FF4F8AD239B0A2205A913
:101640001846029317F04AFC029B83461B78002B36
:101650003FF4EBAD059B1B78002B7FF4E6AD002833
:101660003FF4E3AD279B02935B78002B7FF4DDAD65
:10167000299B93F801A00393BAF1000F7FF4D5AD35
:1016800033492598FEF724FE00285AD02598314981
:10169000FEF71EFE00287FF4C8AD029B1E78A6F15F
:1016A0004103032B3FF6C1AD039B1878A0F1410322
:1016B000032B3FF6BAAD86423FF4B7AD264B1978FF
:1016C00011B92649096859B1254808F007FE1DE7F8
:1016D000244808F0EBFD0BE4234808F0FFFD13E578
:1016E00001221A701E22214B83F800A0204BC3F860
:1016F00000B0204B1E70204B18700F201F4B19603C
:101700000AF0B2FEA0B11E4808F0D0FDBAF1000FF9
:1017100012D00F4A5B466021009236A8194A17F092
:10172000ABFC36A808F0DAFD174808F0BFFD35E637
:10173000164808F0BBFDE9E7064AEBE74FF0010B5E
:101740008BE44FF0010AA8E70249D0E4014A19E608
:1017500008C201080CC20108F9040020E8040020B6
:1017600014C301084CC20108B4C20108F8040020E7
:10177000F4040020F1040020F0040020EC04002018
:101780002CC3010870C3010898C301084CC30108A9
:101790005F4BB9EE007AD3ED007AF4EEC77AF1EE42
:1017A00010FA00F19F80B1EE007ADFED5A6AF4EE94
:1017B000C77AF1EE10FA37FE277AF0EEC77AF4EE28
:1017C000E67AF1EE10FA40F28A80B5EEC07AF1EED8
:1017D00010FA40F3998037EE667AF9EE007AD3ED8D
:1017E000016AF4EEE76AF1EE10FA00F18480F1EE9E
:1017F000007A9FED486AF4EEE76AF1EE10FA77FEA0
:10180000A67AF0EEE76AF4EEC66AF1EE10FA75D940
:10181000F5EEC07AF1EE10FA73DD77EEC67A61EE7E
:10182000A75A90ED006A61EE277AD0ED016A9FED2C
:101830003A5AE1EE075AE1EEC77AA5EE826AE7EE80
:10184000826A76EE407AF4EEC57AF1EE10FA4FD461
:101850009FED327A9FED2F6AF4EEC77AF1EE10FA1F
:1018600037FE277A27EE066A76EEE07A9FED2A7A2F
:10187000F4EEC77AF1EE10FA37D49FED287ADFED57
:10188000256AF4EEC77AF1EE10FA77FE277A67EE52
:10189000A67A30EE067ADFED226AB0EEC00A70EE6C
:1018A000A77A80ED007AB4EEE60AC0ED017AF1EE97
:1018B00010FA13D8F0EEE00AF4EEE60AF1EE10FAB0
:1018C0000CD8184BD3ED007AF0EEE77AF4EEE67A16
:1018D000F1EE10FA02D800230360436070479FEDD9
:1018E000127A7AE79FED117A77E7DFED117AD0E788
:1018F0009FED0F6AB8E7DFED0D7A90E7DFED0A7A2A
:101900008DE777EE867A8AE737EE267A65E700BFBD
:101910007C0500200AD7A33D9A9919BE9A99193ED1
:101920000AD7A33CA80500200000000048E17AC0C7
:10193000A69B44BCF8B50B780E460746F3B10138B8
:101940000D4602E015F8013FC3B110F8012FA3F1D5
:101950006101A3F1200EA2F1200CA2F16104C9B231
:101960005FFA8EFE5FFA8CFC192998BF7346192C1A
:1019700098BF62469A42E5D00020F8BD3046FEF797
:10198000B1FC385C2C2818BF00280CBF01200020B7
:10199000F8BD00BF2DE9F047D4B0802104A80CF0B9
:1019A00035FC28B304AC464DDFF8448100272618E7
:1019B000DFF8409107E0501C9F281CD8286008F8E9
:1019C0000230A64214D014F8013B2A680D2B06D031
:1019D000A3F10A01B1FA81F149090029EBD008F815
:1019E000027012B1D9F800303BB9A6422F60EAD19B
:1019F00054B0BDE8F0872960E3E732480DF10B02EF
:101A000003A9FFF751F920B1039BD9F800209342B5
:101A100027D00DF10B0203A92B48FFF745F920B1A0
:101A2000039BD9F8002093422CD00DF10B0203A99F
:101A30002648FFF739F90028D7D0039BD9F80020B2
:101A40009342D2D122499DF80B2009788A42CCD109
:101A5000204901200870002A2FD01F4A00921B4AFB
:101A60001DE01B4A9DF80B1012789142D1D11B4901
:101A7000097811B91A4901200870D2B1164A0092AA
:101A8000104A0CE0124A11789DF80B208A42CCD102
:101A900014490120087072B10F4A00920A4A01925B
:101AA000C021114A24A817F0E7FA24A808F016FC70
:101AB0009BE70E4AE3E70D4AEFE70C4ACEE700BF8B
:101AC0002004002074C40108B4C40108F8C301084C
:101AD000CD040020CA04002008C20108C904002067
:101AE000CC040020CB0400207CC401080CC20108F7
:101AF00080030020D00400202DE9F0410446013885
:101B0000504E522304F11E08054615F8012FA3F18B
:101B1000610EA3F1200CA2F12001A2F161075FFA8E
:101B20008EFE5FFA8CFCC9B2BEF1190F98BF6346F6
:101B3000192F98BF0A469A420DD1454516F8013F24
:101B4000E3D101234049414A0B7041481370BDE87D
:101B5000F04108F0ABBB3F4E04F11008054652239C
:101B600015F8012FA3F1610EA3F1200CA2F12001C1
:101B7000A2F161075FFA8EFE5FFA8CFCC9B2BEF17A
:101B8000190F98BF6346192F98BF0A469A420BD186
:101B9000454516F8013FE3D12F4B00222F481A701C
:101BA000BDE8F04108F082BB2D4F04F10F08064656
:101BB000522316F8012FA3F1610CA3F12005A2F125
:101BC0002001A2F1610E5FFA8CFCEDB2C9B2BCF14A
:101BD000190F98BF2B46BEF1190F98BF0A469A42BB
:101BE00008D1B04517F8013FE3D11E48BDE8F041E8
:101BF00008F05CBB1C4E0B34522310F8012FA3F1EC
:101C0000610CA3F12005A2F12001A2F161075FFAA6
:101C10008CFCEDB2C9B2BCF1190F98BF2B46192F3D
:101C200098BF0A469A420BD1A04216F8013FE4D170
:101C3000064B01220D481A70BDE8F04108F036BB92
:101C4000BDE8F081BCC40108790500207A050020B8
:101C500044C501086CC501086C05002018C50108C1
:101C600030C50108F0C4010808C50108DCC401083A
:101C70002DE9F04790B00DF069F8404B1B7823B97F
:101C80003F4A1368C31AF92B66D8402168460CF006
:101C9000BDFAF0B16C463B4E3B4D271806E0501C98
:101CA0005F2819D83060AB54BC4212D014F8013B05
:101CB00032680D2B06D0A3F10A01B1FA81F149096E
:101CC0000029ECD00023AB545AB90023BC42336046
:101CD000ECD110B0BDE8F0872C48316008F032FB41
:101CE000E2E72B4808F0E2FA284608F0DFFA294834
:101CF00008F0DCFA284B1A780F2A06D01B78072B3D
:101D000003D02846FFF7F8FEDFE71F494C23DFF832
:101D1000A48001F10C0A0A78A3F1610EA3F120005E
:101D20000131A2F1200CA2F161095FFA8EFEC0B26E
:101D30005FFA8CFCBEF1190F98BF0346B9F1190F79
:101D400098BF62469A42DCD18A4518F8013FE2D139
:101D50000D48FEF7F9FEB8E71049114B10600A78FC
:101D60001B7822B933B10F4808F0B8FA8DE71BB1E0
:101D70000D48F9E70D48F7E70D48F5E7780500202D
:101D800068050020FC04002000050020C0C50108F3
:101D9000B0C50108BCC50108C00500206C050020C5
:101DA0006D05002080C50108E0C0010898C5010844
:101DB000FCC0010890C2010830B59FB00CF0C6FF0E
:101DC000294B04461B78E3B12849294B0A78EAB12C
:101DD0002849294D0A68A21AB2F5967F2AD2274BC4
:101DE0001B6843B9264B1B68002B36D1254B1B784B
:101DF0000BB9FFF73DFF2878003818BF01201FB04E
:101E000030BD1A49204B0A78002AE1D101201A4D31
:101E100005930870A4F5967016492A7008601B484F
:101E2000049108F08FFADDE904130A68A21AB2F5EA
:101E3000967FD4D30C604FF4167240F29D1106A821
:101E4000CDE9012140F28A21114A0091602117F069
:101E500013F906A808F042FAC1E70E4B1B78002BD5
:101E6000C9D1FFF735F8C6E76D05002078050020D9
:101E700008C201087405002079050020DC04002058
:101E8000E80400206F0500200CC20108E4C5010829
:101E900010C60108E6040020144B1B6810B5044668
:101EA00082B03BB9124B1B688BB9124B1B780BB934
:101EB000FFF7DEFE09F0B2FA18B9019009F0B4FAA2
:101EC00060B9204602B0BDE8104009F039B80A4BAD
:101ED0001B78002BEED1FEF7FBFFEBE7FEF7F6FCDD
:101EE000064A09210198116002B010BDDC040020EF
:101EF000E80400206F050020E6040020BC05002057
:101F0000154B1B6800B583B03BB9144B1B68A3B9D4
:101F1000134B1B780BB9FFF7ABFE09F07FFA18B92A
:101F2000019009F081FA78B90CF010FF08F078FF01
:101F300003B05DF804EB09F033B80A4B1B78002BB3
:101F4000EBD1FEF7C5FFE8E7FEF7C0FC064A092122
:101F50000198116003B000BDDC040020E8040020FB
:101F60006F050020E6040020BC050020F8B50E46F1
:101F7000174604460CF0EAFE0546FFF71DFF154B19
:101F80001B78D3B9304608F0DDF909E0FFF714FFFC
:101F900098B9FFF7B5FF034601209BB10CF0DCFEBA
:101FA0000CF0D4FE401BA042F0D30B4808F0CAF955
:101FB0000A4B08221A600020F8BD384608F0C2F922
:101FC0000120F8BD054B1A68092AF4D005221A60D1
:101FD000F1E700BF790500204CC60108BC050020D0
:101FE0002DE9F04FADF54B7D82460CF0AFFEA74BCF
:101FF00005901A6812F1010900F0C5814A46DFF820
:10200000E0B240F6B8381A609BF80030059A002B11
:102010009F4BA2F1C801A2F10A021B7808BF4FF43E
:10202000E16807910692002B00F0AB81994C9A4928
:102030005046FEF74DF94EF6602347F230524021EC
:10204000CDE900940024A04208BF1A46934B1AA879
:102050001C70934B09921C705346924A17F00CF86F
:102060005346914A40212AA8CDF8009017F004F871
:1020700053468E4A40213AA8CDF8009016F0FCFF56
:1020800053468B4A40214AA8CDF8009016F0F4FF41
:102090005346884A40215AA8CDF8009016F0ECFF2C
:1020A0005346854A40216AA8CDF8009016F0E4FF17
:1020B0005346824A40217AA8CDF8009016F0DCFF02
:1020C00053467F4A6021B2A8CDF8009016F0D4FFA5
:1020D000B2A808F037F90CF039FE059B05460494C8
:1020E0000893069BCDF80C90EB1A092B40D8079B60
:1020F000EB1AC72B46D800270DF128094021484686
:102100000CF084F800B309EB00064D46204609E0C8
:10211000421C5F2A44D80DEB0004104684F8683254
:10212000B54210D015F8013B0D2B01D00A2BEFD191
:102130000DEB0003002283F86822002834D1B54259
:102140004FF00000EED104460CF000FE002F40F0EE
:10215000F880059BC01A404580F0348101200CF0C6
:10216000FBFD0CF0F3FD069B0546EB1A092BBED9CF
:10217000FFF7C6FE002800F06881079B0695EB1A62
:10218000C72BB8D91AA808F0A9F853464D4A6021C0
:10219000B2A816F071FFB2A808F088F80795AAE770
:1021A000494808F0CFF8CAE7484808F07FF89AA8ED
:1021B00008F07CF8464808F079F89AA8FFF79CFCEC
:1021C00040F6B8339BF800203AA943459AA838BF97
:1021D0004346002A18BF9846FFF7ACFB0446002888
:1021E00000F08080002F00F0A880039B6021394A16
:1021F000B2A80093534616F03FFFB2A808F0A2F829
:102200004AA99AA8FFF796FB002872D17AA99AA842
:10221000FFF790FB0746002840F0B8806AA99AA80B
:10222000FFF788FB80B142F6E06398450AD0039B34
:102230006021294AB2A80093534616F01DFFB2A8A8
:1022400008F080F842F6E068DCB19AA85AA9FFF7D6
:1022500071FB08B9274663E70CF078FD039BA0F1FA
:10226000C8041E4A6021009305905346B2A8079403
:1022700016F002FFB2A808F065F840F6B83800235F
:102280000493B54200F0948000204BE764050020E1
:102290006D05002008C2010874C601087105002000
:1022A0007005002080C60108A0C60108B8C6010854
:1022B000D0C60108E8C6010800C7010818C7010810
:1022C00030C70108BCC70108C4C80108B0C501086F
:1022D000BCC50108D4C701087CC8010898C801081A
:1022E0007A0500204AA99AA83C46FFF723FB00285C
:1022F0008CD059495046DDF80C90FDF7E9FF0028D5
:102300005AD156499AA816F0F5FF011E18BF0121AF
:10231000534C5346534AB2A8CDF800902170602127
:1023200016F0AAFEB2A808F00DF82378002B45D1CC
:1023300001200DF54B7DBDE8F08F0CF007FD0490FA
:1023400053E701200CF008FD0CF000FD049B099AF6
:102350000546C31A93424CD2069BEB1A092B0AD8A6
:10236000089BEB1AB3F57A7FFFF4C8AE2AA807F0F2
:10237000B5FF0895C2E6FFF7C3FD002865D00695B6
:10238000EEE7394C53E60122914638E6DDF80C9031
:102390005346364A6021B2A8CDF8009016F06CFE84
:1023A000B2A807F0CFFF324B0A221A600020C0E724
:1023B00000240CF0CBFCCCE60021A9E72D4807F067
:1023C000C1FFB5E7DDF80C9053462B4A6021B2A857
:1023D000CDF8009016F050FEB2A807F0B3FF002130
:1023E0000122234B8BF800101D490A7008221A6045
:1023F000DCE7DDF80C905346204A6021B2A8CDF806
:10240000009016F039FEB2A807F09CFF53461C4A14
:1024100040218AA8CDF8009016F02EFE8AA807F079
:102420005DFF8AA807F05AFF5346164A6021B2A8FA
:10243000CDF8009016F020FEB2A807F083FF01232C
:10244000074A1370104A137072E7094B1A68092A79
:10245000ACD005221A60A9E774C60108ECC70108D0
:102460007105002000C801080CC2010858C8010805
:10247000BC0500201CC80108E0C801084CC70108C1
:1024800070C7010888C70108700500202DE9F04FCA
:10249000ADF5617D0C4607900CF058FCA54B0C90F7
:1024A0001A6812F1010800F096814246DFF8C8A2CE
:1024B00040F6B8371A609AF800209F4B002A0C9A11
:1024C0001B78A2F1C801A2F10A0208BF4FF4E1672C
:1024D0000A910992002B00F07B81984B0D93002C00
:1024E00000F04C810D9BC0A8954A802100930223E7
:1024F0000F900193434616F0BFFD38A84346914A1A
:102500006021049016F0B8FD50A843468E4A602121
:10251000059016F0B1FD68A843468C4A60210690EC
:1025200016F0AAFD20A84346894A60210E9016F0B5
:10253000A3FD884B0893079B8021874AA0A802939C
:102540000D9BCDE90083089B16F096FDA0A807F02F
:10255000F9FE0CF0FBFB002304461D460B93099B80
:10256000E31A092B3DD80A9BE31AC72B43D810AEB8
:10257000402130460BF04AFE8346002800F044819B
:102580004FF000090024284608E0421C7F2A45D865
:1025900080A90B54104601345C450DD2335D0D2BE0
:1025A00001D00A2BF1D1002380AA1354002839D17D
:1025B000013400205C45F1D305460CF0C7FBB9F1AE
:1025C000000F7ED10C9BC01A874240F2248101206B
:1025D0000CF0C2FB0CF0BAFB099B0446E31A092B72
:1025E000C1D9FFF78DFC002800F03F810A9B0994B8
:1025F000E31AC72BBBD90F9807F070FE079B574A09
:1026000080210293A0A80D9BCDE90083089B16F0C2
:1026100033FDA0A807F04AFE0A94A8E7504807F047
:1026200091FEC5E74F4807F041FE80A807F03EFE47
:102630004D4807F03BFE80A8FFF75EFA40F6B8333E
:102640009AF8002080A80499002A18BF1F46FFF7B7
:1026500071F9054678B1B9F1000F2ED0079B8021A2
:10266000424AA0A8A946CDE90083089B16F004FDC4
:10267000A0A807F067FE059980A8FFF75BF900287E
:1026800040F0AC8080A80699FFF754F9002882D06A
:102690000799A0A8089B364ACDE90081802116F051
:1026A000EBFCA0A807F04EFE324B0A221A60002570
:1026B00028460DF5617DBDE8F08F0CF047FB0B90CF
:1026C000CCE7012047F22F540CF046FB0CF03EFB08
:1026D00083460B9B099AABEB0303ABEB0202A342CD
:1026E00000F2B080092A1CD80A9BABEB0303B3F5B8
:1026F0007A7F10D2402130460BF088FD83460028B7
:102700007FF440AF0CF022FB01200CF025FB0CF015
:102710001DFB8346DDE70E9807F0E0FDCDF828B0FD
:10272000E8E7FFF7EDFB002800F09F80CDF824B02C
:10273000DAE700BF640500206D05002008C201082B
:1027400018C9010850C901087CC90108A8C90108B5
:10275000CCC901080CC901086CCA0108DCCA01080F
:10276000A8CB0108B0C50108BCC5010818CB0108F9
:1027700078CB0108BC0500207A050020079BC0A883
:102780003E4A802101930D9B0F900093434616F023
:1027900073FC38A843463A4A6021049016F06CFC5A
:1027A00050A84346374A6021059016F065FC68A89A
:1027B0004346354A6021069016F05EFC20A8434649
:1027C000324A60210E9016F057FC314B0893B2E666
:1027D000304B0D9383E60122904667E6079B054642
:1027E0002D49002001932D4A089BCDF800800870E8
:1027F0008021A0A816F040FCA0A807F0A3FD284661
:102800000DF5617DBDE8F08F0CF0A0FA0C9BC31AAA
:10281000BB42FFF4DCAEDDE907238021A0A80192D2
:10282000CDF800801E4A16F027FCA0A807F08AFD0C
:10283000194A012100201B4B117008228AF8000060
:102840001A6034E70799A0A8089B174ACDE90081D0
:10285000802116F011FCA0A807F074FD0E4901209C
:10286000104B082208701A6021E70E4B1A68092ADB
:102870003FF41DAF05221A6019E700BFF0C9010837
:1028800024CA010848CA0108A8C90108CCC901081E
:1028900004C901080CC201087105002048CB0108D9
:1028A000D0CB0108BC050020A8CA01082DE9F04FD3
:1028B000ADF5077D83460CF049FAA34B05901A68E5
:1028C00012F1010A00F0DE805246DFF8EC8240F699
:1028D000B8361A6098F80030059A002B9B4BA2F18D
:1028E000C801A2F10A021B7808BF4FF4E166039108
:1028F0000492002B00F0C480954B0027954A40219C
:1029000016A8CDE900A3944B1F705B4616F0B4FBEC
:102910005B46924A402126A8CDF800A016F0ACFBF9
:102920005B468F4A402136A8CDF800A016F0A4FBE4
:102930005B468C4A402146A8CDF800A016F09CFBCF
:102940005B46894A60216EA8CDF800A016F094FB82
:102950006EA807F0F7FC0CF0F9F9049B0446C31AC3
:10296000092B76D8039BE31AC72B7BD8402106A8F6
:102970000BF04CFC00285BD006AC251809E07A1C53
:102980005F2A5FD86F4487F8583117460134AC424C
:102990004ED023780D2B08D0A3F10A09B9FA89F992
:1029A0004FEA5919B9F1000FE9D04FF000090DEBCA
:1029B000070383F85891002FE8D06C4807F076FCA5
:1029C00056A807F073FC6A4807F070FC56A8FFF79A
:1029D00093F840F6B83398F8002026A9B34256A8D9
:1029E00038BF33464A4518BF1E46FEF7A3FF0028EE
:1029F0004BD146A956A8FEF79DFF0746002860D197
:102A000056A836A9FEF796FF08B342F6E0694E4590
:102A1000BCD05B46574A60216EA80134CDF800A0B7
:102A200016F02AFB6EA807F08DFCAC424E46B0D1E2
:102A30000CF08CF9059BC01AB04269D201200CF051
:102A40008BF988E74C484F4607F07CFC9EE7074629
:102A50009CE7FFF755FA00286FD0039B0494E31A14
:102A6000C72B83D916A807F039FC5B46434A60217F
:102A70006EA816F001FB6EA807F018FC039475E72A
:102A80003F4B3AE7012292461FE7334B07463D4949
:102A9000584683F800903C4BC3F800A0FDF718FCA3
:102AA00018B35B46394A60216EA8CDF800A016F035
:102AB000E3FA6EA807F046FC38460DF5077DBDE841
:102AC000F08F5B46324A60216EA8CDF800A016F068
:102AD000D3FA6EA807F036FC2E4B0A221A600027A4
:102AE00038460DF5077DBDE8F08F184B1A782A4B54
:102AF000C3F800A0294B1A70294B1870294B187085
:102B0000294B1870294B1870294807F01BFCC8E79F
:102B10005B46284A60216EA8CDF800A016F0ACFAFA
:102B20006EA807F00FFC002101221A4B88F8001054
:102B300009490A7008221A60D1E7164B1A68092A57
:102B4000CDD005221A60CAE7640500206D0500207B
:102B500008C2010880C6010871050020B8C6010836
:102B600000C7010818C7010808CC0108B0C5010852
:102B7000BCC50108BCCC0108C4C8010828CC0108A8
:102B80000CC20108ECC101086005002074CC0108EA
:102B900094CC0108BC050020D0040020CD04002006
:102BA000CC040020CB040020CA040020C90400206B
:102BB00048CC0108E0CC01087A0500202DE9F04F4F
:102BC000DFF84082F5B007460CF0C0F8D8F80030C6
:102BD000002B00F0AD808146A0F1C80B0A38754A81
:102BE0004021009303903B4614A8002416F044FAB9
:102BF000D8F80030704A4021009324A83B4616F0D4
:102C00003BFAD8F800306D4A4021009334A83B4687
:102C100016F032FAD8F80030694A602100935CA8B7
:102C20003B4616F029FA5CA807F08CFB0CF08EF8F6
:102C3000039B0546C31A092B63D8A5EB0B03C72BCF
:102C400068D8402104A80BF0E1FAE8B104AD05EB27
:102C5000000A07E05F290C4622D8013500F8C02C95
:102C6000554511D02A7804F5E873611C00260D2A19
:102C70000DEB030001D00A2AECD100F8C06C9CB91E
:102C8000013500245545EDD10CF060F843F697234B
:102C9000A0EB0900984276D801200CF05DF8C5E75A
:102CA000484807F04FFBEBE7474807F0FFFA44A816
:102CB00007F0FCFA454807F0F9FA44A8FEF71CFFB4
:102CC00024A944A8FEF736FE044634A944A8002CE3
:102CD00035D1FEF72FFE0028D2D0D8F800003B46B1
:102CE0003B4A602100905CA816F0C6F95CA807F08A
:102CF00029FB384B0A221A600024204675B0BDE833
:102D0000F08FFFF7FDF800284DD0A5EB0B030395DE
:102D1000C72B96D914A8AB4607F0E0FA3B462E4ADB
:102D200060215CA816F0A8F95CA807F0BFFA88E754
:102D30002A4807F007FB274B0A221A60DCE7D8F87D
:102D400000306021264A5CA800933B4616F094F9B7
:102D50005CA807F0F7FA23493846C8F80060FDF789
:102D6000B7FA0028C9D1204B204A1870204B1060B8
:102D700018702049204A214B0870107018702046A6
:102D800075B0BDE8F08FD8F800003B461C4A6021C2
:102D900000905CA816F070F95CA807F0D3FA0D4B10
:102DA00008221A60A8E70B4B1A68092AA4D005224A
:102DB0001A60A1E770C70108D0C6010818C701084A
:102DC00030CD0108C4C80108B0C50108BCC5010860
:102DD00088CD0108BC05002050CD010808CD0108B0
:102DE00068CD0108ECC10108CD040020D00400200A
:102DF000CB040020CC040020CA040020C904002019
:102E0000B0CD0108600500202DE9F04FADF53F7D04
:102E100007460D4616460BF099FF8F4B04901C6831
:102E2000013420D022461A608C4B1B78CBB18C4ADF
:102E300047F230539E4298BFB5F57A7F07D8B7F175
:102E4000030A18BF4FF0010ABAF1000F0ED0854BEC
:102E500006221A604FF0000948460DF53F7DBDE897
:102E6000F08F814AE4E701221446DCE7049F4FF02B
:102E700003092346A021C83F009296A87B4ACDF8BB
:102E800004900597049FCDE9025616F0F5F8234605
:102E9000774A402106A8A7F10A0816F0EDF8234664
:102EA000744A402116A816F0E7F82346724A4021DA
:102EB00026A816F0E1F82346704A80214EA8CDF8E6
:102EC0000090CDE9015616F0D7F84EA807F03AFA6F
:102ED0000BF03CFFA0EB08030446092B00F2A08096
:102EE00057460DF1D80B059BE31AC72B00F28B80D8
:102EF000602158460BF08AF98246002800F0938042
:102F000000265C46002509E0791C9F294BD86EA855
:102F1000C2550F460135013455450ED222780D2A8F
:102F200001D00A2AF0D100226EABDA55002F3ED133
:102F30000135002701345545F0D30BF007FF16BBD0
:102F4000049BC01A40F6B733984276D80120002679
:102F50000BF002FF0BF0FAFEA0EB08030446092B6E
:102F6000C1D9FEF7CDFF00286ED0A0460DF1D80BD9
:102F7000002EB8D0602158460BF048F98246002850
:102F8000BFD10BF0E3FE801B41F2873398424DD84E
:102F900001200BF0E1FE0BF0D9FEA0EB0803044684
:102FA000092BE7D9DDE7364807F0CCF9C0E735480B
:102FB00007F07CF96EA807F079F9334807F076F945
:102FC00006A96EA8FEF7B6FC50B1002EB0D10BF0EA
:102FD000BDFE81462D48374607F068F94E4699E711
:102FE00016A96EA8FEF7A6FC814688B96EA826A988
:102FF000FEF7A0FC00289BD0254807F0A3F9194B49
:103000000A221A6026E796A807F068F905946FE788
:10301000204807F097F948460DF53F7DBDE8F08F51
:10302000564657469DE70BF091FE89E71A4807F090
:1030300089F90C4B08221A600CE7184807F082F94E
:10304000084B08221A6005E7064B1A68092A3FF464
:1030500001AF05221A60FDE6640500206D05002021
:1030600008C20108BC0500200CC20108D4CD01082B
:1030700018CE010834CE010850CE01086CCE0108EC
:10308000ECCE0108B0C50108BCC50108A8CE0108F6
:10309000D0CE0108BCCE01082CCF010810CF01080A
:1030A000F8B507460BF052FE0646A0F10A050BE004
:1030B0000BF04CFE431B092B03D90546FEF720FFFE
:1030C00040B101200BF048FE0BF040FE801BB842DF
:1030D000EED3F8BD044B1A68092A01D005221A6004
:1030E000024B07221A70F8BDBC050020C005002065
:1030F0002DE9F04F994C0027994B4FF00108D4ED82
:10310000007ADFF8B8B22DED0C8B89B030EE27AA2B
:1031100093ED00DA00970397DFED928ADFED92BA24
:103120009FED929ADFED929A9FED92BACDE90177E9
:103130000BF00CFEDFED907A904B8146B0EE67CA43
:10314000A0F1FA0AC3ED007AF0EE67AA8C4B0646AE
:10315000CBED007A0546C3ED007A8A4B84ED00AAD8
:10316000C3ED007A884BCDE90477CDE90677C3ED4E
:10317000007A0BF0EBFD41F26F73A0EB09020446FD
:103180009A4200F2DF80831B092B40F2C380431B6D
:103190000A3607EE903A831BF8EE677A092B88BF50
:1031A000064667EEA87AF4EEE87AF1EE10FA00F13E
:1031B000A8809FED768AF4EEC87AF1EE10FA38FE18
:1031C000278A734DB0EE480AFDF7C8FB7AEE4DCA68
:1031D000D5ED007A6BEEE77AECEE897AF4EEE97AD7
:1031E000F1EE10FA00F18A80F4EEC97AF1EE10FAED
:1031F00079FE277A28EE0B8A3CEE487AB4EEE77A1D
:10320000F1EE10FA77DC3CEE088AF4EEC87AF1EEC3
:1032100010FA38FE27CAB0EE4C1A6946F0EE6A0A78
:103220009FED550A5B488BED00CA07F0E1FC0028D2
:1032300000F08C80584B1B6843B9584B1B68002B1F
:103240006ED1574B1B780BB9FEF712FD08F0E6F86C
:1032500018B908F0E9F800286ED1684607F070FE4A
:1032600058B9504B1A68092A01D005221A6000206B
:1032700009B0BDEC0C8BBDE8F08F0BF067FD04A925
:1032800007F0ACFE70B9B8F1000F04D1464807F062
:1032900059F8444BE9E7CDE90400CDE9060043487D
:1032A00007F050F8A4EB0A032D4AF92B92ED00DA4F
:1032B0002AD8F0EEECCA09F0C1FBDFED3D7AF4EE5E
:1032C000E7CAF1EE10FA12D8D5ED007A9FED397AFF
:1032D000F0EEE77AF4EEC77AF1EE10FA07D837B3DA
:1032E000E31B4F2B36D84FF00008254641E7002757
:1032F0002546B8463DE7B0EE47CA8CE7F0EE697A5E
:1033000078E7B0EE688A5CE704A92046A246FDF79C
:10331000CFFBCEE72C4601200BF01EFD254628E70B
:10332000254B1B78002B91D1FDF7D2FD8EE7274668
:103330004FF0000825461CE7FDF7C8FA194B092293
:103340001A608FE7174B07221A6090E7154B062289
:103350001A608CE7FEF7D4FD8AE700BF8C050020D9
:10336000AC0500206F12833ACDCC4C3ECDCC0C4046
:10337000CDCC0CC03333734000000000A805002002
:10338000980500209405002090050020CDCC4C3DF0
:10339000B00500203CF20108DC040020E804002015
:1033A0006F050020BC0500206CCF010848CF010844
:1033B0000AD7A33C0AD7233DE6040020A405002039
:1033C0002DE9F04F00232DED108BE5B0DFED958A50
:1033D000B0EE408A1993B0EE60EACDED128ACDEDE1
:1033E000138ACDED148ACDE91A33CDE91C33CDE92A
:1033F0001E33CDE92033CDE917338B4BD3ED00EAF3
:103400000BF0A4FCF0EE682ADFED951AB0EE682A06
:1034100023AA01230490CDED228A07EE903AF0EE24
:10342000480A16A915A8B8EEE70A013320EE210ACA
:10343000FDF70AFAF0EE627ADDED162AB0EE427A76
:103440009DED152A412B72EEE77A52ED016A32EEBC
:10345000477A67EEA77AE7EE077AB1EEE77A77EE7A
:10346000267AE2EC017AD8D19DED62BA9FED6FCA5F
:10347000B4EECCBAF1EE10FA08D86D4B062200205B
:103480001A6065B0BDEC108BBDE8F08FDFED65AA6A
:10349000684BDFED697AB0EE6A9AC3ED00AAF0EEF0
:1034A0006ABA664B6EEE277A9FED65FAB0EE6AAAAD
:1034B000C3ED00AAF0EE6A9A624B28EE0F7A049EE2
:1034C000F0EE6ADAC3ED00AAB0EE6ADA5E4BF0EE17
:1034D0006ACACDED087A7EEEA77AC3ED00AA374618
:1034E0005A4BB0468DED027AC3ED00AAA6F1FA035D
:1034F000CDED077A0693FEF75FFC002301220A93C5
:10350000059209930BF022FC0646FEF755FC049A3F
:1035100042F22733B21A9A4200F23F83F31B092B7F
:1035200040F2BC83A6EB08030A3707EE903AF31B80
:10353000F8EE677A092B88BF374667EE8C7AF4EE8F
:10354000CC7AF1EE10FA00F18783DFED41FAF4EE68
:10355000EF7AF1EE10FA7FFEA7FAB0EE6F0AFDF7F0
:10356000FDF914AB12AA1EA9009313AB394807F05A
:10357000B7FB8046002800F0CF83DFF8DCB0DBED3E
:10358000007A77EEEE8AB0EE680A14F0F5FCB0EE41
:1035900040FAB0EE680A14F0EFFB9DED137ADDED12
:1035A000127AF0EE401A67EE006A9DF8643027EE5A
:1035B0000F7AE7EE8F6AA0EE677AB0EE66EAF0EE79
:1035C000478A002B00F05083B0EE6F2A17A8B0EEA8
:1035D0004F1AF0EE470AB0EE660AFEF7D9F89DEDF5
:1035E00017EADDED188A89EE8B6AB5EEC06AF1EE56
:1035F00010FA00F13483F7EE002AB4EEE26AF1EE3D
:1036000010FAF5EEC09A32FE866AF1EE10FA40F238
:103610008783F4EECB9AF1EE10FA58DA23AA01234D
:1036200030E000BF000000008C0500206F12833ADC
:10363000BC050020A8050020DA0FC93FA405002022
:10364000B7D1303F98050020940500209005002058
:10365000CDCC4C3D3CF20108AC050020BD37863591
:103660000000803CCDCCCC3E9A99193F3333B3BE99
:103670009A9919BE0AD75BC0AE47613F0133412B0F
:1036800000F04783D2ED007A0432F4EEE79AF1EECF
:1036900010FAF3D8013B1FED0F5A0DEB8302D2ED68
:1036A000225A77EEE57AF4EEC57AF1EE10FA40F39D
:1036B000078379EEE55A85EEA75A07EE903AF8EEC1
:1036C000E72A5FED197A72EE852A62EEA72AF0EEFC
:1036D000480A16A9B0EE620A15A88DED036AFDF737
:1036E000B3F8F7EE005A5FED217AF0EE084A1FEDCD
:1036F000224A28EE275A1FED237A75EEE25A9DEDF5
:10370000023AF1EE087A9DED036AA8EE443A65EEBE
:10371000A43A65EEA77A62EEA44A63EEA53AF0EE0B
:10372000455A67EEA27A64EEA24AD8EE045A65EED4
:10373000A75A67EE877A1FED327AE5EE235A1FED1E
:10374000335AE3EE877AE4EE835AE4EE857A25EE87
:10375000A55AA7EEA75AF1EEC53AF4EECC3AF1EE2F
:1037600010FA40F2D982C5EEA34A5FED3D5AE54B0F
:10377000D3ED002A87EEA34ADFEDE33A68EEA33AE1
:103780006EEE255A7BEE697AA3EEAFDAE5EEAFCAAC
:1037900023EEA43AA5EE843A63EE843AE4EEE53AE9
:1037A000F0EE625AB0EEC35AE3EE2FDAE5EE2F5A8E
:1037B000C3ED005A7BEE6D5AF4EEE5AAF1EE10FA75
:1037C000F4EEE7AA3AFEA50AF1EE10FA7AFEA77A1D
:1037D000F4EEC07AF1EE10FA30FE270AB5EE400A98
:1037E000F1EE10FA00F1BB82F1EEC07ADFEDC72AEC
:1037F000F4EEE72AF1EE10FA77FEA27AB4EEE7AA29
:10380000F6EE002AF1EE10FA6FEEA22A40F10A82DB
:103810007AEE222AF4EEE72AF1EE10FA37FEA2AA97
:10382000EAEE2F9ADFEDBA7AF4EECB9AF1EE10FAC7
:103830007BFE299A79EEED2A62EEA72AFDEE007A48
:10384000F4EEE72AF1EE10FA07D4F5EE007AF4EE82
:10385000E72AF1EE10FA77FEA27A7AEE277AFDEEE9
:10386000002AF4EEE27AF1EE10FA00F10E82DFEDBA
:10387000A72AF4EEE27AF1EE10FA72FEA77A37EE9A
:10388000C33ADFEDA42A63EE222AE2EEAFBAFDEEE0
:10389000002AF4EEE2BAF1EE10FA00F1F381F5EE4F
:1038A000002AF4EEE2BAF1EE10FA72FEABBADFEDE6
:1038B0009A2AE3EE227AFDEE002A77EEAB7AF4EE56
:1038C000E27AF1EE10FA07D4DFED902AF4EEE27A14
:1038D000F1EE10FA72FEA72ADDED167A9DED152A9B
:1038E0007DEE677ADFED8D0A3CEEC22A8C4B67EEE7
:1038F000847AC3ED002AE4EEC27A9FED8A2AB0EE04
:10390000673ADFED897A67EEE37AE3EE027AF4EE66
:10391000E07AF1EE10FA07D4DFED840AF4EEE07AF3
:10392000F1EE10FA70FEA70A814BDDED027A83ED0D
:10393000003A9FED803A37EECD2A7F4B33EE6C3A5A
:10394000C3ED000A62EE027A7C4BB5EEC03AC3EDDD
:10395000003AF1EE10FA00F1778177EEAA7AB0EE34
:103960006A3AF1EEE73ADFED767AB4EEE76AF1EE25
:1039700010FAC0F26081DFED737AF4EEE73AF1EE0F
:1039800010FA05D9F4EECC3AF1EE10FA00F39B816F
:10399000DFED6D0AF0EE6A7AB0EE603A604BC3ED8F
:1039A000007AF7EE004A9DED087A82EE8B4A674B6B
:1039B000B4EEE46AB0EE001AF0EE082AF1EE10FA66
:1039C000F1EE087A21EEE00A34FE862AE2EE412A80
:1039D00074EEC64A22EE022A66EE277A60EE8F0A5D
:1039E000A3EE0F0A62EE822A9FED592A67EEA47AAF
:1039F000F0EE6E4AE3EE210AE7EE224A67EE272A4E
:103A0000DBED007A93ED003A74EEE77A67EE827AA6
:103A1000E2EE847A9FED4F4AE3EE447A9FED4E4A00
:103A2000F4EEC47AF1EE10FA00F12981F4EEC27AD4
:103A3000F1EE10FA72FE277A9FED484A6FEE84FA93
:103A400039EE6F4AB4EEE74AF1EE10FA00F3148152
:103A500079EE2FFAF4EEEF7AF1EE10FA3FFEA79A24
:103A60003F4A9DED077A82ED009A3E4ADBED007AEF
:103A7000C2ED004ADFED324A77EE677AB4EEE46ACF
:103A8000F0EEE77AF1EE10FA80F2AE80F0EEE55A51
:103A90009FED357AF4EEC75AF1EE10FA00F2B780D6
:103AA0009FED287AB4EEC75AF1EE10FA00F2AF801B
:103AB0009FED2E7AF4EEC77AF1EE10FA0AD8D3ED24
:103AC000007A9FED2B7AF0EEE77AF4EEC77AF1EE0A
:103AD00010FA0DD9124BC3ED00AA174BC3ED00AA83
:103AE0000A9B002B00F0E080CDF828804FF0000802
:103AF000B0EE491A1AA91F4807F07AF8002800F01A
:103B00000B8139E0A00500209A99B93F3333B33FC8
:103B10009A99993FCDCC4C3F3333B33E9A9999BE95
:103B2000A80500209A9919C0AE47613E9A99993E1E
:103B3000980500200AD77BC094050020900500203E
:103B40009A99593F8FC2F53C00000000B005002053
:103B5000CDCC0C40CDCC4C3ECDCC0CC033337340DF
:103B6000A40500208C0500206F12033C0AD7A33C5B
:103B70000AD7233D3CF201081AA8FEF78DF9002868
:103B800000F0DA800BF0E2F81EA907F027FAA0B9DE
:103B9000059B5BB9844806F0D5FB844B05221A606F
:103BA000002065B0BDEC108BBDE8F08FCDE91E00A4
:103BB000CDE920007E4806F0C5FB069BF31AF92BE1
:103BC00066D808F03BFFB8F1000F09D0099B002B25
:103BD00068D0F31A3B2B4FF0000300F2B380099337
:103BE0000023B04605938DE49FED726AF4EEC63A69
:103BF000F1EE10FA0BD828EEA87AAEEE0E7AF1EEBE
:103C0000C76AF4EEC66AF1EE10FA7FF651AF9FED87
:103C10006A7AF4EEC77AF1EE10FA1AD81B684FF000
:103C2000000865E77AEE622AF4EEE27AF1EE10FA25
:103C300037FEA2AAF4E524EEE03A60EE840AA4EE90
:103C4000223AE4EEA20AACE6E3EE037AB1EE433A9E
:103C500087E64FF000084BE7F0EE4CFA7DE4B0EE5B
:103C60006A6AF0EE6A2A32E50123CDED176A8DED1E
:103C7000187A8DF86430B6E4B0EE449AF0E6F0EECF
:103C8000447AD9E6F0EE62BA11E6F0EE627AF6E531
:103C90001EA93046FCF70CFF069692E701200BF0B8
:103CA0005BF82FE409969BE74448CDED0A0A8DEDB9
:103CB000030A06F047FBDDED0A0A9DED030A13E750
:103CC000B0EE6A5AF9E4DFED3E0ADFED3E7A62EECD
:103CD000200A9FED3D4A23EE273A60EEA04AE3EE2C
:103CE000034AF1EEE47AF4EEC47AF1EE10FA1ADC4B
:103CF000DFED364AF4EEE47AF1EE10FA7FF54EAEDF
:103D000084EEA74AF0EE647A23EE043A60EE840A69
:103D100044E6F7EE002ADAE4244B06221A603FE775
:103D2000DFED2B2AD3E4C4EE274AF0EE447A23EEEB
:103D3000243A60EEA40A31E61C4B1A68092A7FF483
:103D40002DAF2DE7234ADDED077AC2ED007A224A36
:103D50001360224A1360FEF7D3F8FFF792BBCDED54
:103D6000111A8DED106ACDED0F5ACDED0E3A8DED95
:103D70000D3ACDED0C4A8DED0B4A8DED035A13F043
:103D8000D1FFDDED111AF0EE407A9DED106ADDED08
:103D90000F5ADDED0E3A9DED0D3ADDED0C4A9DED2D
:103DA0000B4A9DED035A21E56CCF0108BC050020AC
:103DB00048CF01080AD7A33D0AD7A33C98CF0108F2
:103DC0009A99993F9A9999BF6666E63E8FC2F53DEA
:103DD000000000008C050020A8050020A40500209C
:103DE0009FEDDD7A60EEA07A0023002231EE477A63
:103DF000E0EE007AF0EEC76A9FEDD87A2DE9F04F39
:103E0000F4EEC76ADFF89CA306469AED006AF1EE6D
:103E100010FA2DED108BE7B0B1EEE79A329336939E
:103E20002C933593B0EE608A3993F0EE408AF0EE31
:103E300041FACDED1A6AB0EE61BA8DED0C6AB0EEC2
:103E400042CA269227922892CDED072ACDE9333334
:103E5000CDE93733CDE92D33C14BD3ED007ACDED2C
:103E60000A7A00F23283F0EE087ACDED107ADFEDB7
:103E7000BD7ACDED0F7ADFEDBC7ACDED0E7A002E56
:103E800000F01E83DFEDB97ACDED1B7AF0EEC87A33
:103E9000B0EEE87AF4EEC77AF1EE10FA40F3078359
:103EA000F1EE047ACDED0D7AF5EE007ACDED0B7AD8
:103EB000DFEDAFCA0AF04AFFB4EEEC9AF1EE10FA69
:103EC00000F1EC82DFEDAB7AF4EEE7FAF1EE10FAF6
:103ED00040F2E482B4EEE7BAF1EE10FA40F2DE828C
:103EE000B4EEE7CAF1EE10FA40F2D88288EE89DA31
:103EF000A14B9FED9C7A4FF0000CC3ED007A074672
:103F00009E4B8BFE477A8DED237A0546C8EE09DA83
:103F1000C3ED007A9A4B9DED077AC3ED007A994B79
:103F2000B0EE67FA9849C3ED007A984BF0EE4F9ADD
:103F3000CDF870C0C3ED007AF0EE4F8ADDED0A7A5D
:103F4000B0EE4F9A924BF0EE4FBA77EE877ACDF8FB
:103F500054C0664508BF1946A0F1FA03B0EE4FAA57
:103F6000CDF874C0CDED167A6FEE8D7A14930123DF
:103F70002291CDED177A6FEEAD7A09938DED13FA9C
:103F8000CDED187A8DED12FA8DED06FA8DED05FA6C
:103F9000CDF864C011900AF0D9FE119A43F6972328
:103FA0000446821A9A4200F27185DFF8FCB1DBF810
:103FB000003023B1774B1B78002B40F08485E31B46
:103FC000092B40F2F583631B0A3707EE903AE31B97
:103FD000F8EE677A092B88BF274667EEAC7AF4EED5
:103FE000EC7AF1EE10FA00F1C4839FED6B2AF4EE47
:103FF000C27AF1EE10FA72FE27EAC9EE2F7AF5EED8
:10400000C07AF1EE10FA00F1AF83B7EE008AB0EE9D
:10401000007AF4EEC87AF1EE10FA38FE278AF0EE54
:10402000087AE8EE477A28EE087A67EE877A9DEDFF
:10403000077AB0EE6E0ADDED0AAA494BE7EE27AA31
:10404000C3ED00AAFCF78AFC28AB26AA36A9534880
:10405000009327AB06F044FE0546002800F01E82C0
:104060009DED0C7ADAED007A77EEC77AB0EE670A4A
:10407000CDED087A13F080FFB0EE40EA9DED080A1E
:1040800013F07AFEDDED270ADDED267AF0EE401A18
:1040900020EE806A9DF8B83060EE8E0AA7EE8E6A38
:1040A000E0EE670A002B00F06783B0EE460A2CA80A
:1040B000B0EE6E2AB0EE4E1AFDF76AFB9DED2C6A4B
:1040C000DDED2D0A6DEEA05ADDED057A3FEEC97AE1
:1040D000334BEEEE867AEDEE065A7CEE0C6ACDEDB1
:1040E000057AE5EEAEBADDED067AB0EEE54AE0EE31
:1040F000AE7A3FEEEB5ACDED067A6DEE207AB4EE55
:10410000C5AAEDEEC67AF1EE10FAB4EEC7AA3AFEF1
:10411000050AF1EE10FAA7EEAEFA3AFE077AB4EE0F
:10412000C07AF1EE10FA30FE070A93ED007A20EE25
:10413000260AA4EE2E7AB5EE400AF1EE10FA83EDCF
:10414000007A0F4B83ED00FA104BC3ED007A00F1BB
:10415000E186B1EEC07A31E0C87E24400AD7233C24
:104160008C0500209A99993E5C8FC23E6F12033CE9
:104170006F12833A00000000A8050020A40500206B
:104180009805002094050020CCCF01089005002060
:104190000CD00108E7040020CDCC4C3D3CF20108D6
:1041A000A0050020AC050020E80400209A99993F62
:1041B000CDCC4C3F3333B33E17B7D138B4EEC7BA8A
:1041C0006CEE2E3AF1EE10FA37FE0B7AF4EEC78A57
:1041D000F1EE10FA40F1948278EEA38AF4EEC78AE9
:1041E000F1EE10FA77FE288AA8EEAE9A9DED073A16
:1041F0001FED0F7AF0EEC34AB4EEEF9AF1EE10FA2B
:10420000F4EEC74A3FFE899AF1EE10FA40F3758248
:10421000C8EEAF6AB1EE087A23EE077AB7EE003A3D
:1042200027EE087A33EE483A27EE037A27EE267A0D
:1042300039EE6B3A5FED236A23EE263AFDEE006A13
:10424000B4EEE63AF1EE10FA07D4F5EE006AB4EEF9
:10425000E63AF1EE10FA76FE836A78EEA66ABDEED3
:10426000003AF4EEC36AF1EE10FA00F19082F4EE37
:10427000CB6AF1EE10FA7BFE266A76EEE55A5FED28
:10428000342ABDEE003A65EEA22AE2EEAE9AF4EED2
:10429000C39AF1EE10FA00F17782B5EE003AF4EE2F
:1042A000C39AF1EE10FA73FE299A1FED3E3AE5EE3D
:1042B000836AFDEE005A76EEA96AF4EEE56AF1EE45
:1042C00010FA00F16782F4EECB6AF1EE10FA7BFE91
:1042D000266A5FED475A834BF4EEE54AC3ED006A68
:1042E000F1EE10FA00F31582002E40F01882F0EE85
:1042F000E65A9FED7D3ADFED7D2A65EE835A85EE25
:10430000A23ADFED7B2AB4EEE23AF1EE10FA72FE49
:10431000832AB1EE623ADAED005A9DED0D2A75EE70
:10432000EA5A744BA5EEC27AD3ED005A9DED0B2AE2
:10433000A5EEC27AB4EEC37AF1EE10FA05D4B4EE6B
:10434000E27AF1EE10FA32FE873A9DED0F7ADDED5A
:104350000E5A67EE677A9DED107A674BE7EE4F7A5B
:1043600083ED003AB1EE657AF4EEC77AF1EE10FA19
:1043700005D4F4EEE57AF1EE10FA35FEA77ADDED1C
:10438000187ADDED065A5D4B77EEE5AADDED177A7A
:10439000DDED055A83ED007A37EEE58A002E00F058
:1043A000C780DFED5F7A6FEEA77AF4EEEB7AF1EE7D
:1043B00010FA00F2F8811D9668EE087A199BEAEE71
:1043C000AA7AB1EEE77AD3B92298CDED211A8DED14
:1043D000207A8DED1F6ACDED1E3ACDED190ACDED97
:1043E000084A05F0AFFFDDED211A9DED207A9DED25
:1043F0001F6ADDED1E3ADDED190ADDED084ADDED3F
:104400001B7AF4EEC77AF1EE10FA00F1FA81354B1F
:1044100083ED00AAC0F2D88126EE066ADFED387A75
:10442000A0EEA06AB1EEC67AB4EEE77AF1EE10FA29
:1044300000F2CA819DED167ADAED007A77EE677A9E
:104440009FED3A7AF0EEE77AF4EEC77AF1EE10FAE1
:1044500000F28E82274BD3ED007AF0EEE77A002E41
:1044600000F07D859FED277AF4EEC77AF1EE10FA21
:1044700000F28082DDED137A3546DFED230A012359
:104480007AEE676ADDED127A19963AEE677A26EED1
:10449000A66AF0EE607AA7EE076AA4E01B4B06223C
:1044A0001A60002067B0BDEC108BBDE8F08FF2EE13
:1044B000027ACDED0D7ADFED167ACDED0B7AF7E4C9
:1044C000DFED167ACDED1B7AE0E4DFED127ACDED6B
:1044D0000F7ADFED117ACDED107ADFED0D7ACDEDAB
:1044E0000E7ACCE4A80500206666263F7B14AE3E1B
:1044F0003333333FB0050020A4050020940500208D
:10450000CDCCCC3C0AD7233D00000000BC050020E8
:104510009A99993EAE47613E9A9919400AD7233C31
:10452000CDCC4C3E6F12033C8FC2F53C0AD7A33C66
:104530005FED067ADDED1A5AF4EEE75AF1EE10FA65
:1045400009D85FED097A6FEEA77AF4EEC97AF1EE39
:1045500010FA7FF631AFB0EEC55A6DEEC77A6DEE48
:10456000070A1FED107AB4EEC75AEDEE267AEDEE8B
:10457000A60AF1EE10FA00F2DD801FED157AB4EE16
:10458000C74AF1EE10FA00F2D580DDED166A9AED19
:10459000007A36EEC77A5FED1B6AB0EEC77AB4EEEA
:1045A000E67AF1EE10FA00F2CE81C54BDFEDC56A76
:1045B00093ED007AB0EEC77AB4EEE67A002E00F002
:1045C000A381F1EE10FA00F254819DED137A0025DB
:1045D00070EEC76A9DED127A2B4637EEC77A26EE4B
:1045E000A66AA7EE076AF1EEC65AF4EEE53AF1EED6
:1045F00010FA40F1358163EEA66A23EE877A86EEE3
:10460000A56ADDED126AC7EE257A9DED137A37EEC5
:10461000067A8DED137A27EE077A76EEA77AA7EE63
:10462000A77ACDED127AF1EEC77AA74A9DED127AFC
:10463000A649C2ED007ADDED137A6DEE277AEDEE34
:10464000C77AC1ED007A002B00F0088192ED007A64
:10465000DFED9F7AB4EEE77AF1EE10FA94BF4FF0F7
:1046600001084FF00008DDED130ADDED127A21EEAE
:10467000E00A984B60EE8E0A32A993ED001AA7EE7D
:104680008E0A9548E7EEA10A06F0B2FA00283FF438
:1046900005AF32A8FDF700FC002800F003820AF005
:1046A00055FB36A906F09AFC78B9099B33B98B48BB
:1046B00005F048FE8A4B05221A60F2E6CDE9360085
:1046C000CDE93800874805F03DFE149BE31AF92B2D
:1046D00063D808F0B3F9B8F1000F25D0002D159A72
:1046E0000CBF3C23FA23002A69D0A21A9A4280F018
:1046F000F2810023254609934DE4B0EE4A7A97E50E
:1047000078EEE38AB4EEE87AF1EE10FA77FE288AC2
:104710006AE526B99FED743ADFED742AFBE59FED5B
:10472000743ADFED742AF6E52546CDF85480CDF8CD
:10473000248030E4DDED166A9AED007A36EEC77A11
:10474000DFED6D6AB0EEC77AB4EEE67AF1EE10FAFC
:1047500001D85B4B1B680025A8462B46002E86D04F
:104760002A461C9D1C929BE0F0EE4A7A9FED658ADA
:104770005DE4F0EE6CEA40E401238DED2C6ACDEDB2
:104780002D0A8DF8B8309DE4F0EE439A8DE5F0EEF9
:10479000436A72E5F0EE656A9BE536A92046FCF7B0
:1047A00087F9149495E71D9B002B7FF405AED2E6A4
:1047B0002C4601200AF0D0FA2546FFF7ECBB25462F
:1047C00015940992FFF7E7BBDFED4E0AF0EE607A31
:1047D000DDED166A9AED007A36EEC77ADFED466AAD
:1047E000B0EEC77AB4EEE67AF1EE10FA01D8344BA7
:1047F0001B684FF0000819954346002E3FF437AF71
:10480000AEE77AEEAA0A78EE087A60EEA06AE7EEE2
:10481000A76AB1EEE67ADDED236AF4EEC76AF1EE3F
:1048200010FA00F18380DFED356AB4EEE67AF1EE3E
:1048300010FA0FD59DED236AC6FE666A86EE876A7A
:1048400060EE860A67EE867A60EEA06AE7EEA76AF7
:10485000B1EEE67A1C4B83ED007AB9E7984602E7A1
:1048600020EEA07ACDED130ACDED127AA7EEA77A4D
:10487000D9E6DFED237AF4EEE74AF1EE10FA40F3E1
:10488000A8800023104A1360104A13601C9B002B61
:1048900000F00D81DFED1B0A0023F0EE607A1C931F
:1048A0009DED137A1C9A70EEC76A9DED127A1C95E5
:1048B000154637EEC77A26EEA66AA7EE076A92E695
:1048C000B00500200AD7233DA8050020940500204C
:1048D000CDCCCC3CA40500203CF201086CCF0108F3
:1048E000BC05002048CF0108333333BF3333333F97
:1048F0003333B3BE3333B33E0AD7A33C8FC2F53C48
:1049000017B7D13800000000F1EE10FA324694BF1C
:104910004FF00108B04643461FED077AF4EEC74A50
:10492000F1EE10FA72D8A8461546A0E6C6EE876AE0
:1049300060EEA60A67EEA67A60EEA06AE7EEA76AC6
:10494000B1EEE67A86E7002E93D11FED137A324658
:10495000F4EEC74AF1EE10FAE5D9B04633461FED42
:10496000187AF4EEC74AF1EE10FA53DC15467EE6EB
:10497000002E7DD05FED1E7AF4EEE74AF1EE10FADC
:1049800040F388805FED210A694BC3ED000A694B53
:10499000C3ED000A1C9B002B40F0828298462A46F9
:1049A00019956548CDED201ACDED1E3A08931F925A
:1049B00005F0C8FCDFED610A1C95F0EE607A1F9DE2
:1049C000DDED201ADDED1E3A089B002E3FF44FAEC0
:1049D000C6E64FF00008564B83ED00AA554B83ED19
:1049E00000AA1C9B2BB3DDED137A4546DFED530A7D
:1049F00000237AEE676ADDED127A3AEE677A26EEE8
:104A0000A66AF0EE607AA7EE076AECE5B8F1000F4F
:104A1000A5D088E7464981ED00AA464981ED00AA64
:104A20001C990029BDD0DFED450A1546F0EE607AED
:104A30001DE64148CDED1E1ACDED083A05F082FC89
:104A4000DDED137A0023DFED3D0A7AEE676ADDEDD6
:104A5000127A1C9545463AEE677ADDED083A26EE65
:104A6000A66ADDED1E1AF0EE607AA7EE076ABAE5D7
:104A7000DFED337A2A461995F4EEE74ADFED2F7A17
:104A8000F1EE10FA09D8F0EE670A4CE72D4B05223B
:104A90001A6006E5A84619959DE7F0EE670AB0464C
:104AA00033465CE7274B1A68092AF0D1F9E422481B
:104AB000CDED1C1ACDED083A05F044FCDDED083AC9
:104AC000DDED1C1AE6E6FDF71BFA0023184A136019
:104AD0001D4A1360E5E41D4B0024DDED167AC3ED9D
:104AE000007A134B1C60002E42D0DFED197AA02112
:104AF000184A3EA82AEEA76A28EE277AB7EEC66AB9
:104B0000B7EEC77A8DED026B8DED007B14F0B4FA31
:104B10003EA805F017FCFDF7F3F900287FF4C2ACBE
:104B2000084B1A68092A3FF4BDAC05221A60B9E4A3
:104B3000A8050020940500204CD0010800000000CA
:104B400017B7D138BC050020A40500208C05002033
:104B500000007A4490D001086F12833A3333B3BE19
:104B60006F12033CEC5138BE9A9919C0AE47613EB2
:104B70003A963E962F963D9641965FED098A5FEDF7
:104B8000099A5FED06AA1FED08AA1FED0A9A1FED0C
:104B90000CBACDE93B66CDE93F66CDE930660AF057
:104BA000D5F8C24B814601201C60C14B4F464D4693
:104BB00083ED00FABF4B1C60A9F1FA030593FBF7E4
:104BC00031FF06960AF0C2F8A0EB09030446B3F5DC
:104BD000FA5F80F09381C31B092B40F24981431B8C
:104BE0000A3707EE903AC31BF8EE677A092B88BFA5
:104BF000074667EEA87AF4EEE87AF1EE10FA00F1D3
:104C000020819FEDAD8AF4EEC87AF1EE10FA38FEFD
:104C1000278AB0EE480AFBF7A1FE2BAB29AA3EA9D2
:104C200000932AABA54806F05BF8002800F032811B
:104C3000DDED0C7A9AED00CA3CEE67CAB0EE4C0A84
:104C400013F09AF9F0EE40BAB0EE4C0A13F094F873
:104C5000DDED2A0AF0EE401ADDED297A20EE200A79
:104C60009DF8C4306BEEA00AABEEA70AE1EEE70AAE
:104C7000002B00F0EF80B0EE482A2FA8B0EE6B1AA0
:104C8000FCF786FD9DED2F0ADDED300A6DEE200A62
:104C90008B4BDDED0B6AEDEEC00AC3ED000AD3EDE0
:104CA000007A834BA8EE27FADDED167A83ED00FA41
:104CB000844B9AED007A37EE677AD3ED007A67EE8F
:104CC000E67ADDED0D6AE6EEC77AF4EEE97AF1EE0A
:104CD00010FA00F1BC809FED7C7AF4EEC77AF1EE19
:104CE00010FA77FE277A794BC3ED007A744BD3ED37
:104CF000007A6AEEE77AEFEE0A7AF4EEC97AF1EE1C
:104D000010FA00F1A1809FED727AF4EEC77AF1EE0D
:104D100010FA77FE277A674B3AA96848C3ED007A04
:104D2000D3ED007AD3ED000A6DEEE77A674B6DEEB6
:104D3000200A93ED001A20EEE10A6BEEA00AABEE1A
:104D4000A70AE1EEA70A05F053FF002800F0A280B1
:104D5000604B1B684BB9DBF80030002B40F08C80B7
:104D60005D4B1B780BB9FCF783FF06F057FB20B9AE
:104D700006F05AFB002840F087803AA806F0E0F8D9
:104D800040B9564B1A68092A01D005221A603046EC
:104D9000FFF788BB09F0DAFF3EA906F01FF970B9EA
:104DA000B8F1000F04D14E4805F0CCFA4B4BECE7BC
:104DB000CDE93E00CDE940004A4805F0C3FA059B25
:104DC000E31AF92B4ED807F039FEF0EECF7AF4EE65
:104DD000CB7AF1EE10FA31D8394B9FED437AD3ED0F
:104DE000007AF0EEE77AF4EEC77AF1EE10FA25D801
:104DF000DAED007ADDED166A9FED3C7A77EEE67A21
:104E0000F0EEE77AF4EEC77AF1EE10FA16D82D4BF1
:104E10009FED377AD3ED007AF0EEE77AF4EEC77AB9
:104E2000F1EE10FA0AD8069B002B65D0E31A3B2B53
:104E300000F2928025464FF00008C3E60023069357
:104E4000F8E7B0EE688AE4E6F0EE497A63E7F0EE60
:104E5000697A48E701238DED2F0ACDED300A8DF8F0
:104E6000C43013E73EA92046FBF722FE0594AAE7CB
:104E7000012009F071FFA5E61E4B1B78002B7FF483
:104E800074AFFCF725F870E7FBF720FD134B092200
:104E90001A6077E7114B062230461A60FFF702BB13
:104EA0001C9DF0EE607A00231995F9E4A805002016
:104EB0009805002094050020CDCC4C3D3CF2010823
:104EC00090050020B00500203333B33EA405002038
:104ED000EC51383EDC0400206F050020BC050020AA
:104EE0006CCF010848CF01088FC2F53C0AD7A33C1C
:104EF0000AD7233DE604002006949BE70023032005
:104F0000204A1360FBF78EFDFCF7FAFF0646304699
:104F1000FFF7C8BACDED251A8DED246A8DED215A23
:104F2000CDED207ACDED1F5ACDED1E0A8DED084A4C
:104F300012F0F8FEDDED251AB0EE407A9DED246A00
:104F40009DED215ADDED207ADDED1F5ADDED1E0AC3
:104F50009DED084AFFF732B900230220D0E79FED0C
:104F60000A7A2A461995F4EEC77ADFED087AF0EE50
:104F7000670AF1EE10FA94BF4FF001084FF00008F5
:104F80004346C9E4940500200AD7233D00000000F1
:104F90002DE9F047C6B0602106A809F037F90028CE
:104FA00035D006AD934E944F05EB0008DFF8A49280
:104FB00006E0611C7F292DD831603B55A84526D0DD
:104FC00015F8013B34680D2B06D0A3F10A02B2FAA2
:104FD00082F25209002AECD00023884986483B55CA
:104FE00014F088F9824650B1B84208D0FBF77AF93C
:104FF000044651463846621C14F0E2F8346014B19D
:10500000D9F80030E3B90023A8453360D8D146B0C1
:10501000BDE8F087DFF840A232609AF80020D9F8A6
:105020000030002A5DD0764A0192A021754A1EA860
:105030000092754A14F020F81EA805F04FF9BDE75C
:1050400005AC72480DF113022146FBF7B7FE0028AC
:1050500049D02368D9F80020DFF8FCA193425CD046
:105060000DF1130221466A48FBF7A8FE20B1236820
:10507000D9F8002093426BD00DF113022146654808
:10508000FBF79CFE20B12368D9F80020934277D02B
:105090000DF1130221466048FBF790FE28B123680A
:1050A000D9F80020934200F082800DF113022146CE
:1050B0005A48FBF783FED9F800309AF8002010B167
:1050C00024689C4214D08AB14D4A0192544A0092FD
:1050D0004D4AA0211EA813F0CFFF1EA805F0FEF830
:1050E00091E7504AA0E7DFF870A1B9E74D4AECE735
:1050F0009DF813109142E6D14B4B00224B481A7099
:1051000005F0D4F89AF80030002B6ED03C4B434A9F
:10511000009323460192464ADBE79DF813109AF864
:10512000002091429CD1434A127812B9424A01218F
:1051300011704248039305F0B9F89AF80020039BD8
:10514000002A4CD1374A0092304A0192384AC0E7CF
:105150009DF813109AF8002091428DD1384A012110
:1051600038480393117005F0A1F89AF80020039BCA
:10517000002A36D0224A0092254A01922C4AA8E7FA
:105180009DF813109AF80020914281D12E4A0121F6
:105190002E480393117005F089F89AF80020039BBC
:1051A0000AB3174A00921B4A0192214A91E79DF8DF
:1051B00013109AF8002091427FF477AF1A4A012128
:1051C00023480393117005F071F89AF80020039BAF
:1051D0006AB10B4A0092104A0192154A79E7084ACF
:1051E000B1E7104AC7E70F4ADCE70E4B8FE70D4ADD
:1051F000F0E700BF7C030020FC02002080C2010811
:1052000008C2010808D20108D0D1010874C40108FD
:10521000B4C40108F8C3010870D10108A0D1010885
:1052200000D201080CC20108D4040020A8D1010852
:10523000F0D00108D5040020D8040020C8D001080F
:10524000D704002020D10108D604002048D101084D
:1052500078D10108DC040020E4040020B5EEC00A87
:1052600000230022F1EE10FA2DE9F04F2DED108B06
:10527000C5B0F0EE60CA1493189311921292139273
:1052800017931B93CDE91533CDE9193300F16183F1
:10529000B7EE00DADFF84CA3B0EEC0BADFF848B3DF
:1052A0009AED00CA09F052FDA0F1FA03B44A059044
:1052B0000893DBF800301268002B00F01F83131EE8
:1052C000F6EE00FAAF4A18BF01239FEDAFFADFED0B
:1052D000AFAA0A9301239FEDAEEA0993CDE9062315
:1052E000DFEDAC7AB0EE4E9AAB4BAC4AF0EE679A7B
:1052F000C3ED007AF0EE678AA94BB0EE67AA059E6F
:10530000C3ED007AA74B3546DFEDA7BAC3ED007AAF
:10531000A64BDFEDA7EAC3ED007AA64BDFEDA6DAD8
:10532000C3ED007ADAF800301360002301229946B9
:105330000493039209F00AFD059B049A0446C31ADC
:105340009B1A069A934280F00E83079B002B40F035
:105350004D81631B092B40F2D5810A35631B092B54
:1053600000F2098133462646E31A08EE103AB8EEF9
:10537000488A28EE2B8AB4EEEB8AF1EE10FA00F19F
:10538000B781B4EEED8AF1EE10FA3DFE888AB0EEF8
:10539000480AFBF7E3FA13AB11AA18A9009312AB62
:1053A000864805F09DFC002800F0D682DAED007AF0
:1053B000B5EE007A77EECC7A9AED00CAF0EEE76AA5
:1053C000F4EEC76AF1EE10FA07D8EDEE279AB4EEC4
:1053D000E9AAF1EE10FA7AFE299A7BEE697A099B26
:1053E000B4EEE7AAF1EE10FA7AFE277A002B00F06D
:1053F000BF80734B2FEE887A1B78002B4EFE0F6A0E
:10540000B4EEE69AF1EE10FA40F1758139EE079AA2
:1054100089FE669A3AEEAA0A20EE270AB5EE400AFD
:10542000F1EE10FA00F16283F1EEC07AB4EEE79A81
:105430002AEE887AF1EE10FA78EEC76A77FE897A5A
:1054400067EE8D7AF4EEE67AF1EE10FA00F147811C
:1054500077EE288AF4EEE87AF1EE10FA78FEA78A61
:105460006CEEE80A4C4BB0EE681A14A9B0EE4A0A8A
:105470005248F0EEE07AC3ED007A494BC3ED008A62
:1054800005F0B6FB002800F06782DBF800304BB96E
:105490004C4B1B68002B40F039814B4B1B780BB9F0
:1054A000FCF7E6FB05F0BAFF20B905F0BDFF0028C8
:1054B00040F0AC8114A805F043FD58B9434B1A687D
:1054C000092A01D005221A60002045B0BDEC108BDE
:1054D000BDE8F08F09F03AFC18A905F07FFD78B916
:1054E000039B33B93A4804F02DFF384B05221A606C
:1054F000EAE7CDE91800CDE91A00364804F022FFAA
:10550000DDED137A344BF0EEE77A93ED007A67EE37
:10551000AC7AA7EE887A83ED007A089BE31AF92B20
:1055200000F2E08007F08AFA7BEE6E7AF4EEE97A18
:10553000F1EE10FA17D8294B9FED297AD3ED007AB6
:10554000F0EEE77AF4EEC77AF1EE10FA0BD8B9F183
:10555000000F00F05781A4EB09044F2C00F2BF822A
:1055600000230393E6E64FF00009CDF80C90E1E646
:10557000B0EE4E9A4EE7334625462646F4E600BF87
:10558000D0040020C0D401000AD7A33D9A99193F46
:10559000CDCC4C3E00000000A80500208C0500206A
:1055A000A4050020980500206F12833A940500207E
:1055B0000AD7A33C90050020CDCC4C3D3CF201081D
:1055C000D4040020E80400206F050020BC05002062
:1055D0006CCF010848CF0108A0050020B0050020CD
:1055E0000AD7233DAC050020DC04002009F0AEFB07
:1055F0000A9B0C90002B00F09180A94BA94F1B68CF
:105600000B93FCF7C7F997F80080B8F1000F40F052
:105610000381A54A1378002B3FF49BAEFCF770FC86
:10562000A14A002800F05182012382F800809F4A9D
:1056300013709F4B1B78002B00F072819D4B1CA8B0
:1056400001930B9BA02180469B4A00939B4B13F038
:1056500013FD4046CDF8348004F040FE09F076FB9F
:10566000924B1B78002B3FF474AE8046CDE90E546C
:105670000D9C09E007F0E2F90A2009F06DFB8B4B65
:105680001B78002B00F06C8109F060FB0546FCF7ED
:1056900081F905F0C9FEA5EB0802002840F06781FA
:1056A0003B78002B40F0A18185490978002940F022
:1056B000F681F92ADED97E4B1B78002B00F047815A
:1056C0007C4B0B9AA0212046A846CDE900237B4BBA
:1056D000794A13F0D1FC204604F000FECAE7F0EE50
:1056E000668ABDE618A92046FBF7E2F9089419E797
:1056F000B0EE6B8A4BE67FF78DAE39EE479A89FEA6
:10570000269A87E6012009F027FB13E66D4B1B78EC
:10571000002B7FF4C7AEFBF7DBFBC3E6DBF8003002
:105720000B93FFF735FC684B1B78002B40F08D8006
:10573000664B1B78002B3FF40CAEFCF7E1FB002816
:1057400000F0C381614B0A9ADFF8A0811A7001232F
:1057500088F800305E4B1B78002B40F0DF805D4BFB
:105760001CAF01930B9B80215B4A38460093534B3F
:1057700013F082FC38460D9704F0B0FD09F0E6FA0C
:105780000746564804F092FD98F80030002B3FF48D
:10579000E0ADCDE90E540D9C09E007F04FF90A2069
:1057A00009F0DAFA98F80030002B00F0D98009F0FF
:1057B000CDFA0546FFF7ECFB05F036FEEA1B0028A4
:1057C00040F0EE80404B1B78002B40F0188144499C
:1057D0000978002940F03781F92ADED93C4B1B7843
:1057E000002B00F0B280334B0B9A802120462F46CD
:1057F000CDE90023314B384A13F03EFC204604F03B
:105800006DFDCAE70023A146039393E5FBF75EF81D
:10581000344B09221A6052E6FCF772FB002800F0B4
:105820005481234B1B78002B7ED12A4B0B9AA0214D
:1058300001931CA82C4B00921F4A13F01DFC1CA8BE
:1058400004F04CFD00233B7024E0FCF759FB0028DA
:1058500000F03B811E4B1B78002B63D11D4B019345
:1058600080210B9B1CA81C4A00931F4B13F004FCC7
:105870001CA804F033FD0023134A144913701B4A7B
:105880000B7013701A4A16491370164ACBF8003081
:105890000B701360DAF800300120164A136014E62A
:1058A000D0040020CA040020CC040020C904002039
:1058B000CD04002008C2010820D201084CD2010802
:1058C000CB040020E6040020D6040020D8040020E9
:1058D000E40400200CC201085CD2010880D2010857
:1058E000D7040020BC05002018D20108D5040020F0
:1058F000D40400208C050020CDCC4C3EB2B11FED6D
:1059000002FA7D4A09930123B0EE4FEADFED7BAA4C
:10591000DFED7BFA0A93CDE90623E1E4794B1FE73B
:10592000794B8CE6774B9AE7764B7FE7B7EE00FA38
:1059300042F6E061DFED75AADFED71FAB0EE4FEAF5
:1059400009920A92CDE90612CAE46F4B4CE76E4BFE
:10595000B7E6BFEE00DA9DE46D4B06221A60B3E5B0
:10596000DDE90E54F5E46A4B07221A60ACE5FCF75A
:10597000C7FA684B1B78002B3FD0624B0D9CA021CF
:1059800001930B9B2046644A0093644B13F074FB15
:10599000204604F0A3FC0023614A3B70137079E7B2
:1059A000FCF7AEFA5F4B1B78002B00F09080554B54
:1059B0000D9C802101930B9B20465B4A0093574B23
:1059C00013F05AFB204604F089FC0023574ACBF819
:1059D00000301370564A88F800301370554A13701F
:1059E0004B4A1360544A137054E7FCF789FA0028B5
:1059F0006BD0484B1B78002BBFD1434BBEE7FCF765
:105A00007FFA002861D0474B1B78002B65D03D4BB7
:105A10000D9C802101930B9B2046434A00933F4BF2
:105A200013F02AFB204604F059FC00233F4ACBF830
:105A3000003013703E4A88F800301370344A136007
:105A40003D4A137026E73C4A3A491370354A88F8B4
:105A5000003012780B70002A3BD02A4B0D9C80211D
:105A600001930B9B2046304A0093344B13F004FB08
:105A7000204604F033FC324804F018FC09F066F9C3
:105A8000049B0C9ADFED1E8A9B1AC318049309F03D
:105A90005DF90123054604460646039362E4294A5C
:105AA00013701F4A13701B4B1B78A3B1154B0D9C31
:105AB000A02101930B9B2046174A00931F4B13F024
:105AC000DBFA204604F00AFCD8E7114BFAE40E4B4F
:105AD0006EE70D4BC2E70C4BE9E70B4B98E7DAF8A2
