:020000040800F2
:1000000000000220B90700080D0800080D080008CC
:100010000D0800080D0800080D0800080000000089
:100020000000000000000000000000000D080008B3
:100030000D080008000000000D080008E13000086D
:100040000D0800080D0800080D0800080D0800083C
:100050000D0800080D0800080D0800080D0800082C
:100060000D0800080D0800080D0800080D0800081C
:100070000D0800080D0800080D0800080D0800080C
:100080000D0800080D0800080D0800080D080008FC
:100090000D0800080D0800080D0800080D080008EC
:1000A0000D0800080D0800080D0800080D080008DC
:1000B0000D0800080D0800080D0800080D080008CC
:1000C0000D0800080D0800080D0800080D080008BC
:1000D0000D0800080D0800080D0800080D080008AC
:1000E0000D0800080D080008000000000D080008B9
:1000F0000D0800080D0800080D0800080D0800088C
:100100000D0800080D0800080D0800080D0800087B
:100110000D0800080D0800080D0800080D0800086B
:100120000D0800080D0800080D0800080D0800085B
:100130000D0800080D0800080D0800080D0800084B
:1001400000000000000000000000000000000000AF
:100150000D0800080D0800080D0800080D0800082B
:100160000D0800080D0800080D0800080D0800081B
:100170000D080008E53000080D0800080000000028
:100180000D0800080D0800080D0800080D080008FB
:100190000D0800080D0800080D0800080D080008EB
:1001A0000D0800080D0800080D08000800000000F8
:1001B0000D0800080D0800080D0800080D080008CB
:1001C0000D0800080D0800080000000000000000F5
:1001D00000000000000000000D0800080000000002
:1001E000000000000000000000000000000000000F
:1001F00000000000000000000D0800080D080008C5
:100200000D0800080D080008000000000D08000897
:100210000D0800080D0800080D0800080D0800086A
:100220000D080008000000000D0800080000000094
:100230000D0800080D080008000000000D08000867
:100240000D0800080D0800080D0800080D0800083A
:100250000D0800080D0800080D0800080D0800082A
:100260000D0800080D0800080D0800080D0800081A
:100270000D0800080D0800080D0800080000000027
:100280000D0800080D0800080D0800080D080008FA
:10029000000000000D0800080D0800080000000024
:1002A000000000000D0800080D0800080D080008F7
:1002B0000D0800080D0800080D0800080D080008CA
:0C02C0000D0800080D0800080D080008DB
:1002D000034613F8012B002AFBD1181A0138704786
:1002E00001F0FF01102A2BDB10F0070F08D010F8E7
:1002F000013B013A8B422DD010F0070F42B3F6D1EB
:10030000F0B441EA012141EA014122F007047FF003
:1003100000070023F0E80256083C85EA010586EA5A
:10032000010685FA47F5A3FA87F586FA47F6A5FA96
:1003300087F68EB9EED1F0BC01F0FF0102F00702A2
:1003400032B110F8013B013A83EA010313B1F8D14D
:100350000020704701387047002D06BF354603382E
:10036000073815F0010F07D1013015F4807F02BF67
:10037000013015F4C03F0130F0BC0138704700BFB8
:1003800081F0004102E000BF83F0004330B54FEA46
:1003900041044FEA430594EA050F08BF90EA020FB3
:1003A0001FBF54EA000C55EA020C7FEA645C7FEA46
:1003B000655C00F0E2804FEA5454D4EB5555B8BF69
:1003C0006D420CDD2C4480EA020281EA030382EADA
:1003D000000083EA010180EA020281EA0303362D6C
:1003E00088BF30BD11F0004F4FEA01314FF4801C3F
:1003F0004CEA113102D0404261EB410113F0004F51
:100400004FEA03334CEA133302D0524263EB430307
:1004100094EA050F00F0A780A4F10104D5F1200EA5
:100420000DDB02FA0EFC22FA05F2801841F1000100
:1004300003FA0EF2801843FA05F359410EE0A5F1D4
:1004400020050EF1200E012A03FA0EFC28BF4CF005
:10045000020C43FA05F3C01851EBE37101F00045BB
:1004600007D54FF0000EDCF1000C7EEB00006EEBC8
:100470000101B1F5801F1BD3B1F5001F0CD3490852
:100480005FEA30004FEA3C0C04F101044FEA4452A9
:1004900012F5800F80F09A80BCF1004F08BF5FEA30
:1004A000500C50F1000041EB045141EA050130BD10
:1004B0005FEA4C0C404141EB0101013C28BFB1F522
:1004C000801FE9D291F0000F04BF01460020B1FA6D
:1004D00081F308BF2033A3F10B03B3F120020CDA40
:1004E0000C3208DD02F1140CC2F10C0201FA0CF01E
:1004F00021FA02F10CE002F11402D8BFC2F1200C83
:1005000001FA02F120FA0CFCDCBF41EA0C01904038
:10051000E41AA2BF01EB0451294330BD6FEA040481
:100520001F3C1CDA0C340EDC04F11404C4F120026C
:1005300020FA04F001FA02F340EA030021FA04F37E
:1005400045EA030130BDC4F10C04C4F1200220FAD5
:1005500002F001FA04F340EA0300294630BD21FA13
:1005600004F0294630BD94F0000F83F4801306BFD9
:1005700081F480110134013D4EE77FEA645C18BFCD
:100580007FEA655C29D094EA050F08BF90EA020F64
:1005900005D054EA000C04BF1946104630BD91EA5C
:1005A000030F1EBF0021002030BD5FEA545C05D15F
:1005B0004000494128BF41F0004130BD14F580049E
:1005C0003CBF01F5801130BD01F0004545F0FE4112
:1005D00041F470014FF0000030BD7FEA645C1ABF47
:1005E000194610467FEA655C1CBF0B46024650EA7E
:1005F000013406BF52EA033591EA030F41F40021AA
:1006000030BD00BF90F0000F04BF0021704730B52F
:100610004FF4806404F132044FF000054FF0000104
:1006200050E700BF90F0000F04BF0021704730B5C5
:100630004FF4806404F1320410F0004548BF40429A
:100640004FF000013EE700BF42004FEAE2014FEAEF
:1006500031014FEA02701FBF12F07F4393F07F4FCA
:1006600081F06051704732F07F4208BF704793F0CD
:100670007F4F04BF41F40021704730B54FF46074E0
:1006800001F0004521F000411CE700BF50EA0102E3
:1006900008BF704730B54FF000050AE050EA01028C
:1006A00008BF704730B511F0004502D5404261EBFC
:1006B00041014FF4806404F132045FEA915C3FF43D
:1006C000D8AE4FF003025FEADC0C18BF03325FEADA
:1006D000DC0C18BF033202EBDC02C2F1200300FA8B
:1006E00003FC20FA02F001FA03FE40EA0E0021FAB0
:1006F00002F11444BDE600BF53B94AB9002908BF4E
:1007000000281CBF4FF0FF314FF0FF3000F00CB855
:10071000ADF1080C6DE904CE0BF0C4FADDF804E08D
:10072000DDE9022304B07047704700BF0348044B63
:10073000834202D0034B03B1184770475401002095
:1007400054010020000000000548064B1B1AD90F79
:1007500001EBA301491002D0034B03B118477047C6
:1007600054010020540100200000000010B5064C88
:10077000237843B9FFF7DAFF044B13B10448AFF312
:1007800000800123237010BD6001002000000000E4
:10079000C4BF000808B5054B1BB105490548AFF3B8
:1007A0000080BDE80840FFF7CFBF00BF0000000099
:1007B00064010020C4BF0008DFF838D000F028F83A
:1007C000002103E00C4B5B58435004310B480C4BA9
:1007D00042189A42F6D30B4A02E0002342F8043B47
:1007E000094B9A42F9D303F037FF0AF0CBFD01F031
:1007F000E1FE7047000002200CC700080000002046
:100800005401002060010020E4C30020FEE7000046
:10081000044AD36843F00203D36053689B04FCD5B9
:10082000704700BF0048025800B5DFF86CC00B46A7
:10083000DFF868E083B0174A9EF8001012689CED5C
:10084000000ADFF85CC0DCED000ADFF858C09CED60
:10085000001ADFF854C0DCED001ADFF850C09CED40
:10086000002ADFF84CC0DCED002ADFF848C09CED20
:10087000003ADFF844C0DCED003ADFF840C09CED00
:10088000004A4FF0000CCDF800C002F0A3FE03B008
:1008900000BD00BF180200200C0200201C02002036
:1008A000080200200402002000020020FC010020B9
:1008B000F8010020F4010020F0010020EC010020EC
:1008C00010B582B0044603F085FF144B1449154A55
:1008D0000094DFF868C00978126893ED000A124BA3
:1008E000DCED000A93ED001ADFF854C00F4BDCED8D
:1008F000001A93ED002ADFF84CC00D4BDCED002A06
:1009000093ED003ADFF840C00A4BDCED003A93ED7E
:10091000004A094B02F05EFE02B010BD0C0200203E
:100920001C0200201802002004020020FC0100200C
:10093000F4010020EC01002078C400080802002027
:1009400000020020F8010020F001002007231E4CC7
:100950001E4D00B583B020602B7002F02DFD02F01B
:1009600043FD03F037FF1A4B2978226893ED000A04
:10097000184BD3ED000A184B93ED001A174BD3ED2B
:10098000001A174B93ED002A164BD3ED002A164B95
:1009900093ED003A154BD3ED003A154B93ED004A19
:1009A00014230093134B02F015FE2878216802F0FF
:1009B0005BFE02F06DFF02F0FFFC02F015FD4FF44C
:1009C000FA7003F00DFFF6E7180200201C02002069
:1009D0000C02002008020020040200200002002077
:1009E000FC010020F8010020F4010020F0010020AB
:1009F000EC01002088C4000800B58BB000234FF044
:100A0000000C03AA04A807A98DED010A0693099317
:100A1000CDF80CC0CDE90433CDE9073303F054FC25
:100A2000DDED067A03980C49F1EE677A0B4B08600E
:100A300093ED007A0A4A77EEC77A0A4B9DED010AD8
:100A4000C2ED007A92ED007AD3ED007AE7EE007AFB
:100A5000C3ED007A0BB000BDF801002010020020A9
:100A60000C020020080200202DE9F04F364D91B015
:100A700003F0B0FE2B7823B934490B68C31AF92B65
:100A80005DD84021684603F007F9F8B16E46304F53
:100A9000304C0DEB000806E0501C5F2819D8386078
:100AA000A354464512D016F8013B3A680D2B06D0E8
:100AB000A3F10A01B1FA81F149090029ECD0002320
:100AC000A3545AB9002346453B60ECD111B0BDE8B0
:100AD000F08F2148396002F0E3F8E2E71F4802F0A6
:100AE00093F8204602F090F81D4802F08DF819495D
:100AF000DFF87890522301F10C0B0A78A3F1610022
:100B0000A3F1200E0131A2F1200CA2F1610AC0B2C2
:100B10005FFA8EFE5FFA8CFC192898BF7346BAF113
:100B2000190F98BF62469A42CCD18B4519F8013F04
:100B3000E3D101230B482B7002F066F8C2E708608E
:100B4000094802F079F89CE7E5010020E001002067
:100B50007C0100208001002054C0000838C000083B
:100B600034C0000878C000082CC0000844C0000849
:100B700008B5044B1B780BB9FFF776FFBDE80840BA
:100B800002F01ABCE40100202DE9F04F784C002659
:100B9000784BD4ED007ADFF824922DED0C8B89B0E0
:100BA00070EE27AA93ED00DA00960396DFED728AC5
:100BB000DFED729ADFED72BA9FED729A9FED72AA25
:100BC0009FED72BACDE9016603F004FEDFED707AA5
:100BD000704B0746B0EE67CAC4ED00AAC3ED007AB9
:100BE000A0F1FA086C4B0546C9ED007A0446C3ED46
:100BF000007A6A4BC3ED007A694BCDE90466CDE912
:100C00000666C3ED007A41F26F7B03F0E3FDC21B81
:100C10008246411B5A4500F29F800929F5D9031BE2
:100C20000A3500EE103A421BB8EE400A092A88BF86
:100C3000054620EE280AB4EEE80AF1EE10FA70D468
:100C4000B4EEE90AF1EE10FA39FE808AB0EE480AF5
:100C5000FFF7D2FE04A9504602F0CCFB002872D068
:100C6000504C7AEECDCAD4ED007A6BEEE77AECEE1A
:100C7000897AF4EECA7AF1EE10FA55D4F4EEC97A14
:100C8000F1EE10FA79FE277A28EE0B0A3CEE407A54
:100C9000B4EEE77AF1EE10FA49DC3CEE000AF4EE2D
:100CA000C07AF1EE10FA30FE27CADFED390AB0EE55
:100CB0004C1A69463C48B0EE600A89ED00CA02F061
:100CC00017FA00284CD0394A12780AB9FFF7CCFE3F
:100CD000684602F041FBB0B3AAEB0802254BF92AA3
:100CE00093ED00DA26D8F0EEECCADFED317AF4EEBF
:100CF000E7CAF1EE10FA11D8D4ED007A9FED2D7A03
:100D0000F0EEE77AF4EEC77AF1EE10FA06D8BEB14B
:100D1000AAEB06024F2A27D8544674E70026544609
:100D200071E7B0EE688A91E7F0EE4A7AACE7B0EE90
:100D300047CABAE704A95046D046FFF775FDD2E787
:100D4000564654465FE71C4B05221A60002009B046
:100D5000BDEC0C8BBDE8F08F174B07221A60F5E74E
:100D6000154B06221A60F1E7FFF702FFEFE700BF1D
:100D7000E8010020080200206F12833ACDCC4C3DE0
:100D8000CDCC4C3ECDCC0C40CDCC0CC033337340DD
:100D90000000000004020020F4010020F001002007
:100DA000EC0100200C020020A8C40008E40100208F
:100DB0000AD7A33C0AD7233D1802002000020020D6
:100DC000F8B5064603F006FD0546A0F10A0705E062
:100DD00003F000FDC31B0446092B05D803F0FAFC01
:100DE000401BB042F4D3F8BD0B4B1B785BB12746D8
:100DF00002F0E2FA0028F1D108490520084B072249
:100E000008601A70F8BDFFF72FFE274602F0D4FAEB
:100E10000028E3D1F0E700BFE40100201802002021
:100E20001C0200202DE9F04FE5B04FF0000B03F05D
:100E3000D1FC7C4B7C4A40218046A0F1C807A0F140
:100E40000A0614A80AF05EFA764B784A402124A8D4
:100E50000AF058FA734B764A60214CA80AF052FA0D
:100E60004CA801F01DFF03F0B5FC43F69723A0EB5F
:100E7000080204469A4200F2C280831B092B00F24A
:100E8000A380E31BC72B00F2AC80402104A802F032
:100E900003FF0028E7D00DF1100903965A46464695
:100EA00009EB000A0AE00DEB0203002183F8D010E1
:100EB000E2B909F101090022D14513D099F80030B7
:100EC0000A2B18BF0D2B0CBF01240024EBD0511CA2
:100ED0005F2972D809F101096A44D14582F8D030FE
:100EE0000A46EBD1B0469346039EBCE751480DF14C
:100EF000D00801F089FE34A801F086FE4E4801F0CA
:100F000083FE0DF1DC0BDFF854C141465223CDE9DD
:100F100001780A78A3F1610EA3F120070131A2F153
:100F20002000A2F161085FFA8EFEFFB2C0B2BEF1EE
:100F3000190F98BF3B46B8F1190F98BF02469A4265
:100F40003FD159451CF8013FE3D13C4B01223C48BD
:100F50001A70DDE9017801F057FE9DF89030FBB181
:100F60000DF1900B98F80020A3F1610CA3F1200083
:100F700008F10108A2F12001A2F1610E5FFA8CFCD8
:100F8000C0B2C9B2BCF1190F98BF0346BEF1190F28
:100F900098BF0A469A428CD11BF8013F002BE1D141
:100FA000204B6021274A4CA80AF0ACF94CA801F06C
:100FB00077FE204665B0BDE8F08F234801F070FE53
:100FC00077E7DDE90178C8E7204B1B780BB9FFF71D
:100FD0004BFD02F0F1F900B3E31B2646C72B7FF669
:100FE00054AF14A8274601F027FE0E4B184A602183
:100FF0004CA80AF087F94CA801F006FE45E7094B1A
:101000006021144A4CA80AF07DF94CA801F048FE72
:10101000114B08221A600024CBE70F4B05221A60FF
:10102000F9E700BF8CC000089CC00008ACC00008F5
:10103000BCC0000838C0000834C00008E50100202A
:1010400078C0000808C1000820C10008E4010020A1
:10105000F0C00008D4C000081802002044C00008F6
:101060002DE9F04FE3B04FF0000A03F0B3FB734BF0
:10107000A0F1C809724A1B784021724BA0F10A07FF
:1010800012A84E460AF03EF96E4B6F4A402122A844
:101090000AF038F96B4B6D4A60214AA80AF032F920
:1010A0004AA801F0FDFD03F095FBC31B8046092B08
:1010B00037D8A8EB0603C72B3ED8402102A802F080
:1010C000EBFD0028EFD00DF10809524609EB000BAB
:1010D0000BE00DEB0203002183F8C810002A39D180
:1010E00009F101090022D94514D099F800300A2BE2
:1010F00018BF0D2B0CBF01240024EAD0511C5F291E
:1011000000F2908009F101096A44D94582F8C8309B
:101110000A46EAD1924603F05DFBC31B8046092BC9
:10112000C7D9FFF725FD0446002800F08280A8EB10
:1011300006034746C72BC0D912A8464601F07CFDDE
:10114000404B434A60214AA80AF0DCF84AA801F063
:101150005BFDB2E73F480DF1C80801F055FD32A82C
:1011600001F052FD3C4801F04FFD0DF1D40ADFF8CB
:10117000FCC041465223CDE900760A78A3F161070D
:10118000A3F120060131A2F12000A2F1610EFFB20D
:10119000F6B2C0B2192F98BF3346BEF1190F98BFEF
:1011A00002469A4242D151451CF8013FE5D1012344
:1011B000224A2A481370DDE9007601F025FD1F4B15
:1011C0001B789DF8883003B30DF1880A98F8002049
:1011D000A3F1610CA3F1200008F10108A2F12001A4
:1011E000A2F1610E5FFA8CFCC0B2C9B2BCF1190F5A
:1011F00098BF0346BEF1190F98BF0A469A427FF482
:101200006FAF1AF8013F002BE0D10E4B6021144A5A
:101210004AA80AF077F84AA801F042FD204663B0D8
:10122000BDE8F08F0F4801F03BFD59E7DDE900769E
:10123000C5E70D4B05221A60F0E700BFE50100206D
:101240003CC100088CC000084CC100085CC100080B
:1012500074C1000838C0000834C0000878C0000815
:1012600094C1000820C100081802002044C00008F2
:101270002DE9F04FADF5157D04460025019003F0F2
:10128000A9FAB24B8246B24A40211B78A0F1C803AA
:10129000A0F10A0914A8029323460AF033F8234662
:1012A000AC4A402124A8A8460AF02CF82346AA4AB2
:1012B000402134A80AF026F82346A84A402144A831
:1012C0000AF020F82346A64A402154A80AF01AF84A
:1012D0002346A44A60217CA80AF014F87CA801F0F7
:1012E000DFFCCDF80CA003F075FAA0EB090304466F
:1012F000092B38D8B8F1000F44D0039BE31AB3F59B
:101300007A7F80F05B81402104A802F0C5FC0028B0
:10131000E9D004ACCA4626180AE00DEB050300220A
:1013200083F89021002D3FD100250134B44212D022
:1013300023780A2B18BF0D2B0CBF01270027ECD0F8
:101340006A1C5F2A00F2EF8001346D44B44285F8D4
:1013500090311546ECD1D14603F03CFA0446A0EB9F
:101360000903092BC6D9804B1B780BB9FFF77CFB0F
:1013700002F022F80746002800F02581A146B8F1C6
:10138000000FBAD1029BE31AC72BBCD914A801F0F5
:1013900053FC019B754A60217CA809F0B3FF7CA82F
:1013A00001F032FC0294AEE7714864AD01F02CFC10
:1013B00064A801F029FC6F4801F026FCDFF8C89111
:1013C0000DF5CE7B29465223CDF800800A78A3F193
:1013D000610EA3F1200C0131A2F12000A2F16108FD
:1013E0005FFA8EFE5FFA8CFCC0B2BEF1190F98BF97
:1013F0006346B8F1190F98BF02469A4240F0C68082
:10140000594519F8013FE1D10123504A5A48137058
:10141000DDF8008001F0F8FB4C4B1B789DF8D030D4
:10142000002B00F0BC800DF1D00B0DF5C87E04E060
:101430001BF8013F002B00F0B2809EF80020A3F1C2
:10144000610CA3F120000EF1010EA2F12001A2F126
:1014500061095FFA8CFCC0B2C9B2BCF1190F98BF28
:101460000346B9F1190F98BF0A469A42E0D09DF899
:101470001031002B5BD00DF5C87E0DF5887B03E0A5
:101480001BF8013F002B52D09EF80020A3F1610C05
:10149000A3F120000EF1010EA2F12001A2F16109D9
:1014A0005FFA8CFCC0B2C9B2BCF1190F98BF0346F9
:1014B000B9F1190F98BF0A469A42E1D0B8F1000F6E
:1014C0003FF432AF9DF85031E3B10DF5A87E2A7894
:1014D000A3F16107A3F120000135A2F12001A2F1DF
:1014E000610CFFB2C0B2C9B2192F98BF0346BCF15C
:1014F000190F98BF0A469A427FF416AF1EF8013FB3
:10150000002BE4D103F066F9A0F1C8031B4A602167
:1015100002937CA8019B002509F0F4FE7CA8A84654
:1015200001F0BEFB01E7164801F0BAFBFCE6019BA7
:101530006021144A7CA809F0E5FE7CA801F0B0FB0C
:1015400038460DF5157DBDE8F08F00BFE5010020A0
:101550003CC10008ACC100084CC10008ACC0000888
:10156000BCC10008CCC10008E4010020E0C10008B3
:1015700038C0000834C0000878C000081CC2000849
:1015800020C1000808C2000844C00008124BDDF862
:1015900000801B789DF8D030002B7FF444AF019B76
:1015A00060210E4A7CA809F0ADFE7CA801F078FB12
:1015B0009DF81031002BBAD0B8465CE724A801F0A2
:1015C0003BFB03949FE6064B052238461A600DF557
:1015D000157DBDE8F08F00BFE5010020F8C10008CF
:1015E0001802002060EEA07A0023F0EEE06A0022EC
:1015F000B0EEC07ADC49E0EE007AF4EEC76A2DE97D
:10160000F04FF1EE10FA2DED108B9FB0F1EEE7AA3E
:10161000D1ED00CA0E9312930892B0EE608A09923F
:10162000F0EE408A0A92F0EE41EA1193F0EE61DAB0
:101630001593B0EE42CACDE90F33CDE9133340F331
:10164000CD81F1EE04FAB5EE00FA9FEDC8DA03F0B1
:10165000C1F8F4EECDAAF1EE10FA00F1B681DFED9B
:10166000C47AF4EEE7DAF1EE10FA40F2AE81B4EEAD
:10167000E7CAF1EE10FA40F2A881C8EEAA9A9FEDEF
:10168000BDEAA0F1FA03BC4DBC4F0646DFF8289333
:101690008346DFF8288388EE2AAA0493B84BC5ED69
:1016A000007A0390C7ED007AB0EE679AC3ED007A36
:1016B0003EEECEEAC9ED007AF0EE67BAC8ED007AE8
:1016C000B0EE67BAB4EECEBAF1EE10FA40F1AD81E9
:1016D000F4EECEBAF1EE10FA40F1A78143F6972A64
:1016E00003F078F8039B821BC31A534500F29981DB
:1016F000092AF5D9A0EB0B030A36044608EE103A86
:10170000831BB8EE488A092B88BF064628EE0D8A4F
:10171000B4EECD8AF1EE10FA00F17981DFED997A1D
:10172000B4EEE78AF1EE10FA37FE888AB0EE480A86
:10173000FFF762F912A9204601F05CFE002800F0D4
:1017400070810AAB08AA12A98F48009309AB01F077
:1017500047FD002800F06581DFF864A29FED8B7AD9
:10176000DAED007A77EEEC7AF4EEC77AF1EE10FA61
:1017700000F15081DFED868AF4EEE87AF1EE10FA9E
:1017800078FEA78AB0EE680A09F09EFC8DED050A86
:10179000B0EE680A09F098FBB0EE406AB1EE407A0C
:1017A000DDED056ADDED098A3EEEEB5ADDED087AE6
:1017B00068EE86AA724B68EEA68AE7EEA6AAE7EE66
:1017C000878A9FED6B7A7EEECB7AB4EEE77A69EE8C
:1017D000A85AF1EE10FAB4EEC57AEAEE6A5A77FE2C
:1017E000277AF1EE10FA37FE057AB4EEE77AA8EE22
:1017F000259AF1EE10FA77FE877A3CEE0C7A83EDAB
:10180000009AC8ED005A67EE877AF5EE407AF1EE5D
:1018100010FA00F14E82B1EEE77AF4EEC7DA2CEE60
:10182000085AF1EE10FA77FE2D7A95ED007AB4EEB3
:10183000E77A95ED007AF1EE10FA40F1DB8037EEB1
:10184000057A85ED007A95ED007AB4EEE77AF1EE4F
:1018500010FA01DDC5ED007AB6EE005AD5ED007A3A
:10186000DFED4C4A4C4B67EE857A9AED007A37EE05
:101870006C7A87EEA45AD3ED007A6FEE677AEFEEBA
:10188000C77A9FED467AB4EEC75AF1EE10FA37FEEA
:10189000057AB1EE475AF4EEC57AF1EE10FA05D4A6
:1018A000F4EEC77AF1EE10FA37FE275A9FED3C7A34
:1018B000DFED3C7A27EE657A87ED005AA9EE277AAC
:1018C000DFED397AB4EEE77AF1EE10FA07D4DFED06
:1018D000377AB4EEE77AF1EE10FA77FE877AC9ED3F
:1018E000007A69EEA70A6AEE677A95ED007A0EA98A
:1018F0002548E7EE297A95ED007A97ED001AE7EE94
:101900000A0A26EE600A60EEA60AA7EEA60AE7EE2D
:10191000860A01F0EDFB002857D0254B1B780BB948
:10192000FFF7A2F80EA801F017FD002879D06AEEA3
:10193000288ADFED0F7A1F4BE9EEAA8A93ED007A31
:10194000F4EEE87AF1EE10FA77FEA87AA7EE887A3C
:10195000A7EE88BA83ED007A049BD5ED007AE31AEE
:10196000E7EE88BAF92B2DE0E80100206F12833AE8
:10197000000000006F12833B0402002000020020E0
:10198000F4010020CDCC4C3DA8C400088FC2F5BDA9
:101990008FC2F53D7B14AE3E0C0200203333333F43
:1019A0009A99193E6666E6BF9A9999BE9A99993EA8
:1019B000E4010020FC010020F0010020EC010020E7
:1019C000080200200FD8A3467CE6C34B06221A600B
:1019D00000201FB0BDEC108BBDE8F08FF1EE0EFAC9
:1019E0009FEDBEFA31E612A92046FEF71DFFA34681
:1019F000049467E637EE457A85ED007A95ED007A36
:101A0000B4EEE77AF1EE10FA7FF526AF22E7B0EEFA
:101A10004D8A8BE69FEDB27A9FEDB26ADFEDB26A36
:101A2000C0E6AD4B05221A60D2E70024DFEDAF8A95
:101A30009FEDAFDA16941A9419941D949FEDADBAE8
:101A40009FEDADCADFEDADBADFEDADAACDE917442C
:101A5000CDE91B4402F0BEFE00230646A94A2B60D6
:101A60000120A6F1FA0BB246354682ED009AC9F87C
:101A70000030FEF725FF039402F0ACFE831B044602
:101A8000B3F5FA7F80F00A81A0EB0A03092BF3D9A2
:101A9000431B0AF10A0A07EE903AA0EB0A03F8EE9C
:101AA000677A092B88BF824667EEA87AF4EEE87A57
:101AB000F1EE10FA00F1CC809FED938AF4EEC87A33
:101AC000F1EE10FA38FE278AB0EE480AFEF794FFCE
:101AD0001AA9204601F08EFC0028A2D00DAB0BAA5B
:101AE0001AA98A4800930CAB01F07AFB002898D021
:101AF000874DD5ED007A77EEEC7AF4EECD7AF1EE03
:101B000010FA00F1AE809FED83EAF4EECE7AF1EEAA
:101B100010FA3EFE27EAB0EE4E0A09F0D5FAF0EED2
:101B200040DAB0EE4E0A09F0CFF9B0EE407AF1EEAD
:101B3000405ADDED0C7A9DED0B6A67EE876A714BBA
:101B400067EEAD7AE6EE2D6AE6EE257A67EEA97AC3
:101B5000EAEE667AC8ED007AD8ED007AA8EE279A08
:101B600083ED009A6C4BD5ED006AD3ED007A76EEEA
:101B7000EC6A67EECF7AEFEEE67AF4EECB7AF1EE2E
:101B800010FA6BD4DFED656AF4EEE67AF1EE10FA46
:101B900076FEA77AC7ED007AD8ED007A6CEE677A08
:101BA000E9EE2B7AF4EEEA7AF1EE10FA53D4DFED97
:101BB0005C6AF4EEE67AF1EE10FA76FEA77AC9EDE9
:101BC000007A16A9D9ED007AD9ED000A6AEE677A93
:101BD00097ED001A69EEA00A4C4827EE600A60EE05
:101BE000AD0AA7EEAD0AE7EE870A01F081FA0028F8
:101BF0003FF4EBAE4B4D2B780BB9FEF735FF16A833
:101C000001F0AAFB00283FF40CAFA4EB0B03F92B67
:101C10002ED8F0EEC97A9FED447AF4EEC77AF1EE51
:101C200010FA11D8D8ED007A9FED407AF0EEE77AFD
:101C3000F4EEC77AF1EE10FA06D8039BF3B1E31A7B
:101C40003B2B1ED8254617E700232546039313E7B1
:101C5000B0EE688A38E7F0EE6A7AB0E7F0EE4B7AD9
:101C600098E7DFED1F5A9FED1F7ADFED1FDA60E77F
:101C70001AA92046A346FEF7D7FDCAE725460394D6
:101C8000FAE600230220C9F80030FEF719FE2B788F
:101C90000BB9FEF7E9FE01F08FFB9AE60023032063
:101CA000C9F80030FEF70CFE1E4B1B78002BF2D15A
:101CB000EFE7B0EE670A8DED076ACDED066ACDED70
:101CC000055A09F0D9F89DED076AB0EE407ADDEDCE
:101CD000066ADDED055AA0E518020020AE47613E18
:101CE000AC2BF53DAC2BF5BDB5287E3F6F12833A8A
:101CF0008FC2F5BD3333B3BE9A99193E6666E6BF0F
:101D0000EC5138BEF4010020CDCC4C3DA8C40008F5
:101D1000080200208FC2F53D0C0200203333B33E91
:101D2000EC51383EE40100206F12033C8FC2F53CB9
:101D30002DE9F04F2DED068B91B07E4E00F0F0FCBA
:101D40007D4D01F033FC02F045FD7C4AA0F1FA0321
:101D50007B48136000F0A4FF0023337002F03AFDCB
:101D6000044606E02B780BB9FEF77EFE142002F045
:101D700037FD02F02FFD001BB0F5C87FF2D302F053
:101D800029FD41F26F7507466B4C10E023780BB9C3
:101D9000FEF76AFE00F0DCFF01F00EFB20B1C82167
:101DA000082001F00FF850B9322002F019FD02F0BE
:101DB00011FDC01BA842E9D90320FEF7C7FD01258C
:101DC000357002F073FA5F4B18701A7802F0FF0357
:101DD000002A4BD1DFED5C7A02224FF496775B4DFF
:101DE000B0EE678A3270F0EE678A08930C93CDEDFF
:101DF000077ACDE90933CDE90D3307AA0CA908A864
:101E000002F062FADDED0A7A079A2378A7EEA78A34
:101E100078EEE78A2A600BB9FEF726FE032002F06F
:101E2000DFFC013FE9D19FED4A7A4A4BC8EE876A51
:101E3000C8EE077AC3ED006AD3ED006A93ED007A2D
:101E4000E6EEC77AF5EEC07AF1EE10FA06D49FED11
:101E5000427AF4EEC77AF1EE10FA0ADC032333700B
:101E600001F0B6FA40B90420FEF770FD2846FEF7EF
:101E70006DFD0220FEF76AFDC821082000F0A2FFD8
:101E80000028F0D001F0AAFA0028ECD0C8210820E0
:101E900000F098FF0028E6D001F08EFA0028E2D08A
:101EA000C821082000F08EFF0028DCD0FA20FEF7C1
:101EB00087FF3378072B00F0248102F08BFC00238E
:101EC0000746CDE90C33CDE90E3308E002F082FC81
:101ED000C31BB3F57A7F2AD80A2002F081FC02F0F6
:101EE00079FC0CA901F086FA0028EFD09FED168A44
:101EF000B0EE002A194BF7EE000AB0EE480ADFED0B
:101F0000181A83ED008A174B9FED171A83ED008A8C
:101F1000164B83ED008A04233370FFF763FB002820
:101F200040F0F380124B1A680AB1186845E70520A3
:101F300043E700BF1C020020E4010020E001002074
:101F400040C200081402002000000000F801002038
:101F500000009643100200200BD7233B080200200C
:101F600066662640E8010020CDCC4C3FFC010020F5
:101F700018020020CDCCCC3FCDCC0C403333834075
:101F80001830CA3F5020FEF71BFF3378072B00F0B4
:101F9000B8800823BFEE000AF0EE480A1FED0B2AB6
:101FA0005FED0B1A1FED0B1A3370FFF71BFB0028B8
:101FB000B8D0B0EE480AFEF7E7FD002800F0AC808C
:101FC0005020FEF7FDFE3378072B00F09A8009239E
:101FD0001FED150A3370FEF7D7FD0028A2D0502060
:101FE000FEF7EEFE3378072B00F08B80012351487B
:101FF000237000F055FE16230A203370FEF760FCB4
:102000004D48FFF735F9002800F08D800B20FEF7D2
:1020100057FC0A23B0EE002ADFED4C1AB7EE000A97
:102020009FED461ADFED4E0A3370FFF7DBFA00280A
:102030003FF478AF5020FEF7C3FE3378072B60D013
:102040000B239FED460A3370FEF79EFD00283FF4F8
:1020500069AF5020FEF7B4FE3378072B51D00C2324
:10206000B0EE002ABFEE000ADFED381A9FED331AFA
:10207000DFED3B0A3370FFF7B5FA00283FF452AFAB
:102080005020FEF79DFE3378072B3AD00E239FEDAC
:10209000330A3370FEF778FD00283FF443AF502039
:1020A000FEF78EFE3378072B2BD0032717230A2049
:1020B0003370FEF705FC2248FFF7DAF898B30B20DF
:1020C000FEF7FEFB013F4DD05020FEF779FE33783E
:1020D000072B16D01023B0EE002AFFEE000ADFED2A
:1020E0001B1A9FED181A9FED1E0A3370FFF77AFA3C
:1020F00000283FF417AF5020FEF762FE3378072B1D
:10210000D4D1114B1868FEF721FCB0EE480AFEF757
:102110003BFD00287FF436AF0B4B1A68002A7FF492
:1021200004AF072049E6084B1A68002A7FF4FDAE89
:10213000082042E660C2000884C20008CDCCCC3F33
:1021400090C200083333B33E180200206666264072
:102150005FD1673F6666663FCDCCCCBD1830CA3FC5
:10216000000000001123B0EE002A5FED081A1FEDF9
:10217000081A5FED070A1FED090A3370FFF732FAFC
:1021800000283FF4CFAE5020FEF71AFE3378072B1D
:10219000B7D012231FED0F0A3370FEF7F5FC0028AD
:1021A0003FF4C0AE5020FEF70BFE3378072BA8D0CB
:1021B00018230A201FED168AB8463370FEF780FBFD
:1021C000FEF74EFF8346C0F10C00FEF779FB8E4A06
:1021D0001323DFED8E7A92ED007A33708C4B77EE1D
:1021E000278A8DED058AD3ED007A8DED068AF0EE13
:1021F000689AB0EE679A8DED078ACDE90877CDE948
:102200000A77CDE90C77CDE90E7702F0E3FA7E4A42
:10221000A0F1FA0A8146C2ED008AF0EE488A7D4AB2
:10222000039082ED008A7C4A82ED008A7B4A82ED2F
:10223000008A7B4A82ED008A7A4A82ED008A07464C
:1022400002F0C8FA039BC21A42F6DF639A4200F218
:10225000D680A0EB0902092AF2D903463846DFED01
:10226000727A09F10A011F461B1A08EE103A7B1A0E
:10227000B8EE488A092B94BF8946B94628EE278ACA
:10228000B4EEE78AF1EE10FA00F1B680DFED677A7E
:10229000B4EEE78AF1EE10FA37FE888AB0EE480A0B
:1022A000FEF7AAFB0CA9384601F0A4F8002800F0BC
:1022B0009F8007AB05AA0CA95D48009306AB00F010
:1022C0008FFF002800F094805A4BB5EE007A79EE2B
:1022D000C95ADFED596A93ED006AFFEE007A27EEE6
:1022E000467AB0EE65AAA5EEA67AB4EEE77AF1EEEC
:1022F00010FA07D4F7EE007AB4EEE77AF1EE10FAAE
:1023000077FE877A9FED4C7AF0EE686A28EE077ABE
:1023100078EEC78AF4EEE78AF1EE10FA07DC77EE82
:10232000268AF4EEE87AF1EE10FA78FEA78AFEEE3D
:10233000000A384BB0EE681A9FED470A08A93C48DE
:1023400068EEA00AF0EEE07AC3ED007A324BC3EDFE
:10235000008A00F0CDFE002846D023780BB9FEF7A6
:1023600083FB08A800F0F8FF002841D0DDED077AD4
:10237000F6EE006A264BF0EEE77A93ED007A2F4BEB
:1023800067EEA67AB0EE479A93ED007AA8EE277A28
:1023900083ED007AA7EB0A03F92B04D9BA460CA9FE
:1023A0003846FEF741FAF0EECA7A9FED257AF4EE50
:1023B000C77AF1EE10FA00F2E4801E4B9FED217A0D
:1023C000D3ED007AF0EEE77AF4EEC77AF1EE10FA88
:1023D00000F2D780B8F1000F00F0D080A7EB08031F
:1023E0004F2B3BD838462AE7174B06221A609AE54E
:1023F000154B05221A6096E59FED0B8A4EE7124BAE
:1024000007221A608FE500BFE801002012A4974060
:10241000080200200402002000020020F401002035
:10242000F0010020EC0100206F12833ACDCC4C3D2E
:10243000A8C400080C0200206666E63FFC010020EC
:102440000AD7A33C0AD7233D18020020666626401F
:102450009A99993E0000BE4200000000FEF788FBFA
:1024600000283FF45FAD5020FEF7AAFC3378072B1D
:102470003FF447AE1423B0EE002AB7EE000A5FED3A
:102480000D1A1FED0D1A5FED0C0A3370FFF7AAF855
:1024900000283FF447AD5020FEF792FC3378072B1D
:1024A0003FF42FAEBBF1000F0CD018230D2033707A
:1024B000FEF706FAFEF7B6FC00283FF434AE0E2015
:1024C000FEF7FEF915241FED1D0A0020347000F000
:1024D0003BFB1FED200A012000F036FB4FF42F706C
:1024E00002F07EF91FED240A002000F02DFB1FED05
:1024F000260A012000F028FB4FF42F7002F070F93B
:10250000002000F063FB012000F060FB05234FF486
:102510007A703370FEF754FC00F066FF06233370C8
:1025200002F058F90094194B194C3178226893ED58
:10253000000A184BDFED181AD3ED000A174BB0EE66
:10254000611A93ED002A164BD5ED002A93ED003A5F
:10255000144BD3ED003A144B93ED004A134B01F0AA
:1025600039F83078216801F07FF801F091F900F036
:1025700023FF4FF47A7002F033F9F8E7B846384693
:102580005DE64FF00008384659E600BF0C02002017
:10259000180200200802002000000000FC010020BA
:1025A000F4010020F0010020EC01002098C4000894
:1025B00072B6FEE708B5FFF7BBFB002008BD00BF01
:1025C00000B59FB04C2200210AA808F0CDFE2022C1
:1025D000002102A808F0C8FE022002F08DFF264A62
:1025E00000230193936923F440439361936903F4B7
:1025F00040430193019B93699B04FCD50121022375
:1026000000220AA8109117910621159318910C2108
:1026100019931C929FED167BCDE9133328238DED82
:102620000A7BCDE91A12169303F088FEB0B94FF079
:102630003F0C00220321402304924FF4806202A841
:102640000993CDE902C14FF0080CCDE90732CDE97D
:1026500005C304F03FF920B91FB000BDFFF7A8FF84
:10266000E5E7FFF7A5FF1FB000BD00BFAFF3008097
:1026700021000000000001000048025810B50023AE
:10268000134C14484FF4E1310C2284E80B0020462F
:10269000C4E90333C4E90523C4E90733C4E90933B2
:1026A00006F0C8FD20B90146094806F039FE18B108
:1026B000BDE81040FFF77CBF0146054806F062FE0A
:1026C0000028F5D1024806F00BFE0028F0D110BD1D
:1026D000B00200200010014000B58DB000212C2276
:1026E00001A808F041FE01A90A4802F075FC58B99A
:1026F000069B13B901200DB000BD074A13680133D2
:10270000136000200DB000BD044A1368013313604C
:10271000F7E700BF64040020A8020020AC020020FC
:10272000C04A536913F4003370B598B011D1BFF3A8
:102730004F8FBFF36F8FC2F85032BFF34F8FBFF38D
:102740006F8F536943F400335361BFF34F8FBFF36F
:102750006F8FB448436913F4803326D1C0F88430B6
:10276000BFF34F8FD0F8804043F6E075C4F34E3C82
:10277000C4F3C9044FEA4C1C0CEA0501234641EAA4
:102780008372013B5E1CC0F86022F8D1ACF1200CD2
:102790001CF1200FF0D1BFF34F8F436943F4803316
:1027A0004361BFF34F8FBFF36F8F002401F0D6FF5B
:1027B000FFF706FF9C4B1594012209210125CDE965
:1027C0001144CDE91344D3F8E0001043C3F8E0000E
:1027D000D3F8E000104007900798D3F8E00040F0ED
:1027E0000400C3F8E000D3F8E030904803F004039D
:1027F0000893089B02F07CFE0323092211A98B4851
:1028000014931394CDE9112502F03CFD2A464FF4B0
:102810000041864802F06CFE4FF4004311A9834842
:10282000CDE91135CDE9134402F02CFD8049814AF0
:102830004FF0804308468C600A604FF48002CB6101
:102840004A6007224B634FF08073CA604FF00072FA
:102850004B614FF080630C624C620A618B618C6546
:10286000C1E90A44C1E90E44C1E91044C1E9124476
:10287000C1E9144405F044FB002840F03381FFF720
:10288000FDFE00230C9309931793CDE91133CDE995
:102890001333CDE91533CDE90D33CDE90F33CDE950
:1028A0000A3304F093F9054604F038F904468542EA
:1028B00018BF6C0004F078F9064604F02FF95E4B5F
:1028C0008642054618BF75009C4240F208819D4231
:1028D00040F20581544B594A5948A2FB0412D3F8DF
:1028E000F01041F00101920CC3F8F010013AD3F856
:1028F000F01001F0010103910399D3F8E81041F0C1
:102900000101C3F8E810D3F8E81001F001010491C7
:102910000499D3F8E01041F00101C3F8E010D3F8B6
:10292000E01001F0010105910599D3F8E01041F0A4
:102930001001C3F8E010D3F8E030426003F0100358
:102940000693069B002383608361C0E904333D4BFB
:10295000036044F61F63C36005F064FF002840F085
:10296000BB80364BA3FB0523374A9B0C1046013B2B
:10297000536000239360136193614FF080431360B1
:1029800044F61F63D36005F04DFF002840F0A1809E
:10299000002309A92A4809930B9306F05BF8002845
:1029A00040F0948009A9284806F054F8002840F027
:1029B0008D800022602311A923481592CDE91132A0
:1029C000CDE91322CDE9162205F0A4FF38B908227B
:1029D00011A91D4805F09EFF002800F08D80FFF72B
:1029E000E7FD00240522022301250CA917480C92BB
:1029F000CDE90D34CDE90F4502F044FC4FF4085306
:102A00000CA9134810950C9302F03CFC21460E488B
:102A100005F086FEF0B908210B4805F081FE00287C
:102A20007BD017E000ED00E0004402580008025897
:102A3000DC030020003800403F420F0083DE1B43D0
:102A400090030020000001404403002000000258D1
:102A500000100258FFF7ACFD01F080F80124354961
:102A60000022354814230C70344903620A7034493B
:102A7000048201603B218274C1610821C0E90543E1
:102A80001023C0E90F230423C0E90222C0E909444E
:102A9000C0E90B44C0E90D22C0E91132C0E913328C
:102AA000C0E91532C0E91721C0E9192301F052FF2E
:102AB00038B90146234602221F48009402F040F92B
:102AC00098B118B0BDE87040FFF772BDFFF770FD18
:102AD0006FE7FFF76DFD5BE7FFF76AFD41E7FFF783
:102AE00067FDF7E6FFF764FDC9E6134802F042F917
:102AF0000028E6D118B070BD024611A9114805F0B2
:102B000009FF00287FF46BAF082211A90D4805F0DA
:102B100001FF00287FF463AF63E70146094805F031
:102B2000FFFD002896D10821064805F0F9FD002890
:102B300090D191E7A002002064040020A1020020AF
:102B400000A0004090030020B5EEC00AF1EE10FA9C
:102B500030D49FED1A7AF6EE007ADFED196A44F66A
:102B60002062B4EEC70AF1EE10FA37FE000A80EEDA
:102B7000076AE6EE267AFCEEE77A17EE903A03F55E
:102B8000FA73934228BF1346032806D8DFE800F003
:102B90000E0A06020B4A1268D3637047094A12688C
:102BA00053637047084A1268D3637047064A126835
:102BB000536370474FF4FA73E6E700BF00003443F5
:102BC0000000FA449003002044030020032807D8A3
:102BD000DFE800F0110C0702094B00221B68DA63E2
:102BE0007047074B00221B685A637047054B002251
:102BF0001B68DA637047034B00221B685A637047F7
:102C0000900300204403002098B100B583B00190E8
:102C1000FDF75EFB4FF6FF724FF47A730199824223
:102C200028BF0246034892B203B05DF804EB06F0F9
:102C300035BA7047B0020020174A1278012A2AD10B
:102C400048B32DE9F8438046FDF742FB814600B3C7
:102C5000B8FA88F77F09A9EB070601F0BBFD08EB7E
:102C600007010546802E0D4828BF80263246B4B2A3
:102C700008F0AEFB04E001F0ADFD401B142808D8BD
:102C80002146064800F0ECFF0028F4D13744B9454E
:102C9000E1D8BDE8F8837047A002002020020020A0
:102CA00010B5044668B1FDF713FB4FF6FF724FF401
:102CB0007A732146824228BF0246044892B206F047
:102CC000EDF92046BDE81040FFF7B6BFB002002086
:102CD00000B5002389B0049330B103F1804302684A
:102CE00003F588339A4201D009B000BD164B02208B
:102CF0004FF0070C02A9D3F8F02042F01002C3F8FD
:102D0000F020D3F8F02002F010020092009AD3F8DD
:102D1000E02042F00102C3F8E020D3F8E030059053
:102D200003F001030948CDF818C00193019B9FED02
:102D3000047B8DED027B02F0A5FA09B000BD00BF57
:102D40000006000002000000004402580000025883
:102D50002DE9F041DFF86880D8F80030D3F8CC5086
:102D60002DB90022134B01201A70BDE8F0812946CD
:102D7000404602F05FF8044688B901F02BFD0E4F83
:102D80000646D8F800300134D3F8CC302B42E8D0D6
:102D900001F020FD801B012801D8BC42F1D1074A77
:102DA00000201368013313600122024B1A70BDE842
:102DB000F08100BFA1020020400D0300A40200200A
:102DC00064040020F0B5064683B007460C4601F0C7
:102DD00001FD731E072B0DD805460E4E01E033781A
:102DE00063B101F0F7FC401BA042F8D30A4A136814
:102DF000013313600023184603B0F0BDFFF76CFCED
:102E00000028EED00190054802F01AF9B842019B63
:102E1000E7D3F0E7A1020020AC0200206404002008
:102E20002DE9F0418CB010B1284B1B7843B1284AF2
:102E3000136801331360002420460CB0BDE8F08114
:102E400005460193FFF748FC0028F0D0322104200A
:102E5000FFF7B8FF04460028E9D0019B2F1D57F863
:102E60003320002AE3D035F833200133B2F5006F68
:102E7000DDD2042BF3D100264FF0000820220021E0
:102E800004A808F071FA4FF4002235F8363003A98F
:102E90000692104857F83620039301F089FF48B98D
:102EA0000C4801F0C3FF731C48EA0008042B1E46BF
:102EB000E4D1C1E7064A136801331360B8F1000F8B
:102EC000B9D04146034801F0B5FFB4E7A1020020A4
:102ED000AC0200206404002010B58AB00446282209
:102EE0000021684608F040FA24B140210F4802F062
:102EF00099F810B900200AB010BDA31C6A46402101
:102F00000A4801F0A9FF58B9019B069A1343F1D171
:102F1000039BB3F5002FEDD1009B01202380EAE74E
:102F2000034A136801331360E4E700BF6404002020
:102F3000AC02002010B5B8B000210446B8220AA89F
:102F40000891CDE90411CDE9061108F00DFA1CB184
:102F5000274B22689A4201D038B010BD4FF48052FE
:102F600000230AA8CDE90A2303F022FF00283BD161
:102F7000204B062002210524D3F8E82042F48042A9
:102F8000C3F8E820D3F8E82002F480420192019AC5
:102F9000D3F8E02042F00202C3F8E020D3F8E020AA
:102FA00002F002020292029AD3F8E02042F00402F8
:102FB000C3F8E020D3F8E030089403F00403CDE92F
:102FC0000401002003210393039BCDE9060104A91A
:102FD000094802F057F94FF4005304A90748049335
:102FE00002F050F938B010BDFFF7E2FAC0E700BFB9
:102FF00000380040004402580008025800040258FB
:1030000010B5B6B000210446B82208A80691CDE953
:103010000211CDE9041108F0A7F91CB1244B226874
:103020009A4201D036B010BD9FED1B7B4FF080530C
:1030300008A88DED087B239303F0BAFE40BB1D4B1F
:10304000092402A91C48D3F8EC2042F48072C3F88A
:10305000EC20D3F8EC2002F480720092009AD3F8AE
:10306000E02042F00802C3F8E020D3F8E0300694F4
:1030700003F008039FED0A7B0193019B8DED027B1A
:103080009FED097B8DED047B02F0FCF836B010BD9E
:10309000FFF78EFAD3E700BF0080000000000000B9
:1030A000030000000200000000000000000000001B
:1030B00000A0004000440258000C0258074B82B0A8
:1030C000D3F8F42042F00202C3F8F420D3F8F4302D
:1030D00003F002030193019B02B0704700440258C1
:1030E00001F06CBB014802F0EDBA00BF68BD0020E2
:1030F000002918BF002803460CBF0120002068D01B
:1031000093ED006AB5EEC06AF1EE10FA62D9D3ED24
:10311000037AF5EEC07AF1EE10FA5BD970EE606AD0
:1031200093ED027AD3ED017A30EE200A0A4601F1DE
:10313000100C77EE877A0846B0EE665A9FED277A34
:10314000F0EE405AE7EE816AA7EEC15AE7EE815AE7
:10315000A7EEC10AC5EE067AC1ED007A93ED006ACA
:10316000C5EE867AC1ED017A93ED006AC0EE067A6B
:10317000C1ED027A93ED006AC6EE867AC1ED037A5C
:10318000F0EC017AF5EEC07AF1EE10FA01D5F1EE2D
:10319000677AF4EEC77AF1EE10FA37FE877A604567
:1031A000EED1D3ED037AF4EEC77AF1EE10FA12D431
:1031B000F7EE006A1033F3EC017A92ED007A67EED5
:1031C000A67A67EE877AE2EC017A6245F3D10120B4
:1031D000704700207047C7EE876AEBE700000000E9
:1031E000002918BF002810B50CBF4FF0010E4FF09A
:1031F000000E66D0002B18BF002A029C0CBF4FF0B7
:10320000010C4FF0000C002C08BF4CF0010CBCF17D
:10321000000F54D1D0ED006AF5EEC06AF1EE10FA5D
:103220004DD991ED017AB5EE006AD1ED007AF1EE5B
:10323000005A91ED024A4FF0010E77EE877A91ED38
:10324000035AD0ED024A90ED017A77EE847A37EE98
:10325000247A77EE857A27EE257A67EEA67A67EEEE
:10326000867AC2ED007AD1ED017AD1ED004A91ED76
:10327000025A77EEE47AD1ED035AD0ED006A77EE88
:10328000857A77EEE57A67EEA67A67EE867AC3ED01
:10329000007AD1ED017A91ED005AD1ED025A77EE24
:1032A000C57A91ED036AD0ED006A77EEE57A77EEA4
:1032B000867A67EEA67AC7EE876AC4ED006A704622
:1032C00010BD4FF0000E704610BD00BF2DE9F0415B
:1032D00090B02022114E804608AC6D460F460DEB93
:1032E0000200002108F040F8338828466560023665
:1032F0003B440834083524F8083CC047082808D166
:1033000010AB9C42F0D108A8FFF78AFD10B0BDE8D1
:10331000F081002010B0BDE8F08100BFE8C40008D3
:1033200070B506460A2400213046FFF7CFFF054658
:10333000022075B101F054FA013CF4D103244FF49A
:1033400000713046FFF7C2FF022001F049FA013C4C
:10335000F5D1284670BD00BF2DE9F041202290B084
:10336000054600210DEB020007F0FEFFEDB1114C08
:1033700008AF6E4604F10808238830467E600234A8
:1033800003F5007395ED000A0837043527F8083C6B
:10339000083601F055F9082807D14445ECD108A8B2
:1033A000FFF73EFD10B0BDE8F081002010B0BDE891
:1033B000F08100BFE8C4000808B5FFF7C9FC00B9F8
:1033C00008BD0248BDE80840FFF7C6BFC8C40008F2
:1033D0000148FFF7A5BF00BF0D4500080148FFF7F2
:1033E0009FBF00BF294500080148FFF799BF00BFF4
:1033F000454500082DE9F041002306460F46DFF859
:10340000C8802C4C2C4D2DED028B9FED2C8A88B062
:10341000CDE90033ADF808306846FFF75DFD84461E
:1034200000230DF10201264803AABCF1000F22D0AF
:103430000793CDE90333CDE9053301F091F8214A33
:1034400001210028E8D19DF80C30013BD8B202EBF5
:103450008302032805EB830CDED8DDED057A92EDBF
:10346000007A67EE887A48F82360E15467EE877A3D
:10347000CCED007AD0E72FB10F4C0FCC38607960DB
:10348000BA60FB600B4B104A1C1D187838B11168EC
:1034900001330432711A642906D8A342F5D108B069
:1034A000BDEC028BBDE8F081002008B0BDEC028BC2
:1034B000BDE8F0810405002030050020333363406F
:1034C000F0C40008D8C40008200500204AF22001FA
:1034D0001C4B1D4A01FB00F0C15800EB030C91424C
:1034E00001D000207047DCF80430022BF9D1DCF861
:1034F0000830B3F5007FF4D803EB83031B0110B54C
:103500001A46C3B1DFF848E04FF0FF3286440F4857
:103510000EEB03049EF8003008215A4042F30003EA
:10352000013903EA000383EA5202F7D10EF1010EDA
:10353000A645EFD1D243DCF81800801AB0FA80F02B
:10354000400910BD00000E084C4F47322083B8EDF3
:1035500020000E082DE9F84F4FF0000982468B46F7
:103560004AF22007C8464D464C460F4E2046FFF70C
:10357000ADFF07FB046330B1DB690DB1434502D3F6
:10358000A146984605460134032CEFD145B14AF2D5
:103590002002054BCAF8009002FB0933CBF800303B
:1035A0002846BDE8F88F00BF00000E084FF4204207
:1035B0000021054808B507F0D7FE00230349044A57
:1035C0000B60137008BD00BF60050020440500209B
:1035D0004005002070B51F4D1C462B68CCB3B3F5D9
:1035E000007F36D203EB830CDFF874E00E46114601
:1035F0004FEA0C120EEB0C1C4EF802002832CCF8ED
:103600000C3001338CED040A9644CCED050A8CEDA8
:10361000061ACCED071A8CED082ACCED092A2B608E
:10362000CCE90161A268E36820686168AEE80F0038
:10363000094B8CED103A1A68084BCCF838201B68FF
:10364000CCED113ACCF83C30049B8CED124ACCF80E
:103650004C3070BD44050020AC020020A8020020C0
:1036600060050020000000002DE9F04F97B0002514
:103670007B4E80460DF13F040F462022294624F060
:103680001F0407952046CDE90355CDE9055507F000
:103690006BFE009535781DB1284617B0BDE8F08F58
:1036A000FA2363616F4B1B68A36003EB83036AA17A
:1036B000D1E900011B01C4E903871A46C4E90001EE
:1036C000A3B1694F4FF0FF32684903EB070E17F8BB
:1036D000013B08205A4042F30003013803EA01038A
:1036E00083EA5202F7D17745F1D1D2434FF0000877
:1036F000DFF87CB14AF2200AA261C146474638464B
:10370000FFF7E4FE40B1DBF81C30B8F1000F01D048
:10371000994501D8994680460137D344032FEED10D
:1037200009FB08F30133E3610123049306930723A4
:1037300005932023079301F089FC0028ACD1019068
:1037400002A901A8FFF706FF10B3019B4AF2200966
:10375000DFF834A1464F03F1010E03F10408454997
:10376000AAFB0E2323F0010000EB5300AEEB000098
:1037700009FB007309FB001C01E0634531D01A68A6
:1037800004330132F9D00EF1010EF045E8D10FE01B
:10379000384F4AF2200C38497B1801E09F4220D074
:1037A0001A6804330132F9D0013067440328F3D199
:1037B00003A8694601F0E6FC002846D001F05AFC57
:1037C000BFF34F8FBFF36F8F2C4B0022C3F85022F3
:1037D000BFF34F8FBFF36F8F2846357017B0BDE82A
:1037E000F08F4AF22003DFF8889000FB03F399443E
:1037F0001C4A126842B922464946012001F080FC69
:10380000B0FA80F56D09D9E702EB82024FEA02189F
:1038100008F11F0838F01F08EDD0194F194ADFF8DA
:103820006CB01F44A2EB030AABEB030B03E00BEB02
:1038300007039845DFD90AEB0702394601202037F4
:1038400001F05EFC0028F2D0B8E70346DFF82090D4
:10385000CEE700BFAFF300804C4F473202000000BC
:103860004005002044050020600500202083B8EDBD
:1038700000000E0820A00E08E05FFFFF00ED00E052
:1038800020000E084005F217ABAAAAAAE0FFF1F744
:103890002DE9F0412DED028BD6B0002515A914A815
:1038A000CDE91455FFF756FE002800F04181159E22
:1038B0005023149F4FF48071059316A87369A04A92
:1038C000049333690393F3680293B3680193F36934
:1038D00000933B4607F016FD16A8FFF7E1F999485B
:1038E000FFF7DEF9B368002B00F01A814AF22003DB
:1038F000954CF6EE008A9FED958A03FB0744B0468F
:10390000D9E075EEA85A94ED055AFDEEE55A25EE7C
:10391000085AB5EEC05AF1EE10FAC0F2FE8035EE4C
:10392000285AD4ED064ABDEEC55A64EE884AF5EE33
:10393000C04AF1EE10FAC0F2ED8074EEA84A94EDA0
:10394000074AFDEEE44A24EE084AB5EEC04AF1EE1D
:1039500010FAC0F2DC8034EE284AD4ED083ABDEE0D
:10396000C44A63EE883AF5EEC03AF1EE10FAC0F2BE
:10397000CB8073EEA83AD4ED097AFDEEE33A67EE18
:10398000887AF5EEC07AF1EE10FAC0F2BA8077EEDE
:10399000A87A94ED0A7ABDEEE73A27EE087AB5EEFA
:1039A000C07AF1EE10FAC0F2A98037EE287AD4ED91
:1039B0000B7AFDEEC72A67EE887AF5EEC07AF1EE53
:1039C00010FAC0F2988077EEA87A94ED0C7ABDEEEA
:1039D000E72A27EE087AB5EEC07AF1EE10FAC0F2C7
:1039E000878037EE287AD4ED0D7AFDEEC71A67EEA0
:1039F000887AF5EEC07AF1EE10FA76DB77EEA87AE7
:103A000094ED107AFDEEE77A27EE087AD4E90E7C81
:103A1000B5EEC07AF1EE10FA64DB37EE287AD4ED19
:103A2000116ABDEEC77A66EE886AF5EEC06AF1EEFD
:103A300010FA54DB76EEA86A94ED126AFDEEE66A9F
:103A400026EE086AB5EEC06AF1EE10FA44DB36EEF7
:103A5000286ABDEEC66AE66CCDED0B1A01358DED18
:103A60000A2A5034CDED092A8DED083ACDED073AFA
:103A70008DED064ACDED054A8DED045ACDED035A84
:103A800000914FF480718DED116ACDED106A8DEDCE
:103A90000F7ACDED0C7A1296CDE901022C4A16A8C8
:103AA000CDE90D7C07F02EFC16A8FFF7F9F8D8F841
:103AB0000830AB4234D9D4ED045AE36865EE885A35
:103AC000A268D4E90010F5EEC05AF1EE10FABFF684
:103AD00018AF75EEE85A16E736EE686AB9E776EE83
:103AE000E86AA9E737EE687A99E777EEE87A87E738
:103AF00037EE687A77E777EEE87A66E737EE687A46
:103B000055E777EEE87A44E773EEE83A33E734EEC8
:103B1000684A22E774EEE84A11E735EE685A00E792
:103B20000C48FFF7BDF856B0BDEC028BBDE8F08144
:103B3000094856B0BDEC028BBDE8F041FFF7B0B8C4
:103B4000ACC2000808C3000820000E0800007A4438
:103B5000DCC3000830C40008A0C2000808B5012278
:103B600019491A4806F0ECF988B91949174806F0BE
:103B7000FBF9A0B91749154807F020F9B8B913485F
:103B800006F010FAD0B9BDE8084001F0D9BCFEF744
:103B90000FFD0F490D4806F0E7F90028EAD0FEF7BF
:103BA00007FD0C49094807F009F90028E7D0FEF79E
:103BB000FFFC064806F0F6F90028E4D0FEF7F8FC12
:103BC000BDE8084001F0BCBC4800002060A5002012
:103BD000C000002000000020002070470020704737
:103BE0000020704770B50446B8B1B1B10B68A3B1FD
:103BF00003F1FF3E411E0D4A0D4D86440D4E1368E4
:103C000028680133DBB2984207D011F801CF106861
:103C10007145136006F800C0F1D12146064807F04F
:103C2000E7F8054807F00EF9002070BD40A9002014
:103C30003CA900203CA8002060A5002000220549E6
:103C4000054808B507F0C6F80449034807F0D0F85E
:103C5000002008BD44A9002060A5002044B1002038
:103C600010B50C4CD4F8BC32002918BF002B0FD073
:103C700070B1D3F814320BB1012010BD0A460146D1
:103C8000204607F0A7F82046BDE8104007F0BCB872
:103C9000032010BD60A5002010B370B50C46D9B14B
:103CA000B1FA81FC0138104A104D4FEA5C1C104EED
:103CB00011682B6899420DD011680CF1010C136842
:103CC00016F801E0644503F1010300F801EFDBB2EF
:103CD0001360EDD8604670BD4FF0000C604670BDBB
:103CE0004FF0000C604670473CA9002040A900201E
:103CF0003CA80020122301480B80704734000020AC
:103D0000042301480B807047300000200A46034816
:103D1000034908B506F0FAFD014808BD3CC4000897
:103D200044B900200A460348034908B506F0EEFDF1
:103D3000014808BD44C4000844B900200A460348AD
:103D4000034908B506F0E2FD014808BD54C4000867
:103D500044B900200A460348034908B506F0D6FDD9
:103D6000014808BD64C4000844B90020194A30B5B0
:103D7000D2F800381A24D2F808080C80191801D19A
:103D8000154830BD144B0024D2F804C803F11005C7
:103D90001A46080FD47002320901092800F1370EC3
:103DA00098BF00F1300E82F800E09542F1D10B4C43
:103DB00000204FEA1C72D87402334FEA0C1C092A07
:103DC00002F1370198BF02F1300119749C42F0D121
:103DD000014830BD00E0F11F140000201C0000204D
:103DE00010B5B0B00446B822002102A807F0BCFA12
:103DF000194B22689A4201D030B010BD9FED147B60
:103E00004FF4401302A88DED027B239302F0D0FF04
:103E1000C0B901F095FB114B00224D20D3F8D8C05A
:103E200011464CF0007CC3F8D8C0D3F8D83003F06A
:103E300000730193019B00F0F7FC4D2000F024FD7E
:103E400030B010BDFEF7B4FBE3E700BFAFF3008076
:103E5000000004000000000000000440004402587C
:103E600000F2C441D0F8080506F0B0B8034601EBF3
:103E7000C102D0F8080503EB8203D3F8882206F0CC
:103E8000DBB800BF034601EBC102D0F8080503EB25
:103E900082039A6C06F00EB9D0F8080506F0BAB99C
:103EA000016910B5044611B102290AD10121D4F8E3
:103EB000080506F093F9D4F80805BDE8104006F0AF
:103EC0005FB9FEF775FB0121F1E700BF10B50446AD
:103ED000D0F8080506F086F92268D2F8003E43F0D3
:103EE0000103C2F8003E236A23B1034A136943F079
:103EF0000603136110BD00BF00ED00E0D0F8080517
:103F000006F07EB9D0F8080506F0AAB9D0F8080581
:103F100006F090B9D0F8080506F0B8B9D0F8080551
:103F200006F0B6B908B50378012B01D0002008BD12
:103F30000346174800220221C0F80835DFF854C0B4
:103F4000C3F8C8020923C0F800C043604263C0E957
:103F50000321C0E90612C0E90822C0E90B2201F0E2
:103F6000F7FA88B94FF40071094802F057F9802236
:103F70000021074802F02CF94FF4BA7201210448DD
:103F800002F026F9002008BDFEF712FBEAE700BFA9
:103F900068BD0020000004400346D0F8C80200B508
:103FA00083B040B1019301F081FFC82000F018FCFC
:103FB000019BD3F8C80201F063FB18B102280CBFC3
:103FC0000120032003B000BD9446D0F8C8021A4671
:103FD00008B5634601F0B0FF18B102280CBF0120FC
:103FE000032008BD08B5D0F8C80201F0E3FF18B1FE
:103FF00002280CBF0120032008BD00BF08B5D0F87F
:10400000C80202F05DF818B102280CBF012003209D
:1040100008BD00BF08B5D0F8C80202F09DF818B17D
:1040200002280CBF0120032008BD00BF0A06D0F8FB
:10403000C83206D401EBC10103EB810393F87E0281
:10404000704701F07F0101EBC10103EB810393F89D
:104050003E00704708B5D0F8C80201F053FF18B110
:1040600002280CBF0120032008BD00BF08B5D0F80E
:10407000C80202F003F818B102280CBF0120032087
:1040800008BD00BF08B5D0F8C80201F0C9FF18B1DB
:1040900002280CBF0120032008BD00BFD0F8C802D1
:1040A00001F0E2BF0048704744BB0020704700BFEA
:1040B000F8B500F0F5F9802000F012FA552000F074
:1040C0000FFA552000F00CFA00F0F2F9962000F0FB
:1040D000CBF900F0E5F9802000F002FA552000F05D
:1040E000FFF9552000F0FCF900F0E2F9962000F00D
:1040F000BBF900F0D5F97E2000F0F2F9B62000F00F
:10410000EFF900F0D5F9502000F08AF900F0C8F975
:10411000802000F0E5F9552000F0E2F9552000F08C
:10412000DFF900F0C5F9962000F09EF900F0B8F92B
:10413000802000F0D5F9552000F0D2F9552000F08C
:10414000CFF9044600F0B4F9962000F08DF91E2C4A
:104150002AD10025184C00F0A3F92778667803349B
:10416000384600F0BDF9304600F0BAF900F0A0F989
:10417000962000F079F900F093F947F0800000F004
:10418000AFF9552000F0ACF9552000F0A9F9074629
:1041900000F08EF9962000F067F9BE4206D1013595
:1041A000062DD8D10020F8BDFF20F8BD05EB450550
:1041B000014B2B449878F8BD2CC50008F8B500F0E9
:1041C0007FF9802000F08CF9552000F089F900F08B
:1041D0007FF9962000F048F900F072F9802000F095
:1041E0007FF9552000F07CF900F072F9962000F07C
:1041F0003BF900F065F9142000F072F9B62000F0E8
:104200006FF900F065F9502000F00AF900F058F954
:10421000802000F065F9552000F062F900F058F9AF
:10422000962000F021F900F04BF9802000F058F9B9
:10423000552000F055F9044600F04AF9962000F0A8
:1042400013F90F2C27D10025174C00F039F92778E6
:1042500066780334384600F043F9304600F040F900
:1042600000F036F9962000F0FFF800F029F947F049
:10427000800000F035F9552000F032F9074600F0D3
:1042800027F9962000F0F0F8BE4206D10135062D40
:10429000DBD10020F8BDFF20F8BD05EB4505024B42
:1042A0002B449878F8BD00BF18C5000810B500F081
:1042B000B3F800F0B3F8FFF7FBFE0446FFF77EFF0C
:1042C0002043C0B210BD00BF2DE9F041002382B0F1
:1042D0000E46174680466C460DF10605CDE90033C3
:1042E00000F0DEF8922000F0FBF8922000F0F8F8E1
:1042F000552000F0F5F804F8010BAC42F8D100F0BD
:10430000D7F8BDF90030BDF902206C4606EE903AB0
:104310003F4B07EE102ABDF90420F8EEE66AD3ED14
:10432000007AB8EEC77A66EEA76A07EE902AF8EE32
:10433000E77AC6ED006AD3ED006A27EE267A67EECB
:10434000A67A86ED017AC6ED027A00F0B9F88020EF
:1043500000F0C6F8552000F0C3F802AB04F8010BDA
:104360009C42F7D100F0B4F89DF800300F2B22D119
:10437000BDF90230BDF9042006EE903A254B07EE58
:10438000102ABDF90620F8EEE66A93ED006A07EE02
:10439000902AB8EEC77A66EE866AF8EEE77AC8ED3C
:1043A000006AD3ED006A27EE267A67EEA67A88EDDA
:1043B000017AC8ED027A00F073F8A22000F090F8BC
:1043C000A22000F08DF8552000F08AF8054655200F
:1043D00000F086F8044600F06BF8F4EE006AC4F3CF
:1043E0004713B3EE077A43EAC5031BB2A3F5006295
:1043F00012B2B3F5806FA8BF134607EE903AF8EEFD
:10440000E77AA7EEA67A87ED007A02B0BDE8F081E0
:104410006800002064000020704700BF704700BFA4
:10442000F0B14FF0E021F0B5461E0E4D4FF6FF778C
:104430004C6900208A698B699342FCD0A4EB030C81
:1044400002EB000E09D2AEEB0300A8421A46F2D9E5
:10445000013EB6B2BE42EBD1F0BD94446044F4E7F5
:10446000704700BFFF5207004FF0E021C0EB001083
:104470004FF0000C400130B54D698A698B69934259
:10448000FCD0A5EB030E0CEB020405D2A4EB030C4D
:1044900084451A46F2D330BDF4449444F8E700BF93
:1044A00000220121014801F023B800BF0008025892
:1044B00001220248114601F01BB800BF0008025853
:1044C00000220821014801F013B800BF000802587B
:1044D00001220821014801F00BB800BF0008025872
:1044E00000B54FF47A7C87B001238DF80F000DF1F1
:1044F00017020DF10F01CDF800C0034803F0D8FDFD
:104500009DF8170007B000BDDC030020034640B152
:104510004FF0FF32FB2108201A60D971C3F8032045
:1045200070474FF0FF307047034640B14FF0FF3205
:10453000FC2108201A60D971C3F8032070474FF09E
:10454000FF307047034640B14FF0FF32FD21082095
:104550001A60D971C3F8032070474FF0FF307047DD
:10456000002A18BF002964D00346002861D0B1F8A2
:1045700001C008799CFA9CFC9FED2F3ADFED2F2AB1
:104580001FFA8CFC10B591F800E007EE90CACC78C9
:104590000EF00F0E91F805C0B8EEE77A82F800E051
:1045A0004FEA002E000940EA041007EE900A0EF4CC
:1045B00070604CEA000CF8EEE77AB3FA83F006EE8E
:1045C00090CA91F800C040094FEA1C1CB8EEE65AA8
:1045D00082F801C0D3ED003A93ED024AD3ED044ACC
:1045E000D3ED015A93ED036AD3ED056A75EEE35AF4
:1045F00036EE446A76EEE46A65EE875A26EE277A4E
:1046000066EE857A85EEA26AC7EE036A87EE837A44
:1046100036EE236A82ED016A76EE846AC2ED026AA2
:1046200077EE247AC2ED037A8B791374CB795374C5
:1046300010BD4FF0FF30704700F07F4500FF7F470F
:10464000034630B1002210EE101A082019605A609B
:1046500070474FF0FF3070472349244AD1F8883023
:1046600043F47003C1F88830136803F00F03062B7E
:1046700005D8136823F00F0343F0070313601C4BA6
:104680004FF0000C1B4A1968184841F001011960ED
:10469000C3F810C019680A401A6003681B0705D5E3
:1046A000036823F00F0343F007030360104B00225D
:1046B0001149DFF850C011489A61DA611A62C3F8F3
:1046C00028C043F2D20CD86219635A639963DA6343
:1046D00019645A6419680A4821F4802119601A661D
:1046E000C0F800C0704700BF00ED00E0002000529D
:1046F000004402587FEDF6EA800201010000FF014C
:104700000040005200020202114B1B780BB901203D
:10471000704700B583B00F4A01904FF47A70B0FB38
:10472000F3F31068B0FBF3F000F0BCF801990F2927
:1047300000D810B1012003B000BD02464FF0FF3099
:1047400000F072F8044B00200199196003B000BD1D
:1047500074000020700000207800002010B50320B5
:10476000124C00F04FF802F093F8114B11499A697E
:104770009B69C2F3032203F00F03A25CE35C02F027
:104780001F020D4C03F01F03D04020FA03F32060FA
:104790000F200B60FFF7B8FF10B10124204610BDB9
:1047A0000446FEF78BFC204610BD00BF40C5000844
:1047B000004402586C00002070000020034A044BA3
:1047C00011681B780B441360704700BF74C200204F
:1047D00074000020014B1868704700BF74C20020AD
:1047E00038B50446FFF7F6FF0546631C02D0044BBC
:1047F0001B781C44FFF7EEFF401BA042FAD338BDE4
:104800007400002006494FF6FF0C0002054BCA68F1
:1048100000F4E06002EA0C0210430343CB607047EF
:1048200000ED00E00000FA05144BDB68C3F302233F
:10483000A3F1030CBCF1040F00B516D84FF0FF3EF6
:10484000C3F107030EFA03F30EFA0CFEDB4322EA70
:104850000E021940002801FA0CF141EA02014FEA68
:10486000011106DB064B195400BD00220F239446AC
:10487000EFE700F00F00034B195400BD00ED00E01E
:1048800000E400E014ED00E0002807DB012300F065
:104890001F01034A40098B4042F82030704700BF97
:1048A00000E100E0431EB3F1807F01D30120704797
:1048B0004FF0E022002005494FF0F00C5361072330
:1048C00081F823C090611361704700BF00ED00E0E4
:1048D000F0B5D1E901740E690D68002F32D126437D
:1048E00046EA8546D1E9065425434C692543CC6800
:1048F0002543846E04FB03F3D0F88440086A44F82F
:10490000236004EB830445EA00656560104DCB89A4
:10491000EB5CB3B14FF0000C907804EB0C0ED77841
:104920000CF1040C000416785378043240EA076056
:10493000304340EA0320CEF80800C889285C60456F
:10494000EAD8F0BD2E43264346F08046CAE700BFB2
:1049500050C500082DE9F04798B004464C2248495C
:1049600005A806F035FD002C7AD02368454A93420D
:1049700000F0818094F8982002F0FF01002A73D0A3
:104980009A6922F010029A61FFF724FF054604E0BD
:10499000FFF720FF401B0A2859D823689A6911079E
:1049A000F6D49A6942F001029A61FFF713FF0546B7
:1049B00004E0FFF70FFF401B0A2848D823689A69D4
:1049C000D207F6D59A6942F002029A61227C012A46
:1049D0009A690CBF22F0400242F040029A61627C68
:1049E000012A9A690CBF42F4804222F480429A6103
:1049F000A27C012A9A690CBF22F4805242F48052B0
:104A00009A619A69D4E9020122F44072012942EACA
:104A100000029A619A6922F0A4029A611A6922F04E
:104A200010021A6130D0002932D002299A6900F0B0
:104A30007D8142F0800203299A611A6942F01002D6
:104A40001A6125D19A6942F020029A6120E0D4F8D7
:104A50009C30032243F00103C4F89C3084F8982072
:104A6000012018B0BDE8F087204684F89910FEF7C1
:104A7000C7FA236884E702F5807262607AE700BFB4
:104A8000E0BF000800A000409A6942F004029A6169
:104A9000B0F5407FD4E9061202F1FF3201F1FF3197
:104AA0004FEA022242EA4162216A01F1FF3142EA01
:104AB0000102616901F1FF3142EA0142DA610ED17E
:104AC000A16AD4E90B020139013A0138120142EA24
:104AD00000220A43616A013942EA0142DA60226E29
:104AE00000922AB1D3F8C020616E0A43C3F8C020F7
:104AF000E26D0098A16E9146D0428A4609D0D3F863
:104B0000C8200DEB810122F0070249690A43C3F86E
:104B1000C820226C656C01924AB1D3F8BC200DEB21
:104B2000850122F0070249690A43C3F8BC20D4E991
:104B300012C0BCF1000F0AD0D3F8BC200DEB8001ED
:104B400022F07002496942EA0112C3F8BC20D4E99C
:104B5000142E52B1D3F8BC100DEB8E0621F4E06197
:104B6000766941EA0621C3F8BC1072498B4200F015
:104B7000D6800EFB02F24FF00008666B0392012212
:104B8000C4F89C8084F89820D3F88420C4F89480DA
:104B90006FF38F02A76B019942EA8602D4F83CE0DA
:104BA00005FB01F5C3F88420D3F88420029522F494
:104BB0007F0242EA0742C3F88420F219D3F8881032
:104BC0006FF38F0141EA820102EB4E02C3F88810B5
:104BD000D3F8881021F4FE0141EA0E41C3F8881091
:104BE000D3F8A0106FF38F0141EA82012A44019D9E
:104BF000C3F8A010D3F8A01021F4FE0141EA05414A
:104C000000FB0CF50398C3F8A010D3F8B0106FF3B5
:104C10008F0141EA8201C3F8B0105119D3F8B020D6
:104C200022F4FE0242EA0C42C3F8B020D3F8AC20D2
:104C30006FF38F0242EA81020144C3F8AC20D3F83B
:104C4000F0206FF38F0242EA8102C3F8F020D3F81C
:104C5000F020D4F858C022F47C1201EB4C0142EA57
:104C60000C42C3F8F020344AB218920002EB8706D7
:104C7000029F06EBCE0E01960EEB870707EB85052C
:104C8000029505EB8005D3F8C00005EBCC0C03952D
:104C90006FF38F000AFB09F540EA810100980CEBE5
:104CA0008505C3F8C010D3F8C01021F47C1141EA87
:104CB0000941C3F8C0100AFB00F1D3F8C00020F08E
:104CC0007C56009805EB810146EA0060019EC3F81E
:104CD000C000029BA767E367039BC4F88850E266A5
:104CE000C4F89010C4E9203C144B9942C4E91C6EEE
:104CF0000BD88A4205D242F8048BD4F890309A42FD
:104D0000F9D3002018B0BDE8F087D4F89C30032216
:104D100043F02003C4F89C3084F89820A0E6616832
:104D20006668896821F00301B16022E742F0200241
:104D30009A61ADE600A00040002B0010FCD30040BB
:104D4000844690F89800012807D0DCF89C300120B8
:104D500043F00403CCF89C3070470098DCF800C0A6
:104D600040EA4303002043EA820343EA0113CCF8FC
:104D70008030704790F898200346012A07D0D0F879
:104D80009C20012042F00402C3F89C207047D0F818
:104D900000C00222002180F89820DCF81820084684
:104DA00022F00102CCF81820C3F89C10704700BF15
:104DB00070B590F8983082B00446022B13D1036886
:104DC0001D46D3F8C03013F07C5F15D0D5F8C43041
:104DD00013F400131E4616D0D0F89C3043F4007331
:104DE000C0F89C3005E0D0F89C3043F00803C0F8D0
:104DF0009C30012002B070BDD0F89C3043F02003FD
:104E0000C0F89C30F5E7D5F8C430C3F304430193F0
:104E1000FFF75EFD0122019B304602FA03F3C5F85D
:104E2000D030C4F8943002B070BD00BFD0F8940008
:104E3000704700BF90F898200346022A07D0D0F8A8
:104E40009C20012042F00802C3F89C2070470368B0
:104E50000020C3F8D4107047F0B50D4690F89810B4
:104E6000022957D1402D64D0412D7ED0016DA94239
:104E700058D9416D0027C46F05FB01F104EB810196
:104E80000C6804F0804454600E68002C40F0908060
:104E9000C6F38A4616600C6804F0005494600C68EF
:104EA00004F0004414618C88D4614C6804F47024CC
:104EB000D460240C4E6806F4801656614E6806F4E1
:104EC00000169661CE7906F07F061662414E16F8FE
:104ED00004C04C68E40F5462BCF1000F0ED0013BDB
:104EE00001F1070EAEF1060C1EF8014F03F8014F59
:104EF000ACEB010CD489345D6445F3D8402D0368D4
:104F000059D0412D62D01F2D59D80122AA40C3F893
:104F1000982052E0D0F89C3043F00803C0F89C3051
:104F20000120F0BDD0F89C3043F02003C0F89C3045
:104F3000F6E70168D1F8A04014F4FE0FF2D0D1F8E2
:104F4000A44064062DD0D1F8A440E70101D5D1F8E2
:104F5000A040D1F8A410C1F30524416C274604FBFE
:104F600001F1446F04EB81018AE70168D1F8B04098
:104F700014F4FE0FD6D0D1F8B440660611D0D1F8A3
:104F8000B440E40101D5D1F8B040D1F8B410C1F378
:104F90000524C16C274604FB01F1846F04EB8101F9
:104FA0006EE7D0F89C3043F48073C0F89C30B7E7CC
:104FB00026F060466EE7C3F8A8700020F0BD05F04B
:104FC0001F050122AA40C3F89C20F6E7C3F8B87079
:104FD000F3E700BF50C50008034600201B685B6C68
:104FE00003F0070CC3F30222C1E900C203F0180C5E
:104FF000C3F34012C1E902C2C3F3801CC3F3C01261
:10500000C1E904C2C3F3C02CC3F30032C1E906C234
:10501000C3F3403CC3F38032C3F30643C1E908C283
:105020008B6270474029036804D0D3F8B40000F0C5
:105030007F007047D3F8A40000F07F00704700BFE6
:105040000368D3F8C40000F03F007047064BD868EF
:1050500010F0010006D00549054A59605A60D86829
:1050600000F00100704700BF002000522301674597
:10507000AB89EFCD044BDA6842F00102DA60D86800
:10508000C04300F0010070470020005270B5044694
:105090000D46FFF79FFB174A13695E0704D5611C95
:1050A00019D113695C07FCD4012D01D0002070BD1B
:1050B000104A114913690B4006D11369DB03F5D57A
:1050C0004FF480335361F1E70C4C2846A169194332
:1050D000A161536170BD0646FFF77CFB801BA042B7
:1050E00005D824B1034A13695807F5D4DCE7032037
:1050F00070BD00BF002000520000EE1778C20020F3
:1051000038B51E4B187D012836D001F1784C0120AE
:10511000BCF5801F187500D338BD154600220C461B
:1051200001464CF250309A61FFF7B0FF134B00BBC1
:1051300013482A46C16841F00201C160BFF36F8F76
:10514000BFF34F8F05F1200C611B106850500432E3
:105150006245FAD1BFF36F8FBFF34F8F01214CF23D
:105160005030FFF793FF0649044BCA6822F0020251
:10517000CA6000221A7538BD022038BD78C20020EE
:10518000002000522DE9F8433B4F3B7D012B70D0AE
:1051900000230124894605463C75BB614368D90755
:1051A00040D40368012B3BD04FF0FF33C9F80030E7
:1051B000AA68D5F80CC0164602EB0C039A422FD20F
:1051C000DFF8BC802D4C06E0D5E9022C01360CEB53
:1051D0000203B34224D96B6801214CF25030DB0743
:1051E000F4D5D8F80C302A6923F4E663C8F80C30FB
:1051F000D8F80C3043EA0623134343F08403C8F87D
:105200000C30FFF743FFD8F80C302340C8F80C30BF
:105210000028D9D0C9F8006000233B75BDE8F883A9
:105220000020F9E721464CF25030FFF72FFFF0B98C
:105230002968A142B8D16A682B69D207F0D5104C11
:105240004CF25030E26822F03002E260E268134330
:10525000E360E36843F08803E360FFF717FFE36868
:10526000003823F0080318BF0120E360D4E720468C
:10527000D2E70220BDE8F88378C20020FBF8FFFFE8
:10528000002000522DE9F04F0E46096885B0002934
:1052900000F0AD8000234FF0010B4FF0B04E0096B0
:1052A0000BFA03FC1CEA010A00F09C80009E5A00E5
:1052B0007468032604F0030506FA02F705F1FF38C7
:1052C000B8F1010F40F29680032D0BD0009ED0F86C
:1052D0000C80B66828EA070806FA02FC4CEA080CBB
:1052E000C0F80CC005FA02F2056814F4403F25EA44
:1052F000070542EA0502026074D0744D03F003070B
:105300000F26D5F8F420BF0042F0020206FA07FC8F
:105310006F4EC5F8F420D5F8F42023F00305B04211
:1053200005F1B04502F0020205F580650392039A8B
:10533000AA6822EA0C022CD006F58066B04200F082
:10534000A080644EB04200F0A280DFF88CC16045BE
:1053500000F09180DFF884C1604500F0A480DFF8A0
:1053600080C1604500F0A580DFF878C1604500F09D
:105370009480DFF874C1604500F0A180DFF86CC153
:1053800060450CBF4FF0090C4FF00A0C0CFA07F700
:105390003A43AA60E702DEF8002054BF22EA0A027C
:1053A0004AEA0202A602CEF80020DEF8042054BF2A
:1053B00022EA0A024AEA0202A503CEF80420DEF835
:1053C000842054BF22EA0A024AEA0202E403CEF829
:1053D0008420DEF8802054BF22EA0A024AEA020250
:1053E000CEF88020013331FA03F27FF459AF05B0D3
:1053F000BDE8F08F009E022DD0F80890F66829EAEB
:10540000070906FA02F8009E48EA0908B668C0F8DB
:105410000880C4F30018D0F8049008FA03F829EAC9
:105420000C0C48EA0C0CC0F804C006FA02FCD0F8D8
:105430000C8028EA07084CEA080CC0F80CC07FF47E
:1054400051AF03F0070C009E4FEAD3084FEA8C0CD3
:10545000366900EB880806FA0CF6D8F82090019619
:105460000F2606FA0CFC019E29EA0C0946EA090CF3
:10547000C8F820C036E74FF0030C0CFA07F73A43A0
:1054800087E74FF0010C0CFA07F73A4381E74FF03A
:10549000020C0CFA07F73A437BE74FF0060C0CFAC4
:1054A00007F73A4375E74FF0040C0CFA07F73A4355
:1054B0006FE74FF0050C0CFA07F73A4369E74FF036
:1054C000070C0CFA07F73A4363E700BF00440258A1
:1054D0000000025800080258000C02580010025840
:1054E0000014025800180258001C025800240258E8
:1054F00002B909048161704738B5104CE36813F0B4
:10550000040FE36805D103F00703181A18BF012040
:1055100038BD23F007030343E360FFF75BF905465B
:1055200005E0FFF757F9401BB0F57A7F04D86368B0
:105530009B04F6D5002038BD012038BD0048025834
:10554000024AD36843F08073D36070470048025822
:10555000F0B58DB078B390F8BD340446056803F01B
:10556000FF02002B00F0818028460323261D84F8CB
:10557000BD34EB6B254613F4807308BFE36004F081
:105580002DF855F8107BEC46AE46BEE80F00ACE8AF
:105590000F00BEE80F00ACE80F009EE803008CE8A7
:1055A0000300384696E80E0003F048FF014630B18C
:1055B000022384F8BD34012528460DB0F0BD0B90C0
:1055C000206804F013F8D4F804C00B99BCF1000F64
:1055D0002AD00A460127084602EBC20302F1010E57
:1055E00004EB830383F83C20A3F856205FFA8EF285
:1055F00083F83D70624583F84000D864C3E9110028
:10560000EAD3002201EBC103481C04EB830383F8B7
:105610007C12C1B283F87D22614583F88022C3F8F1
:105620008C22C3E9A122EDD3EC460FCDACE80F00EC
:105630000FCDACE80F0095E803008CE8030096E876
:105640000E00206804F05AF805460028B0D1012267
:10565000636A84F83800934284F8BD240BD0206834
:1056600004F0F4FB28460DB0F0BD80F8BC24FEF732
:10567000B7FB206879E7204600F0D6FDEFE700BFD2
:1056800090F8BC34012B1BD00122036810B580F8C0
:10569000BC24DA6BD20502D4826A012A0BD00446FC
:1056A000184603F093FF206804F0C0FB002318465F
:1056B00084F8BC3410BD9A6B42F480329A63EEE7F2
:1056C000022070472DE9F04F066889B00446304645
:1056D00004F0F8FB10B109B0BDE8F08F0546206872
:1056E00004F0C4FB0028F6D0D6F8083806F50062AE
:1056F0002068C3F30D230392C4F8FC3404F0B6FB16
:105700008107236803D55A6902F002025A611846DC
:1057100004F0ACFBC206236814D59A6922F010028B
:105720009A61376A07F4F01207F00F08B2F5802F7C
:1057300000F0F482B2F5402F00F03E829A6942F008
:1057400010029A61184604F091FB070300F1598199
:10575000206804F08BFB10F4802F206840F0F68066
:1057600004F084FB0028C0F2D080206804F07EFBA7
:10577000030500F1BF80206804F078FB000114D518
:105780002268536903F00063536194F8F434002BEA
:1057900040F0FB810121204684F8F414536DC3F3DB
:1057A0008303C4F8F83400F053FD206804F05EFB76
:1057B00010F4805F206840F09F8104F057FB10F4E4
:1057C000005F206840F0818104F050FB010700F188
:1057D0007381206804F04AFB02061CD5B369626835
:1057E00023F08003012AB36115D92746012503E080
:1057F00001352437AA420ED997F8A332012BF7D1ED
:1058000005EBC501206804EB810101F51F7104F06F
:1058100013FA6268ECE7206804F028FBC30235D570
:105820006268012A14D906F512632746B04601259D
:1058300026461C4697F864302168012B01D10029C7
:1058400076DB013520342437AA42F3D83446464665
:105850002068436903F48013436104F007FB870267
:1058600016D4206804F002FB400000F11C8120687F
:1058700004F0FCFA41077FF52EAF23685D686A07E4
:1058800000F16B825A682A435A6024E72068E4E7F3
:105890006768012F28D906F532622346012103E00B
:1058A0008F4203F124031FD093F8A402013115683D
:1058B00020320128F4D1002DF2DAD4F8FC0405F4EA
:1058C000803500F001008542EAD1012083F8A3026F
:1058D000B06940F08000B06170690506E0D4039AB9
:1058E000536843F4007353602068436903F4001362
:1058F0004361B7E7039B9B68DF0700F133822068B1
:10590000436903F40063436136E7039A536823F065
:105910000103536094F8F434012B00F046812046D3
:10592000FEF7ECFA2068436903F0004343611DE78A
:1059300005F00F0187F86330306801EBC10106EB19
:1059400081013C3104F078F972687AE704F09AFA40
:10595000002800F0448106F510628046AB462068BE
:105960003546A1460026174604E001364FEA58089E
:105970002434203718F0010F07D101364FEA5808B8
:105980002434203718F0010FEFD0F1B204F08AFA76
:1059900003465FFA86FAD80716D5012006F00F01F4
:1059A000039A00FA01F1526B22EA010203994A6359
:1059B000D9F80C10B860814200F0D88151464846B1
:1059C0000493FEF75FFA049B190701D50822BA6019
:1059D000DA0601D51022BA60580601D54022BA6015
:1059E000990700F158811A0600F10381D9F80000E7
:1059F0005FEA5803984600F0F880013624342037D7
:105A0000C0E7206804F036FA074600283FF4A0AE4D
:105A1000AA4623460494B146002506F5306403E007
:105A200001357F0820342433FE0705D401357F0873
:105A300020342433FE07F3D5049AE9B205935FFAC4
:105A400085F8106804F026FA10F0010F0646059B51
:105A500040F02F81300700F14D81F10601D5102271
:105A6000A260B2070FD5D9F81420100604D5039907
:105A70004A6842F480624A6093F87F22012A00F06B
:105A8000BB810222A260B10601D52022A260B2042D
:105A900002D54FF40052A2607F0800F0A2800135C9
:105AA00020342433C6E72046FEF734FA20684369E1
:105AB00003F080434361DBE62046FEF7EDF9206802
:105AC000436903F00803436184E604F0FFF92068AA
:105AD00003F0EAFE2568206101F020F8227C0146EF
