:020000040800F2
:1000000000000220D90700082D0800082D0800086C
:100010002D0800082D0800082D0800080000000029
:100020000000000000000000000000002D08000893
:100030002D080008000000002D080008E9C2000893
:100040002D0800082D0800082D0800082D080008BC
:100050002D0800082D0800082D0800082D080008AC
:100060002D0800082D0800082D0800082D0800089C
:100070002D0800082D0800082D0800082D0800088C
:100080002D0800082D0800082D0800082D0800087C
:100090002D0800082D0800082D0800082D0800086C
:1000A0002D0800082D0800082D0800082D0800085C
:1000B0002D0800082D0800082D0800082D0800084C
:1000C0002D0800082D0800082D0800082D0800083C
:1000D0002D0800082D0800082D0800082D0800082C
:1000E0002D0800082D080008000000002D08000859
:1000F0002D0800082D0800082D0800082D0800080C
:100100002D0800082D0800082D0800082D080008FB
:100110002D08000891BE00082D0800082D080008D1
:100120002D0800082D0800082D0800082D080008DB
:100130002D0800082D0800082D0800082D080008CB
:1001400000000000000000000000000000000000AF
:100150002D0800082D0800082D0800082D080008AB
:100160002D0800082D0800082D0800082D0800089B
:100170002D080008EDC200082D080008000000004E
:100180002D0800082D0800082D0800082D0800087B
:100190002D0800082D0800082D0800082D0800086B
:1001A0002D0800082D0800082D0800080000000098
:1001B0002D0800082D0800082D0800082D0800084B
:1001C0002D0800082D0800080000000000000000B5
:1001D00000000000000000002D08000800000000E2
:1001E000000000000000000000000000000000000F
:1001F00000000000000000002D0800082D08000885
:100200002D0800082D080008000000002D08000837
:100210002D0800082D0800082D0800082D080008EA
:100220002D080008000000002D0800080000000054
:100230002D0800082D080008000000002D08000807
:100240002D0800082D0800082D0800082D080008BA
:100250002D0800082D0800082D0800082D080008AA
:100260002D0800082D0800082D0800082D0800089A
:100270002D0800082D0800082D08000800000000C7
:100280002D0800082D0800082D0800082D0800087A
:10029000000000002D0800082D08000800000000E4
:1002A000000000002D0800082D0800082D08000897
:1002B0002D0800082D0800082D0800082D0800084A
:0C02C0002D0800082D0800082D0800087B
:1002D00010F8012B11F8013B012A28BF9A42F7D0F0
:1002E000D01A7047034613F8012B002AFBD1181AC5
:1002F000013870470000000000000000000000000E
:1003000001F0FF01102A2BDB10F0070F08D010F8C6
:10031000013B013A8B422DD010F0070F42B3F6D1CA
:10032000F0B441EA012141EA014122F007047FF0E3
:1003300000070023F0E80256083C85EA010586EA3A
:10034000010685FA47F5A3FA87F586FA47F6A5FA76
:1003500087F68EB9EED1F0BC01F0FF0102F0070282
:1003600032B110F8013B013A83EA010313B1F8D12D
:100370000020704701387047002D06BF354603380E
:10038000073815F0010F07D1013015F4807F02BF47
:10039000013015F4C03F0130F0BC0138704700BF98
:1003A00081F0004102E000BF83F0004330B54FEA26
:1003B00041044FEA430594EA050F08BF90EA020F93
:1003C0001FBF54EA000C55EA020C7FEA645C7FEA26
:1003D000655C00F0E2804FEA5454D4EB5555B8BF49
:1003E0006D420CDD2C4480EA020281EA030382EABA
:1003F000000083EA010180EA020281EA0303362D4C
:1004000088BF30BD11F0004F4FEA01314FF4801C1E
:100410004CEA113102D0404261EB410113F0004F30
:100420004FEA03334CEA133302D0524263EB4303E7
:1004300094EA050F00F0A780A4F10104D5F1200E85
:100440000DDB02FA0EFC22FA05F2801841F10001E0
:1004500003FA0EF2801843FA05F359410EE0A5F1B4
:1004600020050EF1200E012A03FA0EFC28BF4CF0E5
:10047000020C43FA05F3C01851EBE37101F000459B
:1004800007D54FF0000EDCF1000C7EEB00006EEBA8
:100490000101B1F5801F1BD3B1F5001F0CD3490832
:1004A0005FEA30004FEA3C0C04F101044FEA445289
:1004B00012F5800F80F09A80BCF1004F08BF5FEA10
:1004C000500C50F1000041EB045141EA050130BDF0
:1004D0005FEA4C0C404141EB0101013C28BFB1F502
:1004E000801FE9D291F0000F04BF01460020B1FA4D
:1004F00081F308BF2033A3F10B03B3F120020CDA20
:100500000C3208DD02F1140CC2F10C0201FA0CF0FD
:1005100021FA02F10CE002F11402D8BFC2F1200C62
:1005200001FA02F120FA0CFCDCBF41EA0C01904018
:10053000E41AA2BF01EB0451294330BD6FEA040461
:100540001F3C1CDA0C340EDC04F11404C4F120024C
:1005500020FA04F001FA02F340EA030021FA04F35E
:1005600045EA030130BDC4F10C04C4F1200220FAB5
:1005700002F001FA04F340EA0300294630BD21FAF3
:1005800004F0294630BD94F0000F83F4801306BFB9
:1005900081F480110134013D4EE77FEA645C18BFAD
:1005A0007FEA655C29D094EA050F08BF90EA020F44
:1005B00005D054EA000C04BF1946104630BD91EA3C
:1005C000030F1EBF0021002030BD5FEA545C05D13F
:1005D0004000494128BF41F0004130BD14F580047E
:1005E0003CBF01F5801130BD01F0004545F0FE41F2
:1005F00041F470014FF0000030BD7FEA645C1ABF27
:10060000194610467FEA655C1CBF0B46024650EA5D
:10061000013406BF52EA033591EA030F41F4002189
:1006200030BD00BF90F0000F04BF0021704730B50F
:100630004FF4806404F132044FF000054FF00001E4
:1006400050E700BF90F0000F04BF0021704730B5A5
:100650004FF4806404F1320410F0004548BF40427A
:100660004FF000013EE700BF42004FEAE2014FEACF
:1006700031014FEA02701FBF12F07F4393F07F4FAA
:1006800081F06051704732F07F4208BF704793F0AD
:100690007F4F04BF41F40021704730B54FF46074C0
:1006A00001F0004521F000411CE700BF50EA0102C3
:1006B00008BF704730B54FF000050AE050EA01026C
:1006C00008BF704730B511F0004502D5404261EBDC
:1006D00041014FF4806404F132045FEA915C3FF41D
:1006E000D8AE4FF003025FEADC0C18BF03325FEABA
:1006F000DC0C18BF033202EBDC02C2F1200300FA6B
:1007000003FC20FA02F001FA03FE40EA0E0021FA8F
:1007100002F11444BDE600BF53B94AB9002908BF2D
:1007200000281CBF4FF0FF314FF0FF3000F00CB835
:10073000ADF1080C6DE904CE1CF06AFEDDF804E0B2
:10074000DDE9022304B07047704700BF0348044B43
:10075000834202D0034B03B118477047CC020020FC
:10076000CC020020000000000548064B1B1AD90FE0
:1007700001EBA301491002D0034B03B118477047A6
:10078000CC020020CC0200200000000010B5064C76
:10079000237843B9FFF7DAFF044B13B10448AFF3F2
:1007A00000800123237010BDE00200200000000043
:1007B00030D7010808B5054B1BB105490548AFF313
:1007C0000080BDE80840FFF7CFBF00BF0000000079
:1007D000E402002030D70108DFF838D000F028F814
:1007E000002103E00C4B5B58435004310B480C4B89
:1007F00042189A42F6D30B4A02E0002342F8043B27
:10080000094B9A42F9D30FF067FD1AF059F908F035
:1008100081FB704700000220B85A04080000002045
:10082000CC020020E0020020C06C0120FEE70000A6
:10083000044AD36843F00203D36053689B04FCD599
:10084000704700BF0048025870B594B015461E4668
:1008500000F1300408AA0346844696469CED007ACF
:100860000CF1080C5CED017A0EF1080E64450EEDFA
:10087000027A4EED017AF1D10446F1EE045A90ED80
:10088000016AEE462030D4ED006AEC46B0EE667A9E
:10089000D3ED026AF0EE467A93ED036A08330CF169
:1008A000080C36EEC77A76EE677A984227EE257AFC
:1008B00067EEA57A0CED027A4CED017AE6D1F7EEFF
:1008C000005A02F1280C75EEC05A9DED096A1046D7
:1008D000DDED086AF0EE664AD0ED026AB0EE465AE7
:1008E00090ED036A26EE807A083066EE007A844541
:1008F000A4EEA57AE5EE257A00ED027A40ED017AC4
:10090000E8D1ACF1080C6245DFD10EF1180C9DED79
:10091000016A7046DDED006AF0EE664AD0ED026ACB
:10092000B0EE465A90ED036A26EE807A083066EE05
:10093000007A6045A4EEA57AE5EE257A00ED027A0C
:1009400040ED017AE8D1A0F1080CE645DFD1089B23
:10095000009A0B60099B2B603260019B189A136010
:1009600014B070BDF7EE007ADFED1A5AF0EE084AC7
:100970009FED196A20EE004A9FED183A77EEC07A93
:10098000DFED173A60EEA55ABEEE007A67EEA76A71
:1009900067EEA47A20EE045A66EEA46A67EE847AC3
:1009A00020EE866A26EE800A27EE877A67EEA57A21
:1009B00060EEA30ADFED0B3AA0EE037AE0EE067AD2
:1009C000A5EE237AE5EE207A80ED007AC1ED007A7B
:1009D000704700BFAE47213FF628DC3E9A9919BE0A
:1009E000B7D1303F5C8F7AC0164A012100231648E8
:1009F00010B51170154C164A037013702370154A08
:100A000015481649164C136003600B700FF022FD59
:100A1000144AFA38237810604BB113480BF018F8D9
:100A2000237853B11148BDE810400AF0DDBF1048EB
:100A30000BF00EF82378002BF4D10E48BDE81040DF
:100A40000AF0D2BF6C0500207A050020790500204D
:100A500078050020FC040020740500206F050020AC
:100A60006D05002068050020A0D70108E8D701081F
:100A7000C4D7010804D8010800B58BB000234FF09B
:100A8000000C03AA04A807A98DED010A0693099397
:100A9000CDF80CC0CDE90433CDE907330FF054FA9B
:100AA000DDED087A1F4B9DED077AF1EE677ADDEDFB
:100AB000066A0398B1EE477A1B49F1EE666A1B4A53
:100AC000D3ED015A086093ED006A77EEE57A92ED76
:100AD000005A174B37EE467A76EEC56A154993ED04
:100AE000016A154A77EEC67AD3ED005AC1ED006A65
:100AF0009FED125A37EE657AD1ED004AD2ED006AC9
:100B0000A7EE856A9DED010AE7EE055AF0EE667ADA
:100B1000E4EE807A83ED016AC3ED005AC2ED007AFB
:100B20000BB000BD840500209C050020B40500200A
:100B30007C050020B0050020AC050020CDCC4C3E4B
:100B400010B582B004460FF085FC144B1449154AC9
:100B50000094DFF868C00978126893ED000A124B20
:100B6000DCED000A93ED001ADFF854C00F4BDCED0A
:100B7000001A93ED002ADFF84CC00D4BDCED002A83
:100B800093ED003ADFF840C00A4BDCED003A93EDFC
:100B9000004A094B0CF072FF02B010BDB0050020F6
:100BA000C0050020BC050020A8050020A0050020ED
:100BB00098050020900500205C120208AC0500207A
:100BC000A40500209C0500209405002000B5DFF856
:100BD0006CC00B46DFF868E083B0174A9EF800103F
:100BE00012689CED000ADFF85CC0DCED000ADFF85B
:100BF00058C09CED001ADFF854C0DCED001ADFF895
:100C000050C09CED002ADFF84CC0DCED002ADFF874
:100C100048C09CED003ADFF844C0DCED003ADFF854
:100C200040C09CED004A4FF0000CCDF800C00CF025
:100C300025FF03B000BD00BFBC050020B0050020AB
:100C4000C0050020AC050020A8050020A405002058
:100C5000A00500209C050020980500209405002098
:100C60009005002070B5CCB003468021494A0CA8FD
:100C700019F086FD48490CA819F05AFE002872D0D8
:100C80000346002406AD01E0062C0BD045F8043BDA
:100C900000204149013419F04BFE03460028F3D1EE
:100CA000062C60D13D490698FFF712FB00285AD167
:100CB0003B490798FFF70CFB002854D139490898A5
:100CC000FFF706FB00284ED137490A98FFF700FBD3
:100CD000002848D1099C0A2205A9204619F082FC67
:100CE00022780546002A47D0059B1B78002B43D16C
:100CF000022841D80B9C04A9204619F0B5FB2378A3
:100D0000002B40D0049B1B78002B3CD1F0EEC07A26
:100D10009FED267AF4EE477AF1EE10FA33D8B5EE6D
:100D2000C00AF1EE10FA2ED4DFED217AB4EEE70A14
:100D3000F1EE10FA27DCE8B28DED030A0AF0E6FDC9
:100D40009DED030A2B461B4AB7EEC00A80212CA852
:100D50008DED000B19F014FD2CA80AF045FE2CA80F
:100D60000AF02AFE05E014480AF03EFE12480AF096
:100D700023FE01204CB070BD10480AF035FE0F482C
:100D80000AF01AFEF5E70E480AF02EFE0C480AF0AB
:100D900013FEEEE720D8010824D801084CD801083A
:100DA00058D801085CD8010864D80108FFFF7F7F8C
:100DB00000003443C0D8010828D8010870D80108C1
:100DC00098D801082DE9F041B2B006460F4690468A
:100DD000A021384B384A0AA819F0D2FC37490AA892
:100DE00019F0A6FD90B10346002401AD45F8043F7B
:100DF00000203249013419F09BFD0346002855D0EC
:100E0000082CF3D1029B1A78522A03D0002032B06A
:100E1000BDE8F0815A784B2AF8D19B78002BF5D1A8
:100E200027490398FFF754FA0028EFD12549049881
:100E3000FFF74EFA0028E9D131460598FFF748FA46
:100E40000028E3D120490698FFF742FA0028DDD1B7
:100E50001E490898FFF73CFA0028D7D1099C1C4985
:100E60002046FFF735FA28B11A492046FFF730FA35
:100E70000028CBD1079D0A2201A9284619F0B2FB10
:100E80002B780246002BC1D0019B1B78002BBDD1D3
:100E90000028BBD00E4920463A60FFF719FAB0FA95
:100EA00080F301205B0988F80030B0E7082CADD151
:100EB000A8E700BF8003002020D8010824D801083B
:100EC000F0D80108F4D8010804D9010808D90108AC
:100ED00010D9010814D901082DE9F041AAB006463D
:100EE0000F4690468021384B384A0AA819F048FC32
:100EF00037490AA819F01CFD90B10346002401AD42
:100F000045F8043F00203249013419F011FD034631
:100F1000002855D0082CF3D1029B1A78522A03D00E
:100F200000202AB0BDE8F0815A784B2AF8D19B788E
:100F3000002BF5D127490398FFF7CAF90028EFD114
:100F400025490498FFF7C4F90028E9D131460598EE
:100F5000FFF7BEF90028E3D120490698FFF7B8F95A
:100F60000028DDD11E490898FFF7B2F90028D7D133
:100F7000099C1C492046FFF7ABF928B11A492046C5
:100F8000FFF7A6F90028CBD1079D0A2201A9284620
:100F900019F028FB2B780246002BC1D0019B1B784F
:100FA000002BBDD10028BBD00E4920463A60FFF788
:100FB0008FF9B0FA80F301205B0988F80030B0E7C0
:100FC000082CADD1A8E700BFFC02002020D8010802
:100FD00024D801081CD9010824D9010804D9010822
:100FE00008D9010810D9010814D901082DE9F04FDA
:100FF000DFB0602106A80EF08DFC002800F01481FF
:101000008C4B06461978002900F05A830DF1180917
:10101000894C8A4D09EB060899F8003026680A2B9E
:1010200018BF0D2B0CBF0127002740F005830023BC
:1010300083498248AB5519F0E1FC8246002800F054
:101040000683AA4509D05046FFF74CF9064651469B
:101050002846721C19F038FC2660002E00F0E4824D
:10106000784B1B780F2B00F000832B46764AA0218B
:1010700036A819F085FB754936A819F059FC0346C6
:10108000002800F015811EAE4FF0000AB3464BF861
:10109000043B00206D490AF1010A19F049FC03469E
:1010A000002800F00181BAF10C0FF0D133681A78F2
:1010B000522A40F0FD805A784B2A40F0F9809B7804
:1010C000002B40F0F58062497068FFF701F90028B5
:1010D00040F0EE805F49B068FFF7FAF8002840F072
:1010E000E7805D49F068FFF7F3F8002840F0E08002
:1010F0005A493069FFF7ECF8002840F0D980584988
:10110000B069FFF7E5F8002840F0D2805549306A11
:10111000FFF7DEF8002840F0CB805349B06AFFF7B4
:10112000D7F8002840F0C480D6F814B00A2205A9E8
:10113000584619F057FA9BF800300290002B00F047
:10114000B780059B93F800B0BBF1000F40F0B08072
:10115000002800F0AD80F369444918460393FFF777
:10116000B7F8002800F0788303984149FFF7B0F8FA
:10117000002840F09D80736A0A2205A9184603934F
:1011800019F030FA039B1B78002B00F09180059B2F
:101190001B78002B40F08C80B0F5E17F40F0888018
:1011A000F66A0A2205A9304619F01CFA3378002B9A
:1011B0007ED0059B1B78002B7AD1B0F5B47F77D118
:1011C0002C4B1A782C4B1878024340F013832B4A8F
:1011D0002B4812680068024340F00C8301200299FA
:1011E0001870284B83F800B0274B1960274B1A70F2
:1011F000274B1A70274B1A70274B1A70274B1A70FF
:10120000BBF1000F00F02E831849029B36A8244A38
:101210000091802119F0B4FA36A80AF0E5FB2148C4
:101220000AF0CAFB00232360002738465FB0BDE800
:10123000F08F00BFC8040020C40400202404002054
:1012400078D90108C005002020D8010824D8010859
:101250001CD9010824D90108A8D9010804D901081A
:1012600008D90108B0D9010864D8010810D90108CB
:1012700014D90108F9040020E5040020E804002046
:10128000DC040020E4040020E0040020D804002056
:10129000D7040020D6040020D5040020D404002068
:1012A000D4D90108FCD90108BAF10C0F3FF4FEAE05
:1012B0002368002B00F0B8812B46814AA02136A874
:1012C00019F05EFA7F4936A819F032FB0346002870
:1012D00039D04FF0000A0DF1780B4BF8043B002099
:1012E00078490AF1010A19F023FB0346002800F0AF
:1012F000B781BAF10C0FF0D11E9B1A78522A22D175
:101300005A784B2A1FD19B78EBB96F491F98FEF78B
:10131000DFFFC0B96D492098FEF7DAFF98B96C4934
:101320002198FEF7D5FF70B96A492298FEF7D0FFE1
:1013300048B969492498FEF7CBFF20B9269B1A7853
:101340004C2A00F0F3812368002B00F06D812B46BE
:101350005B4AA02136A819F013FA5A4936A81EAEE6
:1013600019F0E6FA0346002800F0D0804FF0000A9A
:10137000B3464BF8043B002052490AF1010A19F028
:10138000D7FA0346002800F0BD80BAF10A0FF0D169
:1013900033681A78522A40F0B9805A784B2A40F0C4
:1013A000B5809B78002B40F0B18047497068FEF70C
:1013B0008FFF002840F0AA804449B068FEF788FFFC
:1013C000002840F0A3804549F068FEF781FF00281F
:1013D00040F09C803F493069FEF77AFF002840F0DA
:1013E00095803D49B069FEF773FF002840F08E807C
:1013F0003B49306AFEF76CFF002840F08780D6F842
:101400001CB038495846FEF763FF28B136495846A4
:10141000FEF75EFF002879D1736905A90A221846F4
:10142000029319F0DFF8029B82461B78002B6DD0E7
:10143000059B05A91B78002B68D1002866D0736A2C
:101440000A221846039319F0CDF8039B02901B78EB
:10145000002B5BD0059B1B78002B57D1431E062B1E
:1014600054D858461F49FEF733FF204BB0FA80F09E
:101470001A784009002A49D11D4A1268524545D1BF
:101480001C4A1278824241D1012119701A4B0299EB
:10149000C3F800A0194B1960002A00F0E581114A39
:1014A000029B6021009236A801935346144A19F01A
:1014B00067F936A80AF098FA00232360B5E600BF62
:1014C00020D8010824D801081CD901082CD901080A
:1014D000A8D9010804D9010808D90108C0DA01080F
:1014E000C8DA010810D9010814D90108F90400204C
:1014F000E8040020F8040020F4040020EC0400209C
:10150000D0DA0108BAF10A0F3FF442AF2B46734A12
:10151000A02136A819F034F9714936A819F008FA53
:101520000346002865D00DF1740A00274AF8043FED
:1015300000206B49013719F0FBF90346002856D00B
:10154000082FF3D133681A78522A52D15A784B2A8D
:101550004FD19B78002B4CD162497068FEF7B8FEE2
:10156000002846D16049B068FEF7B2FE002840D19D
:101570005E49F068FEF7ACFE00283AD15C4930695C
:10158000FEF7A6FE002834D15A49B069FEF7A0FE46
:1015900078BBD6F81CA058495046FEF799FE20B1FA
:1015A00056495046FEF794FE18BBD6F814B00A22EE
:1015B00005A9584619F016F89BF800300746C3B144
:1015C000059B1B78ABB9A0B150464B49FEF780FE96
:1015D0004B4BB0FA80F01B684009BB4209D1494B24
:1015E0001B78834205D1484B01221A701CE0082F5A
:1015F000A8D04649284619F001FA00285ED0444F89
:101600003B46444A6021304619F0BAF830460AF0A9
:10161000D3F926683B46404A602136A8009619F067
:10162000AFF836A80AF0E0F90023236009F10109B8
:10163000C8457FF4F1ACF7E5721C9F2A02D82260FE
:10164000AB55F3E7354827600AF0CEF9EEE72F49AE
:10165000284619F0D3F9824600287FF4F2ACFCE466
:10166000BAF10C0F7FF46FAE46E62D494C23DFF83C
:10167000B8E001F10C0B0A78A3F1610CA3F120068C
:101680000131A2F12000A2F1610A5FFA8CFCF6B2EE
:10169000C0B2BCF1190F98BF3346BAF1190F98BF09
:1016A00002469A427FF4E1AC8B451EF8013FE2D13D
:1016B0001B48FFF7D7FA00232360B5E50A4F9FE7E1
:1016C00001220F201A701D220CF052FA002800F09F
:1016D0008D8014480AF070F998E400BF20D8010802
:1016E00024D801081CD901082CD9010800DB010805
:1016F00004D9010808D9010810D9010814D9010832
:10170000E8040020F8040020E704002088D901083C
:1017100024D9010808DB010828DB010850DB010897
:101720002404002034D9010898D901085A78312AB4
:101730007FF409AE9B78002B7FF405AE289B1A78C6
:101740004C2A7FF400AE5A78322A7FF4FCAD9B78A5
:10175000002B7FF4F8AD239B0A2205A918460293BB
:1017600018F040FF029B83461B78002B3FF4EBAD43
:10177000059B1B78002B7FF4E6AD00283FF4E3AD1A
:10178000279B02935B78002B7FF4DDAD299B93F8B8
:1017900001A00393BAF1000F7FF4D5AD334925982A
:1017A000FEF796FD00285AD025983149FEF790FDA6
:1017B00000287FF4C8AD029B1E78A6F14103032BDD
:1017C0003FF6C1AD039B1878A0F14103032B3FF610
:1017D000BAAD86423FF4B7AD264B197811B9264908
:1017E000096859B125480AF0FFF81DE724480AF0B6
:1017F000E3F80BE423480AF0F7F813E501221A7026
:101800001E22214B83F800A0204BC3F800B0204BD0
:101810001E70204B18700F201F4B19600CF0A8F998
:10182000A0B11E480AF0C8F8BAF1000F12D00F4A52
:101830005B466021009236A8194A18F0A1FF36A82D
:101840000AF0D2F817480AF0B7F835E616480AF059
:10185000B3F8E9E7064AEBE74FF0010B8BE44FF0F2
:10186000010AA8E70249D0E4014A19E610D90108A3
:1018700014D90108F9040020E80400201CDA01084A
:1018800054D90108BCD90108F8040020F404002050
:10189000F1040020F0040020EC04002034DA0108F8
:1018A00078DA0108A0DA010854DA01085F4BB9EED2
:1018B000007AD3ED007AF4EEC77AF1EE10FA00F177
:1018C0009F80B1EE007ADFED5A6AF4EEC77AF1EE4E
:1018D00010FA37FE277AF0EEC77AF4EEE67AF1EEE8
:1018E00010FA40F28A80B5EEC07AF1EE10FA40F3B9
:1018F000998037EE667AF9EE007AD3ED016AF4EE5C
:10190000E76AF1EE10FA00F18480F1EE007A9FEDC3
:10191000486AF4EEE76AF1EE10FA77FEA67AF0EE86
:10192000E76AF4EEC66AF1EE10FA75D9F5EEC07A00
:10193000F1EE10FA73DD77EEC67A61EEA75A90EDFC
:10194000006A61EE277AD0ED016A9FED3A5AE1EE26
:10195000075AE1EEC77AA5EE826AE7EE826A76EE72
:10196000407AF4EEC57AF1EE10FA4FD49FED327A58
:101970009FED2F6AF4EEC77AF1EE10FA37FE277A60
:1019800027EE066A76EEE07A9FED2A7AF4EEC77AC1
:10199000F1EE10FA37D49FED287ADFED256AF4EEE8
:1019A000C77AF1EE10FA77FE277A67EEA67A30EE64
:1019B000067ADFED226AB0EEC00A70EEA77A80EDFB
:1019C000007AB4EEE60AC0ED017AF1EE10FA13D80F
:1019D000F0EEE00AF4EEE60AF1EE10FA0CD8184B3D
:1019E000D3ED007AF0EEE77AF4EEE67AF1EE10FA53
:1019F00002D800230360436070479FED127A7AE7B4
:101A00009FED117A77E7DFED117AD0E79FED0F6A4E
:101A1000B8E7DFED0D7A90E7DFED0A7A8DE777EE34
:101A2000867A8AE737EE267A65E700BF7C050020D4
:101A30000AD7A33D9A9919BE9A99193E0AD7A33C91
:101A4000A80500200000000048E17AC0A69B44BC25
:101A5000F8B50B780E460746F3B101380D4602E0A3
:101A600015F8013FC3B110F8012FA3F16101A3F1F3
:101A7000200EA2F1200CA2F16104C9B25FFA8EFE21
:101A80005FFA8CFC192998BF7346192C98BF6246DF
:101A90009A42E5D00020F8BD3046FEF723FC385CC2
:101AA0002C2818BF00280CBF01200020F8BD00BF63
:101AB0002DE9F047D4B0802104A80DF02BFF28B306
:101AC00004AC464DDFF8448100272618DFF840912A
:101AD00007E0501C9F281CD8286008F80230A64256
:101AE00014D014F8013B2A680D2B06D0A3F10A018B
:101AF000B1FA81F149090029EBD008F8027012B15E
:101B0000D9F800303BB9A6422F60EAD154B0BDE805
:101B1000F0872960E3E732480DF10B0203A9FFF7D4
:101B200051F920B1039BD9F80020934227D00DF141
:101B30000B0203A92B48FFF745F920B1039BD9F805
:101B4000002093422CD00DF10B0203A92648FFF789
:101B500039F90028D7D0039BD9F800209342D2D17D
:101B600022499DF80B2009788A42CCD120490120D6
:101B70000870002A2FD01F4A00921B4A1DE01B4A02
:101B80009DF80B1012789142D1D11B49097811B9F7
:101B90001A4901200870D2B1164A0092104A0CE08E
:101BA000124A11789DF80B208A42CCD114490120A9
:101BB000087072B10F4A00920A4A0192C021114A7C
:101BC00024A818F0DDFD24A809F00EFF9BE70E4ABB
:101BD000E3E70D4AEFE70C4ACEE700BF2004002000
:101BE0007CDB0108BCDB010800DB0108CD04002020
:101BF000CA04002010D90108C9040020CC04002028
:101C0000CB04002084DB010814D9010880030020E4
:101C1000D00400202DE9F04104460138504E5223F3
:101C200004F11E08054615F8012FA3F1610EA3F17A
:101C3000200CA2F12001A2F161075FFA8EFE5FFA8B
:101C40008CFCC9B2BEF1190F98BF6346192F98BF1B
:101C50000A469A420DD1454516F8013FE3D10123CA
:101C60004049414A0B7041481370BDE8F04109F00A
:101C7000A3BE3F4E04F110080546522315F8012F6C
:101C8000A3F1610EA3F1200CA2F12001A2F16107E2
:101C90005FFA8EFE5FFA8CFCC9B2BEF1190F98BFD5
:101CA0006346192F98BF0A469A420BD1454516F84C
:101CB000013FE3D12F4B00222F481A70BDE8F041BD
:101CC00009F07ABE2D4F04F10F080646522316F88C
:101CD000012FA3F1610CA3F12005A2F12001A2F1D3
:101CE000610E5FFA8CFCEDB2C9B2BCF1190F98BF5E
:101CF0002B46BEF1190F98BF0A469A4208D1B0454B
:101D000017F8013FE3D11E48BDE8F04109F054BE89
:101D10001C4E0B34522310F8012FA3F1610CA3F1D8
:101D20002005A2F12001A2F161075FFA8CFCEDB25F
:101D3000C9B2BCF1190F98BF2B46192F98BF0A469C
:101D40009A420BD1A04216F8013FE4D1064B012282
:101D50000D481A70BDE8F04109F02EBEBDE8F081D3
:101D6000C4DB0108790500207A0500204CDC01085D
:101D700074DC01086C05002020DC010838DC010857
:101D8000F8DB010810DC0108E4DB01082DE9F04371
:101D90000446ADF51D7D0EF05DFB002C68D080463D
:101DA00053492046FEF794FA0546002860D1514B6E
:101DB0001B68002B5CD0504A1268934258D14F4A9E
:101DC00011784F4A1278914252D14A4E40214D4AE1
:101DD00014A80093234618F0D3FC33684A4A4021E4
:101DE000009324A82346A8F1C80918F0C9FC32685A
:101DF00023464021009234A8444A18F0C1FC4448CC
:101E000009F026FE2B4603930EF024FBA0EB0902FB
:101E1000039BC72A48D8402104A803930DF07AFDFC
:101E2000039BB8B104AA5CAE1718144606E0FF295C
:101E30000CD80134F2540B46BC420BD02278591C0A
:101E40000D2A01D00A2AF2D1F554D3B90134002366
:101E5000BC42F3D103930EF0FDFA43F69722A0EBB8
:101E6000080090422CD801200EF0FAFA039BCAE732
:101E7000284B06221A60002318460DF51D7DBDE88B
:101E8000F0833046FFF7C6FE24A93046FFF7E0FD99
:101E9000034634A930466BB9FFF7DAFD0028D5D0E8
:101EA0001C4B0A221A60E6E7814614A809F09CFD43
:101EB000039BB0E71848039309F0CAFD039BDBE7D7
:101EC0000F4B082013491A780A4B08601B686AB147
:101ED0001248134A6021009044A818F051FC44A80D
:101EE00009F082FD0F4809F0B3FDC4E70E48F0E7A2
:101EF000F4D8010860050020D0040020CD040020A3
:101F00006D05002088DC0108A0DC0108BCDC0108AC
:101F1000D4DC0108BC050020F8DC010810D9010858
:101F20001CDD010850DD010814D901082DE9F04736
:101F300090B00EF08FFA404B1B7823B93F4A1368DC
:101F4000C31AF92B66D8402168460DF0E3FCF0B1C6
:101F50006C463B4E3B4D271806E0501C5F2819D8B5
:101F60003060AB54BC4212D014F8013B32680D2BE8
:101F700006D0A3F10A01B1FA81F149090029ECD098
:101F80000023AB545AB90023BC423360ECD110B0EB
:101F9000BDE8F0872C48316009F05AFDE2E72B4894
:101FA00009F00AFD284609F007FD294809F004FD5B
:101FB000284B1A780F2A06D01B78072B03D0284607
:101FC000FFF728FEDFE71F494C23DFF8A48001F16B
:101FD0000C0A0A78A3F1610EA3F120000131A2F1ED
:101FE000200CA2F161095FFA8EFEC0B25FFA8CFC90
:101FF000BEF1190F98BF0346B9F1190F98BF624699
:102000009A42DCD18A4518F8013FE2D10D48FEF72B
:1020100029FEB8E71049114B10600A781B7822B9E5
:1020200033B10F4809F0E0FC8DE71BB10D48F9E72B
:102030000D48F7E70D48F5E7780500206805002012
:10204000FC04002000050020B8DD0108A8DD01081F
:10205000B4DD0108C00500206C0500206D050020DE
:1020600078DD0108E8D7010890DD010804D80108EF
:1020700098D9010830B59FB00EF0ECF9294B044611
:102080001B78E3B12849294B0A78EAB12849294D40
:102090000A68A21AB2F5967F2AD2274B1B6843B969
:1020A000264B1B68002B36D1254B1B780BB9FFF74D
:1020B0003DFF2878003818BF01201FB030BD1A49F5
:1020C000204B0A78002AE1D101201A4D05930870AF
:1020D000A4F5967016492A7008601B48049109F00F
:1020E000B7FCDDE904130A68A21AB2F5967FD4D3CF
:1020F0000C604FF4167240F29D1106A8CDE9012143
:1021000040F28A21114A0091602118F039FB06A89B
:1021100009F06AFCC1E70E4B1B78002BC9D1FEF712
:1021200065FFC6E76D0500207805002010D901087D
:102130007405002079050020DC040020E80400205C
:102140006F05002014D90108DCDD010808DE010854
:10215000E6040020144B1B6810B5044682B03BB95E
:10216000124B1B688BB9124B1B780BB9FFF7DEFEC5
:102170000AF0D8FC18B901900AF0DAFC60B92046E0
:1021800002B0BDE810400AF05FBA0A4B1B78002B82
:10219000EED1FEF72BFFEBE7FEF726FC064A0921FE
:1021A0000198116002B010BDDC040020E80400209A
:1021B0006F050020E6040020BC050020154B1B68BD
:1021C00000B583B03BB9144B1B68A3B9134B1B7804
:1021D0000BB9FFF7ABFE0AF0A5FC18B901900AF0A5
:1021E000A7FC78B90EF036F90AF09EF903B05DF855
:1021F00004EB0AF059BA0A4B1B78002BEBD1FEF71F
:10220000F5FEE8E7FEF7F0FB064A092101981160A8
:1022100003B000BDDC040020E80400206F050020AE
:10222000E6040020BC050020F8B50E46174604461B
:102230000EF010F90546FFF71DFF154B1B78D3B9BB
:10224000304609F005FC09E0FFF714FF98B9FFF7E5
:10225000B5FF034601209BB10EF002F90EF0FAF82B
:10226000401BA042F0D30B4809F0F2FB0A4B0822B6
:102270001A600020F8BD384609F0EAFB0120F8BDDD
:10228000054B1A68092AF4D005221A60F1E700BF4D
:102290007905002044DE0108BC0500202DE9F04F3F
:1022A000ADF54B7D82460EF0D5F8A84B05901A6827
:1022B00012F1010900F0C8814A46DFF8E4B240F6A5
:1022C000B8381A609BF80030059A002BA04BA2F199
:1022D000C801A2F10A021B7808BF4FF4E168079118
:1022E0000692002B00F0AE819A4C9B495046FDF7B8
:1022F000EFFF4EF6602347F230524021CDE90094C3
:102300000024A04208BF1A46944B1AA81C70944B94
:1023100009921C705346934A18F032FA5346924A77
:1023200040212AA8CDF8009018F02AFA53468F4A87
:1023300040213AA8CDF8009018F022FA53468C4A72
:1023400040214AA8CDF8009018F01AFA5346894A5D
:1023500040215AA8CDF8009018F012FA5346864A48
:1023600040216AA8CDF8009018F00AFA5346834A33
:1023700040217AA8CDF8009018F002FA5346804A1E
:102380006021B2A8CDF8009018F0FAF9B2A809F0CF
:102390005FFB0EF05FF8059B054604940893069BCF
:1023A000CDF80C90EB1A092B40D8079BEB1AC72BE2
:1023B00046D800260DF12809402148460DF0AAFA1A
:1023C00000B309EB00074D46204609E0421C5F2A96
:1023D00044D80DEB0004104684F86832BD4210D09A
:1023E00015F8013B0D2B01D00A2BEFD10DEB0003AB
:1023F000002283F86822002834D1BD424FF000004B
:10240000EED104460EF026F8002E40F0FB80059B2E
:10241000C01A404580F03B8101200EF021F80EF0FB
:1024200019F8069B0546EB1A092BBED9FFF7C6FE25
:10243000002800F07A81079B0695EB1AC72BB8D9C4
:102440001AA809F0D1FA53464E4A6021B2A818F0F2
:1024500097F9B2A809F0B0FA0795AAE74A4809F037
:10246000F7FACAE7494809F0A7FA9AA809F0A4FAC6
:10247000474809F0A1FA9AA8FFF7CCFB40F6B83319
:102480009BF800203AA943459AA838BF4346002A42
:1024900018BF9846FFF7DCFA0446002800F0828057
:1024A000002E00F0AB80039B60213A4AB2A8009353
:1024B000534618F065F9B2A809F0CAFA4AA99AA8D1
:1024C000FFF7C6FA0646002874D17AA99AA8FFF742
:1024D000BFFA0646002840F0BA806AA99AA8FFF71A
:1024E000B7FA80B142F6E06398450AD0039B6021B9
:1024F000294AB2A80093534618F042F9B2A809F04D
:10250000A7FA42F6E068DCB19AA85AA9FFF7A0FA48
:1025100008B9264662E70DF09DFF039BA0F1C804B1
:102520001E4A6021009305905346B2A8079418F004
:1025300027F9B2A809F08CFA40F6B83800230493C2
:10254000BD4200F0968000204AE700BF64050020ED
:102550006D05002010D901086CDE0108710500200E
:102560007005002078DE010898DE0108B0DE010861
:10257000C8DE0108E0DE0108F8DE0108BCDC010865
:1025800010DF0108B0DF0108B8E00108A8DD01088C
:10259000B4DD0108C8DF010870E001088CE0010823
:1025A0007A0500204AA99AA83446FFF751FA064650
:1025B00000288AD060495046DDF80C90FDF788FE6F
:1025C00000285AD19AA85D4918F018FA031E18BFBE
:1025D00001235B4C60215B4AB2A8CDF800902370C8
:1025E000534618F0CDF8B2A809F032FA2378002B40
:1025F00045D130460DF54B7DBDE8F08F0DF02AFF3B
:10260000049050E701200DF02BFF0DF023FF049BF9
:10261000099A0546C31A934250D2069BEB1A092B1E
:102620000AD8089BEB1AB3F57A7FFFF4C5AE2AA847
:1026300009F0DAF90895BFE6FFF7C0FD002874D06D
:102640000695EEE7404C50E60122914635E6DDF86E
:102650000C9053463D4A6021B2A8CDF8009018F086
:102660008FF8B2A809F0F4F9394B0A221A60002653
:10267000BFE700240DF0EEFEC9E60023A9E73548C8
:1026800009F0E6F930460DF54B7DBDE8F08FDDF839
:102690000C905346304A6021B2A8CDF8009018F053
:1026A0006FF8B2A809F0D4F900210122284B8BF869
:1026B000001023490A7008221A60D8E7DDF80C9050
:1026C0005346264A6021B2A8CDF8009018F058F879
:1026D000B2A809F0BDF95346214A40218AA8CDF895
:1026E000009018F04DF88AA809F07EF98AA809F040
:1026F0007BF953461B4A6021B2A8CDF8009018F030
:102700003FF8B2A809F0A4F901230D4A5046164932
:102710001370164A1370FDF7DBFD00287FF469AFD4
:102720000B4B082206461A6063E7094B1A68092A10
:102730009DD005221A609AE76CDE0108E0DF0108EF
:1027400071050020F4DF010814D901084CE00108EC
:10275000BC05002010E00108D4E001082CDF0108CE
:1027600050DF010868DF01089CDF010870050020C8
:102770002DE9F04F0546ADF52D7D0E46144603912B
:10278000002702900DF066FE2B46A0F1C8087B4A98
:102790004021814614A817F0F3FF2B46784A6021A8
:1027A00024A817F0EDFF2B46764A60213CA817F0CD
:1027B000E7FF2B46744A602154A817F0E1FF234637
:1027C000724A80218CA8CDE9005617F0D9FF8CA859
:1027D00009F03EF904AE0DF03DFEA0EB0803C72B57
:1027E0003AD8402130460DF095F8F0B13418B24691
:1027F00008E000236CAAD355B7BB0AF1010A0027F1
:10280000A24512D09AF800300A2B18BF0D2B0CBF2E
:1028100001250025EDD0791C7F2959D80AF1010A3C
:102820006CA8A245C3550F46ECD10DF013FE41F242
:102830008733A0EB0900984200F28680FFF7BEFCC8
:10284000002800F0938001200DF00AFE0DF002FE3A
:10285000A0EB0803C72BC4D9804614A809F0C4F81C
:102860004B4809F0A9F8BCE74A4809F0A5F86CA85C
:1028700009F0A2F8484809F09FF86CA8FFF7CAF9D8
:1028800024A96CA8FFF7E4F830BB3CA96CA8FFF7BB
:10289000DFF8834650BB54A96CA8FFF7D9F800288D
:1028A000ABD06CA83D4918F0A9F80446002835D0F3
:1028B0003B4809F081F801233A4928463A4A0B700F
:1028C00013703A4BC3F800B00DF52D7DBDE8F08FC5
:1028D000374809F0BDF890E7364809F06DF83CA993
:1028E0006CA8FFF7B5F883460028D4D003998CA8CC
:1028F000029B314A0091802117F042FF8CA809F019
:10290000A7F801232748284903702846274A0B7057
:10291000002313600DF52D7DBDE8F08F03998CA881
:10292000029B264A0091802117F02AFF8CA809F00B
:102930008FF823491D4B08220C701A600025284689
:102940000DF52D7DBDE8F08F03988021029B1D4A77
:1029500000908CA817F014FF8CA809F079F818499A
:102960000020124B082208701A60E7E70F4B1A6824
:10297000092AE3D005221A60E0E700BFF8E0010869
:102980001CE1010844E1010868E101088CE101084B
:10299000CCE10108A8DD0108B4DD01085CE2010812
:1029A00074E201087105002070050020BC050020BC
:1029B000D8E20108F8E1010824E20108A0E20108D8
:1029C0007A05002008E301082DE9F04FADF5617D9F
:1029D0000C4607900DF03EFDA74B0C901A6812F1C3
:1029E000010800F09E814246DFF8D8A240F6B837D1
:1029F0001A609AF80020A14B002A0C9A1B78A2F1C9
:102A0000C801A2F10A0208BF4FF4E1670A910992D6
:102A1000002B00F083819A4B0D930023994A137089
:102A2000994A1370002C00F04F810D9BC0A8974A63
:102A30008021009302230F900193434617F0A0FEDC
:102A400038A84346924A6021049017F099FE50A896
:102A50004346904A6021059017F092FE68A84346CD
:102A60008D4A6021069017F08BFE20A843468B4AC2
:102A700060210E9017F084FE894B0893079B8021FC
:102A8000884AA0A802930D9BCDE90083089B17F00C
:102A900077FEA0A808F0DCFF0DF0DCFC0023044664
:102AA0001D460B93099BE31A092B3DD80A9BE31A99
:102AB000C72B43D810AE402130460CF02BFF834685
:102AC000002800F047814FF000090024284608E064
:102AD000421C7F2A45D880A90B54104601345C451E
:102AE0000DD2335D0D2B01D00A2BF1D1002380AA2A
:102AF0001354002839D1013400205C45F1D3054638
:102B00000DF0A8FCB9F1000F7ED10C9BC01A8742D2
:102B100040F2278101200DF0A3FC0DF09BFC099BE6
:102B20000446E31A092BC1D9FFF748FB002800F03F
:102B30003E810A9B0994E31AC72BBBD90F9808F072
:102B400053FF079B584A80210293A0A80D9BCDE913
:102B50000083089B17F014FEA0A808F02DFF0A942C
:102B6000A8E7524808F074FFC5E7514808F024FF71
:102B700080A808F021FF4F4808F01EFF80A8FFF74B
:102B800049F840F6B8339AF8002080A80499002A42
:102B900018BF1F46FEF75CFF054678B1B9F1000F7C
:102BA0002ED0079B8021444AA0A8A946CDE90083E6
:102BB000089B17F0E5FDA0A808F04AFF059980A83A
:102BC000FEF746FF002840F0AF8080A80699FEF788
:102BD0003FFF002882D00799A0A8089B374ACDE97B
:102BE0000081802117F0CCFDA0A808F031FF344B04
:102BF0000A221A60002528460DF5617DBDE8F08F98
:102C00000DF028FC0B90CCE7012047F22F540DF07B
:102C100027FC0DF01FFC83460B9B099AABEB0303CB
:102C2000ABEB0202A34200F2AF80092A1CD80A9B38
:102C3000ABEB0303B3F57A7F10D2402130460CF0A2
:102C400069FE834600287FF440AF0DF003FC0120AD
:102C50000DF006FC0DF0FEFB8346DDE70E9808F054
:102C6000C3FECDF828B0E8E7FFF7A8FA002800F087
:102C70009E80CDF824B0DAE7640500206D050020C1
:102C800010D90108710500207005002058E30108E3
:102C900090E30108BCE3010868E10108E8E30108EA
:102CA0004CE3010864E40108F0E40108BCE5010814
:102CB000A8DD0108B4DD01082CE501088CE5010858
:102CC000BC0500207A050020079BC0A83C4A802153
:102CD00001930D9B0F900093434617F051FD38A8C8
:102CE0004346384A6021049017F04AFD50A84346F5
:102CF000354A6021059017F043FD68A84346334AE2
:102D00006021069017F03CFD20A84346304A602120
:102D10000E9017F035FD2F4B0893AFE62E4B0D9319
:102D20007BE6012290465FE6079B054600212B4883
:102D300001932B4A089BCDF8008001708021A0A848
:102D400017F01EFDA0A808F083FE28460DF5617D52
:102D5000BDE8F08F0DF07EFB0C9BC31ABB42FFF465
:102D6000D9AE079C8021089BA0A81E4ACDE900840B
:102D700017F006FDA0A808F06BFE1B4A214640464E
:102D8000FFF7F6FC054636E7079C8021089BA0A8C4
:102D9000164ACDE9008417F0F3FCA0A808F058FE0D
:102DA000134A21464046FFF7E3FC054623E7114B53
:102DB0001A68092A3FF41EAF05221A601AE700BFFD
:102DC0000CE4010840E4010844E1010868E101085D
:102DD000E8E3010844E3010814D901087105002063
:102DE0005CE50108E4E501082CE60108A0E401081F
:102DF000E0E40108BC0500202DE9F04FADF5077DAA
:102E000083460DF027FBA34B05901A6812F1010AC7
:102E100000F0DE805246DFF8EC8240F6B8361A60E9
:102E200098F80030059A002B9B4BA2F1C801A2F143
:102E30000A021B7808BF4FF4E16603910492002B4D
:102E400000F0C480954B0027954A402116A8CDE993
:102E500000A3944B1F705B4617F092FC5B46924AAE
:102E6000402126A8CDF800A017F08AFC5B468F4AC7
:102E7000402136A8CDF800A017F082FC5B468C4AB2
:102E8000402146A8CDF800A017F07AFC5B46894A9D
:102E900060216EA8CDF800A017F072FC6EA808F0B3
:102EA000D7FD0DF0D7FA049B0446C31A092B76D838
:102EB000039BE31AC72B7BD8402106A80CF02AFD00
:102EC00000285BD006AC251809E07A1C5F2A5FD881
:102ED0006F4487F8583117460134AC424ED02378FE
:102EE0000D2B08D0A3F10A09B9FA89F94FEA59194B
:102EF000B9F1000FE9D04FF000090DEB070383F89B
:102F00005891002FE8D06C4808F056FD56A808F0FC
:102F100053FD6A4808F050FD56A8FEF77BFE40F6C8
:102F2000B83398F8002026A9B34256A838BF3346D4
:102F30004A4518BF1E46FEF78BFD00284BD146A917
:102F400056A8FEF785FD0746002860D156A836A989
:102F5000FEF77EFD08B342F6E0694E45BCD05B4605
:102F6000574A60216EA80134CDF800A017F008FC84
:102F70006EA808F06DFDAC424E46B0D10DF06AFA75
:102F8000059BC01AB04269D201200DF069FA88E7AA
:102F90004C484F4608F05CFD9EE707469CE7FFF76C
:102FA0000DF900286FD0039B0494E31AC72B83D933
:102FB00016A808F019FD5B46434A60216EA817F079
:102FC000DFFB6EA808F0F8FC039475E73F4B3AE787
:102FD000012292461FE7334B07463D49584683F886
:102FE00000903C4BC3F800A0FDF772F918B35B46A4
:102FF000394A60216EA8CDF800A017F0C1FB6EA879
:1030000008F026FD38460DF5077DBDE8F08F5B46DC
:10301000324A60216EA8CDF800A017F0B1FB6EA86F
:1030200008F016FD2E4B0A221A60002738460DF5CF
:10303000077DBDE8F08F184B1A782A4BC3F800A023
:10304000294B1A70294B1870294B1870294B18708E
:10305000294B1870294808F0FBFCC8E75B46284A52
:1030600060216EA8CDF800A017F08AFB6EA808F0CA
:10307000EFFC002101221A4B88F8001009490A7060
:1030800008221A60D1E7164B1A68092ACDD005220A
:103090001A60CAE7640500206D05002010D90108F8
:1030A00078DE010871050020B0DE0108F8DE0108B5
:1030B000BCDC010838E60108A8DD0108B4DD010820
:1030C000ECE60108B8E0010858E6010814D9010847
:1030D000F4D8010860050020A4E60108C4E6010850
:1030E000BC050020D0040020CD040020CC0400202A
:1030F000CB040020CA040020C904002078E601089F
:1031000010E701087A0500202DE9F047ADF5327D82
:1031100005460DF09FF96B4B80461A68541C17D07A
:1031200022461A605DB168492846FDF7D1F830B9EA
:10313000664B1B681BB1664A126893420BD0654B05
:1031400006221A60002528460DF5327DBDE8F0877D
:1031500001221446E5E7604A604B12781B789342DF
:10316000EDD1A8F1C809A8F10A0A002B74D15C4B73
:103170005C4A602112A8CDE900432B4617F000FB02
:103180002B46594A602100942AA817F0F9FA2B46D9
:10319000564A6021009442A817F0F2FA2B46544A8E
:1031A000602100945AA817F0EBFA2B46514A80216F
:1031B000009492A817F0E4FA92A808F049FC0025C0
:1031C0000DF048F9A0EB0A030446092B33D8A4EB11
:1031D0000903C72B38D8402102A80CF09BFBC0B1D3
:1031E00002AC0027261808E06A1C7F2A36D8013472
:1031F00072A9B4424B5515460BD023780D2B01D044
:103200000A2BF1D172AB5F5565BB01340025B44286
:10321000F3D10DF01FF943F69723A0EB0800984275
:1032200040D801200DF01CF90DF014F9A0EB0A03B1
:103230000446092BCBD9FEF7C1FF002839D0A4EBF7
:103240000903A246C72BC6D912A8A14608F0CCFB99
:10325000294808F0B1FBBEE7284B89E7284808F069
:10326000F7FBD2E71846FEF7D5FC2AA972A8FEF7AD
:10327000EFFB78B942A972A8FEF7EAFB054668B9E8
:1032800072A85AA9FEF7E4FB0028BED0114B0A220F
:103290001A6057E71B4808F08FFBB6E71A4808F09A
:1032A0008BFB50E70B4B082218481A6008F0D0FB44
:1032B00048E7084B1A68092A3FF444AF05221A6010
:1032C00040E700BF64050020F4D801086005002035
:1032D000D0040020BC0500206D050020CD04002096
:1032E00014D9010838E70108B0DE0108C8DE01087A
:1032F000BCDC01085CE7010880E7010810D901087F
:10330000B8E00108A4E70108C8E70108ECE70108F4
:103310002DE9F04FADF53F7D07460D4616460DF001
:1033200099F88F4B04901C68013420D022461A6013
:103330008C4B1B78CBB18C4A47F230539E4298BFDE
:10334000B5F57A7F07D8B7F1030A18BF4FF0010A25
:10335000BAF1000F0ED0854B06221A604FF000091B
:1033600048460DF53F7DBDE8F08F814AE4E7012234
:103370001446DCE7049F4FF003092346A021C83F11
:10338000009296A87B4ACDF804900597049FCDE95A
:10339000025617F0F5F92346774A402106A8A7F10F
:1033A0000A0817F0EDF92346744A402116A817F0D1
:1033B000E7F92346724A402126A817F0E1F923468F
:1033C000704A80214EA8CDF80090CDE9015617F043
:1033D000D7F94EA808F03CFB0DF03CF8A0EB080331
:1033E0000446092B00F2A08057460DF1D80B059B2F
:1033F000E31AC72B00F28B80602158460CF08AFA42
:103400008246002800F0938000265C46002509E0F3
:10341000791C9F294BD86EA8C2550F46013501343F
:1034200055450ED222780D2A01D00A2AF0D1002269
:103430006EABDA55002F3ED10135002701345545DA
:10344000F0D30DF007F816BB049BC01A40F6B73353
:10345000984276D8012000260DF002F80CF0FAFF11
:10346000A0EB08030446092BC1D9FEF7A7FE0028EC
:103470006ED0A0460DF1D80B002EB8D06021584672
:103480000CF048FA82460028BFD10CF0E3FF801B05
:1034900041F2873398424DD801200CF0E1FF0CF047
:1034A000D9FFA0EB08030446092BE7D9DDE736482E
:1034B00008F0CEFAC0E7354808F07EFA6EA808F0AA
:1034C0007BFA334808F078FA06A96EA8FEF7C0FA2E
:1034D00050B1002EB0D10CF0BDFF81462D483746CB
:1034E00008F06AFA4E4699E716A96EA8FEF7B0FAF8
:1034F000814688B96EA826A9FEF7AAFA00289BD0B3
:10350000254808F0A5FA194B0A221A6026E796A862
:1035100008F06AFA05946FE7204808F099FA4846DF
:103520000DF53F7DBDE8F08F564657469DE70CF000
:1035300091FF89E71A4808F08BFA0C4B08221A60B1
:103540000CE7184808F084FA084B08221A6005E7CF
:10355000064B1A68092A3FF401AF05221A60FDE6FE
:10356000640500206D05002010D90108BC0500206D
:1035700014D9010814E8010858E8010874E80108A2
:1035800090E80108ACE801082CE90108A8DD010871
:10359000B4DD0108E8E8010810E90108FCE80108C9
:1035A0006CE9010850E90108F8B507460CF052FF34
:1035B0000646A0F10A050BE00CF04CFF431B092B5B
:1035C00003D90546FEF7FAFD40B101200CF048FF93
:1035D0000CF040FF801BB842EED3F8BD044B1A68D4
:1035E000092A01D005221A60024B07221A70F8BD81
:1035F000BC050020C00500202DE9F04F994C0027A4
:10360000994B4FF00108D4ED007ADFF8B8B22DEDF8
:103610000C8B89B030EE27AA93ED00DA0097039760
:10362000DFED928ADFED92BA9FED929ADFED929AEA
:103630009FED92BACDE901770CF00CFFDFED907AA7
:10364000904B8146B0EE67CAA0F1FA0AC3ED007A4A
:10365000F0EE67AA8C4B0646CBED007A0546C3ED2B
:10366000007A8A4B84ED00AAC3ED007A884BCDE93D
:103670000477CDE90677C3ED007A0CF0EBFE41F25A
:103680006F73A0EB090204469A4200F2DF80831BAD
:10369000092B40F2C380431B0A3607EE903A831B86
:1036A000F8EE677A092B88BF064667EEA87AF4EE33
:1036B000E87AF1EE10FA00F1A8809FED768AF4EE38
:1036C000C87AF1EE10FA38FE278A734DB0EE480A38
:1036D000FDF7D2F97AEE4DCAD5ED007A6BEEE77AB6
:1036E000ECEE897AF4EEE97AF1EE10FA00F18A80D4
:1036F000F4EEC97AF1EE10FA79FE277A28EE0B8AF9
:103700003CEE487AB4EEE77AF1EE10FA77DC3CEE64
:10371000088AF4EEC87AF1EE10FA38FE27CAB0EE45
:103720004C1A6946F0EE6A0A9FED550A5B488BED2C
:1037300000CA08F0E1FD002800F08C80584B1B689F
:1037400043B9584B1B68002B6ED1574B1B780BB9F4
:10375000FEF7ECFB09F0E6F918B909F0E9F90028E1
:103760006ED1684608F070FF58B9504B1A68092AA4
:1037700001D005221A60002009B0BDEC0C8BBDE819
:10378000F08F0CF067FE04A908F0ACFF70B9B8F137
:10379000000F04D1464808F05BF9444BE9E7CDE956
:1037A0000400CDE90600434808F052F9A4EB0A03EF
:1037B0002D4AF92B92ED00DA2AD8F0EEECCA0AF085
:1037C000C1FCDFED3D7AF4EEE7CAF1EE10FA12D853
:1037D000D5ED007A9FED397AF0EEE77AF4EEC77A0C
:1037E000F1EE10FA07D837B3E31B4F2B36D84FF062
:1037F0000008254641E700272546B8463DE7B0EEDC
:1038000047CA8CE7F0EE697A78E7B0EE688A5CE741
:1038100004A92046A246FDF7D9F9CEE72C4601209F
:103820000CF01EFE254628E7254B1B78002B91D176
:10383000FDF7DCFB8EE727464FF0000825461CE726
:10384000FDF7D2F8194B09221A608FE7174B0722B0
:103850001A6090E7154B06221A608CE7FEF7AEFC63
:103860008AE700BF8C050020AC0500206F12833A68
:10387000CDCC4C3ECDCC0C40CDCC0CC033337340C2
:1038800000000000A80500209805002094050020F5
:1038900090050020CDCC4C3DB00500207C120208E4
:1038A000DC040020E80400206F050020BC05002097
:1038B000ACE9010888E901080AD7A33C0AD7233DEF
:1038C000E6040020A40500202DE9F04F00232DED93
:1038D000108BE7B09FED948AF0EE408A1B93B0EE18
:1038E00060EA8DED148A8DED158A8DED168ACDE98D
:1038F0001C33CDE91E33CDE92033CDE92233CDE9A8
:1039000019338A4BD3ED00EA0CF0A4FDF0EE482AFF
:10391000DFED941AB0EE482A25AA012308908DED18
:10392000248A07EE903AF0EE680A18A917A8B8EEB4
:10393000E70A013320EE210AFDF714F8F0EE627A6F
:10394000DDED182AB0EE427A9DED172A412B72EE7A
:10395000E77A52ED016A32EE477A67EEA77AE7EE30
:10396000077AB1EEE77A77EE267AE2EC017AD8D1DF
:10397000DDED64AA9FED6ECAF4EECCAAF1EE10FA6A
:103980000AD86C4B06224FF0000A1A60504667B006
:10399000BDEC108BBDE8F08F9FED63AA664BDFEDA9
:1039A000677AB0EE4A8A83ED00AAB0EE4ABA644B59
:1039B0002EEE27EA9FED63FAF0EE4A9A83ED00AA15
:1039C000B0EE4A9A604B68EE8F7A089EF0EE4ADAC3
:1039D00083ED00AAB0EE4ADA5C4BF0EE4ACACDEDB8
:1039E000037A7EEE8E7A83ED00AA3746584BB246B4
:1039F000CDED0D7A83ED00AAA6F1FA030B93FEF745
:103A000039FB00230122079309920C930CF022FD4D
:103A10000646FEF72FFB089A42F22733B21A9A4263
:103A200000F24183F31B092B40F2DE83A6EB0A036D
:103A30000A3707EE903AF31BF8EE677A092B88BF36
:103A4000374667EE8C7AF4EECC7AF1EE10FA00F19C
:103A5000A983DFED40FAF4EEEF7AF1EE10FA7FFE83
:103A6000A7FAB0EE6F0AFDF707F816AB14AA20A963
:103A7000009315AB384808F0B7FC0A90002800F016
:103A8000E883DFF8D8A0DAED007A37EEEEFAB0EE90
:103A90004F0A15F0F5FDF0EE40BAB0EE4F0A15F002
:103AA000EFFC9DED157ADDED147AB0EE40FA67EE8D
:103AB000006A9DF86C3027EE2B7AE7EEAB6AA0EE39
:103AC000677A002B00F07683F0EE401A19A8F0EE2A
:103AD000470AB0EE660AB0EE6F2AB0EE6B1AFDF739
:103AE000E5FEDDED196A9DED1A7A89EE2A6AB5EEDA
:103AF000C06AF1EE10FA00F15883F7EE002AB4EE36
:103B0000E26AF1EE10FAB5EEC09A32FE866AF1EE84
:103B100010FA40F2A283B4EEEA9AF1EE10FA58DA03
:103B200025AA012330E000BF000000008C05002022
:103B30006F12833ABC050020A8050020DA0FC93FA8
:103B4000A4050020B7D1303F98050020940500203F
:103B500090050020CDCC4C3D7C120208AC05002025
:103B6000BD3786350000803CF628DC3EAE47213F5D
:103B70003333B3BE9A9919BE5C8F5AC0AE47613FCA
:103B80000133412B00F06283D2ED007A0432B4EEAF
:103B9000E79AF1EE10FAF3D8013B1FED0F5A0DEB47
:103BA0008302D2ED245A77EEE57AF4EEC57AF1EE8F
:103BB00010FA40F31F8379EE655A85EEA75A07EE97
:103BC000903AF8EEE72A5FED197A72EE852A62EEF6
:103BD000A72AF0EE680A18A9B0EE620A17A88DEDC0
:103BE000067ACDED056A8DED046AFCF7BBFEF7EEB3
:103BF000005A5FED237AF0EE084A1FED244A28EEC2
:103C0000A75A1FED257A75EEE25A9DED033AF1EEC3
:103C1000087A9DED046AA8EEC43ADDED056A65EE0A
:103C2000A43A65EEA77A62EEA44A63EEA53AF0EEF6
:103C3000455A67EEA27A64EEA24AD8EE845A65EE3F
:103C4000A75A67EE877A1FED357AE5EE235A1FED06
:103C5000365AE3EE877A9DED067AE4EE835AE4EE77
:103C6000857A25EEA55AA7EEA75AF1EEC53AF4EEED
:103C7000CC3AF1EE10FA40F2EC82C5EEA34A5FEDC9
:103C8000415AE44BD3ED002A87EEA34ADFEDE23A36
:103C900067EE233A66EEA55A7AEEC97AA3EEAFDA5A
:103CA000E5EEAFCA23EEA43AA5EE843A63EE843A79
:103CB000E4EEE53AF0EE625AB0EEC35AE3EE2FDAE4
:103CC000E5EE2F5AC3ED005A7AEEED5AB4EEE5AAAE
:103CD000F1EE10FAB4EEE7AA3AFE250AF1EE10FA78
:103CE0007AFE277AF4EEC07AF1EE10FA30FE270A57
:103CF000B5EE400AF1EE10FA00F1CB82F1EEC07A97
:103D0000DFEDC62AF4EEE72AF1EE10FA77FEA27A8A
:103D1000F4EEE79AF6EE002AF1EE10FA6FEEA22A20
:103D200040F1238279EEA22AF4EEE72AF1EE10FAAE
:103D300077FEA29AA9EEAF9ADFEDB97AB4EEEA9ACD
:103D4000F1EE10FA3AFE899A79EE6D2A62EEA72A10
:103D5000FDEE007AF4EEE72AF1EE10FA07D4F5EE64
:103D6000007AF4EEE72AF1EE10FA77FEA27A79EE05
:103D7000A77AFDEE002AF4EEE27AF1EE10FA00F1F5
:103D80002482DFEDA62AF4EEE27AF1EE10FA72FE5A
:103D9000A77A37EEC33ADFEDA32A63EE222AA2EE1A
:103DA000AFBAFDEE002AB4EEE2BAF1EE10FA00F17D
:103DB0000982F5EE002AB4EEE2BAF1EE10FA32FE14
:103DC0008BBADFED992AE3EE227AFDEE002A77EE38
:103DD0008B7AF4EEE27AF1EE10FA07D4DFED8F2A57
:103DE000F4EEE27AF1EE10FA72FEA72ADDED187A0F
:103DF0009DED173A7DEE677A9FED8C2A3CEEC33A33
:103E00008B4B67EE847AC3ED002AE4EEC37A9FED14
:103E1000893A23EE633AA7EE823A9FED872AB4EE01
:103E2000C23AF1EE10FA07D49FED842AB4EEC23AFA
:103E3000F1EE10FA32FE032A814BC3ED007A814B7A
:103E4000DDED037A83ED002A7F4B37EECD1AC3ED0B
:103E5000003ADFED7E3A61EE017A73EEEC3AF5EE70
:103E6000C03AF1EE10FA00F1958177EE8A7AF0EE21
:103E70004A3AB1EEE73ADFED767AB4EEE76AF1EE70
:103E800010FAC0F27B81DFED737AB4EEE73AF1EE1F
:103E900010FA05D9B4EECC3AF1EE10FA00F3B08185
:103EA000DFED6D7AF0EE4A4AF0EE673A604BC3ED13
:103EB000004AB7EE004A694B82EEAA2AB4EEC46A01
:103EC000F0EE000AF0EE082AF1EE10FAF1EE084AE0
:103ED00034FE061AE1EE602A34EE464A21EE011A5B
:103EE00066EE244A62EE812A9FED5D1A64EE844AF2
:103EF000B0EE6E4AAEEE224A6EEE242ADAED004AA9
:103F0000D3ED000A74EE644A64EE814AE2EE824A1E
:103F10009FED542ADFED542AE0EEC24AF4EEE24A65
:103F2000F1EE10FA00F15781F4EEC14AF1EE10FA09
:103F300071FE244ADFED4D2A6FEEA2FA78EE6F2A69
:103F4000F4EEE42AF1EE10FA00F3428178EE2FFA53
:103F5000F4EEEF4AF1EE10FA3FFEA48A444A82EDF5
:103F6000004A444A9DED0D4A82ED008ADAED004A8E
:103F700034EE644ADFED364AB4EEE46AF1EE10FA4C
:103F800080F2B980F0EEE55A9FED3B7AF4EEC75A25
:103F9000F1EE10FA00F2C2809FED2E7AB4EEC75A0D
:103FA000F1EE10FA00F2BA80B0EEC47ADFED337AA7
:103FB000B4EEE77AF1EE10FA00F21F81D3ED007A49
:103FC0009FED2F7AF0EEE77AF4EEC77AF1EE10FA71
:103FD00094BF4FF0010A4FF0000A0A9BF0EE4A0A24
:103FE000134A0793274B9FED280A1360154B83ED67
:103FF00000AAB0EE481A1CA9244808F07DF9002850
:1040000000F027811CA8FEF7A5F8002800F03181F8
:104010003EE000BFA00500209A99B93F3333B33F7B
:104020009A99993FCDCC4C3F3333B33E9A9919C0FE
:10403000A8050020AE47613E9A9999BE9A99993E8B
:104040009805002094050020900500205C8F7AC020
:104050009A99593F8FC2F53C00000000B00500203E
:10406000CDCC0C40CDCC4C3ECDCC0CC033337340CA
:104070008C050020A40500206F12033C0AD7A33C46
:104080000AD7233D295C8F3D295C8FBD7C12020835
:104090000CF0E0F920A908F025FBB0B9099B6BB939
:1040A000904807F0D5FC904B05221A604FF0000AAB
:1040B000504667B0BDEC108BBDE8F08FCDE9200015
:1040C000CDE92200894807F0C3FC0B9BF31AF92BBA
:1040D00000F284800AF036F8BAF1000F57D00C9B3A
:1040E000002B00F08580F31A3B2B00F2C8800023E0
:1040F000B24609938AE49FED7E6AB4EEC63AF1EEC9
:1041000010FA0BD827EE077AA6EEA67AF1EEC76A68
:10411000F4EEC66AF1EE10FA7FF646AFB0EEC47A5E
:10412000DFED746AB4EEE67AF1EE10FA37D893ED6B
:10413000007ADFED716AB0EEC77A079B03F0010ADF
:10414000B4EEE67AF1EE10FA88BF4FF0000A079B52
:10415000002B7FF442AF2FEE670A9A4667EEAB0A58
:10416000A3EEAB0AE3EE8F0A43E779EEE22AF4EE20
:10417000E27AF1EE10FA77FEA29ADBE564EEC23A3B
:1041800062EE047AE4EE223AE4EEA27A91E6CDF809
:1041900030A0ACE7E3EEA37AF1EE633A69E64FF0C4
:1041A000000AD4E7F0EE4CFA5BE4B0EE4A6AF0EEB7
:1041B0004A2A0EE50123CDED196A8DED1A7A8DF8A4
:1041C0006C3092E4B0EE62BAFBE5F0EE627AE0E5C4
:1041D000B0EE628AC2E6F0EE624AABE620A9304653
:1041E000FCF7F4FC0B9675E701200CF039F90DE4AF
:1041F0000C967CE7B0EE4A5AE1E44FF0000AECE698
:10420000DFED3E7ADFED3E4A61EE277A9FED3D2AF3
:1042100063EEA43A27EEA74AA3EEA34AF1EEC44AFE
:10422000F4EEC24AF1EE10FA1ADC9FED374AF4EED2
:10423000C44AF1EE10FA7FF539AE84EE242AF0EE8E
:10424000444A63EE823A67EE827A2FE6F7EE002A5E
:10425000BFE4254B06221A6028E7DFED2C2AB8E4DC
:1042600082EE244AF0EE424A63EE843A67EE847AA4
:104270001CE61D4B1A68092A7FF416AF16E7244B7B
:1042800001222449DDED0D7A1A70C1ED007AFFF7A5
:104290007DBB8DED137ACDED126ACDED115ACDEDCA
:1042A000103A8DED0F3ACDED0E4A8DED064A8DEDAB
:1042B000056A8DED045A15F0B9F89DED137AF0EE0C
:1042C000407ADDED126ADDED115ADDED103A9DED1B
:1042D0000F3ADDED0E4A9DED064A9DED056A9DED16
:1042E000045A0DE5ACE90108BC05002088E9010885
:1042F0000AD7A33D0AD7A33C0AD7233D9A99993FF1
:104300009A9999BF6666E63E8FC2F53D00000000AF
:104310006F0500208C0500209FEDDA7A60EEA07A10
:104320000023DFEDD96A31EE477AE0EE007AB0EE95
:10433000C77A2DE9F04F2DED108BE7B0B4EEE67A99
:10434000DFF89083B1EEE79A3293074636932C93C9
:1043500035933993F1EE10FAD8ED007AB0EE608A19
:10436000F0EE408A8DED1A7ACDED0C7AF0EE41FA3E
:10437000B0EE61AA8DED162AB0EE62EA0991CDE9A0
:104380003333CDE93733CDE92D334FF00003269396
:1043900027932893BD4BD3ED007ACDED087A00F238
:1043A000F982F0EE087ACDED127ADFEDB97ACDED33
:1043B000117ADFEDB87ACDED107A002F00F0E582AA
:1043C000DFEDB57ACDED1B7AF0EEC87AB0EEE87A83
:1043D000F4EEC77AF1EE10FA40F3CE82F1EE047AF1
:1043E000CDED0D7AF5EE007ACDED0B7A0CF032F8CA
:1043F000DFEDAA7A0246B4EEE79AF1EE10FA00F188
:10440000B282F5EEC0FAF1EE10FA40F2AC82B5EEEF
:10441000C0AAF1EE10FA40F2A682099B002B00F030
:104420009A8288EE89FA9E4BDFEDAB8A4FF0000C42
:104430009C491646C3ED008A15469B4BC8EE09EA17
:10444000CDF870C0C3ED008A984BCDF850C0C3EDD5
:10445000008A974BF0EE68BAB0EE68DACDF874C017
:10446000C3ED008AF0EE68CA924BB0EE689AF0EEA7
:1044700068AACDED0F8AC3ED008AB0EE68BA6FEE80
:104480008F7A8D4BB0EE68CACDED0E8A674508BFB6
:104490001946A2F1FA03CDED177ADFED7D7A139379
:1044A0000123CAFE677ACDED237ADDED087A2291E9
:1044B00077EE8E7A0793CDF864C08DED05EACDEDE9
:1044C000157A6FEEAE7A0A92CDED187A0BF0C2FF34
:1044D0000A9A43F697230446821A9A4200F2F38519
:1044E000764B1B6823B1764B1B78002B40F0FC8584
:1044F000A31B092B40F24F84631B9FED687A0A3699
:1045000007EE903AA31BF8EE677A092B88BF264680
:1045100067EE877AF4EEC77AF1EE10FA00F187833E
:104520009FED682AF4EEC27AF1EE10FA32FE27EA25
:10453000CBEE2F7AF5EEC07AF1EE10FA00F172832D
:10454000B7EE008AB0EE007AF4EEC87AF1EE10FA17
:1045500038FE278AF0EE087AE8EE477A28EE087AE5
:1045600067EE877A9DED057AB0EE4E0ADDED089A8A
:10457000464BE7EE279AC3ED009AFCF77DFA28AB8D
:1045800026AA36A95048009327AB07F02DFF054611
:10459000002800F0E8819DED0C7AD8ED007A77EEE6
:1045A000C77AB0EE670ACDED067A15F069F8F0EE3D
:1045B00040DA9DED060A14F063FFDDED270ADDED1C
:1045C000267AF0EE401A60EE806A9DF8B83060EE10
:1045D000AD0AE7EEAD6AE0EE670A002B00F02A8331
:1045E000B0EE660A2CA8B0EE4E2AB0EE6D1AFDF7BA
:1045F0005DF9DDED2C6ADDED2D0A20EEAE6A334B60
:1046000020EE8F7AD3ED007AEEEE26CAAFEE266A60
:10461000AEEEE67AA0EE8EDAA6EE0ECAB0EEC64A8E
:10462000E7EE0EBAE4EE0E7A3FEECC5AF4EEC58A0F
:10463000C3ED007A1D4BF1EE10FAC3ED00BA1D4B2D
:1046400038FE850A83ED007A099B002B00F0258354
:10465000DFED117AB4EEE70ADDED057AF0EEE74A18
:10466000DFED207AF1EE10FAF4EEE74A40F3F38240
:10467000F1EE10FA00F3B8839FED153AFDEE007AE3
:1046800032E000BFE69223400AD7233C8C0500208D
:104690009A99993E5C8FC23E6F12033C6F12833A27
:1046A000A8050020D8E90108A405002098050020ED
:1046B000940500209005002018EA0108E804002075
:1046C000E7040020CDCC4C3D7C120208A005002060
:1046D0009A99993FAC05002000000000CDCC4C3FDA
:1046E0003333B33E17B7D13825EE033AB4EEE73A89
:1046F000F1EE10FA00F1A2845FED097AF0EE4AAA19
:10470000B0EE6FBAF0EE673AF5EE005AB4EEE53A65
:10471000F1EE10FA75FE835A75EEAA5ABDEE003A14
:10472000F4EEC35AF1EE10FA00F18C82F4EECA5A9C
:10473000F1EE10FA7AFE255A35EEC63A5FED192AE7
:10474000BDEE006A63EE222AA2EE8E9AB4EEC69AFD
:10475000F1EE10FA00F17C82B5EE006AB4EEC69A72
:10476000F1EE10FA36FE099AB0EE656A5FED245A52
:10477000A3EE256AFDEE005A36EE096AB4EEE56A4C
:10478000F1EE10FA00F16182B4EECA6AF1EE10FAAD
:104790003AFE066A5FED2D5A854BF4EEE54A83ED4D
:1047A000006AF1EE10FA00F31682002F40F00E823C
:1047B000F0EEC65A9FED7F3ADFED7F2A65EE835A11
:1047C00085EEA23ADFED7D2AB4EEE23AF1EE10FA80
:1047D00072FE832AB1EE623AD8ED005A9DED0D2AA1
:1047E00075EEE95ADFF8F8B1E5EEC27ADBED005A72
:1047F0009DED0B2AE5EEC27AF4EEC37AF1EE10FAE3
:1048000005D4F4EEE27AF1EE10FA32FEA73ADDEDCD
:10481000117ADDED105A27EEC77ADDED127A684B7A
:10482000A7EEEB7A83ED003AF1EE657AB4EEE77A23
:10483000F1EE10FA05D4B4EEE57AF1EE10FA75FE59
:10484000877A9DED187A5F4B77EE4D9A9DED177A3A
:10485000C3ED007A37EE6C8A002F00F0CF809FED19
:10486000627A2FEE877AB4EECC7AF1EE10FA00F28B
:104870008D821D9768EE087A199BE9EEA97AB1EE50
:10488000E77AD3B92298CDED211ACDED204A8DEDEE
:104890001F7ACDED1E3ACDED196ACDED060A07F06F
:1048A000D7F8DDED211ADDED204A9DED1F7ADDED13
:1048B0001E3ADDED196ADDED060ADDED1B7AF4EE38
:1048C000C77AF1EE10FA00F1BB82394BC3ED008AD2
:1048D000C0F26D8266EEA66ADFED3B7AE0EEA06A7A
:1048E000B1EEE67AB4EEE77AF1EE10FA00F25F820A
:1048F0009DED157AD8ED007A77EE677A9FED3D7AD7
:10490000F0EEE77AF4EEC77AF1EE10FA00F2528395
:10491000DBED007AF0EEE77A002F00F017869FEDCE
:10492000367AF4EEC77AF1EE10FA00F24583DDED47
:104930000F7A3D46DFED250A012378EEE76ADDEDCB
:104940000E7A199738EEE77A26EEA66AF0EE607ACC
:10495000A7EE076AAEE0DDED167AF5EEC07AF1EE6D
:1049600010FA3FF65EAD1A4B06221A60002067B0BF
:10497000BDEC108BBDE8F08FF2EE027ACDED0D7A32
:10498000DFED147ACDED0B7A30E5DFED167ACDED63
:104990001B7A19E5DFED107ACDED117ADFED0F7A94
:1049A000CDED127ADFED0B7ACDED107A05E500BF83
:1049B000A80500206666263F7B14AE3E3333333FA6
:1049C000A405002094050020CDCCCC3C00000000C4
:1049D000BC0500209A99993EAE47613E9A991940CC
:1049E000B00500200AD7233CCDCC4C3E6F12033CCF
:1049F0008FC2F53C0AD7A33C0AD7233D1FED077AA7
:104A0000DDED1A5AF4EEC75AF1EE10FA09D81FED8F
:104A10000A7A2FEE877AB4EECB7AF1EE10FA7FF6AF
:104A200029AF2EEEE77AB0EEC55A6FEE270AF0EE08
:104A3000477A1FED127AB4EEC75AEFEE067AEEEE21
:104A4000860AF1EE10FA00F2D3801FED177AB4EE69
:104A5000C74AF1EE10FA00F2CB80DDED156A98ED51
:104A6000007A36EEC77A5FED1D6AB0EEC77AB4EE13
:104A7000E67AF1EE10FA00F288829BED007A5FEDA3
:104A8000226AB0EEC77AB4EEE67A002F00F00D820B
:104A9000F1EE10FA00F21C829DED0F7A002570EE07
:104AA000C76A9DED0E7A2B4637EEC77A26EEA66AC8
:104AB000A7EE076AF1EEC65AF4EEE35AF1EE10FAE9
:104AC00040F3E88163EEA66A23EE877A86EEA56A54
:104AD000DDED0E6AC7EE257A9DED0F7A37EE067A88
:104AE0008DED0F7A27EE077A76EEA77AA7EEA77AF2
:104AF000CDED0E7AF1EEC77AC04A9DED0E7AC0492F
:104B0000C2ED007ADDED0F7A6FEE277AEEEEC77A0E
:104B1000C1ED007A002B00F0C68192ED007ADFED46
:104B2000B97AB4EEE77AF1EE10FA94BF4FF00109CA
:104B30004FF00009DDED0F0ADDED0E7A21EEE00AFF
:104B4000B14B60EEAD0A32A993ED001AA7EEAD0AA3
:104B5000AE48E7EEA10A07F0CFFB00283FF403AF11
:104B600032A8FDF7F7FA002800F0B9820BF072FCCA
:104B700036A907F0B7FD78B9079B33B9A44806F00A
:104B800067FFA44B05221A60F0E6CDE93600CDE9B7
:104B90003800A14806F05CFF139BE31AF92B00F2E2
:104BA000EF8009F0CFFAB9F1000F1BD0002D149A55
:104BB0000CBF3C23FA23002A00F0F480A21A9A4288
:104BC00080F0A6820023254607937FE49FED933A69
:104BD000DFED932A00E6002FF8D19FED923ADFED4A
:104BE000922AF9E52546CDF85090CDF81C906DE459
:104BF000DDED156A98ED007A36EEC77ADFED8B6A47
:104C0000B0EEC77AB4EEE67AF1EE10FA01D8DBF82E
:104C100000300025A9462B46002F8FD02A461C9D28
:104C20001C926BE1F0EE687AB0EE688A9AE49FED30
:104C300080EA7DE40123CDED2C6ACDED2D0A8DF8BF
:104C4000B830DAE4F0EE435A76E5B0EE656AA1E5F5
:104C5000B0EE469A88E5F1EE10FA76DCDFED757A73
:104C6000FDEE005A65EE277AF4EEE57AF1EE10FAE1
:104C700000F1F281F5EE005AB0EE6FBAF4EEE57A8B
:104C8000F1EE10FA75FEA75ADFED6B7A75EEA85AB1
:104C9000F0EE673AF0EE67AA48E57FEECB7AF4EEE5
:104CA000E78AF1EE10FA78FEA77AF4EEC07AF1EE18
:104CB00010FA30FE270ADDED167A77EEA77A20EE9D
:104CC000270AB5EE400AF1EE10FA00F1FA83F1EE90
:104CD000C07ADDED165AB4EEE7AA65EE8E3AF1EE33
:104CE00010FA77FE8A7AF4EEE7AAF1EE10FA40F1B4
:104CF000C8807AEEA3AAF4EEE7AAF1EE10FA77FEE6
:104D0000AAAAAAEE8EBADDED057AF0EEE74ADFED4B
:104D10004B7AB4EEEFBAF1EE10FAF4EEE74A3FFE4A
:104D20008BBA3BEE4C3AF1EE10FA16DCF0EE687AF4
:104D3000DFED405A23EE253AFDEE005AB4EEE53A97
:104D4000F1EE10FA7FF5E0ACE6E4B0EE453AB0EEF5
:104D50006FBAF0EE68AAF0EE683ACAEEAF5ADDED2F
:104D6000052AF1EE087A62EEA77AF7EE002A67EEDE
:104D7000887A72EEC82A67EEA27A67EEA57AD7E73C
:104D800036A92046FBF722FF13940AE71D9B002B50
:104D90007FF470AD45E62C4601200BF061FB254603
:104DA000FFF794BB254614940792FFF78FBBDFED06
:104DB000220AF0EE607ADDED156A98ED007A36EEA3
:104DC000C77ADFED1A6AB0EEC77AB4EEE67AF1EE92
:104DD00010FA01D8DBF800304FF0000919954B4666
:104DE000002F3FF4ABAE19E7B0EE453AF0EE4AAA19
:104DF000B0EE6FBAF0EE683AAFE700BFA80500204A
:104E000094050020CDCCCC3CA40500207C120208E7
:104E1000ACE90108BC05002088E901083333B3BEC2
:104E20003333B33E333333BF3333333F0AD7A33C3B
:104E30006F12833A9A99993F0000000017B7D13852
:104E400079EEA90A78EE087A60EEA06AE7EEA76A22
:104E5000B1EEE67ADDED236AF4EEC76AF1EE10FA00
:104E60005CD5C6EE876A60EEA60A67EEA67A60EEAB
:104E7000A06AE7EEA76AB1EEE67ABC4B83ED007A52
:104E800099E77AEEE3AAF4EEEA7AF1EE10FA77FE09
:104E9000AAAA36E720EEA07ACDED0F0ACDED0E7A64
:104EA000A7EEA77A26E6994644E6F1EE10FA3A46CE
:104EB00094BF4FF00109B9464B469FEDAD7AF4EE31
:104EC000C74AF1EE10FA00F2A680A946154635E66B
:104ED000DFEDA77AF4EEE74AF1EE10FA36DD0023B3
:104EE000A24A1360A34A13601C9B002B00F00481AC
:104EF000DFEDA10A0023F0EE607A1C939DED0F7A9E
:104F00001C9A70EEC76A9DED0E7A1C95154637EE19
:104F1000C77A26EEA66AA7EE076ACBE5DFED976AA9
:104F2000B4EEE67AF1EE10FAA7D59DED236AC6FE3F
:104F3000666A86EE876A60EE860A67EE867A60EEBB
:104F4000A06AE7EEA76AB1EEE67A96E74FF00009AD
:104F5000864BC3ED008A874BC3ED008A1C9B002B58
:104F600000F08480DDED0F7A4D46DFED830A0023EB
:104F700078EEE76ADDED0E7A38EEE77A26EEA66A7D
:104F8000F0EE607AA7EE076A94E5002FA0D19FEDBE
:104F9000787A3A46F4EEC74AF1EE10FA95D9B94656
:104FA0003B469FED737AF4EEC74AF1EE10FA36DC19
:104FB0001546C3E5002F78D0DFED6D7AF4EEE74AB1
:104FC000F1EE10FA40F38380DFED6B0A674BC3ED1F
:104FD000000A684BC3ED000A1C9B002B40F0558271
:104FE00099462A4619956648CDED201ACDED1F3A0F
:104FF0001E93069206F02CFDDFED5F0A1C95F0EE85
:10500000607A069DDDED201ADDED1F3A1E9B002F14
:105010003FF494AD02E6B9F1000FC2D055E7534911
:10502000C1ED008A5349C1ED008A1C990029DAD0EC
:10503000DFED510A1546F0EE607A7FE5F5EE005A95
:10504000DFED4D7AF0EE4AAAB0EE6FBA7AEE655A0D
:10505000F0EE673AFFF76ABBDFED477AB0EE6FBA62
:10506000F0EE673AF0EE67AAFFF760BB4448CDED7B
:105070001E1ACDED063A06F0EBFCDDED0F7A0023AB
:10508000DFED3D0A78EEE76ADDED0E7A1C954D46C0
:1050900038EEE77ADDED063A26EEA66ADDED1E1A59
:1050A000F0EE607AA7EE076A04E5DFED317A2A4672
:1050B0001995F4EEE74ADFED307AF1EE10FA09D8EF
:1050C000F0EE670A01E72F4B05221A604EE4A9466D
:1050D00019953DE7F0EE670AB9463B4661E7294B73
:1050E0001A68092AF0D141E4FDF768F800231F4A45
:1050F0001360254A136039E42148CDED1C1ACDED2B
:10510000063A06F0A5FCDDED063ADDED1C1AEFE6E9
:105110001E4B0024DDED157AC3ED007A134B1C60A5
:10512000002F45D0DFED1A7AA0211A4A3EA829EEB9
:10513000A76A28EE277AB7EEC66AB7EEC77A8DED72
:10514000026B8DED007B15F01BFB3EA806F080FC8A
:10515000FDF734F800287FF40AAC0A4B1A68092AD4
:105160003FF405AC05221A6001E400BFA805002049
:1051700017B7D13894050020000000008FC2F53C1D
:1051800058EA0108BC050020A40500208C05002079
:1051900000007A449CEA01086F12833A3333B3BEAD
:1051A0006F12033CEC5138BE9A9919C0AE47613E6C
:1051B0003A973E972F973D9741975FED098A5FEDAC
:1051C000099A5FED06AA1FED08AA1FED0A9A1FEDC6
:1051D0000CBACDE93B77CDE93F77CDE930770BF0DD
:1051E00039F9CA4B824601201C60C94B56465546C8
:1051F000C3ED00BAC74B1C60AAF1FA030593FBF795
:105200009FFC06970BF026F9A0EB0A030446B3F5C2
:10521000FA5F80F04281831B092B40F22C81431BF3
:105220000A3607EE903A831BF8EE677A092B88BF9F
:10523000064667EEA87AF4EEE87AF1EE10FA00F18D
:1052400003819FEDB58AF4EEC87AF1EE10FA38FECC
:10525000278AB0EE480AFBF70FFC2BAB29AA3EA920
:1052600000932AABAD4807F0BFF8002800F0078193
:10527000DDED0C7AD8ED00CA7CEEE7CAB0EE6C0A20
:1052800014F0FEF9B0EE40CAB0EE6C0A14F0F8F873
:10529000DDED2A0AF0EE401ADDED297A20EE200A33
:1052A0009DF8C4306CEE200AACEE270AE1EEE70A66
:1052B000002B00F0D280B0EE482A2FA8B0EE4C1A96
:1052C000FCF7F4FA9DED2F0ADDED300A6FEE200AAF
:1052D000934BDDED0B6AEEEEC00AC3ED000AD3ED91
:1052E000007A8B4BE8EE27BADDED157AC3ED00BAF4
:1052F00098ED007A37EE677ADBED007A67EEE67AB2
:10530000DDED0D6AE6EEC77AF4EEE97AF1EE10FA19
:1053100000F1A0809FED837AF4EEC77AF1EE10FAE7
:1053200077FE277A804BC3ED007A7D4BD3ED007A70
:105330006AEEE77AEBEE8A7AF4EEC97AF1EE10FAC9
:1053400000F185809FED797AF4EEC77AF1EE10FADC
:1053500077FE277A6F4B3AA97048C3ED007AD3EDF8
:10536000007AD3ED000A6EEEE77A6F4B6FEE200AFB
:1053700093ED001A20EEE10A6CEE200AACEE270A4B
:10538000E1EEA70A06F0B8FF002878D03AA8FCF7AB
:10539000E1FE002800F08D800BF05CF83EA907F0DC
:1053A000A1F990B9B9F1000F08D1614806F050FB9E
:1053B000604B052238461A60FFF7D9BACDE93E00A6
:1053C000CDE940005C4806F043FB059BE31AF92B4E
:1053D0004BD808F0B7FEF0EEEB7AF4EECB7AF1EEB4
:1053E00010FA2ED84E4B9FED557AD3ED007AF0EEA1
:1053F000E77AF4EEC77AF1EE10FA22D8D8ED007A07
:10540000DDED156A9FED4E7A77EEE67AF0EEE77AFB
:10541000F4EEC77AF1EE10FA13D8DBED007A9FEDC7
:10542000497AF0EEE77AF4EEC77AF1EE10FA08D88E
:10543000069B83B3E31A3B2B65D825464FF0000942
:10544000E0E600230693F8E7B0EE688A01E7F0EEA5
:10545000497A7FE7F0EE697A64E701238DED2F0A40
:10546000CDED300A8DF8C43030E73EA92046FBF779
:10547000ADFB0594ADE701200AF0F2FFC2E62D4B2B
:10548000062238461A60FFF772BA1C9DF0EE607A69
:105490000023199532E50694CFE7002303201D4A27
:1054A0001360FBF74DFBFCF789FE07463846FFF714
:1054B0005EBA204B1A68092A7FF47BAF3846FFF7A3
:1054C00056BACDED251ACDED246A8DED215A8DED1C
:1054D000207A8DED1F6ACDED1E0A8DED064A13F080
:1054E000A5FFDDED251AF0EE407ADDED246A9DED95
:1054F000215A9DED207A9DED1F6ADDED1E0A9DED7E
:10550000064AFFF7E6BB00230220C8E7A8050020F3
:105510009805002094050020CDCC4C3D7C1202085B
:10552000900500203333B33EA4050020EC51383EF3
:10553000ACE90108BC05002088E901088FC2F53CF0
:105540000AD7A33C0AD7233D000000001FED037AD1
:105550002A461995F4EEC77A5FED057AF0EE670AF0
:10556000F1EE10FA94BF4FF001094FF000094B46DD
:10557000A3E400BF2DE9F04F002304462DED108B6E
:10558000ADF5157DF0EE608AB0EE409A1D93B0EE59
:10559000418AF0EE61BACDED022AF0EE42DA0890CF
:1055A000CDE91E33CDE92033CDE92233CDE92433D3
:1055B000CDE91B33604BD3ED007A604BCDED0B7A18
:1055C000D3ED007ACDED0A7A0AF044FF68EEA87AAE
:1055D0000790E9EE097AB1EEE77A002C00F0C0807E
:1055E000DFED577AB4EEE77AF1EE10FA00F19A8027
:1055F000DFED547AB4EEE78AF1EE10FA40F29280D1
:1056000029EE089ADFED504A68EE888A9FED4F4AEE
:10561000B6EE006A9FED4E2AC9EE075A0DF1980BBF
:105620000DF1CC094FF0010819AE18AD1AAF17A94A
:10563000CBED007AC8EE876ACBED017ACBED027A2A
:10564000CBED0C7AF0EE673AB0EE671ACBED0A5A62
:1056500026EE867ACBED0B6A25EE866A26EEA45AF4
:1056600027EE243AE6EE243AF0EE452AF0EE431A0D
:105670008BED033AA6EE041A9FED363AE7EE042AC4
:105680009FED357AE6EE841AE5EE823AA6EE875A69
:1056900025EE877AB0EE674A8BED041AE6EE822A91
:1056A000A6EE247ACBED051ACBED063AF0EE673A7A
:1056B0008BED095ACBED072A8BED087A07EE908A1D
:1056C00033462A465846B8EEE70A009708F1010823
:1056D00080EE030AFBF7B8F859ED016AB8F1610FE3
:1056E000F0EE447A95ED004AB0EE637AD1ED003ADF
:1056F00074EE677A33EEC77A67EEA77AE7EE077A39
:10570000B1EEE77A77EE267AE9EC017AD6D1DBEDD5
:105710006C7A0C46B4EEE78ACBED6D7AF1EE10FAB6
:1057200000F1DB830D4B06221A6000200DF5157D7C
:10573000BDEC108BBDE8F08FAC0500208C0500207F
:105740006F12833A000000009A99193F9A99993E86
:10575000CDCCCC3D0000C042CDCCCC3EBC05002021
:10576000C9EE075A0DF1980B002291499148CBF8E8
:10577000002001F11004CBF804205A4688EE876A15
:10578000F0EC017A0832B1EC017A8C4266EE676A7D
:1057900028EE077A65EEA77AE5EE876AE6EE077AE5
:1057A000C2ED006AC2ED017AEAD1DFED837A68EEDC
:1057B000255A28EE066A9FED8B3AB0EE674A0BF148
:1057C0003409F0EE673A4FF0010819AE18AD1AAF80
:1057D00017A9CBED0C7ACBED0A5A8BED0B6A07EECD
:1057E000908A33462A465846B8EEE70A009708F1F1
:1057F000010880EE030AFBF727F859ED016AB8F1BA
:10580000610FF0EE447A95ED004AB0EE637AD1ED87
:10581000003A74EE677A33EEC77A67EEA77AE7EE5E
:10582000077AB1EEE77A77EE267AE9EC017AD6D1FB
:10583000DBED6C7A0C46B4EEE78ACBED6D7AF1EED7
:1058400010FA7FF56FAF9FED5D7AF4EEC77AF1EE57
:1058500010FA7FF767AFB5EEC08AF1EE10FA7FF667
:1058600061AFF5EEC0BAF1EE10FA7FF65BAFF5EE80
:10587000C0DAF1EE10FA7FF655AF514806F0E8F8BD
:10588000DFED4DAA4F4BDDED0A7AB0EE6ABAC3EDFB
:1058900000AAB0EE6AAA4C4BB0EE6AEA9DED027A1D
:1058A000F0EE6A8AC3ED00AAB0EE6ADA474B77EEF3
:1058B000877AF0EE6ACACDED04AAC3ED00AA444B84
:1058C000CDED0E7AC3ED00AA424BCDED03AAC3ED98
:1058D00000AA079BA3F1FA029A46994601230C926B
:1058E000099300230D930AF0B5FD079A43F6972319
:1058F0008046821A9A4200F29E83A0EB0A03092B8B
:1059000040F28F83A0EB09039FED2C7A0AF10A0A7B
:1059100007EE903AA0EB0A03F8EE677A092B88BFEE
:10592000824667EE877AF4EEC77AF1EE10FA00F15C
:1059300051839FED299AF4EEC97AF1EE10FA39FEFF
:10594000279A9BED6D7AC8EE877AF5EEC07AF1EE74
:1059500010FA00F14283F7EE009AF0EE006AF4EEDE
:10596000E97AF1EE10FA79FEA79AF0EE087AE9EEFC
:10597000E67A69EEA96A67EEA67ADDED0A6AF5EEC7
:10598000C08A9DED026A154BE6EE276AF1EE10FA29
:10599000CDED056AC3ED006A40F24083B4EEE87ACB
:1059A000F1EE10FA40F21E8333AA012322E000BF79
:1059B0004C1202083C120208000000006F12833AE9
:1059C000A0EB0108A8050020A405002098050020F0
:1059D0009405002090050020CDCC4C3D8C05002086
:1059E000BD3786350000C04217B7D1380133612B6F
:1059F00000F0F88292ED007A0432F4EEC78AF1EEFC
:105A000010FAF3D80BEB83021FED0B6A013BD2EDCA
:105A10000B6A07EE903A37EE667AB4EEC67AF1EE8C
:105A200010FA40F3058378EEE66A86EE876A1FED8A
:105A3000137AF8EEE77A77EE867A87EE870A584689
:105A400016AB15AA14A90094FAF7FEFE94ED00CA4D
:105A50009DED16FA6CEE0C7AEFEE0F7AF1EEE7EAB6
:105A60005FED1F7AF4EEE7EAF1EE10FA00F1EA8258
:105A7000B0EE490AFBF700F833462A4622A9E64869
:105A8000009706F0B1FC00283FF44CAE8CEE2E7A65
:105A9000E24BDDED0B7A93ED00CA3CEE67CA8FEE68
:105AA0002E8AB0EE4C0A8DED067A13F0E9FDF0EE89
:105AB00040EAB0EE4C0A13F0E3FCD6ED000AD5ED57
:105AC000007AF0EE40FA60EE806A9DF8743060EE85
:105AD000AE0A9DED067AE7EEAE6AE0EE670A002BAD
