:020000040800F2
:1000000000000220B90700080D0800080D080008CC
:100010000D0800080D0800080D0800080000000089
:100020000000000000000000000000000D080008B3
:100030000D080008000000000D0800081944000821
:100040000D0800080D0800080D0800080D0800083C
:100050000D0800080D0800080D0800080D0800082C
:100060000D0800080D0800080D0800080D0800081C
:100070000D0800080D0800080D0800080D0800080C
:100080000D0800080D0800080D0800080D080008FC
:100090000D0800080D0800080D0800080D080008EC
:1000A0000D0800080D0800080D0800080D080008DC
:1000B0000D0800080D0800080D0800080D080008CC
:1000C0000D0800080D0800080D0800080D080008BC
:1000D0000D0800080D0800080D0800080D080008AC
:1000E0000D0800080D080008000000000D080008B9
:1000F0000D0800080D0800080D0800080D0800088C
:100100000D0800080D0800080D0800080D0800087B
:100110000D080008C13F00080D0800080D08000880
:100120000D0800080D0800080D0800080D0800085B
:100130000D0800080D0800080D0800080D0800084B
:1001400000000000000000000000000000000000AF
:100150000D0800080D0800080D0800080D0800082B
:100160000D0800080D0800080D0800080D0800081B
:100170000D0800081D4400080D08000800000000DC
:100180000D0800080D0800080D0800080D080008FB
:100190000D0800080D0800080D0800080D080008EB
:1001A0000D0800080D0800080D08000800000000F8
:1001B0000D0800080D0800080D0800080D080008CB
:1001C0000D0800080D0800080000000000000000F5
:1001D00000000000000000000D0800080000000002
:1001E000000000000000000000000000000000000F
:1001F00000000000000000000D0800080D080008C5
:100200000D0800080D080008000000000D08000897
:100210000D0800080D0800080D0800080D0800086A
:100220000D080008000000000D0800080000000094
:100230000D0800080D080008000000000D08000867
:100240000D0800080D0800080D0800080D0800083A
:100250000D0800080D0800080D0800080D0800082A
:100260000D0800080D0800080D0800080D0800081A
:100270000D0800080D0800080D0800080000000027
:100280000D0800080D0800080D0800080D080008FA
:10029000000000000D0800080D0800080000000024
:1002A000000000000D0800080D0800080D080008F7
:1002B0000D0800080D0800080D0800080D080008CA
:0C02C0000D0800080D0800080D080008DB
:1002D000034613F8012B002AFBD1181A0138704786
:1002E00001F0FF01102A2BDB10F0070F08D010F8E7
:1002F000013B013A8B422DD010F0070F42B3F6D1EB
:10030000F0B441EA012141EA014122F007047FF003
:1003100000070023F0E80256083C85EA010586EA5A
:10032000010685FA47F5A3FA87F586FA47F6A5FA96
:1003300087F68EB9EED1F0BC01F0FF0102F00702A2
:1003400032B110F8013B013A83EA010313B1F8D14D
:100350000020704701387047002D06BF354603382E
:10036000073815F0010F07D1013015F4807F02BF67
:10037000013015F4C03F0130F0BC0138704700BFB8
:1003800081F0004102E000BF83F0004330B54FEA46
:1003900041044FEA430594EA050F08BF90EA020FB3
:1003A0001FBF54EA000C55EA020C7FEA645C7FEA46
:1003B000655C00F0E2804FEA5454D4EB5555B8BF69
:1003C0006D420CDD2C4480EA020281EA030382EADA
:1003D000000083EA010180EA020281EA0303362D6C
:1003E00088BF30BD11F0004F4FEA01314FF4801C3F
:1003F0004CEA113102D0404261EB410113F0004F51
:100400004FEA03334CEA133302D0524263EB430307
:1004100094EA050F00F0A780A4F10104D5F1200EA5
:100420000DDB02FA0EFC22FA05F2801841F1000100
:1004300003FA0EF2801843FA05F359410EE0A5F1D4
:1004400020050EF1200E012A03FA0EFC28BF4CF005
:10045000020C43FA05F3C01851EBE37101F00045BB
:1004600007D54FF0000EDCF1000C7EEB00006EEBC8
:100470000101B1F5801F1BD3B1F5001F0CD3490852
:100480005FEA30004FEA3C0C04F101044FEA4452A9
:1004900012F5800F80F09A80BCF1004F08BF5FEA30
:1004A000500C50F1000041EB045141EA050130BD10
:1004B0005FEA4C0C404141EB0101013C28BFB1F522
:1004C000801FE9D291F0000F04BF01460020B1FA6D
:1004D00081F308BF2033A3F10B03B3F120020CDA40
:1004E0000C3208DD02F1140CC2F10C0201FA0CF01E
:1004F00021FA02F10CE002F11402D8BFC2F1200C83
:1005000001FA02F120FA0CFCDCBF41EA0C01904038
:10051000E41AA2BF01EB0451294330BD6FEA040481
:100520001F3C1CDA0C340EDC04F11404C4F120026C
:1005300020FA04F001FA02F340EA030021FA04F37E
:1005400045EA030130BDC4F10C04C4F1200220FAD5
:1005500002F001FA04F340EA0300294630BD21FA13
:1005600004F0294630BD94F0000F83F4801306BFD9
:1005700081F480110134013D4EE77FEA645C18BFCD
:100580007FEA655C29D094EA050F08BF90EA020F64
:1005900005D054EA000C04BF1946104630BD91EA5C
:1005A000030F1EBF0021002030BD5FEA545C05D15F
:1005B0004000494128BF41F0004130BD14F580049E
:1005C0003CBF01F5801130BD01F0004545F0FE4112
:1005D00041F470014FF0000030BD7FEA645C1ABF47
:1005E000194610467FEA655C1CBF0B46024650EA7E
:1005F000013406BF52EA033591EA030F41F40021AA
:1006000030BD00BF90F0000F04BF0021704730B52F
:100610004FF4806404F132044FF000054FF0000104
:1006200050E700BF90F0000F04BF0021704730B5C5
:100630004FF4806404F1320410F0004548BF40429A
:100640004FF000013EE700BF42004FEAE2014FEAEF
:1006500031014FEA02701FBF12F07F4393F07F4FCA
:1006600081F06051704732F07F4208BF704793F0CD
:100670007F4F04BF41F40021704730B54FF46074E0
:1006800001F0004521F000411CE700BF50EA0102E3
:1006900008BF704730B54FF000050AE050EA01028C
:1006A00008BF704730B511F0004502D5404261EBFC
:1006B00041014FF4806404F132045FEA915C3FF43D
:1006C000D8AE4FF003025FEADC0C18BF03325FEADA
:1006D000DC0C18BF033202EBDC02C2F1200300FA8B
:1006E00003FC20FA02F001FA03FE40EA0E0021FAB0
:1006F00002F11444BDE600BF53B94AB9002908BF4E
:1007000000281CBF4FF0FF314FF0FF3000F00CB855
:10071000ADF1080C6DE904CE12F0EEF8DDF804E05E
:10072000DDE9022304B07047704700BF0348044B63
:10073000834202D0034B03B1184770475401002095
:1007400054010020000000000548064B1B1AD90F79
:1007500001EBA301491002D0034B03B118477047C6
:1007600054010020540100200000000010B5064C88
:10077000237843B9FFF7DAFF044B13B10448AFF312
:1007800000800123237010BD6001002000000000E4
:10079000182C010808B5054B1BB105490548AFF3F6
:1007A0000080BDE80840FFF7CFBF00BF0000000099
:1007B00064010020182C0108DFF838D000F028F878
:1007C000002103E00C4B5B58435004310B480C4BA9
:1007D00042189A42F6D30B4A02E0002342F8043B47
:1007E000094B9A42F9D307F067FC10F09BFF02F027
:1007F0009FFA70470000022080800308000000205C
:100800005401002060010020BCC60020FEE700006B
:10081000044AD36843F00203D36053689B04FCD5B9
:10082000704700BF00480258F7EE007ADFED186A03
:10083000B0EE085A9FED176A60EE004A9FED167AF7
:1008400077EEC07ADFED153A20EE866A9FED144A06
:1008500060EEA60A67EEA76A67EE857A60EE245A14
:1008600066EE856A67EEA47A26EE800A27EE877A1E
:1008700067EE867AA0EE237AE0EE207AA5EE847AFF
:10088000E5EE867A80ED007AC1ED007A704700BF10
:100890008FC2F53D6666663FCDCC0CBF9A9919BEF6
:1008A000EC5180C010B50023134A0121134C1448A9
:1008B00023701170134C144A1449136003700B70A9
:1008C00007F0B8FC124AFA38237810604BB111488F
:1008D00003F08AF9237853B10F48BDE8104003F0C4
:1008E0004FB90E4803F080F92378002BF4D10C485F
:1008F000BDE8104003F044B9EC010020F2010020F3
:10090000F1010020ED0100207C010020EF0100201A
:10091000E8010020882C0108D02C0108AC2C01082B
:10092000EC2C010800B58BB000234FF0000C03AA9B
:1009300004A807A98DED010A06930993CDF80CC010
:10094000CDE90433CDE9073307F0EEF9DDED087AA0
:100950001F4B9DED077AF1EE677ADDED066A03988D
:10096000B1EE477A1B49F1EE666A1B4AD3ED015A94
:10097000086093ED006A77EEE57A92ED005A174B26
:1009800037EE467A76EEC56A154993ED016A154A47
:1009900077EEC67AD3ED005AC1ED006A9FED125A88
:1009A00037EE657AD1ED004AD2ED006AA7EE856A8E
:1009B0009DED010AE7EE055AF0EE667AE4EE807AE4
:1009C00083ED016AC3ED005AC2ED007A0BB000BDA1
:1009D000FC010020140200202C020020F401002061
:1009E0002802002024020020CDCC4C3E10B582B05D
:1009F000044607F01FFC144B1449154A0094DFF815
:100A000068C00978126893ED000A124BDCED000A09
:100A100093ED001ADFF854C00F4BDCED001A93ED94
:100A2000002ADFF84CC00D4BDCED002A93ED003AB4
:100A3000DFF840C00A4BDCED003A93ED004A094B69
:100A400004F06AFE02B010BD280200203802002027
:100A50003402002020020020180200201002002092
:100A600008020020183B0108240200201C0200207C
:100A7000140200200C02002000B5DFF86CC00B4609
:100A8000DFF868E083B0174A9EF8001012689CED0A
:100A9000000ADFF85CC0DCED000ADFF858C09CED0E
:100AA000001ADFF854C0DCED001ADFF850C09CEDEE
:100AB000002ADFF84CC0DCED002ADFF848C09CEDCE
:100AC000003ADFF844C0DCED003ADFF840C09CEDAE
:100AD000004A4FF0000CCDF800C004F01DFE03B03A
:100AE00000BD00BF34020020280200203802002090
:100AF00024020020200200201C02002018020020F6
:100B000014020020100200200C0200200802002025
:100B10005F4BB9EE007AD3ED007AF4EEC77AF1EECE
:100B200010FA00F19F80B1EE007ADFED5A6AF4EE20
:100B3000C77AF1EE10FA37FE277AF0EEC77AF4EEB4
:100B4000E67AF1EE10FA40F28A80B5EEC07AF1EE64
:100B500010FA40F3998037EE667AF9EE007AD3ED19
:100B6000016AF4EEE76AF1EE10FA00F18480F1EE2A
:100B7000007A9FED486AF4EEE76AF1EE10FA77FE2C
:100B8000A67AF0EEE76AF4EEC66AF1EE10FA75D9CD
:100B9000F5EEC07AF1EE10FA73DD77EEC67A61EE0B
:100BA000A75A90ED006A61EE277AD0ED016A9FEDB9
:100BB0003A5AE1EE075AE1EEC77AA5EE826AE7EE0D
:100BC000826A76EE407AF4EEC57AF1EE10FA4FD4EE
:100BD0009FED327A9FED2F6AF4EEC77AF1EE10FAAC
:100BE00037FE277A27EE066A76EEE07A9FED2A7ABC
:100BF000F4EEC77AF1EE10FA37D49FED287ADFEDE4
:100C0000256AF4EEC77AF1EE10FA77FE277A67EEDE
:100C1000A67A30EE067ADFED226AB0EEC00A70EEF8
:100C2000A77A80ED007AB4EEE60AC0ED017AF1EE23
:100C300010FA13D8F0EEE00AF4EEE60AF1EE10FA3C
:100C40000CD8184BD3ED007AF0EEE77AF4EEE67AA2
:100C5000F1EE10FA02D800230360436070479FED65
:100C6000127A7AE79FED117A77E7DFED117AD0E714
:100C70009FED0F6AB8E7DFED0D7A90E7DFED0A7AB6
:100C80008DE777EE867A8AE737EE267A65E700BF4A
:100C9000F40100200AD7A33D9A9919BE9A99193EEA
:100CA0000AD7A33C200200200000000048E17AC0DF
:100CB000A69B44BCF8B50B780E460746F3B1013845
:100CC0000D4602E015F8013FC3B110F8012FA3F162
:100CD0006101A3F1200EA2F1200CA2F16104C9B2BE
:100CE0005FFA8EFE5FFA8CFC192998BF7346192CA7
:100CF00098BF62469A42E5D00020F8BD3046FFF723
:100D0000E7FA385C2C2818BF00280CBF012000200F
:100D1000F8BD00BF2DE9F04104460138524E522380
:100D200004F11E08054615F8012FA3F1610EA3F189
:100D3000200CA2F12001A2F161075FFA8EFE5FFA9A
:100D40008CFCC9B2BEF1190F98BF6346192F98BF2A
:100D50000A469A420DD1454516F8013FE3D10123D9
:100D60004249434A0B7043481370BDE8F04102F01A
:100D7000EFBE414E04F110080546522315F8012F2D
:100D8000A3F1610EA3F1200CA2F12001A2F16107F1
:100D90005FFA8EFE5FFA8CFCC9B2BEF1190F98BFE4
:100DA0006346192F98BF0A469A420ED1454516F858
:100DB000013FE3D1002431492D4B01220C701A7000
:100DC0002F48BDE8F04102F0C3BE2E4F04F10F08DA
:100DD0000646522316F8012FA3F1610CA3F120055A
:100DE000A2F12001A2F1610E5FFA8CFCEDB2C9B252
:100DF000BCF1190F98BF2B46BEF1190F98BF0A46D8
:100E00009A4208D1B04517F8013FE3D11E48BDE82A
:100E1000F04102F09DBE1D4E0B34522310F8012FFD
:100E2000A3F1610CA3F12005A2F12001A2F1610759
:100E30005FFA8CFCEDB2C9B2BCF1190F98BF2B461A
:100E4000192F98BF0A469A420BD1A04216F8013FCB
:100E5000E4D1074B01220E481A70BDE8F04102F0C0
:100E600077BEBDE8F08100BF082D0108F101002028
:100E7000F2010020902D0108B82D0108EC0100209E
:100E8000642D01087C2D01083C2D0108542D01081A
:100E9000282D0108F0B591B007F0CCF92A4A136863
:100EA000C31AF92B0BD9294B29491B7810600A78F2
:100EB000002B42D0002A43D1264802F061FE402197
:100EC000684606F019FC18B36C46234D234E2718CC
:100ED00005E05F291ED82960F254A74218D014F803
:100EE000012B4FF0000E2B680D2A03F1010108D0F1
:100EF000A2F10A0CBCFA8CFC4FEA5C1CBCF1000F9E
:100F0000E7D006F803E05BB90023A7422B60E6D1E7
:100F100011B0F0BD1248C5F800C002F065FEDCE774
:100F2000104802F015FE304602F012FE0E4802F0A4
:100F30000FFE3046FFF7EEFEE6E71AB10B48BCE7BE
:100F40000B48BAE70B48B8E7E8010020EC010020A5
:100F5000ED010020EC2C01087C0100208001002024
:100F60000C2E0108FC2D0108082E0108CC2D0108CB
:100F7000D02C0108E42D01080F4B00B51B7883B07D
:100F80000BB9FFF787FF03F0FFFD18B9019003F0DD
:100F900001FE40B907F04EF903F05EFB03B05DF8C7
:100FA00004EB03F0FFBBFFF77DFC044A0921019825
:100FB000116003B000BD00BFEF010020340200202B
:100FC0000E4B10B51B7882B004460BB9FFF762FFD9
:100FD00003F0DAFD18B9019003F0DCFD28B92046D2
:100FE00002B0BDE8104003F0ADBBFFF75BFC044A64
:100FF00009210198116002B010BD00BFEF0100206F
:10100000340200202DE9F04F00232DED108BDBB0D2
:10101000DFED908AF0EE40FA0F93B0EE608ACDEDEE
:10102000088ACDED098ACDED0A8ACDE91033CDE9E4
:101030001233CDE91433CDE91633CDE90D33864BA8
:10104000D3ED00EA07F0F6F8B0EE683A9FED902A8B
:10105000F0EE682A19AA01230490CDED188A07EE54
:10106000903AF0EE6F0A0CA90BA8B8EEE70A01332C
:1010700020EE020AFFF7D8FBF0EE437A9DED0C3A22
:10108000B0EE627ADDED0B2A412B73EE677A52EDFA
:10109000016A32EEC77A67EEA77AE7EE077AB1EE19
:1010A000E77A77EE267AE2EC017AD8D1DDED58AA1C
:1010B000DFED6ADAF4EEEDAAF1EE10FA40F26184A7
:1010C0009FED64AA664B9FED677AF0EE4A8A83ED46
:1010D00000AAB0EE4ABA644B28EE078ADFED637AC5
:1010E000F0EE4A9A83ED00AAB0EE4A9A604B28EEE1
:1010F00027EADFED60BAB0EE4ADA83ED00AAF0EE3F
:101100004ACA5D4B7EEE8E7A6FEEABBA83ED00AAD3
:10111000B0EE4ACA594BCDED077A83ED00AA049B85
:10112000A3F1FA021F46984600230592069307F0A2
:1011300081F8049A42F227330646821A9A4200F254
:101140003584A0EB0803092B40F2D683C31B08F1BA
:101150000A0807EE903AA0EB0803F8EE677A092B2D
:1011600088BF804667EEAD7AF4EEED7AF1EE10FAC4
:1011700000F1A0839FED42FAF4EECF7AF1EE10FA7F
:101180003FFE27FAB0EE4F0AFFF7CCFB14A930461A
:1011900003F026FB002800F009840AAB08AA14A972
:1011A0003848009309AB03F0B7F9002800F0F28348
:1011B000354FD7ED007A77EEEE7AB0EE670ACDEDD7
:1011C000037A10F00DF9B0EE408A9DED030A10F09D
:1011D00007F8DDED092ADDED087AF0EE401A22EE7F
:1011E000807A9DF83C3062EE882AA7EE887AE0EE9D
:1011F000672A002B00F06683F0EE620A0DA8B0EEBD
:10120000470AB0EE4F2AB0EE481AFFF781FC9DED79
:101210000D7ADDED0E2A89EE2A2AB5EEC02AF1EE0E
:1012200010FA00F14A83B7EE003AB4EEC32AF1EEA9
:1012300010FAB5EEC09A33FE022AF1EE10FA40F22F
:10124000B283B4EEEA9AF1EE10FA56DA19AA012343
:101250002EE000BF00000000040200206F12833A5D
:1012600020020020DA0FC93F1C02002080B7803F17
:10127000100200206666663F0C0200200802002073
:10128000CDCC4C3D383B010824020020BD378635CB
:101290000000803C8FC2F53DCDCCCCBE9A9919BEE2
:1012A000A5705DC09A99B93F0133412B00F0668368
:1012B000D2ED007A0432B4EEE79AF1EE10FAF3D8E8
:1012C000013B1FED0E6A0DEB8302D2ED186A77EE3B
:1012D000E67AF4EEC67AF1EE10FA40F3148379EE72
:1012E000666A86EEA76A07EE903AB8EEE73A5FEDD7
:1012F000187A33EE063A23EE273AF0EE6F0A0CA97D
:10130000B0EE430A0BA88DED037AFFF78DFAF7EEE6
:10131000007A1FED207AB0EE086AF1EE086A77EEE7
:10132000C37A2FEE875A1FED247A67EE865A23EE92
:10133000066A65EEA75A67EEA67A7BEEC56A26EEC8
:10134000036A67EE837A66EEA76A67EE877A1FED17
:101350002D7AE5EE256A1FED2E5AE5EE877A9DED92
:10136000037A7BEEEB5AE6EE256AE6EE057A26EE88
:10137000A66AA7EEA76AF1EEC65AF4EEED5AF1EEB0
:1013800010FA40F2078386EEA56A5FED3A4AE04B19
:101390009FEDE01AD3ED006ADFEDDF3A87EEA55A44
:1013A000DFEDDE7A62EEA44A67EE277AB7EE083AFE
:1013B000E4EE8FCAA7EE8FCA6FEE233A24EE864A78
:1013C000A7EE854A64EE854AE6EE674A7AEEC97A68
:1013D000F0EEC45AA4EE0FDAE5EE8F6AC3ED006AB0
:1013E0007AEECD6AB4EEE6AAF1EE10FAB4EEE7AA10
:1013F0007AFE260AF1EE10FA7AFE277AF4EEE07A07
:10140000F1EE10FA70FEA70A60EE810AF1EEE07AC2
:10141000B4EEE73AF1EE10FA77FE837AF4EEE79A4B
:10142000F1EE10FA40F1358279EEA33AF4EEE73AA4
:10143000F1EE10FA77FEA39AA9EE8F9ADFEDD67A35
:10144000B4EEEA9AF1EE10FA3AFE899A79EE4D3A44
:1014500063EEA73AFDEE007AF4EEE73AF1EE10FA09
:1014600007D4F5EE007AF4EEE73AF1EE10FA77FEE3
:10147000A37A79EEA77AFDEE003AF4EEE37AF1EE84
:1014800010FA00F13082F7EE083AF4EEE37AF1EE6A
:1014900010FA73FEA77A37EEC44ADFEDA13A64EE84
:1014A000233AA3EE8FBAFDEE003AB4EEE3BAF1EEC2
:1014B00010FA00F11582F5EE003AB4EEE3BAF1EE5F
:1014C00010FA33FE8BBADFED973AE4EE237ABDEEE5
:1014D000004A77EE8B7AF4EEC47AF1EE10FA07D474
:1014E000B7EE084AF4EEC47AF1EE10FA34FE274A59
:1014F000DDED0C7ADDED0B3A7CEEE77ADFED8A0A62
:101500007CEE633A894B67EE857A83ED004AE6EE1E
:10151000637ADFED873AB0EE673ADFED867A67EE01
:10152000E47AE3EE237AF4EEE07AF1EE10FA07D4EF
:10153000DFED810AF4EEE07AF1EE10FA70FEA70A10
:101540007E4B3BEEEC1A83ED003A7D4B61EE017A67
:10155000C3ED000A7B4BC3ED004ADFED7B4A74EE1E
:10156000CC4AF5EEC04AF1EE10FA00F19E8177EE1A
:101570008A7AB0EE4A3AF1EEE73ADFED747AB4EEE9
:10158000E72AF1EE10FAC0F27B81DFED7B7AF4EE10
:10159000E73AF1EE10FA05D9F4EEED3AF1EE10FA71
:1015A00000F3CE81DFED6A0AF0EE4A7AB0EE603ADF
:1015B0005E4BC3ED007AF7EE007A664BB0EE000AA0
:1015C000B0EE085AB4EEE72A84EE2A1AF1EE10FAC9
:1015D000B1EE084A37FE826AA6EE405A26EE066A47
:1015E00077EEC27A22EE044A21EEE00A60EE880A23
:1015F00025EE065AB0EE6E6A24EE274AD7ED007A41
:10160000A3EE080AAEEE056A9FED535A2EEE044A89
:10161000E3EE210A93ED003A76EE677A67EE857A7B
:10162000E4EE017A9FED4D4AE3EE447A9FED4C4A99
:10163000F4EEC47AF1EE10FA00F14F81F4EEC57ABF
:10164000F1EE10FA75FE277A9FED465A2FEE05FA55
:1016500038EECF5AB4EEE75AF1EE10FA00F33A81C1
:1016600038EE8FFAF4EECF7AF1EE10FA7FFE278A89
:10167000DFED367A3C4AB4EEE72AC2ED008A3B4AF7
:10168000F1EE10FA97ED005A82ED006A9DED076ABF
:1016900036EE455A80F28680F0EEE66ADFED347A67
:1016A000F4EEE76AF1EE10FA0CD8DFED337AF4EEDF
:1016B000E73AF1EE10FA05D8F4EEE75AF1EE10FA37
:1016C00040F2248100270397B0EE681A10A9294838
:1016D00002F0AAFE002800F05D8110A8FFF770FC60
:1016E000002800F07881059BF31AF92B00F2FE80A8
:1016F00004F01AFC039B3B4300F0D480069B002BB4
:1017000000F0FE80F31A3B2B00F26C8137460EE5A9
:1017100018020020333333403333B33FAE47613FC9
:10172000CDCC4C3F3333B33E9A9999BE2002002072
:101730009A9919C0AE47613E9A99993E10020020CD
:101740000C02002008020020EC5180C09A99593FF9
:101750000000000028020020CDCC0C40CDCC4C3E37
:10176000CDCC0CC0333373401C0200200402002097
:101770006F12033C383B01088FC2F53C8FC2F5BCA9
:10178000CDCC4C3D8FC2753D48E17A3F0AD7A33D91
:101790000AD7A33C0AD7233D9A99993F9A9999BFB2
:1017A0006666E63E5FED0C7AF4EEE73AF1EE10FA8B
:1017B00054D8F4EEE75AF1EE10FA1FD8F0EEC57ADD
:1017C0005FED0D6AF4EEE67AF1EE10FA16D8D3ED7D
:1017D000007A5FED106AF0EEE77AF4EEE67A5FEDFC
:1017E000167AF1EE10FAB4EEE72A94BF012700272B
:1017F000F1EE10FA0ADA0023039365E75FED1E7A33
:101800000027B4EEE72AF1EE10FA37DB5FED257A18
:10181000F4EEE74AF1EE10FAEDDB5FED277AF4EE35
:10182000E74AF1EE10FAE6D862EEA22A5FED297AD5
:10183000E7EE072AB1EEE27AB4EEE77AF1EE10FABB
:10184000D9D8B0EEC55A5FED317AB4EEE75AF1EE71
:1018500010FA94BF01230023039335E75FED367A36
:10186000B4EEE72AF1EE10FAFFF62CAF5FED397A0D
:101870000027F4EEE73AF1EE10FAC7D9039723E711
:1018800026EE603A60EE850AA5EE043AE6EE040A1A
:1018900091E679EEE33AF4EEE37AF1EE10FA77FEB0
:1018A000A39AC9E53746069341E4E4EEA47AB1EE83
:1018B000643A60E6B0EE6DFA64E4B0EE4A2AB0EE47
:1018C0004A3A1AE501238DED0D7ACDED0E2A8DF8F9
:1018D0003C30A0E4F0EE458ACAE6F0EE447AB3E686
:1018E000B0EE63BAEFE5F0EE637AD4E514A93046C2
:1018F000FFF7C2F80596FBE6012006F0A1FC16E40E
:101900003746069613E4B0EE4A6AECE4B0EEC55AE8
:101910005FED617AB4EEE75AF1EE10FA3FF6D2AE1F
:10192000D3ED007A00231FED657AF0EEE77A03939A
:10193000F4EEC77AF1EE10FA94BF01271F46C3E612
:101940005FED6B0A5FED6B7A61EE200A1FED6C5A5A
:1019500023EE273A20EEA06AA3EE036AF1EEC67AE0
:10196000F4EEC57AF1EE10FA24DD85EE276AF0EE8A
:10197000457A23EE063A60EE860A19E6B7EE003A9B
:10198000BBE41F4B062200201A605BB0BDEC108B3D
:10199000BDE8F08F1A4B06221A6000205BB0BDEC48
:1019A000108BBDE8F08F9FED173AA6E4144B05228B
:1019B0001A60F2E79FED146AF4EEC67AF1EE10FABF
:1019C0007FF5F6AD86EE275AF0EE467A23EE053A1D
:1019D00060EE850AECE50A4B1A68092ADDD005227B
:1019E0001A60DAE7094A0023DDED077AC2ED007AD2
:1019F000074A1360074A1360FFF7BEFAC5E700BF46
:101A000034020020000000008FC2F53D04020020D7
:101A1000200200201C020020BC4B1A682DE9F04F68
:101A200001322DED048BADF5037D069201D101222B
:101A300006921A6006F0FEFB069F0024A0F15006F5
:101A4000B34A3B4640210A90A0F10A0881462AA8E1
:101A50000996A3469FEDAF8AA2469FEDAF9ACDE9C6
:101A60001244CDE91444CDE91644CDE918440FF0F1
:101A7000D1FD40F62363A94AA02100935AA83B4612
:101A800001940FF0C7FD5AA802F0AEF8DFEDB77A67
:101A9000A34B2746F0EE679A0B94C3ED007AF0EE65
:101AA000678AA04BC3ED007A9F4BC3ED007A9F4B32
:101AB000C3ED007A9E4BC3ED007A06F0BBFB0A999A
:101AC00041F293130590421A9A4200F25481059B09
:101AD000099A9B1A4F2B00F2078140211AA805F0A2
:101AE0000BFE18B31AAC52462618CDE9079808E049
:101AF0003AAB9F54002A40F08B8000220134B4425C
:101B000011D023780A2B18BF0D2B0CBF01250025FF
:101B1000EED0511C7F2900F2B88001343AA8B442BB
:101B200083540A46EDD19246DDE90798059BA3EB65
:101B30000803092B40F2E680059BA3EB090307EE9F
:101B4000903AF8EE677A67EE887AF4EEC87AF1EEAA
:101B500010FA00F1CF809FED770AF4EEC07AF1EE33
:101B600010FA30FE270AFEF7DDFE12A9059802F0F2
:101B700037FE002800F01481BBF1000F00F0B180A7
:101B8000059B0B9A9B1AB3F5AF7F00F2B680F0EE7F
:101B9000E97AB7EE087AF4EEC77AF1EE10FA40F37C
:101BA000E780654BDFED5C7AD3ED006A9FED637AE9
:101BB00067EEE67A9FED621AE9EE877AF4EEC17A73
:101BC000F1EE10FA07D49FED5F1AF4EEC17AF1EE50
:101BD00010FA31FE271A524BF0EE680A9FED5A0AAE
:101BE00016A983ED009A4F4B584883ED001A02F076
:101BF0001BFC002800F0D88016A8FFF7E1F90028A8
:101C000000F0D68004F090F9DDF81480C14654E766
:101C10000DF144090DF140080DF13C0A1846FFF79B
:101C200079F80EAB0DAA4A493AA8CDF80890CDF83C
:101C30000480CDF800A00FF01FFD052803D10D9BF7
:101C4000069A934227D03AA80DAA42490FF014FDF4
:101C500001287FF452AF0D9B069A93427FF44DAF5B
:101C6000FFF78AF900232E480B213B4A0025036029
:101C70002C4803603948116001F0B6FF28460DF585
:101C8000037DBDEC048BBDE8F08F3548AB4601F019
:101C9000ABFF2A4632E7109BB3F5487FD3D1119BA7
:101CA000B3F5167FCFD1DDED0F9AA021DFED2D7AB0
:101CB0005AA8F8EEE99A0E9B2B4A69EEA79AB7EE5E
:101CC000E97A8DED007B0FF0A5FC5AA801F040FFEA
:101CD0000E9A40F622639A426FDC059BAB460B934B
:101CE0000BE7B0EE681A76E72AA801F049FF059BDA
:101CF0000993F2E6B0EE480A35E7B0EE681A4FF005
:101D0000000B68E7012006F09BFAD6E6E40100200C
:101D1000302E01086F12833A0AD7A33D542E0108D2
:101D2000200200201C020020100200200C020020D3
:101D300008020020CDCC4C3D280200200AD7233DCC
:101D4000EC5138BEEC51383E0AD7A3BD383B0108F0
:101D5000B82E0108502F010834020020782F010806
:101D6000A02F01080AD7233CF82E0108000000002C
:101D70001FED021A2FE7FFF7FFF8002313480B218E
:101D8000134A0360134803601348116001F02CFFED
:101D9000002528460DF5037DBDEC048BBDE8F08FD2
:101DA0000B4B05221A60F3E7094B06221A60EFE796
:101DB000074B1A68092AF4D1EAE7084A084B126867
:101DC00008481A6001F010FF58E700BF2002002009
:101DD000340200201C020020902E01082402002062
:101DE00004020020282F01082DE9F04FADF5497DB0
:101DF000824606F01FFAAF4B04901A6812F10109EF
:101E000000F0A5814A46DFF8FCB240F6B8381A6007
:101E10009BF80030049A002BA74BA2F1C801A2F155
:101E20000A021B7808BF4FF4E16806910592002B67
:101E300000F08B81A14B0024A14A402118A8CDE9D4
:101E40000093A04B1C7053460FF0E4FB53469E4A90
:101E5000402128A8CDF800900FF0DCFB53469B4AA8
:101E6000402138A8CDF800900FF0D4FB5346984A93
:101E7000402148A8CDF800900FF0CCFB5346954A7E
:101E8000402158A8CDF800900FF0C4FB5346924A69
:101E9000402168A8CDF800900FF0BCFB53468F4A54
:101EA000402178A8CDF800900FF0B4FB53468C4A3F
:101EB0006021B0A8CDF800900FF0ACFBB0A801F005
:101EC00093FE06F0B7F9049B054603940793059B20
:101ED000CDF80890EB1A092B40D8069BEB1AC72BBC
:101EE00046D800270DF120094021484605F004FCA2
:101EF00000B309EB00064D46204609E0421C5F2A6C
:101F000044D80DEB0004104684F86032B54210D07E
:101F100015F8013B0D2B01D00A2BEFD10DEB00037F
:101F2000002283F86022002834D1B5424FF000002F
:101F3000EED1044606F07EF9002F40F0E580049BC8
:101F4000C01A404580F04681012006F079F906F07C
:101F500071F9059B0546EB1A092BBED9FFF70CF862
:101F6000002800F04E81069B0595EB1AC72BB8D9C7
:101F700018A801F005FE53465A4A6021B0A80FF098
:101F800049FBB0A801F0E4FD0695AAE7564801F028
:101F90002BFECAE7554801F0DBFD98A801F0D8FDFB
:101FA000534801F0D5FD98A8FEF7B4FE40F6B833CB
:101FB0009BF8002038A9434598A838BF4346002A1B
:101FC00018BF9846FEF776FE0446002852D0002F30
:101FD0006CD0029B6021474AB0A8009353460FF093
:101FE00019FBB0A801F000FE48A998A8FEF762FE10
:101FF000002846D178A998A8FEF75CFE074600287D
:1020000040F0A88068A998A8FEF754FE80B142F677
:10201000E06398450AD0029B6021374AB0A800933C
:1020200053460FF0F7FAB0A801F0DEFD42F6E06883
:10203000DCB198A858A9FEF73DFE08B9274665E728
:1020400006F0F8F8029BA0F1C8042C4A6021009326
:1020500004905346B0A806940FF0DCFAB0A801F043
:10206000C3FD40F6B83800230393B54200F08480E6
:1020700000204DE748A998A83C46FEF71BFE002823
:10208000B8D0DDF8089000210E485346CDF80090F6
:102090001B4A01706021B0A80FF0BCFAB0A801F093
:1020A000A3FD01200DF5497DBDE8F08F06F0C2F8D3
:1020B00003908EE7E4010020ED010020C82F010805
:1020C000D42F0108F0010020F42F01080C30010882
:1020D000243001083C300108543001086C300108FC
:1020E0008430010810310108C8310108FC2D0108B5
:1020F000082E010828310108803101089C310108AF
:1021000040310108F2010020012006F099F806F0A4
:1021100091F8039A47F22F530546821A9A422FD814
:10212000059BEB1A092B0AD8079BEB1AB3F57A7FAC
:10213000FFF4DAAE28A801F023FD0795D4E6FEF7F8
:102140001BFF00285DD00595EEE7314B73E60122B9
:10215000914658E6DDF8089053462E4A6021B0A813
:10216000CDF800900FF056FAB0A801F03DFD2A4BD3
:102170000A221A60002095E7002406F05BF8DEE6EC
:10218000DDF808905346254A6021B0A8CDF80090AC
:102190000FF040FAB0A801F027FD5346204A402135
:1021A00088A8CDF800900FF035FA88A801F0E8FC77
:1021B00088A801F0E5FC1B4A53466021B0A8CDF881
:1021C00000900FF027FAB0A801F00EFD0123164A87
:1021D000137066E7DDF808905346144A6021B0A8F2
:1021E000CDF800900FF016FAB0A801F0FDFC002128
:1021F0000122094B8BF800100B490A7008221A6063
:10220000B8E7054B1A68092AB4D005221A60B1E76D
:10221000CC2F01085C31010834020020A0300108F5
:10222000C4300108DC300108F0010020E43101086D
:10223000014B1878704700BFF20100202DE9F04FE4
:10224000C3B005F0F7FF454B8146A0F596781B78A3
:10225000002B77D0424B4FF4FA724FF416710024E2
:102260002AA8404F2646CDE900213F4A60210FF0C1
:10227000D1F93E4801F0B8FC3C7005F0DBFF40F6B8
:10228000B733A0EB090098423ED805F0D3FFA0EB8E
:102290000803C72B51D8402102A805F02DFA20B31E
:1022A00002AD05EB000B06E000F8C06CC4BB0135C5
:1022B00000245D4519D02B7804F58471621C0A2B2B
:1022C00018BF0D2B0DEB01000CBF4FF0010A4FF0B2
:1022D000000AE9D004F584715F2A14466944E6D8FF
:1022E000013501F8C03C5D45E5D1FEF745FE82466B
:1022F00050B3012005F0A4FF05F09CFF40F6B73372
:10230000A0EB09009842C0D94FF0000A184801F02C
:102310006BFC184B082250461A6043B0BDE8F08FA2
:1023200012A8FEF7F7FC3B78002BC0D0124801F052
:102330005BFC504643B0BDE8F08F80462AA801F010
:102340001FFCA8E70D4B86E70A4B1A68092AF0D054
:10235000052250461A6043B0BDE8F08FED01002021
:10236000C82F0108F1010020083201083C320108A1
:10237000883201083402002064320108CC2F0108A1
:1023800008B500F0E7FF03F0E7FCBDE8084002F005
:102390009FBB00BF404B1A7822B100223F481A7001
:1023A00003F0D0BE70B59AB000F066FF05F042FFB2
:1023B0003B4B0F22A0F57A753A481A7003F0C2FE23
:1023C000394801F011FC05F035FFA0F57A7605E0FB
:1023D00002F0E0FBB0B90A2005F032FF00F052FF36
:1023E000B8B105F027FF044603F09EFDA31BB3F52B
:1023F0007A7FEDD32D48264601F0F6FB02F0CAFBAA
:102400000028E8D0274803F09DFEE4E7254803F0C4
:1024100099FE05F00FFF044603F086FD631BB3F53C
:102420007A7F0DD202F0B6FB0028EFD100F04AFF10
:1024300010B100F01BFFA0B90A2005F001FFE8E78A
:1024400000F0E4FE064600F0DBFE194A3346602148
:10245000009002A80FF0DEF802A8254601F0C4FBA8
:10246000E0E70E4803F06EFE03F08EFE00F0FEFE85
:1024700001280BD0022804D10E4801F0B5FB1AB098
:1024800070BD0D4801F0B0FB1AB070BD0B4801F0F3
:10249000ABFB1AB070BD00BFEE010020B0320108E6
:1024A00038020020B4320108BC320108F4320108BD
:1024B0001033010858330108783301083833010814
:1024C0000038024B18BF012018707047ED01002042
:1024D000002311491148002210B50B70104C11490E
:1024E000236003700B70104C104911480B6023706F
:1024F00003601049104C114B0A60114822601149C9
:102500001A60114B02600A601A6003F0F1F8BDE82E
:102510001040FEF7C7B900BFF0010020EF01002016
:1025200034020020F2010020EC010020E001002034
:102530007C010020200200201C0200201802002044
:10254000100200200C0200200802002008B505F04F
:1025500071FE084B084AFA381B78106023B107480F
:10256000BDE8084001F040BB0548BDE8084001F067
:102570003BBB00BFED010020E80100209C330108B7
:10258000C4330108F8B5144C05F054FE0546134851
:1025900001F02AFB2378D3B140F6AB56104F0AE086
:1025A0003B780BB9FEF776FC03F0BEFC0A2005F081
:1025B00047FE23785BB105F03DFE401BB042EFD9EA
:1025C000237823B1074801F00FFB0020F8BD06482F
:1025D00001F00AFB0120F8BDEC010020EC330108FA
:1025E000EF0100203834010810340108024B0122A9
:1025F00002481A7001F0F8BAEF01002064340108B3
:10260000FEF750B9024B1B7803B17047FEF742BC8E
:10261000EF010020002303480349044A03600B60D4
:1026200013607047240200200402002018020020DA
:10263000014B1878704700BFF001002070B505F01D
:10264000F9FD1D4D04460AE02B780BB9FEF722FC7C
:1026500002F0A0FA034614204BBB05F0F1FD05F093
:10266000E9FD001B3128EFD905F0E4FD41F2873484
:102670000546114E14E033780BB9FEF70BFC02F05F
:1026800089FAA0B901F052FB02F08CF80346C82188
:10269000082013B101F084FB40B9322005F0D0FDD1
:1026A00005F0C8FD401BA042E5D9002070BD034BDA
:1026B000092200201A6070BDEF01002034020020C2
:1026C00070B5DFED3B7A002378243A4D3A4E2DED7C
:1026D000088B88B0F0EE678AB0EE679AF0EE679AE2
:1026E0000293B0EE67AA0593CDED017ACDE90333ED
:1026F000CDE906330BE005F0A3FD013CE8EE089AB6
:102700003AEE48AA39EE4B9A78EEEA8A1ED001AA30
:1027100005A902A805F008FB019A33789DED048A0B
:102720009DED05BADDED06AA2A600BB9FEF7B2FBF6
:1027300002F030FA03460220002BDCD01F4B0922A6
:1027400000201A6008B0BDEC088B70BDDFED1C7A6C
:1027500000201C4B89EEA77A1B4A1C490860486080
:10276000CAEE276A89EE275AC8EEA75AF0EE477AD2
:10277000C3ED006A93ED006AD3ED006AE6EE667A77
:1027800082ED005AF5EEC07AC2ED015AF1EE10FA70
:102790000BD49FED0F7AF4EEC77AF1EE10FACCBFAE
:1027A0000120002080F00100CCE70120CAE700BF33
:1027B0000000000014020020EF010020340200207D
:1027C0000000F0422C020020FC010020F401002057
:1027D0000BD7233B08B505F02DFD01F03DFF01F0BF
:1027E000EDFF08B9002008BDC821082001F0D8FA83
:1027F0000028F7D005F01EFD01F02EFF01F0E4FFE8
:102800000028EFD0C821082001F0CAFA0028E9D03A
:1028100005F010FD01F020FF01F0C4FF0028E1D019
:10282000C8210820BDE8084001F0BABAF8B507464B
:1028300005F000FD0646A0F10A050BE005F0FAFCE4
:10284000431B092B03D90546FEF796FB40B1012037
:1028500005F0F6FC05F0EEFC801B8742EED8F8BDD3
:10286000044B1A68092A01D005221A60024B07227C
:102870001A70F8BD34020020380200202DE9F04320
:102880000723454D454C83B0DFF850814FF00009D8
:1028900020602B7005F0CEFC01F0DEFE01F082FF1F
:1028A00001F098FF05F0C6FC3D4B2978226893EDB6
:1028B000000A3C4BD3ED000A3B4B93ED001A3B4B17
:1028C000D3ED001A3A4B93ED002A3A4BD3ED002A90
:1028D000394B93ED003A394BD3ED003A384B93ED39
:1028E000004A14230093374B02F016FF2878216822
:1028F00002F05AFF344D03F06BF8FDF7D3FF334875
:1029000003F020FC324801F06FF900F0B5FC00F054
:10291000B9FCB0FA80F605F08DFC0746760905F0A3
:1029200089FCC31BF92B19D898F800300BB9FEF7B6
:10293000B1FA03F0F9FA02F02DF9C8B900F0A2FCDF
:1029400000B11EB100F0BEFCC8B90126142005F08C
:1029500077FC05F06FFCC31BF92BE5D9074605F0A2
:1029600069FC01F079FE01F01DFF01F033FFDBE7A8
:102970001648002685F8009003F0E4FBCFE701231A
:1029800014482B7003F0DEFB03F0FEFB124803B08B
:10299000BDE8F04301F028B93802002034020020DD
:1029A0002802002024020020200200201C02002017
:1029B0001802002014020020100200200C02002047
:1029C00008020020283B0108EE010020883401089D
:1029D00090340108B0320108B8340108EF0100203A
:1029E000FEF704B82DE9F0432DED0A8BB0EE408AD6
:1029F0008FB000239FED739A734A0746069392EDBA
:102A000000AA0A938DED039A8DED049A8DED059A37
:102A100009930D93CDE90733CDE90B3305F00AFC9B
:102A2000B4EEC98AF1EE10FA40F2AD80002F00F04A
:102A3000AA80664B0646A0F10A09DFED658A83EDA0
:102A4000008AA0F1FA08634B0446DFED63BA83ED18
:102A5000009A624B9FED62BA83ED009ADFED619AB6
:102A6000614BDFED62AA83ED009A05F0E3FB801B6A
:102A700087427CD905F0DEFBA0EB09030546092B54
:102A800040F29380031B07EE903AF8EE677A67EE08
:102A9000A87AF4EEE87AF1EE10FA7DD49FED54CAEC
:102AA000F4EECC7AF1EE10FA3CFE27CAB0EE4C0AF6
:102AB000FDF738FF06A9284601F092FE002878D0DD
:102AC00005AC04AB03AA06A94A48009401F024FD12
:102AD000002858D068EE2B7ADDED036A464BBAEE3B
:102AE000026AF0EEE66A454987EE8B7AD3ED007A0A
:102AF000434AECEE267AC3ED007AD1ED006AD2EDBE
:102B0000007A76EECA6A6AEEE77AB4EEE97AE6EE21
:102B1000867AF1EE10FA39FE877AB1EE471AF4EEB2
:102B2000C17AF1EE10FA05D4F4EEC77AF1EE10FA9C
:102B300037FE271A334BB1EE480AF0EE490A0AA9CC
:102B40002C4883ED001A01F06FFCE0B10AA8FEF7F3
:102B500037FA90B3A5EB0803F92B20D803F0E4F97A
:102B6000A94605F067FB801B2C46874282D80023CC
:102B7000244A16490B601360FEF7FEF90FB0BDEC56
:102B80000A8BBDE8F083204B06221A6000200FB0AC
:102B9000BDEC0A8BBDE8F083B0EE68CA86E706A9F3
:102BA0002846A846FDF768FFD8E7012005F048FB56
:102BB0005BE7154B05221A60E8E7134B1A68092AF0
:102BC000F8D1E3E70000000004020020200200200A
:102BD0006F12833A100200206666263F0C02002026
:102BE0007B14AE3E3333333F080200209A99993E5E
:102BF000CDCC4C3D383B01081802002024020020B7
:102C0000280200201C02002034020020FEF7FAB93E
:102C1000FEF702BFFFF7E8B82DE9F047A8B000259E
:102C200005F008FB8046374800F0DEFFA8F1C80732
:102C300005F000FB40F6C313A0EB0800DFF8E890B6
:102C4000314E98423DD805F0F5FA044640216846D9
:102C500004F052FDE31B8246C72B07D999F80030D8
:102C6000002B4DD02948274600F08AFFBAF1000F0B
:102C70001CD06C46EA4407E05F2A154627D8013489
:102C800001F8603CA24511D0237805F1A0016A1C2F
:102C90004FF0000C0D2B694401D00A2BECD101F848
:102CA00060CCC5B901340025A245EDD1142005F052
:102CB000C7FA05F0BFFA40F6C313A0EB080098422C
:102CC000C1D9134800F090FF28B0BDE8F087114843
:102CD00000F08AFFE6E7104800F03AFF10A800F085
:102CE00037FF0E4800F034FF10A8FEF713F83378D2
:102CF000002BD7D00A4800F077FF28B0BDE8F08756
:102D00000848B0E7D4340108F2010020CC2D0108B6
:102D10002435010804350108FC2D0108082E01089E
:102D2000EC340108E42D0108ED01002072B6FEE745
:102D30002DE9F04FA64CDFF8E882DFF8E892A54FC6
:102D4000A54EA64D2DED028B87B0FFF719FBFFF7BF
:102D500021FB00F08BFA58B9A14800F045FF06208E
:102D6000FFF78CFDFFF716FB00F080FA0028F3D088
:102D7000012825D00020B7EE008AFFF7A1FBFFF75E
:102D8000A7FB984800F030FF974800F0F9FE01E0FB
:102D9000FFF742FFFFF74CFA0028F9D0FFF7D6FB08
:102DA000FFF7F0FBC8B100232370FFF747FCC0B961
:102DB000D8F80030092B41D00320FFF75FFDC6E7AC
:102DC000FFF77EFBBFEE008AFFF782FB874800F02B
:102DD0000BFF874800F0D4FEDCE70820FFF74EFD2C
:102DE000B5E74FF0010B84F800B004F08FFF89F8CD
:102DF000000099F8003003F0FF0A1BBB0223237088
:102E0000FFF75EFC58B9D8F80030092B16D0D8F877
:102E10000000092818BF0220FFF730FD97E70323C1
:102E20002370FFF7D7FCB0B1C820FFF7FFFC237871
:102E3000072B14D1D8F80030092B07D16D4800F0CA
:102E4000D3FE84E75846FFF719FD80E7D8F8000065
:102E5000FFF714FD7BE70420FFF710FD77E705F08F
:102E6000E9F98346CDE902AACDE904AA0CE005F010
:102E7000E1F9A0EB0B030A20B3F57A7F32D8FFF714
:102E8000D5FC2378072BD5D005F0D4F902A901F0A1
:102E9000A7FC0028EBD0FFF7BDFBFFF7CFF968B91F
:102EA000D8F800301BB1D8F80030092BC6D0D8F8BC
:102EB0000030002B91D0D8F800008FE72023F0EEEF
:102EC000480AB0EE480A2370FFF7A0FE60B9D8F8B0
:102ED00000301BB1D8F80030092BAFD0D8F8003043
:102EE000002BE8D1052079E75020FFF79FFC2378DD
:102EF000072B9FD0FFF77AFB21232370FFF788FE73
:102F00000028E4D022239FED3C0A4FF47A7023700E
:102F1000FFF768FD0028DAD05020FFF787FC237800
:102F2000072B87D016230A202370FFF759FD33485B
:102F3000FFF770FE0028B3D0FFF77AFB00280CBF24
:102F40000B200C20FFF74CFD2D4800F04DFE052313
:102F50004FF47A702370FFF769FC2378072B3FF456
:102F600069AF01F037FC0028BCD0C821082000F070
:102F700017FF0028B6D00623237005F05BF9214B1C
:102F80002178D8F8002097ED000AD6ED000A95EDDB
:102F9000002AD3ED002A1C4BDFED1C1A93ED003AFA
:102FA0001B4BB0EE611AD3ED003A1A4B93ED004A79
:102FB00015230093184B02F0AFFB2078D8F80010CF
:102FC00002F0F2FB02F004FD144800F00DFEBEE634
:102FD00038020020280200202402002018020020CD
:102FE0004435010888350108A03501086435010819
:102FF0007C350108B03501080AD7A33DCC3501085E
:10300000D835010814020020100200200000000042
:103010000C02002008020020583B0108F835010886
:10302000340200203002002070B58EB0242200212E
:10303000044604AE30460EF066FB2E4805F0A2FEB4
:103040000623042140F2FF700422069131460790C6
:103050002848CDE904430023CDE9082305F08AF987
:10306000002835D1234805F0BDFD002837D10221C5
:10307000204805F0F7F838BB01AD1E4805F076F999
:1030800002211C4805F0EEF804461A48E4B905F0A0
:103090006DF945F8040BB542F2D1DDE90123934205
:1030A00024D20DEB84040292039A6360029B9A423D
:1030B0001AD201998A4215D2002302910DEB8303A3
:1030C0005A6002980EB070BD4FF0FF300EB070BD68
:1030D000FFF72CFE074805F085FD0028C7D0FFF755
:1030E00025FEC4E70123E9E70223E7E71A460124A6
:1030F000D7E700BFDC06002010B58CB000212C22E1
:1031000001A80EF000FB05F095F801A9044614484B
:1031100006F0EAFF90B9069A12B901200CB010BD72
:103120001049DFF84CC00A6801320A60DCF8002060
:10313000A21A132A08D800200CB010BD0A4A002099
:10314000136801331360F7E70346084A0448CCF8D4
:103150000040137006F074FE014806F053FEEAE7E3
:103160003C06002064030020680300205503002073
:103170005003002008B501220C490D480CF010FA4C
:1031800000B908BD0B4B0A481A6801321A600BF0EF
:10319000FBF80122054906480CF002FA0028F0D09D
:1031A000044B1A6801321A6008BD00BF4C030020AE
:1031B0006C0300205C0300200D4808B5FFF734FFC6
:1031C000B0F5805F10D207EE900A9FED0A6ADFED3E
:1031D0000A6AB2EE067AF8EEE77A67EE867A87EE4A
:1031E000A60A20EE070A08BD9FED040A08BD00BF2D
:1031F0001000C0103333534000F07F450000000042
:103200000148FFF711BF00BF0000B84F164808B5CE
:10321000FFF70AFFB0F5805F1DD2C72819D96FF4F8
:103220002F728318B3F5957F17D9A0F2DD53B3F54C
:10323000957F14D9A0F69903B3F5957F11D96FF452
:103240002F63184440F2BA23984294BF052000200F
:1032500008BD012008BD002008BD022008BD0320D4
:1032600008BD042008BD00BF0000B84F014B18780E
:10327000704700BFC5020020014B00221A70704742
:10328000C502002008B50E48FFF7CEFE40F63773A2
:10329000A0F1C8029A4201D9002008BD6FF42F7234
:1032A0008318B3F5957F09D96FF42F63184440F262
:1032B000BA2398428CBF0020012008BD012008BD20
:1032C0000000B84F10B582B004F0B4FF0446FFF719
:1032D0009DFF24231B49C3400A7803F001035AB120
:1032E000012A06D1A3B900230B700022104602B0B8
:1032F00010BD002BF7D0F8E7002BF6D0124B1C6066
:10330000FFF784FF114A01230E4910700B70ECE7A0
:103310000192FFF77BFF0D4B019A1B7809499842F8
:10332000E1D1094B1B68E31A312BDED90223984205
:103330000B7004D00528D9D105490B70D6E7044B92
:103340001A70D3E7C4020020C0020020BC02002093
:10335000C5020020C14A536913F4003370B5AAB006
:1033600011D1BFF34F8FBFF36F8FC2F85032BFF34D
:103370004F8FBFF36F8F536943F400335361BFF333
:103380004F8FBFF36F8FB548436913F4803326D155
:10339000C0F88430BFF34F8FD0F8804043F6E0751B
:1033A000C4F34E3CC4F3C9044FEA4C1C0CEA0501BB
:1033B000234641EA8372013BC0F860225A1CF8D1CF
:1033C000ACF1200C1CF1200FF0D1BFF34F8F4369FB
:1033D00043F480334361BFF34F8FBFF36F8F04F02B
:1033E000EDFE4C22002117A80EF08DF920220021BD
:1033F0000FA80EF088F9022007F006F9984A00237A
:103400000B93936923F440439361936903F440431E
:103410000B930B9B93699E04FCD52121022301226F
:10342000282017914FF480311D9220931891062186
:1034300024920C222693239017A82591CDE92133BD
:103440000023CDE92723299308F000F8002840F055
:1034500030834023002503213F2216930FA8CDE996
:1034600013330823CDE911534FF48063CDE90F21C5
:10347000159308F0B7FA002840F018830024794B20
:10348000092179481B9401254FF40046CDE91744E2
:10349000CDE91944D3F8E02042F00102C3F8E0205E
:1034A000D3F8E02002F001020992099AD3F8E02053
:1034B00042F00402C3F8E0200122D3F8E03003F028
:1034C00004030A930A9B07F09BF8092317A966488F
:1034D0001994CDE9173503231A9306F05BFF2A46AA
:1034E0004FF40041604807F08BF817A95E48179623
:1034F0001A94CDE9185406F04DFF5C4817A91796A9
:103500001A94CDE9184506F045FF594A594B104623
:10351000946013604FF48003146253600723D462F5
:10352000D3604FF00073946313614FF08073536165
:103530004FF0806393614FF08043C2E90944C2E9D0
:103540000F44C2E91144C2E91344C2E91544D361EE
:10355000536309F087FF002840F0A5820024414B07
:103560004FF4004144481B94CDE91744CDE9194478
:10357000D3F8E02042F00202C3F8E020D3F8E020C4
:1035800002F002020692069AD3F8E02042F0080206
:10359000C3F8E020D3F8E02002F008020792079A6F
:1035A000D3F8E02042F01002C3F8E0202246D3F81E
:1035B000E03003F010030893089B07F021F822463F
:1035C0004FF440612D4807F01BF822464FF480610C
:1035D0002B4807F015F801224FF4004317A926489D
:1035E00017931A94CDE9182406F0D4FE4FF44063E3
:1035F00017A92248179306F0CDFE4FF480632048A8
:1036000017A9179306F0C6FE1E4A1F4B10465461B9
:1036100013604FF48003146253604FF40033D4629C
:10362000936007239463D3604FF0007313614FF0EE
:10363000806393614FF00053D3614FF08043C2E940
:103640000944C2E90F44C2E91144C2E91344C2E982
:103650001544536309F006FF18E000BF00ED00E0D9
:10366000004802580044025800080258000002585E
:103670002C050020003800400010025800040258B9
:10368000000C0258B405002000300140002840F032
:1036900007820024242217A821461194CDE90F4463
:1036A0000EF031F8B74AB84B1046146113604FF46E
:1036B000101382F82040536008231463936004239E
:1036C000D46353614FF4807314641383012382F82D
:1036D0004440D361C2E90A4405F014FC002840F0DC
:1036E000DC8100230FA9A7480F9305F0FBFD0028FC
:1036F00040F0D081A54904230622A248179140F248
:10370000FF71CDE918230022CDE91A1317A91C92E5
:1037100004F030FE002840F0BA8140F2FF72002130
:10372000984805F081FD002840F0AE81954805F0ED
:1037300059FA002840F0998195490023954A084696
:103740000B610A604FF4E1328B614A600C22C1E9DF
:103750000233C1E907334A61C1E909330BF056FE70
:1037600030B901468A480BF08DFF002800F0AB818C
:10377000FFF7DCFA40F6CA0340F2EE220221864847
:1037800001F062FD0023854A85491370854A084689
:103790000B631370844A0B621360844A4B6213609C
:1037A000834AC1E90633834BC1E900234FF48052B9
:1037B0004FF40053C1E9022302234FF480628B626D
:1037C00004230A614B610BF021FE30B901467448B5
:1037D0000BF08AFF002800F08481FFF7A7FA01228E
:1037E00075496F480BF0DCFE002840F04A81002349
:1037F000CDE90F33CDE9113313930C931D93CDE92C
:103800001733CDE91933CDE91B33CDE90D3308F07A
:1038100065FA054608F00AFA0446854218BF6C00AE
:1038200008F04AFA064608F001FA644B864205465B
:1038300018BF75009C4240F21E819D4240F21B81E0
:103840005F4B604A6048A2FB0412D3F8F01041F0CD
:103850000101920CC3F8F010013AD3F8F01001F016
:10386000010102910299D3F8E81041F00101C3F877
:10387000E810D3F8E81001F0010103910399D3F89F
:10388000E01041F00101C3F8E010D3F8E01001F0BE
:10389000010104910499D3F8E01041F01001C3F83C
:1038A000E010D3F8E030426003F010030593059B6D
:1038B000002383608361C0E90433444B036044F612
:1038C0001F63C3600AF0A6FB002840F0D1803D4B87
:1038D000A3FB05233E4A9B0C1046013B536000238B
:1038E0009360136193614FF08043136044F61F634C
:1038F000D3600AF08FFB002840F0C08000230CA9A1
:1039000031480C930E930AF09DFC002840F0AA80E9
:103910000CA92F480AF096FC002840F0A380002252
:10392000602317A92A481B92CDE91732CDE9192245
:10393000CDE91C220AF0E6FB38B9082217A9244871
:103940000AF0E0FB002800F0D380FFF7EFF9002435
:103950000522022301250FA91E480F92CDE910343C
:10396000CDE9124506F016FD4FF408530FA91A4889
:1039700013950F9306F00EFD214615480AF0C8FA7C
:103980002CE000BFDC060020002002401000C01028
:103990000004002000100140F8020020CD020020A9
:1039A0006C030020CC020020C80200205803002035
:1039B00000500040A08601004C0300203F420F0051
:1039C0000044025883DE1B43E00400200000014055
:1039D00094040020000002580010025830B9082159
:1039E00053480AF095FA002800F09380FFF79EF9FB
:1039F00003F0E4FD01244F4900224F4814230C70CA
:103A00004E4903620A704E49048201603B21827470
:103A1000C1610821C0E905431023C0E90F23042335
:103A2000C0E90222C0E90944C0E90B44C0E90D2203
:103A3000C0E91132C0E91332C0E91532C0E91721DB
:103A4000C0E9192305F0CEFF38B90146234602220A
:103A50003948009406F0BCF970B32AB0BDE8704054
:103A6000FFF764B9FFF762F959E7FFF75FF963E61B
:103A7000FFF75CF92BE7FFF759F9E1E6FFF756F995
:103A80003CE7FFF753F9B2E6FFF750F94EE6FFF7D0
:103A90004DF942E6FFF74AF92CE6FFF747F920E631
:103AA000FFF744F9F5E5FFF741F957E5FFF73EF970
:103AB000E4E4FFF73BF9CCE41F4806F0A3F9002843
:103AC000CBD12AB070BD01461E480BF00DFE002878
:103AD0007FF44EAE1B480BF0B5FD00287FF448AED6
:103AE00048E619480BF0AEFD00287FF476AE76E686
:103AF000024617A915480AF005FB00287FF425AFF8
:103B0000082217A911480AF0FDFA00287FF41DAF1A
:103B10001DE701460D480AF0FBF900287FF466AF67
:103B200008210A480AF0F4F900287FF45FAF5FE744
:103B300094040020540300203C060020550300207C
:103B400000A00040000400206C030020E0040020DE
:103B500098B100B583B00190FCF7BAFB4FF6FF7245
:103B60004FF47A730199824228BF0246034892B209
:103B700003B05DF804EB0BF07DBB70470004002040
:103B8000174A1278012A2AD148B32DE9F843804612
:103B9000FCF79EFB814600B3B8FA88F77F09A9EBD2
:103BA000070604F047FB08EB07010546802E0D4889
:103BB00028BF80263246B4B20DF0DAFD04E004F0EE
:103BC00039FB401B142808D82146064803F078FD2D
:103BD0000028F4D13744B945E1D8BDE8F8837047EF
:103BE000540300203C02002010B5044668B1FCF7E5
:103BF0006FFB4FF6FF724FF47A732146824228BF63
:103C00000246044892B20BF035FB2046BDE8104056
:103C1000FFF7B6BF0004002010B5B8B0002104467D
:103C2000B8220AA80891CDE90411CDE906110DF0DA
:103C30006AFD34B12368384A93423ED0374A9342F2
:103C400001D038B010BD022200230AA8CDE90A2312
:103C500008F036F9002856D1314B02204FF0040C01
:103C60000024D3F8E82004A942F48012C3F8E82025
:103C7000D3F8E82002F480120292029AD3F8E020EE
:103C800042F00802C3F8E0200822D3F8E0300590A3
:103C900013402448CDF810C00393039B0892CDE94C
:103CA000064406F077FB22460521352005F098FBF7
:103CB000352005F0C5FB38B010BD194B022004A912
:103CC000D3F8F02042F01002C3F8F020D3F8F0202F
:103CD00002F010020092009AD3F8E02042F00102B4
:103CE000C3F8E0200722D3F8E030079003F0010387
:103CF0000D4808920193019B9FED057B8DED047BA0
:103D000006F048FB9DE7FFF711F8A5E7AFF3008049
:103D100000060000020000000010014000500040BA
:103D200000440258000C0258000002582DE9F041EE
:103D3000DFF86880D8F80030D3F8CC502DB90022D5
:103D4000134B01201A70BDE8F0812946404606F069
:103D5000F9F8044688B904F06DFA0E4F0646D8F813
:103D600000300134D3F8CC302B42E8D004F062FAB2
:103D7000801B012801D8BC42F1D1074A00201368FA
:103D8000013313600122024B1A70BDE8F08100BFBD
:103D900055030020400D0300600300203C06002076
:103DA000F0B5064683B007460C4604F043FA731E8E
:103DB000072B0DD805460E4E01E0337863B104F0B1
:103DC00039FA401BA042F8D30A4A13680133136042
:103DD0000023184603B0F0BDFFF78EF90028EED09F
:103DE0000190054806F0B4F9B842019BE7D3F0E72B
:103DF00055030020680300203C0600202DE9F04117
:103E00008CB010B1284B1B7843B1284A136801339A
:103E10001360002420460CB0BDE8F08105460193F4
:103E2000FFF76AF90028F0D032210420FFF7B8FF2D
:103E300004460028E9D0019B2F1D57F83320002AA3
:103E4000E3D035F833200133B2F5006FDDD2042B17
:103E5000F3D100264FF000082022002104A80DF025
:103E600052FC4FF4002235F8363003A90692104870
:103E700057F83620039306F023F848B90C4806F0AB
:103E80005DF8731C48EA0008042B1E46E4D1C1E724
:103E9000064A136801331360B8F1000FB9D04146E8
:103EA000034806F04FF8B4E75503002068030020EC
:103EB0003C06002010B58AB004462822002168463E
:103EC0000DF021FC24B140210F4806F033F910B960
:103ED00000200AB010BDA31C6A4640210A4806F023
:103EE00043F858B9019B069A1343F1D1039BB3F5EC
:103EF000002FEDD1009B01202380EAE7034A1368DD
:103F000001331360E4E700BF3C0600206803002093
:103F1000F0B508B301B3EFF3108672B6104B8446C8
:103F2000104C8E461B78104DDFB20FCCACE80F0062
:103F30000FCCACE80F0094E803008CE803000FCD31
:103F4000AEE80F000FCDAEE80F002B68CEF80030C2
:103F500006B962B63846F0BD00273846F0BD00BF4E
:103F6000CD020020D00200202803002038B5EFF356
:103F7000108472B60D4A00211378117003F0FF050A
:103F800043B10B4B1A784AB900212822094819700D
:103F90000DF0B9FB04B962B6284638BD0649074A98
:103FA000096812689142EFD1F4E700BFCC0200200B
:103FB000CD020020D0020020C802002058030020BB
:103FC00001480AF053BA00BF6C03002018B11C4B23
:103FD00002689A4200D070471A4B00B58DB019782C
:103FE000019104F027F90199024602AB164801F04D
:103FF0004DF901280CD0013006D1144A0120144992
:104000001368034413600870FFF7B4F80DB000BDE7
:10401000104B0DF1080C0D4A18700F4B1268DFF8A9
:104020003CE01A60BCE80F00AEE80F00BCE80F00EF
:10403000AEE80F009CE803008EE80300E4E700BF51
:10404000005000404C030020F802002058030020DC
:10405000CC020020CD020020C8020020D0020020A7
:1040600018B10F4B02689A4200D070470D4A13688E
:10407000013310B504460C48136001F0F9F80B4AFF
:104080004FF0010C0A49204613686344136081F81D
:1040900000C00AF079F9BDE81040FFF76BB800BF27
:1040A000005000405C030020F8020020580300206C
:1040B000CC0200200000000010B5BAB00021044678
:1040C000B8220CA80B91CDE90711CDE909110DF02B
:1040D0001AFB34B12368584A934257D0574A934247
:1040E00001D03AB010BD9FED507B022310220CA8E6
:1040F0000E9311938DED0C7B9FED4D7BCDE90F233E
:104100004FF480538DED127B239307F0D9FE0028E6
:1041100039D14B4B022100200624D3F8E82042F489
:104120008042C3F8E820D3F8E82002F480420492E9
:10413000049AD3F8E0200A43C3F8E020D3F8E02043
:104140000A400592059AD3F8E02042F00402C3F831
:10415000E0200322D3F8E030089107A903F004031C
:10416000079406930523069C0B93CDE90902354875
:1041700006F010F94FF4005307A93348079306F0EF
:1041800009F93AB010BDFEF7D1FDC2E79FED267BDD
:10419000022310220CA80E9311938DED0C7B9FED42
:1041A000247BCDE90F234FF480538DED127B2393B5
:1041B00007F086FE002834D1214B0221082000247C
:1041C000D3F8F02042F48052C3F8F020D3F8F02066
:1041D00002F480520192019AD3F8E0200A43C3F816
:1041E000E020D3F8E0200A400292029AD3F8E020BF
:1041F0000243C3F8E0200522D3F8E03007900340E3
:104200000891114807A90393039B0B92CDE9094438
:1042100006F0C0F8802307A90C48079306F0BAF807
:104220005FE7FEF783FDC7E7001000000000000015
:1042300002000000C00000000030014000380040D3
:10424000004402580008025800040258000C0258AA
:1042500010B5B8B000210446B8220AA80891CDE9EB
:104260000411CDE906110DF04EFA1CB12E4B226857
:104270009A4201D038B010BD9FED277B0223102257
:104280000AA80C930F938DED0A7B9FED257BCDE95A
:104290000D238DED107B07F013FE002839D1234B41
:1042A000202003210024D3F8D82042F02002C3F8B4
:1042B000D820D3F8D82002F020020192019AD3F836
:1042C000E02042F00102C3F8E020D3F8E02002F041
:1042D00001020292029AD3F8E02042F00402C3F8ED
:1042E000E020D3F8E030069403F00403CDE90401A4
:1042F000039304A90E48039B06F04CF810220323F5
:1043000004A90C480694CDE9042306F043F838B01C
:1043100010BDFEF70BFDC2E7000008000000000022
:1043200002000000C00000000020024000440258CB
:10433000000002580008025810B5B6B0002104462B
:10434000B82208A80691CDE90211CDE904110DF0BB
:10435000DAF91CB1244B22689A4201D036B010BD64
:104360009FED1B7B4FF0805308A88DED087B2393B6
:1043700007F0A6FD40BB1D4B092402A91C48D3F839
:10438000EC2042F48072C3F8EC20D3F8EC2002F465
:1043900080720092009AD3F8E02042F00802C3F83D
:1043A000E020D3F8E030069403F008039FED0A7B89
:1043B0000193019B8DED027B9FED097B8DED047BCD
:1043C00005F0E8FF36B010BDFEF7B0FCD3E700BF44
:1043D0000080000000000000030000000200000058
:1043E000000000000000000000A00040004402584F
:1043F000000C0258074B82B0D3F8F42042F00202BE
:10440000C3F8F420D3F8F43003F002030193019BC6
:1044100002B070470044025803F000BF014806F0A4
:10442000D9B900BF40C00020002918BF00280346AA
:104430000CBF0120002068D093ED006AB5EEC06A81
:10444000F1EE10FA62D9D3ED037AF5EEC07AF1EE0F
:1044500010FA5BD970EE606A93ED027AD3ED017ABF
:1044600030EE200A0A4601F1100C77EE877A0846F2
:10447000B0EE665A9FED277AF0EE405AE7EE816A79
:10448000A7EEC15AE7EE815AA7EEC10AC5EE067A39
:10449000C1ED007A93ED006AC5EE867AC1ED017A2E
:1044A00093ED006AC0EE067AC1ED027A93ED006AE0
:1044B000C6EE867AC1ED037AF0EC017AF5EEC07AA9
:1044C000F1EE10FA01D5F1EE677AF4EEC77AF1EE6B
:1044D00010FA37FE877A6045EED1D3ED037AF4EE19
:1044E000C77AF1EE10FA12D4F7EE006A1033F3EC4B
:1044F000017A92ED007A67EEA67A67EE877AE2ECAF
:10450000017A6245F3D10120704700207047C7EE61
:10451000876AEBE700000000002918BF002810B5EB
:104520000CBF4FF0010E4FF0000E66D0002B18BFED
:10453000002A029C0CBF4FF0010C4FF0000C002C25
:1045400008BF4CF0010CBCF1000F54D1D0ED006A53
:10455000F5EEC06AF1EE10FA4DD991ED017AB5EEA3
:10456000006AD1ED007AF1EE005A91ED024A4FF067
:10457000010E77EE877A91ED035AD0ED024A90ED65
:10458000017A77EE847A37EE247A77EE857A27EE11
:10459000257A67EEA67A67EE867AC2ED007AD1EDCB
:1045A000017AD1ED004A91ED025A77EEE47AD1ED2D
:1045B000035AD0ED006A77EE857A77EEE57A67EEFA
:1045C000A67A67EE867AC3ED007AD1ED017A91ED95
:1045D000005AD1ED025A77EEC57A91ED036AD0ED1B
:1045E000006A77EEE57A77EE867A67EEA67AC7EE0E
:1045F000876AC4ED006A704610BD4FF0000E704629
:1046000010BD00BF2DE9F04190B02022114E804630
:1046100008AC6D460F460DEB020000210DF073F85B
:1046200033882846656002363B440834083524F850
:10463000083CC047082808D110AB9C42F0D108A81C
:10464000FFF7DCFB10B0BDE8F081002010B0BDE842
:10465000F08100BF883B010870B5002305461F4C60
:104660002DED028B9FED1E8A88B0CDE90033ADF8A9
:1046700008306846FFF71EFC064600230DF10201D4
:10468000184803AA36B30793174ECDE90333CDE993
:10469000053303F095FC154A15494FF0010C00282D
:1046A000E7D19DF80C30013BD8B202EB830203281E
:1046B00004EB830EDDD8DDED057A92ED007A67EE2E
:1046C000887A46F8235001F803C067EE877ACEED6A
:1046D000007ACEE708B0BDEC028B70BD70070020F9
:1046E00033336340903B010860070020783B0108AA
:1046F0004C07002070B506460A2403F09BFDFFF727
:10470000ABFF00213046FFF77DFF05460220B5B123
:1047100003F096FD013CF0D1032403F08BFDFFF77D
:104720009BFF4FF400713046FFF76CFF022003F04F
:1047300087FD013CF1D103F07DFDFFF78DFF284699
:1047400070BD00BF2DE9F041202290B00546002148
:104750000DEB02000CF0D7FFEDB1114C08AF6E4627
:1047600004F10808238830467E60023403F50073A4
:1047700095ED000A0837043527F8083C083603F0A1
:104780008FFC082807D14445ECD108A8FFF736FB79
:1047900010B0BDE8F081002010B0BDE8F08100BF8E
:1047A000883B010808B5FFF7C1FA00B908BD024807
:1047B000BDE80840FFF7C6BF683B01080148FFF7A6
:1047C00099BF00BF6D7F00080148FFF793BF00BF8E
:1047D000897F00080148FFF78DBF00BFA57F000853
:1047E00038B50C460546FFF737FF3CB1DFF834C05B
:1047F000BCE80F0020606160A260E360074B084ADC
:104800001C1D187838B1116801330432691A642903
:1048100002D8A342F5D138BD002038BD4C07002096
:104820006007002070070020F0B593B028220546ED
:104830000F4608AC002120460CF065FF1F492046BA
:10484000FFF766FB1E4BA6460646DFF88CC01870C5
:10485000BEE80F00ACE80F00BEE80F00ACE80F00A8
:104860009EE803008CE80300FFF780FBC8B9134AF9
:10487000002E029704AE116814BF23460023304671
:10488000019152680F4900920F4A00F02DFC0F4C25
:1048900096E80F0084E80F0085E80F00284613B063
:1048A000F0BD03F0C7FC0A4A1368C31AB3F57A7F58
:1048B000DDD310600748FFF74BF9D8E7E007002089
:1048C0009507002004080020D83B0108D0070020ED
:1048D00080070020183601089807002002460023B0
:1048E0000B4892ED021AD2ED010A92ED000A00B5D2
:1048F00085B06946CDE90033CDE90233FFF794FD79
:1049000008B905B000BD6846FFF71CFF05B000BD43
:10491000B83B010808B503F08DFCFFF79DFEFFF7DB
:1049200041FF28B1C8210820FFF73AFA00B108BDBD
:10493000054800F0D3FB0023044A1846C2E90033BF
:10494000C2E9023308BD00BF04080020D0070020E0
:1049500070B51B4B00241B4A82B0C3E900441060B1
:10496000C3E90244FFF7D6FF0646FFF733FF80B9DD
:10497000019003F05FFCFFF76FFE134A019B137079
:10498000124B012212481A7000F0A8FB002002B05E
:1049900070BDC8210820FFF703FA054603F04AFC62
:1049A000FFF75AFE06EA0500074B10F0FF001C70E7
:1049B000E6D0084A054B14701C7002B070BD00BFF1
:1049C000D00700208C0700209107002090070020CE
:1049D000040800209207002019490B7810B5DBB1BC
:1049E000184B04461B787BB1174800F077FB174B38
:1049F00000222046C3E90022C3E90222FFF7A8FFF4
:104A0000114B01221A7010BD114B1B78002BEBD1FA
:104A1000104B1B78002BE7D10B4800F05FFB0849D7
:104A20000A4B00220978C3E90022C3E902220029C7
:104A3000E6D0FFF76FFF044B01221A7010BD00BFD4
:104A4000930700209207002004080020D0070020D0
:104A5000910700209007002070B51A4B01241A4DD1
:104A600000262C701E7003F0E5FBFFF7F5FDFFF745
:104A7000A5FE08B9002070BDC8210820FFF790F9F5
:104A80000028F7D003F0D6FBFFF7E6FDFFF79CFE0A
:104A90000028EFD0C8210820FFF782F90028E9D0CC
:104AA00003F0C8FBFFF7D8FDFFF77CFE0028E1D03C
:104AB000C8210820FFF774F90028DBD0034B2E70C3
:104AC0001C7070BD90070020910700209207002005
:104AD00010B51E4800F0FCFA1C4C012324220021D2
:104AE0001B4823700CF00FFE00211A481A4B282295
:104AF0001A4CC0E90011C0E902111948C3E90011BC
:104B0000C3E902110CF0FFFD0021164A164B11708B
:104B10001970164A164B17481970217001701170E0
:104B200003F088FB144B186003F084FB134BFA3836
:104B3000186003F07FFB124BA0F57A70186003F049
:104B400079FB104BA0F57A70186010BD04080020A6
:104B5000E0070020D0070020C007002093070020B6
:104B60009807002095070020940700209107002057
:104B700090070020920700208C0700208407002067
:104B80008807002080070020014B1878704700BF7D
:104B9000940700202DE9F04FADF5017D0023AC4DC9
:104BA0000DF16009CDE91C33CDE91E3303F042FB62
:104BB00001464846FFF738FE99E80F0085E80F00E8
:104BC0002B7B13936BB903F035FBA24A1368C31A0E
:104BD000B3F57A7F66D2002420460DF5017DBDE84D
:104BE000F08F01239C4A13709C4A1370FDF708FD57
:104BF0009B4801F0A7FA9B48FEF7F6FF9A4B1B78FB
:104C0000002B00F0C081994B149303F013FB4FF07D
:104C1000000BA0F57A7A00F10A06DFF85C82CDF885
:104C200048B0119003F006FB0446FDF7EBFC01F0E1
:104C30007BF9A4EB0A03B3F57A7F80F0AC80119B7B
:104C4000E31A092B40F2DB80A31B1CA92046092B89
:104C500088BF26461196FFF7C3FD21464846FFF759
:104C6000E3FD99E80F0085E80F002E7B002E32D17E
:104C70007F4B1B78002B46D0D8F80430002B42D055
:104C8000D8F80030E31AB3F5967F3CD2794B93F80D
:104C90002020042A40F28C811B89B346B3F5E16FD2
:104CA0003CD306E17249744B10600A785B682AB104
:104CB000704A92F82010052900F28C816F4920ACCF
:104CC0006F4A08689021009020460CF0A3FC204613
:104CD000FEF78AFF7FE7644B6A4F1E7895E80F0066
:104CE00087E80F00002E40F09D80674A1368E31AA2
:104CF000F92B00F23A814FF0000B119BCDF848B030
:104D000003F10A068EE7BBF1000F00F0D180A4EB9F
:104D10000B03B3F5966FC0F0CC80139E129B002B53
:104D200071D0129BE31AB3F5167F72D3574B1B78E1
:104D30002BB1574B1B68E31AB3F57A7F69D3204632
:104D4000FFF706FE0446002800F03D81514800F0C0
:104D5000C5F90023404A1370404A1370424A137049
:104D6000149A1370494A1370464AC5E90033C2E9E0
:104D70000033C2E90233C5E90233464A0123137006
:104D8000002E00F0FE804448FEF72EFF20460DF571
:104D9000017DBDE8F08F2B7B002B3ED1394B1B7B77
:104DA000002B3AD0DFF800A1DFF8D8C0304BD8F89C
:104DB00004101A78D8F810E0D8E905032AB12D4A72
:104DC00092F82070052F00F28B802C4ACDE9023E2C
:104DD000CDE90010126853464FF4C07120A8049228
:104DE000A2462E4A126805922D4A0CF013FC20A808
:104DF000FEF7FAFE119BE31A092B3FF625AF0120BF
:104E000003F01EFA0EE7184B1B78002B40F0D280FF
:104E10001294119B03F10A0604E7DFF890A0DFF873
:104E200030C0C3E70A48FFF759FD00287FF463AF9D
:104E300083461C48FEF7D8FE2046FFF7CDFDFA3C1E
:104E4000114BCDF848B01C60119B03F10A06E9E64E
:104E5000D007002088070020940700209307002037
:104E6000183701081C37010892070020910700201D
:104E70009507002098070020E00700205C03002031
:104E8000E8360108C00700208407002090070020B2
:104E90008C07002004080020543601086803002015
:104EA000F43701088C3801084C36010844360108F3
:104EB000A346514B1B78002BABD0504B1B7B002BD8
:104EC000A7D04E48FFF70AFD0028A2D14C48FEF7B4
:104ED0008BFE2046FFF780FDFA3C4A4B1C6098E7AA
:104EE000CDE9091048499FED497ACDE90B3E0968A3
:104EF00053460D91464909680E91DCED027A1189FD
:104F000067EE877AD08857891591FDEEE77A918808
:104F1000169020A817914FF4C071CDED087ADCED02
:104F2000017AB2F802E067EE877AB2F800A0394A57
:104F3000FDEEE77ACDED077ADCED007A059767EEB6
:104F4000877A159FCDF800A0A2460497169FFDEE24
:104F5000E77A0397179FCDED067ACDE901E70CF0CC
:104F600059FB20A8FEF740FE44E71460FFF774FDEC
:104F700000287FF4C0AE149B18702748FEF734FE5B
:104F8000B9E6264800E703F055F91E4B1860FFF715
:104F900063FD044600287FF436AE2148FEF724FE68
:104FA00003F048F9FFF718FD1E4B14931C702CE614
:104FB000B3467EE7FFF7AEFC00287FF429AF1A481E
:104FC000FEF712FE24E71948FEF70EFE119B03F1CF
:104FD0000A0627E6D18820AC0B48039305680291A6
:104FE0005188108813890191902100902046104A21
:104FF00004950CF00FFB6AE692070020C007002022
:105000008C380108840700205C03002000007A44EB
:10501000680300204C370108A838010880360108D1
:10502000303701089107002058380108743801080A
:10503000A8360108CA8D801A07EE900AF8EEE77AC2
:10504000F5EEC07AF1EE10FA3DD4B0EE676A4B8E01
:1050500007EE103AB8EE477AB4EEC67AF1EE10FADF
:105060002EDA0B8E9B1A06EE903AF8EEE66AB4EE54
:10507000E67AF1EE10FA23DA36EE476A76EEC76A80
:10508000B7EE007AC6EE265AF4EEC75AF1EE10FAE1
:10509000F5EEC07A37FE257AF1EE10FA01D5B1EEC1
:1050A000477AD1ED076AF7EE007A26EE870A77EEA7
:1050B000E67A20EE070A20EE070AA7EE870A704775
:1050C0009FED020A7047B1EE676AC0E7000000007A
:1050D00010B14FF000030380704700BF10B14FF0D4
:1050E00000030380704700BF2DE9F0410446002013
:1050F00084B0C4E90000C4E90200002900F09580F2
:10510000002A00F08E80002B00F08C800A98002886
:1051100000F08880DDE90B50401B156CA84280F040
:105120008180106807460290107980468DF80C0047
:1051300093F82000064602A890F800C00130B4455C
:1051400070D233F81CC0B2F82CE0E6456AD8B2F849
:1051500030E0E64566D30DF10D058542ECD1380E01
:10516000B2F836C033F81000844562D2B2F838C0C5
:10517000844562D8087818B992F8440000285CD0B9
:1051800091F801C0F8B2BCF1000F03D14FF0010C4F
:1051900081F801C033F81810B2F83AC08C454FD2EC
:1051A000B2F83CC08C4594BF92ED0A4A92ED094A90
:1051B000114633F810000193FFF73CFFC7F30722B5
:1051C000019BD1ED027A33F8120060EE274AFFF717
:1051D00031FF019BC7F30742D1ED037A33F8120088
:1051E00020EE275AFFF726FFD1ED047A0123D1EDF7
:1051F000053A60EE277A91ED067A64EEA34A2373AE
:1052000025EE235A67EE877A64EE844A25EE045A27
:1052100067EE847AC4ED004A84ED015AC4ED027A47
:1052200003E011B14FF000030B80204604B0BDE84D
:10523000F0814FF001030B80F7E700234B70F4E798
:1052400092ED084AB4E700BF88B170B51E4682B03F
:10525000034615460C4653220021013001930CF001
:1052600052FA019B1C705D809E8002B070BD704739
:10527000034648B100212022063083F826109962A7
:1052800083F82C100CF03FBA704700BF002800F0E4
:105290001D812DE9F04F1546164690F826201F4631
:1052A0008DB00B4604463AB190F82C2022B1826AA8
:1052B000AA1A012A00F2FD800121E26C25780A4435
:1052C000A6628D4284F82C10E26405D0022D60D0D5
:1052D00000200DB0BDE8F08F94F82620002A00F0E1
:1052E000E480012A00F0F480511C2244C9B2202934
:1052F00084F826109371EBD102A828220021804661
:105300000CF001FA0021A446621D04F1230E12F8EC
:10531000013F96451944FAD1C943A28C89B28A4209
:1053200040F0F48040460DF106010DF1220E9CF88C
:1053300009200CF1020C9CF8063043EA022321F804
:10534000023F7145F3D10022658808F11C0C84F8F6
:10535000262003880230AB42C0F01C81A2889A420A
:10536000C0F018818445F4D1626B26630132626318
:105370006FB10E2245460B963C468DF828200FCD86
:105380000FC40FCD0FC495E8030084E8030001208B
:105390009FE794F82620002A00F0AC80511C22449C
:1053A000C9B2192984F82610937191D102A8282234
:1053B000002180460CF0A7F9A27F142A00F2D780C2
:1053C000914921FA02F2D30740F1D680627F0DF1B4
:1053D000060E00208D4D02F0040902F0080AC346B3
:1053E000C208013254FA82F2D37992F808C01B0243
:1053F000927943EA0C43134300F007020B30D34089
:105400004FF47A72C3F30A03AC3B02FB03F3002BA5
:10541000A3F23332A8BF03F2333285FB0213D21753
:10542000C2EBE3120DF1260302F57A722EF8022F79
:105430007345D5D10022DC463D4684F82620B7B11D
:105440001023C6460B968DF82830C9F380038DF8DB
:105450002930CAF3C0038DF82A30BEE80F000FC50B
:10546000BEE80F000FC59EE8030085E80300BAF10F
:10547000000F40F0BC80B9F1000F40F0B2806188AD
:1054800008F12000BCF800300CF1020C8B42C0F097
:10549000A280A2889A42C0F09E806045F2D1636BE0
:1054A000012026630344636313E7202B7FF410AFCE
:1054B0001AE0019100212022063080F820100CF023
:1054C00022F9226D019B01322265F5E6002070472A
:1054D000402B16D0E16B0022202B01F1010184F852
:1054E0002620E1637FF4F4AE20220123A27184F828
:1054F0002630EDE60F2B7FF4EBAEA37184F8261077
:10550000E6E60222E37184F82620E1E6A26B21465A
:1055100094F825C0E31D0132A26364460122AC4623
:105520000D461878511C9E461646202803F10103AB
:10553000CAB20DD0202AF4D12B466546A4461C469B
:10554000BCF1200F44D00025002084F82650C0E68E
:10555000202AF1D019784029E3D12C46C6F1200544
:105560007146EDB2A01D2A460CF0B4F8ECE702F04B
:10557000EF02242A3FF42AAFE26BA01D012301466B
:105580001A44E26311F8012F0F2A18D00133192BA6
:10559000F8D1D8E7226C013222646FB10E22454661
:1055A0000B963C468DF828200FCD0FC40FCD0FC4AD
:1055B00095E8030084E803004FF0FF3089E6C3F16B
:1055C00019050633EDB2E1182A460CF083F8BBE763
:1055D00083F806C0B8E7236C4FF0FF300133236433
:1055E00077E6636C6FF001000133636471E6A36CCE
:1055F0000133A364B9F1000F02D0636C013363641B
:105600006FF0020065E600BF110010002D20FE13B0
:105610004AF220011C4B1D4A01FB00F0C15800EB6F
:10562000030C914201D000207047DCF80430022BBB
:10563000F9D1DCF80830B3F5007FF4D803EB83032D
:105640001B0110B51A46C3B1DFF848E04FF0FF3236
:1056500086440F480EEB03049EF8003008215A40A0
:1056600042F30003013903EA000383EA5202F7D14F
:105670000EF1010EA645EFD1D243DCF81800801AD6
:10568000B0FA80F0400910BD00000E084C4F4732C0
:105690002083B8ED20000E082DE9F84F4FF00009E7
:1056A00082468B464AF22007C8464D464C460F4E6E
:1056B0002046FFF7ADFF07FB046330B1DB690DB196
:1056C000434502D3A146984605460134032CEFD149
:1056D00045B14AF22002054BCAF8009002FB09339B
:1056E000CBF800302846BDE8F88F00BF00000E0858
:1056F0004FF420420021054808B50CF004F80023BF
:105700000349044A0B60137008BD00BF2008002045
:10571000080800200608002070B51F4D1C462B68A5
:10572000CCB3B3F5007F36D203EB830CDFF874E023
:105730000E4611464FEA0C120EEB0C1C4EF80200FE
:105740002832CCF80C3001338CED040A9644CCEDB1
:10575000050A8CED061ACCED071A8CED082ACCED63
:10576000092A2B60CCE90161A268E36820686168BE
:10577000AEE80F00094B8CED103A1A68084BCCF8D4
:1057800038201B68CCED113ACCF83C30049B8CEDF2
:10579000124ACCF84C3070BD080800206803002085
:1057A00064030020200800202DE9F04F97B0002569
:1057B0007B4E80460DF13F040F462022294624F0FF
:1057C0001F0407952046CDE90355CDE905550BF09B
:1057D0009AFF009535781DB1284617B0BDE8F08FC7
:1057E000FA2363616F4B1B68A36003EB83036AA119
:1057F000D1E900011B01C4E903871A46C4E900018D
:10580000A3B1694F4FF0FF32684903EB070E17F859
:10581000013B08205A4042F30003013803EA010328
:1058200083EA5202F7D17745F1D1D2434FF0000815
:10583000DFF87CB14AF2200AA261C14647463846E9
:10584000FFF7E6FE40B1DBF81C30B8F1000F01D0E5
:10585000994501D8994680460137D344032FEED1AC
:1058600009FB08F30133E361012304930693072343
:1058700005932023079304F071FC0028ACD101901C
:1058800002A901A8FFF708FF10B3019B4AF2200903
:10589000DFF834A1464F03F1010E03F10408454936
:1058A000AAFB0E2323F0010000EB5300AEEB000037
:1058B00009FB007309FB001C01E0634531D01A6845
:1058C00004330132F9D00EF1010EF045E8D10FE0BA
:1058D000384F4AF2200C38497B1801E09F4220D013
:1058E0001A6804330132F9D0013067440328F3D138
:1058F00003A8694604F0CEFC002846D004F042FC20
:10590000BFF34F8FBFF36F8F2C4B0022C3F8502291
:10591000BFF34F8FBFF36F8F2846357017B0BDE8C8
:10592000F08F4AF22003DFF8889000FB03F39944DC
:105930001C4A126842B922464946012004F068FC1C
:10594000B0FA80F56D09D9E702EB82024FEA02183E
:1059500008F11F0838F01F08EDD0194F194ADFF879
:105960006CB01F44A2EB030AABEB030B03E00BEBA1
:1059700007039845DFD90AEB070239460120203793
:1059800004F046FC0028F2D0B8E70346DFF8209088
:10599000CEE700BFAFF300804C4F4732020000005B
:1059A0000608002008080020200800202083B8ED09
:1059B00000000E0820A00E08E05FFFFF00ED00E0F1
:1059C00020000E080008F217ABAAAAAAE0FFF1F720
:1059D0002DE9F0412DED028BD6B0002515A914A8B4
:1059E000CDE91455FFF758FE002800F04181159EBF
:1059F0005023149F4FF48071059316A87369A04A31
:105A0000049333690393F3680293B3680193F369D2
:105A100000933B460BF0FEFD16A8FEF7E5F899480B
:105A2000FEF7E2F8B368002B00F01A814AF2200377
:105A3000954CF6EE008A9FED958A03FB0744B0462D
:105A4000D9E075EEA85A94ED055AFDEEE55A25EE1B
:105A5000085AB5EEC05AF1EE10FAC0F2FE8035EEEB
:105A6000285AD4ED064ABDEEC55A64EE884AF5EED2
:105A7000C04AF1EE10FAC0F2ED8074EEA84A94ED3F
:105A8000074AFDEEE44A24EE084AB5EEC04AF1EEBC
:105A900010FAC0F2DC8034EE284AD4ED083ABDEEAC
:105AA000C44A63EE883AF5EEC03AF1EE10FAC0F25D
:105AB000CB8073EEA83AD4ED097AFDEEE33A67EEB7
:105AC000887AF5EEC07AF1EE10FAC0F2BA8077EE7D
:105AD000A87A94ED0A7ABDEEE73A27EE087AB5EE99
