:020000040800F2
:1000000000000220D90700082D0800082D0800086C
:100010002D0800082D0800082D0800080000000029
:100020000000000000000000000000002D08000893
:100030002D080008000000002D080008F9900008B5
:100040002D0800082D0800082D0800082D080008BC
:100050002D0800082D0800082D0800082D080008AC
:100060002D0800082D0800082D0800082D0800089C
:100070002D0800082D0800082D0800082D0800088C
:100080002D0800082D0800082D0800082D0800087C
:100090002D0800082D0800082D0800082D0800086C
:1000A0002D0800082D0800082D0800082D0800085C
:1000B0002D0800082D0800082D0800082D0800084C
:1000C0002D0800082D0800082D0800082D0800083C
:1000D0002D0800082D0800082D0800082D0800082C
:1000E0002D0800082D080008000000002D08000859
:1000F0002D0800082D0800082D0800082D0800080C
:100100002D0800082D0800082D0800082D080008FB
:100110002D080008A18C00082D0800082D080008F3
:100120002D0800082D0800082D0800082D080008DB
:100130002D0800082D0800082D0800082D080008CB
:1001400000000000000000000000000000000000AF
:100150002D0800082D0800082D0800082D080008AB
:100160002D0800082D0800082D0800082D0800089B
:100170002D080008FD9000082D0800080000000070
:100180002D0800082D0800082D0800082D0800087B
:100190002D0800082D0800082D0800082D0800086B
:1001A0002D0800082D0800082D0800080000000098
:1001B0002D0800082D0800082D0800082D0800084B
:1001C0002D0800082D0800080000000000000000B5
:1001D00000000000000000002D08000800000000E2
:1001E000000000000000000000000000000000000F
:1001F00000000000000000002D0800082D08000885
:100200002D0800082D080008000000002D08000837
:100210002D0800082D0800082D0800082D080008EA
:100220002D080008000000002D0800080000000054
:100230002D0800082D080008000000002D08000807
:100240002D0800082D0800082D0800082D080008BA
:100250002D0800082D0800082D0800082D080008AA
:100260002D0800082D0800082D0800082D0800089A
:100270002D0800082D0800082D08000800000000C7
:100280002D0800082D0800082D0800082D0800087A
:10029000000000002D0800082D08000800000000E4
:1002A000000000002D0800082D0800082D08000897
:1002B0002D0800082D0800082D0800082D0800084A
:0C02C0002D0800082D0800082D0800087B
:1002D00010F8012B11F8013B012A28BF9A42F7D0F0
:1002E000D01A7047034613F8012B002AFBD1181AC5
:1002F000013870470000000000000000000000000E
:1003000001F0FF01102A2BDB10F0070F08D010F8C6
:10031000013B013A8B422DD010F0070F42B3F6D1CA
:10032000F0B441EA012141EA014122F007047FF0E3
:1003300000070023F0E80256083C85EA010586EA3A
:10034000010685FA47F5A3FA87F586FA47F6A5FA76
:1003500087F68EB9EED1F0BC01F0FF0102F0070282
:1003600032B110F8013B013A83EA010313B1F8D12D
:100370000020704701387047002D06BF354603380E
:10038000073815F0010F07D1013015F4807F02BF47
:10039000013015F4C03F0130F0BC0138704700BF98
:1003A00081F0004102E000BF83F0004330B54FEA26
:1003B00041044FEA430594EA050F08BF90EA020F93
:1003C0001FBF54EA000C55EA020C7FEA645C7FEA26
:1003D000655C00F0E2804FEA5454D4EB5555B8BF49
:1003E0006D420CDD2C4480EA020281EA030382EABA
:1003F000000083EA010180EA020281EA0303362D4C
:1004000088BF30BD11F0004F4FEA01314FF4801C1E
:100410004CEA113102D0404261EB410113F0004F30
:100420004FEA03334CEA133302D0524263EB4303E7
:1004300094EA050F00F0A780A4F10104D5F1200E85
:100440000DDB02FA0EFC22FA05F2801841F10001E0
:1004500003FA0EF2801843FA05F359410EE0A5F1B4
:1004600020050EF1200E012A03FA0EFC28BF4CF0E5
:10047000020C43FA05F3C01851EBE37101F000459B
:1004800007D54FF0000EDCF1000C7EEB00006EEBA8
:100490000101B1F5801F1BD3B1F5001F0CD3490832
:1004A0005FEA30004FEA3C0C04F101044FEA445289
:1004B00012F5800F80F09A80BCF1004F08BF5FEA10
:1004C000500C50F1000041EB045141EA050130BDF0
:1004D0005FEA4C0C404141EB0101013C28BFB1F502
:1004E000801FE9D291F0000F04BF01460020B1FA4D
:1004F00081F308BF2033A3F10B03B3F120020CDA20
:100500000C3208DD02F1140CC2F10C0201FA0CF0FD
:1005100021FA02F10CE002F11402D8BFC2F1200C62
:1005200001FA02F120FA0CFCDCBF41EA0C01904018
:10053000E41AA2BF01EB0451294330BD6FEA040461
:100540001F3C1CDA0C340EDC04F11404C4F120024C
:1005500020FA04F001FA02F340EA030021FA04F35E
:1005600045EA030130BDC4F10C04C4F1200220FAB5
:1005700002F001FA04F340EA0300294630BD21FAF3
:1005800004F0294630BD94F0000F83F4801306BFB9
:1005900081F480110134013D4EE77FEA645C18BFAD
:1005A0007FEA655C29D094EA050F08BF90EA020F44
:1005B00005D054EA000C04BF1946104630BD91EA3C
:1005C000030F1EBF0021002030BD5FEA545C05D13F
:1005D0004000494128BF41F0004130BD14F580047E
:1005E0003CBF01F5801130BD01F0004545F0FE41F2
:1005F00041F470014FF0000030BD7FEA645C1ABF27
:10060000194610467FEA655C1CBF0B46024650EA5D
:10061000013406BF52EA033591EA030F41F4002189
:1006200030BD00BF90F0000F04BF0021704730B50F
:100630004FF4806404F132044FF000054FF00001E4
:1006400050E700BF90F0000F04BF0021704730B5A5
:100650004FF4806404F1320410F0004548BF40427A
:100660004FF000013EE700BF42004FEAE2014FEACF
:1006700031014FEA02701FBF12F07F4393F07F4FAA
:1006800081F06051704732F07F4208BF704793F0AD
:100690007F4F04BF41F40021704730B54FF46074C0
:1006A00001F0004521F000411CE700BF50EA0102C3
:1006B00008BF704730B54FF000050AE050EA01026C
:1006C00008BF704730B511F0004502D5404261EBDC
:1006D00041014FF4806404F132045FEA915C3FF41D
:1006E000D8AE4FF003025FEADC0C18BF03325FEABA
:1006F000DC0C18BF033202EBDC02C2F1200300FA6B
:1007000003FC20FA02F001FA03FE40EA0E0021FA8F
:1007100002F11444BDE600BF53B94AB9002908BF2D
:1007200000281CBF4FF0FF314FF0FF3000F00CB835
:10073000ADF1080C6DE904CE19F072FDDDF804E0AE
:10074000DDE9022304B07047704700BF0348044B43
:10075000834202D0034B03B118477047CC020020FC
:10076000CC020020000000000548064B1B1AD90FE0
:1007700001EBA301491002D0034B03B118477047A6
:10078000CC020020CC0200200000000010B5064C76
:10079000237843B9FFF7DAFF044B13B10448AFF3F2
:1007A00000800123237010BDE00200200000000043
:1007B00040A5010808B5054B1BB105490548AFF335
:1007C0000080BDE80840FFF7CFBF00BF0000000079
:1007D000E402002040A50108DFF838D000F028F836
:1007E000002103E00C4B5B58435004310B480C4B89
:1007F00042189A42F6D30B4A02E0002342F8043B27
:10080000094B9A42F9D30CF06FFC17F061F805F030
:10081000E9FF704700000220E813040800000020F0
:10082000CC020020E0020020C06C0120FEE70000A6
:10083000044AD36843F00203D36053689B04FCD599
:10084000704700BF00480258F7EE007ADFED1A5AF1
:10085000F0EE084A9FED196A20EE004A9FED183A23
:1008600077EEC07ADFED173A60EEA55ABEEE007A59
:1008700067EEA76A67EEA47A20EE045A66EEA46AD1
:1008800067EE847A20EE866A26EE800A27EE877A63
:1008900067EEA57A60EEA30ADFED0B3AA0EE037ACD
:1008A000E0EE067AA5EE237AE5EE207A80ED007A76
:1008B000C1ED007A704700BF9A99193FCDCCCC3E6C
:1008C0009A9919BE3333333F48E17AC0164A012161
:1008D0000023164810B51170154C164A037013709A
:1008E0002370154A15481649164C136003600B70A7
:1008F0000CF0B8FC144AFA38237810604BB1134856
:1009000007F0AEFF237853B11148BDE8104007F05F
:1009100073BF104807F0A4FF2378002BF4D10E48D2
:10092000BDE8104007F068BF6C0500207A05002084
:100930007905002078050020FC04002074050020C3
:100940006F0500206D05002068050020B0A5010896
:10095000F8A50108D4A5010814A6010800B58BB0BC
:1009600000234FF0000C03AA04A807A98DED010A8B
:1009700006930993CDF80CC0CDE90433CDE90733D4
:100980000CF0EAF9DDED087A1F4B9DED077AF1EEE8
:10099000677ADDED066A0398B1EE477A1B49F1EEFE
:1009A000666A1B4AD3ED015A086093ED006A77EE40
:1009B000E57A92ED005A174B37EE467A76EEC56A25
:1009C000154993ED016A154A77EEC67AD3ED005AC0
:1009D000C1ED006A9FED125A37EE657AD1ED004AFB
:1009E000D2ED006AA7EE856A9DED010AE7EE055A91
:1009F000F0EE667AE4EE807A83ED016AC3ED005A88
:100A0000C2ED007A0BB000BD840500209C050020DB
:100A1000B40500207C050020B0050020AC050020B6
:100A2000CDCC4C3E10B582B004460CF01BFC144BF0
:100A30001449154A0094DFF868C00978126893EDEC
:100A4000000A124BDCED000A93ED001ADFF854C0E7
:100A50000F4BDCED001A93ED002ADFF84CC00D4B74
:100A6000DCED002A93ED003ADFF840C00A4BDCEDE4
:100A7000003A93ED004A094B09F008FF02B010BD9F
:100A8000B0050020C0050020BC050020A8050020FE
:100A9000A00500209805002090050020A0CB0108AB
:100AA000AC050020A40500209C0500209405002032
:100AB00000B5DFF86CC00B46DFF868E083B0174A7A
:100AC0009EF8001012689CED000ADFF85CC0DCEDB7
:100AD000000ADFF858C09CED001ADFF854C0DCEDC6
:100AE000001ADFF850C09CED002ADFF84CC0DCEDA6
:100AF000002ADFF848C09CED003ADFF844C0DCED86
:100B0000003ADFF840C09CED004A4FF0000CCDF8F1
:100B100000C009F0BBFE03B000BD00BFBC05002053
:100B2000B0050020C0050020AC050020A80500206D
:100B3000A4050020A00500209C05002098050020A9
:100B4000940500209005002070B5CCB003468021AC
:100B5000494A0CA816F01CFD48490CA816F0F0FDF7
:100B6000002872D00346002406AD01E0062C0BD00D
:100B700045F8043B00204149013416F0E1FD0346ED
:100B80000028F3D1062C60D13D490698FFF7A0FB61
:100B900000285AD13B490798FFF79AFB002854D107
:100BA00039490898FFF794FB00284ED137490A9835
:100BB000FFF78EFB002848D1099C0A2205A9204690
:100BC00016F018FC22780546002A47D0059B1B78B2
:100BD000002B43D1012841D80B9E04A9304616F0C2
:100BE0004BFB3378002B40D0049B1B78002B3CD16F
:100BF000F0EEC07A9FED267AF4EE477AF1EE10FA25
:100C000033D8B5EEC00AF1EE10FA2ED4DFED217A1A
:100C1000B4EEE70AF1EE10FA27DCE8B28DED030A34
:100C200007F084FD9DED030A2B461B4AB7EEC00A70
:100C300080212CA88DED000B16F0AAFC2CA807F043
:100C4000DBFD2CA807F0C0FD05E0144807F0D4FD3B
:100C5000124807F0B9FD01204CB070BD104807F0F4
:100C6000CBFD0F4807F0B0FDF5E70E4807F0C4FDD7
:100C70000C4807F0A9FDEEE730A6010834A60108EC
:100C80005CA6010868A601086CA6010874A6010804
:100C9000FFFF7F7F00003443D0A6010838A601087B
:100CA00080A60108A8A601082DE9F041B2B00646C9
:100CB0000F469046A021384B384A0AA816F068FC27
:100CC00037490AA816F03CFD90B10346002401AD57
:100CD00045F8043F00203249013416F031FD034647
:100CE000002855D0082CF3D1029B1A78522A03D041
:100CF000002032B0BDE8F0815A784B2AF8D19B78B9
:100D0000002BF5D127490398FFF7E2FA0028EFD12D
:100D100025490498FFF7DCFA0028E9D13146059807
:100D2000FFF7D6FA0028E3D120490698FFF7D0FA5A
:100D30000028DDD11E490898FFF7CAFA0028D7D14C
:100D4000099C1C492046FFF7C3FA28B11A492046DE
:100D5000FFF7BEFA0028CBD1079D0A2201A9284639
:100D600016F048FB2B780246002BC1D0019B1B7864
:100D7000002BBDD10028BBD00E4920463A60FFF7BA
:100D8000A7FAB0FA80F301205B0988F80030B0E7D9
:100D9000082CADD1A8E700BF8003002030A60108D1
:100DA00034A6010800A7010804A7010814A7010838
:100DB00018A7010820A7010824A701082DE9F04180
:100DC000AAB006460F4690468021384B384A0AA8FA
:100DD00016F0DEFB37490AA816F0B2FC90B10346C4
:100DE000002401AD45F8043F00203249013416F0DB
:100DF000A7FC0346002855D0082CF3D1029B1A7893
:100E0000522A03D000202AB0BDE8F0815A784B2A3C
:100E1000F8D19B78002BF5D127490398FFF758FAB2
:100E20000028EFD125490498FFF752FA0028E9D1AC
:100E300031460598FFF74CFA0028E3D1204906987F
:100E4000FFF746FA0028DDD11E490898FFF740FA5F
:100E50000028D7D1099C1C492046FFF739FA28B150
:100E60001A492046FFF734FA0028CBD1079D0A2201
:100E700001A9284616F0BEFA2B780246002BC1D0F5
:100E8000019B1B78002BBDD10028BBD00E4920460A
:100E90003A60FFF71DFAB0FA80F301205B0988F889
:100EA0000030B0E7082CADD1A8E700BFFC0200205D
:100EB00030A6010834A601082CA7010834A70108B0
:100EC00014A7010818A7010820A7010824A70108F2
:100ED0002DE9F04FD3B0602112A80BF023FC0028BD
:100EE00000F014818C4B06461978002900F04583E8
:100EF0000DF14809894C8A4D09EB060899F8003034
:100F000026680A2B18BF0D2B0CBF0127002740F0C5
:100F1000F282002383498248AB5516F077FC824663
:100F2000002800F0F382AA4509D05046FFF7DAF90D
:100F3000064651462846721C16F0CEFB2660002E4F
:100F400000F0D182784B1B780F2B00F0ED822B46FE
:100F5000764AA0212AA816F01BFB75492AA816F08C
:100F6000EFFB0346002800F0158106AE4FF0000AA3
:100F7000B3464BF8043B00206D490AF1010A16F014
:100F8000DFFB0346002800F00181BAF10C0FF0D11D
:100F900033681A78522A40F0FD805A784B2A40F084
:100FA000F9809B78002B40F0F58062497068FFF76C
:100FB0008FF9002840F0EE805F49B068FFF788F9AC
:100FC000002840F0E7805D49F068FFF781F90028CC
:100FD00040F0E0805A493069FFF77AF9002840F084
:100FE000D9805849B069FFF773F9002840F0D280E2
:100FF0005549306AFFF76CF9002840F0CB8053491F
:10100000B06AFFF765F9002840F0C480D6F814B044
:101010000A2205A9584616F0EDF99BF80030029017
:10102000002B00F0B780059B93F800B0BBF1000FD8
:1010300040F0B080002800F0AD80F36944491846C4
:101040000393FFF745F9002800F0668303984149B0
:10105000FFF73EF9002840F09D80736A0A2205A937
:101060001846039316F0C6F9039B1B78002B00F07B
:101070009180059B1B78002B40F08C80B0F5C87FD9
:1010800040F08880F66A0A2205A9304616F0B2F9C7
:101090003378002B7ED0059B1B78002B7AD1B0F5DE
:1010A000B47F77D12C4B1A782C4B1878024340F040
:1010B00001832B4A2B4812680068024340F0FA82F1
:1010C000012002991870284B83F800B0274B196053
:1010D000274B1A70274B1A70274B1A70274B1A7020
:1010E000274B1A70BBF1000F00F01C831849029BBC
:1010F0002AA8244A0091802116F04AFA2AA807F06B
:101100007BFB214807F060FB002323600027384663
:1011100053B0BDE8F08F00BFC8040020C404002015
:101120002404002080A70108C005002030A6010883
:1011300034A601082CA7010834A70108B0A70108AC
:1011400014A7010818A70108B8A7010874A6010888
:1011500020A7010824A70108F9040020E5040020C5
:10116000E8040020DC040020E4040020E004002067
:10117000D8040020D7040020D6040020D504002085
:10118000D4040020DCA7010804A80108BAF10C0F60
:101190003FF4FEAE2368002B00F0A5812B46804A69
:1011A000A0212AA816F0F4F97E492AA816F0C8FA58
:1011B0000346002839D04FF0000A0DF1180B4BF808
:1011C000043B002077490AF1010A16F0B9FA0346F8
:1011D000002800F0A481BAF10C0FF0D1069B1A7818
:1011E000522A22D15A784B2A1FD19B78EBB96E49EB
:1011F0000798FFF76DF8C0B96C490898FFF768F8D1
:1012000098B96B490998FFF763F870B969490A986A
:10121000FFF75EF848B968490C98FFF759F820B90C
:101220000E9B1A784C2A00F0B4812368002B00F042
:101230005A812B465A4AA0212AA816F0A9F95949E1
:101240002AA816F07DFA0346002800F0CF8006AEEB
:101250004FF0000AB3464BF8043B002051490AF115
:10126000010A16F06DFA0346002800F0BB80BAF1BF
:101270000A0FF0D133681A78522A40F0B7805A78B2
:101280004B2A40F0B3809B78002B40F0AF8046495A
:101290007068FFF71DF8002840F0A8804349B06847
:1012A000FFF716F8002840F0A1804449F068FFF7E6
:1012B0000FF8002840F09A803E493069FFF708F89F
:1012C000002840F093803C49B069FFF701F80028FE
:1012D00040F08C803A49306AFEF7FAFF002840F06F
:1012E0008580D6F81CB037495846FEF7F1FF28B183
:1012F00035495846FEF7ECFF002877D1736905A9F8
:101300000A221846029316F075F8029B82461B7853
:10131000002B6BD0059B05A91B78002B66D10028FC
:1013200064D0736A0A221846029316F063F8029B8F
:1013300006461B78002B59D0059B1B78002B55D1F6
:10134000431E062B52D858461E49FEF7C1FF1F4BBD
:10135000B0FA80F01A784009002A47D11C4A126876
:10136000524543D11B4A127882423FD10121197064
:10137000194BC3F800A0194B1E60002A00F0D4815D
:10138000104A00925346164A60212AA8019616F088
:10139000FFF82AA807F030FA00232360B7E600BF61
:1013A00030A6010834A601082CA7010824A80108CA
:1013B000B0A7010814A7010818A70108D0A80108C0
:1013C000D8A8010820A7010824A70108F9040020D3
:1013D000E8040020F8040020F4040020EC040020BD
:1013E000E0A80108BAF10A0F3FF444AF2B469B4A2C
:1013F000A0212AA816F0CCF899492AA816F0A0F93D
:101400000346002863D0002605AF47F8043F0020BC
:101410009349013616F094F90346002855D0082E5A
:10142000F3D1069B1A78522A51D15A784B2A4ED1C1
:101430009B78002B4BD18B490798FEF749FF00287A
:1014400045D189490898FEF743FF00283FD18749D5
:101450000998FEF73DFF002839D185490A98FEF723
:1014600037FF002833D183490C98FEF731FF70BB5A
:101470000D9F81493846FEF72BFF20B17F49384642
:10148000FEF726FF18BBDDF82CB00A2205A9584646
:1014900015F0B0FF9BF800300646C3B1059B1B78E2
:1014A000ABB9A0B174493846FEF712FF744BB0FADD
:1014B00080F01B684009B34209D1724B1B7883420C
:1014C00005D1714B01221A700DE0082EA9D06F488A
:1014D00007F07AF96E4A236860212AA816F058F8B6
:1014E0002AA807F089F90023236009F10109C845FA
:1014F0007FF404AD0AE6721C9F2A02D82260AB5525
:10150000F3E76448276007F077F9EEE76249284679
:1015100016F07CF9824600287FF405AD0FE5BAF19C
:101520000C0F7FF482AE59E65C494C23DFF880E172
:1015300001F10C0B0A78A3F1610CA3F12006013133
:10154000A2F12000A2F1610A5FFA8CFCF6B2C0B2EF
:10155000BCF1190F98BF3346BAF1190F98BF024674
:101560009A427FF4F4AC8B451EF8013FE2D14B4820
:10157000FFF7EAFA00232360C8E501220F201A7062
:101580001D2209F0FDF9002864D0454807F01CF938
:10159000AEE45A78312A7FF448AE9B78002B7FF472
:1015A00044AE109B1A784C2A7FF43FAE5A78322A08
:1015B0007FF43BAE9B78002B7FF437AE0B9B0A2267
:1015C00005A91846029315F015FF029B83461B7868
:1015D000002B3FF42AAE059B1B78002B7FF425AE31
:1015E00000283FF422AE0F9B02935B78002B7FF420
:1015F0001CAE119B93F801A00393BAF1000F7FF486
:1016000014AE1D490D98FEF763FE002800F0878098
:101610000D981A49FEF75CFE00287FF406AE029B87
:101620001E78A6F14103032B3FF6FFAD039B18780C
:10163000A0F14103032B3FF6F8AD86423FF4F5AD30
:10164000184B197811B90E490968B9B3164807F053
:10165000D3F848E7154807F0B7F849E430A6010881
:1016600034A601082CA7010824A8010810A9010824
:1016700014A7010818A7010820A7010824A701083A
:10168000E8040020F8040020E704002018A901085D
:101690003CA9010868A9010890A7010824040020BA
:1016A0003CA70108F90400202CA801085CA7010848
:1016B000A0A701081D4807F09FF825E501221A7030
:1016C0001E221B4B83F800A01A4BC3F800B01A4B24
:1016D0001E701A4B18700F20194B196009F050F941
:1016E000A0B1184807F070F8BAF1000F12D0164AEE
:1016F0005B46602100922AA8144A15F049FF2AA8E7
:1017000007F07AF8124807F05FF845E6114807F04D
:101710005BF8E9E7104AEBE74FF0010B9DE44FF06F
:10172000010A7CE70C49E2E40B4A2AE6C4A7010857
:10173000F8040020F4040020F1040020F00400204C
:10174000EC04002044A8010820A7010888A801088B
:10175000B0A8010864A8010824A701085F4BB9EEEE
:10176000007AD3ED007AF4EEC77AF1EE10FA00F1C8
:101770009F80B1EE007ADFED5A6AF4EEC77AF1EE9F
:1017800010FA37FE277AF0EEC77AF4EEE67AF1EE39
:1017900010FA40F28A80B5EEC07AF1EE10FA40F30A
:1017A000998037EE667AF9EE007AD3ED016AF4EEAD
:1017B000E76AF1EE10FA00F18480F1EE007A9FED15
:1017C000486AF4EEE76AF1EE10FA77FEA67AF0EED8
:1017D000E76AF4EEC66AF1EE10FA75D9F5EEC07A52
:1017E000F1EE10FA73DD77EEC67A61EEA75A90ED4E
:1017F000006A61EE277AD0ED016A9FED3A5AE1EE78
:10180000075AE1EEC77AA5EE826AE7EE826A76EEC3
:10181000407AF4EEC57AF1EE10FA4FD49FED327AA9
:101820009FED2F6AF4EEC77AF1EE10FA37FE277AB1
:1018300027EE066A76EEE07A9FED2A7AF4EEC77A12
:10184000F1EE10FA37D49FED287ADFED256AF4EE39
:10185000C77AF1EE10FA77FE277A67EEA67A30EEB5
:10186000067ADFED226AB0EEC00A70EEA77A80ED4C
:10187000007AB4EEE60AC0ED017AF1EE10FA13D860
:10188000F0EEE00AF4EEE60AF1EE10FA0CD8184B8E
:10189000D3ED007AF0EEE77AF4EEE67AF1EE10FAA4
:1018A00002D800230360436070479FED127A7AE705
:1018B0009FED117A77E7DFED117AD0E79FED0F6AA0
:1018C000B8E7DFED0D7A90E7DFED0A7A8DE777EE86
:1018D000867A8AE737EE267A65E700BF7C05002026
:1018E0000AD7A33D9A9919BE9A99193E0AD7A33CE3
:1018F000A80500200000000048E17AC0A69B44BC77
:10190000F8B50B780E460746F3B101380D4602E0F4
:1019100015F8013FC3B110F8012FA3F16101A3F144
:10192000200EA2F1200CA2F16104C9B25FFA8EFE72
:101930005FFA8CFC192998BF7346192C98BF624630
:101940009A42E5D00020F8BD3046FEF7CBFC385C6B
:101950002C2818BF00280CBF01200020F8BD00BFB4
:101960002DE9F047D4B0802104A80AF0DBFE28B3AB
:1019700004AC464DDFF8448100272618DFF840917B
:1019800007E0501C9F281CD8286008F80230A642A7
:1019900014D014F8013B2A680D2B06D0A3F10A01DC
:1019A000B1FA81F149090029EBD008F8027012B1AF
:1019B000D9F800303BB9A6422F60EAD154B0BDE857
:1019C000F0872960E3E732480DF10B0203A9FFF726
:1019D0006BF920B1039BD9F80020934227D00DF179
:1019E0000B0203A92B48FFF75FF920B1039BD9F83D
:1019F000002093422CD00DF10B0203A92648FFF7DB
:101A000053F90028D7D0039BD9F800209342D2D1B4
:101A100022499DF80B2009788A42CCD12049012027
:101A20000870002A2FD01F4A00921B4A1DE01B4A53
:101A30009DF80B1012789142D1D11B49097811B948
:101A40001A4901200870D2B1164A0092104A0CE0DF
:101A5000124A11789DF80B208A42CCD114490120FA
:101A6000087072B10F4A00920A4A0192C021114ACD
:101A700024A815F08DFD24A806F0BEFE9BE70E4AB3
:101A8000E3E70D4AEFE70C4ACEE700BF2004002051
:101A900094A90108D4A9010810A90108CD040020C7
:101AA000CA04002020A70108C9040020CC0400209B
:101AB000CB0400209CA9010824A701088003002072
:101AC000D00400202DE9F04104460138524E522343
:101AD00004F11E08054615F8012FA3F1610EA3F1CC
:101AE000200CA2F12001A2F161075FFA8EFE5FFADD
:101AF0008CFCC9B2BEF1190F98BF6346192F98BF6D
:101B00000A469A420DD1454516F8013FE3D101231B
:101B10004249434A0B7043481370BDE8F04106F058
:101B200053BE414E04F110080546522315F8012F0B
:101B3000A3F1610EA3F1200CA2F12001A2F1610733
:101B40005FFA8EFE5FFA8CFCC9B2BEF1190F98BF26
:101B50006346192F98BF0A469A420ED1454516F89A
:101B6000013FE3D1002431492D4B01220C701A7042
:101B70002F48BDE8F04106F027BE2E4F04F10F08B4
:101B80000646522316F8012FA3F1610CA3F120059C
:101B9000A2F12001A2F1610E5FFA8CFCEDB2C9B294
:101BA000BCF1190F98BF2B46BEF1190F98BF0A461A
:101BB0009A4208D1B04517F8013FE3D11E48BDE86D
:101BC000F04106F001BE1D4E0B34522310F8012FD8
:101BD000A3F1610CA3F12005A2F12001A2F161079C
:101BE0005FFA8CFCEDB2C9B2BCF1190F98BF2B465D
:101BF000192F98BF0A469A420BD1A04216F8013F0E
:101C0000E4D1074B01220E481A70BDE8F04106F0FE
:101C1000DBBDBDE8F08100BFDCA90108790500202B
:101C20007A05002064AA01088CAA01086C0500202E
:101C300038AA010850AA010810AA010828AA010818
:101C4000FCA901082DE9F04790B00BF00BFB404BCD
:101C50001B7823B93F4A1368C31AF92B66D8402171
:101C600068460AF05FFDF0B16C463B4E3B4D2718CD
:101C700006E0501C5F2819D83060AB54BC4212D02B
:101C800014F8013B32680D2B06D0A3F10A01B1FA1A
:101C900081F149090029ECD00023AB545AB9002343
:101CA000BC423360ECD110B0BDE8F0872C48316005
:101CB00006F0D6FDE2E72B4806F086FD284606F042
:101CC00083FD294806F080FD284B1A780F2A06D09C
:101CD0001B78072B03D02846FFF7F4FEDFE71F49E8
:101CE0004C23DFF8A48001F10C0A0A78A3F1610EFD
:101CF000A3F120000131A2F1200CA2F161095FFAE9
:101D00008EFEC0B25FFA8CFCBEF1190F98BF03467D
:101D1000B9F1190F98BF62469A42DCD18A4518F88A
:101D2000013FE2D10D48FEF70FFFB8E71049114B14
:101D300010600A781B7822B933B10F4806F05CFDB9
:101D40008DE71BB10D48F9E70D48F7E70D48F5E7BA
:101D50007805002068050020FC0400200005002014
:101D6000E0AA0108D0AA0108DCAA0108C0050020E9
:101D70006C0500206D050020A0AA0108F8A5010847
:101D8000B8AA010814A60108A0A7010830B59FB0A1
:101D90000BF068FA294B04461B78E3B12849294B1C
:101DA0000A78EAB12849294D0A68A21AB2F5967F45
:101DB0002AD2274B1B6843B9264B1B68002B36D110
:101DC000254B1B780BB9FFF73DFF2878003818BF6B
:101DD00001201FB030BD1A49204B0A78002AE1D1FA
:101DE00001201A4D05930870A4F5967016492A70C3
:101DF00008601B48049106F033FDDDE904130A680E
:101E0000A21AB2F5967FD4D30C604FF416724FF439
:101E1000AF7106A8CDE9012140F28A21114A009153
:101E2000602115F0B5FB06A806F0E6FCC1E70E4BF5
:101E30001B78002BC9D1FFF74BF8C6E76D050020D2
:101E40007805002020A701087405002079050020EE
:101E5000DC040020E80400206F05002024A701080E
:101E600004AB010830AB0108E6040020144B1B68EA
:101E700010B5044682B03BB9124B1B688BB9124BAC
:101E80001B780BB9FFF7DEFE07F054FD18B901907F
:101E900007F056FD60B9204602B0BDE8104007F0DB
:101EA000DBBA0A4B1B78002BEED1FFF711F8EBE7FA
:101EB000FEF70CFD064A09210198116002B010BD21
:101EC000DC040020E80400206F050020E604002068
:101ED000BC050020154B1B6800B583B03BB9144B03
:101EE0001B68A3B9134B1B780BB9FFF7ABFE07F0C8
:101EF00021FD18B9019007F023FD78B90BF0B2F974
:101F000007F01AFA03B05DF804EB07F0D5BA0A4BF4
:101F10001B78002BEBD1FEF7DBFFE8E7FEF7D6FCE2
:101F2000064A09210198116003B000BDDC040020BD
:101F3000E80400206F050020E6040020BC05002016
:101F40002DE9F04FADF54B7D82460BF08BF9A74B99
:101F500005901A6812F1010900F0C5814A46DFF8C0
:101F6000E0B240F6B8381A609BF80030059A002BB2
:101F70009F4BA2F1C801A2F10A021B7808BF4FF4DF
:101F8000E16807910692002B00F0AB81994C9A49C9
:101F90005046FEF79DF94EF6602347F2305240213D
:101FA000CDE900940024A04208BF1A46934B1AA81A
:101FB0001C70934B09921C705346924A15F0E8FA34
:101FC0005346914A40212AA8CDF8009015F0E0FA36
:101FD00053468E4A40213AA8CDF8009015F0D8FA21
:101FE00053468B4A40214AA8CDF8009015F0D0FA0C
:101FF0005346884A40215AA8CDF8009015F0C8FAF7
:102000005346854A40216AA8CDF8009015F0C0FAE1
:102010005346824A40217AA8CDF8009015F0B8FACC
:1020200053467F4A6021B2A8CDF8009015F0B0FA6F
:10203000B2A806F015FC0BF015F9059B05460494B3
:102040000893069BCDF80C90EB1A092B40D8079B00
:10205000EB1AC72B46D800270DF128094021484626
:102060000AF060FB00B309EB00064D46204609E08C
:10207000421C5F2A44D80DEB0004104684F86832F5
:10208000B54210D015F8013B0D2B01D00A2BEFD132
:102090000DEB0003002283F86822002834D1B542FA
:1020A0004FF00000EED104460BF0DCF8002F40F0BA
:1020B000F880059BC01A404580F0348101200BF068
:1020C000D7F80BF0CFF8069B0546EB1A092BBED9C3
:1020D000FFF700FF002800F06881079B0695EB1AC8
:1020E000C72BB8D91AA806F087FB53464D4A602182
:1020F000B2A815F04DFAB2A806F066FB0795AAE75C
:10210000494806F0ADFBCAE7484806F05DFB9AA8CF
:1021100006F05AFB464806F057FB9AA8FFF7D2FC98
:1021200040F6B8339BF800203AA943459AA838BF37
:102130004346002A18BF9846FFF7E2FB04460028F2
:1021400000F08080002F00F0A880039B6021394AB6
:10215000B2A80093534615F01BFAB2A806F080FB14
:102160004AA99AA8FFF7CCFB002872D17AA99AA8AD
:10217000FFF7C6FB0746002840F0B8806AA99AA876
:10218000FFF7BEFB80B142F6E06398450AD0039B9F
:102190006021294AB2A80093534615F0F9F9B2A874
:1021A00006F05EFB42F6E068DCB19AA85AA9FFF798
:1021B000A7FB08B9274663E70BF054F8039BA0F18F
:1021C000C8041E4A6021009305905346B2A80794A4
:1021D00015F0DEF9B2A806F043FB40F6B83800234C
:1021E0000493B54200F0948000204BE76405002082
:1021F0006D05002020A701086CAB010871050020C7
:102200007005002078AB010898AB0108B0AB01085D
:10221000C8AB0108E0AB0108F8AB010810AC01083D
:1022200028AC0108B4AC0108BCAD0108D0AA010873
:10223000DCAA0108CCAC010874AD010890AD01081E
:102240007A0500204AA99AA83C46FFF759FB0028C6
:102250008CD059495046DDF80C90FEF739F800282B
:102260005AD156499AA815F0D1FA011E18BF01217A
:10227000534C5346534AB2A8CDF8009021706021C8
:1022800015F086F9B2A806F0EBFA2378002B45D1B9
:1022900001200DF54B7DBDE8F08F0AF0E3FF0490BF
:1022A00053E701200AF0E4FF0AF0DCFF049B099ADF
:1022B0000546C31A93424CD2069BEB1A092B0AD847
:1022C000089BEB1AB3F57A7FFFF4C8AE2AA806F094
:1022D00093FA0895C2E6FFF7FDFD002865D0069544
:1022E000EEE7394C53E60122914638E6DDF80C90D2
:1022F0005346364A6021B2A8CDF8009015F048F94F
:10230000B2A806F0ADFA324B0A221A600020C0E7EC
:1023100000240AF0A7FFCCE60021A9E72D4806F02B
:102320009FFAB5E7DDF80C9053462B4A6021B2A81E
:10233000CDF8009015F02CF9B2A806F091FA002122
:102340000122234B8BF800101D490A7008221A60E5
:10235000DCE7DDF80C905346204A6021B2A8CDF8A6
:10236000009015F015F9B2A806F07AFA53461C4A07
:1023700040218AA8CDF8009015F00AF98AA806F045
:102380003BFA8AA806F038FA5346164A6021B2A8EA
:10239000CDF8009015F0FCF8B2A806F061FA012320
:1023A000074A1370104A137072E7094B1A68092A1A
:1023B000ACD005221A60A9E76CAB0108E4AC0108B7
:1023C00071050020F8AC010824A7010850AD0108F0
:1023D000BC05002014AD0108D8AD010844AC0108CB
:1023E00068AC010880AC0108700500202DE9F04FB1
:1023F000ADF5617D0C4607900AF034FFA54B0C90BB
:102400001A6812F1010800F096814246DFF8C8A26E
:1024100040F6B8371A609AF800209F4B002A0C9AB1
:102420001B78A2F1C801A2F10A0208BF4FF4E167CC
:102430000A910992002B00F07B81984B0D93002CA0
:1024400000F04C810D9BC0A8954A80210093022387
:102450000F900193434615F09BF838A84346914AE4
:102460006021049015F094F850A843468E4A6021EC
:10247000059015F08DF868A843468C4A60210690B7
:1024800015F086F820A84346894A60210E9015F081
:102490007FF8884B0893079B8021874AA0A8029366
:1024A0000D9BCDE90083089B15F072F8A0A806F0FB
:1024B000D7F90AF0D7FE002304461D460B93099B6B
:1024C000E31A092B3DD80A9BE31AC72B43D810AE59
:1024D000402130460AF026F98346002800F0448166
:1024E0004FF000090024284608E0421C7F2A45D806
:1024F00080A90B54104601345C450DD2335D0D2B81
:1025000001D00A2BF1D1002380AA1354002839D11D
:10251000013400205C45F1D305460AF0A3FEB9F171
:10252000000F7ED10C9BC01A874240F2248101200B
:102530000AF09EFE0AF096FE099B0446E31A092B58
:10254000C1D9FFF7C7FC002800F03F810A9B09941E
:10255000E31AC72BBBD90F9806F04EF9079B574AD1
:1025600080210293A0A80D9BCDE90083089B15F064
:102570000FF8A0A806F028F90A94A8E7504806F03A
:102580006FF9C5E74F4806F01FF980A806F01CF95F
:102590004D4806F019F980A8FFF794FA40F6B833D1
:1025A0009AF8002080A80499002A18BF1F46FFF758
:1025B000A7F9054678B1B9F1000F2ED0079B80210D
:1025C000424AA0A8A946CDE90083089B14F0E0FF89
:1025D000A0A806F045F9059980A8FFF791F9002811
:1025E00040F0AC8080A80699FFF78AF9002882D0D5
:1025F0000799A0A8089B364ACDE90081802114F0F4
:10260000C7FFA0A806F02CF9324B0A221A60002559
:1026100028460DF5617DBDE8F08F0AF023FE0B9092
:10262000CCE7012047F22F540AF022FE0AF01AFEEE
:1026300083460B9B099AABEB0303ABEB0202A3426D
:1026400000F2B080092A1CD80A9BABEB0303B3F558
:102650007A7F10D2402130460AF064F88346002881
:102660007FF440AF0AF0FEFD01200AF001FE0AF0FF
:10267000F9FD8346DDE70E9806F0BEF8CDF828B0E8
:10268000E8E7FFF727FC002800F09F80CDF824B092
:10269000DAE700BF640500206D05002020A70108CF
:1026A00010AE010848AE010874AE0108A0AE0108E2
:1026B000C4AE010804AE010864AF0108D4AF01083C
:1026C000A0B00108D0AA0108DCAA010810B00108D6
:1026D00070B00108BC0500207A050020079BC0A847
:1026E0003E4A802101930D9B0F900093434614F0C6
:1026F0004FFF38A843463A4A6021049014F048FF3F
:1027000050A84346374A6021059014F041FF68A85D
:102710004346354A6021069014F03AFF20A843460C
:10272000324A60210E9014F033FF314B0893B2E629
:10273000304B0D9383E60122904667E6079B0546E2
:102740002D49002001932D4A089BCDF80080087088
:102750008021A0A814F01CFFA0A806F081F828464C
:102760000DF5617DBDE8F08F0AF07CFD0C9BC31A6E
:10277000BB42FFF4DCAEDDE907238021A0A8019273
:10278000CDF800801E4A14F003FFA0A806F068F8F8
:10279000194A012100201B4B117008228AF8000001
:1027A0001A6034E70799A0A8089B174ACDE9008171
:1027B000802114F0EDFEA0A806F052F80E49012089
:1027C000104B082208701A6021E70E4B1A68092A7C
:1027D0003FF41DAF05221A6019E700BFE8AE0108FB
:1027E0001CAF010840AF0108A0AE0108C4AE01084B
:1027F000FCAD010824A701087105002040B00108C4
:10280000C8B00108BC050020A0AF01082DE9F04FB9
:10281000ADF5077D83460AF025FDA34B05901A68A8
:1028200012F1010A00F0DE805246DFF8EC8240F639
:10283000B8361A6098F80030059A002B9B4BA2F12D
:10284000C801A2F10A021B7808BF4FF4E1660391A8
:102850000492002B00F0C480954B0027954A40213C
:1028600016A8CDE900A3944B1F705B4614F090FEB0
:102870005B46924A402126A8CDF800A014F088FEBD
:102880005B468F4A402136A8CDF800A014F080FEA8
:102890005B468C4A402146A8CDF800A014F078FE93
:1028A0005B46894A60216EA8CDF800A014F070FE46
:1028B0006EA805F0D5FF0AF0D5FC049B0446C31AA8
:1028C000092B76D8039BE31AC72B7BD8402106A897
:1028D00009F028FF00285BD006AC251809E07A1C17
:1028E0005F2A5FD86F4487F8583117460134AC42ED
:1028F0004ED023780D2B08D0A3F10A09B9FA89F933
:102900004FEA5919B9F1000FE9D04FF000090DEB6A
:10291000070383F85891002FE8D06C4805F054FF66
:1029200056A805F051FF6A4805F04EFF56A8FFF77C
:10293000C9F840F6B83398F8002026A9B34256A843
:1029400038BF33464A4518BF1E46FEF7D9FF002858
:102950004BD146A956A8FEF7D3FF0746002860D101
:1029600056A836A9FEF7CCFF08B342F6E0694E45FB
:10297000BCD05B46574A60216EA80134CDF800A058
:1029800014F006FE6EA805F06BFFAC424E46B0D1C7
:102990000AF068FC059BC01AB04269D201200AF017
:1029A00067FC88E74C484F4605F05AFF9EE707460C
:1029B0009CE7FFF78FFA00286FD0039B0494E31A7B
:1029C000C72B83D916A805F017FF5B46434A602141
:1029D0006EA814F0DDFD6EA805F0F6FE039475E711
:1029E0003F4B3AE7012292461FE7334B07463D49EA
:1029F000584683F800903C4BC3F800A0FDF768FCF4
:102A000018B35B46394A60216EA8CDF800A014F0D7
:102A1000BFFD6EA805F024FF38460DF5077DBDE823
:102A2000F08F5B46324A60216EA8CDF800A014F00A
:102A3000AFFD6EA805F014FF2E4B0A221A60002786
:102A400038460DF5077DBDE8F08F184B1A782A4BF4
:102A5000C3F800A0294B1A70294B1870294B187025
:102A6000294B1870294B1870294805F0F9FEC8E762
:102A70005B46284A60216EA8CDF800A014F088FDBE
:102A80006EA805F0EDFE002101221A4B88F8001017
:102A900009490A7008221A60D1E7164B1A68092AF8
:102AA000CDD005221A60CAE7640500206D0500201C
:102AB00020A7010878AB010871050020B0AB010820
:102AC000F8AB010810AC010800B10108D0AA010858
:102AD000DCAA0108B4B10108BCAD010820B10108AD
:102AE00024A7010804A70108600500206CB10108B3
:102AF0008CB10108BC050020D0040020CD040020CA
:102B0000CC040020CB040020CA040020C90400200B
:102B100040B10108D8B101087A0500202DE9F04F35
:102B2000DFF84082F5B007460AF09CFBD8F8003089
:102B3000002B00F0AD808146A0F1C80B0A38754A21
:102B40004021009303903B4614A8002414F020FD7C
:102B5000D8F80030704A4021009324A83B4614F076
:102B600017FDD8F800306D4A4021009334A83B4649
:102B700014F00EFDD8F80030694A602100935CA87B
:102B80003B4614F005FD5CA805F06AFE0AF06AFBFE
:102B9000039B0546C31A092B63D8A5EB0B03C72B70
:102BA00068D8402104A809F0BDFDE8B104AD05EBEB
:102BB000000A07E05F290C4622D8013500F8C02C36
:102BC000554511D02A7804F5E873611C00260D2ABA
:102BD0000DEB030001D00A2AECD100F8C06C9CB9BF
:102BE000013500245545EDD10AF03CFB43F697230F
:102BF000A0EB0900984276D801200AF039FBC5E71E
:102C0000484805F02DFEEBE7474805F0DDFD44A8F8
:102C100005F0DAFD454805F0D7FD44A8FEF752FF60
:102C200024A944A8FEF76CFE044634A944A8002C4D
:102C300035D1FEF765FE0028D2D0D8F800003B461B
:102C40003B4A602100905CA814F0A2FC5CA805F04F
:102C500007FE384B0A221A600024204675B0BDE8F2
:102C6000F08FFFF737F900284DD0A5EB0B03039544
:102C7000C72B96D914A8AB4605F0BEFD3B462E4A9D
:102C800060215CA814F084FC5CA805F09DFD88E739
:102C90002A4805F0E5FD274B0A221A60DCE7D8F840
:102CA00000306021264A5CA800933B4614F070FC7B
:102CB0005CA805F0D5FD23493846C8F80060FDF74B
:102CC00007FB0028C9D1204B204A1870204B106008
:102CD00018702049204A214B087010701870204647
:102CE00075B0BDE8F08FD8F800003B461C4A602163
:102CF00000905CA814F04CFC5CA805F0B1FD0D4BF5
:102D000008221A60A8E70B4B1A68092AA4D00522EA
:102D10001A60A1E768AC0108C8AB010810AC010853
:102D200028B20108BCAD0108D0AA0108DCAA01083C
:102D300080B20108BC05002048B2010800B20108B9
:102D400060B2010804A70108CD040020D0040020CF
:102D5000CB040020CC040020CA040020C9040020B9
:102D6000A8B2010860050020F8B507460AF07AFA13
:102D70000646A0F10A050BE00AF074FA431B092B82
:102D800003D90546FFF7A6F840B101200AF070FA12
:102D90000AF068FA801BB842EED3F8BD044B1A68FB
:102DA000092A01D005221A60024B07221A70F8BDC9
:102DB000BC050020C00500202DE9F04F00232DEDBB
:102DC000108BE5B09FED979AB0EE408A1993F0EE24
:102DD000608A8DED129A8DED139A8DED149ACDE9DE
:102DE0001A33CDE91C33CDE91E33CDE92033CDE9CB
:102DF00017338D4BD3ED00EA0AF034FAF0EE492A8E
:102E0000DFED981AB0EE492A23AA012304908DED34
:102E1000229A07EE903AF0EE480A16A915A8B8EEE5
:102E2000E70A013320EE210AFDF70EFDF0EE627A8B
:102E3000DDED162AB0EE427A9DED152A412B72EE99
:102E4000E77A52ED016A32EE477A67EEA77AE7EE4B
:102E5000077AB1EEE77A77EE267AE2EC017AD8D1FA
:102E60009DED62BA9FED71CAB4EECCBAF1EE10FAE4
:102E700008D86F4B062200201A6065B0BDEC108B9D
:102E8000BDE8F08FDFED67AA6A4B9FED6B7AB0EE7D
:102E90006A9AC3ED00AAF0EE6ABA684B68EE878AB8
:102EA000DFED677AB0EE6AAAC3ED00AAF0EE6A9A87
:102EB000644B68EEA77A9FED64FAF0EE6ADAC3ED30
:102EC00000AAB0EE6ADA614B28EE0F7A049EF0EEAB
:102ED0006ACAC3ED00AA5E4B3746CDED087A7EEE96
:102EE000A77AC3ED00AAA6F1FA038DED027AB046E7
:102EF0000693CDED077AFEF749FF002301220A93DE
:102F0000059209930AF0AEF90646FEF73FFF049AD0
:102F100042F22733B21A9A4200F24183F31B092B83
:102F200040F2BE83A6EB08030A3707EE903AF31B84
:102F3000F8EE677A092B88BF374667EE8C7AF4EE95
:102F4000CC7AF1EE10FA00F18983DFED42FAF4EE6B
:102F5000EF7AF1EE10FA7FFEA7FAB0EE6F0AFDF7F6
:102F6000FDFC14AB12AA1EA9009313AB3A4806F05D
:102F700043F98046002800F0D183DFF8E0B0DBEDB4
:102F8000007A77EEEE8AB0EE680A13F081FAB0EEBE
:102F900040FAB0EE680A13F07BF99DED137ADDED8F
:102FA000127AF0EE401A67EE006A9DF8643027EE60
:102FB0000F7AE7EE8F6AA0EE677AB0EE66EAF0EE7F
:102FC000478A002B00F05283B0EE6F2A17A8B0EEAC
:102FD0004F1AF0EE470AB0EE660AFEF7BFFB9DED12
:102FE00017EADDED188A89EE8B6AB5EEC06AF1EE5C
:102FF00010FA00F13683F7EE002AB4EEE26AF1EE41
:1030000010FAF5EEC09A32FE866AF1EE10FA40F23E
:103010008983F4EECB9AF1EE10FA5ADA23AA01234F
:1030200032E000BF000000008C0500206F12833AE0
:10303000BC050020A8050020DA0FC93FA405002028
:1030400080B7803F980500203333333F940500203C
:1030500090050020CDCC4C3DC0CB0108AC05002034
:10306000BD3786350000803CCDCCCC3E9A99193FC7
:103070003333B3BE9A9919BE48E15AC0AE47613F97
:103080000133412B00F04783D2ED007A0432F4EE95
:10309000E79AF1EE10FAF3D8013B1FED0F5A0DEB52
:1030A0008302D2ED225A77EEE57AF4EEC57AF1EE9C
:1030B00010FA40F3078379EEE55A85EEA75A07EE3A
:1030C000903AF8EEE72A5FED197A72EE852A62EE01
:1030D000A72AF0EE480A16A9B0EE620A15A88DEDEF
:1030E000036AFDF7B1FBF7EE005A5FED217AF0EECF
:1030F000084A1FED224A28EE275A1FED237A75EE63
:10310000E25A9DED023AF1EE087A9DED036AA8EECF
:10311000443A65EEA43A65EEA77A62EEA44A63EEFD
:10312000A53AF0EE455A67EEA27A64EEA24AD8EECE
:10313000045A65EEA75A67EE877A1FED327AE5EEFC
:10314000235A1FED335AE3EE877AE4EE835AE4EE16
:10315000857A25EEA55AA7EEA75AF1EEC53AF4EE08
:10316000CC3AF1EE10FA40F2D982C5EEA34A5FEDF7
:103170003D5AE54BD3ED002A87EEA34ADFEDE33A53
:1031800068EEA33A6EEE255A7BEE697AA3EEAFDACB
:10319000E5EEAFCA23EEA43AA5EE843A63EE843A94
:1031A000E4EEE53AF0EE625AB0EEC35AE3EE2FDAFF
:1031B000E5EE2F5AC3ED005A7BEE6D5AF4EEE5AA08
:1031C000F1EE10FAF4EEE7AA3AFEA50AF1EE10FAD3
:1031D0007AFEA77AF4EEC07AF1EE10FA30FE270AF2
:1031E000B5EE400AF1EE10FA00F1BB82F1EEC07AC2
:1031F000DFEDC72AF4EEE72AF1EE10FA77FEA27AA5
:10320000B4EEE7AAF6EE002AF1EE10FA6FEEA22A6B
:1032100040F10A827AEE222AF4EEE72AF1EE10FA61
:1032200037FEA2AAEAEE2F9ADFEDBA7AF4EECB9A35
:10323000F1EE10FA7BFE299A79EEED2A62EEA72ACA
:10324000FDEE007AF4EEE72AF1EE10FA07D4F5EE7F
:10325000007AF4EEE72AF1EE10FA77FEA27A7AEE1F
:10326000277AFDEE002AF4EEE27AF1EE10FA00F190
:103270000E82DFEDA72AF4EEE27AF1EE10FA72FE8A
:10328000A77A37EEC33ADFEDA42A63EE222AE2EEF4
:10329000AFBAFDEE002AF4EEE2BAF1EE10FA00F158
:1032A000F381F5EE002AF4EEE2BAF1EE10FA72FEC6
:1032B000ABBADFED9A2AE3EE227AFDEE002A77EE32
:1032C000AB7AF4EEE27AF1EE10FA07D4DFED902A51
:1032D000F4EEE27AF1EE10FA72FEA72ADDED167A2C
:1032E0009DED152A7DEE677ADFED8D0A3CEEC22A50
:1032F0008C4B67EE847AC3ED002AE4EEC27A9FED30
:103300008A2AB0EE673ADFED897A67EEE37AE3EE78
:10331000027AF4EEE07AF1EE10FA07D4DFED840AD7
:10332000F4EEE07AF1EE10FA70FEA70A814BDDEDC3
:10333000027A83ED003A9FED803A37EECD2A7F4B3B
:1033400033EE6C3AC3ED000A62EE027A7C4BB5EEC6
:10335000C03AC3ED003AF1EE10FA00F1778177EE52
:10336000AA7AB0EE6A3AF1EEE73ADFED767AB4EE99
:10337000E76AF1EE10FAC0F26081DFED737AF4EEE5
:10338000E73AF1EE10FA05D9F4EECC3AF1EE10FA84
:1033900000F39B81DFED6D0AF0EE6A7AB0EE603AE1
:1033A000604BC3ED007AF7EE004A9DED087A82EE9D
:1033B0008B4A674BB4EEE46AB0EE001AF0EE082ACE
:1033C000F1EE10FAF1EE087A21EEE00A34FE862AD8
:1033D000E2EE412A74EEC64A22EE022A66EE277A0F
:1033E00060EE8F0AA3EE0F0A62EE822A9FED592A41
:1033F00067EEA47AF0EE6E4AE3EE210AE7EE224A87
:1034000067EE272ADBED007A93ED003A74EEE77A57
:1034100067EE827AE2EE847A9FED4F4AE3EE447AD9
:103420009FED4E4AF4EEC47AF1EE10FA00F12981D4
:10343000F4EEC27AF1EE10FA72FE277A9FED484A56
:103440006FEE84FA39EE6F4AB4EEE74AF1EE10FA05
:1034500000F3148179EE2FFAF4EEEF7AF1EE10FA20
:103460003FFEA79A3F4A9DED077A82ED009A3E4AB9
:10347000DBED007AC2ED004ADFED324A77EE677A83
:10348000B4EEE46AF0EEE77AF1EE10FA80F2AE8084
:10349000F0EEE55A9FED357AF4EEC75AF1EE10FAE8
:1034A00000F2B7809FED287AB4EEC75AF1EE10FA19
:1034B00000F2AF809FED2E7AF4EEC77AF1EE10FAAB
:1034C0000AD8D3ED007A9FED2B7AF0EEE77AF4EE8E
:1034D000C77AF1EE10FA0DD9124BC3ED00AA174BC3
:1034E000C3ED00AA0A9B002B00F0E080CDF82880F5
:1034F0004FF00008B0EE491A1AA91F4805F004FE63
:10350000002800F00B8139E0A00500209A99B93F0E
:103510003333B33F9A99993FCDCC4C3F3333B33ECD
:103520009A9999BEA80500209A9919C0AE47613EA4
:103530009A99993E9805002048E17AC094050020A8
:10354000900500209A99593F8FC2F53C0000000079
:10355000B0050020CDCC0C40CDCC4C3ECDCC0CC029
:1035600033337340A40500208C0500206F12033C08
:103570000AD7A33C0AD7233DC0CB01081AA8FEF7FF
:1035800075FC002800F0DA8009F06CFE1EA905F039
:10359000B1FFA0B9059B5BB9844805F061F9844B84
:1035A00005221A60002065B0BDEC108BBDE8F08FDD
:1035B000CDE91E00CDE920007E4805F051F9069BBB
:1035C000F31AF92B66D807F0C5FCB8F1000F09D043
:1035D000099B002B68D0F31A3B2B4FF0000300F23D
:1035E000B38009930023B04605938BE49FED726A84
:1035F000F4EEC63AF1EE10FA0BD828EEA87AAEEE49
:103600000E7AF1EEC76AF4EEC66AF1EE10FA7FF6B2
:1036100051AF9FED6A7AF4EEC77AF1EE10FA1AD83C
:103620001B684FF0000865E77AEE622AF4EEE27A52
:10363000F1EE10FA37FEA2AAF4E524EEE03A60EECD
:10364000840AA4EE223AE4EEA20AACE6E3EE037AA0
:10365000B1EE433A87E64FF000084BE7F0EE4CFA44
:103660007BE4B0EE6A6AF0EE6A2A32E50123CDED22
:10367000176A8DED187A8DF86430B4E4B0EE449A90
:10368000F0E6F0EE447AD9E6F0EE62BA11E6F0EE3A
:10369000627AF6E51EA93046FDF70AFA069692E729
:1036A000012009F0E5FD2DE409969BE74448CDEDA6
:1036B0000A0A8DED030A05F0D3F8DDED0A0A9DED47
:1036C000030A13E7B0EE6A5AF9E4DFED3E0ADFEDD4
:1036D0003E7A62EE200A9FED3D4A23EE273A60EEE5
:1036E000A04AE3EE034AF1EEE47AF4EEC47AF1EE96
:1036F00010FA1ADCDFED364AF4EEE47AF1EE10FA55
:103700007FF54EAE84EEA74AF0EE647A23EE043ADB
:1037100060EE840A44E6F7EE002ADAE4244B06223F
:103720001A603FE7DFED2B2AD3E4C4EE274AF0EE20
:10373000447A23EE243A60EEA40A31E61C4B1A6860
:10374000092A7FF42DAF2DE7234ADDED077AC2ED7C
:10375000007A224A1360224A1360FEF7BBFBFFF790
:103760008CBBCDED111A8DED106ACDED0F5ACDED5C
:103770000E3A8DED0D3ACDED0C4A8DED0B4A8DEDE7
:10378000035A12F05BFDDDED111AF0EE407A9DED6B
:10379000106ADDED0F5ADDED0E3A9DED0D3ADDEDCF
:1037A0000C4A9DED0B4A9DED035A21E524B3010817
:1037B000BC05002000B301080AD7A33D0AD7A33CEB
:1037C000CCB201089A99993F9A9999BF6666E63EEC
:1037D0008FC2F53D000000008C050020A8050020E8
:1037E000A40500202DE9F04FA74B0D462DED068BCB
:1037F000ADF53D7D11921A6815900132079201D105
:103800000122079200241A6009F02CFD012DA0F17D
:103810002803A0F10A0B0D9022940B93CDE92444C8
:10382000CDE92644CDE92844CDE92A44CDE9204418
:1038300000F01E82079E3CA8944D60213346944AB6
:103840000095129013F0A4FE159A3346029494AC9E
:10385000A021019220468F4A00951B9413F098FEF8
:10386000204604F0FDFF8C4B1C68003C18BF01246F
:103870008A4B00229FED8A9A1C709046894BF0EE8D
:10388000498AF0EE49AADFED889A83ED009A9246C4
:10389000864B9FED87AA83ED009A864B139283EDAA
:1038A000009A854B169283ED009A844B0F9283ED1C
:1038B000009A0D9B1A920A9301230E920C93179271
:1038C00014921092CDE9182209F0CCFC0D994EF615
:1038D0005F230690A0EB0109994500F2E681069B63
:1038E0000B9A9B1A272B00F2808140212CA808F00C
:1038F00019FF20B32CAC002752462518CDE9089BB0
:1039000008E054AB9F54002A40F0EE8000220134BE
:10391000A54211D023780A2B18BF0D2B0CBF01260E
:103920000026EED0511C7F2900F21481013454A8E6
:10393000A54283540A46EDD1DDE9089B9246069BD9
:10394000A3EB0B03092B40F26981069B0A9A9B1A91
:1039500007EE103AB8EE477A27EE297AB4EEE97A04
:10396000F1EE10FA00F14E81DFED557AB4EEE77A10
:10397000F1EE10FA37FE878AB0EE480AFCF7EEFF48
:10398000B8F1000F00F0EC80069B109A9B1AB3F57B
:10399000AF7F00F2E580F0EEEA7AB7EE087AF4EE57
:1039A000C77AF1EE10FA40F34B81464B9FED467A11
:1039B000D3ED007A9FED451A67EE677A9FED447A62
:1039C000EAEE877AF4EEC17AF1EE10FA07D49FEDB1
:1039D000411AF4EEC17AF1EE10FA31FE271A0E9B6D
:1039E000002B00F02A81DDE914329B1A642B40F38E
:1039F0002A819FED397ADDF8388068EE0A7A77EE11
:103A0000686AF4EEE67AF1EE10FA40F1DE8078EEC4
:103A1000A78AF0EE496AB1EE680AE8EEA86AF1EE0C
:103A2000E67A204B28A92D48F0EE490AC3ED007A2A
:103A30001E4B83ED001A05F067FB002800F0438160
:103A400028A8FEF713FA002800F0E48109F00AFC28
:103A500024A905F04FFD002840F09B800C9B002B13
:103A600040F090801E4804F0FBFE1E4B05221A60B9
:103A700000230A4A0E9313700E980DF53D7DBDECA0
:103A8000068BBDE8F08F00BF6405002064B5010817
:103A900038B5010880B50108E8040020E6040020DC
:103AA00000000000A80500206F12833AA405002042
:103AB000CDCCCC3D98050020940500209005002039
:103AC000CDCC4C3DB00500200AD7A33DEC5138BE0B
:103AD0000AD7233DEC51383ECDCCCCBDC0CB01083C
:103AE00024B30108BC0500200DF5E87A0DF17C092E
:103AF0000DF1780B1846FDF7E5FF1DAB1CAAAF4989
:103B000054A8CDF808A0CDF80490CDF800B013F07B
:103B100071FD052803D11C9B079A934242D054A8FB
:103B20001CAAA74913F066FD01287FF4EFAE1C9B89
:103B3000079A93427FF4EAAE0F9B5A1CA14B02FBFB
:103B400003F30F9213F1333FFFF4E0AE9E4804F00D
:103B50003BFEDBE69D48B04604F082FE3246D6E6E8
:103B60000E9B002B47D1119B99455BD2169B002BD6
:103B700070D001239FED961A9FED967A4FF00008C2
:103B800016933AE7CDE92400CDE92600924804F0E7
:103B900067FE07F0DFF9DDF818B00023CDF828B094
:103BA0000C9391E61F9BB3F5487FB8D1749BB3F596
:103BB000167FB4D1DDF8749041F27073994540F2EC
:103BC0008680864804F000FEA0E6B1EE676AF4EE57
:103BD000C66AF1EE10FA18D578EEE78AF0EE496A77
:103BE000B1EE680AE8EEA86A19E7129804F004FE3C
:103BF000069B0B9379E6B0EE491A4FF00008B0EE41
:103C0000497AFAE6B0EE698AB6E6F0EE496AB1EEB4
:103C1000470AF0EE478AE7EE076A00E7012009F05D
:103C200027FB51E6139BFBB10123B0EE491AB0EE1E
:103C30004A7A4FF000081393DFE6B0EE497ADCE6EB
:103C4000B0EE491ACBE664332CDA9FED657ADDF8E5
:103C50003880D2E6119B8021624A74A813F098FC48
:103C600074A804F0B1FD84E75F4804F0ADFDDBE724
:103C7000079E3CA85D4D602133465D4A0095129039
:103C800013F086FC159A3346009594AD0192A0215D
:103C9000584A284602941B9513F07AFC284604F0F3
:103CA000DFFDE5E59FED4A7AA7E6FEF713F900236D
:103CB0005149524A0B60524952480B600B23136022
:103CC00004F0CEFDD4E64D4B06221A60D0E6179BD9
:103CD0004BB1189BA9EB0303002BB8BF5B42B3F5B4
:103CE000E16F3FF76EAF1999474AA2FB013222F00C
:103CF000010303EB520320AACB1A42F823904B1C7A
:103D0000022B199300F28C80DBED00AAF0EE046A1E
:103D1000DFED3E7AF8EEEAAA6AEEA7AAB0EEEA6A0A
:103D2000B7EEEA7AB4EEE66AF1EE10FA2CD81A9BF6
:103D3000022B03D80133032B1A9327D1149BA02104
:103D4000DDF86C8000930123314A404604934B46D2
:103D50008DED027B13F01CFC404604F035FD199AF2
:103D6000022A24D90E9A12B3DDE914329B1A002BD1
:103D7000B8BF5B42642B68DD0E9BCDF8609098461F
:103D80001793069B1093C1E500231A93149BA0215F
:103D9000DDF86C80009300231D4A404604934B4697
:103DA0008DED027B13F0F4FB404604F00DFD069B05
:103DB000B046CDE917691093A8E500BF78B30108B4
:103DC00048B40108CDCCCCCC70B4010898B401083B
:103DD00000000000CDCCCCBD00B3010820B4010828
:103DE000CDCCCC3DC0B4010800B50108C8B5010870
:103DF00038B5010880B50108A8050020BC050020E1
:103E0000A405002050B30108ABAAAAAA0AD7233CF4
:103E1000B8B30108124B1A68092A7FF427AE27E6C7
:103E2000DDE92031229A8B4214910ADD914206DCB1
:103E300014931346149A9A42A8BF1A4614920E96E7
:103E400062E79342F6DC1346F4E7064A064B126833
:103E500006481A6004F004FD0023054A13700BE6BF
:103E6000BC050020AC0500208C050020F8B301083B
:103E7000E604002060EEA07A0023F0EEE06A002263
:103E8000B0EEC07AE0EE007A2DE9F04FF4EEC76AAA
:103E9000DE4D2DED108BAFB0F1EE10FAB1EEE79ADA
:103EA00095ED006A1E932293189321932593B0EE0B
:103EB000608AF0EE408A8DED086AB0EE41AA129257
:103EC000B0EE61BA1392B0EE42DA1492F0EE62EA0A
:103ED000CDE91F33CDE92333CDE91933CC4BD3EDF5
:103EE000007ACDED057A40F37E82F1EE047ACDEDD5
:103EF0000A7AF5EE007ACDED077ADFEDC6DA09F041
:103F0000B1F9B4EEED9AF1EE10FA00F16382DFED53
:103F1000C27AB4EEE7BAF1EE10FA40F25B82B4EE88
:103F2000E7DAF1EE10FA40F25582BC4BC8EE89BADE
:103F3000DFF814830021C3ED007A8246B84B0446B3
:103F4000C8ED007AC3ED007A88EE09CAB54B9DED45
:103F5000057AC3ED007AB44B37EE2E7A0B91C3EDA0
:103F6000007AA0F1FA03F0EE67FA0D91B0EE679ACD
:103F70000993B0EE678A0123F0EE678A8DED0C7A23
:103F8000F0EE67CA0493F0EE67AACDED02EA069060
:103F900009F068F9069A43F697238146821A9A42F5
:103FA00000F21482A14E336823B1A14B1B78002B81
:103FB00040F0D382A9EB0A03092B40F2B582A9EBAA
:103FC00004030AF10A0A07EE903AA9EB0A03F8EE95
:103FD000677A092B88BFCA4667EEAD7AF4EEED7AB0
:103FE000F1EE10FA00F18B829FED922AF4EEC27A84
:103FF000F1EE10FA72FE27EAC8EE8A7AF5EEC07A80
:10400000F1EE10FA00F17682F7EE009AB0EE007A47
:10401000F4EEE97AF1EE10FA79FEA79AF0EE087A5A
:10402000E9EEC77A29EEA97A67EE877A9DED027AE2
:10403000B0EE6E0A9DED05EA754BA7EE27EA83ED1B
:1040400000EAFCF78BFC14AB12AA22A97A48009371
:1040500013AB05F0D1F80446002800F0BB819DEDBC
:10406000087AD5ED007A77EEC77AB0EE670ACDED23
:10407000037A12F00DFAB0EE40FA9DED030A12F049
:1040800007F9DDED130AF0EE401ADDED127A20EEAD
:10409000800A9DF8683060EE8F0AA7EE8F0AE1EE85
:1040A000E70A002B00F02E82B0EE6E2A18A8B0EEC0
:1040B0004F1AFDF753FB9DED180ADDED190A6CEE62
:1040C000204A5E4B7AEE687A6BEEA00A93ED006AA6
:1040D000EBEE804A3DEE0D7AECEE400AE4EEAECA1D
:1040E000F0EEE46AE0EEAEFAA6EEAE6A7AEE6C5A54
:1040F000F4EEE5AA83ED006A494BF1EE10FAF4EE16
:10410000E7AAC3ED00FA484B3AFEA50AF1EE10FA11
:10411000C3ED000A7AFEA77AF4EEC07AF1EE10FA47
:1041200030FE270A20EE070AB5EE400AF1EE10FA3B
:1041300000F11A84F1EEC07AB4EEE7BA2DEE2E7AD1
:10414000F1EE10FA77FE8B7AB4EEE78AF1EE10FA10
:1041500040F1748138EE077AB4EEE77AF1EE10FAA6
:1041600037FE878AE8EE2E8A9DED025ADFED387A17
:10417000B0EEC56AF4EECA8AF1EE10FAB4EEE76A60
:104180007AFE288AF1EE10FA40F35581C8EE0A7AD9
:10419000B1EE087A25EE077AB7EE005A27EE297AB3
:1041A00035EE695A27EE057A27EE277A78EEEC7A13
:1041B0009FED235A67EE857ABDEE005AF4EEC57A7C
:1041C000F1EE10FA07D4B5EE005AF4EEC57AF1EE2E
:1041D00010FA35FE275A38EE055AFDEE007AB4EE95
:1041E000E75AF1EE10FA05D4B4EECB5AF1EE10FA1C
:1041F0007BFE057A77EEE44A9FED124ABDEE005A47
:1042000024EE844AA4EE2E9A24E000BFAC050020E0
:104210008C0500206F12833A00000000A8050020E2
:10422000980500209405002090050020E804002057
:10423000E7040020CDCC4C3DC0CB0108A0050020F8
:104240009A99993FCDCC4C3FA40500203333B33E1F
:1042500017B7D138B4EEC59AF1EE10FA00F15A81D1
:10426000B5EE005AB4EEC59AF1EE10FA35FE099A91
:104270001FED0A5AE4EE857ABDEE005A77EE897A90
:10428000F4EEC57AF1EE10FA05D4F4EECB7AF1EE45
:1042900010FA3BFE275A5FED127AB44BB4EEE76A90
:1042A00083ED005AF1EE10FA00F3F580F0EEC57AD6
:1042B000DFEDAF4A9FEDAF4A67EEA47AC7EE844ABE
:1042C000DFEDAD7AF4EEE74AF1EE10FA77FEA47A6C
:1042D000B1EE674AD5ED004ADDED0A3A74EECE4AFA
:1042E000A64FF1EE639AA3EEE47AD7ED004ADDED36
:1042F000073AA4EEE37AB4EEC47AF1EE10FA05D4EC
:10430000B4EEE77AF1EE10FA37FE874ADFED9C7AD9
:104310009FED9C7A67EEE07ADFED9B0A88ED004A1C
:10432000EFEE877AF4EEE07AF1EE10FA07D4DFEDE3
:10433000970AF4EEE07AF1EE10FA70FEA70AF0EEBA
:10434000E55A9FED937A934B6CEE607AF4EEC75A80
:10435000C3ED000A6BEEA00A95ED007AEBEE857ACC
:10436000F1EE10FAECEE050A71D9DDED0C6A36EECD
:10437000C77ADFED896AB0EEC77AB4EEE67AF1EE7D
:1043800010FA00D83B684FF0000B21EEE00A98EDE0
:10439000001A60EE8F0A1EA98048A7EE8F0AE7EE8A
:1043A000A10A04F0B1FEA8B11EA8FDF75FFD044606
:1043B000002800F0CC8008F055FF22A905F09AF8FB
:1043C00008BB049BC3B9764804F04AFA754B052232
:1043D0001A6002E0734B06221A6000202FB0BDEC79
:1043E000108BBDE8F08FF2EE027ACDED0A7ADFEDA8
:1043F000677ACDED077A80E5CDE92200CDE924008A
:10440000694804F02DFA099BA9EB0303F92B00F28C
:10441000848006F09FFDBBF1000F41D00B9B002B69
:1044200000F08880A9EB03033B2B00F2CB80002334
:104430004C460493ACE5B0EE6A7AB7E638EE477ABC
:10444000F4EEC77AF1EE10FA37FE878A8AE6DDEDE0
:104450000C5A35EEC77ADFED505AB0EEC77AB4EE9B
:10446000E57AF1EE10FA21D897ED007ADFED4F5A98
:10447000B0EEC77AB4EEE57AF1EE10FA16D89FEDF9
:104480004C7AF4EEC76AF1EE10FA94BF4FF0010BCC
:104490004FF0000B79E79FED474ADFED377A19E7D8
:1044A0004C46CDF82CB0CDF810B071E59FED407AB8
:1044B000F4EEC76AF1EE10FA3FF665AF9FED3E7A73
:1044C000B4EEC76AF1EE10FA02D84FF0010B5CE7C8
:1044D0007FF759AF254BC3ED00AA2E4BC3ED00AAC1
:1044E0000D9B63B3F0EE6A0A4FF0000BDFED337AF9
:1044F0000D944AE7F0EE6A7ADFED309A96E5F0EE39
:104500006DEA79E501238DED180ACDED190A8DF8D4
:104510006830D4E5B0EE459AAAE622A94846FCF7F1
:10452000C7FACDF8249074E7A146012008F0A0FE58
:104530004C462DE54C46CDF82C90049328E52048B8
:10454000CDED031A04F08CF9DDED031ACAE7154B23
:104550001A68092A7FF43BAF3FE7FDF7BBFC002355
:10456000024A1360C8F8003037E700BFA8050020F2
:104570006666263F7B14AE3E3333333FB0050020E2
:10458000AE47613E9A9919C09A9999BE9A99993EF7
:104590006F12033C940500200AD7A33CC0CB01084E
:1045A00024B30108BC05002000B301080AD7233D4D
:1045B0008FC2F53C333333BF17B7D138000000004A
:1045C000D8B50108DDED0C7A4FF00009C64BDFEDE0
:1045D000C78AC3ED007A00239FEDC5AA26932A93CC
:1045E0001B9329932D939FEDC3BADFEDC3AA9FEDD3
:1045F000C39ADFEDC3CACDE92733CDE92B33CDE92B
:104600001C33C04BC3F8009008F02CFEBD4BBE4AD3
:10461000C3F80090C2ED00FABC4A0290C2F80090C4
:10462000A0F1FA0201200392FCF7FCF9DDF808B0D2
:104630000023D946049308F015FE029B8246C31A54
:10464000B3F5FA5F80F08781A0EB0903092B40F2F4
:104650003F81A0EB0B0309F10A0907EE903AA0EBAA
:104660000903F8EE677A092B88BF814667EEA87ABE
:10467000F4EEE87AF1EE10FA00F112819FEDA48ACF
:10468000F4EEC87AF1EE10FA38FE278AB0EE480A46
:10469000FCF764F917AB15AA2AA9009316AB9D483D
:1046A00004F0AAFD00283FF495AEDDED087AD5EDC3
:1046B00000DA7DEEE7DAB0EE6D0A11F0E9FEB0EE59
:1046C00040DAB0EE6D0A11F0E3FDDDED160AF0EE12
:1046D000401ADDED157A20EE200A9DF874306DEE5B
:1046E000200AADEE270AE1EEE70A002B00F0DB809E
:1046F000B0EE482A1BA8B0EE4D1AFDF72FF89DED3D
:104700001B0ADDED1C0A6BEEA00A834BDDED076A88
:10471000ECEE400AC3ED000AD3ED007A7A4BE8EEE6
:1047200027FADDED0C7AC3ED00FA95ED007A37EE4D
:10473000677AD7ED007A67EEE67AE9EE877AF4EEEB
:10474000CA7AF1EE10FA00F1B9809FED747AF4EEB6
:10475000C77AF1EE10FA77FE277A6F4BC8ED007A30
:10476000D3ED007A6BEE677AEFEEAA7AF4EEC97AAF
:10477000F1EE10FA00F19F809FED697AF4EEC77AAE
:10478000F1EE10FA77FE277A604B26A96148C3ED57
:10479000007AD3ED007AD3ED000A6CEE677A98EDDB
:1047A000001A6BEEA00A20EEE10A6DEE200AADEED3
:1047B000270AE1EEA70A04F0A7FC00283FF40AAE9E
:1047C000584B1B6843B93368002B40F08580564B2B
:1047D0001B780BB9FDF736FA05F0ACF820B905F0F7
:1047E000AFF8002840F0AE8026A804F035FE28B9C6
:1047F0004E4B1A68092A7FF4EAADEEE508F032FD67
:104800002AA904F077FE48B9002C3FF4DCADCDE9CD
:104810002A00CDE92C00464804F022F8039BAAEBBD
:104820000303F92B4DD806F095FBF0EEEF7AF4EE8A
:10483000EC7AF1EE10FA30D8374B9FED3E7AD3ED9B
:10484000007AF0EEE77AF4EEC77AF1EE10FA24D8A7
:10485000D5ED007ADDED0C6A9FED377A77EEE67ADA
:10486000F0EEE77AF4EEC77AF1EE10FA15D8D7ED4C
:10487000007A9FED327AF0EEE77AF4EEC77AF1EE45
:1048800010FA0AD8049B002B62D0AAEB03033B2B3F
:1048900000F28480D3460024CDE600230493F9E798
:1048A000B0EE688AF2E601238DED1B0ACDED1C0AFD
:1048B0008DF8743027E7F0EE497A65E7F0EE4A7A32
:1048C0004BE72AA95046FCF7F3F8CDF80CA0AAE76D
:1048D000012008F0CDFCAEE6194B1B78002B7FF4CD
:1048E0007BAFFCF7F5FA77E78C0500206F12833A6F
:1048F0003333B3BEAE47613E9A9919C0EC5138BE0E
:104900006F12033CA80500209805002094050020A4
:10491000CDCC4C3DC0CB0108900500203333B33ED5
:10492000EC51383EDC0400206F050020BC0500205F
:1049300000B301088FC2F53C0AD7A33C0AD7233D38
:10494000E6040020FBF7C2FF194B09221A6050E76A
:10495000CDF810A09EE70023164A03201360FCF751
:1049600061F8FDF7B7FA39E5CDED111ACDED105A22
:10497000CDED0F0ACDED0E4ACDED036A11F05EFCD0
:10498000DDED111AF0EE407ADDED105ADDED0F0A83
:10499000DDED0E4ADDED036AFFF7CEBB0023054ACD
:1049A00002201360FCF73EF8FDF794FA16E500BF0D
:1049B000BC050020940500202DE9F047C6B0602119
:1049C00006A807F0AFFE002835D006AD934E944FF1
:1049D00005EB0008DFF8A49206E0611C7F292DD8C2
:1049E00031603B55A84526D015F8013B34680D2BA6
:1049F00006D0A3F10A02B2FA82F25209002AECD0E0
:104A00000023884986483B5512F000FF824650B18A
:104A1000B84208D0FBF766FC044651463846621C93
:104A200012F05AFE346014B1D9F80030E3B9002313
:104A3000A8453360D8D146B0BDE8F087DFF840A282
:104A400032609AF80020D9F80030002A5DD0764A0A
:104A50000192A021754A1EA80092754A12F098FD95
:104A60001EA803F0C9FEBDE705AC72480DF11302A4
:104A70002146FCF7A3F9002849D02368D9F8002083
:104A8000DFF8FCA193425CD00DF1130221466A4885
:104A9000FCF794F920B12368D9F8002093426BD039
:104AA0000DF1130221466548FCF788F920B123680F
:104AB000D9F80020934277D00DF1130221466048C7
:104AC000FCF77CF928B12368D9F80020934200F064
:104AD00082800DF1130221465A48FCF76FF9D9F88C
:104AE00000309AF8002010B124689C4214D08AB19A
:104AF0004D4A0192544A00924D4AA0211EA812F03C
:104B000047FD1EA803F078FE91E7504AA0E7DFF8C2
:104B100070A1B9E74D4AECE79DF813109142E6D138
:104B20004B4B00224B481A7003F04EFE9AF80030AF
:104B3000002B6ED03C4B434A009323460192464AD9
:104B4000DBE79DF813109AF8002091429CD1434A6C
:104B5000127812B9424A012111704248039303F0BE
:104B600033FE9AF80020039B002A4CD1374A00926A
:104B7000304A0192384AC0E79DF813109AF8002095
:104B800091428DD1384A012138480393117003F0C6
:104B90001BFE9AF80020039B002A36D0224A00927E
:104BA000254A01922C4AA8E79DF813109AF8002094
:104BB000914281D12E4A01212E480393117003F0B6
:104BC00003FE9AF80020039B0AB3174A00921B4A7F
:104BD0000192214A91E79DF813109AF80020914222
:104BE0007FF477AF1A4A012123480393117003F031
:104BF000EBFD9AF80020039B6AB10B4A0092104A21
:104C00000192154A79E7084AB1E7104AC7E70F4A07
:104C1000DCE70E4B8FE70D4AF0E700BF7C03002076
:104C2000FC02002090A7010820A701085CB701083A
:104C300024B7010894A90108D4A9010810A9010802
:104C4000C4B60108F4B6010854B7010824A7010846
:104C5000D4040020FCB6010844B60108D5040020A5
:104C6000D80400201CB60108D704002074B601083F
:104C7000D60400209CB60108CCB60108DC04002054
:104C8000E4040020B5EEC00A00230022F1EE10FA81
:104C90002DE9F04F2DED108BC1B0B0EE60CA10932E
:104CA00014930D920E920F9213931793CDE9113333
:104CB000CDE9153300F16783F7EE00CADFF8F4B1F0
:104CC000B0EEC0BADFF8F0A1DBED00BA08F0CAFA26
:104CD000A0F1FA035F4902460793DAF80030096849
:104CE000002B00F024830B1E4FF0010EB6EE00EAFD
:104CF000DFED59EA18BF01239FED58AADFED58FAFE
:104D0000F4460A93574B0593DFED577AB0EE6F9A4E
:104D1000564B16465649B0EE67FAC3ED007AF0EEF0
:104D2000678A544BF0EE679ADFED53AA4FF0000804
:104D3000C3ED007A1546514BDFED51DAC3ED007A31
:104D4000504B9FED51DAC3ED007A504BCDF818C0AF
:104D5000C3ED007ADBF80030CDF820E00B600123D2
:104D60000492039308F07EFA049A0290831A059A3B
:104D7000934280F00F83069B002B00F0BC800A9BBF
:104D8000002B00F0F981334B1B680993FCF7E8FD19
:104D90003F4B1F78002F40F07F823E4C2378002B42
:104DA00000F0A980FDF796F8002800F0A983012300
:104DB000394A27701370394B1B78002B40F0CA8298
:104DC000374B18AF0193099BA021364A3846009310
:104DD000354B12F0DDFB384603F00EFD08F042FAC9
:104DE0002D4B81461B784BB985E006F0B3F80A20BD
:104DF00008F03EFA284B1B78002B7CD008F032FAE2
:104E00000446FCF7ADFD04F09BFDA4EB090200286D
:104E100040F0C4821E4B1B78002B40F02D832349A9
:104E20000978002940F05583F92ADED91B4B1B78FD
:104E3000002B00F0A6821E4A099938461A4BA1465B
:104E4000CDE90012174AA02112F0A2FB384603F068
:104E5000D3FCCAE7D00400200AD7A33D9A99193F92
:104E6000CDCC4C3EC0D4010000000000A8050020BD
:104E70008C050020A40500206F12833A98050020BD
:104E80000AD7A33C94050020CDCC4C3D90050020D2
:104E9000CA040020CC040020C9040020CD04002056
:104EA00024A7010874B70108A0B70108CB040020AB
:104EB00020A70108AC050020DC0400209C4A9D4985
:104EC00013709D4A0B9D127823700B70002A00F01E
:104ED0001D839A4B01938021099B3846984A009381
:104EE000984B12F055FB384603F086FC964803F0C9
:104EF0006BFC01230393029B9B1B092B40F2BA819D
:104F0000029B0A365A1B08EE102A1A469B1BB8EE63
:104F1000488A092B88BF164628EE2A8AB4EEEA8A08
:104F2000F1EE10FA00F1FD80B4EECD8AF1EE10FA48
:104F30003DFE088AB0EE480AFBF710FD0FAB0DAA44
:104F400014A900930EAB814804F056F9002800F034
:104F50001D82DBED007AF5EE006A77EEEB7ADBED91
:104F600000BAB0EEE76AB4EEE66AF1EE10FA07D8DE
:104F7000ACEEA7FAF4EECF9AF1EE10FA39FE8FFA02
:104F80007BEE4F7A089BF4EEE79AF1EE10FA79FE89
:104F9000A77A002B00F0C280664B6EEE086A1B7881
:104FA000002B0FFEAE6AB4EEC69AF1EE10FA40F195
:104FB0005A8139EE269A89FE469A3AEE0A0A20EE7E
:104FC000270AB5EE400AF1EE10FA00F1AC82F1EEDC
:104FD000C07AB4EEE79A6AEE086AF1EE10FA38EE9B
:104FE000E66A77FE897A67EEAC7AF4EEC67AF1EE7D
:104FF00010FA00F1998078EEA68AF4EEE87AF1EEE4
:1050000010FA78FEA78A6CEE680A514BB0EE681A67
:1050100010A9B0EE690A4D48F0EEE07AC3ED007ACF
:105020004C4BC3ED008A04F06FF8002800F0AE810D
:10503000DAF800304BB9484B1B68002B40F01F8159
:10504000464B1B780BB9FCF7FDFD04F073FC20B94F
:1050500004F076FC002840F0648110A804F0FCF90C
:1050600058B93F4B1A68092A01D005221A6000205E
:1050700041B0BDEC108BBDE8F08F08F0F3F814A937
:1050800004F038FA78B9039B33B9364803F0E8FBEB
:10509000334B05221A60EAE7CDE91400CDE916008A
:1050A000314803F0DDFBDDED0F7A304BF0EEE77AAF
:1050B000079AD3ED006A67EE8C7AE7EE886AC3ED53
:1050C000006A029B9B1AF92B00F2C68005F042FF92
:1050D0007BEE6D7AF4EECF7AF1EE10FA19D8244B0C
:1050E0009FED247AD3ED007AF0EEE77AF4EEC77AFA
:1050F000F1EE10FA0DD8B8F1000F00F0C880029B55
:10510000A3EB08034F2B00F2078200230393029DB9
:1051100028E64FF00008CDF80C80F8E7B0EE6F9A63
:105120004BE7B0EE6A8A05E7F0EE468A6BE700BF10
:10513000D5040020D4040020E404002020A70108A6
:10514000B0B70108A8B70108F0B70108C0CB010843
:10515000A8050020A4050020E80400206F05002019
:10516000BC05002024B3010800B30108A0050020FD
:10517000B00500200AD7233DDAF800300993FFF785
:105180001BFCA54B1B78002B40F0A080A34B1B7889
:10519000002B3FF4B0AEFCF79DFE002800F0B0817C
:1051A0009E4B0A9A1A7001239D4A13709D4B1B78DF
:1051B000002B40F0CD809C4B18AF0193099B8021C0
:1051C0009A4A384600939A4B12F0E2F9384603F0B7
:1051D00013FB08F047F88146964803F0F5FA904B28
:1051E0001B78002B3FF487AE934C0B9509E005F03C
:1051F000B1FE0A2008F03CF8894B1B78002B00F028
:105200007D8108F02FF80546FFF7D6FB04F098FBE8
:10521000A5EB0902002840F0DA807F4B1B78002BB9
:1052200040F03481217800297FF448AEF92ADED994
:105230007C4B1B78002B00F0A280804A09993846ED
:105240007B4BA946CDE90012784A802112F0A0F9E3
:10525000384603F0D1FACAE7029C14A92046FBF7AE
:1052600027FC079432E77FF7A8AE39EE669A89FEED
:10527000069AA2E6012007F0FBFF029547E7704B74
:105280001B78002B7FF4E1AEFBF722FEDDE6002366
:10529000DDF8088003933AE7FCF71CFE002800F0D5
:1052A0002F81684B1B78002B58D15F4B099AA021A6
:1052B000019318A8644B0092644A12F069F918A887
:1052C00003F09AFA0023624A137024E0FCF702FE0E
:1052D000002800F01581534B1B78002B3CD1524B1A
:1052E00001938021099B18A8504A0093564B12F055
:1052F0004FF918A803F080FA0023474A4749137072
:10530000474A0B701370534A4B491370524ACAF8FC
:1053100000300B701360DBF8003001204F4A13603F
:10532000A6E6FBF7D3FA4C4B09221A609AE6B9B10C
:10533000DFED4BEA9E464FF0010C4A4BF0EE6EFA61
:105340009FED49AA9FED49EA0593CDF828C0DBE41B
:105350003A4B31E7394B34E5384BC1E7374BA5E7DA
:10536000F7EE00EA42F6E0638E469FED41AA9FED1C
:105370003FEA8C46F0EE6EFA05930A91C4E42A4A9D
:105380005CE7294A58E5FFEE00CA97E4324B062253
:105390001A606CE6304B07221A6068E6FCF79AFD4B
:1053A000284B1B78002B6FD0244B0193A021099B25
:1053B0003846264A0093244B12F0EAF8384603F0A8
:1053C0001BFA00232B4A1370214A1370A3E7FCF742
:1053D00081FD144B1B78002B00F09680174B019336
:1053E0008021099B3846114A0093174B12F0D0F8E0
:1053F000384603F001FA0023084A09491370064AA7
:10540000CAF800301370134A0B701370124A1360FD
:10541000094A13707FE700BFD6040020D80400209B
:10542000D5040020E404002024A70108B0B7010837
:10543000A0B70108D4B70108D704002020A70108AD
:10544000E6040020CD0400206CB7010874B7010801
:10545000CA040020D4040020BC0500208C050020D4
:10546000CDCC4C3EC0D401009A99193F00000000F9
:105470006666E63FC9040020FCF72CFD00283FD0FB
:105480002B4B1B78002B8FD12A4B8EE7FCF722FD8C
:10549000002835D0284B1B78002B3BD0274B01939D
:1054A0008021099B3846264A0093264B12F070F85B
:1054B000384603F0A1F90023234A24491370244AF3
:1054C000CAF800301370234A0B701360224A13701D
:1054D00021E7224A1370224A1370154B1B78BBB187
:1054E000164B0193A021099B38461E4A00931E4B80
:1054F00012F04EF8384603F07FF9FAE40B9DFAE417
:10550000144B05221A60B2E50A4B68E7094BE1E447
:10551000084BE6E7074BC2E7DBF80030134A13609D
:10552000FCF7D8FCA4E510F089FEF0EE407A50E5D7
:10553000CD04002024A70108E404002020A70108CE
:10554000B0B701086CB70108D8040020D5040020CA
:10555000D6040020BC050020D7040020CB04002086
:10556000C904002074B70108A8B701088C05002001
:10557000014B1878704700BF7A05002038B507F056
:1055800071FE0446FCF702FC174B1B78E3B9174881
:1055900040F6B73503F064F909E0FCF7F7FBC0B952
:1055A000FCF798FC03460120BBB107F061FE07F051
:1055B00059FE001BA842F0D90D4803F051F90D4BDC
:1055C00008221A60002038BD0B4803F049F9012079
:1055D00038BD0A4803F044F9F9E7064B1A68092A6E
:1055E000F0D005221A60EDE77905002040B80108E7
:1055F000A0B80108BC05002010B8010870B8010867
:1056000008B502F0BDFC05F0BDFBBDE8084004F0A4
:1056100035B900BF704B2DE9F0411E789AB03EB10C
:1056200000226E481A701AB0BDE8F04105F0A0BD26
:1056300002F05AFC6A4F07F015FE6A4B0F228046B3
:1056400069481A7005F094FD684803F009F907F0FD
:1056500009FEA0F57A7512E005F07CFCFBF738FC3A
:10566000631B00BB3A78002A40F08480B3F57A7F50
:1056700034D204F065F968BB0A2007F0F9FD02F0A6
:1056800039FC80B307F0EEFD044602F053FC00281D
:10569000E2D002F023FC064605F05CFCFBF718FCA8
:1056A000631B0028DED04D4805F062FD504803F032
:1056B0008BF802F013FCE0B1484805F059FD02F008
:1056C0000DFC01280CBF4B484B481AB0BDE8F04117
:1056D00003F0C6B8444805F04BFDCDE747482546E2
:1056E00003F0BEF8C5E7002E67D102F0F7FB0028F3
:1056F000E2D1A8F57A753A4E07F0B4FD044605F0FC
:1057000029FC631BB3F57A7F13D204F019F920BB8F
:10571000FBF7DEFB28BB3378002B32D102F00AFC0A
:1057200018B102F0DBFB002834D10A2007F0A0FDFD
:10573000E2E702F0A3FB054602F09AFB304A2B4653
:105740006021009002A811F023FF02A8254603F073
:1057500087F804F0F5F80028DAD0234805F008FDB2
:10576000CAE71E4805F004FD214803F079F81AB095
:10577000BDE8F081194805F0FBFC224803F024F84D
:10578000B3E7164805F0F4FC1E4803F069F81AB0B8
:10579000BDE8F081114805F0EBFC05F00BFD02F0CF
:1057A0009DFB012813D0022803D0174803F058F8B6
:1057B000DDE7114803F054F8D9E7084805F0D8FCB4
:1057C000012E0CBF0B480C4803F04AF88DE709483E
:1057D00003F046F8CBE700BF6E05002008B90108CA
:1057E000E5040020C00500200CB9010814B9010827
:1057F0004CB90108C8B80108E8B801089CB901080B
:10580000B8B9010874B90108E0B90108002918BF46
:10581000002884460CBF0120002039D0002B18BF7F
:10582000002A10B5029C0CBF4FF0010E4FF0000E85
:10583000012C98BF4EF0010EBEF1000F00D010BD3C
:10584000DFF858E09EF80040002CF8D08EF80000F9
:10585000DFF84CE09EF800E08CF800E0DFF844C090
:10586000DCF80040DFF840C00C609CF800C082F813
:1058700000C0DFF838C09CF800C083F800C050704A
:10588000044A5870107001200B68034A136010BD61
:1058900000207047E7040020E8040020F9040020FD
:1058A000F8040020F4040020F1040020F00400209B
:1058B000014B1868704700BFEC0400202DE9F0414F
:1058C0000446A2B01E4D1F4E1F4FDFF89C8001E022
:1058D00007F0CEFCFBF7FCFA04F032F805F03AFBD7
:1058E0002B680A20A34225D133786BB93B78002B73
:1058F000EED0D8F80030A342EAD1144B1B68013B2C
:10590000062BE5D8012016E0114B1B78B3B1114BE3
:10591000114A8021019302A8104B009411F038FE27
:1059200002A802F069FF002307490D4A2B6033707B
:105930000B701360002022B0BDE8F081094BE7E74F
:10594000E8040020E7040020F9040020EC04002013
:10595000F804002020A7010804BA01086CB7010868
:10596000BC05002024A70108F40400200038024BE5
:1059700018BF0120187070476D05002000231E49D4
:105980001E48002210B50B701D4903600B701D49A5
:105990001D4C0B701D491E480B601E4923700B6087
:1059A00003701D4C1D481E4923700B7003701D4C65
:1059B0001D481E4923600B7003701D4C1D491E4875
:1059C0000B70237003601D491D4B1E4C0A601E485E
:1059D00022601E491A601E4B02600A601A6004F0C1
:1059E00035FF1C4B1C4A1B681268134300D010BDC6
:1059F000BDE81040FAF76ABF71050020BC05002021
:105A00007A0500207905002070050020740500202B
:105A10006F05002060050020780500206C0500203F
:105A2000CD040020D0040020CC040020CB040020B2
:105A3000CA040020C9040020FC040020A80500209E
:105A4000A0050020A4050020980500209405002052
:105A500090050020E8040020DC04002008B507F0D1
:105A600001FC084B084AFA381B78106023B107483C
:105A7000BDE8084002F0F4BE0548BDE8084002F069
:105A8000EFBE00BF6D0500206805002028BA0108A0
:105A900050BA0108024B012202481A7002F0E0BE1F
:105AA0006F05002078BA0108FAF710BF084B1B6891
:105AB00053B9084B1B6823B9074B1B7823B9FCF774
:105AC000C1B8064B1B7803B17047FBF701BA00BFA2
:105AD000DC040020E80400206F050020E60400201C
