:020000040800F2
:1000000000000220D90700082D0800082D0800086C
:100010002D0800082D0800082D0800080000000029
:100020000000000000000000000000002D08000893
:100030002D080008000000002D080008D9AB0008BA
:100040002D0800082D0800082D0800082D080008BC
:100050002D0800082D0800082D0800082D080008AC
:100060002D0800082D0800082D0800082D0800089C
:100070002D0800082D0800082D0800082D0800088C
:100080002D0800082D0800082D0800082D0800087C
:100090002D0800082D0800082D0800082D0800086C
:1000A0002D0800082D0800082D0800082D0800085C
:1000B0002D0800082D0800082D0800082D0800084C
:1000C0002D0800082D0800082D0800082D0800083C
:1000D0002D0800082D0800082D0800082D0800082C
:1000E0002D0800082D080008000000002D08000859
:1000F0002D0800082D0800082D0800082D0800080C
:100100002D0800082D0800082D0800082D080008FB
:100110002D08000881A700082D0800082D080008F8
:100120002D0800082D0800082D0800082D080008DB
:100130002D0800082D0800082D0800082D080008CB
:1001400000000000000000000000000000000000AF
:100150002D0800082D0800082D0800082D080008AB
:100160002D0800082D0800082D0800082D0800089B
:100170002D080008DDAB00082D0800080000000075
:100180002D0800082D0800082D0800082D0800087B
:100190002D0800082D0800082D0800082D0800086B
:1001A0002D0800082D0800082D0800080000000098
:1001B0002D0800082D0800082D0800082D0800084B
:1001C0002D0800082D0800080000000000000000B5
:1001D00000000000000000002D08000800000000E2
:1001E000000000000000000000000000000000000F
:1001F00000000000000000002D0800082D08000885
:100200002D0800082D080008000000002D08000837
:100210002D0800082D0800082D0800082D080008EA
:100220002D080008000000002D0800080000000054
:100230002D0800082D080008000000002D08000807
:100240002D0800082D0800082D0800082D080008BA
:100250002D0800082D0800082D0800082D080008AA
:100260002D0800082D0800082D0800082D0800089A
:100270002D0800082D0800082D08000800000000C7
:100280002D0800082D0800082D0800082D0800087A
:10029000000000002D0800082D08000800000000E4
:1002A000000000002D0800082D0800082D08000897
:1002B0002D0800082D0800082D0800082D0800084A
:0C02C0002D0800082D0800082D0800087B
:1002D00010F8012B11F8013B012A28BF9A42F7D0F0
:1002E000D01A7047034613F8012B002AFBD1181AC5
:1002F000013870470000000000000000000000000E
:1003000001F0FF01102A2BDB10F0070F08D010F8C6
:10031000013B013A8B422DD010F0070F42B3F6D1CA
:10032000F0B441EA012141EA014122F007047FF0E3
:1003300000070023F0E80256083C85EA010586EA3A
:10034000010685FA47F5A3FA87F586FA47F6A5FA76
:1003500087F68EB9EED1F0BC01F0FF0102F0070282
:1003600032B110F8013B013A83EA010313B1F8D12D
:100370000020704701387047002D06BF354603380E
:10038000073815F0010F07D1013015F4807F02BF47
:10039000013015F4C03F0130F0BC0138704700BF98
:1003A00081F0004102E000BF83F0004330B54FEA26
:1003B00041044FEA430594EA050F08BF90EA020F93
:1003C0001FBF54EA000C55EA020C7FEA645C7FEA26
:1003D000655C00F0E2804FEA5454D4EB5555B8BF49
:1003E0006D420CDD2C4480EA020281EA030382EABA
:1003F000000083EA010180EA020281EA0303362D4C
:1004000088BF30BD11F0004F4FEA01314FF4801C1E
:100410004CEA113102D0404261EB410113F0004F30
:100420004FEA03334CEA133302D0524263EB4303E7
:1004300094EA050F00F0A780A4F10104D5F1200E85
:100440000DDB02FA0EFC22FA05F2801841F10001E0
:1004500003FA0EF2801843FA05F359410EE0A5F1B4
:1004600020050EF1200E012A03FA0EFC28BF4CF0E5
:10047000020C43FA05F3C01851EBE37101F000459B
:1004800007D54FF0000EDCF1000C7EEB00006EEBA8
:100490000101B1F5801F1BD3B1F5001F0CD3490832
:1004A0005FEA30004FEA3C0C04F101044FEA445289
:1004B00012F5800F80F09A80BCF1004F08BF5FEA10
:1004C000500C50F1000041EB045141EA050130BDF0
:1004D0005FEA4C0C404141EB0101013C28BFB1F502
:1004E000801FE9D291F0000F04BF01460020B1FA4D
:1004F00081F308BF2033A3F10B03B3F120020CDA20
:100500000C3208DD02F1140CC2F10C0201FA0CF0FD
:1005100021FA02F10CE002F11402D8BFC2F1200C62
:1005200001FA02F120FA0CFCDCBF41EA0C01904018
:10053000E41AA2BF01EB0451294330BD6FEA040461
:100540001F3C1CDA0C340EDC04F11404C4F120024C
:1005500020FA04F001FA02F340EA030021FA04F35E
:1005600045EA030130BDC4F10C04C4F1200220FAB5
:1005700002F001FA04F340EA0300294630BD21FAF3
:1005800004F0294630BD94F0000F83F4801306BFB9
:1005900081F480110134013D4EE77FEA645C18BFAD
:1005A0007FEA655C29D094EA050F08BF90EA020F44
:1005B00005D054EA000C04BF1946104630BD91EA3C
:1005C000030F1EBF0021002030BD5FEA545C05D13F
:1005D0004000494128BF41F0004130BD14F580047E
:1005E0003CBF01F5801130BD01F0004545F0FE41F2
:1005F00041F470014FF0000030BD7FEA645C1ABF27
:10060000194610467FEA655C1CBF0B46024650EA5D
:10061000013406BF52EA033591EA030F41F4002189
:1006200030BD00BF90F0000F04BF0021704730B50F
:100630004FF4806404F132044FF000054FF00001E4
:1006400050E700BF90F0000F04BF0021704730B5A5
:100650004FF4806404F1320410F0004548BF40427A
:100660004FF000013EE700BF42004FEAE2014FEACF
:1006700031014FEA02701FBF12F07F4393F07F4FAA
:1006800081F06051704732F07F4208BF704793F0AD
:100690007F4F04BF41F40021704730B54FF46074C0
:1006A00001F0004521F000411CE700BF50EA0102C3
:1006B00008BF704730B54FF000050AE050EA01026C
:1006C00008BF704730B511F0004502D5404261EBDC
:1006D00041014FF4806404F132045FEA915C3FF41D
:1006E000D8AE4FF003025FEADC0C18BF03325FEABA
:1006F000DC0C18BF033202EBDC02C2F1200300FA6B
:1007000003FC20FA02F001FA03FE40EA0E0021FA8F
:1007100002F11444BDE600BF53B94AB9002908BF2D
:1007200000281CBF4FF0FF314FF0FF3000F00CB835
:10073000ADF1080C6DE904CE1BF0E2FADDF804E03F
:10074000DDE9022304B07047704700BF0348044B43
:10075000834202D0034B03B118477047CC020020FC
:10076000CC020020000000000548064B1B1AD90FE0
:1007700001EBA301491002D0034B03B118477047A6
:10078000CC020020CC0200200000000010B5064C76
:10079000237843B9FFF7DAFF044B13B10448AFF3F2
:1007A00000800123237010BDE00200200000000043
:1007B00020C0010808B5054B1BB105490548AFF33A
:1007C0000080BDE80840FFF7CFBF00BF0000000079
:1007D000E402002020C00108DFF838D000F028F83B
:1007E000002103E00C4B5B58435004310B480C4B89
:1007F00042189A42F6D30B4A02E0002342F8043B27
:10080000094B9A42F9D30EF0DFF918F0D1FD06F04A
:100810004BFF704700000220603A040800000020EF
:10082000CC020020E0020020C06C0120FEE70000A6
:10083000044AD36843F00203D36053689B04FCD599
:10084000704700BF00480258F7EE007ADFED1A5AF1
:10085000F0EE084A9FED196A20EE004A9FED183A23
:1008600077EEC07ADFED173A60EEA55ABEEE007A59
:1008700067EEA76A67EEA47A20EE045A66EEA46AD1
:1008800067EE847A20EE866A26EE800A27EE877A63
:1008900067EEA57A60EEA30ADFED0B3AA0EE037ACD
:1008A000E0EE067AA5EE237AE5EE207A80ED007A76
:1008B000C1ED007A704700BF9A99193FCDCCCC3E6C
:1008C0009A9919BEB7D1303F0AD77BC0164A012189
:1008D0000023164810B51170154C164A037013709A
:1008E0002370154A15481649164C136003600B70A7
:1008F0000EF028FA144AFA38237810604BB11348E6
:1009000009F01EFD237853B11148BDE8104009F0ED
:10091000E3BC104809F014FD2378002BF4D10E48F5
:10092000BDE8104009F0D8BC6C0500207A05002015
:100930007905002078050020FC04002074050020C3
:100940006F0500206D0500206805002090C001089B
:10095000D8C00108B4C00108F4C0010800B58BB0CC
:1009600000234FF0000C03AA04A807A98DED010A8B
:1009700006930993CDF80CC0CDE90433CDE90733D4
:100980000DF05AFFDDED087A1F4B9DED077AF1EE71
:10099000677ADDED066A0398B1EE477A1B49F1EEFE
:1009A000666A1B4AD3ED015A086093ED006A77EE40
:1009B000E57A92ED005A174B37EE467A76EEC56A25
:1009C000154993ED016A154A77EEC67AD3ED005AC0
:1009D000C1ED006A9FED125A37EE657AD1ED004AFB
:1009E000D2ED006AA7EE856A9DED010AE7EE055A91
:1009F000F0EE667AE4EE807A83ED016AC3ED005A88
:100A0000C2ED007A0BB000BD840500209C050020DB
:100A1000B40500207C050020B0050020AC050020B6
:100A2000CDCC4C3E10B582B004460EF08BF9144B81
:100A30001449154A0094DFF868C00978126893EDEC
:100A4000000A124BDCED000A93ED001ADFF854C0E7
:100A50000F4BDCED001A93ED002ADFF84CC00D4B74
:100A6000DCED002A93ED003ADFF840C00A4BDCEDE4
:100A7000003A93ED004A094B0BF078FC02B010BD30
:100A8000B0050020C0050020BC050020A8050020FE
:100A9000A0050020980500209005002014F2010810
:100AA000AC050020A40500209C0500209405002032
:100AB00000B5DFF86CC00B46DFF868E083B0174A7A
:100AC0009EF8001012689CED000ADFF85CC0DCEDB7
:100AD000000ADFF858C09CED001ADFF854C0DCEDC6
:100AE000001ADFF850C09CED002ADFF84CC0DCEDA6
:100AF000002ADFF848C09CED003ADFF844C0DCED86
:100B0000003ADFF840C09CED004A4FF0000CCDF8F1
:100B100000C00BF02BFC03B000BD00BFBC050020E3
:100B2000B0050020C0050020AC050020A80500206D
:100B3000A4050020A00500209C05002098050020A9
:100B4000940500209005002070B5CCB003468021AC
:100B5000494A0CA818F08CFA48490CA818F060FB18
:100B6000002872D00346002406AD01E0062C0BD00D
:100B700045F8043B00204149013418F051FB03467D
:100B80000028F3D1062C60D13D490698FFF7A0FB61
:100B900000285AD13B490798FFF79AFB002854D107
:100BA00039490898FFF794FB00284ED137490A9835
:100BB000FFF78EFB002848D1099C0A2205A9204690
:100BC00018F088F922780546002A47D0059B1B7843
:100BD000002B43D1012841D80B9E04A9304618F0C0
:100BE000BBF83378002B40D0049B1B78002B3CD102
:100BF000F0EEC07A9FED267AF4EE477AF1EE10FA25
:100C000033D8B5EEC00AF1EE10FA2ED4DFED217A1A
:100C1000B4EEE70AF1EE10FA27DCE8B28DED030A34
:100C200009F0F4FA9DED030A2B461B4AB7EEC00A01
:100C300080212CA88DED000B18F01AFA2CA809F0D1
:100C40004BFB2CA809F030FB05E0144809F044FBED
:100C5000124809F029FB01204CB070BD104809F082
:100C60003BFB0F4809F020FBF5E70E4809F034FB89
:100C70000C4809F019FBEEE710C1010814C1010886
:100C80003CC1010848C101084CC1010854C1010818
:100C9000FFFF7F7F00003443B0C1010818C1010885
:100CA00060C1010888C101082DE9F041B2B00646D3
:100CB0000F469046A021384B384A0AA818F0D8F9B8
:100CC00037490AA818F0ACFA90B10346002401ADE8
:100CD00045F8043F00203249013418F0A1FA0346D8
:100CE000002855D0082CF3D1029B1A78522A03D041
:100CF000002032B0BDE8F0815A784B2AF8D19B78B9
:100D0000002BF5D127490398FFF7E2FA0028EFD12D
:100D100025490498FFF7DCFA0028E9D13146059807
:100D2000FFF7D6FA0028E3D120490698FFF7D0FA5A
:100D30000028DDD11E490898FFF7CAFA0028D7D14C
:100D4000099C1C492046FFF7C3FA28B11A492046DE
:100D5000FFF7BEFA0028CBD1079D0A2201A9284639
:100D600018F0B8F82B780246002BC1D0019B1B78F5
:100D7000002BBDD10028BBD00E4920463A60FFF7BA
:100D8000A7FAB0FA80F301205B0988F80030B0E7D9
:100D9000082CADD1A8E700BF8003002010C10108D6
:100DA00014C10108E0C10108E4C10108F4C101084F
:100DB000F8C1010800C2010804C201082DE9F04190
:100DC000AAB006460F4690468021384B384A0AA8FA
:100DD00018F04EF937490AA818F022FA90B10346E4
:100DE000002401AD45F8043F00203249013418F0D9
:100DF00017FA0346002855D0082CF3D1029B1A7825
:100E0000522A03D000202AB0BDE8F0815A784B2A3C
:100E1000F8D19B78002BF5D127490398FFF758FAB2
:100E20000028EFD125490498FFF752FA0028E9D1AC
:100E300031460598FFF74CFA0028E3D1204906987F
:100E4000FFF746FA0028DDD11E490898FFF740FA5F
:100E50000028D7D1099C1C492046FFF739FA28B150
:100E60001A492046FFF734FA0028CBD1079D0A2201
:100E700001A9284618F02EF82B780246002BC1D085
:100E8000019B1B78002BBDD10028BBD00E4920460A
:100E90003A60FFF71DFAB0FA80F301205B0988F889
:100EA0000030B0E7082CADD1A8E700BFFC0200205D
:100EB00010C1010814C101080CC2010814C20108C4
:100EC000F4C10108F8C1010800C2010804C2010808
:100ED0002DE9F04FDFB0602106A80DF093F900284E
:100EE00000F014818C4B06461978002900F05A83D3
:100EF0000DF11809894C8A4D09EB060899F8003064
:100F000026680A2B18BF0D2B0CBF0127002740F0C5
:100F10000583002383498248AB5518F0E7F98246E0
:100F2000002800F00683AA4509D05046FFF7DAF9F9
:100F3000064651462846721C18F03EF92660002EDF
:100F400000F0E482784B1B780F2B00F000832B46D7
:100F5000764AA02136A818F08BF8754936A818F003
:100F60005FF90346002800F015811EAE4FF0000A1D
:100F7000B3464BF8043B00206D490AF1010A18F012
:100F80004FF90346002800F00181BAF10C0FF0D1AF
:100F900033681A78522A40F0FD805A784B2A40F084
:100FA000F9809B78002B40F0F58062497068FFF76C
:100FB0008FF9002840F0EE805F49B068FFF788F9AC
:100FC000002840F0E7805D49F068FFF781F90028CC
:100FD00040F0E0805A493069FFF77AF9002840F084
:100FE000D9805849B069FFF773F9002840F0D280E2
:100FF0005549306AFFF76CF9002840F0CB8053491F
:10100000B06AFFF765F9002840F0C480D6F814B044
:101010000A2205A9584617F05DFF9BF800300290A0
:10102000002B00F0B780059B93F800B0BBF1000FD8
:1010300040F0B080002800F0AD80F36944491846C4
:101040000393FFF745F9002800F07883039841499E
:10105000FFF73EF9002840F09D80736A0A2205A937
:101060001846039317F036FF039B1B78002B00F004
:101070009180059B1B78002B40F08C80B0F5E17FC0
:1010800040F08880F66A0A2205A9304617F022FF50
:101090003378002B7ED0059B1B78002B7AD1B0F5DE
:1010A000B47F77D12C4B1A782C4B1878024340F040
:1010B00013832B4A2B4812680068024340F00C83CC
:1010C000012002991870284B83F800B0274B196053
:1010D000274B1A70274B1A70274B1A70274B1A7020
:1010E000274B1A70BBF1000F00F02E831849029BAA
:1010F00036A8244A0091802117F0BAFF36A809F0DB
:10110000EBF8214809F0D0F8002323600027384687
:101110005FB0BDE8F08F00BFC8040020C404002009
:101120002404002068C20108C005002010C1010885
:1011300014C101080CC2010814C2010898C20108B8
:10114000F4C10108F8C10108A0C2010854C1010896
:1011500000C2010804C20108F9040020E5040020CF
:10116000E8040020DC040020E4040020E004002067
:10117000D8040020D7040020D6040020D504002085
:10118000D4040020C4C20108ECC20108BAF10C0F5B
:101190003FF4FEAE2368002B00F0B8812B46814A55
:1011A000A02136A817F064FF7F4936A818F038F858
:1011B0000346002839D04FF0000A0DF1780B4BF8A8
:1011C000043B002078490AF1010A18F029F8034687
:1011D000002800F0B781BAF10C0FF0D11E9B1A78ED
:1011E000522A22D15A784B2A1FD19B78EBB96F49EA
:1011F0001F98FFF76DF8C0B96D492098FFF768F8A0
:1012000098B96C492198FFF763F870B96A49229838
:10121000FFF75EF848B969492498FFF759F820B9F3
:10122000269B1A784C2A00F0F3812368002B00F0EB
:101230006D812B465B4AA02136A817F019FF5A4949
:1012400036A81EAE17F0ECFF0346002800F0D08051
:101250004FF0000AB3464BF8043B002052490AF114
:10126000010A17F0DDFF0346002800F0BD80BAF147
:101270000A0FF0D133681A78522A40F0B9805A78B0
:101280004B2A40F0B5809B78002B40F0B180474955
:101290007068FFF71DF8002840F0AA804449B06844
:1012A000FFF716F8002840F0A3804549F068FFF7E3
:1012B0000FF8002840F09C803F493069FFF708F89C
:1012C000002840F095803D49B069FFF701F80028FB
:1012D00040F08E803B49306AFEF7FAFF002840F06C
:1012E0008780D6F81CB038495846FEF7F1FF28B180
:1012F00036495846FEF7ECFF002879D1736905A9F5
:101300000A221846029317F0E5FD029B82461B78DD
:10131000002B6DD0059B05A91B78002B68D10028F8
:1013200066D0736A0A221846039317F0D3FD039B15
:1013300002901B78002B5BD0059B1B78002B57D1AC
:10134000431E062B54D858461F49FEF7C1FF204BB9
:10135000B0FA80F01A784009002A49D11D4A126873
:10136000524545D11C4A1278824241D1012119705F
:101370001A4B0299C3F800A0194B1960002A00F01B
:10138000E581114A029B6021009236A801935346E1
:10139000144A17F06DFE36A808F09EFF0023236064
:1013A000B5E600BF10C1010814C101080CC2010854
:1013B0001CC2010898C20108F4C10108F8C1010863
:1013C000B0C30108B8C3010800C2010804C2010883
:1013D000F9040020E8040020F8040020F4040020B0
:1013E000EC040020C0C30108BAF10A0F3FF442AF79
:1013F0002B46734AA02136A817F03AFE714936A849
:1014000017F00EFF0346002865D00DF1740A00277F
:101410004AF8043F00206B49013717F001FF0346EB
:10142000002856D0082FF3D133681A78522A52D1A7
:101430005A784B2A4FD19B78002B4CD16249706867
:10144000FEF746FF002846D16049B068FEF740FF2E
:10145000002840D15E49F068FEF73AFF00283AD1F3
:101460005C493069FEF734FF002834D15A49B0692D
:10147000FEF72EFF78BBD6F81CA058495046FEF761
:1014800027FF20B156495046FEF722FF18BBD6F879
:1014900014B00A2205A9584617F01CFD9BF800302D
:1014A0000746C3B1059B1B78ABB9A0B150464B4969
:1014B000FEF70EFF4B4BB0FA80F01B684009BB42B1
:1014C00009D1494B1B78834205D1484B01221A7040
:1014D0001CE0082FA8D04649284617F007FF00282F
:1014E0005ED0444F3B46444A6021304617F0C0FD71
:1014F000304608F0D9FE26683B46404A602136A8AF
:10150000009617F0B5FD36A808F0E6FE002323602C
:1015100009F10109C8457FF4F1ACF7E5721C9F2A77
:1015200002D82260AB55F3E73548276008F0D4FEB7
:10153000EEE72F49284617F0D9FE824600287FF4AF
:10154000F2ACFCE4BAF10C0F7FF46FAE46E62D4925
:101550004C23DFF8B8E001F10C0B0A78A3F1610C21
:10156000A3F120060131A2F12000A2F1610A5FFA85
:101570008CFCF6B2C0B2BCF1190F98BF3346BAF179
:10158000190F98BF02469A427FF4E1AC8B451EF8D2
:10159000013FE2D11B48FFF7D7FA00232360B5E5EE
:1015A0000A4F9FE701220F201A701D220AF058FFF0
:1015B000002800F08D80144808F076FE98E400BF03
:1015C00010C1010814C101080CC201081CC20108A5
:1015D000F0C30108F4C10108F8C1010800C2010804
:1015E00004C20108E8040020F8040020E7040020F9
:1015F00078C2010814C20108F8C3010818C4010820
:1016000040C401082404002024C2010888C2010843
:101610005A78312A7FF409AE9B78002B7FF405AE0F
:10162000289B1A784C2A7FF400AE5A78322A7FF42D
:10163000FCAD9B78002B7FF4F8AD239B0A2205A913
:101640001846029317F046FC029B83461B78002B3A
:101650003FF4EBAD059B1B78002B7FF4E6AD002833
:101660003FF4E3AD279B02935B78002B7FF4DDAD65
:10167000299B93F801A00393BAF1000F7FF4D5AD35
:1016800033492598FEF724FE00285AD02598314981
:10169000FEF71EFE00287FF4C8AD029B1E78A6F15F
:1016A0004103032B3FF6C1AD039B1878A0F1410322
:1016B000032B3FF6BAAD86423FF4B7AD264B1978FF
:1016C00011B92649096859B1254808F005FE1DE7FA
:1016D000244808F0E9FD0BE4234808F0FDFD13E57C
:1016E00001221A701E22214B83F800A0204BC3F860
:1016F00000B0204B1E70204B18700F201F4B19603C
:101700000AF0AEFEA0B11E4808F0CEFDBAF1000FFF
:1017100012D00F4A5B466021009236A8194A17F092
:10172000A7FC36A808F0D8FD174808F0BDFD35E63F
:10173000164808F0B9FDE9E7064AEBE74FF0010B60
:101740008BE44FF0010AA8E70249D0E4014A19E608
:1017500000C2010804C20108F9040020E8040020C6
:101760000CC3010844C20108ACC20108F8040020FF
:10177000F4040020F1040020F0040020EC04002018
:1017800024C3010868C3010890C3010844C30108C9
:101790005F4BB9EE007AD3ED007AF4EEC77AF1EE42
:1017A00010FA00F19F80B1EE007ADFED5A6AF4EE94
:1017B000C77AF1EE10FA37FE277AF0EEC77AF4EE28
:1017C000E67AF1EE10FA40F28A80B5EEC07AF1EED8
:1017D00010FA40F3998037EE667AF9EE007AD3ED8D
:1017E000016AF4EEE76AF1EE10FA00F18480F1EE9E
:1017F000007A9FED486AF4EEE76AF1EE10FA77FEA0
:10180000A67AF0EEE76AF4EEC66AF1EE10FA75D940
:10181000F5EEC07AF1EE10FA73DD77EEC67A61EE7E
:10182000A75A90ED006A61EE277AD0ED016A9FED2C
:101830003A5AE1EE075AE1EEC77AA5EE826AE7EE80
:10184000826A76EE407AF4EEC57AF1EE10FA4FD461
:101850009FED327A9FED2F6AF4EEC77AF1EE10FA1F
:1018600037FE277A27EE066A76EEE07A9FED2A7A2F
:10187000F4EEC77AF1EE10FA37D49FED287ADFED57
:10188000256AF4EEC77AF1EE10FA77FE277A67EE52
:10189000A67A30EE067ADFED226AB0EEC00A70EE6C
:1018A000A77A80ED007AB4EEE60AC0ED017AF1EE97
:1018B00010FA13D8F0EEE00AF4EEE60AF1EE10FAB0
:1018C0000CD8184BD3ED007AF0EEE77AF4EEE67A16
:1018D000F1EE10FA02D800230360436070479FEDD9
:1018E000127A7AE79FED117A77E7DFED117AD0E788
:1018F0009FED0F6AB8E7DFED0D7A90E7DFED0A7A2A
:101900008DE777EE867A8AE737EE267A65E700BFBD
:101910007C0500200AD7A33D9A9919BE9A99193ED1
:101920000AD7A33CA80500200000000048E17AC0C7
:10193000A69B44BCF8B50B780E460746F3B10138B8
:101940000D4602E015F8013FC3B110F8012FA3F1D5
:101950006101A3F1200EA2F1200CA2F16104C9B231
:101960005FFA8EFE5FFA8CFC192998BF7346192C1A
:1019700098BF62469A42E5D00020F8BD3046FEF797
:10198000B1FC385C2C2818BF00280CBF01200020B7
:10199000F8BD00BF2DE9F047D4B0802104A80CF0B9
:1019A00031FC28B304AC464DDFF8448100272618EB
:1019B000DFF8409107E0501C9F281CD8286008F8E9
:1019C0000230A64214D014F8013B2A680D2B06D031
:1019D000A3F10A01B1FA81F149090029EBD008F815
:1019E000027012B1D9F800303BB9A6422F60EAD19B
:1019F00054B0BDE8F0872960E3E732480DF10B02EF
:101A000003A9FFF751F920B1039BD9F800209342B5
:101A100027D00DF10B0203A92B48FFF745F920B1A0
:101A2000039BD9F8002093422CD00DF10B0203A99F
:101A30002648FFF739F90028D7D0039BD9F80020B2
:101A40009342D2D122499DF80B2009788A42CCD109
:101A5000204901200870002A2FD01F4A00921B4AFB
:101A60001DE01B4A9DF80B1012789142D1D11B4901
:101A7000097811B91A4901200870D2B1164A0092AA
:101A8000104A0CE0124A11789DF80B208A42CCD102
:101A900014490120087072B10F4A00920A4A01925B
:101AA000C021114A24A817F0E3FA24A808F014FC76
:101AB0009BE70E4AE3E70D4AEFE70C4ACEE700BF8B
:101AC000200400206CC40108ACC40108F0C3010864
:101AD000CD040020CA04002000C20108C90400206F
:101AE000CC040020CB04002074C4010804C2010807
:101AF00080030020D00400202DE9F0410446013885
:101B0000504E522304F11E08054615F8012FA3F18B
:101B1000610EA3F1200CA2F12001A2F161075FFA8E
:101B20008EFE5FFA8CFCC9B2BEF1190F98BF6346F6
:101B3000192F98BF0A469A420DD1454516F8013F24
:101B4000E3D101234049414A0B7041481370BDE87D
:101B5000F04108F0A9BB3F4E04F11008054652239E
:101B600015F8012FA3F1610EA3F1200CA2F12001C1
:101B7000A2F161075FFA8EFE5FFA8CFCC9B2BEF17A
:101B8000190F98BF6346192F98BF0A469A420BD186
:101B9000454516F8013FE3D12F4B00222F481A701C
:101BA000BDE8F04108F080BB2D4F04F10F08064658
:101BB000522316F8012FA3F1610CA3F12005A2F125
:101BC0002001A2F1610E5FFA8CFCEDB2C9B2BCF14A
:101BD000190F98BF2B46BEF1190F98BF0A469A42BB
:101BE00008D1B04517F8013FE3D11E48BDE8F041E8
:101BF00008F05ABB1C4E0B34522310F8012FA3F1EE
:101C0000610CA3F12005A2F12001A2F161075FFAA6
:101C10008CFCEDB2C9B2BCF1190F98BF2B46192F3D
:101C200098BF0A469A420BD1A04216F8013FE4D170
:101C3000064B01220D481A70BDE8F04108F034BB94
:101C4000BDE8F081B4C40108790500207A050020C0
:101C50003CC5010864C501086C05002010C50108D9
:101C600028C50108E8C4010800C50108D4C401085A
:101C70002DE9F04790B00DF065F8404B1B7823B983
:101C80003F4A1368C31AF92B66D8402168460CF006
:101C9000B9FAF0B16C463B4E3B4D271806E0501C9C
:101CA0005F2819D83060AB54BC4212D014F8013B05
:101CB00032680D2B06D0A3F10A01B1FA81F149096E
:101CC0000029ECD00023AB545AB90023BC42336046
:101CD000ECD110B0BDE8F0872C48316008F030FB43
:101CE000E2E72B4808F0E0FA284608F0DDFA294838
:101CF00008F0DAFA284B1A780F2A06D01B78072B3F
:101D000003D02846FFF7F8FEDFE71F494C23DFF832
:101D1000A48001F10C0A0A78A3F1610EA3F120005E
:101D20000131A2F1200CA2F161095FFA8EFEC0B26E
:101D30005FFA8CFCBEF1190F98BF0346B9F1190F79
:101D400098BF62469A42DCD18A4518F8013FE2D139
:101D50000D48FEF7F9FEB8E71049114B10600A78FC
:101D60001B7822B933B10F4808F0B6FA8DE71BB1E2
:101D70000D48F9E70D48F7E70D48F5E7780500202D
:101D800068050020FC04002000050020B8C50108FB
:101D9000A8C50108B4C50108C00500206C050020D5
:101DA0006D05002078C50108D8C0010890C501085C
:101DB000F4C0010888C2010830B59FB00CF0C2FF22
:101DC000294B04461B78E3B12849294B0A78EAB12C
:101DD0002849294D0A68A21AB2F5967F2AD2274BC4
:101DE0001B6843B9264B1B68002B36D1254B1B784B
:101DF0000BB9FFF73DFF2878003818BF01201FB04E
:101E000030BD1A49204B0A78002AE1D101201A4D31
:101E100005930870A4F5967016492A7008601B484F
:101E2000049108F08DFADDE904130A68A21AB2F5EC
:101E3000967FD4D30C604FF4167240F29D1106A821
:101E4000CDE9012140F28A21114A0091602117F069
:101E50000FF906A808F040FAC1E70E4B1B78002BDB
:101E6000C9D1FFF735F8C6E76D05002078050020D9
:101E700000C201087405002079050020DC04002060
:101E8000E80400206F05002004C20108DCC5010839
:101E900008C60108E6040020144B1B6810B5044670
:101EA00082B03BB9124B1B688BB9124B1B780BB934
:101EB000FFF7DEFE09F0AEFA18B9019009F0B0FAAA
:101EC00060B9204602B0BDE8104009F035B80A4BB1
:101ED0001B78002BEED1FEF7FBFFEBE7FEF7F6FCDD
:101EE000064A09210198116002B010BDDC040020EF
:101EF000E80400206F050020E6040020BC05002057
:101F0000154B1B6800B583B03BB9144B1B68A3B9D4
:101F1000134B1B780BB9FFF7ABFE09F07BFA18B92E
:101F2000019009F07DFA78B90CF00CFF08F074FF0D
:101F300003B05DF804EB09F02FB80A4B1B78002BB7
:101F4000EBD1FEF7C5FFE8E7FEF7C0FC064A092122
:101F50000198116003B000BDDC040020E8040020FB
:101F60006F050020E6040020BC050020F8B50E46F1
:101F7000174604460CF0E6FE0546FFF71DFF154B1D
:101F80001B78D3B9304608F0DBF909E0FFF714FFFE
:101F900098B9FFF7B5FF034601209BB10CF0D8FEBE
:101FA0000CF0D0FE401BA042F0D30B4808F0C8F95B
:101FB0000A4B08221A600020F8BD384608F0C0F924
:101FC0000120F8BD054B1A68092AF4D005221A60D1
:101FD000F1E700BF7905002044C60108BC050020D8
:101FE0002DE9F04FADF54B7D82460CF0ABFEA74BD3
:101FF00005901A6812F1010900F0C5814A46DFF820
:10200000E0B240F6B8381A609BF80030059A002B11
:102010009F4BA2F1C801A2F10A021B7808BF4FF43E
:10202000E16807910692002B00F0AB81994C9A4928
:102030005046FEF74DF94EF6602347F230524021EC
:10204000CDE900940024A04208BF1A46934B1AA879
:102050001C70934B09921C705346924A17F008F873
:102060005346914A40212AA8CDF8009017F000F875
:1020700053468E4A40213AA8CDF8009016F0F8FF5A
:1020800053468B4A40214AA8CDF8009016F0F0FF45
:102090005346884A40215AA8CDF8009016F0E8FF30
:1020A0005346854A40216AA8CDF8009016F0E0FF1B
:1020B0005346824A40217AA8CDF8009016F0D8FF06
:1020C00053467F4A6021B2A8CDF8009016F0D0FFA9
:1020D000B2A808F035F90CF035FE059B05460494CE
:1020E0000893069BCDF80C90EB1A092B40D8079B60
:1020F000EB1AC72B46D800270DF128094021484686
:102100000CF080F800B309EB00064D46204609E0CC
:10211000421C5F2A44D80DEB0004104684F8683254
:10212000B54210D015F8013B0D2B01D00A2BEFD191
:102130000DEB0003002283F86822002834D1B54259
:102140004FF00000EED104460CF0FCFD002F40F0F3
:10215000F880059BC01A404580F0348101200CF0C6
:10216000F7FD0CF0EFFD069B0546EB1A092BBED9D7
:10217000FFF7C6FE002800F06881079B0695EB1A62
:10218000C72BB8D91AA808F0A7F853464D4A6021C2
:10219000B2A816F06DFFB2A808F086F80795AAE776
:1021A000494808F0CDF8CAE7484808F07DF89AA8F1
:1021B00008F07AF8464808F077F89AA8FFF79CFCF0
:1021C00040F6B8339BF800203AA943459AA838BF97
:1021D0004346002A18BF9846FFF7ACFB0446002888
:1021E00000F08080002F00F0A880039B6021394A16
:1021F000B2A80093534616F03BFFB2A808F0A0F82F
:102200004AA99AA8FFF796FB002872D17AA99AA842
:10221000FFF790FB0746002840F0B8806AA99AA80B
:10222000FFF788FB80B142F6E06398450AD0039B34
:102230006021294AB2A80093534616F019FFB2A8AC
:1022400008F07EF842F6E068DCB19AA85AA9FFF7D8
:1022500071FB08B9274663E70CF074FD039BA0F1FE
:10226000C8041E4A6021009305905346B2A8079403
:1022700016F0FEFEB2A808F063F840F6B838002366
:102280000493B54200F0948000204BE764050020E1
:102290006D05002000C201086CC601087105002010
:1022A0007005002078C6010898C60108B0C601086C
:1022B000C8C60108E0C60108F8C6010810C7010831
:1022C00028C70108B4C70108BCC80108A8C501088F
:1022D000B4C50108CCC7010874C8010890C801083A
:1022E0007A0500204AA99AA83C46FFF723FB00285C
:1022F0008CD059495046DDF80C90FDF7E9FF0028D5
:102300005AD156499AA816F0F1FF011E18BF0121B3
:10231000534C5346534AB2A8CDF800902170602127
:1023200016F0A6FEB2A808F00BF82378002B45D1D2
:1023300001200DF54B7DBDE8F08F0CF003FD0490FE
:1023400053E701200CF004FD0CF0FCFC049B099AFF
:102350000546C31A93424CD2069BEB1A092B0AD8A6
:10236000089BEB1AB3F57A7FFFF4C8AE2AA807F0F2
:10237000B3FF0895C2E6FFF7C3FD002865D00695B8
:10238000EEE7394C53E60122914638E6DDF80C9031
:102390005346364A6021B2A8CDF8009016F068FE88
:1023A000B2A807F0CDFF324B0A221A600020C0E726
:1023B00000240CF0C7FCCCE60021A9E72D4807F06B
:1023C000BFFFB5E7DDF80C9053462B4A6021B2A859
:1023D000CDF8009016F04CFEB2A807F0B1FF002136
:1023E0000122234B8BF800101D490A7008221A6045
:1023F000DCE7DDF80C905346204A6021B2A8CDF806
:10240000009016F035FEB2A807F09AFF53461C4A1A
:1024100040218AA8CDF8009016F02AFE8AA807F07D
:102420005BFF8AA807F058FF5346164A6021B2A8FE
:10243000CDF8009016F01CFEB2A807F081FF012332
:10244000074A1370104A137072E7094B1A68092A79
:10245000ACD005221A60A9E76CC60108E4C70108E0
:1024600071050020F8C7010804C2010850C801081E
:10247000BC05002014C80108D8C8010844C70108D9
:1024800068C7010880C70108700500202DE9F04FDA
:10249000ADF5617D0C4607900CF054FCA54B0C90FB
:1024A0001A6812F1010800F096814246DFF8C8A2CE
:1024B00040F6B8371A609AF800209F4B002A0C9A11
:1024C0001B78A2F1C801A2F10A0208BF4FF4E1672C
:1024D0000A910992002B00F07B81984B0D93002C00
:1024E00000F04C810D9BC0A8954A802100930223E7
:1024F0000F900193434616F0BBFD38A84346914A1E
:102500006021049016F0B4FD50A843468E4A602125
:10251000059016F0ADFD68A843468C4A60210690F0
:1025200016F0A6FD20A84346894A60210E9016F0B9
:102530009FFD884B0893079B8021874AA0A80293A0
:102540000D9BCDE90083089B16F092FDA0A807F033
:10255000F7FE0CF0F7FB002304461D460B93099B86
:10256000E31A092B3DD80A9BE31AC72B43D810AEB8
:10257000402130460BF046FE8346002800F044819F
:102580004FF000090024284608E0421C7F2A45D865
:1025900080A90B54104601345C450DD2335D0D2BE0
:1025A00001D00A2BF1D1002380AA1354002839D17D
:1025B000013400205C45F1D305460CF0C3FBB9F1B2
:1025C000000F7ED10C9BC01A874240F2248101206B
:1025D0000CF0BEFB0CF0B6FB099B0446E31A092B7A
:1025E000C1D9FFF78DFC002800F03F810A9B0994B8
:1025F000E31AC72BBBD90F9807F06EFE079B574A0B
:1026000080210293A0A80D9BCDE90083089B16F0C2
:102610002FFDA0A807F048FE0A94A8E7504807F04D
:102620008FFEC5E74F4807F03FFE80A807F03CFE4D
:102630004D4807F039FE80A8FFF75EFA40F6B83340
:102640009AF8002080A80499002A18BF1F46FFF7B7
:1026500071F9054678B1B9F1000F2ED0079B8021A2
:10266000424AA0A8A946CDE90083089B16F000FDC8
:10267000A0A807F065FE059980A8FFF75BF9002880
:1026800040F0AC8080A80699FFF754F9002882D06A
:102690000799A0A8089B364ACDE90081802116F051
:1026A000E7FCA0A807F04CFE324B0A221A60002576
:1026B00028460DF5617DBDE8F08F0CF043FB0B90D3
:1026C000CCE7012047F22F540CF042FB0CF03AFB10
:1026D00083460B9B099AABEB0303ABEB0202A342CD
:1026E00000F2B080092A1CD80A9BABEB0303B3F5B8
:1026F0007A7F10D2402130460BF084FD83460028BB
:102700007FF440AF0CF01EFB01200CF021FB0CF01D
:1027100019FB8346DDE70E9807F0DEFDCDF828B003
:10272000E8E7FFF7EDFB002800F09F80CDF824B02C
:10273000DAE700BF640500206D05002000C2010833
:1027400010C9010848C9010874C90108A0C90108D5
:10275000C4C9010804C9010864CA0108D4CA01082F
:10276000A0CB0108A8C50108B4C5010810CB010819
:1027700070CB0108BC0500207A050020079BC0A88B
:102780003E4A802101930D9B0F900093434616F023
:102790006FFC38A843463A4A6021049016F068FC62
:1027A00050A84346374A6021059016F061FC68A89E
:1027B0004346354A6021069016F05AFC20A843464D
:1027C000324A60210E9016F053FC314B0893B2E66A
:1027D000304B0D9383E60122904667E6079B054642
:1027E0002D49002001932D4A089BCDF800800870E8
:1027F0008021A0A816F03CFCA0A807F0A1FD284667
:102800000DF5617DBDE8F08F0CF09CFA0C9BC31AAE
:10281000BB42FFF4DCAEDDE907238021A0A80192D2
:10282000CDF800801E4A16F023FCA0A807F088FD12
:10283000194A012100201B4B117008228AF8000060
:102840001A6034E70799A0A8089B174ACDE90081D0
:10285000802116F00DFCA0A807F072FD0E490120A2
:10286000104B082208701A6021E70E4B1A68092ADB
:102870003FF41DAF05221A6019E700BFE8C901083F
:102880001CCA010840CA0108A0C90108C4C901083E
:10289000FCC8010804C201087105002040CB0108F2
:1028A000C8CB0108BC050020A0CA01082DE9F04FE3
:1028B000ADF5077D83460CF045FAA34B05901A68E9
:1028C00012F1010A00F0DE805246DFF8EC8240F699
:1028D000B8361A6098F80030059A002B9B4BA2F18D
:1028E000C801A2F10A021B7808BF4FF4E166039108
:1028F0000492002B00F0C480954B0027954A40219C
:1029000016A8CDE900A3944B1F705B4616F0B0FBF0
:102910005B46924A402126A8CDF800A016F0A8FBFD
:102920005B468F4A402136A8CDF800A016F0A0FBE8
:102930005B468C4A402146A8CDF800A016F098FBD3
:102940005B46894A60216EA8CDF800A016F090FB86
:102950006EA807F0F5FC0CF0F5F9049B0446C31AC9
:10296000092B76D8039BE31AC72B7BD8402106A8F6
:102970000BF048FC00285BD006AC251809E07A1C57
:102980005F2A5FD86F4487F8583117460134AC424C
:102990004ED023780D2B08D0A3F10A09B9FA89F992
:1029A0004FEA5919B9F1000FE9D04FF000090DEBCA
:1029B000070383F85891002FE8D06C4807F074FCA7
:1029C00056A807F071FC6A4807F06EFC56A8FFF79E
:1029D00093F840F6B83398F8002026A9B34256A8D9
:1029E00038BF33464A4518BF1E46FEF7A3FF0028EE
:1029F0004BD146A956A8FEF79DFF0746002860D197
:102A000056A836A9FEF796FF08B342F6E0694E4590
:102A1000BCD05B46574A60216EA80134CDF800A0B7
:102A200016F026FB6EA807F08BFCAC424E46B0D1E8
:102A30000CF088F9059BC01AB04269D201200CF055
:102A400087F988E74C484F4607F07AFC9EE707462F
:102A50009CE7FFF755FA00286FD0039B0494E31A14
:102A6000C72B83D916A807F037FC5B46434A602181
:102A70006EA816F0FDFA6EA807F016FC039475E731
:102A80003F4B3AE7012292461FE7334B07463D4949
:102A9000584683F800903C4BC3F800A0FDF718FCA3
:102AA00018B35B46394A60216EA8CDF800A016F035
:102AB000DFFA6EA807F044FC38460DF5077DBDE847
:102AC000F08F5B46324A60216EA8CDF800A016F068
:102AD000CFFA6EA807F034FC2E4B0A221A600027AA
:102AE00038460DF5077DBDE8F08F184B1A782A4B54
:102AF000C3F800A0294B1A70294B1870294B187085
:102B0000294B1870294B1870294807F019FCC8E7A1
:102B10005B46284A60216EA8CDF800A016F0A8FAFE
:102B20006EA807F00DFC002101221A4B88F8001056
:102B300009490A7008221A60D1E7164B1A68092A57
:102B4000CDD005221A60CAE7640500206D0500207B
:102B500000C2010878C6010871050020B0C601084E
:102B6000F8C6010810C7010800CC0108A8C5010873
:102B7000B4C50108B4CC0108BCC8010820CC0108C8
:102B800004C20108E4C10108600500206CCC010802
:102B90008CCC0108BC050020D0040020CD0400200E
:102BA000CC040020CB040020CA040020C90400206B
:102BB00040CC0108D8CC01087A0500202DE9F04F5F
:102BC000DFF84082F5B007460CF0BCF8D8F80030CA
:102BD000002B00F0AD808146A0F1C80B0A38754A81
:102BE0004021009303903B4614A8002416F040FABD
:102BF000D8F80030704A4021009324A83B4616F0D4
:102C000037FAD8F800306D4A4021009334A83B468B
:102C100016F02EFAD8F80030694A602100935CA8BB
:102C20003B4616F025FA5CA807F08AFB0CF08AF800
:102C3000039B0546C31A092B63D8A5EB0B03C72BCF
:102C400068D8402104A80BF0DDFAE8B104AD05EB2B
:102C5000000A07E05F290C4622D8013500F8C02C95
:102C6000554511D02A7804F5E873611C00260D2A19
:102C70000DEB030001D00A2AECD100F8C06C9CB91E
:102C8000013500245545EDD10CF05CF843F697234F
:102C9000A0EB0900984276D801200CF059F8C5E75E
:102CA000484807F04DFBEBE7474807F0FDFA44A81A
:102CB00007F0FAFA454807F0F7FA44A8FEF71CFFB8
:102CC00024A944A8FEF736FE044634A944A8002CE3
:102CD00035D1FEF72FFE0028D2D0D8F800003B46B1
:102CE0003B4A602100905CA816F0C2F95CA807F08E
:102CF00027FB384B0A221A600024204675B0BDE835
:102D0000F08FFFF7FDF800284DD0A5EB0B030395DE
:102D1000C72B96D914A8AB4607F0DEFA3B462E4ADD
:102D200060215CA816F0A4F95CA807F0BDFA88E75A
:102D30002A4807F005FB274B0A221A60DCE7D8F87F
:102D400000306021264A5CA800933B4616F090F9BB
:102D50005CA807F0F5FA23493846C8F80060FDF78B
:102D6000B7FA0028C9D1204B204A1870204B1060B8
:102D700018702049204A214B0870107018702046A6
:102D800075B0BDE8F08FD8F800003B461C4A6021C2
:102D900000905CA816F06CF95CA807F0D1FA0D4B16
:102DA00008221A60A8E70B4B1A68092AA4D005224A
:102DB0001A60A1E768C70108C8C6010810C7010862
:102DC00028CD0108BCC80108A8C50108B4C5010880
:102DD00080CD0108BC05002048CD010800CD0108C8
:102DE00060CD0108E4C10108CD040020D00400201A
:102DF000CB040020CC040020CA040020C904002019
:102E0000A8CD0108600500202DE9F04FADF53F7D0C
:102E100007460D4616460BF095FF8F4B04901C6835
:102E2000013420D022461A608C4B1B78CBB18C4ADF
:102E300047F230539E4298BFB5F57A7F07D8B7F175
:102E4000030A18BF4FF0010ABAF1000F0ED0854BEC
:102E500006221A604FF0000948460DF53F7DBDE897
:102E6000F08F814AE4E701221446DCE7049F4FF02B
:102E700003092346A021C83F009296A87B4ACDF8BB
:102E800004900597049FCDE9025616F0F1F8234609
:102E9000774A402106A8A7F10A0816F0E9F8234668
:102EA000744A402116A816F0E3F82346724A4021DE
:102EB00026A816F0DDF82346704A80214EA8CDF8EA
:102EC0000090CDE9015616F0D3F84EA807F038FA75
:102ED0000BF038FFA0EB08030446092B00F2A0809A
:102EE00057460DF1D80B059BE31AC72B00F28B80D8
:102EF000602158460BF086F98246002800F0938046
:102F000000265C46002509E0791C9F294BD86EA855
:102F1000C2550F460135013455450ED222780D2A8F
:102F200001D00A2AF0D100226EABDA55002F3ED133
:102F30000135002701345545F0D30BF003FF16BBD4
:102F4000049BC01A40F6B733984276D80120002679
:102F50000BF0FEFE0BF0F6FEA0EB08030446092B77
:102F6000C1D9FEF7CDFF00286ED0A0460DF1D80BD9
:102F7000002EB8D0602158460BF044F98246002854
:102F8000BFD10BF0DFFE801B41F2873398424DD852
:102F900001200BF0DDFE0BF0D5FEA0EB080304468C
:102FA000092BE7D9DDE7364807F0CAF9C0E735480D
:102FB00007F07AF96EA807F077F9334807F074F94B
:102FC00006A96EA8FEF7B6FC50B1002EB0D10BF0EA
:102FD000B9FE81462D48374607F066F94E4699E717
:102FE00016A96EA8FEF7A6FC814688B96EA826A988
:102FF000FEF7A0FC00289BD0254807F0A1F9194B4B
:103000000A221A6026E796A807F066F905946FE78A
:10301000204807F095F948460DF53F7DBDE8F08F53
:10302000564657469DE70BF08DFE89E71A4807F094
:1030300087F90C4B08221A600CE7184807F080F952
:10304000084B08221A6005E7064B1A68092A3FF464
:1030500001AF05221A60FDE6640500206D05002021
:1030600000C20108BC05002004C20108CCCD010843
:1030700010CE01082CCE010848CE010864CE01080C
:10308000E4CE0108A8C50108B4C50108A0CE010816
:10309000C8CE0108B4CE010824CF010808CF01082A
:1030A000F8B507460BF04EFE0646A0F10A050BE008
:1030B0000BF048FE431B092B03D90546FEF720FF02
:1030C00040B101200BF044FE0BF03CFE801BB842E7
:1030D000EED3F8BD044B1A68092A01D005221A6004
:1030E000024B07221A70F8BDBC050020C005002065
:1030F0002DE9F04F994C0027994B4FF00108D4ED82
:10310000007ADFF8B8B22DED0C8B89B030EE27AA2B
:1031100093ED00DA00970397DFED928ADFED92BA24
:103120009FED929ADFED929A9FED92BACDE90177E9
:103130000BF008FEDFED907A904B8146B0EE67CA47
:10314000A0F1FA0AC3ED007AF0EE67AA8C4B0646AE
:10315000CBED007A0546C3ED007A8A4B84ED00AAD8
:10316000C3ED007A884BCDE90477CDE90677C3ED4E
:10317000007A0BF0E7FD41F26F73A0EB0902044601
:103180009A4200F2DF80831B092B40F2C380431B6D
:103190000A3607EE903A831BF8EE677A092B88BF50
:1031A000064667EEA87AF4EEE87AF1EE10FA00F13E
:1031B000A8809FED768AF4EEC87AF1EE10FA38FE18
:1031C000278A734DB0EE480AFDF7C8FB7AEE4DCA68
:1031D000D5ED007A6BEEE77AECEE897AF4EEE97AD7
:1031E000F1EE10FA00F18A80F4EEC97AF1EE10FAED
:1031F00079FE277A28EE0B8A3CEE487AB4EEE77A1D
:10320000F1EE10FA77DC3CEE088AF4EEC87AF1EEC3
:1032100010FA38FE27CAB0EE4C1A6946F0EE6A0A78
:103220009FED550A5B488BED00CA07F0DDFC0028D6
:1032300000F08C80584B1B6843B9584B1B68002B1F
:103240006ED1574B1B780BB9FEF712FD08F0E2F870
:1032500018B908F0E5F800286ED1684607F06CFE52
:1032600058B9504B1A68092A01D005221A6000206B
:1032700009B0BDEC0C8BBDE8F08F0BF063FD04A929
:1032800007F0A8FE70B9B8F1000F04D1464807F066
:1032900057F8444BE9E7CDE90400CDE9060043487F
:1032A00007F04EF8A4EB0A032D4AF92B92ED00DA51
:1032B0002AD8F0EEECCA09F0BDFBDFED3D7AF4EE62
:1032C000E7CAF1EE10FA12D8D5ED007A9FED397AFF
:1032D000F0EEE77AF4EEC77AF1EE10FA07D837B3DA
:1032E000E31B4F2B36D84FF00008254641E7002757
:1032F0002546B8463DE7B0EE47CA8CE7F0EE697A5E
:1033000078E7B0EE688A5CE704A92046A246FDF79C
:10331000CFFBCEE72C4601200BF01AFD254628E70F
:10332000254B1B78002B91D1FDF7D2FD8EE7274668
:103330004FF0000825461CE7FDF7C8FA194B092293
:103340001A608FE7174B07221A6090E7154B062289
:103350001A608CE7FEF7D4FD8AE700BF8C050020D9
:10336000AC0500206F12833ACDCC4C3ECDCC0C4046
:10337000CDCC0CC03333734000000000A805002002
:10338000980500209405002090050020CDCC4C3DF0
:10339000B005002034F20108DC040020E80400201D
:1033A0006F050020BC05002064CF010840CF010854
:1033B0000AD7A33C0AD7233DE6040020A405002039
:1033C0002DE9F04F00232DED108BE5B0DFED958A50
:1033D000B0EE408A1993B0EE60EACDED128ACDEDE1
:1033E000138ACDED148ACDE91A33CDE91C33CDE92A
:1033F0001E33CDE92033CDE917338B4BD3ED00EAF3
:103400000BF0A0FCF0EE682ADFED951AB0EE682A0A
:1034100023AA01230490CDED228A07EE903AF0EE24
:10342000480A16A915A8B8EEE70A013320EE210ACA
:10343000FDF70AFAF0EE627ADDED162AB0EE427A76
:103440009DED152A412B72EEE77A52ED016A32EEBC
:10345000477A67EEA77AE7EE077AB1EEE77A77EE7A
:10346000267AE2EC017AD8D19DED62BA9FED6FCA5F
:10347000B4EECCBAF1EE10FA08D86D4B062200205B
:103480001A6065B0BDEC108BBDE8F08FDFED65AA6A
:10349000684BDFED697AB0EE6A9AC3ED00AAF0EEF0
:1034A0006ABA664B6EEE277A9FED65FAB0EE6AAAAD
:1034B000C3ED00AAF0EE6A9A624B28EE0F7A049EE2
:1034C000F0EE6ADAC3ED00AAB0EE6ADA5E4BF0EE17
:1034D0006ACACDED087A7EEEA77AC3ED00AA374618
:1034E0005A4BB0468DED027AC3ED00AAA6F1FA035D
:1034F000CDED077A0693FEF75FFC002301220A93C5
:10350000059209930BF01EFC0646FEF755FC049A43
:1035100042F22733B21A9A4200F23F83F31B092B7F
:1035200040F2BC83A6EB08030A3707EE903AF31B80
:10353000F8EE677A092B88BF374667EE8C7AF4EE8F
:10354000CC7AF1EE10FA00F18783DFED41FAF4EE68
:10355000EF7AF1EE10FA7FFEA7FAB0EE6F0AFDF7F0
:10356000FDF914AB12AA1EA9009313AB394807F05A
:10357000B3FB8046002800F0CF83DFF8DCB0DBED42
:10358000007A77EEEE8AB0EE680A14F0F1FCB0EE45
:1035900040FAB0EE680A14F0EBFB9DED137ADDED16
:1035A000127AF0EE401A67EE006A9DF8643027EE5A
:1035B0000F7AE7EE8F6AA0EE677AB0EE66EAF0EE79
:1035C000478A002B00F05083B0EE6F2A17A8B0EEA8
:1035D0004F1AF0EE470AB0EE660AFEF7D9F89DEDF5
:1035E00017EADDED188A89EE8B6AB5EEC06AF1EE56
:1035F00010FA00F13483F7EE002AB4EEE26AF1EE3D
:1036000010FAF5EEC09A32FE866AF1EE10FA40F238
:103610008783F4EECB9AF1EE10FA58DA23AA01234D
:1036200030E000BF000000008C0500206F12833ADC
:10363000BC050020A8050020DA0FC93FA405002022
:10364000B7D1303F98050020940500209005002058
:10365000CDCC4C3D34F20108AC050020BD37863599
:103660000000803CCDCCCC3E9A99193F3333B3BE99
:103670009A9919BE0AD75BC0AE47613F0133412B0F
:1036800000F04783D2ED007A0432F4EEE79AF1EECF
:1036900010FAF3D8013B1FED0F5A0DEB8302D2ED68
:1036A000225A77EEE57AF4EEC57AF1EE10FA40F39D
:1036B000078379EEE55A85EEA75A07EE903AF8EEC1
:1036C000E72A5FED197A72EE852A62EEA72AF0EEFC
:1036D000480A16A9B0EE620A15A88DED036AFDF737
:1036E000B3F8F7EE005A5FED217AF0EE084A1FEDCD
:1036F000224A28EE275A1FED237A75EEE25A9DEDF5
:10370000023AF1EE087A9DED036AA8EE443A65EEBE
:10371000A43A65EEA77A62EEA44A63EEA53AF0EE0B
:10372000455A67EEA27A64EEA24AD8EE045A65EED4
:10373000A75A67EE877A1FED327AE5EE235A1FED1E
:10374000335AE3EE877AE4EE835AE4EE857A25EE87
:10375000A55AA7EEA75AF1EEC53AF4EECC3AF1EE2F
:1037600010FA40F2D982C5EEA34A5FED3D5AE54B0F
:10377000D3ED002A87EEA34ADFEDE33A68EEA33AE1
:103780006EEE255A7BEE697AA3EEAFDAE5EEAFCAAC
:1037900023EEA43AA5EE843A63EE843AE4EEE53AE9
:1037A000F0EE625AB0EEC35AE3EE2FDAE5EE2F5A8E
:1037B000C3ED005A7BEE6D5AF4EEE5AAF1EE10FA75
:1037C000F4EEE7AA3AFEA50AF1EE10FA7AFEA77A1D
:1037D000F4EEC07AF1EE10FA30FE270AB5EE400A98
:1037E000F1EE10FA00F1BB82F1EEC07ADFEDC72AEC
:1037F000F4EEE72AF1EE10FA77FEA27AB4EEE7AA29
:10380000F6EE002AF1EE10FA6FEEA22A40F10A82DB
:103810007AEE222AF4EEE72AF1EE10FA37FEA2AA97
:10382000EAEE2F9ADFEDBA7AF4EECB9AF1EE10FAC7
:103830007BFE299A79EEED2A62EEA72AFDEE007A48
:10384000F4EEE72AF1EE10FA07D4F5EE007AF4EE82
:10385000E72AF1EE10FA77FEA27A7AEE277AFDEEE9
:10386000002AF4EEE27AF1EE10FA00F10E82DFEDBA
:10387000A72AF4EEE27AF1EE10FA72FEA77A37EE9A
:10388000C33ADFEDA42A63EE222AE2EEAFBAFDEEE0
:10389000002AF4EEE2BAF1EE10FA00F1F381F5EE4F
:1038A000002AF4EEE2BAF1EE10FA72FEABBADFEDE6
:1038B0009A2AE3EE227AFDEE002A77EEAB7AF4EE56
:1038C000E27AF1EE10FA07D4DFED902AF4EEE27A14
:1038D000F1EE10FA72FEA72ADDED167A9DED152A9B
:1038E0007DEE677ADFED8D0A3CEEC22A8C4B67EEE7
:1038F000847AC3ED002AE4EEC27A9FED8A2AB0EE04
:10390000673ADFED897A67EEE37AE3EE027AF4EE66
:10391000E07AF1EE10FA07D4DFED840AF4EEE07AF3
:10392000F1EE10FA70FEA70A814BDDED027A83ED0D
:10393000003A9FED803A37EECD2A7F4B33EE6C3A5A
:10394000C3ED000A62EE027A7C4BB5EEC03AC3EDDD
:10395000003AF1EE10FA00F1778177EEAA7AB0EE34
:103960006A3AF1EEE73ADFED767AB4EEE76AF1EE25
:1039700010FAC0F26081DFED737AF4EEE73AF1EE0F
:1039800010FA05D9F4EECC3AF1EE10FA00F39B816F
:10399000DFED6D0AF0EE6A7AB0EE603A604BC3ED8F
:1039A000007AF7EE004A9DED087A82EE8B4A674B6B
:1039B000B4EEE46AB0EE001AF0EE082AF1EE10FA66
:1039C000F1EE087A21EEE00A34FE862AE2EE412A80
:1039D00074EEC64A22EE022A66EE277A60EE8F0A5D
:1039E000A3EE0F0A62EE822A9FED592A67EEA47AAF
:1039F000F0EE6E4AE3EE210AE7EE224A67EE272A4E
:103A0000DBED007A93ED003A74EEE77A67EE827AA6
:103A1000E2EE847A9FED4F4AE3EE447A9FED4E4A00
:103A2000F4EEC47AF1EE10FA00F12981F4EEC27AD4
:103A3000F1EE10FA72FE277A9FED484A6FEE84FA93
:103A400039EE6F4AB4EEE74AF1EE10FA00F3148152
:103A500079EE2FFAF4EEEF7AF1EE10FA3FFEA79A24
:103A60003F4A9DED077A82ED009A3E4ADBED007AEF
:103A7000C2ED004ADFED324A77EE677AB4EEE46ACF
:103A8000F0EEE77AF1EE10FA80F2AE80F0EEE55A51
:103A90009FED357AF4EEC75AF1EE10FA00F2B780D6
:103AA0009FED287AB4EEC75AF1EE10FA00F2AF801B
:103AB0009FED2E7AF4EEC77AF1EE10FA0AD8D3ED24
:103AC000007A9FED2B7AF0EEE77AF4EEC77AF1EE0A
:103AD00010FA0DD9124BC3ED00AA174BC3ED00AA83
:103AE0000A9B002B00F0E080CDF828804FF0000802
:103AF000B0EE491A1AA91F4807F076F8002800F01E
:103B00000B8139E0A00500209A99B93F3333B33FC8
:103B10009A99993FCDCC4C3F3333B33E9A9999BE95
:103B2000A80500209A9919C0AE47613E9A99993E1E
:103B3000980500200AD77BC094050020900500203E
:103B40009A99593F8FC2F53C00000000B005002053
:103B5000CDCC0C40CDCC4C3ECDCC0CC033337340DF
:103B6000A40500208C0500206F12033C0AD7A33C5B
:103B70000AD7233D34F201081AA8FEF78DF9002870
:103B800000F0DA800BF0DEF81EA907F023FAA0B9E6
:103B9000059B5BB9844806F0D3FB844B05221A6071
:103BA000002065B0BDEC108BBDE8F08FCDE91E00A4
:103BB000CDE920007E4806F0C3FB069BF31AF92BE3
:103BC00066D808F037FFB8F1000F09D0099B002B29
:103BD00068D0F31A3B2B4FF0000300F2B380099337
:103BE0000023B04605938DE49FED726AF4EEC63A69
:103BF000F1EE10FA0BD828EEA87AAEEE0E7AF1EEBE
:103C0000C76AF4EEC66AF1EE10FA7FF651AF9FED87
:103C10006A7AF4EEC77AF1EE10FA1AD81B684FF000
:103C2000000865E77AEE622AF4EEE27AF1EE10FA25
:103C300037FEA2AAF4E524EEE03A60EE840AA4EE90
:103C4000223AE4EEA20AACE6E3EE037AB1EE433A9E
:103C500087E64FF000084BE7F0EE4CFA7DE4B0EE5B
:103C60006A6AF0EE6A2A32E50123CDED176A8DED1E
:103C7000187A8DF86430B6E4B0EE449AF0E6F0EECF
:103C8000447AD9E6F0EE62BA11E6F0EE627AF6E531
:103C90001EA93046FCF70CFF069692E701200BF0B8
:103CA00057F82FE409969BE74448CDED0A0A8DEDBD
:103CB000030A06F045FBDDED0A0A9DED030A13E752
:103CC000B0EE6A5AF9E4DFED3E0ADFED3E7A62EECD
:103CD000200A9FED3D4A23EE273A60EEA04AE3EE2C
:103CE000034AF1EEE47AF4EEC47AF1EE10FA1ADC4B
:103CF000DFED364AF4EEE47AF1EE10FA7FF54EAEDF
:103D000084EEA74AF0EE647A23EE043A60EE840A69
:103D100044E6F7EE002ADAE4244B06221A603FE775
:103D2000DFED2B2AD3E4C4EE274AF0EE447A23EEEB
:103D3000243A60EEA40A31E61C4B1A68092A7FF483
:103D40002DAF2DE7234ADDED077AC2ED007A224A36
:103D50001360224A1360FEF7D3F8FFF792BBCDED54
:103D6000111A8DED106ACDED0F5ACDED0E3A8DED95
:103D70000D3ACDED0C4A8DED0B4A8DED035A13F043
:103D8000CDFFDDED111AF0EE407A9DED106ADDED0C
:103D90000F5ADDED0E3A9DED0D3ADDED0C4A9DED2D
:103DA0000B4A9DED035A21E564CF0108BC050020B4
:103DB00040CF01080AD7A33D0AD7A33C90CF010802
:103DC0009A99993F9A9999BF6666E63E8FC2F53DEA
:103DD000000000008C050020A8050020A40500209C
:103DE0009FEDDD7A60EEA07A0023002231EE477A63
:103DF000E0EE007AF0EEC76A9FEDD87A2DE9F04F39
:103E0000F4EEC76ADFF8A0A306469AED006AF1EE69
:103E100010FA2DED108BE7B0B1EEE79A329336939E
:103E20002C933593B0EE608A3993F0EE408AF0EE31
:103E300041FACDED1A6AB0EE61BA8DED0C6AB0EEC2
:103E400042CA269227922892CDED072ACDE9333334
:103E5000CDE93733CDE92D33C14BD3ED007ACDED2C
:103E60000A7A00F23483F0EE087ACDED107ADFEDB5
:103E7000BD7ACDED0F7ADFEDBC7ACDED0E7A002E56
:103E800000F02083DFEDB97ACDED1B7AF0EEC87A31
:103E9000B0EEE87AF4EEC77AF1EE10FA40F3098357
:103EA000F1EE047ACDED0D7AF5EE007ACDED0B7AD8
:103EB000DFEDAFCA0AF046FFB4EEEC9AF1EE10FA6D
:103EC00000F1EE82DFEDAB7AF4EEE7FAF1EE10FAF4
:103ED00040F2E682B4EEE7BAF1EE10FA40F2E08288
:103EE000B4EEE7CAF1EE10FA40F2DA8288EE89DA2F
:103EF000A14B9FEDA27A4FF0000CC3ED007A07466C
:103F00009F4B8BFE477A8DED237A0546C8EE09DA82
:103F1000C3ED007A9B4B9DED077AC3ED007A9A4B77
:103F2000B0EE67FA9949C3ED007A994BF0EE4F9ADB
:103F3000CDF870C0C3ED007AF0EE4F8ADDED0A7A5D
:103F4000B0EE4F9A934BF0EE4FBA77EE877ACDF8FA
:103F500054C0664508BF1946A0F1FA03B0EE4FAA57
:103F6000CDF874C0CDED167A6FEE8D7A14930123DF
:103F70002291CDED177A6FEEAD7A09938DED13FA9C
:103F8000CDED187A8DED12FA8DED06FA8DED05FA6C
:103F9000CDF864C011900AF0D5FE119A43F697232C
:103FA0000446821A9A4200F27385DFF800B2DBF809
:103FB000003023B1784B1B78002B40F08685E31B43
:103FC000092B40F2F783631B0A3707EE903AE31B95
:103FD000F8EE677A092B88BF274667EEAC7AF4EED5
:103FE000EC7AF1EE10FA00F1C6839FED6C2AF4EE44
:103FF000C27AF1EE10FA72FE27EAC9EE2F7AF5EED8
:10400000C07AF1EE10FA00F1B183B7EE008AB0EE9B
:10401000007AF4EEC87AF1EE10FA38FE278AF0EE54
:10402000087AE8EE477A28EE087A67EE877A9DEDFF
:10403000077AB0EE6E0ADDED0AAA494BE7EE27AA31
:10404000C3ED00AAFCF78AFC28AB26AA36A954487F
:10405000009327AB06F040FE0546002800F02082C2
:104060009DED0C7ADAED007A77EEC77AB0EE670A4A
:10407000CDED087A13F07CFFB0EE40EA9DED080A22
:1040800013F076FEDDED270ADDED267AF0EE401A1C
:1040900020EE806A9DF8B83060EE8E0AA7EE8E6A38
:1040A000E0EE670A002B00F06983B0EE460A2CA808
:1040B000B0EE6E2AB0EE4E1AFDF76AFB9DED2C6A4B
:1040C000DDED2D0A6DEEA05ADDED057A3FEEC97AE1
:1040D000344BEEEE867AEDEE065A7CEE0C6ACDEDB0
:1040E000057AE5EEAEBADDED067AB0EEE54AE0EE31
:1040F000AE7A3FEEEB5ACDED067A6DEE207AB4EE55
:10410000C5AAEDEEC67AF1EE10FAB4EEC7AA3AFEF1
:10411000050AF1EE10FAA7EEAEFA3AFE077AB4EE0F
:10412000C07AF1EE10FA30FE070A93ED007A20EE25
:10413000260AA4EE2E7AB5EE400AF1EE10FA83EDCF
:10414000007A104B83ED00FA114BC3ED007A00F1B9
:10415000E386B1EEC07A33E0C87E24400AD7233C20
:104160008C0500209A99993E5C8FC23E6F12033CE9
:104170006F12833A00000000A8050020AE47613EA0
:10418000A40500209805002094050020C4CF010854
:104190009005002004D00108E7040020CDCC4C3D60
:1041A00034F20108A0050020AC050020E80400203E
:1041B0009A99993FCDCC4C3F3333B33E17B7D138A2
:1041C000B4EEC7BA6CEE2E3AF1EE10FA37FE0B7A67
:1041D000F4EEC78AF1EE10FA40F1948278EEA38AE9
:1041E000F4EEC78AF1EE10FA77FE288AA8EEAE9AAE
:1041F0009DED073A1FED0F7AF0EEC34AB4EEEF9A49
:10420000F1EE10FAF4EEC74A3FFE899AF1EE10FA89
:1042100040F37582C8EEAF6AB1EE087A23EE077AF2
:10422000B7EE003A27EE087A33EE483A27EE037AE3
:1042300027EE267A39EE6B3A5FED236A23EE263AB3
:10424000FDEE006AB4EEE63AF1EE10FA07D4F5EEB0
:10425000006AB4EEE63AF1EE10FA76FE836A78EE82
:10426000A66ABDEE003AF4EEC36AF1EE10FA00F170
:104270009082F4EECB6AF1EE10FA7BFE266A76EEBF
:10428000E55A5FED342ABDEE003A65EEA22AE2EE71
:10429000AE9AF4EEC39AF1EE10FA00F17782B5EE21
:1042A000003AF4EEC39AF1EE10FA73FE299A1FED6C
:1042B0003E3AE5EE836AFDEE005A76EEA96AF4EE28
:1042C000E56AF1EE10FA00F16782F4EECB6AF1EEE6
:1042D00010FA7BFE266A5FED475A834BF4EEE54AFF
:1042E000C3ED006AF1EE10FA00F31582002E40F0E3
:1042F0001882F0EEE65A9FED7D3ADFED7D2A65EEFD
:10430000835A85EEA23ADFED7B2AB4EEE23AF1EE73
:1043100010FA72FE832AB1EE623ADAED005A9DED90
:104320000D2A75EEEA5A744BA5EEC27AD3ED005A07
:104330009DED0B2AA5EEC27AB4EEC37AF1EE10FA27
:1043400005D4B4EEE27AF1EE10FA32FE873A9DED32
:104350000F7ADDED0E5A67EE677A9DED107A674BA6
:10436000E7EE4F7A83ED003AB1EE657AF4EEC77A64
:10437000F1EE10FA05D4F4EEE57AF1EE10FA35FE1E
:10438000A77ADDED187ADDED065A5D4B77EEE5AAEA
:10439000DDED177ADDED055A83ED007A37EEE58A1B
:1043A000002E00F0C780DFED5F7A6FEEA77AF4EEA3
:1043B000EB7AF1EE10FA00F2F8811D9668EE087AB9
:1043C000199BEAEEAA7AB1EEE77AD3B92298CDED3D
:1043D000211A8DED207A8DED1F6ACDED1E3ACDEDBF
:1043E000190ACDED084A05F0ABFFDDED211A9DED70
:1043F000207A9DED1F6ADDED1E3ADDED190ADDED37
:10440000084ADDED1B7AF4EEC77AF1EE10FA00F1FE
:10441000FA81354B83ED00AAC0F2D88126EE066AF8
:10442000DFED387AA0EEA06AB1EEC67AB4EEE77A94
:10443000F1EE10FA00F2CA819DED167ADAED007AFB
:1044400077EE677A9FED3A7AF0EEE77AF4EEC77A84
:10445000F1EE10FA00F28E82274BD3ED007AF0EEE7
:10446000E77A002E00F07D859FED277AF4EEC77A7B
:10447000F1EE10FA00F28082DDED137A3546DFEDC1
:10448000230A01237AEE676ADDED127A19963AEE75
:10449000677A26EEA66AF0EE607AA7EE076AA4E0D5
:1044A0001B4B06221A60002067B0BDEC108BBDE8E4
:1044B000F08FF2EE027ACDED0D7ADFED167ACDEDCA
:1044C0000B7AF5E4DFED167ACDED1B7ADEE4DFED55
:1044D000127ACDED0F7ADFED117ACDED107ADFEDA6
:1044E0000D7ACDED0E7ACAE4A80500206666263F57
:1044F0007B14AE3E3333333FB0050020A4050020CB
:1045000094050020CDCCCC3C0AD7233D0000000010
:10451000BC0500209A99993EAE47613E9A99194090
:104520000AD7233CCDCC4C3E6F12033C8FC2F53CE6
:104530000AD7A33C5FED067ADDED1A5AF4EEE75A8E
:10454000F1EE10FA09D85FED097A6FEEA77AF4EE72
:10455000C97AF1EE10FA7FF631AFB0EEC55A6DEEC2
:10456000C77A6DEE070A1FED107AB4EEC75AEDEE6A
:10457000267AEDEEA60AF1EE10FA00F2DD801FEDCC
:10458000157AB4EEC74AF1EE10FA00F2D580DDEDEF
:10459000166A9AED007A36EEC77A5FED1B6AB0EEC6
:1045A000C77AB4EEE67AF1EE10FA00F2CE81C54B8E
:1045B000DFEDC56A93ED007AB0EEC77AB4EEE67A25
:1045C000002E00F0A381F1EE10FA00F254819DED6F
:1045D000137A002570EEC76A9DED127A2B4637EEEE
:1045E000C77A26EEA66AA7EE076AF1EEC65AF4EE7F
:1045F000E53AF1EE10FA40F1358163EEA66A23EE5A
:10460000877A86EEA56ADDED126AC7EE257A9DED02
:10461000137A37EE067A8DED137A27EE077A76EE67
:10462000A77AA7EEA77ACDED127AF1EEC77AA74A5C
:104630009DED127AA649C2ED007ADDED137A6DEE9A
:10464000277AEDEEC77AC1ED007A002B00F00881E1
:1046500092ED007ADFED9F7AB4EEE77AF1EE10FA90
:1046600094BF4FF001084FF00008DDED130ADDEDB7
:10467000127A21EEE00A984B60EE8E0A32A993ED91
:10468000001AA7EE8E0A9548E7EEA10A06F0ACFAEA
:1046900000283FF405AF32A8FDF7FEFB002800F02C
:1046A00003820AF04FFB36A906F094FC78B9099B07
:1046B00033B98B4805F044FE8A4B05221A60F2E6B6
:1046C000CDE93600CDE93800874805F039FE149B66
:1046D000E31AF92B63D808F0ADF9B8F1000F25D033
:1046E000002D159A0CBF3C23FA23002A69D0A21A88
:1046F0009A4280F0F2810023254609934BE4B0EE04
:104700004A7A97E578EEE38AB4EEE87AF1EE10FAA9
:1047100077FE288A6AE526B99FED743ADFED742AA0
:10472000FBE59FED743ADFED742AF6E52546CDF8FA
:104730005480CDF824802EE4DDED166A9AED007ADF
:1047400036EEC77ADFED6D6AB0EEC77AB4EEE67A80
:10475000F1EE10FA01D85B4B1B680025A8462B46EA
:10476000002E86D02A461C9D1C929BE0F0EE4A7AD1
:104770009FED658A5BE4F0EE6CEA3EE401238DED8B
:104780002C6ACDED2D0A8DF8B8309BE4F0EE439AFB
:104790008DE5F0EE436A72E5F0EE656A9BE536A9B9
:1047A0002046FCF785F9149495E71D9B002B7FF4B8
:1047B00005AED2E62C4601200AF0CAFA2546FFF7DC
:1047C000EABB254615940992FFF7E5BBDFED4E0ADB
:1047D000F0EE607ADDED166A9AED007A36EEC77A71
:1047E000DFED466AB0EEC77AB4EEE67AF1EE10FA83
:1047F00001D8344B1B684FF0000819954346002E32
:104800003FF437AFAEE77AEEAA0A78EE087A60EEA8
:10481000A06AE7EEA76AB1EEE67ADDED236AF4EE70
:10482000C76AF1EE10FA00F18380DFED356AB4EE6D
:10483000E67AF1EE10FA0FD59DED236AC6FE666AA0
:1048400086EE876A60EE860A67EE867A60EEA06A78
:10485000E7EEA76AB1EEE67A1C4B83ED007AB9E782
:10486000984602E720EEA07ACDED130ACDED127A3C
:10487000A7EEA77AD9E6DFED237AF4EEE74AF1EE68
:1048800010FA40F3A8800023104A1360104A136006
:104890001C9B002B00F00D81DFED1B0A0023F0EEC6
:1048A000607A1C939DED137A1C9A70EEC76A9DED99
:1048B000127A1C95154637EEC77A26EEA66AA7EE41
:1048C000076A92E6B00500200AD7233DA80500201C
:1048D00094050020CDCCCC3CA405002034F2010886
:1048E00064CF0108BC05002040CF0108333333BF3B
:1048F0003333333F3333B3BE3333B33E0AD7A33CF2
:104900008FC2F53C17B7D13800000000F1EE10FA65
:10491000324694BF4FF00108B04643461FED077A78
:10492000F4EEC74AF1EE10FA72D8A8461546A0E692
:10493000C6EE876A60EEA60A67EEA67A60EEA06A07
:10494000E7EEA76AB1EEE67A86E7002E93D11FED77
:10495000137A3246F4EEC74AF1EE10FAE5D9B046C2
:1049600033461FED187AF4EEC74AF1EE10FA53DC25
:1049700015467EE6002E7DD05FED1E7AF4EEE74A06
:10498000F1EE10FA40F388805FED210A694BC3ED28
:10499000000A694BC3ED000A1C9B002B40F0828289
:1049A00098462A4619956548CDED201ACDED1E3A58
:1049B00008931F9205F0C4FCDFED610A1C95F0EE30
:1049C000607A1F9DDDED201ADDED1E3A089B002E5A
:1049D0003FF44FAEC6E64FF00008564B83ED00AAF9
:1049E000554B83ED00AA1C9B2BB3DDED137A454696
:1049F000DFED530A00237AEE676ADDED127A3AEEB4
:104A0000677A26EEA66AF0EE607AA7EE076AECE512
:104A1000B8F1000FA5D088E7464981ED00AA4649C4
:104A200081ED00AA1C990029BDD0DFED450A15468D
:104A3000F0EE607A1DE64148CDED1E1ACDED083A44
:104A400005F07EFCDDED137A0023DFED3D0A7AEE02
:104A5000676ADDED127A1C9545463AEE677ADDED20
:104A6000083A26EEA66ADDED1E1AF0EE607AA7EE91
:104A7000076ABAE5DFED337A2A461995F4EEE74A7C
:104A8000DFED2F7AF1EE10FA09D8F0EE670A4CE765
:104A90002D4B05221A6006E5A84619959DE7F0EE14
:104AA000670AB04633465CE7274B1A68092AF0D1FB
:104AB000F9E42248CDED1C1ACDED083A05F040FC92
:104AC000DDED083ADDED1C1AE6E6FDF719FA0023E4
:104AD000184A13601D4A1360E5E41D4B0024DDED08
:104AE000167AC3ED007A134B1C60002E42D0DFED26
:104AF000197AA021184A3EA82AEEA76A28EE277A3A
:104B0000B7EEC66AB7EEC77A8DED026B8DED007B0E
:104B100014F0AEFA3EA805F013FCFDF7F1F90028F9
:104B20007FF4C2AC084B1A68092A3FF4BDAC0522D9
:104B30001A60B9E4A80500209405002044D00108BB
:104B40000000000017B7D138BC050020A4050020E4
:104B50008C05002000007A4488D001086F12833A47
:104B60003333B3BE6F12033CEC5138BE9A9919C06F
:104B7000AE47613E3A963E962F963D9641965FED42
:104B8000098A5FED099A5FED06AA1FED08AA1FEDDD
:104B90000A9A1FED0CBACDE93B66CDE93F66CDE937
:104BA00030660AF0CFF8C24B814601201C60C14B31
:104BB0004F464D4683ED00FABF4B1C60A9F1FA0346
:104BC0000593FBF72FFF06960AF0BCF8A0EB09034C
:104BD0000446B3F5FA5F80F09381C31B092B40F2C2
:104BE0004981431B0A3707EE903AC31BF8EE677AF8
:104BF000092B88BF074667EEA87AF4EEE87AF1EE53
:104C000010FA00F120819FEDAD8AF4EEC87AF1EE42
:104C100010FA38FE278AB0EE480AFBF79FFE2BAB4E
:104C200029AA3EA900932AABA54806F055F800280A
:104C300000F03281DDED0C7A9AED00CA3CEE67CAD5
:104C4000B0EE4C0A13F094F9F0EE40BAB0EE4C0A14
:104C500013F08EF8DDED2A0AF0EE401ADDED297A28
:104C600020EE200A9DF8C4306BEEA00AABEEA70A36
:104C7000E1EEE70A002B00F0EF80B0EE482A2FA803
:104C8000B0EE6B1AFCF784FD9DED2F0ADDED300AC6
:104C90006DEE200A8B4BDDED0B6AEDEEC00AC3ED25
:104CA000000AD3ED007A834BA8EE27FADDED167AE1
:104CB00083ED00FA844B9AED007A37EE677AD3EDF4
:104CC000007A67EEE67ADDED0D6AE6EEC77AF4EE7D
:104CD000E97AF1EE10FA00F1BC809FED7C7AF4EEF7
:104CE000C77AF1EE10FA77FE277A794BC3ED007A96
:104CF000744BD3ED007A6AEEE77AEFEE0A7AF4EEBF
:104D0000C97AF1EE10FA00F1A1809FED727AF4EE0B
:104D1000C77AF1EE10FA77FE277A674B3AA968480E
:104D2000C3ED007AD3ED007AD3ED000A6DEEE77A99
:104D3000674B6DEE200A93ED001A20EEE10A6BEE50
:104D4000A00AABEEA70AE1EEA70A05F04DFF002886
:104D500000F0A280604B1B684BB9DBF80030002BE1
:104D600040F08C805D4B1B780BB9FCF781FF06F09F
:104D700051FB20B906F054FB002840F087803AA888
:104D800006F0DAF840B9564B1A68092A01D0052214
:104D90001A603046FFF788BB09F0D4FF3EA906F041
:104DA00019F970B9B8F1000F04D14E4805F0C8FAEE
:104DB0004B4BECE7CDE93E00CDE940004A4805F019
:104DC000BFFA059BE31AF92B4ED807F033FEF0EE3D
:104DD000CF7AF4EECB7AF1EE10FA31D8394B9FED61
:104DE000437AD3ED007AF0EEE77AF4EEC77AF1EE8B
:104DF00010FA25D8DAED007ADDED166A9FED3C7ADF
:104E000077EEE67AF0EEE77AF4EEC77AF1EE10FA92
:104E100016D82D4B9FED377AD3ED007AF0EEE77A76
:104E2000F4EEC77AF1EE10FA0AD8069B002B65D093
:104E3000E31A3B2B00F2928025464FF00008C3E6B0
:104E400000230693F8E7B0EE688AE4E6F0EE497ACC
:104E500063E7F0EE697A48E701238DED2F0ACDED87
:104E6000300A8DF8C43013E73EA92046FBF720FE38
:104E70000594AAE7012009F06BFFA5E61E4B1B78FD
:104E8000002B7FF474AFFCF723F870E7FBF71EFDEF
:104E9000134B09221A6077E7114B062230461A603D
:104EA000FFF702BB1C9DF0EE607A00231995F9E430
:104EB000A80500209805002094050020CDCC4C3D8D
:104EC00034F2010890050020B00500203333B33ED2
:104ED000A4050020EC51383EDC0400206F050020C2
:104EE000BC05002064CF010840CF01088FC2F53C0B
:104EF0000AD7A33C0AD7233DE604002006949BE78B
:104F000000230320204A1360FBF78CFDFCF7F8FF19
:104F100006463046FFF7C8BACDED251A8DED246A56
:104F20008DED215ACDED207ACDED1F5ACDED1E0A23
:104F30008DED084A12F0F2FEDDED251AB0EE407A52
:104F40009DED246A9DED215ADDED207ADDED1F5A9D
:104F5000DDED1E0A9DED084AFFF732B9002302205D
:104F6000D0E79FED0A7A2A461995F4EEC77ADFED6D
:104F7000087AF0EE670AF1EE10FA94BF4FF00108DC
:104F80004FF000084346C9E4940500200AD7233DAA
:104F9000000000002DE9F047C6B0602106A809F026
:104FA00031F9002835D006AD934E944F05EB00083B
:104FB000DFF8A49206E0611C7F292DD831603B55B3
:104FC000A84526D015F8013B34680D2B06D0A3F177
:104FD0000A02B2FA82F25209002AECD00023884970
:104FE00086483B5514F082F9824650B1B84208D049
:104FF000FBF778F9044651463846621C14F0DCF899
:10500000346014B1D9F80030E3B90023A845336007
:10501000D8D146B0BDE8F087DFF840A232609AF8F8
:105020000020D9F80030002A5DD0764A0192A021F4
:10503000754A1EA80092754A14F01AF81EA805F0C9
:105040004BF9BDE705AC72480DF113022146FBF7A1
:10505000B5FE002849D02368D9F80020DFF8FCA16C
:1050600093425CD00DF1130221466A48FBF7A6FE7D
:1050700020B12368D9F8002093426BD00DF11302C0
:1050800021466548FBF79AFE20B12368D9F8002035
:10509000934277D00DF1130221466048FBF78EFE54
:1050A00028B12368D9F80020934200F082800DF1E6
:1050B000130221465A48FBF781FED9F800309AF8CE
:1050C000002010B124689C4214D08AB14D4A01924C
:1050D000544A00924D4AA0211EA813F0C9FF1EA8F1
:1050E00005F0FAF891E7504AA0E7DFF870A1B9E7B8
:1050F0004D4AECE79DF813109142E6D14B4B00224C
:105100004B481A7005F0D0F89AF80030002B6ED09A
:105110003C4B434A009323460192464ADBE79DF805
:1051200013109AF8002091429CD1434A127812B988
:10513000424A012111704248039305F0B5F89AF8EC
:105140000020039B002A4CD1374A0092304A01923A
:10515000384AC0E79DF813109AF8002091428DD18B
:10516000384A012138480393117005F09DF89AF8E8
:105170000020039B002A36D0224A0092254A019241
:105180002C4AA8E79DF813109AF80020914281D18B
:105190002E4A01212E480393117005F085F89AF8E4
:1051A0000020039B0AB3174A00921B4A0192214A2E
:1051B00091E79DF813109AF8002091427FF477AFA1
:1051C0001A4A012123480393117005F06DF89AF8EB
:1051D0000020039B6AB10B4A0092104A0192154AC3
:1051E00079E7084AB1E7104AC7E70F4ADCE70E4BF8
:1051F0008FE70D4AF0E700BF7C030020FC0200208F
:1052000078C2010800C2010800D20108C8D1010813
:105210006CC40108ACC40108F0C3010868D10108DE
:1052200098D10108F8D1010804C20108D404002073
:10523000A0D10108E8D00108D5040020D80400203E
:10524000C0D00108D704002018D10108D6040020DE
:1052500040D1010870D10108DC040020E4040020E2
:10526000B5EEC00A00230022F1EE10FA2DE9F04F4E
:105270002DED108BC1B0B0EE60CA109314930D9257
:105280000E920F9213931793CDE91133CDE9153395
:1052900000F16783F7EE00CADFF8F4B1B0EEC0BAF0
:1052A000DFF8F0A1DBED00BA09F04CFDA0F1FA0344
:1052B0005F4902460793DAF800300968002B00F0D6
:1052C00024830B1E4FF0010EB6EE00EADFED59EA23
:1052D00018BF01239FED58AADFED58FAF4460A9350
:1052E000574B0593DFED577AB0EE6F9A564B164643
:1052F0005649B0EE67FAC3ED007AF0EE678A544B78
:10530000F0EE679ADFED53AA4FF00008C3ED007A84
:105310001546514BDFED51DAC3ED007A504B9FED4E
:1053200051DAC3ED007A504BCDF818C0C3ED007AC6
:10533000DBF80030CDF820E00B60012304920393EA
:1053400009F000FD049A0290831A059A934280F0B6
:105350000F83069B002B00F0BC800A9B002B00F003
:10536000F981334B1B680993FCF714FB3F4B1F7803
:10537000002F40F07F823E4C2378002B00F0A98064
:10538000FCF7BEFD002800F0A9830123394A2770ED
:105390001370394B1B78002B40F0CA82374B18AF83
:1053A0000193099BA021364A38460093354B13F0F0
:1053B0005FFE384604F090FF09F0C4FC2D4B814697
:1053C0001B784BB985E007F035FB0A2009F0C0FCDB
:1053D000284B1B78002B7CD009F0B4FC0446FCF76A
:1053E000D9FA06F01DF8A4EB0902002840F0C482A7
:1053F0001E4B1B78002B40F02D8323490978002990
:1054000040F05583F92ADED91B4B1B78002B00F0A6
:10541000A6821E4A099938461A4BA146CDE90012C8
:10542000174AA02113F024FE384604F055FFCAE7BE
:10543000D00400200AD7A33D9A99193FCDCC4C3E09
:10544000C0D4010000000000A80500208C05002049
:10545000A40500206F12833A980500200AD7A33CC8
:1054600094050020CDCC4C3D90050020CA040020BE
:10547000CC040020C9040020CD04002004C201088F
:1054800018D2010844D20108CB04002000C2010850
:10549000AC050020DC0400209C4A9D4913709D4A05
:1054A0000B9D127823700B70002A00F01D839A4B1D
:1054B00001938021099B3846984A0093984B13F03A
:1054C000D7FD384604F008FF964804F0EDFE0123AE
:1054D0000393029B9B1B092B40F2BA81029B0A3665
:1054E0005A1B08EE102A1A469B1BB8EE488A092B55
:1054F00088BF164628EE2A8AB4EEEA8AF1EE10FA40
:1055000000F1FD80B4EECD8AF1EE10FA3DFE088A7E
:10551000B0EE480AFBF722FA0FAB0DAA14A90093CC
:105520000EAB814805F0D8FB002800F01D82DBEDB2
:10553000007AF5EE006A77EEEB7ADBED00BAB0EEBA
:10554000E76AB4EEE66AF1EE10FA07D8ACEEA7FA15
:10555000F4EECF9AF1EE10FA39FE8FFA7BEE4F7A25
:10556000089BF4EEE79AF1EE10FA79FEA77A002B89
:1055700000F0C280664B6EEE086A1B78002B0FFEAF
:10558000AE6AB4EEC69AF1EE10FA40F15A8139EEE5
:10559000269A89FE469A3AEE0A0A20EE270AB5EEC6
:1055A000400AF1EE10FA00F1AC82F1EEC07AB4EEEE
:1055B000E79A6AEE086AF1EE10FA38EEE66A77FECC
:1055C000897A67EEAC7AF4EEC67AF1EE10FA00F161
:1055D000998078EEA68AF4EEE87AF1EE10FA78FE79
:1055E000A78A6CEE680A514BB0EE681A10A9B0EEAB
:1055F000690A4D48F0EEE07AC3ED007A4C4BC3EDFA
:10560000008A05F0F1FA002800F0AE81DAF80030E7
:105610004BB9484B1B68002B40F01F81464B1B7851
:105620000BB9FCF725FB05F0F5FE20B905F0F8FEF7
:10563000002840F0648110A805F07EFC58B93F4B6B
:105640001A68092A01D005221A60002041B0BDEC79
:10565000108BBDE8F08F09F075FB14A905F0BAFCBA
:1056600078B9039B33B9364804F06AFE334B052200
:105670001A60EAE7CDE91400CDE91600314804F0DC
:105680005FFEDDED0F7A304BF0EEE77A079AD3ED4F
:10569000006A67EE8C7AE7EE886AC3ED006A029BC7
:1056A0009B1AF92B00F2C68007F0C4F97BEE6D7AE5
:1056B000F4EECF7AF1EE10FA19D8244B9FED247A4C
:1056C000D3ED007AF0EEE77AF4EEC77AF1EE10FA55
:1056D0000DD8B8F1000F00F0C880029BA3EB0803BF
:1056E0004F2B00F2078200230393029D28E64FF020
:1056F0000008CDF80C80F8E7B0EE6F9A4BE7B0EEFB
:105700006A8A05E7F0EE468A6BE700BFD504002001
:10571000D4040020E404002000C2010854D201088F
:105720004CD2010894D2010834F20108A8050020E7
:10573000A4050020E80400206F050020BC0500201F
:1057400064CF010840CF0108A0050020B00500206B
:105750000AD7233DDAF800300993FFF71BFCA54B6D
:105760001B78002B40F0A080A34B1B78002B3FF44C
:10577000B0AEFCF7C5FB002800F0B0819E4B0A9A42
:105780001A7001239D4A13709D4B1B78002B40F02B
:10579000CD809C4B18AF0193099B80219A4A3846D3
:1057A00000939A4B13F064FC384604F095FD09F021
:1057B000C9FA8146964804F077FD904B1B78002B80
:1057C0003FF487AE934C0B9509E007F033F90A20BC
:1057D00009F0BEFA894B1B78002B00F07D8109F09F
:1057E000B1FA0546FFF7D6FB05F01AFEA5EB090254
:1057F000002840F0DA807F4B1B78002B40F034818A
:10580000217800297FF448AEF92ADED97C4B1B7839
:10581000002B00F0A280804A099938467B4BA946AC
:10582000CDE90012784A802113F022FC384604F0BA
:1058300053FDCAE7029C14A92046FBF739F90794E7
:1058400032E77FF7A8AE39EE669A89FE069AA2E69D
:10585000012009F07DFA029547E7704B1B78002B79
:105860007FF4E1AEFBF734FBDDE60023DDF80880D2
:1058700003933AE7FCF744FB002800F02F81684BC4
:105880001B78002B58D15F4B099AA021019318A8CF
:10589000644B0092644A13F0EBFB18A804F01CFD63
:1058A0000023624A137024E0FCF72AFB002800F072
:1058B0001581534B1B78002B3CD1524B0193802117
:1058C000099B18A8504A0093564B13F0D1FB18A817
:1058D00004F002FD0023474A47491370474A0B7002
:1058E0001370534A4B491370524ACAF800300B7078
:1058F0001360DBF8003001204F4A1360A6E6FAF788
:10590000E5FF4C4B09221A609AE6B9B1DFED4BEA8C
:105910009E464FF0010C4A4BF0EE6EFA9FED49AAFD
:105920009FED49EA0593CDF828C0DBE43A4B31E717
:10593000394B34E5384BC1E7374BA5E7F7EE00EAC2
:1059400042F6E0638E469FED41AA9FED3FEA8C460A
:10595000F0EE6EFA05930A91C4E42A4A5CE7294AFC
:1059600058E5FFEE00CA97E4324B06221A606CE657
:10597000304B07221A6068E6FCF7C2FA284B1B7806
:10598000002B6FD0244B0193A021099B3846264A57
:105990000093244B13F06CFB384604F09DFC00236D
:1059A0002B4A1370214A1370A3E7FCF7A9FA144B92
:1059B0001B78002B00F09680174B01938021099BE8
:1059C0003846114A0093174B13F052FB384604F047
:1059D00083FC0023084A09491370064ACAF80030BC
:1059E0001370134A0B701370124A1360094A137034
:1059F0007FE700BFD6040020D8040020D504002093
:105A0000E404002004C2010854D2010844D2010871
:105A100078D20108D704002000C20108E604002063
:105A2000CD04002010D2010818D20108CA040020B9
:105A3000D4040020BC0500208C050020CDCC4C3EB9
:105A4000C0D401009A99193F000000006666E63F45
:105A5000C9040020FCF754FA00283FD02B4B1B78D8
:105A6000002B8FD12A4B8EE7FCF74AFA002835D05D
:105A7000284B1B78002B3BD0274B01938021099B9F
:105A80003846264A0093264B13F0F2FA384604F0C3
:105A900023FC0023234A24491370244ACAF8003007
:105AA0001370234A0B701360224A137021E7224AB5
:105AB0001370224A1370154B1B78BBB1164B019320
:105AC000A021099B38461E4A00931E4B13F0D0FAC2
:105AD000384604F001FCFAE40B9DFAE4144B05226D
