:020000040800F2
:1000000000000220D90700082D0800082D0800086C
:100010002D0800082D0800082D0800080000000029
:100020000000000000000000000000002D08000893
:100030002D080008000000002D080008C1920008EB
:100040002D0800082D0800082D0800082D080008BC
:100050002D0800082D0800082D0800082D080008AC
:100060002D0800082D0800082D0800082D0800089C
:100070002D0800082D0800082D0800082D0800088C
:100080002D0800082D0800082D0800082D0800087C
:100090002D0800082D0800082D0800082D0800086C
:1000A0002D0800082D0800082D0800082D0800085C
:1000B0002D0800082D0800082D0800082D0800084C
:1000C0002D0800082D0800082D0800082D0800083C
:1000D0002D0800082D0800082D0800082D0800082C
:1000E0002D0800082D080008000000002D08000859
:1000F0002D0800082D0800082D0800082D0800080C
:100100002D0800082D0800082D0800082D080008FB
:100110002D080008698E00082D0800082D08000829
:100120002D0800082D0800082D0800082D080008DB
:100130002D0800082D0800082D0800082D080008CB
:1001400000000000000000000000000000000000AF
:100150002D0800082D0800082D0800082D080008AB
:100160002D0800082D0800082D0800082D0800089B
:100170002D080008C59200082D08000800000000A6
:100180002D0800082D0800082D0800082D0800087B
:100190002D0800082D0800082D0800082D0800086B
:1001A0002D0800082D0800082D0800080000000098
:1001B0002D0800082D0800082D0800082D0800084B
:1001C0002D0800082D0800080000000000000000B5
:1001D00000000000000000002D08000800000000E2
:1001E000000000000000000000000000000000000F
:1001F00000000000000000002D0800082D08000885
:100200002D0800082D080008000000002D08000837
:100210002D0800082D0800082D0800082D080008EA
:100220002D080008000000002D0800080000000054
:100230002D0800082D080008000000002D08000807
:100240002D0800082D0800082D0800082D080008BA
:100250002D0800082D0800082D0800082D080008AA
:100260002D0800082D0800082D0800082D0800089A
:100270002D0800082D0800082D08000800000000C7
:100280002D0800082D0800082D0800082D0800087A
:10029000000000002D0800082D08000800000000E4
:1002A000000000002D0800082D0800082D08000897
:1002B0002D0800082D0800082D0800082D0800084A
:0C02C0002D0800082D0800082D0800087B
:1002D00010F8012B11F8013B012A28BF9A42F7D0F0
:1002E000D01A7047034613F8012B002AFBD1181AC5
:1002F000013870470000000000000000000000000E
:1003000001F0FF01102A2BDB10F0070F08D010F8C6
:10031000013B013A8B422DD010F0070F42B3F6D1CA
:10032000F0B441EA012141EA014122F007047FF0E3
:1003300000070023F0E80256083C85EA010586EA3A
:10034000010685FA47F5A3FA87F586FA47F6A5FA76
:1003500087F68EB9EED1F0BC01F0FF0102F0070282
:1003600032B110F8013B013A83EA010313B1F8D12D
:100370000020704701387047002D06BF354603380E
:10038000073815F0010F07D1013015F4807F02BF47
:10039000013015F4C03F0130F0BC0138704700BF98
:1003A00081F0004102E000BF83F0004330B54FEA26
:1003B00041044FEA430594EA050F08BF90EA020F93
:1003C0001FBF54EA000C55EA020C7FEA645C7FEA26
:1003D000655C00F0E2804FEA5454D4EB5555B8BF49
:1003E0006D420CDD2C4480EA020281EA030382EABA
:1003F000000083EA010180EA020281EA0303362D4C
:1004000088BF30BD11F0004F4FEA01314FF4801C1E
:100410004CEA113102D0404261EB410113F0004F30
:100420004FEA03334CEA133302D0524263EB4303E7
:1004300094EA050F00F0A780A4F10104D5F1200E85
:100440000DDB02FA0EFC22FA05F2801841F10001E0
:1004500003FA0EF2801843FA05F359410EE0A5F1B4
:1004600020050EF1200E012A03FA0EFC28BF4CF0E5
:10047000020C43FA05F3C01851EBE37101F000459B
:1004800007D54FF0000EDCF1000C7EEB00006EEBA8
:100490000101B1F5801F1BD3B1F5001F0CD3490832
:1004A0005FEA30004FEA3C0C04F101044FEA445289
:1004B00012F5800F80F09A80BCF1004F08BF5FEA10
:1004C000500C50F1000041EB045141EA050130BDF0
:1004D0005FEA4C0C404141EB0101013C28BFB1F502
:1004E000801FE9D291F0000F04BF01460020B1FA4D
:1004F00081F308BF2033A3F10B03B3F120020CDA20
:100500000C3208DD02F1140CC2F10C0201FA0CF0FD
:1005100021FA02F10CE002F11402D8BFC2F1200C62
:1005200001FA02F120FA0CFCDCBF41EA0C01904018
:10053000E41AA2BF01EB0451294330BD6FEA040461
:100540001F3C1CDA0C340EDC04F11404C4F120024C
:1005500020FA04F001FA02F340EA030021FA04F35E
:1005600045EA030130BDC4F10C04C4F1200220FAB5
:1005700002F001FA04F340EA0300294630BD21FAF3
:1005800004F0294630BD94F0000F83F4801306BFB9
:1005900081F480110134013D4EE77FEA645C18BFAD
:1005A0007FEA655C29D094EA050F08BF90EA020F44
:1005B00005D054EA000C04BF1946104630BD91EA3C
:1005C000030F1EBF0021002030BD5FEA545C05D13F
:1005D0004000494128BF41F0004130BD14F580047E
:1005E0003CBF01F5801130BD01F0004545F0FE41F2
:1005F00041F470014FF0000030BD7FEA645C1ABF27
:10060000194610467FEA655C1CBF0B46024650EA5D
:10061000013406BF52EA033591EA030F41F4002189
:1006200030BD00BF90F0000F04BF0021704730B50F
:100630004FF4806404F132044FF000054FF00001E4
:1006400050E700BF90F0000F04BF0021704730B5A5
:100650004FF4806404F1320410F0004548BF40427A
:100660004FF000013EE700BF42004FEAE2014FEACF
:1006700031014FEA02701FBF12F07F4393F07F4FAA
:1006800081F06051704732F07F4208BF704793F0AD
:100690007F4F04BF41F40021704730B54FF46074C0
:1006A00001F0004521F000411CE700BF50EA0102C3
:1006B00008BF704730B54FF000050AE050EA01026C
:1006C00008BF704730B511F0004502D5404261EBDC
:1006D00041014FF4806404F132045FEA915C3FF41D
:1006E000D8AE4FF003025FEADC0C18BF03325FEABA
:1006F000DC0C18BF033202EBDC02C2F1200300FA6B
:1007000003FC20FA02F001FA03FE40EA0E0021FA8F
:1007100002F11444BDE600BF53B94AB9002908BF2D
:1007200000281CBF4FF0FF314FF0FF3000F00CB835
:10073000ADF1080C6DE904CE19F056FEDDF804E0C9
:10074000DDE9022304B07047704700BF0348044B43
:10075000834202D0034B03B118477047CC020020FC
:10076000CC020020000000000548064B1B1AD90FE0
:1007700001EBA301491002D0034B03B118477047A6
:10078000CC020020CC0200200000000010B5064C76
:10079000237843B9FFF7DAFF044B13B10448AFF3F2
:1007A00000800123237010BDE00200200000000043
:1007B00008A7010808B5054B1BB105490548AFF36B
:1007C0000080BDE80840FFF7CFBF00BF0000000079
:1007D000E402002008A70108DFF838D000F028F86C
:1007E000002103E00C4B5B58435004310B480C4B89
:1007F00042189A42F6D30B4A02E0002342F8043B27
:10080000094B9A42F9D30CF053FD17F045F906F065
:10081000BBF870470000022000150408000000200B
:10082000CC020020E0020020C06C0120FEE70000A6
:10083000044AD36843F00203D36053689B04FCD599
:10084000704700BF00480258F7EE007ADFED1A5AF1
:10085000F0EE084A9FED196A20EE004A9FED183A23
:1008600077EEC07ADFED173A60EEA55ABEEE007A59
:1008700067EEA76A67EEA47A20EE045A66EEA46AD1
:1008800067EE847A20EE866A26EE800A27EE877A63
:1008900067EEA57A60EEA30ADFED0B3AA0EE037ACD
:1008A000E0EE067AA5EE237AE5EE207A80ED007A76
:1008B000C1ED007A704700BF9A99193FCDCCCC3E6C
:1008C0009A9919BE3333333F48E17AC0164A012161
:1008D0000023164810B51170154C164A037013709A
:1008E0002370154A15481649164C136003600B70A7
:1008F0000CF09CFD144AFA38237810604BB1134871
:1009000008F090F8237853B11148BDE8104008F082
:1009100055B8104808F086F82378002BF4D10E481B
:10092000BDE8104008F04AB86C0500207A050020A8
:100930007905002078050020FC04002074050020C3
:100940006F0500206D0500206805002078A70108CC
:10095000C0A701089CA70108DCA7010800B58BB05F
:1009600000234FF0000C03AA04A807A98DED010A8B
:1009700006930993CDF80CC0CDE90433CDE90733D4
:100980000CF0CEFADDED087A1F4B9DED077AF1EE03
:10099000677ADDED066A0398B1EE477A1B49F1EEFE
:1009A000666A1B4AD3ED015A086093ED006A77EE40
:1009B000E57A92ED005A174B37EE467A76EEC56A25
:1009C000154993ED016A154A77EEC67AD3ED005AC0
:1009D000C1ED006A9FED125A37EE657AD1ED004AFB
:1009E000D2ED006AA7EE856A9DED010AE7EE055A91
:1009F000F0EE667AE4EE807A83ED016AC3ED005A88
:100A0000C2ED007A0BB000BD840500209C050020DB
:100A1000B40500207C050020B0050020AC050020B6
:100A2000CDCC4C3E10B582B004460CF0FFFC144B0C
:100A30001449154A0094DFF868C00978126893EDEC
:100A4000000A124BDCED000A93ED001ADFF854C0E7
:100A50000F4BDCED001A93ED002ADFF84CC00D4B74
:100A6000DCED002A93ED003ADFF840C00A4BDCEDE4
:100A7000003A93ED004A094B09F0ECFF02B010BDBB
:100A8000B0050020C0050020BC050020A8050020FE
:100A9000A00500209805002090050020B4CC010896
:100AA000AC050020A40500209C0500209405002032
:100AB00000B5DFF86CC00B46DFF868E083B0174A7A
:100AC0009EF8001012689CED000ADFF85CC0DCEDB7
:100AD000000ADFF858C09CED001ADFF854C0DCEDC6
:100AE000001ADFF850C09CED002ADFF84CC0DCEDA6
:100AF000002ADFF848C09CED003ADFF844C0DCED86
:100B0000003ADFF840C09CED004A4FF0000CCDF8F1
:100B100000C009F09FFF03B000BD00BFBC0500206E
:100B2000B0050020C0050020AC050020A80500206D
:100B3000A4050020A00500209C05002098050020A9
:100B4000940500209005002070B5CCB003468021AC
:100B5000494A0CA816F000FE48490CA816F0D4FE2D
:100B6000002872D00346002406AD01E0062C0BD00D
:100B700045F8043B00204149013416F0C5FE034608
:100B80000028F3D1062C60D13D490698FFF7A0FB61
:100B900000285AD13B490798FFF79AFB002854D107
:100BA00039490898FFF794FB00284ED137490A9835
:100BB000FFF78EFB002848D1099C0A2205A9204690
:100BC00016F0FCFC22780546002A47D0059B1B78CE
:100BD000002B43D1012841D80B9E04A9304616F0C2
:100BE0002FFC3378002B40D0049B1B78002B3CD18A
:100BF000F0EEC07A9FED267AF4EE477AF1EE10FA25
:100C000033D8B5EEC00AF1EE10FA2ED4DFED217A1A
:100C1000B4EEE70AF1EE10FA27DCE8B28DED030A34
:100C200007F066FE9DED030A2B461B4AB7EEC00A8D
:100C300080212CA88DED000B16F08EFD2CA807F05E
:100C4000BDFE2CA807F0A2FE05E0144807F0B6FE92
:100C5000124807F09BFE01204CB070BD104807F011
:100C6000ADFE0F4807F092FEF5E70E4807F0A6FE2E
:100C70000C4807F08BFEEEE7F8A70108FCA7010877
:100C800024A8010830A8010834A801083CA80108DC
:100C9000FFFF7F7F0000344398A8010800A80108E7
:100CA00048A8010870A801082DE9F041B2B0064635
:100CB0000F469046A021384B384A0AA816F04CFD42
:100CC00037490AA816F020FE90B10346002401AD72
:100CD00045F8043F00203249013416F015FE034662
:100CE000002855D0082CF3D1029B1A78522A03D041
:100CF000002032B0BDE8F0815A784B2AF8D19B78B9
:100D0000002BF5D127490398FFF7E2FA0028EFD12D
:100D100025490498FFF7DCFA0028E9D13146059807
:100D2000FFF7D6FA0028E3D120490698FFF7D0FA5A
:100D30000028DDD11E490898FFF7CAFA0028D7D14C
:100D4000099C1C492046FFF7C3FA28B11A492046DE
:100D5000FFF7BEFA0028CBD1079D0A2201A9284639
:100D600016F02CFC2B780246002BC1D0019B1B787F
:100D7000002BBDD10028BBD00E4920463A60FFF7BA
:100D8000A7FAB0FA80F301205B0988F80030B0E7D9
:100D9000082CADD1A8E700BF80030020F8A7010808
:100DA000FCA70108C8A80108CCA80108DCA8010814
:100DB000E0A80108E8A80108ECA801082DE9F04125
:100DC000AAB006460F4690468021384B384A0AA8FA
:100DD00016F0C2FC37490AA816F096FD90B10346FA
:100DE000002401AD45F8043F00203249013416F0DB
:100DF0008BFD0346002855D0082CF3D1029B1A78AE
:100E0000522A03D000202AB0BDE8F0815A784B2A3C
:100E1000F8D19B78002BF5D127490398FFF758FAB2
:100E20000028EFD125490498FFF752FA0028E9D1AC
:100E300031460598FFF74CFA0028E3D1204906987F
:100E4000FFF746FA0028DDD11E490898FFF740FA5F
:100E50000028D7D1099C1C492046FFF739FA28B150
:100E60001A492046FFF734FA0028CBD1079D0A2201
:100E700001A9284616F0A2FB2B780246002BC1D010
:100E8000019B1B78002BBDD10028BBD00E4920460A
:100E90003A60FFF71DFAB0FA80F301205B0988F889
:100EA0000030B0E7082CADD1A8E700BFFC0200205D
:100EB000F8A70108FCA70108F4A80108FCA801088C
:100EC000DCA80108E0A80108E8A80108ECA80108CE
:100ED0002DE9F04FD3B0602112A80BF007FD0028D8
:100EE00000F014818C4B06461978002900F04583E8
:100EF0000DF14809894C8A4D09EB060899F8003034
:100F000026680A2B18BF0D2B0CBF0127002740F0C5
:100F1000F282002383498248AB5516F05BFD82467E
:100F2000002800F0F382AA4509D05046FFF7DAF90D
:100F3000064651462846721C16F0B2FC2660002E6A
:100F400000F0D182784B1B780F2B00F0ED822B46FE
:100F5000764AA0212AA816F0FFFB75492AA816F0A8
:100F6000D3FC0346002800F0158106AE4FF0000ABE
:100F7000B3464BF8043B00206D490AF1010A16F014
:100F8000C3FC0346002800F00181BAF10C0FF0D138
:100F900033681A78522A40F0FD805A784B2A40F084
:100FA000F9809B78002B40F0F58062497068FFF76C
:100FB0008FF9002840F0EE805F49B068FFF788F9AC
:100FC000002840F0E7805D49F068FFF781F90028CC
:100FD00040F0E0805A493069FFF77AF9002840F084
:100FE000D9805849B069FFF773F9002840F0D280E2
:100FF0005549306AFFF76CF9002840F0CB8053491F
:10100000B06AFFF765F9002840F0C480D6F814B044
:101010000A2205A9584616F0D1FA9BF80030029032
:10102000002B00F0B780059B93F800B0BBF1000FD8
:1010300040F0B080002800F0AD80F36944491846C4
:101040000393FFF745F9002800F0668303984149B0
:10105000FFF73EF9002840F09D80736A0A2205A937
:101060001846039316F0AAFA039B1B78002B00F096
:101070009180059B1B78002B40F08C80B0F5C87FD9
:1010800040F08880F66A0A2205A9304616F096FAE2
:101090003378002B7ED0059B1B78002B7AD1B0F5DE
:1010A000B47F77D12C4B1A782C4B1878024340F040
:1010B00001832B4A2B4812680068024340F0FA82F1
:1010C000012002991870284B83F800B0274B196053
:1010D000274B1A70274B1A70274B1A70274B1A7020
:1010E000274B1A70BBF1000F00F01C831849029BBC
:1010F0002AA8244A0091802116F02EFB2AA807F086
:101100005DFC214807F042FC00232360002738469D
:1011100053B0BDE8F08F00BFC8040020C404002015
:101120002404002048A90108C0050020F8A70108F0
:10113000FCA70108F4A80108FCA8010878A9010887
:10114000DCA80108E0A8010880A901083CA8010862
:10115000E8A80108ECA80108F9040020E504002033
:10116000E8040020DC040020E4040020E004002067
:10117000D8040020D7040020D6040020D504002085
:10118000D4040020A4A90108CCA90108BAF10C0FCD
:101190003FF4FEAE2368002B00F0A5812B46804A69
:1011A000A0212AA816F0D8FA7E492AA816F0ACFB8E
:1011B0000346002839D04FF0000A0DF1180B4BF808
:1011C000043B002077490AF1010A16F09DFB034613
:1011D000002800F0A481BAF10C0FF0D1069B1A7818
:1011E000522A22D15A784B2A1FD19B78EBB96E49EB
:1011F0000798FFF76DF8C0B96C490898FFF768F8D1
:1012000098B96B490998FFF763F870B969490A986A
:10121000FFF75EF848B968490C98FFF759F820B90C
:101220000E9B1A784C2A00F0B4812368002B00F042
:101230005A812B465A4AA0212AA816F08DFA5949FC
:101240002AA816F061FB0346002800F0CF8006AE06
:101250004FF0000AB3464BF8043B002051490AF115
:10126000010A16F051FB0346002800F0BB80BAF1DA
:101270000A0FF0D133681A78522A40F0B7805A78B2
:101280004B2A40F0B3809B78002B40F0AF8046495A
:101290007068FFF71DF8002840F0A8804349B06847
:1012A000FFF716F8002840F0A1804449F068FFF7E6
:1012B0000FF8002840F09A803E493069FFF708F89F
:1012C000002840F093803C49B069FFF701F80028FE
:1012D00040F08C803A49306AFEF7FAFF002840F06F
:1012E0008580D6F81CB037495846FEF7F1FF28B183
:1012F00035495846FEF7ECFF002877D1736905A9F8
:101300000A221846029316F059F9029B82461B786E
:10131000002B6BD0059B05A91B78002B66D10028FC
:1013200064D0736A0A221846029316F047F9029BAA
:1013300006461B78002B59D0059B1B78002B55D1F6
:10134000431E062B52D858461E49FEF7C1FF1F4BBD
:10135000B0FA80F01A784009002A47D11C4A126876
:10136000524543D11B4A127882423FD10121197064
:10137000194BC3F800A0194B1E60002A00F0D4815D
:10138000104A00925346164A60212AA8019616F088
:10139000E3F92AA807F012FB00232360B7E600BF99
:1013A000F8A70108FCA70108F4A80108ECA90108A6
:1013B00078A90108DCA80108E0A8010898AA01089A
:1013C000A0AA0108E8A80108ECA80108F904002077
:1013D000E8040020F8040020F4040020EC040020BD
:1013E000A8AA0108BAF10A0F3FF444AF2B469B4A62
:1013F000A0212AA816F0B0F999492AA816F084FA73
:101400000346002863D0002605AF47F8043F0020BC
:101410009349013616F078FA0346002855D0082E75
:10142000F3D1069B1A78522A51D15A784B2A4ED1C1
:101430009B78002B4BD18B490798FEF749FF00287A
:1014400045D189490898FEF743FF00283FD18749D5
:101450000998FEF73DFF002839D185490A98FEF723
:1014600037FF002833D183490C98FEF731FF70BB5A
:101470000D9F81493846FEF72BFF20B17F49384642
:10148000FEF726FF18BBDDF82CB00A2205A9584646
:1014900016F094F89BF800300646C3B1059B1B7804
:1014A000ABB9A0B174493846FEF712FF744BB0FADD
:1014B00080F01B684009B34209D1724B1B7883420C
:1014C00005D1714B01221A700DE0082EA9D06F488A
:1014D00007F05CFA6E4A236860212AA816F03CF9EE
:1014E0002AA807F06BFA0023236009F10109C84517
:1014F0007FF404AD0AE6721C9F2A02D82260AB5525
:10150000F3E76448276007F059FAEEE76249284696
:1015100016F060FA824600287FF405AD0FE5BAF1B7
:101520000C0F7FF482AE59E65C494C23DFF880E172
:1015300001F10C0B0A78A3F1610CA3F12006013133
:10154000A2F12000A2F1610A5FFA8CFCF6B2C0B2EF
:10155000BCF1190F98BF3346BAF1190F98BF024674
:101560009A427FF4F4AC8B451EF8013FE2D14B4820
:10157000FFF7EAFA00232360C8E501220F201A7062
:101580001D2209F0E1FA002864D0454807F0FEF971
:10159000AEE45A78312A7FF448AE9B78002B7FF472
:1015A00044AE109B1A784C2A7FF43FAE5A78322A08
:1015B0007FF43BAE9B78002B7FF437AE0B9B0A2267
:1015C00005A91846029315F0F9FF029B83461B7884
:1015D000002B3FF42AAE059B1B78002B7FF425AE31
:1015E00000283FF422AE0F9B02935B78002B7FF420
:1015F0001CAE119B93F801A00393BAF1000F7FF486
:1016000014AE1D490D98FEF763FE002800F0878098
:101610000D981A49FEF75CFE00287FF406AE029B87
:101620001E78A6F14103032B3FF6FFAD039B18780C
:10163000A0F14103032B3FF6F8AD86423FF4F5AD30
:10164000184B197811B90E490968B9B3164807F053
:10165000B5F948E7154807F099F949E4F8A70108F2
:10166000FCA70108F4A80108ECA90108D8AA010800
:10167000DCA80108E0A80108E8A80108ECA8010816
:10168000E8040020F8040020E7040020E0AA010894
:1016900004AB010830AB010858A90108240400205C
:1016A00004A90108F9040020F4A9010824A90108EB
:1016B00068A901081D4807F081F925E501221A7083
:1016C0001E221B4B83F800A01A4BC3F800B01A4B24
:1016D0001E701A4B18700F20194B196009F034FA5C
:1016E000A0B1184807F052F9BAF1000F12D0164A0B
:1016F0005B46602100922AA8144A16F02DF82AA809
:1017000007F05CF9124807F041F945E6114807F087
:101710003DF9E9E7104AEBE74FF0010B9DE44FF08C
:10172000010A7CE70C49E2E40B4A2AE68CA901088D
:10173000F8040020F4040020F1040020F00400204C
:10174000EC0400200CAA0108E8A8010850AA01082E
:1017500078AA01082CAA0108ECA801085F4BB9EE91
:10176000007AD3ED007AF4EEC77AF1EE10FA00F1C8
:101770009F80B1EE007ADFED5A6AF4EEC77AF1EE9F
:1017800010FA37FE277AF0EEC77AF4EEE67AF1EE39
:1017900010FA40F28A80B5EEC07AF1EE10FA40F30A
:1017A000998037EE667AF9EE007AD3ED016AF4EEAD
:1017B000E76AF1EE10FA00F18480F1EE007A9FED15
:1017C000486AF4EEE76AF1EE10FA77FEA67AF0EED8
:1017D000E76AF4EEC66AF1EE10FA75D9F5EEC07A52
:1017E000F1EE10FA73DD77EEC67A61EEA75A90ED4E
:1017F000006A61EE277AD0ED016A9FED3A5AE1EE78
:10180000075AE1EEC77AA5EE826AE7EE826A76EEC3
:10181000407AF4EEC57AF1EE10FA4FD49FED327AA9
:101820009FED2F6AF4EEC77AF1EE10FA37FE277AB1
:1018300027EE066A76EEE07A9FED2A7AF4EEC77A12
:10184000F1EE10FA37D49FED287ADFED256AF4EE39
:10185000C77AF1EE10FA77FE277A67EEA67A30EEB5
:10186000067ADFED226AB0EEC00A70EEA77A80ED4C
:10187000007AB4EEE60AC0ED017AF1EE10FA13D860
:10188000F0EEE00AF4EEE60AF1EE10FA0CD8184B8E
:10189000D3ED007AF0EEE77AF4EEE67AF1EE10FAA4
:1018A00002D800230360436070479FED127A7AE705
:1018B0009FED117A77E7DFED117AD0E79FED0F6AA0
:1018C000B8E7DFED0D7A90E7DFED0A7A8DE777EE86
:1018D000867A8AE737EE267A65E700BF7C05002026
:1018E0000AD7A33D9A9919BE9A99193E0AD7A33CE3
:1018F000A80500200000000048E17AC0A69B44BC77
:10190000F8B50B780E460746F3B101380D4602E0F4
:1019100015F8013FC3B110F8012FA3F16101A3F144
:10192000200EA2F1200CA2F16104C9B25FFA8EFE72
:101930005FFA8CFC192998BF7346192C98BF624630
:101940009A42E5D00020F8BD3046FEF7CBFC385C6B
:101950002C2818BF00280CBF01200020F8BD00BFB4
:101960002DE9F047D4B0802104A80AF0BFFF28B3C6
:1019700004AC464DDFF8448100272618DFF840917B
:1019800007E0501C9F281CD8286008F80230A642A7
:1019900014D014F8013B2A680D2B06D0A3F10A01DC
:1019A000B1FA81F149090029EBD008F8027012B1AF
:1019B000D9F800303BB9A6422F60EAD154B0BDE857
:1019C000F0872960E3E732480DF10B0203A9FFF726
:1019D0006BF920B1039BD9F80020934227D00DF179
:1019E0000B0203A92B48FFF75FF920B1039BD9F83D
:1019F000002093422CD00DF10B0203A92648FFF7DB
:101A000053F90028D7D0039BD9F800209342D2D1B4
:101A100022499DF80B2009788A42CCD12049012027
:101A20000870002A2FD01F4A00921B4A1DE01B4A53
:101A30009DF80B1012789142D1D11B49097811B948
:101A40001A4901200870D2B1164A0092104A0CE0DF
:101A5000124A11789DF80B208A42CCD114490120FA
:101A6000087072B10F4A00920A4A0192C021114ACD
:101A700024A815F071FE24A806F0A0FF9BE70E4AEB
:101A8000E3E70D4AEFE70C4ACEE700BF2004002051
:101A90005CAB01089CAB0108D8AA0108CD0400206A
:101AA000CA040020E8A80108C9040020CC040020D2
:101AB000CB04002064AB0108ECA8010880030020DF
:101AC000D00400202DE9F04104460138504E522345
:101AD00004F11E08054615F8012FA3F1610EA3F1CC
:101AE000200CA2F12001A2F161075FFA8EFE5FFADD
:101AF0008CFCC9B2BEF1190F98BF6346192F98BF6D
:101B00000A469A420DD1454516F8013FE3D101231B
:101B10004049414A0B7041481370BDE8F04106F05E
:101B200035BF3F4E04F110080546522315F8012F2A
:101B3000A3F1610EA3F1200CA2F12001A2F1610733
:101B40005FFA8EFE5FFA8CFCC9B2BEF1190F98BF26
:101B50006346192F98BF0A469A420BD1454516F89D
:101B6000013FE3D12F4B00222F481A70BDE8F0410E
:101B700006F00CBF2D4F04F10F080646522316F84D
:101B8000012FA3F1610CA3F12005A2F12001A2F124
:101B9000610E5FFA8CFCEDB2C9B2BCF1190F98BFAF
:101BA0002B46BEF1190F98BF0A469A4208D1B0459C
:101BB00017F8013FE3D11E48BDE8F04106F0E6BE4C
:101BC0001C4E0B34522310F8012FA3F1610CA3F12A
:101BD0002005A2F12001A2F161075FFA8CFCEDB2B1
:101BE000C9B2BCF1190F98BF2B46192F98BF0A46EE
:101BF0009A420BD1A04216F8013FE4D1064B0122D4
:101C00000D481A70BDE8F04106F0C0BEBDE8F08195
:101C1000A4AB0108790500207A0500202CAC01084E
:101C200054AC01086C05002000AC010818AC010898
:101C3000D8AB0108F0AB0108C4AB01082DE9F047AF
:101C400090B00BF0F3FB404B1B7823B93F4A13686D
:101C5000C31AF92B66D8402168460AF047FEF0B156
:101C60006C463B4E3B4D271806E0501C5F2819D8A8
:101C70003060AB54BC4212D014F8013B32680D2BDB
:101C800006D0A3F10A01B1FA81F149090029ECD08B
:101C90000023AB545AB90023BC423360ECD110B0DE
:101CA000BDE8F0872C48316006F0BCFEE2E72B4827
:101CB00006F06CFE284606F069FE294806F066FE2E
:101CC000284B1A780F2A06D01B78072B03D02846FA
:101CD000FFF7F8FEDFE71F494C23DFF8A48001F18E
:101CE0000C0A0A78A3F1610EA3F120000131A2F1E0
:101CF000200CA2F161095FFA8EFEC0B25FFA8CFC83
:101D0000BEF1190F98BF0346B9F1190F98BF62468B
:101D10009A42DCD18A4518F8013FE2D10D48FEF71E
:101D200013FFB8E71049114B10600A781B7822B9ED
:101D300033B10F4806F042FE8DE71BB10D48F9E7BD
:101D40000D48F7E70D48F5E7780500206805002005
:101D5000FC04002000050020A8AC010898AC010894
:101D6000A4AC0108C00500206C0500206D05002012
:101D700068AC0108C0A7010880AC0108DCA7010815
:101D800068A9010830B59FB00BF050FB294B044601
:101D90001B78E3B12849294B0A78EAB12849294D33
:101DA0000A68A21AB2F5967F2AD2274B1B6843B95C
:101DB000264B1B68002B36D1254B1B780BB9FFF740
:101DC0003DFF2878003818BF01201FB030BD1A49E8
:101DD000204B0A78002AE1D101201A4D05930870A2
:101DE000A4F5967016492A7008601B48049106F005
:101DF00019FEDDE904130A68A21AB2F5967FD4D35E
:101E00000C604FF416724FF4AF7106A8CDE90121B2
:101E100040F28A21114A0091602115F09DFC06A82C
:101E200006F0CCFDC1E70E4B1B78002BC9D1FFF7A4
:101E30004FF8C6E76D05002078050020E8A80108E6
:101E40007405002079050020DC040020E80400204F
:101E50006F050020ECA80108CCAC0108F8AC010823
:101E6000E6040020144B1B6810B5044682B03BB951
:101E7000124B1B688BB9124B1B780BB9FFF7DEFEB8
:101E800007F03CFE18B9019007F03EFE60B920460D
:101E900002B0BDE8104007F0C3BB0A4B1B78002B13
:101EA000EED1FFF715F8EBE7FEF710FD064A092122
:101EB0000198116002B010BDDC040020E80400208D
:101EC0006F050020E6040020BC050020154B1B68B0
:101ED00000B583B03BB9144B1B68A3B9134B1B78F7
:101EE0000BB9FFF7ABFE07F009FE18B9019007F038
:101EF0000BFE78B90BF09AFA07F002FB03B05DF81D
:101F000004EB07F0BDBB0A4B1B78002BEBD1FEF7AF
:101F1000DFFFE8E7FEF7DAFC064A092101981160C5
:101F200003B000BDDC040020E80400206F050020A1
:101F3000E6040020BC050020F8B50E46174604460E
:101F40000BF074FA0546FFF71DFF154B1B78D3B94C
:101F5000304606F067FD09E0FFF714FF98B9FFF778
:101F6000B5FF034601209BB10BF066FA0BF05EFA59
:101F7000401BA042F0D30B4806F054FD0A4B082248
:101F80001A600020F8BD384606F04CFD0120F8BD6F
:101F9000054B1A68092AF4D005221A60F1E700BF40
:101FA0007905002034AD0108BC0500202DE9F04F73
:101FB000ADF54B7D82460BF039FAA74B05901A68B8
:101FC00012F1010900F0C5814A46DFF8E0B240F69F
:101FD000B8381A609BF80030059A002B9F4BA2F18D
:101FE000C801A2F10A021B7808BF4FF4E16807910B
:101FF0000692002B00F0AB81994C9A495046FEF7AF
:1020000067F94EF6602347F230524021CDE9009443
:102010000024A04208BF1A46934B1AA81C70934B89
:1020200009921C705346924A15F096FB5346914A0A
:1020300040212AA8CDF8009015F08EFB53468E4A19
:1020400040213AA8CDF8009015F086FB53468B4A04
:1020500040214AA8CDF8009015F07EFB5346884AEF
:1020600040215AA8CDF8009015F076FB5346854ADA
:1020700040216AA8CDF8009015F06EFB5346824AC5
:1020800040217AA8CDF8009015F066FB53467F4AB0
:102090006021B2A8CDF8009015F05EFBB2A806F062
:1020A000C1FC0BF0C3F9059B054604940893069BFD
:1020B000CDF80C90EB1A092B40D8079BEB1AC72BD5
:1020C00046D800270DF12809402148460AF00EFCA9
:1020D00000B309EB00064D46204609E0421C5F2A8A
:1020E00044D80DEB0004104684F86832B54210D095
:1020F00015F8013B0D2B01D00A2BEFD10DEB00039E
:10210000002283F86822002834D1B5424FF0000045
:10211000EED104460BF08AF9002F40F0F880059BC1
:10212000C01A404580F0348101200BF085F90BF096
:102130007DF9069B0546EB1A092BBED9FFF7C6FEB3
:10214000002800F06881079B0695EB1AC72BB8D9C9
:102150001AA806F033FC53464D4A6021B2A815F088
:10216000FBFAB2A806F012FC0795AAE7494806F068
:1021700059FCCAE7484806F009FC9AA806F006FC94
:10218000464806F003FC9AA8FFF79CFC40F6B833DB
:102190009BF800203AA943459AA838BF4346002A35
:1021A00018BF9846FFF7ACFB0446002800F080807B
:1021B000002F00F0A880039B6021394AB2A8009349
:1021C000534615F0C9FAB2A806F02CFC4AA99AA801
:1021D000FFF796FB002872D17AA99AA8FFF790FB27
:1021E0000746002840F0B8806AA99AA8FFF788FB44
:1021F00080B142F6E06398450AD0039B6021294AEA
:10220000B2A80093534615F0A7FAB2A806F00AFC4C
:1022100042F6E068DCB19AA85AA9FFF771FB08B949
:10222000274663E70BF002F9039BA0F1C8041E4A9E
:102230006021009305905346B2A8079415F08CFADC
:10224000B2A806F0EFFB40F6B83800230493B5427D
:1022500000F0948000204BE7640500206D0500200D
:10226000E8A801085CAD0108710500207005002098
:1022700068AD010888AD0108A0AD0108B8AD01083E
:10228000D0AD0108E8AD010800AE010818AE0108A4
:10229000A4AE0108ACAF010898AC0108A4AC0108D9
:1022A000BCAE010864AF010880AF01087A050020C8
:1022B0004AA99AA83C46FFF723FB00288CD059492D
:1022C0005046DDF80C90FEF703F800285AD1564925
:1022D0009AA815F07FFB011E18BF0121534C5346ED
:1022E000534AB2A8CDF800902170602115F034FA5D
:1022F000B2A806F097FB2378002B45D101200DF5FD
:102300004B7DBDE8F08F0BF091F8049053E701206E
:102310000BF092F80BF08AF8049B099A0546C31A51
:1023200093424CD2069BEB1A092B0AD8089BEB1A56
:10233000B3F57A7FFFF4C8AE2AA806F03FFB0895F4
:10234000C2E6FFF7C3FD002865D00695EEE7394CDD
:1023500053E60122914638E6DDF80C905346364AA2
:102360006021B2A8CDF8009015F0F6F9B2A806F0F9
:1023700059FB324B0A221A600020C0E700240BF000
:1023800055F8CCE60021A9E72D4806F04BFBB5E750
:10239000DDF80C9053462B4A6021B2A8CDF800908E
:1023A00015F0DAF9B2A806F03DFB00210122234B1B
:1023B0008BF800101D490A7008221A60DCE7DDF86E
:1023C0000C905346204A6021B2A8CDF8009015F039
:1023D000C3F9B2A806F026FB53461C4A40218AA83E
:1023E000CDF8009015F0B8F98AA806F0E7FA8AA8A7
:1023F00006F0E4FA5346164A6021B2A8CDF80090E0
:1024000015F0AAF9B2A806F00DFB0123074A1370D4
:10241000104A137072E7094B1A68092AACD00522DA
:102420001A60A9E75CAD0108D4AE0108710500206F
:10243000E8AE0108ECA8010840AF0108BC05002087
:1024400004AF0108C8AF010834AE010858AE010856
:1024500070AE0108700500202DE9F04FADF5617DEB
:102460000C4607900AF0E2FFA54B0C901A6812F197
:10247000010800F096814246DFF8C8A240F6B8375E
:102480001A609AF800209F4B002A0C9A1B78A2F140
:10249000C801A2F10A0208BF4FF4E1670A9109924C
:1024A000002B00F07B81984B0D93002C00F04C81A9
:1024B0000D9BC0A8954A8021009302230F900193A1
:1024C000434615F049F938A84346914A60210490E3
:1024D00015F042F950A843468E4A6021059015F048
:1024E0003BF968A843468C4A6021069015F034F900
:1024F00020A84346894A60210E9015F02DF9884B9B
:102500000893079B8021874AA0A802930D9BCDE9E1
:102510000083089B15F020F9A0A806F083FA0AF0C2
:1025200085FF002304461D460B93099BE31A092BE4
:102530003DD80A9BE31AC72B43D810AE4021304642
:102540000AF0D4F98346002800F044814FF00009D6
:102550000024284608E0421C7F2A45D880A90B5455
:10256000104601345C450DD2335D0D2B01D00A2B92
:10257000F1D1002380AA1354002839D1013400205E
:102580005C45F1D305460AF051FFB9F1000F7ED149
:102590000C9BC01A874240F2248101200AF04CFFB4
:1025A0000AF044FF099B0446E31A092BC1D9FFF73F
:1025B0008DFC002800F03F810A9B0994E31AC72B89
:1025C000BBD90F9806F0FAF9079B574A802102936E
:1025D000A0A80D9BCDE90083089B15F0BDF8A0A82D
:1025E00006F0D4F90A94A8E7504806F01BFAC5E7AC
:1025F0004F4806F0CBF980A806F0C8F94D4806F020
:10260000C5F980A8FFF75EFA40F6B8339AF80020C3
:1026100080A80499002A18BF1F46FFF771F90546E4
:1026200078B1B9F1000F2ED0079B8021424AA0A8B3
:10263000A946CDE90083089B15F08EF8A0A806F006
:10264000F1F9059980A8FFF75BF9002840F0AC800C
:1026500080A80699FFF754F9002882D00799A0A80E
:10266000089B364ACDE90081802115F075F8A0A8B5
:1026700006F0D8F9324B0A221A60002528460DF5DB
:10268000617DBDE8F08F0AF0D1FE0B90CCE7012010
:1026900047F22F540AF0D0FE0AF0C8FE83460B9B87
:1026A000099AABEB0303ABEB0202A34200F2B0804A
:1026B000092A1CD80A9BABEB0303B3F57A7F10D22F
:1026C000402130460AF012F9834600287FF440AFDB
:1026D0000AF0ACFE01200AF0AFFE0AF0A7FE834626
:1026E000DDE70E9806F06AF9CDF828B0E8E7FFF7C5
:1026F000EDFB002800F09F80CDF824B0DAE700BFA2
:10270000640500206D050020E8A8010800B001085C
:1027100038B0010864B0010890B00108B4B00108F5
:10272000F4AF010854B10108C4B1010890B2010826
:1027300098AC0108A4AC010800B2010860B201081D
:10274000BC0500207A050020079BC0A83E4A8021D6
:1027500001930D9B0F900093434614F0FDFF38A8A2
:1027600043463A4A6021049014F0F6FF50A84346CD
:10277000374A6021059014F0EFFF68A84346354AB8
:102780006021069014F0E8FF20A84346324A6021F9
:102790000E9014F0E1FF314B0893B2E6304B0D93ED
:1027A00083E60122904667E6079B05462D490020F7
:1027B00001932D4A089BCDF8008008708021A0A8C5
:1027C00014F0CAFFA0A806F02DF928460DF5617D8A
:1027D000BDE8F08F0AF02AFE0C9BC31ABB42FFF43F
:1027E000DCAEDDE907238021A0A80192CDF80080AE
:1027F0001E4A14F0B1FFA0A806F014F9194A0121ED
:1028000000201B4B117008228AF800001A6034E780
:102810000799A0A8089B174ACDE90081802114F0F0
:102820009BFFA0A806F0FEF80E490120104B0822DD
:1028300008701A6021E70E4B1A68092A3FF41DAF91
:1028400005221A6019E700BFD8B001080CB10108D1
:1028500030B1010890B00108B4B00108ECAF010834
:10286000ECA801087105002030B20108B8B20108D7
:10287000BC05002090B101082DE9F04FADF5077DB2
:1028800083460AF0D3FDA34B05901A6812F1010AA2
:1028900000F0DE805246DFF8EC8240F6B8361A606F
:1028A00098F80030059A002B9B4BA2F1C801A2F1C9
:1028B0000A021B7808BF4FF4E16603910492002BD3
:1028C00000F0C480954B0027954A402116A8CDE919
:1028D00000A3944B1F705B4614F03EFF5B46924A88
:1028E000402126A8CDF800A014F036FF5B468F4AA1
:1028F000402136A8CDF800A014F02EFF5B468C4A8C
:10290000402146A8CDF800A014F026FF5B46894A76
:1029100060216EA8CDF800A014F01EFF6EA806F08E
:1029200081F80AF083FD049B0446C31A092B76D86C
:10293000039BE31AC72B7BD8402106A809F0D6FFDA
:1029400000285BD006AC251809E07A1C5F2A5FD806
:102950006F4487F8583117460134AC424ED0237883
:102960000D2B08D0A3F10A09B9FA89F94FEA5919D0
:10297000B9F1000FE9D04FF000090DEB070383F820
:102980005891002FE8D06C4806F000F856A805F0E2
:10299000FDFF6A4805F0FAFF56A8FFF793F840F6E6
:1029A000B83398F8002026A9B34256A838BF33465A
:1029B0004A4518BF1E46FEF7A3FF00284BD146A983
:1029C00056A8FEF79DFF0746002860D156A836A9F5
:1029D000FEF796FF08B342F6E0694E45BCD05B4671
:1029E000574A60216EA80134CDF800A014F0B4FE5F
:1029F0006EA806F017F8AC424E46B0D10AF016FDAC
:102A0000059BC01AB04269D201200AF015FD88E783
:102A10004C484F4606F006F89EE707469CE7FFF74E
:102A200055FA00286FD0039B0494E31AC72B83D96F
:102A300016A805F0C3FF5B46434A60216EA814F058
:102A40008BFE6EA805F0A2FF039475E73F4B3AE7B3
:102A5000012292461FE7334B07463D49584683F80B
:102A600000903C4BC3F800A0FDF732FC18B35B4666
:102A7000394A60216EA8CDF800A014F06DFE6EA852
:102A800005F0D0FF38460DF5077DBDE8F08F5B46B9
:102A9000324A60216EA8CDF800A014F05DFE6EA849
:102AA00005F0C0FF2E4B0A221A60002738460DF5AC
:102AB000077DBDE8F08F184B1A782A4BC3F800A0A9
:102AC000294B1A70294B1870294B1870294B187014
:102AD000294B1870294805F0A5FFC8E75B46284A2E
:102AE00060216EA8CDF800A014F036FE6EA805F0A7
:102AF00099FF002101221A4B88F8001009490A7039
:102B000008221A60D1E7164B1A68092ACDD005228F
:102B10001A60CAE7640500206D050020E8A80108D6
:102B200068AD010871050020A0AD0108E8AD0108FD
:102B300000AE0108F0B2010898AC0108A4AC01088D
:102B4000A4B30108ACAF010810B30108ECA8010858
:102B5000CCA80108600500205CB301087CB3010823
:102B6000BC050020D0040020CD040020CC040020AF
:102B7000CB040020CA040020C904002030B301089F
:102B8000C8B301087A0500202DE9F04FDFF8408234
:102B9000F5B007460AF04AFCD8F80030002B00F0E8
:102BA000AD808146A0F1C80B0A38754A40210093D8
:102BB00003903B4614A8002414F0CEFDD8F8003052
:102BC000704A4021009324A83B4614F0C5FDD8F874
:102BD00000306D4A4021009334A83B4614F0BCFD00
:102BE000D8F80030694A602100935CA83B4614F095
:102BF000B3FD5CA805F016FF0AF018FC039B054620
:102C0000C31A092B63D8A5EB0B03C72B68D8402147
:102C100004A809F06BFEE8B104AD05EB000A07E07B
:102C20005F290C4622D8013500F8C02C554511D03B
:102C30002A7804F5E873611C00260D2A0DEB0300C9
:102C400001D00A2AECD100F8C06C9CB901350024EF
:102C50005545EDD10AF0EAFB43F69723A0EB0900B6
:102C6000984276D801200AF0E7FBC5E7484805F00E
:102C7000D9FEEBE7474805F089FE44A805F086FE3B
:102C8000454805F083FE44A8FEF71CFF24A944A88C
:102C9000FEF736FE044634A944A8002C35D1FEF7D1
:102CA0002FFE0028D2D0D8F800003B463B4A6021D6
:102CB00000905CA814F050FD5CA805F0B3FE384B02
:102CC0000A221A600024204675B0BDE8F08FFFF795
:102CD000FDF800284DD0A5EB0B030395C72B96D923
:102CE00014A8AB4605F06AFE3B462E4A60215CA85C
:102CF00014F032FD5CA805F049FE88E72A4805F08B
:102D000091FE274B0A221A60DCE7D8F800306021D8
:102D1000264A5CA800933B4614F01EFD5CA805F013
:102D200081FE23493846C8F80060FDF7D1FA002833
:102D3000C9D1204B204A1870204B106018702049D0
:102D4000204A214B087010701870204675B0BDE8FD
:102D5000F08FD8F800003B461C4A602100905CA828
:102D600014F0FAFC5CA805F05DFE0D4B08221A6019
:102D7000A8E70B4B1A68092AA4D005221A60A1E71C
:102D800058AE0108B8AD010800AE010818B401083A
:102D9000ACAF010898AC0108A4AC010870B40108FC
:102DA000BC05002038B40108F0B3010850B4010894
:102DB000CCA80108CD040020D0040020CB040020C2
:102DC000CC040020CA040020C904002098B40108E3
:102DD00060050020F8B507460AF028FB0646A0F17A
:102DE0000A050BE00AF022FB431B092B03D9054619
:102DF000FFF76CF840B101200AF01EFB0AF016FB49
:102E0000801BB842EED3F8BD044B1A68092A01D0E2
:102E100005221A60024B07221A70F8BDBC0500207B
:102E2000C00500202DE9F04F00232DED108BE5B0FB
:102E30009FED979AB0EE408A1993F0EE608A8DED7F
:102E4000129A8DED139A8DED149ACDE91A33CDE9CE
:102E50001C33CDE91E33CDE92033CDE917338D4B3B
:102E6000D3ED00EA0AF0E2FAF0EE492ADFED981A13
:102E7000B0EE492A23AA012304908DED229A07EE91
:102E8000903AF0EE480A16A915A8B8EEE70A013301
:102E900020EE210AFDF7D8FCF0EE627ADDED162A6D
:102EA000B0EE427A9DED152A412B72EEE77A52ED93
:102EB000016A32EE477A67EEA77AE7EE077AB1EE5B
:102EC000E77A77EE267AE2EC017AD8D19DED62BA04
:102ED0009FED71CAB4EECCBAF1EE10FA08D86F4B80
:102EE000062200201A6065B0BDEC108BBDE8F08FA3
:102EF000DFED67AA6A4B9FED6B7AB0EE6A9AC3ED7D
:102F000000AAF0EE6ABA684B68EE878ADFED677A4E
:102F1000B0EE6AAAC3ED00AAF0EE6A9A644B68EEBE
:102F2000A77A9FED64FAF0EE6ADAC3ED00AAB0EE7C
:102F30006ADA614B28EE0F7A049EF0EE6ACAC3ED9E
:102F400000AA5E4B3746CDED087A7EEEA77AC3ED38
:102F500000AAA6F1FA038DED027AB0460693CDEDF4
:102F6000077AFEF70FFF002301220A9305920993C7
:102F70000AF05CFA0646FEF705FF049A42F2273390
:102F8000B21A9A4200F24183F31B092B40F2BE832E
:102F9000A6EB08030A3707EE903AF31BF8EE677AC0
:102FA000092B88BF374667EE8C7AF4EECC7AF1EEC7
:102FB00010FA00F18983DFED42FAF4EEEF7AF1EED8
:102FC00010FA7FFEA7FAB0EE6F0AFDF7C7FC14AB4C
:102FD00012AA1EA9009313AB3A4806F0F1F98046F5
:102FE000002800F0D183DFF8E0B0DBED007A77EE67
:102FF000EE8AB0EE680A13F02FFBB0EE40FAB0EEA6
:10300000680A13F029FA9DED137ADDED127AF0EEDD
:10301000401A67EE006A9DF8643027EE0F7AE7EEFB
:103020008F6AA0EE677AB0EE66EAF0EE478A002B70
:1030300000F05283B0EE6F2A17A8B0EE4F1AF0EEF0
:10304000470AB0EE660AFEF789FB9DED17EADDED53
:10305000188A89EE8B6AB5EEC06AF1EE10FA00F1BB
:103060003683F7EE002AB4EEE26AF1EE10FAF5EEDE
:10307000C09A32FE866AF1EE10FA40F28983F4EECD
:10308000CB9AF1EE10FA5ADA23AA012332E000BFFC
:10309000000000008C0500206F12833ABC05002060
:1030A000A8050020DA0FC93FA405002080B7803FA3
:1030B000980500203333333F94050020900500200D
:1030C000CDCC4C3DD4CC0108AC050020BD378635B5
:1030D0000000803CCDCCCC3E9A99193F3333B3BE2F
:1030E0009A9919BE48E15AC0AE47613F0133412B5E
:1030F00000F04783D2ED007A0432F4EEE79AF1EE65
:1031000010FAF3D8013B1FED0F5A0DEB8302D2EDFD
:10311000225A77EEE57AF4EEC57AF1EE10FA40F332
:10312000078379EEE55A85EEA75A07EE903AF8EE56
:10313000E72A5FED197A72EE852A62EEA72AF0EE91
:10314000480A16A9B0EE620A15A88DED036AFDF7CC
:103150007BFBF7EE005A5FED217AF0EE084A1FED97
:10316000224A28EE275A1FED237A75EEE25A9DED8A
:10317000023AF1EE087A9DED036AA8EE443A65EE54
:10318000A43A65EEA77A62EEA44A63EEA53AF0EEA1
:10319000455A67EEA27A64EEA24AD8EE045A65EE6A
:1031A000A75A67EE877A1FED327AE5EE235A1FEDB4
:1031B000335AE3EE877AE4EE835AE4EE857A25EE1D
:1031C000A55AA7EEA75AF1EEC53AF4EECC3AF1EEC5
:1031D00010FA40F2D982C5EEA34A5FED3D5AE54BA5
:1031E000D3ED002A87EEA34ADFEDE33A68EEA33A77
:1031F0006EEE255A7BEE697AA3EEAFDAE5EEAFCA42
:1032000023EEA43AA5EE843A63EE843AE4EEE53A7E
:10321000F0EE625AB0EEC35AE3EE2FDAE5EE2F5A23
:10322000C3ED005A7BEE6D5AF4EEE5AAF1EE10FA0A
:10323000F4EEE7AA3AFEA50AF1EE10FA7AFEA77AB2
:10324000F4EEC07AF1EE10FA30FE270AB5EE400A2D
:10325000F1EE10FA00F1BB82F1EEC07ADFEDC72A81
:10326000F4EEE72AF1EE10FA77FEA27AB4EEE7AABE
:10327000F6EE002AF1EE10FA6FEEA22A40F10A8271
:103280007AEE222AF4EEE72AF1EE10FA37FEA2AA2D
:10329000EAEE2F9ADFEDBA7AF4EECB9AF1EE10FA5D
:1032A0007BFE299A79EEED2A62EEA72AFDEE007ADE
:1032B000F4EEE72AF1EE10FA07D4F5EE007AF4EE18
:1032C000E72AF1EE10FA77FEA27A7AEE277AFDEE7F
:1032D000002AF4EEE27AF1EE10FA00F10E82DFED50
:1032E000A72AF4EEE27AF1EE10FA72FEA77A37EE30
:1032F000C33ADFEDA42A63EE222AE2EEAFBAFDEE76
:10330000002AF4EEE2BAF1EE10FA00F1F381F5EEE4
:10331000002AF4EEE2BAF1EE10FA72FEABBADFED7B
:103320009A2AE3EE227AFDEE002A77EEAB7AF4EEEB
:10333000E27AF1EE10FA07D4DFED902AF4EEE27AA9
:10334000F1EE10FA72FEA72ADDED167A9DED152A30
:103350007DEE677ADFED8D0A3CEEC22A8C4B67EE7C
:10336000847AC3ED002AE4EEC27A9FED8A2AB0EE99
:10337000673ADFED897A67EEE37AE3EE027AF4EEFC
:10338000E07AF1EE10FA07D4DFED840AF4EEE07A89
:10339000F1EE10FA70FEA70A814BDDED027A83EDA3
:1033A000003A9FED803A37EECD2A7F4B33EE6C3AF0
:1033B000C3ED000A62EE027A7C4BB5EEC03AC3ED73
:1033C000003AF1EE10FA00F1778177EEAA7AB0EECA
:1033D0006A3AF1EEE73ADFED767AB4EEE76AF1EEBB
:1033E00010FAC0F26081DFED737AF4EEE73AF1EEA5
:1033F00010FA05D9F4EECC3AF1EE10FA00F39B8105
:10340000DFED6D0AF0EE6A7AB0EE603A604BC3ED24
:10341000007AF7EE004A9DED087A82EE8B4A674B00
:10342000B4EEE46AB0EE001AF0EE082AF1EE10FAFB
:10343000F1EE087A21EEE00A34FE862AE2EE412A15
:1034400074EEC64A22EE022A66EE277A60EE8F0AF2
:10345000A3EE0F0A62EE822A9FED592A67EEA47A44
:10346000F0EE6E4AE3EE210AE7EE224A67EE272AE3
:10347000DBED007A93ED003A74EEE77A67EE827A3C
:10348000E2EE847A9FED4F4AE3EE447A9FED4E4A96
:10349000F4EEC47AF1EE10FA00F12981F4EEC27A6A
:1034A000F1EE10FA72FE277A9FED484A6FEE84FA29
:1034B00039EE6F4AB4EEE74AF1EE10FA00F31481E8
:1034C00079EE2FFAF4EEEF7AF1EE10FA3FFEA79ABA
:1034D0003F4A9DED077A82ED009A3E4ADBED007A85
:1034E000C2ED004ADFED324A77EE677AB4EEE46A65
:1034F000F0EEE77AF1EE10FA80F2AE80F0EEE55AE7
:103500009FED357AF4EEC75AF1EE10FA00F2B7806B
:103510009FED287AB4EEC75AF1EE10FA00F2AF80B0
:103520009FED2E7AF4EEC77AF1EE10FA0AD8D3EDB9
:10353000007A9FED2B7AF0EEE77AF4EEC77AF1EE9F
:1035400010FA0DD9124BC3ED00AA174BC3ED00AA18
:103550000A9B002B00F0E080CDF828804FF0000897
:10356000B0EE491A1AA91F4805F0B2FE002800F073
:103570000B8139E0A00500209A99B93F3333B33F5E
:103580009A99993FCDCC4C3F3333B33E9A9999BE2B
:10359000A80500209A9919C0AE47613E9A99993EB4
:1035A0009805002048E17AC094050020900500208D
:1035B0009A99593F8FC2F53C00000000B0050020E9
:1035C000CDCC0C40CDCC4C3ECDCC0CC03333734075
:1035D000A40500208C0500206F12033C0AD7A33CF1
:1035E0000AD7233DD4CC01081AA8FEF73BFC0028DB
:1035F00000F0DA8009F01AFF1EA906F05FF8A0B902
:10360000059B5BB9844805F00DFA844B05221A60CE
:10361000002065B0BDEC108BBDE8F08FCDE91E0039
:10362000CDE920007E4805F0FDF9069BF31AF92B41
:1036300066D807F073FDB8F1000F09D0099B002B85
:1036400068D0F31A3B2B4FF0000300F2B3800993CC
:103650000023B04605938BE49FED726AF4EEC63A00
:10366000F1EE10FA0BD828EEA87AAEEE0E7AF1EE53
:10367000C76AF4EEC66AF1EE10FA7FF651AF9FED1D
:103680006A7AF4EEC77AF1EE10FA1AD81B684FF096
:10369000000865E77AEE622AF4EEE27AF1EE10FABB
:1036A00037FEA2AAF4E524EEE03A60EE840AA4EE26
:1036B000223AE4EEA20AACE6E3EE037AB1EE433A34
:1036C00087E64FF000084BE7F0EE4CFA7BE4B0EEF3
:1036D0006A6AF0EE6A2A32E50123CDED176A8DEDB4
:1036E000187A8DF86430B4E4B0EE449AF0E6F0EE67
:1036F000447AD9E6F0EE62BA11E6F0EE627AF6E5C7
:103700001EA93046FDF7D4F9069692E7012009F08C
:1037100093FE2DE409969BE74448CDED0A0A8DED12
:10372000030A05F07FF9DDED0A0A9DED030A13E7B0
:10373000B0EE6A5AF9E4DFED3E0ADFED3E7A62EE62
:10374000200A9FED3D4A23EE273A60EEA04AE3EEC1
:10375000034AF1EEE47AF4EEC47AF1EE10FA1ADCE0
:10376000DFED364AF4EEE47AF1EE10FA7FF54EAE74
:1037700084EEA74AF0EE647A23EE043A60EE840AFF
:1037800044E6F7EE002ADAE4244B06221A603FE70B
:10379000DFED2B2AD3E4C4EE274AF0EE447A23EE81
:1037A000243A60EEA40A31E61C4B1A68092A7FF419
:1037B0002DAF2DE7234ADDED077AC2ED007A224ACC
:1037C0001360224A1360FEF781FBFFF78CBBCDED3F
:1037D000111A8DED106ACDED0F5ACDED0E3A8DED2B
:1037E0000D3ACDED0C4A8DED0B4A8DED035A12F0DA
:1037F00009FEDDED111AF0EE407A9DED106ADDED67
:103800000F5ADDED0E3A9DED0D3ADDED0C4A9DEDC2
:103810000B4A9DED035A21E514B50108BC050020B3
:10382000F0B401080AD7A33D0AD7A33CBCB40108F1
:103830009A99993F9A9999BF6666E63E8FC2F53D7F
:10384000000000008C050020A8050020A405002031
:103850002DE9F04FB14B0D462DED068BADF53F7DBB
:1038600012921A681C900132079201D1012207922C
:1038700000241A6009F0DAFD012DA0F12803A0F15F
:103880000A0A0D9024940B93CDE92644CDE92844EF
:10389000CDE92A44CDE92C44CDE9224400F031821F
:1038A000079E3EA89E4D602133469E4A00951A9081
:1038B00013F052FF1C9A3346029496ACA021019259
:1038C0002046994A00951D9413F046FF204605F0C6
:1038D000A9F8964B1C68003C18BF0124944B0022A9
:1038E0009FED949A1C709346934BF0EE498AF0EE4C
:1038F00049AADFED929A83ED009A9146904B9FED95
:1039000091AA83ED009A904B119283ED009A8F4B10
:10391000159283ED009A8E4B179283ED009A0D9BC2
:1039200010920A93012316920C9319921B921492EF
:1039300018921392CDE90E2209F078FD0D994EF6FA
:103940005F230690A0EB0108984500F2A982069B30
:103950000B9A9B1A272B00F2988140212EA808F081
:10396000C5FF20B32EAC00274A462618CDE9088AA9
:1039700008E056AB9F54002A40F0818000220134B9
:10398000B44211D023780A2B18BF0D2B0CBF012590
:103990000025EED0511C7F2900F2A780013456A8E3
:1039A000B44283540A46EDD1DDE9088A9146069B6C
:1039B000A3EB0A03092B40F28781069B0A9A9B1A04
:1039C00007EE903AF8EE677A67EEA97AF4EEE97AB4
:1039D000F1EE10FA00F16C819FED5E8AF4EEC87A88
:1039E000F1EE10FA38FE278AB0EE480AFCF7B6FF6F
:1039F000BBF1000F00F0C680069B139A9B1AB3F52B
:103A0000AF7F00F2C380F0EEEA7AB7EE087AF4EE08
:103A1000C77AF1EE10FA40F36E814F4BDFED4F6A3B
:103A2000D3ED007A9FED4E7A66EEE77A9FED4D1A60
:103A3000EAEE877AF4EEC17AF1EE10FA07D49FED40
:103A40004A1AF4EEC17AF1EE10FA31FE271ADDE9D6
:103A50000E130B4313F0FF0300F04881149A9B46AA
:103A60001B98002918BF02461C99521A642A00F3B9
:103A70004581643280F25F81DFED326AA4E00DF5AA
:103A8000EC790DF184080DF1800A1846FEF71AF85A
:103A90001FAB1EAA354956A8CDF80890CDF8048072
:103AA000CDF800A013F08AFE052803D11E9B079ACB
:103AB000934220D056A81EAA2D4913F07FFE01285C
:103AC0007FF45CAF1E9B079A93427FF457AF109B25
:103AD0005A1C284B02FB03F3109213F1333FFFF4FF
:103AE0004DAF254804F052FF48E72448AB4604F0A8
:103AF00099FF2A4643E7219BB3F5487FDAD1769BAD
:103B0000B3F5167FD6D1DDF87C9041F270739945FC
:103B100040F214811A4804F039FF2FE764050020B1
:103B200088B701085CB70108A4B70108E8040020C1
:103B3000E604002000000000A80500206F12833A70
:103B4000A4050020CDCCCC3D980500209405002094
:103B500090050020CDCC4C3DB00500200AD7A33DF8
:103B60000AD7233DEC5138BEEC51383E68B5010808
:103B700038B60108CDCCCCCC60B6010888B60108B7
:103B800010B601080E9B0BB90F9B33B1119B13B9F3
:103B9000B14804F0FBFE01231193129B98457AD2A1
:103BA000179B002B00F09480B0EE491A0023F0EE32
:103BB00049AA0122DFEDA96ACDE916329B46199385
:103BC00014931893CDE90E3368EE0A7A36EEE87A4C
:103BD000F4EEC77AF1EE10FA47D578EEA78AB0EE88
:103BE000497AB1EE680AA8EEA87AF1EEC77A9C4B42
:103BF0002AA99C48F0EE490AC3ED007A9A4B83ED5E
:103C0000001A05F065FB002800F058812AA8FEF78D
:103C100029F9002800F0568109F008FC26A905F0D2
:103C20004DFDC8B90C9B83B9904804F0FBFE904B46
:103C300005221A6000238F4A1C46137020460DF59A
:103C40003F7DBDEC068BBDE8F08FCDE92600CDE9C8
:103C50002800894804F0E6FE07F060FADDF818A0B5
:103C60000023CDF828A00C9366E6B1EE676AB4EEA7
:103C7000C67AF1EE10FA1ED578EEE78AB0EE497AF0
:103C8000B1EE680AA8EEA87AAFE71A9804F096FE9B
:103C9000069B0B9361E6159B23B301220023B0EE34
:103CA000491AF0EE4A6AF0EE49AACDE9152385E7F4
:103CB000B0EE698A98E6B0EE497AB1EE660AF0EEA7
:103CC000668AA6EEA67A90E7012009F0B5FB33E6F6
:103CD000129B8021694A76A813F03EFD76A804F075
:103CE00055FE61E7664804F051FED6E7F0EE496AFA
:103CF0000E930F9368E7B0EE491AA8E6DFED576A16
:103D000062E7079E3EA85F4D602133465E4A0095FC
:103D10001A9013F021FD1C9A3346009596AD01923E
:103D2000A0215A4A284602941D9513F015FD2846F5
:103D300004F078FED2E5DFED566A45E70F9B002BD5
:103D40007FD11899534AA2FB013222F0010303EB01
:103D5000520322AACB1A42F823904B1C022B189331
:103D600000F2B680DAED00AAF0EE046ADFED4A7ADE
:103D7000F8EEEAAA6AEEA7AAB0EEEA6AB7EEEA7A25
:103D8000B4EEE66AF1EE10FA3BD8199B022B03D889
:103D90000133032B199336D11B9BA021DDF87480CE
:103DA000009301233D4A404604934B468DED027B30
:103DB00013F0D2FC404604F0E9FD189A022A40F2C2
:103DC000B1800E9A002A00F09480DDE91B329B1A24
:103DD000002BB8BF5B42642B00F39980169B022B2B
:103DE00000F2AA800133032B169300F0A5800E9BEE
:103DF000CDF850909B460F93069B1393002311938D
:103E0000BCE5002319931B9B4FF00008DDF874A05C
:103E1000A021224AAB46009350464B46CDF8108075
:103E20008DED027B13F098FC504604F0AFFD069B2D
:103E30000F95CDF84480CDF850901393CDF858806D
:103E40009CE5149BA9EB0303002BB8BF5B42B3F5C1
:103E5000E16F3FF75FAE74E7B0B60108CDCCCCBDE3
:103E6000A8050020D4CC0108A405002014B5010841
:103E7000BC050020E6040020F0B40108E4B6010807
:103E800024B70108ECB701085CB70108A4B7010822
:103E900000000000ABAAAAAA0AD7233CA8B50108D3
:103EA000FEF714F800233849384A0B60384939487E
:103EB0000B600B23136004F0B5FDBBE6334B062209
:103EC0001A60B7E6314B1A68092A7FF4B1AEB1E641
:103ED000DDE92231249A8B421B9114DD914206DCEC
:103EE0001B9313461B9A9A42A8BF1A461B920E9523
:103EF00038E70E9BAB46069A0F95CDF8509011937C
:103F0000139216933AE59342ECDC1346EAE70E9AD5
:103F10000023CDF8509093460F92069A1693139271
:103F200011932BE50023069AAB460F95CDF85090E0
:103F300016931392119321E5174B13491A68002326
:103F40000B6013490B6015490B6015490B60154B4D
:103F50001A60FDF7BBFF044650B90C4B1A68092ADA
:103F600001D005221A60002400230F4A137065E671
:103F70005020FEF72FFF0D4B1B78072BF3D00C487A
:103F800004F050FDF0E700BFA8050020BC050020AC
:103F9000A405002040B50108AC05002094050020D0
:103FA000900500208C050020E6040020C0050020BC
:103FB000E8B5010860EEA07A0023F0EEE06A002286
:103FC000B0EEC07AE0EE007A2DE9F04FF4EEC76A69
:103FD000DE4D2DED108BAFB0F1EE10FAB1EEE79A99
:103FE00095ED006A1E932293189321932593B0EECA
:103FF000608AF0EE408A8DED086AB0EE41AA129216
:10400000B0EE61BA1392B0EE42DA1492F0EE62EAC8
:10401000CDE91F33CDE92333CDE91933CC4BD3EDB3
:10402000007ACDED057A40F37E82F1EE047ACDED93
:104030000A7AF5EE007ACDED077ADFEDC6DA09F0FF
:10404000F5F9B4EEED9AF1EE10FA00F16382DFEDCE
:10405000C27AB4EEE7BAF1EE10FA40F25B82B4EE47
:10406000E7DAF1EE10FA40F25582BC4BC8EE89BA9D
:10407000DFF814830021C3ED007A8246B84B044672
:10408000C8ED007AC3ED007A88EE09CAB54B9DED04
:10409000057AC3ED007AB44B37EE2E7A0B91C3ED5F
:1040A000007AA0F1FA03F0EE67FA0D91B0EE679A8C
:1040B0000993B0EE678A0123F0EE678A8DED0C7AE2
:1040C000F0EE67CA0493F0EE67AACDED02EA06901F
:1040D00009F0ACF9069A43F697238146821A9A4270
:1040E00000F21482A14E336823B1A14B1B78002B40
:1040F00040F0D382A9EB0A03092B40F2B582A9EB69
:1041000004030AF10A0A07EE903AA9EB0A03F8EE53
:10411000677A092B88BFCA4667EEAD7AF4EEED7A6E
:10412000F1EE10FA00F18B829FED922AF4EEC27A42
:10413000F1EE10FA72FE27EAC8EE8A7AF5EEC07A3E
:10414000F1EE10FA00F17682F7EE009AB0EE007A06
:10415000F4EEE97AF1EE10FA79FEA79AF0EE087A19
:10416000E9EEC77A29EEA97A67EE877A9DED027AA1
:10417000B0EE6E0A9DED05EA754BA7EE27EA83EDDA
:1041800000EAFCF7EBFB14AB12AA22A97A480093D1
:1041900013AB05F015F90446002800F0BB819DED36
:1041A000087AD5ED007A77EEC77AB0EE670ACDEDE2
:1041B000037A12F051FAB0EE40FA9DED030A12F0C4
:1041C0004BF9DDED130AF0EE401ADDED127A20EE28
:1041D000800A9DF8683060EE8F0AA7EE8F0AE1EE44
:1041E000E70A002B00F02E82B0EE6E2A18A8B0EE7F
:1041F0004F1AFDF7B3FA9DED180ADDED190A6CEEC2
:10420000204A5E4B7AEE687A6BEEA00A93ED006A64
:10421000EBEE804A3DEE0D7AECEE400AE4EEAECADB
:10422000F0EEE46AE0EEAEFAA6EEAE6A7AEE6C5A12
:10423000F4EEE5AA83ED006A494BF1EE10FAF4EED4
:10424000E7AAC3ED00FA484B3AFEA50AF1EE10FAD0
:10425000C3ED000A7AFEA77AF4EEC07AF1EE10FA06
:1042600030FE270A20EE070AB5EE400AF1EE10FAFA
:1042700000F11A84F1EEC07AB4EEE7BA2DEE2E7A90
:10428000F1EE10FA77FE8B7AB4EEE78AF1EE10FACF
:1042900040F1748138EE077AB4EEE77AF1EE10FA65
:1042A00037FE878AE8EE2E8A9DED025ADFED387AD6
:1042B000B0EEC56AF4EECA8AF1EE10FAB4EEE76A1F
:1042C0007AFE288AF1EE10FA40F35581C8EE0A7A98
:1042D000B1EE087A25EE077AB7EE005A27EE297A72
:1042E00035EE695A27EE057A27EE277A78EEEC7AD2
:1042F0009FED235A67EE857ABDEE005AF4EEC57A3B
:10430000F1EE10FA07D4B5EE005AF4EEC57AF1EEEC
:1043100010FA35FE275A38EE055AFDEE007AB4EE53
:10432000E75AF1EE10FA05D4B4EECB5AF1EE10FADA
:104330007BFE057A77EEE44A9FED124ABDEE005A05
:1043400024EE844AA4EE2E9A24E000BFAC0500209F
:104350008C0500206F12833A00000000A8050020A1
:10436000980500209405002090050020E804002016
:10437000E7040020CDCC4C3DD4CC0108A0050020A2
:104380009A99993FCDCC4C3FA40500203333B33EDE
:1043900017B7D138B4EEC59AF1EE10FA00F15A8190
:1043A000B5EE005AB4EEC59AF1EE10FA35FE099A50
:1043B0001FED0A5AE4EE857ABDEE005A77EE897A4F
:1043C000F4EEC57AF1EE10FA05D4F4EECB7AF1EE04
:1043D00010FA3BFE275A5FED127AB44BB4EEE76A4F
:1043E00083ED005AF1EE10FA00F3F580F0EEC57A95
:1043F000DFEDAF4A9FEDAF4A67EEA47AC7EE844A7D
:10440000DFEDAD7AF4EEE74AF1EE10FA77FEA47A2A
:10441000B1EE674AD5ED004ADDED0A3A74EECE4AB8
:10442000A64FF1EE639AA3EEE47AD7ED004ADDEDF4
:10443000073AA4EEE37AB4EEC47AF1EE10FA05D4AA
:10444000B4EEE77AF1EE10FA37FE874ADFED9C7A98
:104450009FED9C7A67EEE07ADFED9B0A88ED004ADB
:10446000EFEE877AF4EEE07AF1EE10FA07D4DFEDA2
:10447000970AF4EEE07AF1EE10FA70FEA70AF0EE79
:10448000E55A9FED937A934B6CEE607AF4EEC75A3F
:10449000C3ED000A6BEEA00A95ED007AEBEE857A8B
:1044A000F1EE10FAECEE050A71D9DDED0C6A36EE8C
:1044B000C77ADFED896AB0EEC77AB4EEE67AF1EE3C
:1044C00010FA00D83B684FF0000B21EEE00A98ED9F
:1044D000001A60EE8F0A1EA98048A7EE8F0AE7EE49
:1044E000A10A04F0F5FEA8B11EA8FDF7BBFC044626
:1044F000002800F0CC8008F099FF22A905F0DEF832
:1045000008BB049BC3B9764804F08CFA754B0522AE
:104510001A6002E0734B06221A6000202FB0BDEC37
:10452000108BBDE8F08FF2EE027ACDED0A7ADFED66
:10453000677ACDED077A80E5CDE92200CDE9240048
:10454000694804F06FFA099BA9EB0303F92B00F209
:10455000848006F0E3FDBBF1000F41D00B9B002BE4
:1045600000F08880A9EB03033B2B00F2CB800023F3
:104570004C460493ACE5B0EE6A7AB7E638EE477A7B
:10458000F4EEC77AF1EE10FA37FE878A8AE6DDED9F
:104590000C5A35EEC77ADFED505AB0EEC77AB4EE5A
:1045A000E57AF1EE10FA21D897ED007ADFED4F5A57
:1045B000B0EEC77AB4EEE57AF1EE10FA16D89FEDB8
:1045C0004C7AF4EEC76AF1EE10FA94BF4FF0010B8B
:1045D0004FF0000B79E79FED474ADFED377A19E797
:1045E0004C46CDF82CB0CDF810B071E59FED407A77
:1045F000F4EEC76AF1EE10FA3FF665AF9FED3E7A32
:10460000B4EEC76AF1EE10FA02D84FF0010B5CE786
:104610007FF759AF254BC3ED00AA2E4BC3ED00AA7F
:104620000D9B63B3F0EE6A0A4FF0000BDFED337AB7
:104630000D944AE7F0EE6A7ADFED309A96E5F0EEF7
:104640006DEA79E501238DED180ACDED190A8DF893
:104650006830D4E5B0EE459AAAE622A94846FCF7B0
:1046600027FACDF8249074E7A146012008F0E4FE73
:104670004C462DE54C46CDF82C90049328E5204877
:10468000CDED031A04F0CEF9DDED031ACAE7154BA0
:104690001A68092A7FF43BAF3FE7FDF717FC0023B8
:1046A000024A1360C8F8003037E700BFA8050020B1
:1046B0006666263F7B14AE3E3333333FB0050020A1
:1046C000AE47613E9A9919C09A9999BE9A99993EB6
:1046D0006F12033C940500200AD7A33CD4CC0108F8
:1046E00014B50108BC050020F0B401080AD7233D29
:1046F0008FC2F53C333333BF17B7D1380000000009
:10470000FCB70108DDED0C7A4FF00009C64BDFED78
:10471000C78AC3ED007A00239FEDC5AA26932A938A
:104720001B9329932D939FEDC3BADFEDC3AA9FED91
:10473000C39ADFEDC3CACDE92733CDE92B33CDE9E9
:104740001C33C04BC3F8009008F070FEBD4BBE4A4E
:10475000C3F80090C2ED00FABC4A0290C2F8009083
:10476000A0F1FA0201200392FCF75CF9DDF808B031
:104770000023D946049308F059FE029B8246C31ACF
:10478000B3F5FA5F80F08781A0EB0903092B40F2B3
:104790003F81A0EB0B0309F10A0907EE903AA0EB69
:1047A0000903F8EE677A092B88BF814667EEA87A7D
:1047B000F4EEE87AF1EE10FA00F112819FEDA48A8E
:1047C000F4EEC87AF1EE10FA38FE278AB0EE480A05
:1047D000FCF7C4F817AB15AA2AA9009316AB9D489D
:1047E00004F0EEFD00283FF495AEDDED087AD5ED3E
:1047F00000DA7DEEE7DAB0EE6D0A11F02DFFB0EED3
:1048000040DAB0EE6D0A11F027FEDDED160AF0EE8B
:10481000401ADDED157A20EE200A9DF874306DEE19
:10482000200AADEE270AE1EEE70A002B00F0DB805C
:10483000B0EE482A1BA8B0EE4D1AFCF78FFF9DED95
:104840001B0ADDED1C0A6BEEA00A834BDDED076A47
:10485000ECEE400AC3ED000AD3ED007A7A4BE8EEA5
:1048600027FADDED0C7AC3ED00FA95ED007A37EE0C
:10487000677AD7ED007A67EEE67AE9EE877AF4EEAA
:10488000CA7AF1EE10FA00F1B9809FED747AF4EE75
:10489000C77AF1EE10FA77FE277A6F4BC8ED007AEF
:1048A000D3ED007A6BEE677AEFEEAA7AF4EEC97A6E
:1048B000F1EE10FA00F19F809FED697AF4EEC77A6D
:1048C000F1EE10FA77FE277A604B26A96148C3ED16
:1048D000007AD3ED007AD3ED000A6CEE677A98ED9A
:1048E000001A6BEEA00A20EEE10A6DEE200AADEE92
:1048F000270AE1EEA70A04F0EBFC00283FF40AAE19
:10490000584B1B6843B93368002B40F08580564BE9
:104910001B780BB9FDF792F905F0F0F820B905F016
:10492000F3F8002840F0AE8026A804F079FE28B9FC
:104930004E4B1A68092A7FF4EAADEEE508F076FDE1
:104940002AA904F0BBFE48B9002C3FF4DCADCDE948
:104950002A00CDE92C00464804F064F8039BAAEB3A
:104960000303F92B4DD806F0D9FBF0EEEF7AF4EE05
:10497000EC7AF1EE10FA30D8374B9FED3E7AD3ED5A
:10498000007AF0EEE77AF4EEC77AF1EE10FA24D866
:10499000D5ED007ADDED0C6A9FED377A77EEE67A99
:1049A000F0EEE77AF4EEC77AF1EE10FA15D8D7ED0B
:1049B000007A9FED327AF0EEE77AF4EEC77AF1EE04
:1049C00010FA0AD8049B002B62D0AAEB03033B2BFE
:1049D00000F28480D3460024CDE600230493F9E757
:1049E000B0EE688AF2E601238DED1B0ACDED1C0ABC
:1049F0008DF8743027E7F0EE497A65E7F0EE4A7AF1
:104A00004BE72AA95046FCF753F8CDF80CA0AAE7CB
:104A1000012008F011FDAEE6194B1B78002B7FF446
:104A20007BAFFCF755FA77E78C0500206F12833ACD
:104A30003333B3BEAE47613E9A9919C0EC5138BECC
:104A40006F12033CA8050020980500209405002063
:104A5000CDCC4C3DD4CC0108900500203333B33E7F
:104A6000EC51383EDC0400206F050020BC0500201E
:104A7000F0B401088FC2F53C0AD7A33C0AD7233D06
:104A8000E6040020FBF722FF194B09221A6050E7C9
:104A9000CDF810A09EE70023164A03201360FBF711
:104AA000C1FFFDF713FA39E5CDED111ACDED105A1E
:104AB000CDED0F0ACDED0E4ACDED036A11F0A2FC4B
:104AC000DDED111AF0EE407ADDED105ADDED0F0A42
:104AD000DDED0E4ADDED036AFFF7CEBB0023054A8C
:104AE00002201360FBF79EFFFDF7F0F916E500BF0B
:104AF000BC050020940500202DE9F047C6B06021D8
:104B000006A807F0F3FE002835D006AD934E944F6B
:104B100005EB0008DFF8A49206E0611C7F292DD880
:104B200031603B55A84526D015F8013B34680D2B64
:104B300006D0A3F10A02B2FA82F25209002AECD09E
:104B40000023884986483B5512F044FF824650B105
:104B5000B84208D0FBF7C6FB044651463846621CF3
:104B600012F09EFE346014B1D9F80030E3B900238E
:104B7000A8453360D8D146B0BDE8F087DFF840A241
:104B800032609AF80020D9F80030002A5DD0764AC9
:104B90000192A021754A1EA80092754A12F0DCFD10
:104BA0001EA803F00BFFBDE705AC72480DF1130220
:104BB0002146FCF703F9002849D02368D9F80020E2
:104BC000DFF8FCA193425CD00DF1130221466A4844
:104BD000FCF7F4F820B12368D9F8002093426BD099
:104BE0000DF1130221466548FCF7E8F820B123686F
:104BF000D9F80020934277D00DF113022146604886
:104C0000FCF7DCF828B12368D9F80020934200F0C3
:104C100082800DF1130221465A48FCF7CFF8D9F8EB
:104C200000309AF8002010B124689C4214D08AB158
:104C30004D4A0192544A00924D4AA0211EA812F0FA
:104C40008BFD1EA803F0BAFE91E7504AA0E7DFF8FB
:104C500070A1B9E74D4AECE79DF813109142E6D1F7
:104C60004B4B00224B481A7003F090FE9AF800302C
:104C7000002B6ED03C4B434A009323460192464A98
:104C8000DBE79DF813109AF8002091429CD1434A2B
:104C9000127812B9424A012111704248039303F07D
:104CA00075FE9AF80020039B002A4CD1374A0092E7
:104CB000304A0192384AC0E79DF813109AF8002054
:104CC00091428DD1384A012138480393117003F085
:104CD0005DFE9AF80020039B002A36D0224A0092FB
:104CE000254A01922C4AA8E79DF813109AF8002053
:104CF000914281D12E4A01212E480393117003F075
:104D000045FE9AF80020039B0AB3174A00921B4AFB
:104D10000192214A91E79DF813109AF800209142E0
:104D20007FF477AF1A4A012123480393117003F0EF
:104D30002DFE9AF80020039B6AB10B4A0092104A9C
:104D40000192154A79E7084AB1E7104AC7E70F4AC6
:104D5000DCE70E4B8FE70D4AF0E700BF7C03002035
:104D6000FC02002058A90108E8A8010880B9010840
:104D700048B901085CAB01089CAB0108D8AA01083E
:104D8000E8B8010818B9010878B90108ECA80108C9
:104D9000D404002020B9010868B80108D504002017
:104DA000D804002040B80108D704002098B80108B2
:104DB000D6040020C0B80108F0B80108DC040020C7
:104DC000E4040020B5EEC00A00230022F1EE10FA40
:104DD0002DE9F04F2DED108BC1B0B0EE60CA1093ED
:104DE00014930D920E920F9213931793CDE91133F2
:104DF000CDE9153300F16783F7EE00CADFF8F4B1AF
:104E0000B0EEC0BADFF8F0A1DBED00BA08F00EFB9F
:104E1000A0F1FA035F4902460793DAF80030096807
:104E2000002B00F024830B1E4FF0010EB6EE00EABB
:104E3000DFED59EA18BF01239FED58AADFED58FABC
:104E4000F4460A93574B0593DFED577AB0EE6F9A0D
:104E5000564B16465649B0EE67FAC3ED007AF0EEAF
:104E6000678A544BF0EE679ADFED53AA4FF00008C3
:104E7000C3ED007A1546514BDFED51DAC3ED007AF0
:104E8000504B9FED51DAC3ED007A504BCDF818C06E
:104E9000C3ED007ADBF80030CDF820E00B60012391
:104EA0000492039308F0C2FA049A0290831A059AB6
:104EB000934280F00F83069B002B00F0BC800A9B7E
:104EC000002B00F0F981334B1B680993FCF748FD78
:104ED0003F4B1F78002F40F07F823E4C2378002B01
:104EE00000F0A980FCF7F2FF002800F0A98301235D
:104EF000394A27701370394B1B78002B40F0CA8257
:104F0000374B18AF0193099BA021364A38460093CE
:104F1000354B12F021FC384603F050FD08F086FABC
:104F20002D4B81461B784BB985E006F0F7F80A2037
:104F300008F082FA284B1B78002B7CD008F076FA18
:104F40000446FCF70DFD04F0DFFDA4EB0902002888
:104F500040F0C4821E4B1B78002B40F02D83234968
:104F60000978002940F05583F92ADED91B4B1B78BC
:104F7000002B00F0A6821E4A099938461A4BA1461A
:104F8000CDE90012174AA02112F0E6FB384603F0E3
:104F900015FDCAE7D00400200AD7A33D9A99193F0E
:104FA000CDCC4C3EC0D4010000000000A80500207C
:104FB0008C050020A40500206F12833A980500207C
:104FC0000AD7A33C94050020CDCC4C3D9005002091
:104FD000CA040020CC040020C9040020CD04002015
:104FE000ECA8010898B90108C4B90108CB04002055
:104FF000E8A80108AC050020DC0400209C4A9D497B
:1050000013709D4A0B9D127823700B70002A00F0DC
:105010001D839A4B01938021099B3846984A00933F
:10502000984B12F099FB384603F0C8FC964803F001
:10503000ADFC01230393029B9B1B092B40F2BA8119
:10504000029B0A365A1B08EE102A1A469B1BB8EE22
:10505000488A092B88BF164628EE2A8AB4EEEA8AC7
:10506000F1EE10FA00F1FD80B4EECD8AF1EE10FA07
:105070003DFE088AB0EE480AFBF770FC0FAB0DAAA4
:1050800014A900930EAB814804F09AF9002800F0AF
:105090001D82DBED007AF5EE006A77EEEB7ADBED50
:1050A00000BAB0EEE76AB4EEE66AF1EE10FA07D89D
:1050B000ACEEA7FAF4EECF9AF1EE10FA39FE8FFAC1
:1050C0007BEE4F7A089BF4EEE79AF1EE10FA79FE48
:1050D000A77A002B00F0C280664B6EEE086A1B7840
:1050E000002B0FFEAE6AB4EEC69AF1EE10FA40F154
:1050F0005A8139EE269A89FE469A3AEE0A0A20EE3D
:10510000270AB5EE400AF1EE10FA00F1AC82F1EE9A
:10511000C07AB4EEE79A6AEE086AF1EE10FA38EE59
:10512000E66A77FE897A67EEAC7AF4EEC67AF1EE3B
:1051300010FA00F1998078EEA68AF4EEE87AF1EEA2
:1051400010FA78FEA78A6CEE680A514BB0EE681A26
:1051500010A9B0EE690A4D48F0EEE07AC3ED007A8E
:105160004C4BC3ED008A04F0B3F8002800F0AE8188
:10517000DAF800304BB9484B1B68002B40F01F8118
:10518000464B1B780BB9FCF759FD04F0B7FC20B96E
:1051900004F0BAFC002840F0648110A804F040FA42
:1051A00058B93F4B1A68092A01D005221A6000201D
:1051B00041B0BDEC108BBDE8F08F08F037F914A9B1
:1051C00004F07CFA78B9039B33B9364803F02AFC23
:1051D000334B05221A60EAE7CDE91400CDE9160049
:1051E000314803F01FFCDDED0F7A304BF0EEE77A2B
:1051F000079AD3ED006A67EE8C7AE7EE886AC3ED12
:10520000006A029B9B1AF92B00F2C68005F086FF0C
:105210007BEE6D7AF4EECF7AF1EE10FA19D8244BCA
:105220009FED247AD3ED007AF0EEE77AF4EEC77AB8
:10523000F1EE10FA0DD8B8F1000F00F0C880029B13
:10524000A3EB08034F2B00F2078200230393029D78
:1052500028E64FF00008CDF80C80F8E7B0EE6F9A22
:105260004BE7B0EE6A8A05E7F0EE468A6BE700BFCF
:10527000D5040020D4040020E4040020E8A801089C
:10528000D4B90108CCB9010814BA0108D4CC01087A
:10529000A8050020A4050020E80400206F050020D8
:1052A000BC05002014B50108F0B40108A0050020D9
:1052B000B00500200AD7233DDAF800300993FFF744
:1052C0001BFCA54B1B78002B40F0A080A34B1B7848
:1052D000002B3FF4B0AEFCF7F9FD002800F0B081E0
:1052E0009E4B0A9A1A7001239D4A13709D4B1B789E
:1052F000002B40F0CD809C4B18AF0193099B80217F
:105300009A4A384600939A4B12F026FA384603F030
:1053100055FB08F08BF88146964803F037FB904B1D
:105320001B78002B3FF487AE934C0B9509E005F0FA
:10533000F5FE0A2008F080F8894B1B78002B00F05E
:105340007D8108F073F80546FFF7D6FB04F0DCFB1F
:10535000A5EB0902002840F0DA807F4B1B78002B78
:1053600040F03481217800297FF448AEF92ADED953
:105370007C4B1B78002B00F0A280804A09993846AC
:105380007B4BA946CDE90012784A802112F0E4F95E
:10539000384603F013FBCAE7029C14A92046FBF72A
:1053A00087FB079432E77FF7A8AE39EE669A89FE4D
:1053B000069AA2E6012008F03FF8029547E7704BF5
:1053C0001B78002B7FF4E1AEFBF782FDDDE60023C6
:1053D000DDF8088003933AE7FCF778FD002800F039
:1053E0002F81684B1B78002B58D15F4B099AA02165
:1053F000019318A8644B0092644A12F0ADF918A802
:1054000003F0DCFA0023624A137024E0FCF75EFD2F
:10541000002800F01581534B1B78002B3CD1524BD8
:1054200001938021099B18A8504A0093564B12F013
:1054300093F918A803F0C2FA0023474A47491370AA
:10544000474A0B701370534A4B491370524ACAF8BB
:1054500000300B701360DBF8003001204F4A1360FE
:10546000A6E6FBF733FA4C4B09221A609AE6B9B16B
:10547000DFED4BEA9E464FF0010C4A4BF0EE6EFA20
:105480009FED49AA9FED49EA0593CDF828C0DBE4DA
:105490003A4B31E7394B34E5384BC1E7374BA5E799
:1054A000F7EE00EA42F6E0638E469FED41AA9FEDDB
:1054B0003FEA8C46F0EE6EFA05930A91C4E42A4A5C
:1054C0005CE7294A58E5FFEE00CA97E4324B062212
:1054D0001A606CE6304B07221A6068E6FCF7F6FCAF
:1054E000284B1B78002B6FD0244B0193A021099BE4
:1054F0003846264A0093244B12F02EF9384603F022
:105500005DFA00232B4A1370214A1370A3E7FCF7BE
:10551000DDFC144B1B78002B00F09680174B019399
:105520008021099B3846114A0093174B12F014F959
:10553000384603F043FA0023084A09491370064A23
:10554000CAF800301370134A0B701370124A1360BC
:10555000094A13707FE700BFD6040020D80400205A
:10556000D5040020E4040020ECA80108D4B9010807
:10557000C4B90108F8B90108D7040020E8A8010857
:10558000E6040020CD04002090B9010898B9010874
:10559000CA040020D4040020BC0500208C05002093
:1055A000CDCC4C3EC0D401009A99193F00000000B8
:1055B0006666E63FC9040020FCF788FC00283FD05F
:1055C0002B4B1B78002B8FD12A4B8EE7FCF77EFCF0
:1055D000002835D0284B1B78002B3BD0274B01935C
:1055E0008021099B3846264A0093264B12F0B4F8D6
:1055F000384603F0E3F90023234A24491370244A70
:10560000CAF800301370234A0B701360224A1370DB
:1056100021E7224A1370224A1370154B1B78BBB145
:10562000164B0193A021099B38461E4A00931E4B3E
:1056300012F092F8384603F0C1F9FAE40B9DFAE44F
:10564000144B05221A60B2E50A4B68E7094BE1E406
:10565000084BE6E7074BC2E7DBF80030134A13605C
:10566000FCF734FCA4E510F0CDFEF0EE407A50E5F6
:10567000CD040020ECA80108E4040020E8A80108FB
:10568000D4B9010890B90108D8040020D50400203D
:10569000D6040020BC050020D7040020CB04002045
:1056A000C904002098B90108CCB901088C05002074
:1056B000014B1878704700BF7A050020024A40F677
:1056C000B8300249FCF738BC34BA010864BA0108A2
:1056D000024A42F6E0600249FCF72EBC94BA010887
:1056E000C4BA010808B502F02DFD05F02FFCBDE895
:1056F000084004F0A7B900BF704B2DE9F0411E78B7
:105700009AB03EB100226E481A701AB0BDE8F0415E
:1057100005F012BE02F0CAFC6A4F07F087FE6A4B22
:105720000F22804669481A7005F006FE684803F0AB
:1057300079F907F07BFEA0F57A7512E005F0EEFC32
:10574000FBF7C6FB631B00BB3A78002A40F084805D
:10575000B3F57A7F34D204F0D7F968BB0A2007F09A
:105760006BFE02F0A9FC80B307F060FE044602F075
:10577000C3FC0028E2D002F093FC064605F0CEFC04
:10578000FBF7A6FB631B0028DED04D4805F0D4FDD7
:10579000504803F0FBF802F083FCE0B1484805F004
:1057A000CBFD02F07DFC01280CBF4B484B481AB0E2
:1057B000BDE8F04103F036B9444805F0BDFDCDE742
:1057C0004748254603F02EF9C5E7002E67D102F0C1
:1057D00067FC0028E2D1A8F57A753A4E07F026FE5C
:1057E000044605F09BFC631BB3F57A7F13D204F0EB
:1057F0008BF920BBFBF76CFB28BB3378002B32D135
:1058000002F07AFC18B102F04BFC002834D10A20D7
:1058100007F012FEE2E702F013FC054602F00AFC74
:10582000304A2B466021009002A811F095FF02A893
:10583000254603F0F7F804F067F90028DAD023488A
:1058400005F07AFDCAE71E4805F076FD214803F011
:10585000E9F81AB0BDE8F081194805F06DFD22485D
:1058600003F094F8B3E7164805F066FD1E4803F010
:10587000D9F81AB0BDE8F081114805F05DFD05F0DA
:105880007DFD02F00DFC012813D0022803D017483B
:1058900003F0C8F8DDE7114803F0C4F8D9E7084879
:1058A00005F04AFD012E0CBF0B480C4803F0BAF876
:1058B0008DE7094803F0B6F8CBE700BF6E0500207E
:1058C00034BB0108E5040020C005002038BB0108F6
:1058D00040BB010878BB0108F4BA010814BB0108F9
:1058E000C8BB0108E4BB0108A0BB01080CBC01084F
:1058F000002918BF002884460CBF0120002039D0A1
:10590000002B18BF002A10B5029C0CBF4FF0010EEF
:105910004FF0000E012C98BF4EF0010EBEF1000FAB
:1059200000D010BDDFF858E09EF80040002CF8D001
:105930008EF80000DFF84CE09EF800E08CF800E004
:10594000DFF844C0DCF80040DFF840C00C609CF891
:1059500000C082F800C0DFF838C09CF800C083F8AF
:1059600000C05070044A5870107001200B68034A40
:10597000136010BD00207047E7040020E8040020F9
:10598000F9040020F8040020F4040020F1040020B1
:10599000F0040020014B1868704700BFEC040020A1
:1059A0002DE9F0410446A2B01E4D1F4E1F4FDFF8F7
:1059B0009C8001E007F040FDFBF78AFA04F0A4F8B0
:1059C00005F0ACFB2B680A20A34225D133786BB9D4
:1059D0003B78002BEED0D8F80030A342EAD1144B2C
:1059E0001B68013B062BE5D8012016E0114B1B7804
:1059F000B3B1114B114A8021019302A8104B0094BE
:105A000011F0AAFE02A802F0D9FF002307490D4AAF
:105A10002B6033700B701360002022B0BDE8F08162
:105A2000094BE7E7E8040020E7040020F904002020
:105A3000EC040020F8040020E8A8010830BC0108AC
:105A400090B90108BC050020ECA80108F40400206E
:105A50000038024B18BF0120187070476D050020F8
:105A600000231E491E48002210B50B701D4903601B
:105A70000B701D491D4C0B701D491E480B601E49C3
:105A800023700B6003701D4C1D481E4923700B7062
:105A900003701D4C1D481E4923600B7003701D4C84
:105AA0001D491E480B70237003601D491D4B1E4C81
:105AB0000A601E4822601E491A601E4B02600A607E
:105AC0001A6004F0A7FF1C4B1C4A1B6812681343A2
:105AD00000D010BDBDE81040FAF7F8BE71050020F7
