:020000040800F2
:1000000000000220D90700082D0800082D0800086C
:100010002D0800082D0800082D0800080000000029
:100020000000000000000000000000002D08000893
:100030002D080008000000002D080008219A000883
:100040002D0800082D0800082D0800082D080008BC
:100050002D0800082D0800082D0800082D080008AC
:100060002D0800082D0800082D0800082D0800089C
:100070002D0800082D0800082D0800082D0800088C
:100080002D0800082D0800082D0800082D0800087C
:100090002D0800082D0800082D0800082D0800086C
:1000A0002D0800082D0800082D0800082D0800085C
:1000B0002D0800082D0800082D0800082D0800084C
:1000C0002D0800082D0800082D0800082D0800083C
:1000D0002D0800082D0800082D0800082D0800082C
:1000E0002D0800082D080008000000002D08000859
:1000F0002D0800082D0800082D0800082D0800080C
:100100002D0800082D0800082D0800082D080008FB
:100110002D080008C99500082D0800082D080008C2
:100120002D0800082D0800082D0800082D080008DB
:100130002D0800082D0800082D0800082D080008CB
:1001400000000000000000000000000000000000AF
:100150002D0800082D0800082D0800082D080008AB
:100160002D0800082D0800082D0800082D0800089B
:100170002D080008259A00082D080008000000003E
:100180002D0800082D0800082D0800082D0800087B
:100190002D0800082D0800082D0800082D0800086B
:1001A0002D0800082D0800082D0800080000000098
:1001B0002D0800082D0800082D0800082D0800084B
:1001C0002D0800082D0800080000000000000000B5
:1001D00000000000000000002D08000800000000E2
:1001E000000000000000000000000000000000000F
:1001F00000000000000000002D0800082D08000885
:100200002D0800082D080008000000002D08000837
:100210002D0800082D0800082D0800082D080008EA
:100220002D080008000000002D0800080000000054
:100230002D0800082D080008000000002D08000807
:100240002D0800082D0800082D0800082D080008BA
:100250002D0800082D0800082D0800082D080008AA
:100260002D0800082D0800082D0800082D0800089A
:100270002D0800082D0800082D08000800000000C7
:100280002D0800082D0800082D0800082D0800087A
:10029000000000002D0800082D08000800000000E4
:1002A000000000002D0800082D0800082D08000897
:1002B0002D0800082D0800082D0800082D0800084A
:0C02C0002D0800082D0800082D0800087B
:1002D00010F8012B11F8013B012A28BF9A42F7D0F0
:1002E000D01A7047034613F8012B002AFBD1181AC5
:1002F000013870470000000000000000000000000E
:1003000001F0FF01102A2BDB10F0070F08D010F8C6
:10031000013B013A8B422DD010F0070F42B3F6D1CA
:10032000F0B441EA012141EA014122F007047FF0E3
:1003300000070023F0E80256083C85EA010586EA3A
:10034000010685FA47F5A3FA87F586FA47F6A5FA76
:1003500087F68EB9EED1F0BC01F0FF0102F0070282
:1003600032B110F8013B013A83EA010313B1F8D12D
:100370000020704701387047002D06BF354603380E
:10038000073815F0010F07D1013015F4807F02BF47
:10039000013015F4C03F0130F0BC0138704700BF98
:1003A00081F0004102E000BF83F0004330B54FEA26
:1003B00041044FEA430594EA050F08BF90EA020F93
:1003C0001FBF54EA000C55EA020C7FEA645C7FEA26
:1003D000655C00F0E2804FEA5454D4EB5555B8BF49
:1003E0006D420CDD2C4480EA020281EA030382EABA
:1003F000000083EA010180EA020281EA0303362D4C
:1004000088BF30BD11F0004F4FEA01314FF4801C1E
:100410004CEA113102D0404261EB410113F0004F30
:100420004FEA03334CEA133302D0524263EB4303E7
:1004300094EA050F00F0A780A4F10104D5F1200E85
:100440000DDB02FA0EFC22FA05F2801841F10001E0
:1004500003FA0EF2801843FA05F359410EE0A5F1B4
:1004600020050EF1200E012A03FA0EFC28BF4CF0E5
:10047000020C43FA05F3C01851EBE37101F000459B
:1004800007D54FF0000EDCF1000C7EEB00006EEBA8
:100490000101B1F5801F1BD3B1F5001F0CD3490832
:1004A0005FEA30004FEA3C0C04F101044FEA445289
:1004B00012F5800F80F09A80BCF1004F08BF5FEA10
:1004C000500C50F1000041EB045141EA050130BDF0
:1004D0005FEA4C0C404141EB0101013C28BFB1F502
:1004E000801FE9D291F0000F04BF01460020B1FA4D
:1004F00081F308BF2033A3F10B03B3F120020CDA20
:100500000C3208DD02F1140CC2F10C0201FA0CF0FD
:1005100021FA02F10CE002F11402D8BFC2F1200C62
:1005200001FA02F120FA0CFCDCBF41EA0C01904018
:10053000E41AA2BF01EB0451294330BD6FEA040461
:100540001F3C1CDA0C340EDC04F11404C4F120024C
:1005500020FA04F001FA02F340EA030021FA04F35E
:1005600045EA030130BDC4F10C04C4F1200220FAB5
:1005700002F001FA04F340EA0300294630BD21FAF3
:1005800004F0294630BD94F0000F83F4801306BFB9
:1005900081F480110134013D4EE77FEA645C18BFAD
:1005A0007FEA655C29D094EA050F08BF90EA020F44
:1005B00005D054EA000C04BF1946104630BD91EA3C
:1005C000030F1EBF0021002030BD5FEA545C05D13F
:1005D0004000494128BF41F0004130BD14F580047E
:1005E0003CBF01F5801130BD01F0004545F0FE41F2
:1005F00041F470014FF0000030BD7FEA645C1ABF27
:10060000194610467FEA655C1CBF0B46024650EA5D
:10061000013406BF52EA033591EA030F41F4002189
:1006200030BD00BF90F0000F04BF0021704730B50F
:100630004FF4806404F132044FF000054FF00001E4
:1006400050E700BF90F0000F04BF0021704730B5A5
:100650004FF4806404F1320410F0004548BF40427A
:100660004FF000013EE700BF42004FEAE2014FEACF
:1006700031014FEA02701FBF12F07F4393F07F4FAA
:1006800081F06051704732F07F4208BF704793F0AD
:100690007F4F04BF41F40021704730B54FF46074C0
:1006A00001F0004521F000411CE700BF50EA0102C3
:1006B00008BF704730B54FF000050AE050EA01026C
:1006C00008BF704730B511F0004502D5404261EBDC
:1006D00041014FF4806404F132045FEA915C3FF41D
:1006E000D8AE4FF003025FEADC0C18BF03325FEABA
:1006F000DC0C18BF033202EBDC02C2F1200300FA6B
:1007000003FC20FA02F001FA03FE40EA0E0021FA8F
:1007100002F11444BDE600BF53B94AB9002908BF2D
:1007200000281CBF4FF0FF314FF0FF3000F00CB835
:10073000ADF1080C6DE904CE1AF006FADDF804E01C
:10074000DDE9022304B07047704700BF0348044B43
:10075000834202D0034B03B118477047CC020020FC
:10076000CC020020000000000548064B1B1AD90FE0
:1007700001EBA301491002D0034B03B118477047A6
:10078000CC020020CC0200200000000010B5064C76
:10079000237843B9FFF7DAFF044B13B10448AFF3F2
:1007A00000800123237010BDE00200200000000043
:1007B00068AE010808B5054B1BB105490548AFF304
:1007C0000080BDE80840FFF7CFBF00BF0000000079
:1007D000E402002068AE0108DFF838D000F028F805
:1007E000002103E00C4B5B58435004310B480C4B89
:1007F00042189A42F6D30B4A02E0002342F8043B27
:10080000094B9A42F9D30DF003F917F0F5FC06F005
:100810002FFA704700000220981F040800000020F3
:10082000CC020020E0020020C06C0120FEE70000A6
:10083000044AD36843F00203D36053689B04FCD599
:10084000704700BF00480258F7EE007ADFED1A5AF1
:10085000F0EE084A9FED196A20EE004A9FED183A23
:1008600077EEC07ADFED173A60EEA55ABEEE007A59
:1008700067EEA76A67EEA47A20EE045A66EEA46AD1
:1008800067EE847A20EE866A26EE800A27EE877A63
:1008900067EEA57A60EEA30ADFED0B3AA0EE037ACD
:1008A000E0EE067AA5EE237AE5EE207A80ED007A76
:1008B000C1ED007A704700BF9A99193FCDCCCC3E6C
:1008C0009A9919BE3333333F33337BC0164A012123
:1008D0000023164810B51170154C164A037013709A
:1008E0002370154A15481649164C136003600B70A7
:1008F0000DF04CF9144AFA38237810604BB11348C4
:1009000008F040FC237853B11148BDE8104008F0CE
:1009100005BC104808F036FC2378002BF4D10E48B3
:10092000BDE8104008F0FABB6C0500207A050020F5
:100930007905002078050020FC04002074050020C3
:100940006F0500206D05002068050020D8AE010865
:1009500020AF0108FCAE01083CAF010800B58BB028
:1009600000234FF0000C03AA04A807A98DED010A8B
:1009700006930993CDF80CC0CDE90433CDE90733D4
:100980000CF07EFEDDED087A1F4B9DED077AF1EE4F
:10099000677ADDED066A0398B1EE477A1B49F1EEFE
:1009A000666A1B4AD3ED015A086093ED006A77EE40
:1009B000E57A92ED005A174B37EE467A76EEC56A25
:1009C000154993ED016A154A77EEC67AD3ED005AC0
:1009D000C1ED006A9FED125A37EE657AD1ED004AFB
:1009E000D2ED006AA7EE856A9DED010AE7EE055A91
:1009F000F0EE667AE4EE807A83ED016AC3ED005A88
:100A0000C2ED007A0BB000BD840500209C050020DB
:100A1000B40500207C050020B0050020AC050020B6
:100A2000CDCC4C3E10B582B004460DF0AFF8144B5F
:100A30001449154A0094DFF868C00978126893EDEC
:100A4000000A124BDCED000A93ED001ADFF854C0E7
:100A50000F4BDCED001A93ED002ADFF84CC00D4B74
:100A6000DCED002A93ED003ADFF840C00A4BDCEDE4
:100A7000003A93ED004A094B0AF09CFB02B010BD0E
:100A8000B0050020C0050020BC050020A8050020FE
:100A9000A0050020980500209005002050D70108EF
:100AA000AC050020A40500209C0500209405002032
:100AB00000B5DFF86CC00B46DFF868E083B0174A7A
:100AC0009EF8001012689CED000ADFF85CC0DCEDB7
:100AD000000ADFF858C09CED001ADFF854C0DCEDC6
:100AE000001ADFF850C09CED002ADFF84CC0DCEDA6
:100AF000002ADFF848C09CED003ADFF844C0DCED86
:100B0000003ADFF840C09CED004A4FF0000CCDF8F1
:100B100000C00AF04FFB03B000BD00BFBC050020C1
:100B2000B0050020C0050020AC050020A80500206D
:100B3000A4050020A00500209C05002098050020A9
:100B4000940500209005002070B5CCB003468021AC
:100B5000494A0CA817F0B0F948490CA817F084FAD4
:100B6000002872D00346002406AD01E0062C0BD00D
:100B700045F8043B00204149013417F075FA03465B
:100B80000028F3D1062C60D13D490698FFF7A0FB61
:100B900000285AD13B490798FFF79AFB002854D107
:100BA00039490898FFF794FB00284ED137490A9835
:100BB000FFF78EFB002848D1099C0A2205A9204690
:100BC00017F0ACF822780546002A47D0059B1B7821
:100BD000002B43D1012841D80B9E04A9304616F0C2
:100BE000DFFF3378002B40D0049B1B78002B3CD1D7
:100BF000F0EEC07A9FED267AF4EE477AF1EE10FA25
:100C000033D8B5EEC00AF1EE10FA2ED4DFED217A1A
:100C1000B4EEE70AF1EE10FA27DCE8B28DED030A34
:100C200008F016FA9DED030A2B461B4AB7EEC00AE0
:100C300080212CA88DED000B17F03EF92CA808F0B0
:100C40006DFA2CA808F052FA05E0144808F066FA8C
:100C5000124808F04BFA01204CB070BD104808F063
:100C60005DFA0F4808F042FAF5E70E4808F056FA28
:100C70000C4808F03BFAEEE758AF01085CAF0108FA
:100C800084AF010890AF010894AF01089CAF010840
:100C9000FFFF7F7F00003443F8AF010860AF010819
:100CA000A8AF0108D0AF01082DE9F041B2B0064667
:100CB0000F469046A021384B384A0AA817F0FCF896
:100CC00037490AA817F0D0F990B10346002401ADC6
:100CD00045F8043F00203249013417F0C5F90346B6
:100CE000002855D0082CF3D1029B1A78522A03D041
:100CF000002032B0BDE8F0815A784B2AF8D19B78B9
:100D0000002BF5D127490398FFF7E2FA0028EFD12D
:100D100025490498FFF7DCFA0028E9D13146059807
:100D2000FFF7D6FA0028E3D120490698FFF7D0FA5A
:100D30000028DDD11E490898FFF7CAFA0028D7D14C
:100D4000099C1C492046FFF7C3FA28B11A492046DE
:100D5000FFF7BEFA0028CBD1079D0A2201A9284639
:100D600016F0DCFF2B780246002BC1D0019B1B78CC
:100D7000002BBDD10028BBD00E4920463A60FFF7BA
:100D8000A7FAB0FA80F301205B0988F80030B0E7D9
:100D9000082CADD1A8E700BF8003002058AF0108A0
:100DA0005CAF010828B001082CB001083CB0010874
:100DB00040B0010848B001084CB001082DE9F041ED
:100DC000AAB006460F4690468021384B384A0AA8FA
:100DD00017F072F837490AA817F046F990B10346A0
:100DE000002401AD45F8043F00203249013417F0DA
:100DF0003BF90346002855D0082CF3D1029B1A7802
:100E0000522A03D000202AB0BDE8F0815A784B2A3C
:100E1000F8D19B78002BF5D127490398FFF758FAB2
:100E20000028EFD125490498FFF752FA0028E9D1AC
:100E300031460598FFF74CFA0028E3D1204906987F
:100E4000FFF746FA0028DDD11E490898FFF740FA5F
:100E50000028D7D1099C1C492046FFF739FA28B150
:100E60001A492046FFF734FA0028CBD1079D0A2201
:100E700001A9284616F052FF2B780246002BC1D05C
:100E8000019B1B78002BBDD10028BBD00E4920460A
:100E90003A60FFF71DFAB0FA80F301205B0988F889
:100EA0000030B0E7082CADD1A8E700BFFC0200205D
:100EB00058AF01085CAF010854B001085CB00108EC
:100EC0003CB0010840B0010848B001084CB001082E
:100ED0002DE9F04FD3B0602112A80CF0B7F800282C
:100EE00000F014818C4B06461978002900F04583E8
:100EF0000DF14809894C8A4D09EB060899F8003034
:100F000026680A2B18BF0D2B0CBF0127002740F0C5
:100F1000F282002383498248AB5517F00BF98246D1
:100F2000002800F0F382AA4509D05046FFF7DAF90D
:100F3000064651462846721C17F062F82660002EBD
:100F400000F0D182784B1B780F2B00F0ED822B46FE
:100F5000764AA0212AA816F0AFFF75492AA817F0F3
:100F600083F80346002800F0158106AE4FF0000A12
:100F7000B3464BF8043B00206D490AF1010A17F013
:100F800073F80346002800F00181BAF10C0FF0D18C
:100F900033681A78522A40F0FD805A784B2A40F084
:100FA000F9809B78002B40F0F58062497068FFF76C
:100FB0008FF9002840F0EE805F49B068FFF788F9AC
:100FC000002840F0E7805D49F068FFF781F90028CC
:100FD00040F0E0805A493069FFF77AF9002840F084
:100FE000D9805849B069FFF773F9002840F0D280E2
:100FF0005549306AFFF76CF9002840F0CB8053491F
:10100000B06AFFF765F9002840F0C480D6F814B044
:101010000A2205A9584616F081FE9BF8003002907E
:10102000002B00F0B780059B93F800B0BBF1000FD8
:1010300040F0B080002800F0AD80F36944491846C4
:101040000393FFF745F9002800F0668303984149B0
:10105000FFF73EF9002840F09D80736A0A2205A937
:101060001846039316F05AFE039B1B78002B00F0E2
:101070009180059B1B78002B40F08C80B0F5C87FD9
:1010800040F08880F66A0A2205A9304616F046FE2E
:101090003378002B7ED0059B1B78002B7AD1B0F5DE
:1010A000B47F77D12C4B1A782C4B1878024340F040
:1010B00001832B4A2B4812680068024340F0FA82F1
:1010C000012002991870284B83F800B0274B196053
:1010D000274B1A70274B1A70274B1A70274B1A7020
:1010E000274B1A70BBF1000F00F01C831849029BBC
:1010F0002AA8244A0091802116F0DEFE2AA808F0D2
:101100000DF8214807F0F2FF00232360002738463E
:1011100053B0BDE8F08F00BFC8040020C404002015
:1011200024040020A8B00108C005002058AF010821
:101130005CAF010854B001085CB00108D8B00108E8
:101140003CB0010840B00108E0B001089CAF0108C4
:1011500048B001084CB00108F9040020E504002063
:10116000E8040020DC040020E4040020E004002067
:10117000D8040020D7040020D6040020D504002085
:10118000D404002004B101082CB10108BAF10C0FFD
:101190003FF4FEAE2368002B00F0A5812B46804A69
:1011A000A0212AA816F088FE7E492AA816F05CFF26
:1011B0000346002839D04FF0000A0DF1180B4BF808
:1011C000043B002077490AF1010A16F04DFF03465F
:1011D000002800F0A481BAF10C0FF0D1069B1A7818
:1011E000522A22D15A784B2A1FD19B78EBB96E49EB
:1011F0000798FFF76DF8C0B96C490898FFF768F8D1
:1012000098B96B490998FFF763F870B969490A986A
:10121000FFF75EF848B968490C98FFF759F820B90C
:101220000E9B1A784C2A00F0B4812368002B00F042
:101230005A812B465A4AA0212AA816F03DFE594948
:101240002AA816F011FF0346002800F0CF8006AE52
:101250004FF0000AB3464BF8043B002051490AF115
:10126000010A16F001FF0346002800F0BB80BAF126
:101270000A0FF0D133681A78522A40F0B7805A78B2
:101280004B2A40F0B3809B78002B40F0AF8046495A
:101290007068FFF71DF8002840F0A8804349B06847
:1012A000FFF716F8002840F0A1804449F068FFF7E6
:1012B0000FF8002840F09A803E493069FFF708F89F
:1012C000002840F093803C49B069FFF701F80028FE
:1012D00040F08C803A49306AFEF7FAFF002840F06F
:1012E0008580D6F81CB037495846FEF7F1FF28B183
:1012F00035495846FEF7ECFF002877D1736905A9F8
:101300000A221846029316F009FD029B82461B78BA
:10131000002B6BD0059B05A91B78002B66D10028FC
:1013200064D0736A0A221846029316F0F7FC029BF7
:1013300006461B78002B59D0059B1B78002B55D1F6
:10134000431E062B52D858461E49FEF7C1FF1F4BBD
:10135000B0FA80F01A784009002A47D11C4A126876
:10136000524543D11B4A127882423FD10121197064
:10137000194BC3F800A0194B1E60002A00F0D4815D
:10138000104A00925346164A60212AA8019616F088
:1013900093FD2AA807F0C2FE00232360B7E600BF32
:1013A00058AF01085CAF010854B001084CB1010806
:1013B000D8B001083CB0010840B00108F8B10108FC
:1013C00000B2010848B001084CB00108F90400203F
:1013D000E8040020F8040020F4040020EC040020BD
:1013E00008B20108BAF10A0F3FF444AF2B469B4AFA
:1013F000A0212AA816F060FD99492AA816F034FE0B
:101400000346002863D0002605AF47F8043F0020BC
:101410009349013616F028FE0346002855D0082EC1
:10142000F3D1069B1A78522A51D15A784B2A4ED1C1
:101430009B78002B4BD18B490798FEF749FF00287A
:1014400045D189490898FEF743FF00283FD18749D5
:101450000998FEF73DFF002839D185490A98FEF723
:1014600037FF002833D183490C98FEF731FF70BB5A
:101470000D9F81493846FEF72BFF20B17F49384642
:10148000FEF726FF18BBDDF82CB00A2205A9584646
:1014900016F044FC9BF800300646C3B1059B1B7850
:1014A000ABB9A0B174493846FEF712FF744BB0FADD
:1014B00080F01B684009B34209D1724B1B7883420C
:1014C00005D1714B01221A700DE0082EA9D06F488A
:1014D00007F00CFE6E4A236860212AA816F0ECFC87
:1014E0002AA807F01BFE0023236009F10109C84563
:1014F0007FF404AD0AE6721C9F2A02D82260AB5525
:10150000F3E76448276007F009FEEEE762492846E2
:1015100016F010FE824600287FF405AD0FE5BAF103
:101520000C0F7FF482AE59E65C494C23DFF880E172
:1015300001F10C0B0A78A3F1610CA3F12006013133
:10154000A2F12000A2F1610A5FFA8CFCF6B2C0B2EF
:10155000BCF1190F98BF3346BAF1190F98BF024674
:101560009A427FF4F4AC8B451EF8013FE2D14B4820
:10157000FFF7EAFA00232360C8E501220F201A7062
:101580001D2209F091FE002864D0454807F0AEFD09
:10159000AEE45A78312A7FF448AE9B78002B7FF472
:1015A00044AE109B1A784C2A7FF43FAE5A78322A08
:1015B0007FF43BAE9B78002B7FF437AE0B9B0A2267
:1015C00005A91846029316F0A9FB029B83461B78D7
:1015D000002B3FF42AAE059B1B78002B7FF425AE31
:1015E00000283FF422AE0F9B02935B78002B7FF420
:1015F0001CAE119B93F801A00393BAF1000F7FF486
:1016000014AE1D490D98FEF763FE002800F0878098
:101610000D981A49FEF75CFE00287FF406AE029B87
:101620001E78A6F14103032B3FF6FFAD039B18780C
:10163000A0F14103032B3FF6F8AD86423FF4F5AD30
:10164000184B197811B90E490968B9B3164807F053
:1016500065FD48E7154807F049FD49E458AF010822
:101660005CAF010854B001084CB1010838B2010860
:101670003CB0010840B0010848B001084CB0010876
:10168000E8040020F8040020E704002040B201082C
:1016900064B2010890B20108B8B001082404002027
:1016A00064B00108F904002054B1010884B00108B5
:1016B000C8B001081D4807F031FD25E501221A7068
:1016C0001E221B4B83F800A01A4BC3F800B01A4B24
:1016D0001E701A4B18700F20194B196009F0E4FDA9
:1016E000A0B1184807F002FDBAF1000F12D0164A57
:1016F0005B46602100922AA8144A16F0DDFB2AA856
:1017000007F00CFD124807F0F1FC45E6114807F020
:10171000EDFCE9E7104AEBE74FF0010B9DE44FF0D9
:10172000010A7CE70C49E2E40B4A2AE6ECB0010826
:10173000F8040020F4040020F1040020F00400204C
:10174000EC0400206CB1010848B00108B0B10108F8
:10175000D8B101088CB101084CB001085F4BB9EE5B
:10176000007AD3ED007AF4EEC77AF1EE10FA00F1C8
:101770009F80B1EE007ADFED5A6AF4EEC77AF1EE9F
:1017800010FA37FE277AF0EEC77AF4EEE67AF1EE39
:1017900010FA40F28A80B5EEC07AF1EE10FA40F30A
:1017A000998037EE667AF9EE007AD3ED016AF4EEAD
:1017B000E76AF1EE10FA00F18480F1EE007A9FED15
:1017C000486AF4EEE76AF1EE10FA77FEA67AF0EED8
:1017D000E76AF4EEC66AF1EE10FA75D9F5EEC07A52
:1017E000F1EE10FA73DD77EEC67A61EEA75A90ED4E
:1017F000006A61EE277AD0ED016A9FED3A5AE1EE78
:10180000075AE1EEC77AA5EE826AE7EE826A76EEC3
:10181000407AF4EEC57AF1EE10FA4FD49FED327AA9
:101820009FED2F6AF4EEC77AF1EE10FA37FE277AB1
:1018300027EE066A76EEE07A9FED2A7AF4EEC77A12
:10184000F1EE10FA37D49FED287ADFED256AF4EE39
:10185000C77AF1EE10FA77FE277A67EEA67A30EEB5
:10186000067ADFED226AB0EEC00A70EEA77A80ED4C
:10187000007AB4EEE60AC0ED017AF1EE10FA13D860
:10188000F0EEE00AF4EEE60AF1EE10FA0CD8184B8E
:10189000D3ED007AF0EEE77AF4EEE67AF1EE10FAA4
:1018A00002D800230360436070479FED127A7AE705
:1018B0009FED117A77E7DFED117AD0E79FED0F6AA0
:1018C000B8E7DFED0D7A90E7DFED0A7A8DE777EE86
:1018D000867A8AE737EE267A65E700BF7C05002026
:1018E0000AD7A33D9A9919BE9A99193E0AD7A33CE3
:1018F000A80500200000000048E17AC0A69B44BC77
:10190000F8B50B780E460746F3B101380D4602E0F4
:1019100015F8013FC3B110F8012FA3F16101A3F144
:10192000200EA2F1200CA2F16104C9B25FFA8EFE72
:101930005FFA8CFC192998BF7346192C98BF624630
:101940009A42E5D00020F8BD3046FEF7CBFC385C6B
:101950002C2818BF00280CBF01200020F8BD00BFB4
:101960002DE9F047D4B0802104A80BF06FFB28B319
:1019700004AC464DDFF8448100272618DFF840917B
:1019800007E0501C9F281CD8286008F80230A642A7
:1019900014D014F8013B2A680D2B06D0A3F10A01DC
:1019A000B1FA81F149090029EBD008F8027012B1AF
:1019B000D9F800303BB9A6422F60EAD154B0BDE857
:1019C000F0872960E3E732480DF10B0203A9FFF726
:1019D0006BF920B1039BD9F80020934227D00DF179
:1019E0000B0203A92B48FFF75FF920B1039BD9F83D
:1019F000002093422CD00DF10B0203A92648FFF7DB
:101A000053F90028D7D0039BD9F800209342D2D1B4
:101A100022499DF80B2009788A42CCD12049012027
:101A20000870002A2FD01F4A00921B4A1DE01B4A53
:101A30009DF80B1012789142D1D11B49097811B948
:101A40001A4901200870D2B1164A0092104A0CE0DF
:101A5000124A11789DF80B208A42CCD114490120FA
:101A6000087072B10F4A00920A4A0192C021114ACD
:101A700024A816F021FA24A807F050FB9BE70E4A91
:101A8000E3E70D4AEFE70C4ACEE700BF2004002051
:101A9000BCB20108FCB2010838B20108CD04002034
:101AA000CA04002048B00108C9040020CC0400206A
:101AB000CB040020C4B201084CB001088003002010
:101AC000D00400202DE9F04104460138504E522345
:101AD00004F11E08054615F8012FA3F1610EA3F1CC
:101AE000200CA2F12001A2F161075FFA8EFE5FFADD
:101AF0008CFCC9B2BEF1190F98BF6346192F98BF6D
:101B00000A469A420DD1454516F8013FE3D101231B
:101B10004049414A0B7041481370BDE8F04107F05D
:101B2000E5BA3F4E04F110080546522315F8012F7F
:101B3000A3F1610EA3F1200CA2F12001A2F1610733
:101B40005FFA8EFE5FFA8CFCC9B2BEF1190F98BF26
:101B50006346192F98BF0A469A420BD1454516F89D
:101B6000013FE3D12F4B00222F481A70BDE8F0410E
:101B700007F0BCBA2D4F04F10F080646522316F8A1
:101B8000012FA3F1610CA3F12005A2F12001A2F124
:101B9000610E5FFA8CFCEDB2C9B2BCF1190F98BFAF
:101BA0002B46BEF1190F98BF0A469A4208D1B0459C
:101BB00017F8013FE3D11E48BDE8F04107F096BA9F
:101BC0001C4E0B34522310F8012FA3F1610CA3F12A
:101BD0002005A2F12001A2F161075FFA8CFCEDB2B1
:101BE000C9B2BCF1190F98BF2B46192F98BF0A46EE
:101BF0009A420BD1A04216F8013FE4D1064B0122D4
:101C00000D481A70BDE8F04107F070BABDE8F081E8
:101C100004B30108790500207A0500208CB301087F
:101C2000B4B301086C05002060B3010878B3010863
:101C300038B3010850B3010824B301082DE9F04777
:101C400090B00BF0A3FF404B1B7823B93F4A1368B9
:101C5000C31AF92B66D8402168460BF0F7F9F0B1AA
:101C60006C463B4E3B4D271806E0501C5F2819D8A8
:101C70003060AB54BC4212D014F8013B32680D2BDB
:101C800006D0A3F10A01B1FA81F149090029ECD08B
:101C90000023AB545AB90023BC423360ECD110B0DE
:101CA000BDE8F0872C48316007F06CFAE2E72B487A
:101CB00007F01CFA284607F019FA294807F016FA27
:101CC000284B1A780F2A06D01B78072B03D02846FA
:101CD000FFF7F8FEDFE71F494C23DFF8A48001F18E
:101CE0000C0A0A78A3F1610EA3F120000131A2F1E0
:101CF000200CA2F161095FFA8EFEC0B25FFA8CFC83
:101D0000BEF1190F98BF0346B9F1190F98BF62468B
:101D10009A42DCD18A4518F8013FE2D10D48FEF71E
:101D200013FFB8E71049114B10600A781B7822B9ED
:101D300033B10F4807F0F2F98DE71BB10D48F9E711
:101D40000D48F7E70D48F5E7780500206805002005
:101D5000FC0400200005002008B40108F8B30108C5
:101D600004B40108C00500206C0500206D050020AA
:101D7000C8B3010820AF0108E0B301083CAF010877
:101D8000C8B0010830B59FB00BF000FF294B0446E6
:101D90001B78E3B12849294B0A78EAB12849294D33
:101DA0000A68A21AB2F5967F2AD2274B1B6843B95C
:101DB000264B1B68002B36D1254B1B780BB9FFF740
:101DC0003DFF2878003818BF01201FB030BD1A49E8
:101DD000204B0A78002AE1D101201A4D05930870A2
:101DE000A4F5967016492A7008601B48049107F004
:101DF000C9F9DDE904130A68A21AB2F5967FD4D3B3
:101E00000C604FF416724FF4AF7106A8CDE90121B2
:101E100040F28A21114A0091602116F04DF806A87F
:101E200007F07CF9C1E70E4B1B78002BC9D1FFF7F7
:101E30004FF8C6E76D0500207805002048B001087E
:101E40007405002079050020DC040020E80400204F
:101E50006F0500204CB001082CB4010858B40108EB
:101E6000E6040020144B1B6810B5044682B03BB951
:101E7000124B1B688BB9124B1B780BB9FFF7DEFEB8
:101E800008F0ECF918B9019008F0EEF960B92046B5
:101E900002B0BDE8104007F073BF0A4B1B78002B5F
:101EA000EED1FFF715F8EBE7FEF710FD064A092122
:101EB0000198116002B010BDDC040020E80400208D
:101EC0006F050020E6040020BC050020154B1B68B0
:101ED00000B583B03BB9144B1B68A3B9134B1B78F7
:101EE0000BB9FFF7ABFE08F0B9F918B9019008F08B
:101EF000BBF978B90BF04AFE07F0B2FE03B05DF80B
:101F000004EB07F06DBF0A4B1B78002BEBD1FEF7FB
:101F1000DFFFE8E7FEF7DAFC064A092101981160C5
:101F200003B000BDDC040020E80400206F050020A1
:101F3000E6040020BC050020F8B50E46174604460E
:101F40000BF024FE0546FFF71DFF154B1B78D3B998
:101F5000304607F017F909E0FFF714FF98B9FFF7CB
:101F6000B5FF034601209BB10BF016FE0BF00EFEF1
:101F7000401BA042F0D30B4807F004F90A4B08229B
:101F80001A600020F8BD384607F0FCF80120F8BDC3
:101F9000054B1A68092AF4D005221A60F1E700BF40
:101FA0007905002094B40108BC0500202DE9F04F0C
:101FB000ADF54B7D82460BF0E9FDA74B05901A6805
:101FC00012F1010900F0C5814A46DFF8E0B240F69F
:101FD000B8381A609BF80030059A002B9F4BA2F18D
:101FE000C801A2F10A021B7808BF4FF4E16807910B
:101FF0000692002B00F0AB81994C9A495046FEF7AF
:1020000067F94EF6602347F230524021CDE9009443
:102010000024A04208BF1A46934B1AA81C70934B89
:1020200009921C705346924A15F046FF5346914A56
:1020300040212AA8CDF8009015F03EFF53468E4A65
:1020400040213AA8CDF8009015F036FF53468B4A50
:1020500040214AA8CDF8009015F02EFF5346884A3B
:1020600040215AA8CDF8009015F026FF5346854A26
:1020700040216AA8CDF8009015F01EFF5346824A11
:1020800040217AA8CDF8009015F016FF53467F4AFC
:102090006021B2A8CDF8009015F00EFFB2A807F0AD
:1020A00071F80BF073FD059B054604940893069B9D
:1020B000CDF80C90EB1A092B40D8079BEB1AC72BD5
:1020C00046D800270DF12809402148460AF0BEFFF6
:1020D00000B309EB00064D46204609E0421C5F2A8A
:1020E00044D80DEB0004104684F86832B54210D095
:1020F00015F8013B0D2B01D00A2BEFD10DEB00039E
:10210000002283F86822002834D1B5424FF0000045
:10211000EED104460BF03AFD002F40F0F880059B0D
:10212000C01A404580F0348101200BF035FD0BF0E2
:102130002DFD069B0546EB1A092BBED9FFF7C6FEFF
:10214000002800F06881079B0695EB1AC72BB8D9C9
:102150001AA806F0E3FF53464D4A6021B2A815F0D5
:10216000ABFEB2A806F0C2FF0795AAE7494807F000
:1021700009F8CAE7484806F0B9FF9AA806F0B6FF82
:10218000464806F0B3FF9AA8FFF79CFC40F6B83328
:102190009BF800203AA943459AA838BF4346002A35
:1021A00018BF9846FFF7ACFB0446002800F080807B
:1021B000002F00F0A880039B6021394AB2A8009349
:1021C000534615F079FEB2A806F0DCFF4AA99AA89A
:1021D000FFF796FB002872D17AA99AA8FFF790FB27
:1021E0000746002840F0B8806AA99AA8FFF788FB44
:1021F00080B142F6E06398450AD0039B6021294AEA
:10220000B2A80093534615F057FEB2A806F0BAFFE5
:1022100042F6E068DCB19AA85AA9FFF771FB08B949
:10222000274663E70BF0B2FC039BA0F1C8041E4AEB
:102230006021009305905346B2A8079415F03CFE28
:10224000B2A806F09FFF40F6B83800230493B542C9
:1022500000F0948000204BE7640500206D0500200D
:1022600048B00108BCB401087105002070050020C9
:10227000C8B40108E8B4010800B5010818B50108A0
:1022800030B5010848B5010860B5010878B5010806
:1022900004B601080CB70108F8B3010804B401083A
:1022A0001CB60108C4B60108E0B601087A05002092
:1022B0004AA99AA83C46FFF723FB00288CD059492D
:1022C0005046DDF80C90FEF703F800285AD1564925
:1022D0009AA815F02FFF011E18BF0121534C534639
:1022E000534AB2A8CDF800902170602115F0E4FDAA
:1022F000B2A806F047FF2378002B45D101200DF549
:102300004B7DBDE8F08F0BF041FC049053E70120BA
:102310000BF042FC0BF03AFC049B099A0546C31AE9
:1023200093424CD2069BEB1A092B0AD8089BEB1A56
:10233000B3F57A7FFFF4C8AE2AA806F0EFFE089541
:10234000C2E6FFF7C3FD002865D00695EEE7394CDD
:1023500053E60122914638E6DDF80C905346364AA2
:102360006021B2A8CDF8009015F0A6FDB2A806F045
:1023700009FF324B0A221A600020C0E700240BF04C
:1023800005FCCCE60021A9E72D4806F0FBFEB5E7E9
:10239000DDF80C9053462B4A6021B2A8CDF800908E
:1023A00015F08AFDB2A806F0EDFE00210122234BB4
:1023B0008BF800101D490A7008221A60DCE7DDF86E
:1023C0000C905346204A6021B2A8CDF8009015F039
:1023D00073FDB2A806F0D6FE53461C4A40218AA8D7
:1023E000CDF8009015F068FD8AA806F097FE8AA83F
:1023F00006F094FE5346164A6021B2A8CDF800902C
:1024000015F05AFDB2A806F0BDFE0123074A13706D
:10241000104A137072E7094B1A68092AACD00522DA
:102420001A60A9E7BCB4010834B6010871050020A0
:1024300048B601084CB00108A0B60108BC05002050
:1024400064B6010828B7010894B50108B8B50108B9
:10245000D0B50108700500202DE9F04FADF5617D84
:102460000C4607900BF092FBA54B0C901A6812F1EA
:10247000010800F096814246DFF8C8A240F6B8375E
:102480001A609AF800209F4B002A0C9A1B78A2F140
:10249000C801A2F10A0208BF4FF4E1670A9109924C
:1024A000002B00F07B81984B0D93002C00F04C81A9
:1024B0000D9BC0A8954A8021009302230F900193A1
:1024C000434615F0F9FC38A84346914A6021049030
:1024D00015F0F2FC50A843468E4A6021059015F095
:1024E000EBFC68A843468C4A6021069015F0E4FC9A
:1024F00020A84346894A60210E9015F0DDFC884BE8
:102500000893079B8021874AA0A802930D9BCDE9E1
:102510000083089B15F0D0FCA0A806F033FE0BF05A
:1025200035FB002304461D460B93099BE31A092B38
:102530003DD80A9BE31AC72B43D810AE4021304642
:102540000AF084FD8346002800F044814FF0000922
:102550000024284608E0421C7F2A45D880A90B5455
:10256000104601345C450DD2335D0D2B01D00A2B92
:10257000F1D1002380AA1354002839D1013400205E
:102580005C45F1D305460BF001FBB9F1000F7ED19C
:102590000C9BC01A874240F2248101200BF0FCFA08
:1025A0000BF0F4FA099B0446E31A092BC1D9FFF793
:1025B0008DFC002800F03F810A9B0994E31AC72B89
:1025C000BBD90F9806F0AAFD079B574A80210293BA
:1025D000A0A80D9BCDE90083089B15F06DFCA0A879
:1025E00006F084FD0A94A8E7504806F0CBFDC5E745
:1025F0004F4806F07BFD80A806F078FD4D4806F0B8
:1026000075FD80A8FFF75EFA40F6B8339AF800200F
:1026100080A80499002A18BF1F46FFF771F90546E4
:1026200078B1B9F1000F2ED0079B8021424AA0A8B3
:10263000A946CDE90083089B15F03EFCA0A806F052
:10264000A1FD059980A8FFF75BF9002840F0AC8058
:1026500080A80699FFF754F9002882D00799A0A80E
:10266000089B364ACDE90081802115F025FCA0A801
:1026700006F088FD324B0A221A60002528460DF527
:10268000617DBDE8F08F0BF081FA0B90CCE7012063
:1026900047F22F540BF080FA0BF078FA83460B9B2D
:1026A000099AABEB0303ABEB0202A34200F2B0804A
:1026B000092A1CD80A9BABEB0303B3F57A7F10D22F
:1026C000402130460AF0C2FC834600287FF440AF28
:1026D0000BF05CFA01200BF05FFA0BF057FA83461F
:1026E000DDE70E9806F01AFDCDF828B0E8E7FFF711
:1026F000EDFB002800F09F80CDF824B0DAE700BFA2
:10270000640500206D05002048B0010860B701088D
:1027100098B70108C4B70108F0B7010814B8010858
:1027200054B70108B4B8010824B90108F0B9010888
:10273000F8B3010804B4010860B90108C0B9010880
:10274000BC0500207A050020079BC0A83E4A8021D6
:1027500001930D9B0F900093434615F0ADFB38A8F5
:1027600043463A4A6021049015F0A6FB50A8434620
:10277000374A6021059015F09FFB68A84346354A0B
:102780006021069015F098FB20A84346324A60214C
:102790000E9015F091FB314B0893B2E6304B0D9340
:1027A00083E60122904667E6079B05462D490020F7
:1027B00001932D4A089BCDF8008008708021A0A8C5
:1027C00015F07AFBA0A806F0DDFC28460DF5617D2A
:1027D000BDE8F08F0BF0DAF90C9BC31ABB42FFF493
:1027E000DCAEDDE907238021A0A80192CDF80080AE
:1027F0001E4A15F061FBA0A806F0C4FC194A01218D
:1028000000201B4B117008228AF800001A6034E780
:102810000799A0A8089B174ACDE90081802115F0EF
:102820004BFBA0A806F0AEFC0E490120104B08227D
:1028300008701A6021E70E4B1A68092A3FF41DAF91
:1028400005221A6019E700BF38B801086CB8010802
:1028500090B80108F0B7010814B801084CB7010896
:102860004CB001087105002090B9010818BA0108A0
:10287000BC050020F0B801082DE9F04FADF5077D4B
:1028800083460BF083F9A34B05901A6812F1010AF5
:1028900000F0DE805246DFF8EC8240F6B8361A606F
:1028A00098F80030059A002B9B4BA2F1C801A2F1C9
:1028B0000A021B7808BF4FF4E16603910492002BD3
:1028C00000F0C480954B0027954A402116A8CDE919
:1028D00000A3944B1F705B4615F0EEFA5B46924ADC
:1028E000402126A8CDF800A015F0E6FA5B468F4AF5
:1028F000402136A8CDF800A015F0DEFA5B468C4AE0
:10290000402146A8CDF800A015F0D6FA5B46894ACA
:1029100060216EA8CDF800A015F0CEFA6EA806F0E2
:1029200031FC0BF033F9049B0446C31A092B76D80B
:10293000039BE31AC72B7BD8402106A80AF086FB2D
:1029400000285BD006AC251809E07A1C5F2A5FD806
:102950006F4487F8583117460134AC424ED0237883
:102960000D2B08D0A3F10A09B9FA89F94FEA5919D0
:10297000B9F1000FE9D04FF000090DEB070383F820
:102980005891002FE8D06C4806F0B0FB56A806F02E
:10299000ADFB6A4806F0AAFB56A8FFF793F840F68D
:1029A000B83398F8002026A9B34256A838BF33465A
:1029B0004A4518BF1E46FEF7A3FF00284BD146A983
:1029C00056A8FEF79DFF0746002860D156A836A9F5
:1029D000FEF796FF08B342F6E0694E45BCD05B4671
:1029E000574A60216EA80134CDF800A015F064FAB2
:1029F0006EA806F0C7FBAC424E46B0D10BF0C6F84D
:102A0000059BC01AB04269D201200BF0C5F888E7D7
:102A10004C484F4606F0B6FB9EE707469CE7FFF79B
:102A200055FA00286FD0039B0494E31AC72B83D96F
:102A300016A806F073FB5B46434A60216EA815F0AA
:102A40003BFA6EA806F052FB039475E73F4B3AE75A
:102A5000012292461FE7334B07463D49584683F80B
:102A600000903C4BC3F800A0FDF732FC18B35B4666
:102A7000394A60216EA8CDF800A015F01DFA6EA8A5
:102A800006F080FB38460DF5077DBDE8F08F5B460C
:102A9000324A60216EA8CDF800A015F00DFA6EA89C
:102AA00006F070FB2E4B0A221A60002738460DF5FF
:102AB000077DBDE8F08F184B1A782A4BC3F800A0A9
:102AC000294B1A70294B1870294B1870294B187014
:102AD000294B1870294806F055FBC8E75B46284A81
:102AE00060216EA8CDF800A015F0E6F96EA806F0FA
:102AF00049FB002101221A4B88F8001009490A708D
:102B000008221A60D1E7164B1A68092ACDD005228F
:102B10001A60CAE7640500206D05002048B001086E
:102B2000C8B401087105002000B5010848B50108C6
:102B300060B5010850BA0108F8B3010804B40108EF
:102B400004BB01080CB7010870BA01084CB00108B9
:102B50002CB0010860050020BCBA0108DCBA0108ED
:102B6000BC050020D0040020CD040020CC040020AF
:102B7000CB040020CA040020C904002090BA010838
:102B800028BB01087A0500202DE9F04FDFF84082CC
:102B9000F5B007460AF0FAFFD8F80030002B00F035
:102BA000AD808146A0F1C80B0A38754A40210093D8
:102BB00003903B4614A8002415F07EF9D8F80030A5
:102BC000704A4021009324A83B4615F075F9D8F8C7
:102BD00000306D4A4021009334A83B4615F06CF953
:102BE000D8F80030694A602100935CA83B4615F094
:102BF00063F95CA806F0C6FA0AF0C8FF039B054615
:102C0000C31A092B63D8A5EB0B03C72B68D8402147
:102C100004A80AF01BFAE8B104AD05EB000A07E0CE
:102C20005F290C4622D8013500F8C02C554511D03B
:102C30002A7804F5E873611C00260D2A0DEB0300C9
:102C400001D00A2AECD100F8C06C9CB901350024EF
:102C50005545EDD10AF09AFF43F69723A0EB090002
:102C6000984276D801200AF097FFC5E7484806F059
:102C700089FAEBE7474806F039FA44A806F036FA35
:102C8000454806F033FA44A8FEF71CFF24A944A8DF
:102C9000FEF736FE044634A944A8002C35D1FEF7D1
:102CA0002FFE0028D2D0D8F800003B463B4A6021D6
:102CB00000905CA815F000F95CA806F063FA384BA8
:102CC0000A221A600024204675B0BDE8F08FFFF795
:102CD000FDF800284DD0A5EB0B030395C72B96D923
:102CE00014A8AB4606F01AFA3B462E4A60215CA8AF
:102CF00015F0E2F85CA806F0F9F988E72A4806F032
:102D000041FA274B0A221A60DCE7D8F8003060212C
:102D1000264A5CA800933B4615F0CEF85CA806F066
:102D200031FA23493846C8F80060FDF7D1FA002887
:102D3000C9D1204B204A1870204B106018702049D0
:102D4000204A214B087010701870204675B0BDE8FD
:102D5000F08FD8F800003B461C4A602100905CA828
:102D600015F0AAF85CA806F00DFA0D4B08221A60BF
:102D7000A8E70B4B1A68092AA4D005221A60A1E71C
:102D8000B8B5010818B5010860B5010878BB01089D
:102D90000CB70108F8B3010804B40108D0BB01085E
:102DA000BC05002098BB010850BB0108B0BB01085E
:102DB0002CB00108CD040020D0040020CB0400205A
:102DC000CC040020CA040020C9040020F8BB01087C
:102DD000600500202DE9F04FADF53F7D07460D461B
:102DE00016460AF0D3FE8F4B04901C68013420D0A5
:102DF00022461A608C4B1B78CBB18C4A47F2305379
:102E00009E4298BFB5F57A7F07D8B7F1030A18BF7D
:102E10004FF0010ABAF1000F0ED0854B06221A605E
:102E20004FF0000948460DF53F7DBDE8F08F814A1F
:102E3000E4E701221446DCE7049F4FF00309234630
:102E4000A021C83F009296A87B4ACDF80490059730
:102E5000049FCDE9025615F02FF82346774A40210A
:102E600006A8A7F10A0815F027F82346744A40215E
:102E700016A815F021F82346724A402126A815F01D
:102E80001BF82346704A80214EA8CDF80090CDE96A
:102E9000015615F011F84EA806F074F90AF076FE06
:102EA000A0EB08030446092B00F2A08057460DF161
:102EB000D80B059BE31AC72B00F28B806021584684
:102EC0000AF0C4F88246002800F0938000265C4691
:102ED000002509E0791C9F294BD86EA8C2550F46E2
:102EE0000135013455450ED222780D2A01D00A2A27
:102EF000F0D100226EABDA55002F3ED1013500270C
:102F000001345545F0D30AF041FE16BB049BC01AAC
:102F100040F6B733984276D8012000260AF03CFEEE
:102F20000AF034FEA0EB08030446092BC1D9FEF7D2
:102F3000CDFF00286ED0A0460DF1D80B002EB8D0E2
:102F4000602158460AF082F882460028BFD10AF074
:102F50001DFE801B41F2873398424DD801200AF0B4
:102F60001BFE0AF013FEA0EB08030446092BE7D969
:102F7000DDE7364806F006F9C0E7354806F0B6F852
:102F80006EA806F0B3F8334806F0B0F806A96EA8AC
:102F9000FEF7B6FC50B1002EB0D10AF0F7FD814625
:102FA0002D48374606F0A2F84E4699E716A96EA8B6
:102FB000FEF7A6FC814688B96EA826A9FEF7A0FCFC
:102FC00000289BD0254806F0DDF8194B0A221A602C
:102FD00026E796A806F0A2F805946FE7204806F0C9
:102FE000D1F848460DF53F7DBDE8F08F564657466F
:102FF0009DE70AF0CBFD89E71A4806F0C3F80C4BB1
:1030000008221A600CE7184806F0BCF8084B0822A2
:103010001A6005E7064B1A68092A3FF401AF05223A
:103020001A60FDE6640500206D05002048B0010827
:10303000BC0500204CB001081CBC010860BC0108A4
:103040007CBC010898BC0108B4BC010834BD01086F
:10305000F8B3010804B40108F0BC010818BD010868
:1030600004BD010874BD010858BD0108F8B5074644
:103070000AF08CFD0646A0F10A050BE00AF086FD79
:10308000431B092B03D90546FEF720FF40B1012061
:103090000AF082FD0AF07AFD801BB842EED3F8BD3B
:1030A000044B1A68092A01D005221A60024B072234
:1030B0001A70F8BDBC050020C00500202DE9F04FB6
:1030C00000232DED108BE5B09FED979AB0EE408A6E
:1030D0001993F0EE608A8DED129A8DED139A8DEDB5
:1030E000149ACDE91A33CDE91C33CDE91E33CDE96D
:1030F0002033CDE917338D4BD3ED00EA0AF046FDBE
:10310000F0EE492ADFED981AB0EE492A23AA0123EE
:1031100004908DED229A07EE903AF0EE480A16A937
:1031200015A8B8EEE70A013320EE210AFDF78CFB63
:10313000F0EE627ADDED162AB0EE427A9DED152AA8
:10314000412B72EEE77A52ED016A32EE477A67EE72
:10315000A77AE7EE077AB1EEE77A77EE267AE2EC25
:10316000017AD8D19DED62BA9FED71CAB4EECCBAA6
:10317000F1EE10FA08D86F4B062200201A6065B0F5
:10318000BDEC108BBDE8F08FDFED67AA6A4B9FEDB9
:103190006B7AB0EE6A9AC3ED00AAF0EE6ABA684B99
:1031A00068EE878ADFED677AB0EE6AAAC3ED00AAFF
:1031B000F0EE6A9A644B68EEA77A9FED64FAF0EE3F
:1031C0006ADAC3ED00AAB0EE6ADA614B28EE0F7A34
:1031D000049EF0EE6ACAC3ED00AA5E4B3746CDED01
:1031E000087A7EEEA77AC3ED00AAA6F1FA038DED68
:1031F000027AB0460693CDED077AFEF7C3FD0023B1
:1032000001220A93059209930AF0C0FC0646FEF7D4
:10321000B9FD049A42F22733B21A9A4200F241836E
:10322000F31B092B40F2BE83A6EB08030A3707EE17
:10323000903AF31BF8EE677A092B88BF374667EEA2
:103240008C7AF4EECC7AF1EE10FA00F18983DFED9E
:1032500042FAF4EEEF7AF1EE10FA7FFEA7FAB0EE42
:103260006F0AFDF77BFB14AB12AA1EA9009313ABE8
:103270003A4806F055FC8046002800F0D183DFF87C
:10328000E0B0DBED007A77EEEE8AB0EE680A13F07C
:1032900093FDB0EE40FAB0EE680A13F08DFC9DEDA0
:1032A000137ADDED127AF0EE401A67EE006A9DF8AF
:1032B000643027EE0F7AE7EE8F6AA0EE677AB0EE01
:1032C00066EAF0EE478A002B00F05283B0EE6F2AD8
:1032D00017A8B0EE4F1AF0EE470AB0EE660AFEF7F6
:1032E0003DFA9DED17EADDED188A89EE8B6AB5EEA1
:1032F000C06AF1EE10FA00F13683F7EE002AB4EE60
:10330000E26AF1EE10FAF5EEC09A32FE866AF1EE4C
:1033100010FA40F28983F4EECB9AF1EE10FA5ADA01
:1033200023AA012332E000BF000000008C0500202A
:103330006F12833ABC050020A8050020DA0FC93FB0
:10334000A405002080B7803F980500203333333F29
:103350009405002090050020CDCC4C3D70D701088D
:10336000AC050020BD3786350000803CCDCCCC3E7E
:103370009A99193F3333B3BE9A9919BE33335BC060
:10338000AE47613F0133412B00F04783D2ED007A15
:103390000432F4EEE79AF1EE10FAF3D8013B1FED98
:1033A0000F5A0DEB8302D2ED225A77EEE57AF4EE56
:1033B000C57AF1EE10FA40F3078379EEE55A85EE0F
:1033C000A75A07EE903AF8EEE72A5FED197A72EE07
:1033D000852A62EEA72AF0EE480A16A9B0EE620A24
:1033E00015A88DED036AFDF72FFAF7EE005A5FED91
:1033F000217AF0EE084A1FED224A28EE275A1FEDE7
:10340000237A75EEE25A9DED023AF1EE087A9DEDCF
:10341000036AA8EE443A65EEA43A65EEA77A62EE36
:10342000A44A63EEA53AF0EE455A67EEA27A64EE3E
:10343000A24AD8EE045A65EEA75A67EE877A1FEDC6
:10344000327AE5EE235A1FED335AE3EE877AE4EE43
:10345000835AE4EE857A25EEA55AA7EEA75AF1EE37
:10346000C53AF4EECC3AF1EE10FA40F2D982C5EE4C
:10347000A34A5FED3D5AE54BD3ED002A87EEA34A00
:10348000DFEDE33A68EEA33A6EEE255A7BEE697AF9
:10349000A3EEAFDAE5EEAFCA23EEA43AA5EE843A86
:1034A00063EE843AE4EEE53AF0EE625AB0EEC35AC7
:1034B000E3EE2FDAE5EE2F5AC3ED005A7BEE6D5A9C
:1034C000F4EEE5AAF1EE10FAF4EEE7AA3AFEA50A48
:1034D000F1EE10FA7AFEA77AF4EEC07AF1EE10FA65
:1034E00030FE270AB5EE400AF1EE10FA00F1BB8279
:1034F000F1EEC07ADFEDC72AF4EEE72AF1EE10FA1A
:1035000077FEA27AB4EEE7AAF6EE002AF1EE10FA00
:103510006FEEA22A40F10A827AEE222AF4EEE72A1E
:10352000F1EE10FA37FEA2AAEAEE2F9ADFEDBA7A90
:10353000F4EECB9AF1EE10FA7BFE299A79EEED2AA1
:1035400062EEA72AFDEE007AF4EEE72AF1EE10FA19
:1035500007D4F5EE007AF4EEE72AF1EE10FA77FEE2
:10356000A27A7AEE277AFDEE002AF4EEE27AF1EE04
:1035700010FA00F10E82DFEDA72AF4EEE27AF1EE06
:1035800010FA72FEA77A37EEC33ADFEDA42A63EE93
:10359000222AE2EEAFBAFDEE002AF4EEE2BAF1EE34
:1035A00010FA00F1F381F5EE002AF4EEE2BAF1EE42
:1035B00010FA72FEABBADFED9A2AE3EE227AFDEE44
:1035C000002A77EEAB7AF4EEE27AF1EE10FA07D445
:1035D000DFED902AF4EEE27AF1EE10FA72FEA72AFD
:1035E000DDED167A9DED152A7DEE677ADFED8D0A09
:1035F0003CEEC22A8C4B67EE847AC3ED002AE4EEDF
:10360000C27A9FED8A2AB0EE673ADFED897A67EEDB
:10361000E37AE3EE027AF4EEE07AF1EE10FA07D400
:10362000DFED840AF4EEE07AF1EE10FA70FEA70AFC
:10363000814BDDED027A83ED003A9FED803A37EE63
:10364000CD2A7F4B33EE6C3AC3ED000A62EE027A6C
:103650007C4BB5EEC03AC3ED003AF1EE10FA00F142
:10366000778177EEAA7AB0EE6A3AF1EEE73ADFEDCB
:10367000767AB4EEE76AF1EE10FAC0F26081DFED1F
:10368000737AF4EEE73AF1EE10FA05D9F4EECC3A9B
:10369000F1EE10FA00F39B81DFED6D0AF0EE6A7A2D
:1036A000B0EE603A604BC3ED007AF7EE004A9DED54
:1036B000087A82EE8B4A674BB4EEE46AB0EE001AE9
:1036C000F0EE082AF1EE10FAF1EE087A21EEE00AA7
:1036D00034FE862AE2EE412A74EEC64A22EE022A1F
:1036E00066EE277A60EE8F0AA3EE0F0A62EE822A58
:1036F0009FED592A67EEA47AF0EE6E4AE3EE210AB6
:10370000E7EE224A67EE272ADBED007A93ED003AD6
:1037100074EEE77A67EE827AE2EE847A9FED4F4AA2
:10372000E3EE447A9FED4E4AF4EEC47AF1EE10FADD
:1037300000F12981F4EEC27AF1EE10FA72FE277AD6
:103740009FED484A6FEE84FA39EE6F4AB4EEE74ACD
:10375000F1EE10FA00F3148179EE2FFAF4EEEF7A1D
:10376000F1EE10FA3FFEA79A3F4A9DED077A82EDEF
:10377000009A3E4ADBED007AC2ED004ADFED324AA4
:1037800077EE677AB4EEE46AF0EEE77AF1EE10FADB
:1037900080F2AE80F0EEE55A9FED357AF4EEC75A2E
:1037A000F1EE10FA00F2B7809FED287AB4EEC75A16
:1037B000F1EE10FA00F2AF809FED2E7AF4EEC77AA8
:1037C000F1EE10FA0AD8D3ED007A9FED2B7AF0EEE5
:1037D000E77AF4EEC77AF1EE10FA0DD9124BC3ED89
:1037E00000AA174BC3ED00AA0A9B002B00F0E08053
:1037F000CDF828804FF00008B0EE491A1AA91F48EA
:1038000006F016F9002800F00B8139E0A005002031
:103810009A99B93F3333B33F9A99993FCDCC4C3FF6
:103820003333B33E9A9999BEA80500209A9919C0DE
:10383000AE47613E9A99993E9805002033337BC08C
:1038400094050020900500209A99593F8FC2F53CBD
:1038500000000000B0050020CDCC0C40CDCC4C3E8B
:10386000CDCC0CC033337340A40500208C05002060
:103870006F12033C0AD7A33C0AD7233D70D7010837
:103880001AA8FEF7EFFA002800F0DA800AF07EF9B5
:103890001EA906F0C3FAA0B9059B5BB9844805F0E0
:1038A00071FC844B05221A60002065B0BDEC108BC2
:1038B000BDE8F08FCDE91E00CDE920007E4805F07F
:1038C00061FC069BF31AF92B66D807F0D7FFB8F115
:1038D000000F09D0099B002B68D0F31A3B2B4FF047
:1038E000000300F2B38009930023B04605938BE4F4
:1038F0009FED726AF4EEC63AF1EE10FA0BD828EE9C
:10390000A87AAEEE0E7AF1EEC76AF4EEC66AF1EE70
:1039100010FA7FF651AF9FED6A7AF4EEC77AF1EEB6
:1039200010FA1AD81B684FF0000865E77AEE622A91
:10393000F4EEE27AF1EE10FA37FEA2AAF4E524EEF4
:10394000E03A60EE840AA4EE223AE4EEA20AACE683
:10395000E3EE037AB1EE433A87E64FF000084BE717
:10396000F0EE4CFA7BE4B0EE6A6AF0EE6A2A32E5D9
:103970000123CDED176A8DED187A8DF86430B4E42B
:10398000B0EE449AF0E6F0EE447AD9E6F0EE62BA90
:1039900011E6F0EE627AF6E51EA93046FDF788F8EA
:1039A000069692E701200AF0F7F82DE409969BE7C6
:1039B0004448CDED0A0A8DED030A05F0E3FBDDED89
:1039C0000A0A9DED030A13E7B0EE6A5AF9E4DFED47
:1039D0003E0ADFED3E7A62EE200A9FED3D4A23EE7D
:1039E000273A60EEA04AE3EE034AF1EEE47AF4EE01
:1039F000C47AF1EE10FA1ADCDFED364AF4EEE47A1E
:103A0000F1EE10FA7FF54EAE84EEA74AF0EE647A3E
:103A100023EE043A60EE840A44E6F7EE002ADAE484
:103A2000244B06221A603FE7DFED2B2AD3E4C4EED5
:103A3000274AF0EE447A23EE243A60EEA40A31E6F7
:103A40001C4B1A68092A7FF42DAF2DE7234ADDEDC0
:103A5000077AC2ED007A224A1360224A1360FEF709
:103A600035FAFFF78CBBCDED111A8DED106ACDED57
:103A70000F5ACDED0E3A8DED0D3ACDED0C4A8DED90
:103A80000B4A8DED035A13F06DF8DDED111AF0EECF
:103A9000407A9DED106ADDED0F5ADDED0E3A9DED99
:103AA0000D3ADDED0C4A9DED0B4A9DED035A21E5E3
:103AB000E8BD0108BC050020C4BD01080AD7A33D2C
:103AC0000AD7A33C90BD01089A99993F9A9999BF4A
:103AD0006666E63E8FC2F53D000000008C050020C2
:103AE000A8050020A40500202DE9F04F5B4B0D46F2
:103AF0002DED088BADF53F7DF0EE40AA1B901868C8
:103B00001292421C079201D10122079200241A60EE
:103B10000AF03CF8012D0D902494CDE92644CDE91E
:103B20002844CDE92A44CDE92C44CDE9224424D0CF
:103B3000079E3EA84A4D602133464A4A00951A9096
:103B400014F0BAF91B9A3346029496ACA021019264
:103B50002046454A00951D9414F0AEF9204605F024
:103B600011FBF5EEC0AAF1EE10FA40F23A823F4B9B
:103B70001C68003C18BF01241EE03D4D3EA8079E76
:103B80006021384A334600951A9014F095F91B9A33
:103B90003346009596ADA02101922846324A029400
:103BA0001D9514F089F9284605F0ECFAF5EEC0AA47
:103BB000F1EE10FA40F215822E4B00229FED2E9A64
:103BC0001C7093462D4BF0EE498AB0EE49BADFEDFA
:103BD0002C9A83ED009A91462A4B9FED2BAA83EDF8
:103BE000009A2A4B119283ED009A294B159283ED8E
:103BF000009A284B179283ED009A0D9B1092A3F127
:103C00002801A3F10A0A169219921C921492189292
:103C10001392CDE90B310123CDE90E220A9309F06D
:103C2000B5FF0D994EF65F230690A0EB010898456D
:103C300000F29182069B0C9A9B1A272B00F284813A
:103C400040212EA809F002FA002845D02EAC00270A
:103C50004A462618CDE9088A29E000BF64050020FD
:103C60005CC0010830C0010878C00108E8040020E9
:103C7000C0C00108E604002000000000A8050020E4
:103C80006F12833AA4050020CDCCCC3D98050020CE
:103C90009405002090050020CDCC4C3D56AB9F54A0
:103CA000002A40F0C18000220134B44211D02378B0
:103CB0000A2B18BF0D2B0CBF01250025EED0511C7F
:103CC0007F2900F2E780013456A8B44283540A46A3
:103CD000EDD1DDE9088A9146069BA3EB0A03092B87
:103CE00040F25181069B0B9A9B1A07EE903AF8EE30
:103CF000677A67EEA97AF4EEE97AF1EE10FA00F14C
:103D000036811FED1B8AF4EEC87AF1EE10FA38FE08
:103D1000278AB0EE480AFCF721FEBBF1000F00F045
:103D2000E180069B139A9B1AB3F5AF7F00F2DE8009
:103D3000F0EECB7AB7EE087AF4EEC77AF1EE10FA2D
:103D400040F33381A94B9FEDAA7AD3ED007A9FED22
:103D5000A91A67EE677A9FEDA87AEBEE077AF4EE80
:103D6000C17AF1EE10FA07D49FEDA41AF4EEC17AED
:103D7000F1EE10FA31FE271ADDE90E130B4313F0B2
:103D8000FF0300F01B81149A1C98002918BF0246FB
:103D90001B99521A642A40F31A81B1EE6A7A9B4643
:103DA00068EE0A7A77EE686AF4EEE67AF1EE10FAD7
:103DB00040F1BA8078EEA78AF0EE496AB1EE680A5F
:103DC000E8EEA86AF1EEE67A8D4B2AA98D48F0EE6E
:103DD000490AC3ED007A8C4B83ED001A05F028FEEA
:103DE000002800F0C9812AA8FEF73CF8002800F05E
:103DF000C98109F0CBFE26A906F010F8002856D19B
:103E00000A9B002B4CD1814805F0BCF9804B052260
:103E100080490A981A600870002420460DF53F7DFD
:103E2000BDEC088BBDE8F08F0DF5EC790DF1840841
:103E30000DF1800A1846FDF745FE1FAB1EAA764914
:103E400056A8CDF80890CDF80480CDF800A014F065
:103E500065F8052803D11E9B079A93422FD056A8D8
:103E60001EAA6E4914F05AF801287FF41CAF1E9B5D
:103E7000079A93427FF417AF109B5A1C684B02FBC2
:103E800003F3109213F1333FFFF40DAF654805F0D3
:103E90002DF908E76448AB4605F074F92A4603E7B4
:103EA000CDE92600CDE92800604805F06BF907F060
:103EB000E5FCDDF818A00023CDE90A3AAFE6219B26
:103EC000B3F5487FCBD1769BB3F5167FC7D1DDF82C
:103ED0007C9041F27073994540F2B480544805F0EB
:103EE00005F9E0E60E9B0BB90F9B33B1119B13B99B
:103EF000504805F0FBF801231193129B984529D2F5
:103F0000179BB1EE6A7A002B41D0B0EE491A00231C
:103F1000B0EE49BA0122CDE916329B4619931493AB
:103F20001893CDE90E333BE7B1EE676AF4EEC66A4B
:103F3000F1EE10FA1ED578EEE78AF0EE496AB1EE9E
:103F4000680AE8EEA86A3DE71A9805F0E7F8069BCC
:103F50000C9375E6159BB3B301220023B0EE6A7A89
:103F6000B0EE491AB0EE49BACDE91523D5E7B0EE67
:103F7000698ACEE6F0EE496AB1EE470AF0EE478A6A
:103F8000E7EE076A1EE7012009F006FE47E6129BEE
:103F90008021294A76A88DED087A13F08DFF76A846
:103FA00005F0A4F89DED087AAFE7DDE90E13B0EE59
:103FB000491A0B4313F0FF037FF4E5AEB0EE497AE4
:103FC0000E930F93ECE61D4805F090F8C4E76432B9
:103FD00003DAB0EE6A7A9B46E2E69B469FED187ADA
:103FE000DEE60B4B06221A6016E700BFB005002084
:103FF0000AD7A33DEC5138BE0AD7233DEC51383ED9
:10400000A805002070D70108A4050020E8BD01081C
:10401000BC050020E60400203CBE01080CBF0108DE
:10402000CDCCCCCC34BF01085CBF0108C4BD0108B5
:10403000E4BE010884BF0108B8BF0108F8BF010849
:10404000000000000F9B4BB1149BA9EB0303002B56
:10405000B8BF5B42B3F5E16F3FF740AF18997C4AB8
:10406000A2FB013222F0010303EB520322AACB1A76
:1040700042F823904B1C022B189300F28D809AED8E
:1040800000BAF0EE046ADFED737AB8EECBBA2BEE2D
:1040900027BAB0EECB6AB7EECB7AB4EEE66AF1EEB1
:1040A00010FA38D8199B022B03D80133032B19932C
:1040B00033D11C9BA021DDF8748000930123664A54
:1040C000404604934B468DED027B13F0F5FE4046CF
:1040D00005F00CF8189A022A40F288800E9A002AFD
:1040E0006BD0DDE91B239B1A002BB8BF5B42642B0E
:1040F00071DC169B022B00F283800133032B169395
:104100007ED00E9BCDF850909B460F93069B139349
:1041100000231193C7E5002319931C9B4FF000085F
:10412000DDF874A0A0214C4AAB46009350464B46A4
:10413000CDF810808DED027B13F0BEFE504604F0EA
:10414000D5FF069B0F95CDF84480CDF85090139382
:10415000CDF85880A7E5FDF7B9FE00233F49404A56
:104160000B60404940480B600B23136005F00AF8D0
:1041700000233E4A13704FE6394B06223B491A6032
:10418000087049E6364B1A68092A01D005221A60E0
:104190000023364A13703FE6DDE92231249A8B4230
:1041A0001C9114DD914206DC1C9313461C9A9A4222
:1041B000A8BF1A461C920E9561E70E9BAB46069A65
:1041C0000F95CDF850901193139216936BE593428F
:1041D000ECDC1346EAE70E9A0023CDF850909346A4
:1041E0000F92069A1693139211935CE50023069A98
:1041F000AB460F95CDF8509016931392119352E55C
:104200001B4B16491A6800230B6016490B601949AD
:104210000B6019490B60194B1A60FDF757FE0446F5
:1042200050B90F4B1A68092A01D005221A600024E0
:1042300000230E4A1370F0E55020FEF717FF104BD5
:104240001B78072BF3D00F4804F09CFFF0E700BF6A
:10425000ABAAAAAA0AD7233C7CBE0108A805002065
:10426000BC050020A405002014BE0108E6040020BF
:10427000AC05002094050020900500208C0500204E
:10428000C0050020BCBE010860EEA07A0023F0EE5D
:10429000E06A0022B0EEC07AE0EE007A2DE9F04F3D
:1042A000F4EEC76ADE4D2DED108BAFB0F1EE10FAD3
:1042B000B1EEE79A95ED006A1E932293189321932D
:1042C0002593B0EE608AF0EE408A8DED086AB0EE7C
:1042D00041AA1292B0EE61BA1392B0EE42DA149291
:1042E000F0EE62EACDE91F33CDE92333CDE919338E
:1042F000CC4BD3ED007ACDED057A40F37E82F1EE22
:10430000047ACDED0A7AF5EE007ACDED077ADFED8D
:10431000C6DA09F03BFCB4EEED9AF1EE10FA00F1CA
:104320006382DFEDC27AB4EEE7BAF1EE10FA40F242
:104330005B82B4EEE7DAF1EE10FA40F25582BC4B44
:10434000C8EE89BADFF814830021C3ED007A8246F3
:10435000B84B0446C8ED007AC3ED007A88EE09CA6E
:10436000B54B9DED057AC3ED007AB44B37EE2E7A4E
:104370000B91C3ED007AA0F1FA03F0EE67FA0D910C
:10438000B0EE679A0993B0EE678A0123F0EE678A70
:104390008DED0C7AF0EE67CA0493F0EE67AACDEDCE
:1043A00002EA069009F0F2FB069A43F6972381464B
:1043B000821A9A4200F21482A14E336823B1A14BB3
:1043C0001B78002B40F0D382A9EB0A03092B40F2A3
:1043D000B582A9EB04030AF10A0A07EE903AA9EBA9
:1043E0000A03F8EE677A092B88BFCA4667EEAD7AF2
:1043F000F4EEED7AF1EE10FA00F18B829FED922A45
:10440000F4EEC27AF1EE10FA72FE27EAC8EE8A7A6A
:10441000F5EEC07AF1EE10FA00F17682F7EE009A2E
:10442000B0EE007AF4EEE97AF1EE10FA79FEA79A8E
:10443000F0EE087AE9EEC77A29EEA97A67EE877A74
:104440009DED027AB0EE6E0A9DED05EA754BA7EE82
:1044500027EA83ED00EAFCF781FA14AB12AA22A93D
:104460007A48009313AB05F05BFB0446002800F08C
:10447000BB819DED087AD5ED007A77EEC77AB0EE74
:10448000670ACDED037A12F097FCB0EE40FA9DED8D
:10449000030A12F091FBDDED130AF0EE401ADDED98
:1044A000127A20EE800A9DF8683060EE8F0AA7EE3F
:1044B0008F0AE1EEE70A002B00F02E82B0EE6E2AA2
:1044C00018A8B0EE4F1AFDF749F99DED180ADDED79
:1044D000190A6CEE204A5E4B7AEE687A6BEEA00AFF
:1044E00093ED006AEBEE804A3DEE0D7AECEE400A69
:1044F000E4EEAECAF0EEE46AE0EEAEFAA6EEAE6A24
:104500007AEE6C5AF4EEE5AA83ED006A494BF1EEBF
:1045100010FAF4EEE7AAC3ED00FA484B3AFEA50AFA
:10452000F1EE10FAC3ED000A7AFEA77AF4EEC07A33
:10453000F1EE10FA30FE270A20EE070AB5EE400A27
:10454000F1EE10FA00F11A84F1EEC07AB4EEE7BA97
:104550002DEE2E7AF1EE10FA77FE8B7AB4EEE78A22
:10456000F1EE10FA40F1748138EE077AB4EEE77A92
:10457000F1EE10FA37FE878AE8EE2E8A9DED025A98
:10458000DFED387AB0EEC56AF4EECA8AF1EE10FAC1
:10459000B4EEE76A7AFE288AF1EE10FA40F355810C
:1045A000C8EE0A7AB1EE087A25EE077AB7EE005A1D
:1045B00027EE297A35EE695A27EE057A27EE277A13
:1045C00078EEEC7A9FED235A67EE857ABDEE005ABD
:1045D000F4EEC57AF1EE10FA07D4B5EE005AF4EE17
:1045E000C57AF1EE10FA35FE275A38EE055AFDEE7F
:1045F000007AB4EEE75AF1EE10FA05D4B4EECB5AD5
:10460000F1EE10FA7BFE057A77EEE44A9FED124A4E
:10461000BDEE005A24EE844AA4EE2E9A24E000BF98
:10462000AC0500208C0500206F12833A00000000CA
:10463000A805002098050020940500209005002082
:10464000E8040020E7040020CDCC4C3D70D70108E1
:10465000A00500209A99993FCDCC4C3FA40500209D
:104660003333B33E17B7D138B4EEC59AF1EE10FA32
:1046700000F15A81B5EE005AB4EEC59AF1EE10FA87
:1046800035FE099A1FED0A5AE4EE857ABDEE005A0E
:1046900077EE897AF4EEC57AF1EE10FA05D4F4EEED
:1046A000CB7AF1EE10FA3BFE275A5FED127AB44B4B
:1046B000B4EEE76A83ED005AF1EE10FA00F3F580EC
:1046C000F0EEC57ADFEDAF4A9FEDAF4A67EEA47A10
:1046D000C7EE844ADFEDAD7AF4EEE74AF1EE10FA68
:1046E00077FEA47AB1EE674AD5ED004ADDED0A3ACD
:1046F00074EECE4AA64FF1EE639AA3EEE47AD7EDBC
:10470000004ADDED073AA4EEE37AB4EEC47AF1EEA6
:1047100010FA05D4B4EEE77AF1EE10FA37FE874AC4
:10472000DFED9C7A9FED9C7A67EEE07ADFED9B0AE5
:1047300088ED004AEFEE877AF4EEE07AF1EE10FAB7
:1047400007D4DFED970AF4EEE07AF1EE10FA70FE8E
:10475000A70AF0EEE55A9FED937A934B6CEE607AE0
:10476000F4EEC75AC3ED000A6BEEA00A95ED007A8D
:10477000EBEE857AF1EE10FAECEE050A71D9DDED7B
:104780000C6A36EEC77ADFED896AB0EEC77AB4EE0E
:10479000E67AF1EE10FA00D83B684FF0000B21EEFC
:1047A000E00A98ED001A60EE8F0A1EA98048A7EE75
:1047B0008F0AE7EEA10A05F03BF9A8B11EA8FDF7A4
:1047C00051FB0446002800F0CC8009F0DFF922A953
:1047D00005F024FB08BB049BC3B9764804F0D2FC67
:1047E000754B05221A6002E0734B06221A60002006
:1047F0002FB0BDEC108BBDE8F08FF2EE027ACDED5C
:104800000A7ADFED677ACDED077A80E5CDE92200FF
:10481000CDE92400694804F0B5FC099BA9EB03032A
:10482000F92B00F2848007F029F8BBF1000F41D08A
:104830000B9B002B00F08880A9EB03033B2B00F2BD
:10484000CB8000234C460493ACE5B0EE6A7AB7E621
:1048500038EE477AF4EEC77AF1EE10FA37FE878A1F
:104860008AE6DDED0C5A35EEC77ADFED505AB0EE30
:10487000C77AB4EEE57AF1EE10FA21D897ED007A16
:10488000DFED4F5AB0EEC77AB4EEE57AF1EE10FAEA
:1048900016D89FED4C7AF4EEC76AF1EE10FA94BF89
:1048A0004FF0010B4FF0000B79E79FED474ADFED2A
:1048B000377A19E74C46CDF82CB0CDF810B071E539
:1048C0009FED407AF4EEC76AF1EE10FA3FF665AF5D
:1048D0009FED3E7AB4EEC76AF1EE10FA02D84FF0BF
:1048E000010B5CE77FF759AF254BC3ED00AA2E4BB8
:1048F000C3ED00AA0D9B63B3F0EE6A0A4FF0000B04
:10490000DFED337A0D944AE7F0EE6A7ADFED309A04
:1049100096E5F0EE6DEA79E501238DED180ACDED0F
:10492000190A8DF86830D4E5B0EE459AAAE622A9B6
:104930004846FCF7BDF8CDF8249074E7A146012065
:1049400009F02AF94C462DE54C46CDF82C900493FD
:1049500028E52048CDED031A04F014FCDDED031A20
:10496000CAE7154B1A68092A7FF43BAF3FE7FDF70A
:10497000ADFA0023024A1360C8F8003037E700BFE1
:10498000A80500206666263F7B14AE3E3333333FD6
:10499000B0050020AE47613E9A9919C09A9999BE18
:1049A0009A99993E6F12033C940500200AD7A33CC4
:1049B00070D70108E8BD0108BC050020C4BD01088E
:1049C0000AD7233D8FC2F53C333333BF17B7D138F5
:1049D00000000000D0C00108DDED0C7A4FF00009A6
:1049E000C64BDFEDC78AC3ED007A00239FEDC5AA51
:1049F00026932A931B9329932D939FEDC3BADFED42
:104A0000C3AA9FEDC39ADFEDC3CACDE92733CDE931
:104A10002B33CDE91C33C04BC3F8009009F0B6F836
:104A2000BD4BBE4AC3F80090C2ED00FABC4A0290EA
:104A3000C2F80090A0F1FA0201200392FBF7F2FF06
:104A4000DDF808B00023D946049309F09FF8029BD3
:104A50008246C31AB3F5FA5F80F08781A0EB0903A1
:104A6000092B40F23F81A0EB0B0309F10A0907EE85
:104A7000903AA0EB0903F8EE677A092B88BF8146CC
:104A800067EEA87AF4EEE87AF1EE10FA00F11281FE
:104A90009FEDA48AF4EEC87AF1EE10FA38FE278A68
:104AA000B0EE480AFBF75AFF17AB15AA2AA90093E4
:104AB00016AB9D4805F034F800283FF495AEDDEDC7
:104AC000087AD5ED00DA7DEEE7DAB0EE6D0A12F085
:104AD00073F9B0EE40DAB0EE6D0A12F06DF8DDED6C
:104AE000160AF0EE401ADDED157A20EE200A9DF848
:104AF00074306DEE200AADEE270AE1EEE70A002BD6
:104B000000F0DB80B0EE482A1BA8B0EE4D1AFCF78F
:104B100025FE9DED1B0ADDED1C0A6BEEA00A834B02
:104B2000DDED076AECEE400AC3ED000AD3ED007A32
:104B30007A4BE8EE27FADDED0C7AC3ED00FA95ED3D
:104B4000007A37EE677AD7ED007A67EEE67AE9EE1B
:104B5000877AF4EECA7AF1EE10FA00F1B9809FED8F
:104B6000747AF4EEC77AF1EE10FA77FE277A6F4B7B
:104B7000C8ED007AD3ED007A6BEE677AEFEEAA7A91
:104B8000F4EEC97AF1EE10FA00F19F809FED697A98
:104B9000F4EEC77AF1EE10FA77FE277A604B26A979
:104BA0006148C3ED007AD3ED007AD3ED000A6CEED4
:104BB000677A98ED001A6BEEA00A20EEE10A6DEE1E
:104BC000200AADEE270AE1EEA70A04F031FF002823
:104BD0003FF40AAE584B1B6843B93368002B40F0D2
:104BE0008580564B1B780BB9FDF728F805F036FB8E
:104BF00020B905F039FB002840F0AE8026A805F06A
:104C0000BFF828B94E4B1A68092A7FF4EAADEEE5E1
:104C100008F0BCFF2AA905F001F948B9002C3FF4BF
:104C2000DCADCDE92A00CDE92C00464804F0AAFA13
:104C3000039BAAEB0303F92B4DD806F01FFEF0EE01
:104C4000EF7AF4EEEC7AF1EE10FA30D8374B9FEDB4
:104C50003E7AD3ED007AF0EEE77AF4EEC77AF1EE21
:104C600010FA24D8D5ED007ADDED0C6A9FED377A85
:104C700077EEE67AF0EEE77AF4EEC77AF1EE10FA24
:104C800015D8D7ED007A9FED327AF0EEE77AF4EEA0
:104C9000C77AF1EE10FA0AD8049B002B62D0AAEB77
:104CA00003033B2B00F28480D3460024CDE600238F
:104CB0000493F9E7B0EE688AF2E601238DED1B0A52
:104CC000CDED1C0A8DF8743027E7F0EE497A65E7E0
:104CD000F0EE4A7A4BE72AA95046FBF7E9FECDF8F9
:104CE0000CA0AAE7012008F057FFAEE6194B1B788D
:104CF000002B7FF47BAFFCF7EBF877E78C05002007
:104D00006F12833A3333B3BEAE47613E9A9919C0EE
:104D1000EC5138BE6F12033CA80500209805002016
:104D200094050020CDCC4C3D70D7010890050020A3
:104D30003333B33EEC51383EDC0400206F050020D5
:104D4000BC050020C4BD01088FC2F53C0AD7A33CB6
:104D50000AD7233DE6040020FBF7B8FD194B0922D2
:104D60001A6050E7CDF810A09EE70023164A0320F2
:104D70001360FBF757FEFDF7A9F839E5CDED111AE1
:104D8000CDED105ACDED0F0ACDED0E4ACDED036AF3
:104D900011F0E8FEDDED111AF0EE407ADDED105A6B
:104DA000DDED0F0ADDED0E4ADDED036AFFF7CEBB48
:104DB0000023054A02201360FBF734FEFDF786F856
:104DC00016E500BFBC050020940500202DE9F04742
:104DD000C6B0602106A808F039F9002835D006AD24
:104DE000934E944F05EB0008DFF8A49206E0611C97
:104DF0007F292DD831603B55A84526D015F8013BB9
:104E000034680D2B06D0A3F10A02B2FA82F25209DD
:104E1000002AECD00023884986483B5513F08AF9D4
:104E2000824650B1B84208D0FBF75CFA04465146BE
:104E30003846621C13F0E4F8346014B1D9F800303D
:104E4000E3B90023A8453360D8D146B0BDE8F08768
:104E5000DFF840A232609AF80020D9F80030002A2A
:104E60005DD0764A0192A021754A1EA80092754A2B
:104E700013F022F81EA804F051F9BDE705AC724802
:104E80000DF113022146FBF799FF002849D0236852
:104E9000D9F80020DFF8FCA193425CD00DF1130299
:104EA00021466A48FBF78AFF20B12368D9F8002021
:104EB00093426BD00DF1130221466548FBF77EFF4C
:104EC00020B12368D9F80020934277D00DF1130266
:104ED00021466048FBF772FF28B12368D9F800200B
:104EE000934200F082800DF1130221465A48FBF7ED
:104EF00065FFD9F800309AF8002010B124689C4270
:104F000014D08AB14D4A0192544A00924D4AA021D0
:104F10001EA812F0D1FF1EA804F000F991E7504A34
:104F2000A0E7DFF870A1B9E74D4AECE79DF8131050
:104F30009142E6D14B4B00224B481A7004F0D6F850
:104F40009AF80030002B6ED03C4B434A0093234626
:104F50000192464ADBE79DF813109AF8002091422F
:104F60009CD1434A127812B9424A01211170424839
:104F7000039304F0BBF89AF80020039B002A4CD15D
:104F8000374A0092304A0192384AC0E79DF8131020
:104F90009AF8002091428DD1384A01213848039374
:104FA000117004F0A3F89AF80020039B002A36D071
:104FB000224A0092254A01922C4AA8E79DF8131034
:104FC0009AF80020914281D12E4A01212E48039364
:104FD000117004F08BF89AF80020039B0AB3174A6B
:104FE00000921B4A0192214A91E79DF813109AF80A
:104FF000002091427FF477AF1A4A0121234803939E
:10500000117004F073F89AF80020039B6AB10B4A00
:105010000092104A0192154A79E7084AB1E7104A0E
:10502000C7E70F4ADCE70E4B8FE70D4AF0E700BFFA
:105030007C030020FC020020B8B0010848B0010841
:1050400054C201081CC20108BCB20108FCB201082C
:1050500038B20108BCC10108ECC101084CC201080A
:105060004CB00108D4040020F4C101083CC101087F
:10507000D5040020D804002014C10108D704002062
:105080006CC10108D604002094C10108C4C1010804
:10509000DC040020E4040020B5EEC00A0023002256
:1050A000F1EE10FA2DE9F04F2DED108BC1B0B0EEFE
:1050B00060CA109314930D920E920F92139317934C
:1050C000CDE91133CDE9153300F16783F7EE00CA5E
:1050D000DFF8F4B1B0EEC0BADFF8F0A1DBED00BA52
:1050E00008F054FDA0F1FA035F4902460793DAF88D
:1050F00000300968002B00F024830B1E4FF0010ED6
:10510000B6EE00EADFED59EA18BF01239FED58AA79
:10511000DFED58FAF4460A93574B0593DFED577AC3
:10512000B0EE6F9A564B16465649B0EE67FAC3ED8D
:10513000007AF0EE678A544BF0EE679ADFED53AADF
:105140004FF00008C3ED007A1546514BDFED51DA00
:10515000C3ED007A504B9FED51DAC3ED007A504B0E
:10516000CDF818C0C3ED007ADBF80030CDF820E0B0
:105170000B6001230492039308F008FD049A029047
:10518000831A059A934280F00F83069B002B00F050
:10519000BC800A9B002B00F0F981334B1B680993FC
:1051A000FCF7DEFB3F4B1F78002F40F07F823E4C28
:1051B0002378002B00F0A980FCF788FE002800F07F
:1051C000A9830123394A27701370394B1B78002BB0
:1051D00040F0CA82374B18AF0193099BA021364A91
:1051E00038460093354B12F067FE384603F096FFC1
:1051F00008F0CCFC2D4B81461B784BB985E006F0BE
:105200003DFB0A2008F0C8FC284B1B78002B7CD003
:1052100008F0BCFC0446FCF7A3FB05F025F8A4EB62
:105220000902002840F0C4821E4B1B78002B40F07E
:105230002D8323490978002940F05583F92ADED9C6
:105240001B4B1B78002B00F0A6821E4A099938469A
:105250001A4BA146CDE90012174AA02112F02CFEEC
:10526000384603F05BFFCAE7D00400200AD7A33D0D
:105270009A99193FCDCC4C3EC0D4010000000000EB
:10528000A80500208C050020A40500206F12833A99
:10529000980500200AD7A33C94050020CDCC4C3DB6
:1052A00090050020CA040020CC040020C90400207E
:1052B000CD0400204CB001086CC2010898C201085E
:1052C000CB04002048B00108AC050020DC0400201D
:1052D0009C4A9D4913709D4A0B9D127823700B7058
:1052E000002A00F01D839A4B01938021099B3846C8
:1052F000984A0093984B12F0DFFD384603F00EFFFA
:10530000964803F0F3FE01230393029B9B1B092B9A
:1053100040F2BA81029B0A365A1B08EE102A1A463E
:105320009B1BB8EE488A092B88BF164628EE2A8AAE
:10533000B4EEEA8AF1EE10FA00F1FD80B4EECD8A07
:10534000F1EE10FA3DFE088AB0EE480AFBF706FBC4
:105350000FAB0DAA14A900930EAB814804F0E0FB3B
:10536000002800F01D82DBED007AF5EE006A77EE92
:10537000EB7ADBED00BAB0EEE76AB4EEE66AF1EE86
:1053800010FA07D8ACEEA7FAF4EECF9AF1EE10FAC5
:1053900039FE8FFA7BEE4F7A089BF4EEE79AF1EE36
:1053A00010FA79FEA77A002B00F0C280664B6EEEF1
:1053B000086A1B78002B0FFEAE6AB4EEC69AF1EEB7
:1053C00010FA40F15A8139EE269A89FE469A3AEE51
:1053D0000A0A20EE270AB5EE400AF1EE10FA00F1B3
:1053E000AC82F1EEC07AB4EEE79A6AEE086AF1EEAA
:1053F00010FA38EEE66A77FE897A67EEAC7AF4EE58
:10540000C67AF1EE10FA00F1998078EEA68AF4EEF1
:10541000E87AF1EE10FA78FEA78A6CEE680A514B32
:10542000B0EE681A10A9B0EE690A4D48F0EEE07AC5
:10543000C3ED007A4C4BC3ED008A04F0F9FA002862
:1054400000F0AE81DAF800304BB9484B1B68002BF6
:1054500040F01F81464B1B780BB9FCF7EFFB04F0C3
:10546000FDFE20B904F000FF002840F0648110A880
:1054700004F086FC58B93F4B1A68092A01D005226E
:105480001A60002041B0BDEC108BBDE8F08F08F031
:105490007DFB14A904F0C2FC78B9039B33B93648EC
:1054A00003F070FE334B05221A60EAE7CDE91400E1
:1054B000CDE91600314803F065FEDDED0F7A304B83
:1054C000F0EEE77A079AD3ED006A67EE8C7AE7EEA2
:1054D000886AC3ED006A029B9B1AF92B00F2C68012
:1054E00006F0CCF97BEE6D7AF4EECF7AF1EE10FA9D
:1054F00019D8244B9FED247AD3ED007AF0EEE77AA9
:10550000F4EEC77AF1EE10FA0DD8B8F1000F00F002
:10551000C880029BA3EB08034F2B00F207820023F5
:105520000393029D28E64FF00008CDF80C80F8E7C1
:10553000B0EE6F9A4BE7B0EE6A8A05E7F0EE468A66
:105540006BE700BFD5040020D4040020E404002051
:1055500048B00108A8C20108A0C20108E8C20108B9
:1055600070D70108A8050020A4050020E804002049
:105570006F050020BC050020E8BD0108C4BD01087E
:10558000A0050020B00500200AD7233DDAF800303E
:105590000993FFF71BFCA54B1B78002B40F0A08064
:1055A000A34B1B78002B3FF4B0AEFCF78FFC002818
:1055B00000F0B0819E4B0A9A1A7001239D4A137025
:1055C0009D4B1B78002B40F0CD809C4B18AF019376
:1055D000099B80219A4A384600939A4B12F06CFC42
:1055E000384603F09BFD08F0D1FA8146964803F057
:1055F0007DFD904B1B78002B3FF487AE934C0B95B1
:1056000009E006F03BF90A2008F0C6FA894B1B783E
:10561000002B00F07D8108F0B9FA0546FFF7D6FBB4
:1056200004F022FEA5EB0902002840F0DA807F4B4F
:105630001B78002B40F03481217800297FF448AE9C
:10564000F92ADED97C4B1B78002B00F0A280804A1F
:10565000099938467B4BA946CDE90012784A80214A
:1056600012F02AFC384603F059FDCAE7029C14A93F
:105670002046FBF71DFA079432E77FF7A8AE39EE14
:10568000669A89FE069AA2E6012008F085FA02953C
:1056900047E7704B1B78002B7FF4E1AEFBF718FC5B
:1056A000DDE60023DDF8088003933AE7FCF70EFC03
:1056B000002800F02F81684B1B78002B58D15F4BDE
:1056C000099AA021019318A8644B0092644A12F031
:1056D000F3FB18A803F022FD0023624A137024E0B4
:1056E000FCF7F4FB002800F01581534B1B78002BCE
:1056F0003CD1524B01938021099B18A8504A00933A
:10570000564B12F0D9FB18A803F008FD0023474AB6
:1057100047491370474A0B701370534A4B49137033
:10572000524ACAF800300B701360DBF800300120D9
:105730004F4A1360A6E6FBF7C9F84C4B09221A60E2
:105740009AE6B9B1DFED4BEA9E464FF0010C4A4BA9
:10575000F0EE6EFA9FED49AA9FED49EA0593CDF868
:1057600028C0DBE43A4B31E7394B34E5384BC1E72D
:10577000374BA5E7F7EE00EA42F6E0638E469FED71
:1057800041AA9FED3FEA8C46F0EE6EFA05930A912E
:10579000C4E42A4A5CE7294A58E5FFEE00CA97E4C8
:1057A000324B06221A606CE6304B07221A6068E61C
:1057B000FCF78CFB284B1B78002B6FD0244B0193FC
:1057C000A021099B3846264A0093244B12F074FB13
:1057D000384603F0A3FC00232B4A1370214A1370B0
:1057E000A3E7FCF773FB144B1B78002B00F09680AB
:1057F000174B01938021099B3846114A0093174BA0
:1058000012F05AFB384603F089FC0023084A094984
:105810001370064ACAF800301370134A0B701370E5
:10582000124A1360094A13707FE700BFD6040020B4
:10583000D8040020D5040020E40400204CB0010866
:10584000A8C2010898C20108CCC20108D7040020F0
:1058500048B00108E6040020CD04002064C201081D
:105860006CC20108CA040020D4040020BC0500203A
:105870008C050020CDCC4C3EC0D401009A99193F34
:10588000000000006666E63FC9040020FCF71EFB2E
:1058900000283FD02B4B1B78002B8FD12A4B8EE753
:1058A000FCF714FB002835D0284B1B78002B3BD08D
:1058B000274B01938021099B3846264A0093264BAB
:1058C00012F0FAFA384603F029FC0023234A24494F
:1058D0001370244ACAF800301370234A0B70136007
:1058E000224A137021E7224A1370224A1370154B83
:1058F0001B78BBB1164B0193A021099B38461E4A69
:1059000000931E4B12F0D8FA384603F007FCFAE475
:105910000B9DFAE4144B05221A60B2E50A4B68E7C6
:10592000094BE1E4084BE6E7074BC2E7DBF8003040
:10593000134A1360FCF7CAFAA4E511F013F9F0EE6C
:10594000407A50E5CD0400204CB00108E40400206A
:1059500048B00108A8C2010864C20108D8040020A8
:10596000D5040020D6040020BC050020D704002068
:10597000CB040020C90400206CC20108A0C20108A9
:105980008C050020014B1878704700BF7A05002075
:10599000024A40F6B8300249FCF7CEBA08C3010803
:1059A00038C30108024A42F6E0600249FCF7C4BA73
:1059B00068C3010898C3010808B502F073FF05F039
:1059C00075FEBDE8084004F0EDBB00BF704B2DE94B
:1059D000F0411E789AB03EB100226E481A701AB09B
:1059E000BDE8F04106F058B802F010FF6A4F08F029
:1059F000CDF86A4B0F22804669481A7006F04CF8C1
:105A0000684803F0BFFB08F0C1F8A0F57A7512E012
:105A100005F034FFFBF75CFA631B00BB3A78002A01
:105A200040F08480B3F57A7F34D204F01DFC68BB6B
:105A30000A2008F0B1F802F0EFFE80B308F0A6F8F3
:105A4000044602F009FF0028E2D002F0D9FE064623
:105A500005F014FFFBF73CFA631B0028DED04D482D
:105A600006F01AF8504803F041FB02F0C9FEE0B11D
:105A7000484806F011F802F0C3FE01280CBF4B485D
:105A80004B481AB0BDE8F04103F07CBB444806F037
:105A900003F8CDE74748254603F074FBC5E7002E21
:105AA00067D102F0ADFE0028E2D1A8F57A753A4E32
:105AB00008F06CF8044605F0E1FE631BB3F57A7F4D
:105AC00013D204F0D1FB20BBFBF702FA28BB3378DA
:105AD000002B32D102F0C0FE18B102F091FE002876
