:020000040800F2
:1000000000000220D90700082D0800082D0800086C
:100010002D0800082D0800082D0800080000000029
:100020000000000000000000000000002D08000893
:100030002D080008000000002D08000881BF0008FE
:100040002D0800082D0800082D0800082D080008BC
:100050002D0800082D0800082D0800082D080008AC
:100060002D0800082D0800082D0800082D0800089C
:100070002D0800082D0800082D0800082D0800088C
:100080002D0800082D0800082D0800082D0800087C
:100090002D0800082D0800082D0800082D0800086C
:1000A0002D0800082D0800082D0800082D0800085C
:1000B0002D0800082D0800082D0800082D0800084C
:1000C0002D0800082D0800082D0800082D0800083C
:1000D0002D0800082D0800082D0800082D0800082C
:1000E0002D0800082D080008000000002D08000859
:1000F0002D0800082D0800082D0800082D0800080C
:100100002D0800082D0800082D0800082D080008FB
:100110002D08000829BB00082D0800082D0800083C
:100120002D0800082D0800082D0800082D080008DB
:100130002D0800082D0800082D0800082D080008CB
:1001400000000000000000000000000000000000AF
:100150002D0800082D0800082D0800082D080008AB
:100160002D0800082D0800082D0800082D0800089B
:100170002D08000885BF00082D08000800000000B9
:100180002D0800082D0800082D0800082D0800087B
:100190002D0800082D0800082D0800082D0800086B
:1001A0002D0800082D0800082D0800080000000098
:1001B0002D0800082D0800082D0800082D0800084B
:1001C0002D0800082D0800080000000000000000B5
:1001D00000000000000000002D08000800000000E2
:1001E000000000000000000000000000000000000F
:1001F00000000000000000002D0800082D08000885
:100200002D0800082D080008000000002D08000837
:100210002D0800082D0800082D0800082D080008EA
:100220002D080008000000002D0800080000000054
:100230002D0800082D080008000000002D08000807
:100240002D0800082D0800082D0800082D080008BA
:100250002D0800082D0800082D0800082D080008AA
:100260002D0800082D0800082D0800082D0800089A
:100270002D0800082D0800082D08000800000000C7
:100280002D0800082D0800082D0800082D0800087A
:10029000000000002D0800082D08000800000000E4
:1002A000000000002D0800082D0800082D08000897
:1002B0002D0800082D0800082D0800082D0800084A
:0C02C0002D0800082D0800082D0800087B
:1002D00010F8012B11F8013B012A28BF9A42F7D0F0
:1002E000D01A7047034613F8012B002AFBD1181AC5
:1002F000013870470000000000000000000000000E
:1003000001F0FF01102A2BDB10F0070F08D010F8C6
:10031000013B013A8B422DD010F0070F42B3F6D1CA
:10032000F0B441EA012141EA014122F007047FF0E3
:1003300000070023F0E80256083C85EA010586EA3A
:10034000010685FA47F5A3FA87F586FA47F6A5FA76
:1003500087F68EB9EED1F0BC01F0FF0102F0070282
:1003600032B110F8013B013A83EA010313B1F8D12D
:100370000020704701387047002D06BF354603380E
:10038000073815F0010F07D1013015F4807F02BF47
:10039000013015F4C03F0130F0BC0138704700BF98
:1003A00081F0004102E000BF83F0004330B54FEA26
:1003B00041044FEA430594EA050F08BF90EA020F93
:1003C0001FBF54EA000C55EA020C7FEA645C7FEA26
:1003D000655C00F0E2804FEA5454D4EB5555B8BF49
:1003E0006D420CDD2C4480EA020281EA030382EABA
:1003F000000083EA010180EA020281EA0303362D4C
:1004000088BF30BD11F0004F4FEA01314FF4801C1E
:100410004CEA113102D0404261EB410113F0004F30
:100420004FEA03334CEA133302D0524263EB4303E7
:1004300094EA050F00F0A780A4F10104D5F1200E85
:100440000DDB02FA0EFC22FA05F2801841F10001E0
:1004500003FA0EF2801843FA05F359410EE0A5F1B4
:1004600020050EF1200E012A03FA0EFC28BF4CF0E5
:10047000020C43FA05F3C01851EBE37101F000459B
:1004800007D54FF0000EDCF1000C7EEB00006EEBA8
:100490000101B1F5801F1BD3B1F5001F0CD3490832
:1004A0005FEA30004FEA3C0C04F101044FEA445289
:1004B00012F5800F80F09A80BCF1004F08BF5FEA10
:1004C000500C50F1000041EB045141EA050130BDF0
:1004D0005FEA4C0C404141EB0101013C28BFB1F502
:1004E000801FE9D291F0000F04BF01460020B1FA4D
:1004F00081F308BF2033A3F10B03B3F120020CDA20
:100500000C3208DD02F1140CC2F10C0201FA0CF0FD
:1005100021FA02F10CE002F11402D8BFC2F1200C62
:1005200001FA02F120FA0CFCDCBF41EA0C01904018
:10053000E41AA2BF01EB0451294330BD6FEA040461
:100540001F3C1CDA0C340EDC04F11404C4F120024C
:1005500020FA04F001FA02F340EA030021FA04F35E
:1005600045EA030130BDC4F10C04C4F1200220FAB5
:1005700002F001FA04F340EA0300294630BD21FAF3
:1005800004F0294630BD94F0000F83F4801306BFB9
:1005900081F480110134013D4EE77FEA645C18BFAD
:1005A0007FEA655C29D094EA050F08BF90EA020F44
:1005B00005D054EA000C04BF1946104630BD91EA3C
:1005C000030F1EBF0021002030BD5FEA545C05D13F
:1005D0004000494128BF41F0004130BD14F580047E
:1005E0003CBF01F5801130BD01F0004545F0FE41F2
:1005F00041F470014FF0000030BD7FEA645C1ABF27
:10060000194610467FEA655C1CBF0B46024650EA5D
:10061000013406BF52EA033591EA030F41F4002189
:1006200030BD00BF90F0000F04BF0021704730B50F
:100630004FF4806404F132044FF000054FF00001E4
:1006400050E700BF90F0000F04BF0021704730B5A5
:100650004FF4806404F1320410F0004548BF40427A
:100660004FF000013EE700BF42004FEAE2014FEACF
:1006700031014FEA02701FBF12F07F4393F07F4FAA
:1006800081F06051704732F07F4208BF704793F0AD
:100690007F4F04BF41F40021704730B54FF46074C0
:1006A00001F0004521F000411CE700BF50EA0102C3
:1006B00008BF704730B54FF000050AE050EA01026C
:1006C00008BF704730B511F0004502D5404261EBDC
:1006D00041014FF4806404F132045FEA915C3FF41D
:1006E000D8AE4FF003025FEADC0C18BF03325FEABA
:1006F000DC0C18BF033202EBDC02C2F1200300FA6B
:1007000003FC20FA02F001FA03FE40EA0E0021FA8F
:1007100002F11444BDE600BF53B94AB9002908BF2D
:1007200000281CBF4FF0FF314FF0FF3000F00CB835
:10073000ADF1080C6DE904CE1CF0B6FCDDF804E068
:10074000DDE9022304B07047704700BF0348044B43
:10075000834202D0034B03B118477047CC020020FC
:10076000CC020020000000000548064B1B1AD90FE0
:1007700001EBA301491002D0034B03B118477047A6
:10078000CC020020CC0200200000000010B5064C76
:10079000237843B9FFF7DAFF044B13B10448AFF3F2
:1007A00000800123237010BDE00200200000000043
:1007B000C8D3010808B5054B1BB105490548AFF37F
:1007C0000080BDE80840FFF7CFBF00BF0000000079
:1007D000E4020020C8D30108DFF838D000F028F880
:1007E000002103E00C4B5B58435004310B480C4B89
:1007F00042189A42F6D30B4A02E0002342F8043B27
:10080000094B9A42F9D30FF0B3FB19F0A5FF08F09A
:100810006BFA704700000220B0530408000000206B
:10082000CC020020E0020020C06C0120FEE70000A6
:10083000044AD36843F00203D36053689B04FCD599
:10084000704700BF0048025870B594B015461E4668
:1008500000F1300408AA0346844696469CED007ACF
:100860000CF1080C5CED017A0EF1080E64450EEDFA
:10087000027A4EED017AF1D10446F1EE045A90ED80
:10088000016AEE462030D4ED006AEC46B0EE667A9E
:10089000D3ED026AF0EE467A93ED036A08330CF169
:1008A000080C36EEC77A76EE677A984227EE257AFC
:1008B00067EEA57A0CED027A4CED017AE6D1F7EEFF
:1008C000005A02F1280C75EEC05A9DED096A1046D7
:1008D000DDED086AF0EE664AD0ED026AB0EE465AE7
:1008E00090ED036A26EE807A083066EE007A844541
:1008F000A4EEA57AE5EE257A00ED027A40ED017AC4
:10090000E8D1ACF1080C6245DFD10EF1180C9DED79
:10091000016A7046DDED006AF0EE664AD0ED026ACB
:10092000B0EE465A90ED036A26EE807A083066EE05
:10093000007A6045A4EEA57AE5EE257A00ED027A0C
:1009400040ED017AE8D1A0F1080CE645DFD1089B23
:10095000009A0B60099B2B603260019B189A136010
:1009600014B070BDF7EE007ADFED1A5AF0EE084AC7
:100970009FED196A20EE004A9FED183A77EEC07A93
:10098000DFED173A60EEA55ABEEE007A67EEA76A71
:1009900067EEA47A20EE045A66EEA46A67EE847AC3
:1009A00020EE866A26EE800A27EE877A67EEA57A21
:1009B00060EEA30ADFED0B3AA0EE037AE0EE067AD2
:1009C000A5EE237AE5EE207A80ED007AC1ED007A7B
:1009D000704700BF9A99193FCDCCCC3E9A9919BE69
:1009E000B7D1303F0AD77BC0164A012100231648F1
:1009F00010B51170154C164A037013702370154A08
:100A000015481649164C136003600B700FF06EFB0F
:100A1000144AFA38237810604BB113480AF062FE8A
:100A2000237853B11148BDE810400AF027BE1048A2
:100A30000AF058FE2378002BF4D10E48BDE8104090
:100A40000AF01CBE6C0500207A0500207905002004
:100A500078050020FC040020740500206F050020AC
:100A60006D0500206805002038D4010880D40108F5
:100A70005CD401089CD4010800B58BB000234FF072
:100A8000000C03AA04A807A98DED010A0693099397
:100A9000CDF80CC0CDE90433CDE907330FF0A0F851
:100AA000DDED087A1F4B9DED077AF1EE677ADDEDFB
:100AB000066A0398B1EE477A1B49F1EE666A1B4A53
:100AC000D3ED015A086093ED006A77EEE57A92ED76
:100AD000005A174B37EE467A76EEC56A154993ED04
:100AE000016A154A77EEC67AD3ED005AC1ED006A65
:100AF0009FED125A37EE657AD1ED004AD2ED006AC9
:100B0000A7EE856A9DED010AE7EE055AF0EE667ADA
:100B1000E4EE807A83ED016AC3ED005AC2ED007AFB
:100B20000BB000BD840500209C050020B40500200A
:100B30007C050020B0050020AC050020CDCC4C3E4B
:100B400010B582B004460FF0D1FA144B1449154A7F
:100B50000094DFF868C00978126893ED000A124B20
:100B6000DCED000A93ED001ADFF854C00F4BDCED0A
:100B7000001A93ED002ADFF84CC00D4BDCED002A83
:100B800093ED003ADFF840C00A4BDCED003A93EDFC
:100B9000004A094B0CF0BEFD02B010BDB0050020AC
:100BA000C0050020BC050020A8050020A0050020ED
:100BB0009805002090050020680B0208AC05002075
:100BC000A40500209C0500209405002000B5DFF856
:100BD0006CC00B46DFF868E083B0174A9EF800103F
:100BE00012689CED000ADFF85CC0DCED000ADFF85B
:100BF00058C09CED001ADFF854C0DCED001ADFF895
:100C000050C09CED002ADFF84CC0DCED002ADFF874
:100C100048C09CED003ADFF844C0DCED003ADFF854
:100C200040C09CED004A4FF0000CCDF800C00CF025
:100C300071FD03B000BD00BFBC050020B005002061
:100C4000C0050020AC050020A8050020A405002058
:100C5000A00500209C050020980500209405002098
:100C60009005002070B5CCB003468021494A0CA8FD
:100C700019F0D2FB48490CA819F0A6FC002872D044
:100C80000346002406AD01E0062C0BD045F8043BDA
:100C900000204149013419F097FC03460028F3D1A4
:100CA000062C60D13D490698FFF712FB00285AD167
:100CB0003B490798FFF70CFB002854D139490898A5
:100CC000FFF706FB00284ED137490A98FFF700FBD3
:100CD000002848D1099C0A2205A9204619F0CEFA1D
:100CE00022780546002A47D0059B1B78002B43D16C
:100CF000022841D80B9C04A9204619F001FA237858
:100D0000002B40D0049B1B78002B3CD1F0EEC07A26
:100D10009FED267AF4EE477AF1EE10FA33D8B5EE6D
:100D2000C00AF1EE10FA2ED4DFED217AB4EEE70A14
:100D3000F1EE10FA27DCE8B28DED030A0AF030FC80
:100D40009DED030A2B461B4AB7EEC00A80212CA852
:100D50008DED000B19F060FB2CA80AF08FFC2CA87D
:100D60000AF074FC05E014480AF088FC12480AF006
:100D70006DFC01204CB070BD10480AF07FFC0F489C
:100D80000AF064FCF5E70E480AF078FC0C480AF01B
:100D90005DFCEEE7B8D40108BCD40108E4D4010836
:100DA000F0D40108F4D40108FCD40108FFFF7F7FD0
:100DB0000000344358D50108C0D4010808D5010803
:100DC00030D501082DE9F041B2B006460F469046F5
:100DD000A021384B384A0AA819F01EFB37490AA847
:100DE00019F0F2FB90B10346002401AD45F8043F31
:100DF00000203249013419F0E7FB0346002855D0A2
:100E0000082CF3D1029B1A78522A03D0002032B06A
:100E1000BDE8F0815A784B2AF8D19B78002BF5D1A8
:100E200027490398FFF754FA0028EFD12549049881
:100E3000FFF74EFA0028E9D131460598FFF748FA46
:100E40000028E3D120490698FFF742FA0028DDD1B7
:100E50001E490898FFF73CFA0028D7D1099C1C4985
:100E60002046FFF735FA28B11A492046FFF730FA35
:100E70000028CBD1079D0A2201A9284619F0FEF9C6
:100E80002B780246002BC1D0019B1B78002BBDD1D3
:100E90000028BBD00E4920463A60FFF719FAB0FA95
:100EA00080F301205B0988F80030B0E7082CADD151
:100EB000A8E700BF80030020B8D40108BCD4010813
:100EC00088D501088CD501089CD50108A0D501085A
:100ED000A8D50108ACD501082DE9F041AAB0064615
:100EE0000F4690468021384B384A0AA819F094FAE8
:100EF00037490AA819F068FB90B10346002401ADF8
:100F000045F8043F00203249013419F05DFB0346E7
:100F1000002855D0082CF3D1029B1A78522A03D00E
:100F200000202AB0BDE8F0815A784B2AF8D19B788E
:100F3000002BF5D127490398FFF7CAF90028EFD114
:100F400025490498FFF7C4F90028E9D131460598EE
:100F5000FFF7BEF90028E3D120490698FFF7B8F95A
:100F60000028DDD11E490898FFF7B2F90028D7D133
:100F7000099C1C492046FFF7ABF928B11A492046C5
:100F8000FFF7A6F90028CBD1079D0A2201A9284620
:100F900019F074F92B780246002BC1D0019B1B7805
:100FA000002BBDD10028BBD00E4920463A60FFF788
:100FB0008FF9B0FA80F301205B0988F80030B0E7C0
:100FC000082CADD1A8E700BFFC020020B8D401086E
:100FD000BCD40108B4D50108BCD501089CD50108D2
:100FE000A0D50108A8D50108ACD501082DE9F04F1E
:100FF000DFB0602106A80EF0D9FA002800F01481B5
:101000008C4B06461978002900F05A830DF1180917
:10101000894C8A4D09EB060899F8003026680A2B9E
:1010200018BF0D2B0CBF0127002740F005830023BC
:1010300083498248AB5519F02DFB8246002800F009
:101040000683AA4509D05046FFF74CF9064651469B
:101050002846721C19F084FA2660002E00F0E48203
:10106000784B1B780F2B00F000832B46764AA0218B
:1010700036A819F0D1F9754936A819F0A5FA034632
:10108000002800F015811EAE4FF0000AB3464BF861
:10109000043B00206D490AF1010A19F095FA034654
:1010A000002800F00181BAF10C0FF0D133681A78F2
:1010B000522A40F0FD805A784B2A40F0F9809B7804
:1010C000002B40F0F58062497068FFF701F90028B5
:1010D00040F0EE805F49B068FFF7FAF8002840F072
:1010E000E7805D49F068FFF7F3F8002840F0E08002
:1010F0005A493069FFF7ECF8002840F0D980584988
:10110000B069FFF7E5F8002840F0D2805549306A11
:10111000FFF7DEF8002840F0CB805349B06AFFF7B4
:10112000D7F8002840F0C480D6F814B00A2205A9E8
:10113000584619F0A3F89BF800300290002B00F0FD
:10114000B780059B93F800B0BBF1000F40F0B08072
:10115000002800F0AD80F369444918460393FFF777
:10116000B7F8002800F0788303984149FFF7B0F8FA
:10117000002840F09D80736A0A2205A9184603934F
:1011800019F07CF8039B1B78002B00F09180059BE5
:101190001B78002B40F08C80B0F5E17F40F0888018
:1011A000F66A0A2205A9304619F068F83378002B50
:1011B0007ED0059B1B78002B7AD1B0F5B47F77D118
:1011C0002C4B1A782C4B1878024340F013832B4A8F
:1011D0002B4812680068024340F00C8301200299FA
:1011E0001870284B83F800B0274B1960274B1A70F2
:1011F000274B1A70274B1A70274B1A70274B1A70FF
:10120000BBF1000F00F02E831849029B36A8244A38
:101210000091802119F000F936A80AF02FFA214830
:101220000AF014FA00232360002738465FB0BDE8B7
:10123000F08F00BFC8040020C40400202404002054
:1012400010D60108C0050020B8D40108BCD401089C
:10125000B4D50108BCD5010840D601089CD50108C9
:10126000A0D5010848D60108FCD40108A8D501087A
:10127000ACD50108F9040020E5040020E8040020B2
:10128000DC040020E4040020E0040020D804002056
:10129000D7040020D6040020D5040020D404002068
:1012A0006CD6010894D60108BAF10C0F3FF4FEAEDB
:1012B0002368002B00F0B8812B46814AA02136A874
:1012C00019F0AAF87F4936A819F07EF903460028DC
:1012D00039D04FF0000A0DF1780B4BF8043B002099
:1012E00078490AF1010A19F06FF90346002800F065
:1012F000B781BAF10C0FF0D11E9B1A78522A22D175
:101300005A784B2A1FD19B78EBB96F491F98FEF78B
:10131000DFFFC0B96D492098FEF7DAFF98B96C4934
:101320002198FEF7D5FF70B96A492298FEF7D0FFE1
:1013300048B969492498FEF7CBFF20B9269B1A7853
:101340004C2A00F0F3812368002B00F06D812B46BE
:101350005B4AA02136A819F05FF85A4936A81EAE9C
:1013600019F032F90346002800F0D0804FF0000A4F
:10137000B3464BF8043B002052490AF1010A19F028
:1013800023F90346002800F0BD80BAF10A0FF0D11E
:1013900033681A78522A40F0B9805A784B2A40F0C4
:1013A000B5809B78002B40F0B18047497068FEF70C
:1013B0008FFF002840F0AA804449B068FEF788FFFC
:1013C000002840F0A3804549F068FEF781FF00281F
:1013D00040F09C803F493069FEF77AFF002840F0DA
:1013E00095803D49B069FEF773FF002840F08E807C
:1013F0003B49306AFEF76CFF002840F08780D6F842
:101400001CB038495846FEF763FF28B136495846A4
:10141000FEF75EFF002879D1736905A90A221846F4
:10142000029318F02BFF029B82461B78002B6DD095
:10143000059B05A91B78002B68D1002866D0736A2C
:101440000A221846039318F019FF039B02901B7899
:10145000002B5BD0059B1B78002B57D1431E062B1E
:1014600054D858461F49FEF733FF204BB0FA80F09E
:101470001A784009002A49D11D4A1268524545D1BF
:101480001C4A1278824241D1012119701A4B0299EB
:10149000C3F800A0194B1960002A00F0E581114A39
:1014A000029B6021009236A801935346144A18F01B
:1014B000B3FF36A80AF0E2F800232360B5E600BFC8
:1014C000B8D40108BCD40108B4D50108C4D50108BA
:1014D00040D601089CD50108A0D5010858D70108BD
:1014E00060D70108A8D50108ACD50108F90400208F
:1014F000E8040020F8040020F4040020EC0400209C
:1015000068D70108BAF10A0F3FF442AF2B46734A7D
:10151000A02136A818F080FF714936A819F054F8B8
:101520000346002865D00DF1740A00274AF8043FED
:1015300000206B49013719F047F80346002856D0C0
:10154000082FF3D133681A78522A52D15A784B2A8D
:101550004FD19B78002B4CD162497068FEF7B8FEE2
:10156000002846D16049B068FEF7B2FE002840D19D
:101570005E49F068FEF7ACFE00283AD15C4930695C
:10158000FEF7A6FE002834D15A49B069FEF7A0FE46
:1015900078BBD6F81CA058495046FEF799FE20B1FA
:1015A00056495046FEF794FE18BBD6F814B00A22EE
:1015B00005A9584618F062FE9BF800300746C3B1F3
:1015C000059B1B78ABB9A0B150464B49FEF780FE96
:1015D0004B4BB0FA80F01B684009BB4209D1494B24
:1015E0001B78834205D1484B01221A701CE0082F5A
:1015F000A8D04649284619F04DF800285ED0444F3F
:101600003B46444A6021304618F006FF30460AF057
:101610001DF826683B46404A602136A8009618F01F
:10162000FBFE36A80AF02AF80023236009F101091D
:10163000C8457FF4F1ACF7E5721C9F2A02D82260FE
:10164000AB55F3E7354827600AF018F8EEE72F4965
:10165000284619F01FF8824600287FF4F2ACFCE41B
:10166000BAF10C0F7FF46FAE46E62D494C23DFF83C
:10167000B8E001F10C0B0A78A3F1610CA3F120068C
:101680000131A2F12000A2F1610A5FFA8CFCF6B2EE
:10169000C0B2BCF1190F98BF3346BAF1190F98BF09
:1016A00002469A427FF4E1AC8B451EF8013FE2D13D
:1016B0001B48FFF7D7FA00232360B5E50A4F9FE7E1
:1016C00001220F201A701D220CF09EF8002800F055
:1016D0008D80144809F0BAFF98E400BFB8D401081F
:1016E000BCD40108B4D50108C4D5010898D70108B5
:1016F0009CD50108A0D50108A8D50108ACD50108E2
:10170000E8040020F8040020E704002020D60108A7
:10171000BCD50108A0D70108C0D70108E8D7010847
:1017200024040020CCD5010830D601085A78312A8B
:101730007FF409AE9B78002B7FF405AE289B1A78C6
:101740004C2A7FF400AE5A78322A7FF4FCAD9B78A5
:10175000002B7FF4F8AD239B0A2205A918460293BB
:1017600018F08CFD029B83461B78002B3FF4EBADF9
:10177000059B1B78002B7FF4E6AD00283FF4E3AD1A
:10178000279B02935B78002B7FF4DDAD299B93F8B8
:1017900001A00393BAF1000F7FF4D5AD334925982A
:1017A000FEF796FD00285AD025983149FEF790FDA6
:1017B00000287FF4C8AD029B1E78A6F14103032BDD
:1017C0003FF6C1AD039B1878A0F14103032B3FF610
:1017D000BAAD86423FF4B7AD264B197811B9264908
:1017E000096859B1254809F049FF1DE7244809F067
:1017F0002DFF0BE4234809F041FF13E501221A7085
:101800001E22214B83F800A0204BC3F800B0204BD0
:101810001E70204B18700F201F4B19600BF0F4FF47
:10182000A0B11E4809F012FFBAF1000F12D00F4A02
:101830005B466021009236A8194A18F0EDFD36A8E3
:1018400009F01CFF174809F001FF35E6164809F0BA
:10185000FDFEE9E7064AEBE74FF0010B8BE44FF0A2
:10186000010AA8E70249D0E4014A19E6A8D501080F
:10187000ACD50108F9040020E8040020B4D6010822
:10188000ECD5010854D60108F8040020F404002027
:10189000F1040020F0040020EC040020CCD6010864
:1018A00010D7010838D70108ECD601085F4BB9EE14
:1018B000007AD3ED007AF4EEC77AF1EE10FA00F177
:1018C0009F80B1EE007ADFED5A6AF4EEC77AF1EE4E
:1018D00010FA37FE277AF0EEC77AF4EEE67AF1EEE8
:1018E00010FA40F28A80B5EEC07AF1EE10FA40F3B9
:1018F000998037EE667AF9EE007AD3ED016AF4EE5C
:10190000E76AF1EE10FA00F18480F1EE007A9FEDC3
:10191000486AF4EEE76AF1EE10FA77FEA67AF0EE86
:10192000E76AF4EEC66AF1EE10FA75D9F5EEC07A00
:10193000F1EE10FA73DD77EEC67A61EEA75A90EDFC
:10194000006A61EE277AD0ED016A9FED3A5AE1EE26
:10195000075AE1EEC77AA5EE826AE7EE826A76EE72
:10196000407AF4EEC57AF1EE10FA4FD49FED327A58
:101970009FED2F6AF4EEC77AF1EE10FA37FE277A60
:1019800027EE066A76EEE07A9FED2A7AF4EEC77AC1
:10199000F1EE10FA37D49FED287ADFED256AF4EEE8
:1019A000C77AF1EE10FA77FE277A67EEA67A30EE64
:1019B000067ADFED226AB0EEC00A70EEA77A80EDFB
:1019C000007AB4EEE60AC0ED017AF1EE10FA13D80F
:1019D000F0EEE00AF4EEE60AF1EE10FA0CD8184B3D
:1019E000D3ED007AF0EEE77AF4EEE67AF1EE10FA53
:1019F00002D800230360436070479FED127A7AE7B4
:101A00009FED117A77E7DFED117AD0E79FED0F6A4E
:101A1000B8E7DFED0D7A90E7DFED0A7A8DE777EE34
:101A2000867A8AE737EE267A65E700BF7C050020D4
:101A30000AD7A33D9A9919BE9A99193E0AD7A33C91
:101A4000A80500200000000048E17AC0A69B44BC25
:101A5000F8B50B780E460746F3B101380D4602E0A3
:101A600015F8013FC3B110F8012FA3F16101A3F1F3
:101A7000200EA2F1200CA2F16104C9B25FFA8EFE21
:101A80005FFA8CFC192998BF7346192C98BF6246DF
:101A90009A42E5D00020F8BD3046FEF723FC385CC2
:101AA0002C2818BF00280CBF01200020F8BD00BF63
:101AB0002DE9F047D4B0802104A80DF077FD28B3BC
:101AC00004AC464DDFF8448100272618DFF840912A
:101AD00007E0501C9F281CD8286008F80230A64256
:101AE00014D014F8013B2A680D2B06D0A3F10A018B
:101AF000B1FA81F149090029EBD008F8027012B15E
:101B0000D9F800303BB9A6422F60EAD154B0BDE805
:101B1000F0872960E3E732480DF10B0203A9FFF7D4
:101B200051F920B1039BD9F80020934227D00DF141
:101B30000B0203A92B48FFF745F920B1039BD9F805
:101B4000002093422CD00DF10B0203A92648FFF789
:101B500039F90028D7D0039BD9F800209342D2D17D
:101B600022499DF80B2009788A42CCD120490120D6
:101B70000870002A2FD01F4A00921B4A1DE01B4A02
:101B80009DF80B1012789142D1D11B49097811B9F7
:101B90001A4901200870D2B1164A0092104A0CE08E
:101BA000124A11789DF80B208A42CCD114490120A9
:101BB000087072B10F4A00920A4A0192C021114A7C
:101BC00024A818F029FC24A809F058FD9BE70E4A28
:101BD000E3E70D4AEFE70C4ACEE700BF2004002000
:101BE00014D8010854D8010898D70108CD04002062
:101BF000CA040020A8D50108C9040020CC04002094
:101C0000CB0400201CD80108ACD5010880030020BB
:101C1000D00400202DE9F04104460138504E5223F3
:101C200004F11E08054615F8012FA3F1610EA3F17A
:101C3000200CA2F12001A2F161075FFA8EFE5FFA8B
:101C40008CFCC9B2BEF1190F98BF6346192F98BF1B
:101C50000A469A420DD1454516F8013FE3D10123CA
:101C60004049414A0B7041481370BDE8F04109F00A
:101C7000EDBC3F4E04F110080546522315F8012F24
:101C8000A3F1610EA3F1200CA2F12001A2F16107E2
:101C90005FFA8EFE5FFA8CFCC9B2BEF1190F98BFD5
:101CA0006346192F98BF0A469A420BD1454516F84C
:101CB000013FE3D12F4B00222F481A70BDE8F041BD
:101CC00009F0C4BC2D4F04F10F080646522316F844
:101CD000012FA3F1610CA3F12005A2F12001A2F1D3
:101CE000610E5FFA8CFCEDB2C9B2BCF1190F98BF5E
:101CF0002B46BEF1190F98BF0A469A4208D1B0454B
:101D000017F8013FE3D11E48BDE8F04109F09EBC41
:101D10001C4E0B34522310F8012FA3F1610CA3F1D8
:101D20002005A2F12001A2F161075FFA8CFCEDB25F
:101D3000C9B2BCF1190F98BF2B46192F98BF0A469C
:101D40009A420BD1A04216F8013FE4D1064B012282
:101D50000D481A70BDE8F04109F078BCBDE8F0818B
:101D60005CD80108790500207A050020E4D8010834
:101D70000CD901086C050020B8D80108D0D801089A
:101D800090D80108A8D801087CD801082DE9F043B3
:101D90000446ADF51D7D0EF0A9F9002C68D08046F3
:101DA00053492046FEF794FA0546002860D1514B6E
:101DB0001B68002B5CD0504A1268934258D14F4A9E
:101DC00011784F4A1278914252D14A4E40214D4AE1
:101DD00014A80093234618F01FFB33684A4A402199
:101DE000009324A82346A8F1C80918F015FB32680F
:101DF00023464021009234A8444A18F00DFB444881
:101E000009F070FC2B4603930EF070F9A0EB090269
:101E1000039BC72A48D8402104A803930DF0C6FBB2
:101E2000039BB8B104AA5CAE1718144606E0FF295C
:101E30000CD80134F2540B46BC420BD02278591C0A
:101E40000D2A01D00A2AF2D1F554D3B90134002366
:101E5000BC42F3D103930EF049F943F69722A0EB6D
:101E6000080090422CD801200EF046F9039BCAE7E7
:101E7000284B06221A60002318460DF51D7DBDE88B
:101E8000F0833046FFF7C6FE24A93046FFF7E0FD99
:101E9000034634A930466BB9FFF7DAFD0028D5D0E8
:101EA0001C4B0A221A60E6E7814614A809F0E6FBFB
:101EB000039BB0E71848039309F014FC039BDBE78E
:101EC0000F4B082013491A780A4B08601B686AB147
:101ED0001248134A6021009044A818F09DFA44A8C3
:101EE00009F0CCFB0F4809F0FDFBC4E70E48F0E712
:101EF0008CD5010860050020D0040020CD0400200E
:101F00006D05002020D9010838D9010854D90108ED
:101F10006CD90108BC05002090D90108A8D501089A
:101F2000B4D90108E8D90108ACD501082DE9F0477A
:101F300090B00EF0DBF8404B1B7823B93F4A136892
:101F4000C31AF92B66D8402168460DF02FFBF0B17B
:101F50006C463B4E3B4D271806E0501C5F2819D8B5
:101F60003060AB54BC4212D014F8013B32680D2BE8
:101F700006D0A3F10A01B1FA81F149090029ECD098
:101F80000023AB545AB90023BC423360ECD110B0EB
:101F9000BDE8F0872C48316009F0A4FBE2E72B484C
:101FA00009F054FB284609F051FB294809F04EFB83
:101FB000284B1A780F2A06D01B78072B03D0284607
:101FC000FFF728FEDFE71F494C23DFF8A48001F16B
:101FD0000C0A0A78A3F1610EA3F120000131A2F1ED
:101FE000200CA2F161095FFA8EFEC0B25FFA8CFC90
:101FF000BEF1190F98BF0346B9F1190F98BF624699
:102000009A42DCD18A4518F8013FE2D10D48FEF72B
:1020100029FEB8E71049114B10600A781B7822B9E5
:1020200033B10F4809F02AFB8DE71BB10D48F9E7E2
:102030000D48F7E70D48F5E7780500206805002012
:10204000FC0400200005002050DA010840DA0108F5
:102050004CDA0108C00500206C0500206D05002049
:1020600010DA010880D4010828DA01089CD401089C
:1020700030D6010830B59FB00EF038F8294B044631
:102080001B78E3B12849294B0A78EAB12849294D40
:102090000A68A21AB2F5967F2AD2274B1B6843B969
:1020A000264B1B68002B36D1254B1B780BB9FFF74D
:1020B0003DFF2878003818BF01201FB030BD1A49F5
:1020C000204B0A78002AE1D101201A4D05930870AF
:1020D000A4F5967016492A7008601B48049109F00F
:1020E00001FBDDE904130A68A21AB2F5967FD4D386
:1020F0000C604FF4167240F29D1106A8CDE9012143
:1021000040F28A21114A0091602118F085F906A851
:1021100009F0B4FAC1E70E4B1B78002BC9D1FEF7CA
:1021200065FFC6E76D05002078050020A8D50108E9
:102130007405002079050020DC040020E80400205C
:102140006F050020ACD5010874DA0108A0DA010897
:10215000E6040020144B1B6810B5044682B03BB95E
:10216000124B1B688BB9124B1B780BB9FFF7DEFEC5
:102170000AF024FB18B901900AF026FB60B920464A
:1021800002B0BDE810400AF0ABB80A4B1B78002B38
:10219000EED1FEF72BFFEBE7FEF726FC064A0921FE
:1021A0000198116002B010BDDC040020E80400209A
:1021B0006F050020E6040020BC050020154B1B68BD
:1021C00000B583B03BB9144B1B68A3B9134B1B7804
:1021D0000BB9FFF7ABFE0AF0F1FA18B901900AF05B
:1021E000F3FA78B90DF082FF09F0EAFF03B05DF869
:1021F00004EB0AF0A5B80A4B1B78002BEBD1FEF7D5
:10220000F5FEE8E7FEF7F0FB064A092101981160A8
:1022100003B000BDDC040020E80400206F050020AE
:10222000E6040020BC050020F8B50E46174604461B
:102230000DF05CFF0546FFF71DFF154B1B78D3B96A
:10224000304609F04FFA09E0FFF714FF98B9FFF79D
:10225000B5FF034601209BB10DF04EFF0DF046FF88
:10226000401BA042F0D30B4809F03CFA0A4B08226D
:102270001A600020F8BD384609F034FA0120F8BD94
:10228000054B1A68092AF4D005221A60F1E700BF4D
:1022900079050020DCDA0108BC0500202DE9F04FAB
:1022A000ADF54B7D82460DF021FFA84B05901A68D5
:1022B00012F1010900F0C8814A46DFF8E4B240F6A5
:1022C000B8381A609BF80030059A002BA04BA2F199
:1022D000C801A2F10A021B7808BF4FF4E168079118
:1022E0000692002B00F0AE819A4C9B495046FDF7B8
:1022F000EFFF4EF6602347F230524021CDE90094C3
:102300000024A04208BF1A46944B1AA81C70944B94
:1023100009921C705346934A18F07EF85346924A2D
:1023200040212AA8CDF8009018F076F853468F4A3D
:1023300040213AA8CDF8009018F06EF853468C4A28
:1023400040214AA8CDF8009018F066F85346894A13
:1023500040215AA8CDF8009018F05EF85346864AFE
:1023600040216AA8CDF8009018F056F85346834AE9
:1023700040217AA8CDF8009018F04EF85346804AD4
:102380006021B2A8CDF8009018F046F8B2A809F084
:10239000A9F90DF0ABFE059B054604940893069B36
:1023A000CDF80C90EB1A092B40D8079BEB1AC72BE2
:1023B00046D800260DF12809402148460DF0F6F8D0
:1023C00000B309EB00074D46204609E0421C5F2A96
:1023D00044D80DEB0004104684F86832BD4210D09A
:1023E00015F8013B0D2B01D00A2BEFD10DEB0003AB
:1023F000002283F86822002834D1BD424FF000004B
:10240000EED104460DF072FE002E40F0FB80059BDD
:10241000C01A404580F03B8101200DF06DFE0DF0AB
:1024200065FE069B0546EB1A092BBED9FFF7C6FED3
:10243000002800F07A81079B0695EB1AC72BB8D9C4
:102440001AA809F01BF953464E4A6021B2A817F0AA
:10245000E3FFB2A809F0FAF80795AAE74A4809F09D
:1024600041F9CAE7494809F0F1F89AA809F0EEF8ED
:10247000474809F0EBF89AA8FFF7CCFB40F6B833D1
:102480009BF800203AA943459AA838BF4346002A42
:1024900018BF9846FFF7DCFA0446002800F0828057
:1024A000002E00F0AB80039B60213A4AB2A8009353
:1024B000534617F0B1FFB2A809F014F94AA99AA837
:1024C000FFF7C6FA0646002874D17AA99AA8FFF742
:1024D000BFFA0646002840F0BA806AA99AA8FFF71A
:1024E000B7FA80B142F6E06398450AD0039B6021B9
:1024F000294AB2A80093534617F08EFFB2A809F0FC
:10250000F1F842F6E068DCB19AA85AA9FFF7A0FA00
:1025100008B9264662E70DF0E9FD039BA0F1C80467
:102520001E4A6021009305905346B2A8079417F005
:1025300073FFB2A809F0D6F840F6B8380023049328
:10254000BD4200F0968000204AE700BF64050020ED
:102550006D050020A8D5010804DB010871050020E5
:102560007005002010DB010830DB010848DB0108A2
:1025700060DB010878DB010890DB010854D9010811
:10258000A8DB010848DC010850DD010840DA010839
:102590004CDA010860DC010808DD010824DD0108CF
:1025A0007A0500204AA99AA83446FFF751FA064650
:1025B00000288AD060495046DDF80C90FDF788FE6F
:1025C00000285AD19AA85D4918F064F8031E18BF74
:1025D00001235B4C60215B4AB2A8CDF800902370C8
:1025E000534617F019FFB2A809F07CF82378002BA6
:1025F00045D130460DF54B7DBDE8F08F0DF076FDF1
:10260000049050E701200DF077FD0DF06FFD049B65
:10261000099A0546C31A934250D2069BEB1A092B1E
:102620000AD8089BEB1AB3F57A7FFFF4C5AE2AA847
:1026300009F024F80895BFE6FFF7C0FD002874D024
:102640000695EEE7404C50E60122914635E6DDF86E
:102650000C9053463D4A6021B2A8CDF8009017F087
:10266000DBFEB2A809F03EF8394B0A221A600026B8
:10267000BFE700240DF03AFDC9E60023A9E735487D
:1026800009F030F830460DF54B7DBDE8F08FDDF8F0
:102690000C905346304A6021B2A8CDF8009017F054
:1026A000BBFEB2A809F01EF800210122284B8BF8CE
:1026B000001023490A7008221A60D8E7DDF80C9050
:1026C0005346264A6021B2A8CDF8009017F0A4FE28
:1026D000B2A809F007F85346214A40218AA8CDF84C
:1026E000009017F099FE8AA808F0C8FF8AA808F0A1
:1026F000C5FF53461B4A6021B2A8CDF8009017F0E1
:102700008BFEB2A808F0EEFF01230D4A5046164991
:102710001370164A1370FDF7DBFD00287FF469AFD4
:102720000B4B082206461A6063E7094B1A68092A10
:102730009DD005221A609AE704DB010878DC0108C5
:10274000710500208CDC0108ACD50108E4DC01082F
:10275000BC050020A8DC01086CDD0108C4DB010811
:10276000E8DB010800DC010834DC0108700500200A
:102770002DE9F04FADF5617D0C4607900DF0B6FCEC
:10278000A54B0C901A6812F1010800F096814246A0
:10279000DFF8C8A240F6B8371A609AF800209F4BBD
:1027A000002A0C9A1B78A2F1C801A2F10A0208BF04
:1027B0004FF4E1670A910992002B00F07B81984B5E
:1027C0000D93002C00F04C810D9BC0A8954A8021F0
:1027D000009302230F900193434617F01DFE38A883
:1027E0004346914A6021049017F016FE50A84346D4
:1027F0008E4A6021059017F00FFE68A843468C4A68
:102800006021069017F008FE20A84346894A6021FF
:102810000E9017F001FE884B0893079B8021874A92
:10282000A0A802930D9BCDE90083089B17F0F4FD4F
:10283000A0A808F057FF0DF059FC002304461D46E0
:102840000B93099BE31A092B3DD80A9BE31AC72B6C
:1028500043D810AE402130460CF0A8FE8346002835
:1028600000F044814FF000090024284608E0421C93
:102870007F2A45D880A90B54104601345C450DD2FF
:10288000335D0D2B01D00A2BF1D1002380AA135404
:10289000002839D1013400205C45F1D305460DF004
:1028A00025FCB9F1000F7ED10C9BC01A874240F283
:1028B000248101200DF020FC0DF018FC099B04463A
:1028C000E31A092BC1D9FFF779FC002800F03F81FA
:1028D0000A9B0994E31AC72BBBD90F9808F0CEFEC8
:1028E000079B574A80210293A0A80D9BCDE9008346
:1028F000089B17F091FDA0A808F0A8FE0A94A8E78D
:10290000504808F0EFFEC5E74F4808F09FFE80A84A
:1029100008F09CFE4D4808F099FE80A8FFF77AF970
:1029200040F6B8339AF8002080A80499002A18BF0E
:102930001F46FFF78DF8054678B1B9F1000F2ED08C
:10294000079B8021424AA0A8A946CDE90083089BA5
:1029500017F062FDA0A808F0C5FE059980A8FFF752
:1029600077F8002840F0AC8080A80699FFF770F84F
:10297000002882D00799A0A8089B364ACDE900819B
:10298000802117F049FDA0A808F0ACFE324B0A22C6
:102990001A60002528460DF5617DBDE8F08F0DF029
:1029A000A5FB0B90CCE7012047F22F540DF0A4FBC0
:1029B0000DF09CFB83460B9B099AABEB0303ABEB3F
:1029C0000202A34200F2B080092A1CD80A9BABEB9A
:1029D0000303B3F57A7F10D2402130460CF0E6FDB8
:1029E000834600287FF440AF0DF080FB01200DF0FE
:1029F00083FB0DF07BFB8346DDE70E9808F03EFE7F
:102A0000CDF828B0E8E7FFF7D9FB002800F09F8059
:102A1000CDF824B0DAE700BF640500206D05002082
:102A2000A8D50108A4DD0108DCDD010808DE0108E5
:102A300034DE010858DE010898DD0108F8DE0108DF
:102A400068DF010834E0010840DA01084CDA0108C7
:102A5000A4DF010804E00108BC0500207A0500207D
:102A6000079BC0A83E4A802101930D9B0F900093C5
:102A7000434617F0D1FC38A843463A4A60210490F7
:102A800017F0CAFC50A84346374A6021059017F05A
:102A9000C3FC68A84346354A6021069017F0BCFC89
:102AA00020A84346324A60210E9017F0B5FC314B06
:102AB0000893B2E6304B0D9383E60122904667E619
:102AC000079B05462D49002001932D4A089BCDF810
:102AD000008008708021A0A817F09EFCA0A808F034
:102AE00001FE28460DF5617DBDE8F08F0DF0FEFA80
:102AF0000C9BC31ABB42FFF4DCAEDDE90723802147
:102B0000A0A80192CDF800801E4A17F085FCA0A86D
:102B100008F0E8FD194A012100201B4B1170082222
:102B20008AF800001A6034E70799A0A8089B174AA2
:102B3000CDE90081802117F06FFCA0A808F0D2FD3C
:102B40000E490120104B082208701A6021E70E4B35
:102B50001A68092A3FF41DAF05221A6019E700BF61
:102B60007CDE0108B0DE0108D4DE010834DE010895
:102B700058DE010890DD0108ACD501087105002080
:102B8000D4DF01085CE00108BC05002034DF010847
:102B90002DE9F04FADF5077D83460DF0A7FAA34B65
:102BA00005901A6812F1010A00F0DE805246DFF843
:102BB000EC8240F6B8361A6098F80030059A002B7F
:102BC0009B4BA2F1C801A2F10A021B7808BF4FF487
:102BD000E16603910492002B00F0C480954B00271E
:102BE000954A402116A8CDE900A3944B1F705B467F
:102BF00017F012FC5B46924A402126A8CDF800A0AF
:102C000017F00AFC5B468F4A402136A8CDF800A099
:102C100017F002FC5B468C4A402146A8CDF800A084
:102C200017F0FAFB5B46894A60216EA8CDF800A038
:102C300017F0F2FB6EA808F055FD0DF057FA049B53
:102C40000446C31A092B76D8039BE31AC72B7BD8FB
:102C5000402106A80CF0AAFC00285BD006AC251881
:102C600009E07A1C5F2A5FD86F4487F8583117460D
:102C70000134AC424ED023780D2B08D0A3F10A09C1
:102C8000B9FA89F94FEA5919B9F1000FE9D04FF0B3
:102C900000090DEB070383F85891002FE8D06C482A
:102CA00008F0D4FC56A808F0D1FC6A4808F0CEFC25
:102CB00056A8FEF7AFFF40F6B83398F8002026A9D3
:102CC000B34256A838BF33464A4518BF1E46FEF7E2
:102CD000BFFE00284BD146A956A8FEF7B9FE07460D
:102CE000002860D156A836A9FEF7B2FE08B342F616
:102CF000E0694E45BCD05B46574A60216EA801345E
:102D0000CDF800A017F088FB6EA808F0EBFCAC42F1
:102D10004E46B0D10DF0EAF9059BC01AB04269D217
:102D200001200DF0E9F988E74C484F4608F0DAFC3D
:102D30009EE707469CE7FFF741FA00286FD0039B08
:102D40000494E31AC72B83D916A808F097FC5B46B6
:102D5000434A60216EA817F05FFB6EA808F076FC6E
:102D6000039475E73F4B3AE7012292461FE7334B46
:102D700007463D49584683F800903C4BC3F800A0F5
:102D8000FDF7A6FA18B35B46394A60216EA8CDF864
:102D900000A017F041FB6EA808F0A4FC38460DF522
:102DA000077DBDE8F08F5B46324A60216EA8CDF802
:102DB00000A017F031FB6EA808F094FC2E4B0A22FD
:102DC0001A60002738460DF5077DBDE8F08F184BD7
:102DD0001A782A4BC3F800A0294B1A70294B187097
:102DE000294B1870294B1870294B1870294808F086
:102DF00079FCC8E75B46284A60216EA8CDF800A0A0
:102E000017F00AFB6EA808F06DFC002101221A4B96
:102E100088F8001009490A7008221A60D1E7164B99
:102E20001A68092ACDD005221A60CAE76405002075
:102E30006D050020A8D5010810DB010871050020F0
:102E400048DB010890DB010854D9010894E001082F
:102E500040DA01084CDA010848E1010850DD0108B8
:102E6000B4E00108ACD501088CD50108600500204C
:102E700000E1010820E10108BC050020D004002089
:102E8000CD040020CC040020CB040020CA04002084
:102E9000C9040020D4E001086CE101087A05002093
:102EA0002DE9F047ADF5327D05460DF01FF96B4B6E
:102EB00080461A68541C17D022461A605DB16849D2
:102EC0002846FDF705FA30B9664B1B681BB1664A08
:102ED000126893420BD0654B06221A6000252846E3
:102EE0000DF5327DBDE8F08701221446E5E7604A22
:102EF000604B12781B789342EDD1A8F1C809A8F174
:102F00000A0A002B74D15C4B5C4A602112A8CDE9FF
:102F100000432B4617F080FA2B46594A6021009453
:102F20002AA817F079FA2B46564A6021009442A845
:102F300017F072FA2B46544A602100945AA817F0F1
:102F40006BFA2B46514A8021009492A817F064FA3C
:102F500092A808F0C7FB00250DF0C8F8A0EB0A0303
:102F60000446092B33D8A4EB0903C72B38D84021DA
:102F700002A80CF01BFBC0B102AC0027261808E029
:102F80006A1C7F2A36D8013472A9B4424B551546C3
:102F90000BD023780D2B01D00A2BF1D172AB5F55EA
:102FA00065BB01340025B442F3D10DF09FF843F620
:102FB0009723A0EB0800984240D801200DF09CF820
:102FC0000DF094F8A0EB0A030446092BCBD9FFF7C8
:102FD000F5F8002839D0A4EB0903A246C72BC6D9BF
:102FE00012A8A14608F04AFB294808F02FFBBEE7CB
:102FF000284B89E7284808F075FBD2E71846FEF70A
:1030000009FE2AA972A8FEF723FD78B942A972A881
:10301000FEF71EFD054668B972A85AA9FEF718FD0D
:103020000028BED0114B0A221A6057E71B4808F04F
:103030000DFBB6E71A4808F009FB50E70B4B0822D6
:1030400018481A6008F04EFB48E7084B1A68092A2E
:103050003FF444AF05221A6040E700BF640500203A
:103060008CD5010860050020D0040020BC0500209C
:103070006D050020CD040020ACD5010894E10108C5
:1030800048DB010860DB010854D90108B8E10108F8
:10309000DCE10108A8D5010850DD010800E20108C3
:1030A00024E2010848E201082DE9F04FADF53F7D2B
:1030B00007460D4616460DF019F88F4B04901C6814
:1030C000013420D022461A608C4B1B78CBB18C4A3D
:1030D00047F230539E4298BFB5F57A7F07D8B7F1D3
:1030E000030A18BF4FF0010ABAF1000F0ED0854B4A
:1030F00006221A604FF0000948460DF53F7DBDE8F5
:10310000F08F814AE4E701221446DCE7049F4FF088
:1031100003092346A021C83F009296A87B4ACDF818
:1031200004900597049FCDE9025617F075F92346E0
:10313000774A402106A8A7F10A0817F06DF923463F
:10314000744A402116A817F067F92346724A4021B5
:1031500026A817F061F92346704A80214EA8CDF8C1
:103160000090CDE9015617F057F94EA808F0BAFAC9
:103170000CF0BCFFA0EB08030446092B00F2A08072
:1031800057460DF1D80B059BE31AC72B00F28B8035
:10319000602158460CF00AFA8246002800F093801D
:1031A00000265C46002509E0791C9F294BD86EA8B3
:1031B000C2550F460135013455450ED222780D2AED
:1031C00001D00A2AF0D100226EABDA55002F3ED191
:1031D0000135002701345545F0D30CF087FF16BBAD
:1031E000049BC01A40F6B733984276D801200026D7
:1031F0000CF082FF0CF07AFFA0EB08030446092BC9
:10320000C1D9FEF7DBFF00286ED0A0460DF1D80B28
:10321000002EB8D0602158460CF0C8F9824600282C
:10322000BFD10CF063FF801B41F2873398424DD829
:1032300001200CF061FF0CF059FFA0EB08030446DD
:10324000092BE7D9DDE7364808F04CFAC0E73548E6
:1032500008F0FCF96EA808F0F9F9334808F0F6F91F
:1032600006A96EA8FEF7F4FB50B1002EB0D10CF009
:103270003DFF81462D48374608F0E8F94E4699E76C
:1032800016A96EA8FEF7E4FB814688B96EA826A9A8
:10329000FEF7DEFB00289BD0254808F023FA194BE7
:1032A0000A221A6026E796A808F0E8F905946FE765
:1032B000204808F017FA48460DF53F7DBDE8F08F2D
:1032C000564657469DE70CF011FF89E71A4808F06B
:1032D00009FA0C4B08221A600CE7184808F002FAA9
:1032E000084B08221A6005E7064B1A68092A3FF4C2
:1032F00001AF05221A60FDE6640500206D0500207F
:10330000A8D50108BC050020ACD5010870E2010871
:10331000B4E20108D0E20108ECE2010808E3010888
:1033200088E3010840DA01084CDA010844E30108A7
:103330006CE3010858E30108C8E30108ACE30108A5
:10334000F8B507460CF0D2FE0646A0F10A050BE0E0
:103350000CF0CCFE431B092B03D90546FEF72EFFCC
:1033600040B101200CF0C8FE0CF0C0FE801BB8423A
:10337000EED3F8BD044B1A68092A01D005221A6061
:10338000024B07221A70F8BDBC050020C0050020C2
:103390002DE9F04F994C0027994B4FF00108D4EDDF
:1033A000007ADFF8B8B22DED0C8B89B030EE27AA89
:1033B00093ED00DA00970397DFED928ADFED92BA82
:1033C0009FED929ADFED929A9FED92BACDE9017747
:1033D0000CF08CFEDFED907A904B8146B0EE67CA20
:1033E000A0F1FA0AC3ED007AF0EE67AA8C4B06460C
:1033F000CBED007A0546C3ED007A8A4B84ED00AA36
:10340000C3ED007A884BCDE90477CDE90677C3EDAB
:10341000007A0CF06BFE41F26F73A0EB09020446D8
:103420009A4200F2DF80831B092B40F2C380431BCA
:103430000A3607EE903A831BF8EE677A092B88BFAD
:10344000064667EEA87AF4EEE87AF1EE10FA00F19B
:10345000A8809FED768AF4EEC87AF1EE10FA38FE75
:10346000278A734DB0EE480AFDF706FB7AEE4DCA87
:10347000D5ED007A6BEEE77AECEE897AF4EEE97A34
:10348000F1EE10FA00F18A80F4EEC97AF1EE10FA4A
:1034900079FE277A28EE0B8A3CEE487AB4EEE77A7A
:1034A000F1EE10FA77DC3CEE088AF4EEC87AF1EE21
:1034B00010FA38FE27CAB0EE4C1A6946F0EE6A0AD6
:1034C0009FED550A5B488BED00CA08F061FD0028AE
:1034D00000F08C80584B1B6843B9584B1B68002B7D
:1034E0006ED1574B1B780BB9FEF720FD09F066F93A
:1034F00018B909F069F900286ED1684608F0F0FEA5
:1035000058B9504B1A68092A01D005221A600020C8
:1035100009B0BDEC0C8BBDE8F08F0CF0E7FD04A901
:1035200008F02CFF70B9B8F1000F04D1464808F03C
:10353000D9F8444BE9E7CDE90400CDE9060043485A
:1035400008F0D0F8A4EB0A032D4AF92B92ED00DA2B
:103550002AD8F0EEECCA0AF041FCDFED3D7AF4EE39
:10356000E7CAF1EE10FA12D8D5ED007A9FED397A5C
:10357000F0EEE77AF4EEC77AF1EE10FA07D837B337
:10358000E31B4F2B36D84FF00008254641E70027B4
:103590002546B8463DE7B0EE47CA8CE7F0EE697ABB
:1035A00078E7B0EE688A5CE704A92046A246FDF7FA
:1035B0000DFBCEE72C4601200CF09EFD254628E7AA
:1035C000254B1B78002B91D1FDF710FD8EE7274688
:1035D0004FF0000825461CE7FDF706FA194B0922B3
:1035E0001A608FE7174B07221A6090E7154B0622E7
:1035F0001A608CE7FEF7E2FD8AE700BF8C05002029
:10360000AC0500206F12833ACDCC4C3ECDCC0C40A3
:10361000CDCC0CC03333734000000000A80500205F
:10362000980500209405002090050020CDCC4C3D4D
:10363000B0050020880B0208DC040020E80400200C
:103640006F050020BC05002008E40108E4E3010840
:103650000AD7A33C0AD7233DE6040020A405002096
:103660002DE9F04F00232DED108BE7B09FED948AEC
:10367000F0EE408A1B93B0EE60EA8DED148A8DED7A
:10368000158A8DED168ACDE91C33CDE91E33CDE9BF
:103690002033CDE92233CDE919338A4BD3ED00EA4B
:1036A0000CF024FDF0EE482ADFED941AB0EE482A23
:1036B00025AA012308908DED248A07EE903AF0EEBA
:1036C000680A18A917A8B8EEE70A013320EE210A04
:1036D000FDF748F9F0EE627ADDED182AB0EE427A95
:1036E0009DED172A412B72EEE77A52ED016A32EE18
:1036F000477A67EEA77AE7EE077AB1EEE77A77EED8
:10370000267AE2EC017AD8D1DDED64AA9FED6ECA8B
:10371000F4EECCAAF1EE10FA0AD86C4B06224FF068
:10372000000A1A60504667B0BDEC108BBDE8F08F00
:103730009FED63AA664BDFED677AB0EE4A8A83EDB0
:1037400000AAB0EE4ABA644B2EEE27EA9FED63FA68
:10375000F0EE4A9A83ED00AAB0EE4A9A604B68EE0A
:103760008F7A089EF0EE4ADA83ED00AAB0EE4ADACC
:103770005C4BF0EE4ACACDED037A7EEE8E7A83ED95
:1037800000AA3746584BB246CDED0D7A83ED00AA1C
:10379000A6F1FA030B93FEF76DFC002301220793B9
:1037A00009920C930CF0A2FC0646FEF763FC089A03
:1037B00042F22733B21A9A4200F24183F31B092BDB
:1037C00040F2DE83A6EB0A030A3707EE903AF31BBA
:1037D000F8EE677A092B88BF374667EE8C7AF4EEED
:1037E000CC7AF1EE10FA00F1A983DFED40FAF4EEA5
:1037F000EF7AF1EE10FA7FFEA7FAB0EE6F0AFDF74E
:103800003BF916AB14AA20A9009315AB384808F071
:1038100037FC0A90002800F0E883DFF8D8A0DAED42
:10382000007A37EEEEFAB0EE4F0A15F075FDF0EEC5
:1038300040BAB0EE4F0A15F06FFC9DED157ADDED44
:10384000147AB0EE40FA67EE006A9DF86C3027EE0D
:103850002B7AE7EEAB6AA0EE677A002B00F0768356
:10386000F0EE401A19A8F0EE470AB0EE660AB0EE84
:103870006F2AB0EE6B1AFEF719F8DDED196A9DEDAF
:103880001A7A89EE2A6AB5EEC06AF1EE10FA00F1F2
:103890005883F7EE002AB4EEE26AF1EE10FAB5EEC4
:1038A000C09A32FE866AF1EE10FA40F2A283B4EEBC
:1038B000EA9AF1EE10FA58DA25AA012330E000BFA7
:1038C000000000008C0500206F12833ABC05002028
:1038D000A8050020DA0FC93FA4050020B7D1303F6A
:1038E000980500209405002090050020CDCC4C3D8B
:1038F000880B0208AC050020BD3786350000803CEF
:10390000CDCCCC3E9A99193F3333B3BE9A9919BEA8
:103910000AD75BC0AE47613F0133412B00F06283A1
:10392000D2ED007A0432B4EEE79AF1EE10FAF3D851
:10393000013B1FED0F5A0DEB8302D2ED245A77EEB7
:10394000E57AF4EEC57AF1EE10FA40F31F8379EED2
:10395000655A85EEA75A07EE903AF8EEE72A5FED32
:10396000197A72EE852A62EEA72AF0EE680A18A983
:10397000B0EE620A17A88DED067ACDED056A8DEDE1
:10398000046AFCF7EFFFF7EE005A5FED237AF0EEE2
:10399000084A1FED244A28EEA75A1FED257A75EE36
:1039A000E25A9DED033AF1EE087A9DED046AA8EE25
:1039B000C43ADDED056A65EEA43A65EEA77A62EEDB
:1039C000A44A63EEA53AF0EE455A67EEA27A64EE99
:1039D000A24AD8EE845A65EEA75A67EE877A1FEDA1
:1039E000357AE5EE235A1FED365AE3EE877A9DEDE0
:1039F000067AE4EE835AE4EE857A25EEA55AA7EE20
:103A0000A75AF1EEC53AF4EECC3AF1EE10FA40F2D4
:103A1000EC82C5EEA34A5FED415AE44BD3ED002A98
:103A200087EEA34ADFEDE23A67EE233A66EEA55A47
:103A30007AEEC97AA3EEAFDAE5EEAFCA23EEA43A86
:103A4000A5EE843A63EE843AE4EEE53AF0EE625A8B
:103A5000B0EEC35AE3EE2FDAE5EE2F5AC3ED005A6B
:103A60007AEEED5AB4EEE5AAF1EE10FAB4EEE7AA5A
:103A70003AFE250AF1EE10FA7AFE277AF4EEC07AC1
:103A8000F1EE10FA30FE270AB5EE400AF1EE10FA18
:103A900000F1CB82F1EEC07ADFEDC62AF4EEE72A20
:103AA000F1EE10FA77FEA27AF4EEE79AF6EE002A2B
:103AB000F1EE10FA6FEEA22A40F1238279EEA22AEB
:103AC000F4EEE72AF1EE10FA77FEA29AA9EEAF9A89
:103AD000DFEDB97AB4EEEA9AF1EE10FA3AFE899A7D
:103AE00079EE6D2A62EEA72AFDEE007AF4EEE72A5F
:103AF000F1EE10FA07D4F5EE007AF4EEE72AF1EED3
:103B000010FA77FEA27A79EEA77AFDEE002AF4EE9B
:103B1000E27AF1EE10FA00F12482DFEDA62AF4EE4B
:103B2000E27AF1EE10FA72FEA77A37EEC33ADFEDD1
:103B3000A32A63EE222AA2EEAFBAFDEE002AB4EE6B
:103B4000E2BAF1EE10FA00F10982F5EE002AB4EEC5
:103B5000E2BAF1EE10FA32FE8BBADFED992AE3EE0B
:103B6000227AFDEE002A77EE8B7AF4EEE27AF1EE1D
:103B700010FA07D4DFED8F2AF4EEE27AF1EE10FAB4
:103B800072FEA72ADDED187A9DED173A7DEE677A71
:103B90009FED8C2A3CEEC33A8B4B67EE847AC3EDE3
:103BA000002AE4EEC37A9FED893A23EE633AA7EE4A
:103BB000823A9FED872AB4EEC23AF1EE10FA07D4AA
:103BC0009FED842AB4EEC23AF1EE10FA32FE032AD7
:103BD000814BC3ED007A814BDDED037A83ED002A42
:103BE0007F4B37EECD1AC3ED003ADFED7E3A61EE42
:103BF000017A73EEEC3AF5EEC03AF1EE10FA00F10C
:103C0000958177EE8A7AF0EE4A3AB1EEE73ADFED47
:103C1000767AB4EEE76AF1EE10FAC0F27B81DFED5E
:103C2000737AB4EEE73AF1EE10FA05D9B4EECC3A75
:103C3000F1EE10FA00F3B081DFED6D7AF0EE4A4A52
:103C4000F0EE673A604BC3ED004AB7EE004A694BAD
:103C500082EEAA2AB4EEC46AF0EE000AF0EE082A58
:103C6000F1EE10FAF1EE084A34FE061AE1EE602A8F
:103C700034EE464A21EE011A66EE244A62EE812AAB
:103C80009FED5D1A64EE844AB0EE6E4AAEEE224AB3
:103C90006EEE242ADAED004AD3ED000A74EE644A8F
:103CA00064EE814AE2EE824A9FED542ADFED542A07
:103CB000E0EEC24AF4EEE24AF1EE10FA00F157816A
:103CC000F4EEC14AF1EE10FA71FE244ADFED4D2AFE
:103CD0006FEEA2FA78EE6F2AF4EEE42AF1EE10FA13
:103CE00000F3428178EE2FFAF4EEEF4AF1EE10FA8B
:103CF0003FFEA48A444A82ED004A444A9DED0D4AA3
:103D000082ED008ADAED004A34EE644ADFED364A8D
:103D1000B4EEE46AF1EE10FA80F2B980F0EEE55A02
:103D20009FED3B7AF4EEC75AF1EE10FA00F2C28032
:103D30009FED2E7AB4EEC75AF1EE10FA00F2BA8077
:103D4000B0EEC47ADFED337AB4EEE77AF1EE10FA32
:103D500000F21F81D3ED007A9FED2F7AF0EEE77A23
:103D6000F4EEC77AF1EE10FA94BF4FF0010A4FF06B
:103D7000000A0A9BF0EE4A0A134A0793274B9FED6D
:103D8000280A1360154B83ED00AAB0EE481A1CA94F
:103D9000244808F0FDF8002800F027811CA8FEF751
:103DA000D9F9002800F031813EE000BFA0050020D5
:103DB0009A99B93F3333B33F9A99993FCDCC4C3F51
:103DC0003333B33E9A9919C0A8050020AE47613E2F
:103DD0009A9999BE9A99993E9805002094050020D9
:103DE000900500200AD77BC09A99593F8FC2F53CB5
:103DF00000000000B0050020CDCC0C40CDCC4C3EE6
:103E0000CDCC0CC0333373408C050020A4050020BA
:103E10006F12033C0AD7A33C0AD7233D8FC2753DDE
:103E20008FC275BD880B02080CF060F920A908F05C
:103E3000A5FAB0B9099B6BB9904807F053FC904BB9
:103E400005221A604FF0000A504667B0BDEC108B97
:103E5000BDE8F08FCDE92000CDE92200894807F0C8
:103E600041FC0B9BF31AF92B00F2848009F0B6FF9A
:103E7000BAF1000F57D00C9B002B00F08580F31A8D
:103E80003B2B00F2C8800023B24609938AE49FEDE1
:103E90007E6AB4EEC63AF1EE10FA0BD827EE077A36
:103EA000A6EEA67AF1EEC76AF4EEC66AF1EE10FA53
:103EB0007FF646AFB0EEC47ADFED746AB4EEE67A10
:103EC000F1EE10FA37D893ED007ADFED716AB0EEBB
:103ED000C77A079B03F0010AB4EEE67AF1EE10FA16
:103EE00088BF4FF0000A079B002B7FF442AF2FEEF4
:103EF000670A9A4667EEAB0AA3EEAB0AE3EE8F0AB7
:103F000043E779EEE22AF4EEE27AF1EE10FA77FE78
:103F1000A29ADBE564EEC23A62EE047AE4EE223A5B
:103F2000E4EEA27A91E6CDF830A0ACE7E3EEA37A16
:103F3000F1EE633A69E64FF0000AD4E7F0EE4CFA8E
:103F40005BE4B0EE4A6AF0EE4A2A0EE50123CDEDBD
:103F5000196A8DED1A7A8DF86C3092E4B0EE62BA7F
:103F6000FBE5F0EE627AE0E5B0EE628AC2E6F0EEE2
:103F7000624AABE620A93046FCF728FE0B9675E7AF
:103F800001200CF0B9F80DE40C967CE7B0EE4A5A2B
:103F9000E1E44FF0000AECE6DFED3E7ADFED3E4A69
:103FA00061EE277A9FED3D2A63EEA43A27EEA74AF9
:103FB000A3EEA34AF1EEC44AF4EEC24AF1EE10FABF
:103FC0001ADC9FED374AF4EEC44AF1EE10FA7FF5A1
:103FD00039AE84EE242AF0EE444A63EE823A67EE6C
:103FE000827A2FE6F7EE002ABFE4254B06221A60FC
:103FF00028E7DFED2C2AB8E482EE244AF0EE424AAC
:1040000063EE843A67EE847A1CE61D4B1A68092A2F
:104010007FF416AF16E7244B01222449DDED0D7A1B
:104020001A70C1ED007AFFF77DBB8DED137ACDEDEF
:10403000126ACDED115ACDED103A8DED0F3ACDED5E
:104040000E4A8DED064A8DED056A8DED045A15F088
:1040500039F89DED137AF0EE407ADDED126ADDED70
:10406000115ADDED103A9DED0F3ADDED0E4A9DED52
:10407000064A9DED056A9DED045A0DE508E4010828
:10408000BC050020E4E301080AD7A33D0AD7A33CFE
:104090000AD7233D9A99993F9A9999BF6666E63E59
:1040A0008FC2F53D000000006F0500208C05002048
:1040B0009FEDDA7A60EEA07A0023DFEDD96A31EE67
:1040C000477AE0EE007AB0EEC77A2DE9F04F2DED99
:1040D000108BE7B0B4EEE67ADFF89083B1EEE79AA2
:1040E0003293074636932C9335933993F1EE10FAB9
:1040F000D8ED007AB0EE608AF0EE408A8DED1A7A43
:10410000CDED0C7AF0EE41FAB0EE61AA8DED162AF3
:10411000B0EE62EA0991CDE93333CDE93733CDE929
:104120002D334FF00003269327932893BD4BD3EDF7
:10413000007ACDED087A00F2F982F0EE087ACDED42
:10414000127ADFEDB97ACDED117ADFEDB87ACDEDE7
:10415000107A002F00F0E582DFEDB57ACDED1B7A05
:10416000F0EEC87AB0EEE87AF4EEC77AF1EE10FA23
:1041700040F3CE82F1EE047ACDED0D7AF5EE007AC1
:10418000CDED0B7A0BF0B2FFDFEDAA7A0246B4EE6A
:10419000E79AF1EE10FA00F1B282F5EEC0FAF1EE14
:1041A00010FA40F2AC82B5EEC0AAF1EE10FA40F27D
:1041B000A682099B002B00F09A8288EE89FA9E4B1A
:1041C000DFEDAB8A4FF0000C9C491646C3ED008A28
:1041D00015469B4BC8EE09EACDF870C0C3ED008AC6
:1041E000984BCDF850C0C3ED008A974BF0EE68BAFB
:1041F000B0EE68DACDF874C0C3ED008AF0EE68CA9C
:10420000924BB0EE689AF0EE68AACDED0F8AC3ED3E
:10421000008AB0EE68BA6FEE8F7A8D4BB0EE68CA46
:10422000CDED0E8A674508BF1946A2F1FA03CDED20
:10423000177ADFED7D7A13930123CAFE677ACDEDFD
:10424000237ADDED087A229177EE8E7A0793CDF806
:1042500064C08DED05EACDED157A6FEEAE7A0A9267
:10426000CDED187A0BF042FF0A9A43F697230446E5
:10427000821A9A4200F2F385764B1B6823B1764B83
:104280001B78002B40F0FC85A31B092B40F24F84C8
:10429000631B9FED687A0A3607EE903AA31BF8EE8F
:1042A000677A092B88BF264667EE877AF4EEC77ACD
:1042B000F1EE10FA00F187839FED682AF4EEC27ADE
:1042C000F1EE10FA32FE27EACBEE2F7AF5EEC07A45
:1042D000F1EE10FA00F17283B7EE008AB0EE007AC8
:1042E000F4EEC87AF1EE10FA38FE278AF0EE087A7A
:1042F000E8EE477A28EE087A67EE877A9DED057A30
:10430000B0EE4E0ADDED089A464BE7EE279AC3ED74
:10431000009AFCF7B1FB28AB26AA36A950480093B7
:1043200027AB07F0ADFE0546002800F0E8819DEDC3
:104330000C7AD8ED007A77EEC77AB0EE670ACDED49
:10434000067A14F0E9FFF0EE40DA9DED060A14F06B
:10435000E3FEDDED270ADDED267AF0EE401A60EE91
:10436000806A9DF8B83060EEAD0AE7EEAD6AE0EE27
:10437000670A002B00F02A83B0EE660A2CA8B0EE84
:104380004E2AB0EE6D1AFDF791FADDED2C6ADDEDE7
:104390002D0A20EEAE6A334B20EE8F7AD3ED007AF1
:1043A000EEEE26CAAFEE266AAEEEE67AA0EE8EDA22
:1043B000A6EE0ECAB0EEC64AE7EE0EBAE4EE0E7AEC
:1043C0003FEECC5AF4EEC58AC3ED007A1D4BF1EEF8
:1043D00010FAC3ED00BA1D4B38FE850A83ED007A52
:1043E000099B002B00F02583DFED117AB4EEE70A7C
:1043F000DDED057AF0EEE74ADFED207AF1EE10FA16
:10440000F4EEE74A40F3F382F1EE10FA00F3B883DA
:104410009FED153AFDEE007A32E000BF27162840E6
:104420000AD7233C8C0500209A99993E5C8FC23EA6
:104430006F12033C6F12833AA805002034E4010890
:10444000A405002098050020940500209005002078
:1044500074E40108E8040020E7040020CDCC4C3DC2
:10446000880B0208A00500209A99993FAC0500200E
:1044700000000000CDCC4C3F3333B33E17B7D138EA
:1044800025EE033AB4EEE73AF1EE10FA00F1A28419
:104490005FED097AF0EE4AAAB0EE6FBAF0EE673A35
:1044A000F5EE005AB4EEE53AF1EE10FA75FE835AD5
:1044B00075EEAA5ABDEE003AF4EEC35AF1EE10FAC8
:1044C00000F18C82F4EECA5AF1EE10FA7AFE255A07
:1044D00035EEC63A5FED192ABDEE006A63EE222A78
:1044E000A2EE8E9AB4EEC69AF1EE10FA00F17C823A
:1044F000B5EE006AB4EEC69AF1EE10FA36FE099AED
:10450000B0EE656A5FED245AA3EE256AFDEE005A0F
:1045100036EE096AB4EEE56AF1EE10FA00F1618256
:10452000B4EECA6AF1EE10FA3AFE066A5FED2D5A51
:10453000854BF4EEE54A83ED006AF1EE10FA00F3E4
:104540001682002F40F00E82F0EEC65A9FED7F3AA1
:10455000DFED7F2A65EE835A85EEA23ADFED7D2AF4
:10456000B4EEE23AF1EE10FA72FE832AB1EE623A4C
:10457000D8ED005A9DED0D2A75EEE95ADFF8F8B135
:10458000E5EEC27ADBED005A9DED0B2AE5EEC27A2C
:10459000F4EEC37AF1EE10FA05D4F4EEE27AF1EE1D
:1045A00010FA32FEA73ADDED117ADDED105A27EE52
:1045B000C77ADDED127A684BA7EEEB7A83ED003A0D
:1045C000F1EE657AB4EEE77AF1EE10FA05D4B4EEC6
:1045D000E57AF1EE10FA75FE877A9DED187A5F4B59
:1045E00077EE4D9A9DED177AC3ED007A37EE6C8A1F
:1045F000002F00F0CF809FED627A2FEE877AB4EE25
:10460000CC7AF1EE10FA00F28D821D9768EE087AEE
:10461000199BE9EEA97AB1EEE77AD3B92298CDEDEC
:10462000211ACDED204A8DED1F7ACDED1E3ACDED4C
:10463000196ACDED060A07F055F8DDED211ADDED1A
:10464000204A9DED1F7ADDED1E3ADDED196ADDEDA4
:10465000060ADDED1B7AF4EEC77AF1EE10FA00F1EE
:10466000BB82394BC3ED008AC0F26D8266EEA66A4A
:10467000DFED3B7AE0EEA06AB1EEE67AB4EEE77ADF
:10468000F1EE10FA00F25F829DED157AD8ED007A16
:1046900077EE677A9FED3D7AF0EEE77AF4EEC77A2F
:1046A000F1EE10FA00F25283DBED007AF0EEE77AD9
:1046B000002F00F017869FED367AF4EEC77AF1EE00
:1046C00010FA00F24583DDED0F7A3D46DFED250A55
:1046D000012378EEE76ADDED0E7A199738EEE77A76
:1046E00026EEA66AF0EE607AA7EE076AAEE0DDED90
:1046F000167AF5EEC07AF1EE10FA3FF65EAD1A4B7F
:1047000006221A60002067B0BDEC108BBDE8F08F68
:10471000F2EE027ACDED0D7ADFED147ACDED0B7A63
:1047200030E5DFED167ACDED1B7A19E5DFED107A75
:10473000CDED117ADFED0F7ACDED127ADFED0B7A48
:10474000CDED107A05E500BFA80500206666263F7E
:104750007B14AE3E3333333FA40500209405002084
:10476000CDCCCC3C00000000BC0500209A99993EBD
:10477000AE47613E9A991940B00500200AD7233C04
:10478000CDCC4C3E6F12033C8FC2F53C0AD7A33C04
:104790000AD7233D1FED077ADDED1A5AF4EEC75A0A
:1047A000F1EE10FA09D81FED0A7A2FEE877AB4EEEF
:1047B000CB7AF1EE10FA7FF629AF2EEEE77AB0EE63
:1047C000C55A6FEE270AF0EE477A1FED127AB4EE63
:1047D000C75AEFEE067AEEEE860AF1EE10FA00F214
:1047E000D3801FED177AB4EEC74AF1EE10FA00F24B
:1047F000CB80DDED156A98ED007A36EEC77A5FED75
:104800001D6AB0EEC77AB4EEE67AF1EE10FA00F265
:1048100088829BED007A5FED226AB0EEC77AB4EE33
:10482000E67A002F00F00D82F1EE10FA00F21C8201
:104830009DED0F7A002570EEC76A9DED0E7A2B462E
:1048400037EEC77A26EEA66AA7EE076AF1EEC65AD9
:10485000F4EEE35AF1EE10FA40F3E88163EEA66A53
:1048600023EE877A86EEA56ADDED0E6AC7EE257A1D
:104870009DED0F7A37EE067A8DED0F7A27EE077AE7
:1048800076EEA77AA7EEA77ACDED0E7AF1EEC77A8B
:10489000C04A9DED0E7AC049C2ED007ADDED0F7A77
:1048A0006FEE277AEEEEC77AC1ED007A002B00F0AA
:1048B000C68192ED007ADFEDB97AB4EEE77AF1EED7
:1048C00010FA94BF4FF001094FF00009DDED0F0A17
:1048D000DDED0E7A21EEE00AB14B60EEAD0A32A9B1
:1048E00093ED001AA7EEAD0AAE48E7EEA10A07F075
:1048F0004FFB00283FF403AF32A8FDF72BFC002844
:1049000000F0B9820BF0F2FB36A907F037FD78B959
:10491000079B33B9A44806F0E5FEA44B05221A60B4
:10492000F0E6CDE93600CDE93800A14806F0DAFE20
:10493000139BE31AF92B00F2EF8009F04FFAB9F15B
:10494000000F1BD0002D149A0CBF3C23FA23002A21
:1049500000F0F480A21A9A4280F0A6820023254635
:1049600007937FE49FED933ADFED932A00E6002F53
:10497000F8D19FED923ADFED922AF9E52546CDF880
:104980005090CDF81C906DE4DDED156A98ED007A3D
:1049900036EEC77ADFED8B6AB0EEC77AB4EEE67A10
:1049A000F1EE10FA01D8DBF800300025A9462B46BD
:1049B000002F8FD02A461C9D1C926BE1F0EE687A86
:1049C000B0EE688A9AE49FED80EA7DE40123CDEDA4
:1049D0002C6ACDED2D0A8DF8B830DAE4F0EE435AAA
:1049E00076E5B0EE656AA1E5B0EE469A88E5F1EEAF
:1049F00010FA76DCDFED757AFDEE005A65EE277A67
:104A0000F4EEE57AF1EE10FA00F1F281F5EE005ADB
:104A1000B0EE6FBAF4EEE57AF1EE10FA75FEA75A31
:104A2000DFED6B7A75EEA85AF0EE673AF0EE67AA02
:104A300048E57FEECB7AF4EEE78AF1EE10FA78FEE5
:104A4000A77AF4EEC07AF1EE10FA30FE270ADDED17
:104A5000167A77EEA77A20EE270AB5EE400AF1EE35
:104A600010FA00F1FA83F1EEC07ADDED165AB4EED9
:104A7000E7AA65EE8E3AF1EE10FA77FE8A7AF4EE46
:104A8000E7AAF1EE10FA40F1C8807AEEA3AAF4EE9C
:104A9000E7AAF1EE10FA77FEAAAAAAEE8EBADDED29
:104AA000057AF0EEE74ADFED4B7AB4EEEFBAF1EEBD
:104AB00010FAF4EEE74A3FFE8BBA3BEE4C3AF1EEC9
:104AC00010FA16DCF0EE687ADFED405A23EE253A54
:104AD000FDEE005AB4EEE53AF1EE10FA7FF5E0ACE7
:104AE000E6E4B0EE453AB0EE6FBAF0EE68AAF0EE4A
:104AF000683ACAEEAF5ADDED052AF1EE087A62EEA9
:104B0000A77AF7EE002A67EE887A72EEC82A67EE77
:104B1000A27A67EEA57AD7E736A92046FCF756F8C1
:104B200013940AE71D9B002B7FF470AD45E62C46DD
:104B300001200BF0E1FA2546FFF794BB25461494BB
:104B40000792FFF78FBBDFED220AF0EE607ADDED12
:104B5000156A98ED007A36EEC77ADFED1A6AB0EE84
:104B6000C77AB4EEE67AF1EE10FA01D8DBF800303D
:104B70004FF0000919954B46002F3FF4ABAE19E7F3
:104B8000B0EE453AF0EE4AAAB0EE6FBAF0EE683AEF
:104B9000AFE700BFA805002094050020CDCCCC3C99
:104BA000A4050020880B020808E40108BC050020C9
:104BB000E4E301083333B3BE3333B33E333333BF9F
:104BC0003333333F0AD7A33C6F12833A9A99993F04
:104BD0000000000017B7D13879EEA90A78EE087AFC
:104BE00060EEA06AE7EEA76AB1EEE67ADDED236A31
:104BF000F4EEC76AF1EE10FA5CD5C6EE876A60EE95
:104C0000A60A67EEA67A60EEA06AE7EEA76AB1EEA2
:104C1000E67ABC4B83ED007A99E77AEEE3AAF4EEEC
:104C2000EA7AF1EE10FA77FEAAAA36E720EEA07A29
:104C3000CDED0F0ACDED0E7AA7EEA77A26E69946BE
:104C400044E6F1EE10FA3A4694BF4FF00109B94636
:104C50004B469FEDAD7AF4EEC74AF1EE10FA00F242
:104C6000A680A946154635E6DFEDA77AF4EEE74AB9
:104C7000F1EE10FA36DD0023A24A1360A34A136056
:104C80001C9B002B00F00481DFEDA10A0023F0EE55
:104C9000607A1C939DED0F7A1C9A70EEC76A9DEDA9
:104CA0000E7A1C95154637EEC77A26EEA66AA7EE51
:104CB000076ACBE5DFED976AB4EEE67AF1EE10FA1B
:104CC000A7D59DED236AC6FE666A86EE876A60EE0A
:104CD000860A67EE867A60EEA06AE7EEA76AB1EE12
:104CE000E67A96E74FF00009864BC3ED008A874BC2
:104CF000C3ED008A1C9B002B00F08480DDED0F7A51
:104D00004D46DFED830A002378EEE76ADDED0E7A8B
:104D100038EEE77A26EEA66AF0EE607AA7EE076A2A
:104D200094E5002FA0D19FED787A3A46F4EEC74A79
:104D3000F1EE10FA95D9B9463B469FED737AF4EE41
:104D4000C74AF1EE10FA36DC1546C3E5002F78D0DD
:104D5000DFED6D7AF4EEE74AF1EE10FA40F383806E
:104D6000DFED6B0A674BC3ED000A684BC3ED000A29
:104D70001C9B002B40F0558299462A46199566489F
:104D8000CDED201ACDED1F3A1E93069206F0AAFC37
:104D9000DFED5F0A1C95F0EE607A069DDDED201ACE
:104DA000DDED1F3A1E9B002F3FF494AD02E6B9F1F2
:104DB000000FC2D055E75349C1ED008A5349C1EDF8
:104DC000008A1C990029DAD0DFED510A1546F0EE71
:104DD000607A7FE5F5EE005ADFED4D7AF0EE4AAAF3
:104DE000B0EE6FBA7AEE655AF0EE673AFFF76ABB3B
:104DF000DFED477AB0EE6FBAF0EE673AF0EE67AAF1
:104E0000FFF760BB4448CDED1E1ACDED063A06F023
:104E100069FCDDED0F7A0023DFED3D0A78EEE76AED
:104E2000DDED0E7A1C954D4638EEE77ADDED063A5B
:104E300026EEA66ADDED1E1AF0EE607AA7EE076A8E
:104E400004E5DFED317A2A461995F4EEE74ADFED05
:104E5000307AF1EE10FA09D8F0EE670A01E72F4B2D
:104E600005221A604EE4A94619953DE7F0EE670A5F
:104E7000B9463B4661E7294B1A68092AF0D141E45B
:104E8000FDF79CF900231F4A1360254A136039E49B
:104E90002148CDED1C1ACDED063A06F023FCDDEDE0
:104EA000063ADDED1C1AEFE61E4B0024DDED157A07
:104EB000C3ED007A134B1C60002F45D0DFED1A7A4A
:104EC000A0211A4A3EA829EEA76A28EE277AB7EE53
:104ED000C66AB7EEC77A8DED026B8DED007B15F0DB
:104EE0009BFA3EA806F0FEFBFDF768F900287FF468
:104EF0000AAC0A4B1A68092A3FF405AC05221A606D
:104F000001E400BFA805002017B7D13894050020A0
:104F1000000000008FC2F53CB4E40108BC0500208D
:104F2000A40500208C05002000007A44F8E4010864
:104F30006F12833A3333B3BE6F12033CEC5138BE69
:104F40009A9919C0AE47613E3A973E972F973D9781
:104F500041975FED098A5FED099A5FED06AA1FEDA3
:104F600008AA1FED0A9A1FED0CBACDE93B77CDE9EF
:104F70003F77CDE930770BF0B9F8CA4B8246012074
:104F80001C60C94B56465546C3ED00BAC74B1C6062
:104F9000AAF1FA030593FBF7D3FD06970BF0A6F8E9
:104FA000A0EB0A030446B3F5FA5F80F04281831B4D
:104FB000092B40F22C81431B0A3607EE903A831BE3
:104FC000F8EE677A092B88BF064667EEA87AF4EEFA
:104FD000E87AF1EE10FA00F103819FEDB58AF4EE64
:104FE000C87AF1EE10FA38FE278AB0EE480AFBF7CD
:104FF00043FD2BAB29AA3EA900932AABAD4807F08D
:105000003FF8002800F00781DDED0C7AD8ED00CAEA
:105010007CEEE7CAB0EE6C0A14F07EF9B0EE40CA3E
:10502000B0EE6C0A14F078F8DDED2A0AF0EE401AC2
:10503000DDED297A20EE200A9DF8C4306CEE200ABE
:10504000ACEE270AE1EEE70A002B00F0D280B0EECA
:10505000482A2FA8B0EE4C1AFCF728FC9DED2F0A29
:10506000DDED300A6FEE200A934BDDED0B6AEEEEBC
:10507000C00AC3ED000AD3ED007A8B4BE8EE27BAE5
:10508000DDED157AC3ED00BA98ED007A37EE677A58
:10509000DBED007A67EEE67ADDED0D6AE6EEC77AC3
:1050A000F4EEE97AF1EE10FA00F1A0809FED837A38
:1050B000F4EEC77AF1EE10FA77FE277A804BC3ED53
:1050C000007A7D4BD3ED007A6AEEE77AEBEE8A7ACE
:1050D000F4EEC97AF1EE10FA00F185809FED797A4D
:1050E000F4EEC77AF1EE10FA77FE277A6F4B3AA901
:1050F0007048C3ED007AD3ED007AD3ED000A6EEE6E
:10510000E77A6F4B6FEE200A93ED001A20EEE10A6A
:105110006CEE200AACEE270AE1EEA70A06F038FF93
:10512000002878D03AA8FDF715F8002800F08D8007
:105130000AF0DCFF3EA907F021F990B9B9F1000FA0
:1051400008D1614806F0CEFA604B052238461A6055
:10515000FFF7D9BACDE93E00CDE940005C4806F042
:10516000C1FA059BE31AF92B4BD808F037FEF0EE95
:10517000EB7AF4EECB7AF1EE10FA2ED84E4B9FED8F
:10518000557AD3ED007AF0EEE77AF4EEC77AF1EED5
:1051900010FA22D8D8ED007ADDED156A9FED4E7A2F
:1051A00077EEE67AF0EEE77AF4EEC77AF1EE10FAEF
:1051B00013D8DBED007A9FED497AF0EEE77AF4EE52
:1051C000C77AF1EE10FA08D8069B83B3E31A3B2B9B
:1051D00065D825464FF00009E0E600230693F8E77E
:1051E000B0EE688A01E7F0EE497A7FE7F0EE697A7F
:1051F00064E701238DED2F0ACDED300A8DF8C43020
:1052000030E73EA92046FBF7E1FC0594ADE701201D
:105210000AF072FFC2E62D4B062238461A60FFF7ED
:1052200072BA1C9DF0EE607A0023199532E506945F
:10523000CFE7002303201D4A1360FBF781FCFCF736
:10524000BDFF07463846FFF75EBA204B1A68092AA9
:105250007FF47BAF3846FFF756BACDED251ACDED7A
:10526000246A8DED215A8DED207A8DED1F6ACDEDEA
:105270001E0A8DED064A13F025FFDDED251AF0EE2E
:10528000407ADDED246A9DED215A9DED207A9DED59
:105290001F6ADDED1E0A9DED064AFFF7E6BB0023FF
:1052A0000220C8E7A80500209805002094050020EA
:1052B000CDCC4C3D880B0208900500203333B33E23
:1052C000A4050020EC51383E08E40108BC0500208C
:1052D000E4E301088FC2F53C0AD7A33C0AD7233D7B
:1052E000000000001FED037A2A461995F4EEC77AF4
:1052F0005FED057AF0EE670AF1EE10FA94BF4FF019
:1053000001094FF000094B46A3E400BF2DE9F04F1F
:10531000002304462DED108BADF5177DF0EE608A6D
:10532000B0EE409A1F93B0EE418AF0EE61BACDED37
:10533000032AF0EE42DA0E90CDE92033CDE9223394
:10534000CDE92433CDE92633CDE91D33604BD3EDD0
:10535000007A604BCDED0B7AD3ED007ACDED0A7A71
:105360000AF0C4FE68EEA87A0890E9EE097AB1EE78
:10537000E77A002C00F0C080DFED577AB4EEE77AD0
:10538000F1EE10FA00F19A80DFED547AB4EEE78A7C
:10539000F1EE10FA40F2928029EE089ADFED504AC1
:1053A00068EE888A9FED4F4AB6EE006A9FED4E2A5E
:1053B000C9EE075A0DF1A00B0DF1D4094FF0010809
:1053C0001BAE1AAD1CAF19A9CBED007AC8EE876AE7
:1053D000CBED017ACBED027ACBED0C7AF0EE673AA9
:1053E000B0EE671ACBED0A5A26EE867ACBED0B6A41
:1053F00025EE866A26EEA45A27EE243AE6EE243AF3
:10540000F0EE452AF0EE431A8BED033AA6EE041AAD
:105410009FED363AE7EE042A9FED357AE6EE841AE0
:10542000E5EE823AA6EE875A25EE877AB0EE674A15
:105430008BED041AE6EE822AA6EE247ACBED051A4D
:10544000CBED063AF0EE673A8BED095ACBED072A21
:105450008BED087A07EE908A33462A465846B8EE16
:10546000E70A009708F1010880EE030AFBF7ECF960
:1054700059ED016AB8F1610FF0EE447A95ED004AFA
:10548000B0EE637AD1ED003A74EE677A33EEC77A04
:1054900067EEA77AE7EE077AB1EEE77A77EE267A3B
:1054A000E9EC017AD6D1DBED6C7A0C46B4EEE78AF2
:1054B000CBED6D7AF1EE10FA00F1F7830D4B062279
:1054C0001A6000200DF5177DBDEC108BBDE8F08F44
:1054D000AC0500208C0500206F12833A000000000C
:1054E0009A99193F9A99993ECDCCCC3D0000C04283
:1054F000CDCCCC3EBC050020C9EE075A0DF1A00B67
:10550000002291499148CBF8002001F11004CBF81A
:1055100004205A4688EE876AF0EC017A0832B1EC32
:10552000017A8C4266EE676A28EE077A65EEA77A02
:10553000E5EE876AE6EE077AC2ED006AC2ED017A0F
:10554000EAD1DFED837A68EE255A28EE066A9FEDF0
:105550008B3AB0EE674A0BF13409F0EE673A4FF040
:1055600001081BAE1AAD1CAF19A9CBED0C7ACBED1F
:105570000A5A8BED0B6A07EE908A33462A46584644
:10558000B8EEE70A009708F1010880EE030AFBF77E
:105590005BF959ED016AB8F1610FF0EE447A95EDCF
:1055A000004AB0EE637AD1ED003A74EE677A33EEDA
:1055B000C77A67EEA77AE7EE077AB1EEE77A77EE79
:1055C000267AE9EC017AD6D1DBED6C7A0C46B4EEA2
:1055D000E78ACBED6D7AF1EE10FA7FF56FAF9FEDB4
:1055E0005D7AF4EEC77AF1EE10FA7FF767AFB5EEA9
:1055F000C08AF1EE10FA7FF661AFF5EEC0BAF1EEB7
:1056000010FA7FF65BAFF5EEC0DAF1EE10FA7FF636
:1056100055AF514806F066F8DFED4DAA4F4BDDED72
:105620000A7AB0EE6ABAC3ED00AAB0EE6AAA4C4B91
:10563000B0EE6AEA9DED037AF0EE6A8AC3ED00AA45
:10564000B0EE6ADA474B77EE877AF0EE6ACACDEDB4
:1056500004AAC3ED00AA444BCDED0F7AC3ED00AA16
:10566000424BCDED05AAC3ED00AA089BA3F1FA02B7
:105670009A46994601230C92099300230D930AF050
:1056800035FD089A43F697238046821A9A4200F223
:105690009283A0EB0A03092B40F28383A0EB09035A
:1056A0009FED2C7A0AF10A0A07EE903AA0EB0A0362
:1056B000F8EE677A092B88BF824667EE877AF4EEA8
:1056C000C77AF1EE10FA00F145839FED299AF4EEC6
:1056D000C97AF1EE10FA39FE279A9BED6D7AC8EE81
:1056E000877AF5EEC07AF1EE10FA00F13683F7EE24
:1056F000009AF0EE006AF4EEE97AF1EE10FA79FE23
:10570000A79AF0EE087AE9EEE67A69EEA96A67EE02
:10571000A67ADDED0A6AF5EEC08A9DED036A154BA7
:10572000E6EE276AF1EE10FACDED066AC3ED006AE7
:1057300040F23483B4EEE87AF1EE10FA40F21283CC
:1057400035AA012322E000BF580B0208480B0208CB
:10575000000000006F12833A94E60108A8050020BB
:10576000A405002098050020940500209005002045
:10577000CDCC4C3D8C050020BD3786350000C042A5
:1057800017B7D1380133612B00F0EC8292ED007A2B
:105790000432F4EEC78AF1EE10FAF3D80BEB830271
:1057A0001FED0B6A013BD2ED0B6A07EE903A37EE24
:1057B000667AB4EEC67AF1EE10FA40F3F98278EE2A
:1057C000E66A86EE876A1FED137AF8EEE77A77EEDF
:1057D000867A87EE870A584618AB17AA16A900944E
:1057E000FBF732F894ED00CA9DED18FA6CEE0C7AD6
:1057F000EFEE0F7AF1EEE7EA5FED1F7AF4EEE7EAFB
:10580000F1EE10FA00F1E282B0EE490AFBF734F94A
:1058100033462A4624A9EB48009706F031FC0028BD
:105820003FF44CAE8CEE2E7AE74BDDED0B7A93ED28
:1058300000CA3CEE67CA8FEE2E8AB0EE4C0A8DEDA0
:10584000077A13F069FDF0EE40EAB0EE4C0A13F06F
:1058500063FCD6ED000AD5ED007AF0EE40FA20EEBA
:10586000806A9DF87C3060EEAE0A9DED077AA7EE67
:10587000AE6AE0EE670A002B00F07782B0EE460ACF
:105880001DA8B0EE492A8DED077AF0EE6F1AB0EE42
:105890006E1AFCF70BF89DED1D6ADDED1E0A9DEDFD
:1058A000077A27EE204A9BED6DCAA9EE20DADDEDDE
:1058B000173A7CEE687AC54BA8EE064A9DED163A7B
:1058C000E9EE06CAF4EEE7AA3DEEAD0A73EECD3A74
:1058D000F1EE10FAA4EE09EAF0EEC42A7AFEA77AF5
:1058E00033EE6C3A28EE235A68EE204A67EE233AEC
:1058F0007CEE4E5AA7EE435AE7EE464AF4EEE5AA8E
:10590000E8EE033AF1EE10FA7AFEA55AC7FEE57A00
:10591000D3ED005A20EE270AE2EE895AB5EE400A8E
:10592000F1EE10FAC3ED005AA94B83ED005AA94BD2
:10593000C3ED004A00F16E82F1EEC07ACBFEE77A49
:10594000B4EEE7AA6DEE895AF1EE10FA40F1FA8151
:105950003AEE25AA8AFE67AADFED9F7A63EEA73AA0
:10596000FDEE007AF4EEE73AF1EE10FA07D4F5EE28
:10597000007AF4EEE73AF1EE10FA77FEA37A7AEEC7
:10598000277AFDEE003AF4EEE37AF1EE10FA00F138
:10599000F781F4EEEB7AF1EE10FA7BFEA77A37EEA0
:1059A000C44ADFED8E6AFDEE003A24EE263AA3EEFD
:1059B00009BAB4EEE3BAF1EE10FA00F1DE81F5EEC9
:1059C000003AB4EEE3BAF1EE10FA33FE8BBADFED33
:1059D000843AE4EE237ABDEE004A77EE8B7AF4EE59
:1059E000C47AF1EE10FA05D4F4EEEB7AF1EE10FA87
:1059F0003BFEA74ADFED7B7ADFED776A67EEE47A5C
:105A0000E5EE267A9FED785AF4EEC57AF1EE10FABB
:105A100007D49FED765AF4EEC57AF1EE10FA35FE12
:105A2000275A67EE457ADBED0B3ADBED0A4A73EE57
:105A3000CD3AE8EE047A25EE088A74EEEC4AA7EE39
:105A4000048A23EEA37AB0EE67FAA4EEA47AB1EE4C
:105A5000C74A9FED677AF4EEC79AF1EE10FAC0F2EA
:105A600066819FED647AB4EEC74AF1EE10FAC4BFC6
:105A700033EEA38A34EEA4FA68EE084AB0EE647AF4
:105A8000AFEE0F7AF1EEC73A9FED567A8BFEC77AEA
:105A9000B4EEE37AF1EE10FA0ED5DFED607AF4EEB3
:105AA000E73AF1EE10FA07DDC7EE234A28EE248A22
:105AB0002FEE24FA68EE084AB1EE087ADDED037A9B
:105AC000F7EE003A404BF2EE022A27EE877A93ED8A
:105AD000003A73EEE93ADDED067A474BEFEE0F4AF6
