:020000040800F2
:1000000000000220D90700082D0800082D0800086C
:100010002D0800082D0800082D0800080000000029
:100020000000000000000000000000002D08000893
:100030002D080008000000002D080008E1BC0008A1
:100040002D0800082D0800082D0800082D080008BC
:100050002D0800082D0800082D0800082D080008AC
:100060002D0800082D0800082D0800082D0800089C
:100070002D0800082D0800082D0800082D0800088C
:100080002D0800082D0800082D0800082D0800087C
:100090002D0800082D0800082D0800082D0800086C
:1000A0002D0800082D0800082D0800082D0800085C
:1000B0002D0800082D0800082D0800082D0800084C
:1000C0002D0800082D0800082D0800082D0800083C
:1000D0002D0800082D0800082D0800082D0800082C
:1000E0002D0800082D080008000000002D08000859
:1000F0002D0800082D0800082D0800082D0800080C
:100100002D0800082D0800082D0800082D080008FB
:100110002D08000889B800082D0800082D080008DF
:100120002D0800082D0800082D0800082D080008DB
:100130002D0800082D0800082D0800082D080008CB
:1001400000000000000000000000000000000000AF
:100150002D0800082D0800082D0800082D080008AB
:100160002D0800082D0800082D0800082D0800089B
:100170002D080008E5BC00082D080008000000005C
:100180002D0800082D0800082D0800082D0800087B
:100190002D0800082D0800082D0800082D0800086B
:1001A0002D0800082D0800082D0800080000000098
:1001B0002D0800082D0800082D0800082D0800084B
:1001C0002D0800082D0800080000000000000000B5
:1001D00000000000000000002D08000800000000E2
:1001E000000000000000000000000000000000000F
:1001F00000000000000000002D0800082D08000885
:100200002D0800082D080008000000002D08000837
:100210002D0800082D0800082D0800082D080008EA
:100220002D080008000000002D0800080000000054
:100230002D0800082D080008000000002D08000807
:100240002D0800082D0800082D0800082D080008BA
:100250002D0800082D0800082D0800082D080008AA
:100260002D0800082D0800082D0800082D0800089A
:100270002D0800082D0800082D08000800000000C7
:100280002D0800082D0800082D0800082D0800087A
:10029000000000002D0800082D08000800000000E4
:1002A000000000002D0800082D0800082D08000897
:1002B0002D0800082D0800082D0800082D0800084A
:0C02C0002D0800082D0800082D0800087B
:1002D00010F8012B11F8013B012A28BF9A42F7D0F0
:1002E000D01A7047034613F8012B002AFBD1181AC5
:1002F000013870470000000000000000000000000E
:1003000001F0FF01102A2BDB10F0070F08D010F8C6
:10031000013B013A8B422DD010F0070F42B3F6D1CA
:10032000F0B441EA012141EA014122F007047FF0E3
:1003300000070023F0E80256083C85EA010586EA3A
:10034000010685FA47F5A3FA87F586FA47F6A5FA76
:1003500087F68EB9EED1F0BC01F0FF0102F0070282
:1003600032B110F8013B013A83EA010313B1F8D12D
:100370000020704701387047002D06BF354603380E
:10038000073815F0010F07D1013015F4807F02BF47
:10039000013015F4C03F0130F0BC0138704700BF98
:1003A00081F0004102E000BF83F0004330B54FEA26
:1003B00041044FEA430594EA050F08BF90EA020F93
:1003C0001FBF54EA000C55EA020C7FEA645C7FEA26
:1003D000655C00F0E2804FEA5454D4EB5555B8BF49
:1003E0006D420CDD2C4480EA020281EA030382EABA
:1003F000000083EA010180EA020281EA0303362D4C
:1004000088BF30BD11F0004F4FEA01314FF4801C1E
:100410004CEA113102D0404261EB410113F0004F30
:100420004FEA03334CEA133302D0524263EB4303E7
:1004300094EA050F00F0A780A4F10104D5F1200E85
:100440000DDB02FA0EFC22FA05F2801841F10001E0
:1004500003FA0EF2801843FA05F359410EE0A5F1B4
:1004600020050EF1200E012A03FA0EFC28BF4CF0E5
:10047000020C43FA05F3C01851EBE37101F000459B
:1004800007D54FF0000EDCF1000C7EEB00006EEBA8
:100490000101B1F5801F1BD3B1F5001F0CD3490832
:1004A0005FEA30004FEA3C0C04F101044FEA445289
:1004B00012F5800F80F09A80BCF1004F08BF5FEA10
:1004C000500C50F1000041EB045141EA050130BDF0
:1004D0005FEA4C0C404141EB0101013C28BFB1F502
:1004E000801FE9D291F0000F04BF01460020B1FA4D
:1004F00081F308BF2033A3F10B03B3F120020CDA20
:100500000C3208DD02F1140CC2F10C0201FA0CF0FD
:1005100021FA02F10CE002F11402D8BFC2F1200C62
:1005200001FA02F120FA0CFCDCBF41EA0C01904018
:10053000E41AA2BF01EB0451294330BD6FEA040461
:100540001F3C1CDA0C340EDC04F11404C4F120024C
:1005500020FA04F001FA02F340EA030021FA04F35E
:1005600045EA030130BDC4F10C04C4F1200220FAB5
:1005700002F001FA04F340EA0300294630BD21FAF3
:1005800004F0294630BD94F0000F83F4801306BFB9
:1005900081F480110134013D4EE77FEA645C18BFAD
:1005A0007FEA655C29D094EA050F08BF90EA020F44
:1005B00005D054EA000C04BF1946104630BD91EA3C
:1005C000030F1EBF0021002030BD5FEA545C05D13F
:1005D0004000494128BF41F0004130BD14F580047E
:1005E0003CBF01F5801130BD01F0004545F0FE41F2
:1005F00041F470014FF0000030BD7FEA645C1ABF27
:10060000194610467FEA655C1CBF0B46024650EA5D
:10061000013406BF52EA033591EA030F41F4002189
:1006200030BD00BF90F0000F04BF0021704730B50F
:100630004FF4806404F132044FF000054FF00001E4
:1006400050E700BF90F0000F04BF0021704730B5A5
:100650004FF4806404F1320410F0004548BF40427A
:100660004FF000013EE700BF42004FEAE2014FEACF
:1006700031014FEA02701FBF12F07F4393F07F4FAA
:1006800081F06051704732F07F4208BF704793F0AD
:100690007F4F04BF41F40021704730B54FF46074C0
:1006A00001F0004521F000411CE700BF50EA0102C3
:1006B00008BF704730B54FF000050AE050EA01026C
:1006C00008BF704730B511F0004502D5404261EBDC
:1006D00041014FF4806404F132045FEA915C3FF41D
:1006E000D8AE4FF003025FEADC0C18BF03325FEABA
:1006F000DC0C18BF033202EBDC02C2F1200300FA6B
:1007000003FC20FA02F001FA03FE40EA0E0021FA8F
:1007100002F11444BDE600BF53B94AB9002908BF2D
:1007200000281CBF4FF0FF314FF0FF3000F00CB835
:10073000ADF1080C6DE904CE1CF066FBDDF804E0B9
:10074000DDE9022304B07047704700BF0348044B43
:10075000834202D0034B03B118477047CC020020FC
:10076000CC020020000000000548064B1B1AD90FE0
:1007700001EBA301491002D0034B03B118477047A6
:10078000CC020020CC0200200000000010B5064C76
:10079000237843B9FFF7DAFF044B13B10448AFF3F2
:1007A00000800123237010BDE00200200000000043
:1007B00028D1010808B5054B1BB105490548AFF321
:1007C0000080BDE80840FFF7CFBF00BF0000000079
:1007D000E402002028D10108DFF838D000F028F822
:1007E000002103E00C4B5B58435004310B480C4B89
:1007F00042189A42F6D30B4A02E0002342F8043B27
:10080000094B9A42F9D30FF063FA19F055FE07F03D
:10081000DDFF704700000220684E04080000002041
:10082000CC020020E0020020C06C0120FEE70000A6
:10083000044AD36843F00203D36053689B04FCD599
:10084000704700BF0048025870B59AB015461E4662
:1008500086460CAA034694460CF1080C1AAC93ED9C
:10086000007A083353ED017A64450CED027A4CEDC1
:10087000017AF1D10346F1EE085A90ED016AEC4697
:10088000D3ED006A30306B46B0EE667ADEED026A78
:10089000F0EE467A9EED036A0EF1080E0CF1080C9C
:1008A00036EEC77A76EE677A704527EE257A67EEE0
:1008B000A57A0CED027A4CED017AE5D1F7EE006AEB
:1008C00002F1300C76EEC06ADDED0D5A10469DED5A
:1008D0000C6AF0EE464A90ED026AB0EE655AD0ED31
:1008E000035A26EE007A083065EE807A8445A4EE3D
:1008F000A67AE5EE267A00ED027A40ED017AE8D19B
:10090000ACF1080C6245DFD103F1280CDDED015A92
:1009100018469DED006AF0EE464A90ED026AB0EE90
:10092000655AD0ED035A26EE007A083065EE807ADB
:100930006045A4EEA67AE5EE267A00ED027A40ED57
:10094000017AE8D1A0F1080C6345DFD10C9B009A35
:100950000B600D9B2B603260019B1E9A13601AB0D6
:1009600070BD00BFF7EE007ADFED1A5AF0EE084ACC
:100970009FED196A20EE004A9FED183A77EEC07A93
:10098000DFED173A60EEA55ABEEE007A67EEA76A71
:1009900067EEA47A20EE045A66EEA46A67EE847AC3
:1009A00020EE866A26EE800A27EE877A67EEA57A21
:1009B00060EEA30ADFED0B3AA0EE037AE0EE067AD2
:1009C000A5EE237AE5EE207A80ED007AC1ED007A7B
:1009D000704700BF9A99193FCDCCCC3E9A9919BE69
:1009E000B7D1303F0AD77BC0164A012100231648F1
:1009F00010B51170154C164A037013702370154A08
:100A000015481649164C136003600B700FF01EFA60
:100A1000144AFA38237810604BB113480AF012FDDB
:100A2000237853B11148BDE810400AF0D7BC1048F4
:100A30000AF008FD2378002BF4D10E48BDE81040E1
:100A40000AF0CCBC6C0500207A0500207905002056
:100A500078050020FC040020740500206F050020AC
:100A60006D0500206805002098D10108E0D101083B
:100A7000BCD10108FCD1010800B58BB000234FF0B8
:100A8000000C03AA04A807A98DED010A0693099397
:100A9000CDF80CC0CDE90433CDE907330EF050FF9B
:100AA000DDED087A1F4B9DED077AF1EE677ADDEDFB
:100AB000066A0398B1EE477A1B49F1EE666A1B4A53
:100AC000D3ED015A086093ED006A77EEE57A92ED76
:100AD000005A174B37EE467A76EEC56A154993ED04
:100AE000016A154A77EEC67AD3ED005AC1ED006A65
:100AF0009FED125A37EE657AD1ED004AD2ED006AC9
:100B0000A7EE856A9DED010AE7EE055AF0EE667ADA
:100B1000E4EE807A83ED016AC3ED005AC2ED007AFB
:100B20000BB000BD840500209C050020B40500200A
:100B30007C050020B0050020AC050020CDCC4C3E4B
:100B400010B582B004460FF081F9144B1449154AD0
:100B50000094DFF868C00978126893ED000A124B20
:100B6000DCED000A93ED001ADFF854C00F4BDCED0A
:100B7000001A93ED002ADFF84CC00D4BDCED002A83
:100B800093ED003ADFF840C00A4BDCED003A93EDFC
:100B9000004A094B0CF06EFC02B010BDB0050020FD
:100BA000C0050020BC050020A8050020A0050020ED
:100BB000980500209005002020060208AC050020C2
:100BC000A40500209C0500209405002000B5DFF856
:100BD0006CC00B46DFF868E083B0174A9EF800103F
:100BE00012689CED000ADFF85CC0DCED000ADFF85B
:100BF00058C09CED001ADFF854C0DCED001ADFF895
:100C000050C09CED002ADFF84CC0DCED002ADFF874
:100C100048C09CED003ADFF844C0DCED003ADFF854
:100C200040C09CED004A4FF0000CCDF800C00CF025
:100C300021FC03B000BD00BFBC050020B0050020B2
:100C4000C0050020AC050020A8050020A405002058
:100C5000A00500209C050020980500209405002098
:100C60009005002070B5CCB003468021494A0CA8FD
:100C700019F082FA48490CA819F056FB002872D0E6
:100C80000346002406AD01E0062C0BD045F8043BDA
:100C900000204149013419F047FB03460028F3D1F5
:100CA000062C60D13D490698FFF712FB00285AD167
:100CB0003B490798FFF70CFB002854D139490898A5
:100CC000FFF706FB00284ED137490A98FFF700FBD3
:100CD000002848D1099C0A2205A9204619F07EF96E
:100CE00022780546002A47D0059B1B78002B43D16C
:100CF000012841D80B9E04A9304619F0B1F8337889
:100D0000002B40D0049B1B78002B3CD1F0EEC07A26
:100D10009FED267AF4EE477AF1EE10FA33D8B5EE6D
:100D2000C00AF1EE10FA2ED4DFED217AB4EEE70A14
:100D3000F1EE10FA27DCE8B28DED030A0AF0E8FACA
:100D40009DED030A2B461B4AB7EEC00A80212CA852
:100D50008DED000B19F010FA2CA80AF03FFB2CA81F
:100D60000AF024FB05E014480AF038FB12480AF0A8
:100D70001DFB01204CB070BD10480AF02FFB0F483E
:100D80000AF014FBF5E70E480AF028FB0C480AF0BD
:100D90000DFBEEE718D201081CD2010844D201086D
:100DA00050D2010854D201085CD20108FFFF7F7FB6
:100DB00000003443B8D2010820D2010868D20108EB
:100DC00090D201082DE9F041B2B006460F46904698
:100DD000A021384B384A0AA819F0CEF937490AA899
:100DE00019F0A2FA90B10346002401AD45F8043F82
:100DF00000203249013419F097FA0346002855D0F3
:100E0000082CF3D1029B1A78522A03D0002032B06A
:100E1000BDE8F0815A784B2AF8D19B78002BF5D1A8
:100E200027490398FFF754FA0028EFD12549049881
:100E3000FFF74EFA0028E9D131460598FFF748FA46
:100E40000028E3D120490698FFF742FA0028DDD1B7
:100E50001E490898FFF73CFA0028D7D1099C1C4985
:100E60002046FFF735FA28B11A492046FFF730FA35
:100E70000028CBD1079D0A2201A9284619F0AEF817
:100E80002B780246002BC1D0019B1B78002BBDD1D3
:100E90000028BBD00E4920463A60FFF719FAB0FA95
:100EA00080F301205B0988F80030B0E7082CADD151
:100EB000A8E700BF8003002018D201081CD2010857
:100EC000E8D20108ECD20108FCD2010800D30108E5
:100ED00008D301080CD301082DE9F041AAB0064659
:100EE0000F4690468021384B384A0AA819F044F939
:100EF00037490AA819F018FA90B10346002401AD49
:100F000045F8043F00203249013419F00DFA034638
:100F1000002855D0082CF3D1029B1A78522A03D00E
:100F200000202AB0BDE8F0815A784B2AF8D19B788E
:100F3000002BF5D127490398FFF7CAF90028EFD114
:100F400025490498FFF7C4F90028E9D131460598EE
:100F5000FFF7BEF90028E3D120490698FFF7B8F95A
:100F60000028DDD11E490898FFF7B2F90028D7D133
:100F7000099C1C492046FFF7ABF928B11A492046C5
:100F8000FFF7A6F90028CBD1079D0A2201A9284620
:100F900019F024F82B780246002BC1D0019B1B7856
:100FA000002BBDD10028BBD00E4920463A60FFF788
:100FB0008FF9B0FA80F301205B0988F80030B0E7C0
:100FC000082CADD1A8E700BFFC02002018D2010810
:100FD0001CD2010814D301081CD30108FCD201085B
:100FE00000D3010808D301080CD301082DE9F04F04
:100FF000DFB0602106A80EF089F9002800F0148106
:101000008C4B06461978002900F05A830DF1180917
:10101000894C8A4D09EB060899F8003026680A2B9E
:1010200018BF0D2B0CBF0127002740F005830023BC
:1010300083498248AB5519F0DDF98246002800F05B
:101040000683AA4509D05046FFF74CF9064651469B
:101050002846721C19F034F92660002E00F0E48254
:10106000784B1B780F2B00F000832B46764AA0218B
:1010700036A819F081F8754936A819F055F90346D4
:10108000002800F015811EAE4FF0000AB3464BF861
:10109000043B00206D490AF1010A19F045F90346A5
:1010A000002800F00181BAF10C0FF0D133681A78F2
:1010B000522A40F0FD805A784B2A40F0F9809B7804
:1010C000002B40F0F58062497068FFF701F90028B5
:1010D00040F0EE805F49B068FFF7FAF8002840F072
:1010E000E7805D49F068FFF7F3F8002840F0E08002
:1010F0005A493069FFF7ECF8002840F0D980584988
:10110000B069FFF7E5F8002840F0D2805549306A11
:10111000FFF7DEF8002840F0CB805349B06AFFF7B4
:10112000D7F8002840F0C480D6F814B00A2205A9E8
:10113000584618F053FF9BF800300290002B00F047
:10114000B780059B93F800B0BBF1000F40F0B08072
:10115000002800F0AD80F369444918460393FFF777
:10116000B7F8002800F0788303984149FFF7B0F8FA
:10117000002840F09D80736A0A2205A9184603934F
:1011800018F02CFF039B1B78002B00F09180059B2F
:101190001B78002B40F08C80B0F5E17F40F0888018
:1011A000F66A0A2205A9304618F018FF3378002B9A
:1011B0007ED0059B1B78002B7AD1B0F5B47F77D118
:1011C0002C4B1A782C4B1878024340F013832B4A8F
:1011D0002B4812680068024340F00C8301200299FA
:1011E0001870284B83F800B0274B1960274B1A70F2
:1011F000274B1A70274B1A70274B1A70274B1A70FF
:10120000BBF1000F00F02E831849029B36A8244A38
:101210000091802118F0B0FF36A80AF0DFF82148CD
:101220000AF0C4F800232360002738465FB0BDE809
:10123000F08F00BFC8040020C40400202404002054
:1012400070D30108C005002018D201081CD2010883
:1012500014D301081CD30108A0D30108FCD2010853
:1012600000D30108A8D301085CD2010808D3010803
:101270000CD30108F9040020E5040020E804002054
:10128000DC040020E4040020E0040020D804002056
:10129000D7040020D6040020D5040020D404002068
:1012A000CCD30108F4D30108BAF10C0F3FF4FEAE21
:1012B0002368002B00F0B8812B46814AA02136A874
:1012C00018F05AFF7F4936A819F02EF80346002877
:1012D00039D04FF0000A0DF1780B4BF8043B002099
:1012E00078490AF1010A19F01FF80346002800F0B6
:1012F000B781BAF10C0FF0D11E9B1A78522A22D175
:101300005A784B2A1FD19B78EBB96F491F98FEF78B
:10131000DFFFC0B96D492098FEF7DAFF98B96C4934
:101320002198FEF7D5FF70B96A492298FEF7D0FFE1
:1013300048B969492498FEF7CBFF20B9269B1A7853
:101340004C2A00F0F3812368002B00F06D812B46BE
:101350005B4AA02136A818F00FFF5A4936A81EAEE6
:1013600018F0E2FF0346002800F0D0804FF0000A9A
:10137000B3464BF8043B002052490AF1010A18F029
:10138000D3FF0346002800F0BD80BAF10A0FF0D168
:1013900033681A78522A40F0B9805A784B2A40F0C4
:1013A000B5809B78002B40F0B18047497068FEF70C
:1013B0008FFF002840F0AA804449B068FEF788FFFC
:1013C000002840F0A3804549F068FEF781FF00281F
:1013D00040F09C803F493069FEF77AFF002840F0DA
:1013E00095803D49B069FEF773FF002840F08E807C
:1013F0003B49306AFEF76CFF002840F08780D6F842
:101400001CB038495846FEF763FF28B136495846A4
:10141000FEF75EFF002879D1736905A90A221846F4
:10142000029318F0DBFD029B82461B78002B6DD0E7
:10143000059B05A91B78002B68D1002866D0736A2C
:101440000A221846039318F0C9FD039B02901B78EB
:10145000002B5BD0059B1B78002B57D1431E062B1E
:1014600054D858461F49FEF733FF204BB0FA80F09E
:101470001A784009002A49D11D4A1268524545D1BF
:101480001C4A1278824241D1012119701A4B0299EB
:10149000C3F800A0194B1960002A00F0E581114A39
:1014A000029B6021009236A801935346144A18F01B
:1014B00063FE36A809F092FF00232360B5E600BF63
:1014C00018D201081CD2010814D3010824D3010842
:1014D000A0D30108FCD2010800D30108B8D4010848
:1014E000C0D4010808D301080CD30108F904002076
:1014F000E8040020F8040020F4040020EC0400209C
:10150000C8D40108BAF10A0F3FF442AF2B46734A20
:10151000A02136A818F030FE714936A818F004FF53
:101520000346002865D00DF1740A00274AF8043FED
:1015300000206B49013718F0F7FE0346002856D00B
:10154000082FF3D133681A78522A52D15A784B2A8D
:101550004FD19B78002B4CD162497068FEF7B8FEE2
:10156000002846D16049B068FEF7B2FE002840D19D
:101570005E49F068FEF7ACFE00283AD15C4930695C
:10158000FEF7A6FE002834D15A49B069FEF7A0FE46
:1015900078BBD6F81CA058495046FEF799FE20B1FA
:1015A00056495046FEF794FE18BBD6F814B00A22EE
:1015B00005A9584618F012FD9BF800300746C3B144
:1015C000059B1B78ABB9A0B150464B49FEF780FE96
:1015D0004B4BB0FA80F01B684009BB4209D1494B24
:1015E0001B78834205D1484B01221A701CE0082F5A
:1015F000A8D04649284618F0FDFE00285ED0444F8A
:101600003B46444A6021304618F0B6FD304609F0AA
:10161000CDFE26683B46404A602136A8009618F069
:10162000ABFD36A809F0DAFE0023236009F10109B9
:10163000C8457FF4F1ACF7E5721C9F2A02D82260FE
:10164000AB55F3E73548276009F0C8FEEEE72F49B0
:10165000284618F0CFFE824600287FF4F2ACFCE466
:10166000BAF10C0F7FF46FAE46E62D494C23DFF83C
:10167000B8E001F10C0B0A78A3F1610CA3F120068C
:101680000131A2F12000A2F1610A5FFA8CFCF6B2EE
:10169000C0B2BCF1190F98BF3346BAF1190F98BF09
:1016A00002469A427FF4E1AC8B451EF8013FE2D13D
:1016B0001B48FFF7D7FA00232360B5E50A4F9FE7E1
:1016C00001220F201A701D220BF04EFF002800F09F
:1016D0008D80144809F06AFE98E400BF18D2010812
:1016E0001CD2010814D3010824D30108F8D401083E
:1016F000FCD2010800D3010808D301080CD301086B
:10170000E8040020F8040020E704002080D301084A
:101710001CD3010800D5010820D5010848D50108CF
:10172000240400202CD3010890D301085A78312AD0
:101730007FF409AE9B78002B7FF405AE289B1A78C6
:101740004C2A7FF400AE5A78322A7FF4FCAD9B78A5
:10175000002B7FF4F8AD239B0A2205A918460293BB
:1017600018F03CFC029B83461B78002B3FF4EBAD4A
:10177000059B1B78002B7FF4E6AD00283FF4E3AD1A
:10178000279B02935B78002B7FF4DDAD299B93F8B8
:1017900001A00393BAF1000F7FF4D5AD334925982A
:1017A000FEF796FD00285AD025983149FEF790FDA6
:1017B00000287FF4C8AD029B1E78A6F14103032BDD
:1017C0003FF6C1AD039B1878A0F14103032B3FF610
:1017D000BAAD86423FF4B7AD264B197811B9264908
:1017E000096859B1254809F0F9FD1DE7244809F0B9
:1017F000DDFD0BE4234809F0F1FD13E501221A7029
:101800001E22214B83F800A0204BC3F800B0204BD0
:101810001E70204B18700F201F4B19600BF0A4FE98
:10182000A0B11E4809F0C2FDBAF1000F12D00F4A54
:101830005B466021009236A8194A18F09DFC36A834
:1018400009F0CCFD174809F0B1FD35E6164809F05E
:10185000ADFDE9E7064AEBE74FF0010B8BE44FF0F3
:10186000010AA8E70249D0E4014A19E608D30108B1
:101870000CD30108F9040020E804002014D4010866
:101880004CD30108B4D30108F8040020F40400206C
:10189000F1040020F0040020EC0400202CD4010806
:1018A00070D4010898D401084CD401085F4BB9EEFC
:1018B000007AD3ED007AF4EEC77AF1EE10FA00F177
:1018C0009F80B1EE007ADFED5A6AF4EEC77AF1EE4E
:1018D00010FA37FE277AF0EEC77AF4EEE67AF1EEE8
:1018E00010FA40F28A80B5EEC07AF1EE10FA40F3B9
:1018F000998037EE667AF9EE007AD3ED016AF4EE5C
:10190000E76AF1EE10FA00F18480F1EE007A9FEDC3
:10191000486AF4EEE76AF1EE10FA77FEA67AF0EE86
:10192000E76AF4EEC66AF1EE10FA75D9F5EEC07A00
:10193000F1EE10FA73DD77EEC67A61EEA75A90EDFC
:10194000006A61EE277AD0ED016A9FED3A5AE1EE26
:10195000075AE1EEC77AA5EE826AE7EE826A76EE72
:10196000407AF4EEC57AF1EE10FA4FD49FED327A58
:101970009FED2F6AF4EEC77AF1EE10FA37FE277A60
:1019800027EE066A76EEE07A9FED2A7AF4EEC77AC1
:10199000F1EE10FA37D49FED287ADFED256AF4EEE8
:1019A000C77AF1EE10FA77FE277A67EEA67A30EE64
:1019B000067ADFED226AB0EEC00A70EEA77A80EDFB
:1019C000007AB4EEE60AC0ED017AF1EE10FA13D80F
:1019D000F0EEE00AF4EEE60AF1EE10FA0CD8184B3D
:1019E000D3ED007AF0EEE77AF4EEE67AF1EE10FA53
:1019F00002D800230360436070479FED127A7AE7B4
:101A00009FED117A77E7DFED117AD0E79FED0F6A4E
:101A1000B8E7DFED0D7A90E7DFED0A7A8DE777EE34
:101A2000867A8AE737EE267A65E700BF7C050020D4
:101A30000AD7A33D9A9919BE9A99193E0AD7A33C91
:101A4000A80500200000000048E17AC0A69B44BC25
:101A5000F8B50B780E460746F3B101380D4602E0A3
:101A600015F8013FC3B110F8012FA3F16101A3F1F3
:101A7000200EA2F1200CA2F16104C9B25FFA8EFE21
:101A80005FFA8CFC192998BF7346192C98BF6246DF
:101A90009A42E5D00020F8BD3046FEF723FC385CC2
:101AA0002C2818BF00280CBF01200020F8BD00BF63
:101AB0002DE9F047D4B0802104A80DF027FC28B30D
:101AC00004AC464DDFF8448100272618DFF840912A
:101AD00007E0501C9F281CD8286008F80230A64256
:101AE00014D014F8013B2A680D2B06D0A3F10A018B
:101AF000B1FA81F149090029EBD008F8027012B15E
:101B0000D9F800303BB9A6422F60EAD154B0BDE805
:101B1000F0872960E3E732480DF10B0203A9FFF7D4
:101B200051F920B1039BD9F80020934227D00DF141
:101B30000B0203A92B48FFF745F920B1039BD9F805
:101B4000002093422CD00DF10B0203A92648FFF789
:101B500039F90028D7D0039BD9F800209342D2D17D
:101B600022499DF80B2009788A42CCD120490120D6
:101B70000870002A2FD01F4A00921B4A1DE01B4A02
:101B80009DF80B1012789142D1D11B49097811B9F7
:101B90001A4901200870D2B1164A0092104A0CE08E
:101BA000124A11789DF80B208A42CCD114490120A9
:101BB000087072B10F4A00920A4A0192C021114A7C
:101BC00024A818F0D9FA24A809F008FC9BE70E4ACB
:101BD000E3E70D4AEFE70C4ACEE700BF2004002000
:101BE00074D50108B4D50108F8D40108CD0400204B
:101BF000CA04002008D30108C9040020CC04002036
:101C0000CB0400207CD501080CD301088003002000
:101C1000D00400202DE9F04104460138504E5223F3
:101C200004F11E08054615F8012FA3F1610EA3F17A
:101C3000200CA2F12001A2F161075FFA8EFE5FFA8B
:101C40008CFCC9B2BEF1190F98BF6346192F98BF1B
:101C50000A469A420DD1454516F8013FE3D10123CA
:101C60004049414A0B7041481370BDE8F04109F00A
:101C70009DBB3F4E04F110080546522315F8012F75
:101C8000A3F1610EA3F1200CA2F12001A2F16107E2
:101C90005FFA8EFE5FFA8CFCC9B2BEF1190F98BFD5
:101CA0006346192F98BF0A469A420BD1454516F84C
:101CB000013FE3D12F4B00222F481A70BDE8F041BD
:101CC00009F074BB2D4F04F10F080646522316F895
:101CD000012FA3F1610CA3F12005A2F12001A2F1D3
:101CE000610E5FFA8CFCEDB2C9B2BCF1190F98BF5E
:101CF0002B46BEF1190F98BF0A469A4208D1B0454B
:101D000017F8013FE3D11E48BDE8F04109F04EBB92
:101D10001C4E0B34522310F8012FA3F1610CA3F1D8
:101D20002005A2F12001A2F161075FFA8CFCEDB25F
:101D3000C9B2BCF1190F98BF2B46192F98BF0A469C
:101D40009A420BD1A04216F8013FE4D1064B012282
:101D50000D481A70BDE8F04109F028BBBDE8F081DC
:101D6000BCD50108790500207A05002044D6010879
:101D70006CD601086C05002018D6010830D6010881
:101D8000F0D5010808D60108DCD501082DE9F04F8F
:101D90000446ADF51B7D0EF059F85CB182464B4907
:101DA0002046FEF795FA28B9494B1D7815B9494BDD
:101DB0001B6843B9484B06221A60002528460DF5DA
:101DC0001B7DBDE8F08F434E4021444A12A800938A
:101DD000234618F0D1F93368414A4021009322A8E4
:101DE0002346AAF1C80B18F0C7F9326823464021F0
:101DF000009232A83B4A02AF18F0BEF93A4809F007
:101E000021FB2E460EF022F8A0EB0B03C72B30D897
:101E1000402138460DF07AFAD0B107EB00093C4674
:101E20000DF5B47807E0FF2A0ED8013408F8053024
:101E300015464C450CD023786A1C0D2B01D00A2B7B
:101E4000F1D108F80560CDB9013400254C45F2D137
:101E50000DF0FCFF43F69723A0EB0A00984224D82C
:101E600001200DF0F9FF0DF0F1FFA0EB0B03C72BE4
:101E7000CED9834612A809F0B1FAC9E74046FFF768
:101E8000C9FE22A94046FFF7E3FD054632A94046B8
:101E90003DB9FFF7DDFD0028D6D00F4B0A221A60AE
:101EA0008BE7124809F0CEFA88E70B490820094B66
:101EB0000F4A1B680860602142A818F05DF942A82B
:101EC00009F08CFA0B4809F0BDFA76E7ECD201086C
:101ED0006D05002060050020BC05002080D60108AB
:101EE00098D60108B4D60108CCD60108F0D601086E
:101EF00014D7010848D701082DE9F04790B00DF03C
:101F0000A5FF404B1B7823B93F4A1368C31AF92B2E
:101F100066D8402168460DF0F9F9F0B16C463B4EA9
:101F20003B4D271806E0501C5F2819D83060AB5491
:101F3000BC4212D014F8013B32680D2B06D0A3F13D
:101F40000A01B1FA81F149090029ECD00023AB5410
:101F50005AB90023BC423360ECD110B0BDE8F08721
:101F60002C48316009F06EFAE2E72B4809F01EFABE
:101F7000284609F01BFA294809F018FA284B1A7864
:101F80000F2A06D01B78072B03D02846FFF742FE06
:101F9000DFE71F494C23DFF8A48001F10C0A0A781F
:101FA000A3F1610EA3F120000131A2F1200CA2F1F6
:101FB00061095FFA8EFEC0B25FFA8CFCBEF1190FA8
:101FC00098BF0346B9F1190F98BF62469A42DCD117
:101FD0008A4518F8013FE2D10D48FEF743FEB8E705
:101FE0001049114B10600A781B7822B933B10F48A1
:101FF00009F0F4F98DE71BB10D48F9E70D48F7E753
:102000000D48F5E77805002068050020FC04002055
:1020100000050020B0D70108A0D70108ACD70108FF
:10202000C00500206C0500206D05002070D7010858
:10203000E0D1010888D70108FCD1010890D301083C
:1020400030B59FB00DF002FF294B04461B78E3B179
:102050002849294B0A78EAB12849294D0A68A21A69
:10206000B2F5967F2AD2274B1B6843B9264B1B68D3
:10207000002B36D1254B1B780BB9FFF73DFF287895
:10208000003818BF01201FB030BD1A49204B0A7814
:10209000002AE1D101201A4D05930870A4F596702D
:1020A00016492A7008601B48049109F0CBF9DDE954
:1020B00004130A68A21AB2F5967FD4D30C604FF4C9
:1020C000167240F29D1106A8CDE9012140F28A2145
:1020D000114A0091602118F04FF806A809F07EF926
:1020E000C1E70E4B1B78002BC9D1FEF77FFFC6E777
:1020F0006D0500207805002008D301087405002034
:1021000079050020DC040020E80400206F05002091
:102110000CD30108D4D7010800D80108E604002038
:10212000144B1B6810B5044682B03BB9124B1B68B8
:102130008BB9124B1B780BB9FFF7DEFE0AF0EEF9F4
:1021400018B901900AF0F0F960B9204602B0BDE874
:10215000104009F075BF0A4B1B78002BEED1FEF73B
:1021600045FFEBE7FEF740FC064A092101981160A4
:1021700002B010BDDC040020E80400206F05002040
:10218000E6040020BC050020154B1B6800B583B099
:102190003BB9144B1B68A3B9134B1B780BB9FFF762
:1021A000ABFE0AF0BBF918B901900AF0BDF978B995
:1021B0000DF04CFE09F0B4FE03B05DF804EB09F03D
:1021C0006FBF0A4B1B78002BEBD1FEF70FFFE8E740
:1021D000FEF70AFC064A09210198116003B000BD10
:1021E000DC040020E80400206F050020E604002045
:1021F000BC050020F8B50E46174604460DF026FE35
:102200000546FFF71DFF154B1B78D3B9304609F083
:1022100019F909E0FFF714FF98B9FFF7B5FF034676
:1022200001209BB10DF018FE0DF010FE401BA042E6
:10223000F0D30B4809F006F90A4B08221A60002077
:10224000F8BD384609F0FEF80120F8BD054B1A68C4
:10225000092AF4D005221A60F1E700BF79050020B1
:102260003CD80108BC0500202DE9F04FADF54B7DB1
:1022700082460DF0EBFDA74B05901A6812F101099B
:1022800000F0C5814A46DFF8E0B240F6B8381A607F
:102290009BF80030059A002B9F4BA2F1C801A2F1D8
:1022A0000A021B7808BF4FF4E16807910692002BE1
:1022B00000F0AB81994C9A495046FEF709F84EF66A
:1022C000602347F230524021CDE900940024A0421F
:1022D00008BF1A46934B1AA81C70934B09921C70A6
:1022E0005346924A17F048FF5346914A40212AA884
:1022F000CDF8009017F040FF53468E4A40213AA88F
:10230000CDF8009017F038FF53468B4A40214AA879
:10231000CDF8009017F030FF5346884A40215AA864
:10232000CDF8009017F028FF5346854A40216AA84F
:10233000CDF8009017F020FF5346824A40217AA83A
:10234000CDF8009017F018FF53467F4A6021B2A8DD
:10235000CDF8009017F010FFB2A809F073F80DF057
:1023600075FD059B054604940893069BCDF80C90DB
:10237000EB1A092B40D8079BEB1AC72B46D800272E
:102380000DF12809402148460CF0C0FF00B309EBCD
:1023900000064D46204609E0421C5F2A44D80DEB5A
:1023A0000004104684F86832B54210D015F8013B9D
:1023B0000D2B01D00A2BEFD10DEB0003002283F887
:1023C0006822002834D1B5424FF00000EED1044617
:1023D0000DF03CFD002F40F0F880059BC01A4045F1
:1023E00080F0348101200DF037FD0DF02FFD069BAC
:1023F0000546EB1A092BBED9FFF7C6FE002800F0F0
:102400006881079B0695EB1AC72BB8D91AA808F064
:10241000E5FF53464D4A6021B2A817F0ADFEB2A8C1
:1024200008F0C4FF0795AAE7494809F00BF8CAE786
:10243000484808F0BBFF9AA808F0B8FF464808F0E3
:10244000B5FF9AA8FFF7E6FB40F6B8339BF80020EB
:102450003AA943459AA838BF4346002A18BF984670
:10246000FFF7F6FA0446002800F08080002F00F005
:10247000A880039B6021394AB2A80093534617F005
:102480007BFEB2A808F0DEFF4AA99AA8FFF7E0FA9F
:10249000002872D17AA99AA8FFF7DAFA074600282D
:1024A00040F0B8806AA99AA8FFF7D2FA80B142F644
:1024B000E06398450AD0039B6021294AB2A80093A3
:1024C000534617F059FEB2A808F0BCFF42F6E06888
:1024D000DCB19AA85AA9FFF7BBFA08B9274663E707
:1024E0000DF0B4FC039BA0F1C8041E4A60210093C8
:1024F00005905346B2A8079417F03EFEB2A808F024
:10250000A1FF40F6B83800230493B54200F0948050
:1025100000204BE7640500206D05002008D301086A
:1025200064D80108710500207005002070D80108EA
:1025300090D80108A8D80108C0D80108D8D8010847
:10254000F0D80108B4D6010808D9010894D90108C7
:102550009CDA0108A0D70108ACD70108ACD9010862
:1025600054DA010870DA01087A0500204AA99AA80D
:102570003C46FFF76DFA00288CD059495046DDF8EB
:102580000C90FDF7A5FE00285AD156499AA817F0DD
:1025900031FF011E18BF0121534C5346534AB2A8C4
:1025A000CDF800902170602117F0E6FDB2A808F088
:1025B00049FF2378002B45D101200DF54B7DBDE867
:1025C000F08F0DF043FC049053E701200DF044FC24
:1025D0000DF03CFC049B099A0546C31A93424CD269
:1025E000069BEB1A092B0AD8089BEB1AB3F57A7FE6
:1025F000FFF4C8AE2AA808F0F1FE0895C2E6FFF77E
:10260000C3FD002865D00695EEE7394C53E601225C
:10261000914638E6DDF80C905346364A6021B2A860
:10262000CDF8009017F0A8FDB2A808F00BFF324BD0
:102630000A221A600020C0E700240DF007FCCCE657
:102640000021A9E72D4808F0FDFEB5E7DDF80C9064
:1026500053462B4A6021B2A8CDF8009017F08CFDAC
:10266000B2A808F0EFFE00210122234B8BF80010E6
:102670001D490A7008221A60DCE7DDF80C90534609
:10268000204A6021B2A8CDF8009017F075FDB2A8DD
:1026900008F0D8FE53461C4A40218AA8CDF8009085
:1026A00017F06AFD8AA808F099FE8AA808F096FE3D
:1026B0005346164A6021B2A8CDF8009017F05CFD91
:1026C000B2A808F0BFFE0123074A1370104A137026
:1026D00072E7094B1A68092AACD005221A60A9E7EB
:1026E00064D80108C4D9010871050020D8D90108AF
:1026F0000CD3010830DA0108BC050020F4D9010828
:10270000B8DA010824D9010848D9010860D90108BC
:10271000700500202DE9F04FADF5617D0C46079066
:102720000DF094FBA54B0C901A6812F1010800F013
:1027300096814246DFF8C8A240F6B8371A609AF888
:1027400000209F4B002A0C9A1B78A2F1C801A2F12D
:102750000A0208BF4FF4E1670A910992002B00F0CA
:102760007B81984B0D93002C00F04C810D9BC0A8F1
:10277000954A8021009302230F900193434617F05E
:10278000FBFC38A84346914A6021049017F0F4FC02
:1027900050A843468E4A6021059017F0EDFC68A8CA
:1027A00043468C4A6021069017F0E6FC20A8434679
:1027B000894A60210E9017F0DFFC884B0893079B35
:1027C0008021874AA0A802930D9BCDE90083089B36
:1027D00017F0D2FCA0A808F035FE0DF037FB00235F
:1027E00004461D460B93099BE31A092B3DD80A9B0F
:1027F000E31AC72B43D810AE402130460CF086FDBB
:102800008346002800F044814FF000090024284648
:1028100008E0421C7F2A45D880A90B541046013499
:102820005C450DD2335D0D2B01D00A2BF1D1002375
:1028300080AA1354002839D1013400205C45F1D31B
:1028400005460DF003FBB9F1000F7ED10C9BC01AB9
:10285000874240F2248101200DF0FEFA0DF0F6FAD5
:10286000099B0446E31A092BC1D9FFF78DFC002808
:1028700000F03F810A9B0994E31AC72BBBD90F983C
:1028800008F0ACFD079B574A80210293A0A80D9B3E
:10289000CDE90083089B17F06FFCA0A808F086FD27
:1028A0000A94A8E7504808F0CDFDC5E74F4808F066
:1028B0007DFD80A808F07AFD4D4808F077FD80A8DE
:1028C000FFF7A8F940F6B8339AF8002080A80499D9
:1028D000002A18BF1F46FFF7BBF8054678B1B9F1CB
:1028E000000F2ED0079B8021424AA0A8A946CDE91F
:1028F0000083089B17F040FCA0A808F0A3FD0599F1
:1029000080A8FFF7A5F8002840F0AC8080A80699C1
:10291000FFF79EF8002882D00799A0A8089B364AA6
:10292000CDE90081802117F027FCA0A808F08AFDDE
:10293000324B0A221A60002528460DF5617DBDE85C
:10294000F08F0DF083FA0B90CCE7012047F22F5463
:102950000DF082FA0DF07AFA83460B9B099AABEBE5
:102960000303ABEB0202A34200F2B080092A1CD899
:102970000A9BABEB0303B3F57A7F10D240213046BC
:102980000CF0C4FC834600287FF440AF0DF05EFAE3
:1029900001200DF061FA0DF059FA8346DDE70E983B
:1029A00008F01CFDCDF828B0E8E7FFF7EDFB0028A4
:1029B00000F09F80CDF824B0DAE700BF6405002066
:1029C0006D05002008D30108F0DA010828DB0108B2
:1029D00054DB010880DB0108A4DB0108E4DA01080C
:1029E00044DC0108B4DC010880DD0108A0D701083F
:1029F000ACD70108F0DC010850DD0108BC0500205F
:102A00007A050020079BC0A83E4A802101930D9BB8
:102A10000F900093434617F0AFFB38A843463A4A5D
:102A20006021049017F0A8FB50A84346374A602164
:102A3000059017F0A1FB68A84346354A602106902F
:102A400017F09AFB20A84346324A60210E9017F0F7
:102A500093FB314B0893B2E6304B0D9383E6012292
:102A6000904667E6079B05462D49002001932D4AB5
:102A7000089BCDF8008008708021A0A817F07CFB8F
:102A8000A0A808F0DFFC28460DF5617DBDE8F08FB9
:102A90000DF0DCF90C9BC31ABB42FFF4DCAEDDE9A0
:102AA00007238021A0A80192CDF800801E4A17F0CC
:102AB00063FBA0A808F0C6FC194A012100201B4BAB
:102AC000117008228AF800001A6034E70799A0A85C
:102AD000089B174ACDE90081802117F04DFBA0A883
:102AE00008F0B0FC0E490120104B082208701A6053
:102AF00021E70E4B1A68092A3FF41DAF05221A6020
:102B000019E700BFC8DB0108FCDB010820DC010875
:102B100080DB0108A4DB0108DCDA01080CD3010822
:102B20007105002020DD0108A8DD0108BC0500209A
:102B300080DC01082DE9F04FADF5077D83460DF0EF
:102B400085F9A34B05901A6812F1010A00F0DE80A6
:102B50005246DFF8EC8240F6B8361A6098F800303A
:102B6000059A002B9B4BA2F1C801A2F10A021B7827
:102B700008BF4FF4E16603910492002B00F0C4807B
:102B8000954B0027954A402116A8CDE900A3944B08
:102B90001F705B4617F0F0FA5B46924A402126A868
:102BA000CDF800A017F0E8FA5B468F4A402136A81E
:102BB000CDF800A017F0E0FA5B468C4A402146A809
:102BC000CDF800A017F0D8FA5B46894A60216EA8BC
:102BD000CDF800A017F0D0FA6EA808F033FC0DF085
:102BE00035F9049B0446C31A092B76D8039BE31AD4
:102BF000C72B7BD8402106A80CF088FB00285BD0AF
:102C000006AC251809E07A1C5F2A5FD86F4487F864
:102C1000583117460134AC424ED023780D2B08D0E2
:102C2000A3F10A09B9FA89F94FEA5919B9F1000F64
:102C3000E9D04FF000090DEB070383F85891002FFE
:102C4000E8D06C4808F0B2FB56A808F0AFFB6A4821
:102C500008F0ACFB56A8FEF7DDFF40F6B83398F855
:102C6000002026A9B34256A838BF33464A4518BFAC
:102C70001E46FEF7EDFE00284BD146A956A8FEF7EA
:102C8000E7FE0746002860D156A836A9FEF7E0FE09
:102C900008B342F6E0694E45BCD05B46574A602116
:102CA0006EA80134CDF800A017F066FA6EA808F0FF
:102CB000C9FBAC424E46B0D10DF0C8F8059BC01A16
:102CC000B04269D201200DF0C7F888E74C484F4662
:102CD00008F0B8FB9EE707469CE7FFF755FA002887
:102CE0006FD0039B0494E31AC72B83D916A808F06E
:102CF00075FB5B46434A60216EA817F03DFA6EA84B
:102D000008F054FB039475E73F4B3AE701229246E3
:102D10001FE7334B07463D49584683F800903C4B2C
:102D2000C3F800A0FDF7D4FA18B35B46394A602116
:102D30006EA8CDF800A017F01FFA6EA808F082FB6D
:102D400038460DF5077DBDE8F08F5B46324A6021BD
:102D50006EA8CDF800A017F00FFA6EA808F072FB6D
:102D60002E4B0A221A60002738460DF5077DBDE874
:102D7000F08F184B1A782A4BC3F800A0294B1A7011
:102D8000294B1870294B1870294B1870294B187053
:102D9000294808F057FBC8E75B46284A60216EA81F
:102DA000CDF800A017F0E8F96EA808F04BFB002161
:102DB00001221A4B88F8001009490A7008221A608B
:102DC000D1E7164B1A68092ACDD005221A60CAE746
:102DD000640500206D05002008D3010870D80108A3
:102DE00071050020A8D80108F0D80108B4D6010860
:102DF000E0DD0108A0D70108ACD7010894DE010886
:102E00009CDA010800DE01080CD30108ECD20108AD
:102E1000600500204CDE01086CDE0108BC050020C6
:102E2000D0040020CD040020CC040020CB040020DE
:102E3000CA040020C904002020DE0108B8DE010811
:102E40007A0500202DE9F04FDFF84082F5B0074603
:102E50000CF0FCFFD8F80030002B00F0AD8081466C
:102E6000A0F1C80B0A38754A4021009303903B46F5
:102E700014A8002417F080F9D8F80030704A4021D7
:102E8000009324A83B4617F077F9D8F800306D4A34
:102E90004021009334A83B4617F06EF9D8F8003073
:102EA000694A602100935CA83B4617F065F95CA86D
:102EB00008F0C8FA0CF0CAFF039B0546C31A092B99
:102EC00063D8A5EB0B03C72B68D8402104A80CF0EE
:102ED0001DFAE8B104AD05EB000A07E05F290C46D6
:102EE00022D8013500F8C02C554511D02A7804F5B8
:102EF000E873611C00260D2A0DEB030001D00A2A9D
:102F0000ECD100F8C06C9CB9013500245545EDD1D9
:102F10000CF09CFF43F69723A0EB0900984276D86B
:102F200001200CF099FFC5E7484808F08BFAEBE761
:102F3000474808F03BFA44A808F038FA454808F03A
:102F400035FA44A8FEF766FE24A944A8FEF780FDE2
:102F5000044634A944A8002C35D1FEF779FD002899
:102F6000D2D0D8F800003B463B4A602100905CA8D4
:102F700017F002F95CA808F065FA384B0A221A60CB
:102F80000024204675B0BDE8F08FFFF7FDF800285B
:102F90004DD0A5EB0B030395C72B96D914A8AB46D0
:102FA00008F01CFA3B462E4A60215CA817F0E4F8B2
:102FB0005CA808F0FBF988E72A4808F043FA274B99
:102FC0000A221A60DCE7D8F800306021264A5CA8A3
:102FD00000933B4617F0D0F85CA808F033FA234979
:102FE0003846C8F80060FDF773F90028C9D1204BB6
:102FF000204A1870204B106018702049204A214B3D
:10300000087010701870204675B0BDE8F08FD8F8C1
:1030100000003B461C4A602100905CA817F0ACF809
:103020005CA808F00FFA0D4B08221A60A8E70B4BBA
:103030001A68092AA4D005221A60A1E748D9010814
:10304000C0D80108B4D6010808DF01089CDA0108DD
:10305000A0D70108ACD7010860DF0108BC0500203B
:1030600028DF0108E0DE010840DF0108ECD201089A
:10307000CD040020D0040020CB040020CC0400208C
:10308000CA040020C904002088DF01086005002070
:103090002DE9F047ADF5327D06460CF0D7FE644BC6
:1030A00080461C68013413D022461A603EB1614943
:1030B0003046FDF70DF910B95F4B1D785DB15F4BE0
:1030C00006221A60002528460DF5327DBDE8F087FE
:1030D00001221446E9E73346594A6021009412A8B8
:1030E000A8F10A0917F048F83346564A60210094BF
:1030F0002AA817F041F83346534A6021009442A8A9
:1031000017F03AF83346514A602100945AA817F054
:1031100033F833464E4A8021009492A817F02CF8D9
:1031200092A808F08FF9A8F1C80A0CF08FFEA0EB66
:1031300009030446092B33D8A4EB0A03C72B38D85C
:10314000402102A80CF0E2F8C0B102AC002726181A
:1031500008E06A1C7F2A34D8013472A9B4424B5566
:1031600015460BD023780D2B01D00A2BF1D172AB71
:103170005F5555BB01340025B442F3D10CF066FE17
:1031800043F69723A0EB0800984242D801200CF0A8
:1031900063FE0CF05BFEA0EB09030446092BCBD9C0
:1031A000FEF7F2FF00283BD0A4EB0A03A146C72B91
:1031B000C6D912A8A24608F011F9264808F0F6F878
:1031C000BEE7254808F03EF9D4E71846FEF722FD91
:1031D0002AA972A8FEF73CFC78B942A972A8FEF7AA
:1031E00037FC054668B972A85AA9FEF731FC0028D9
:1031F000C0D0124B0A221A6064E7184808F0D6F8CB
:10320000B8E7174808F0D2F828460DF5327DBDE83A
:10321000F0870A4B082213481A6008F013F951E7A7
:10322000064B1A68092A3FF44DAF05221A6049E798
:1032300064050020ECD201086D050020BC050020CB
:10324000ACDF0108A8D80108C0D80108B4D601082D
:10325000D0DF0108F4DF01089CDA010818E001085A
:103260003CE0010860E001082DE9F04FADF53F7D3D
:1032700007460D4616460CF0E9FD8F4B04901C687E
:10328000013420D022461A608C4B1B78CBB18C4A7B
:1032900047F230539E4298BFB5F57A7F07D8B7F111
:1032A000030A18BF4FF0010ABAF1000F0ED0854B88
:1032B00006221A604FF0000948460DF53F7DBDE833
:1032C000F08F814AE4E701221446DCE7049F4FF0C7
:1032D00003092346A021C83F009296A87B4ACDF857
:1032E00004900597049FCDE9025616F045FF23464A
:1032F000774A402106A8A7F10A0816F03DFF2346A9
:10330000744A402116A816F037FF2346724A40211E
:1033100026A816F031FF2346704A80214EA8CDF82A
:103320000090CDE9015616F027FF4EA808F08AF864
:103330000CF08CFDA0EB08030446092B00F2A080E2
:1033400057460DF1D80B059BE31AC72B00F28B8073
:10335000602158460BF0DAFF8246002800F0938087
:1033600000265C46002509E0791C9F294BD86EA8F1
:10337000C2550F460135013455450ED222780D2A2B
:1033800001D00A2AF0D100226EABDA55002F3ED1CF
:103390000135002701345545F0D30CF057FD16BB1D
:1033A000049BC01A40F6B733984276D80120002615
:1033B0000CF052FD0CF04AFDA0EB08030446092B6B
:1033C000C1D9FEF7E1FE00286ED0A0460DF1D80B62
:1033D000002EB8D0602158460BF098FF8246002896
:1033E000BFD10CF033FD801B41F2873398424DD89A
:1033F00001200CF031FD0CF029FDA0EB0803044680
:10340000092BE7D9DDE7364808F01CF8C0E7354856
:1034100007F0CCFF6EA807F0C9FF334807F0C6FFDE
:1034200006A96EA8FEF714FB50B1002EB0D10CF027
:103430000DFD81462D48374607F0B8FF4E4699E707
:1034400016A96EA8FEF704FB814688B96EA826A9C6
:10345000FEF7FEFA00289BD0254807F0F3FF194B32
:103460000A221A6026E796A807F0B8FF05946FE7CE
:10347000204807F0E7FF48460DF53F7DBDE8F08F97
:10348000564657469DE70CF0E1FC89E71A4807F0DD
:10349000D9FF0C4B08221A600CE7184807F0D2FF3E
:1034A000084B08221A6005E7064B1A68092A3FF400
:1034B00001AF05221A60FDE6640500206D050020BD
:1034C00008D30108BC0500200CD3010888E00108DE
:1034D000CCE00108E8E0010804E1010820E101086E
:1034E000A0E10108A0D70108ACD701085CE1010800
:1034F00084E1010870E10108E0E10108C4E101088C
:10350000F8B507460CF0A2FC0646A0F10A050BE050
:103510000CF09CFC431B092B03D90546FEF734FE37
:1035200040B101200CF098FC0CF090FC801BB842DC
:10353000EED3F8BD044B1A68092A01D005221A609F
:10354000024B07221A70F8BDBC050020C005002000
:103550002DE9F04F994C0027994B4FF00108D4ED1D
:10356000007ADFF8B8B22DED0C8B89B030EE27AAC7
:1035700093ED00DA00970397DFED928ADFED92BAC0
:103580009FED929ADFED929A9FED92BACDE9017785
:103590000CF05CFCDFED907A904B8146B0EE67CA90
:1035A000A0F1FA0AC3ED007AF0EE67AA8C4B06464A
:1035B000CBED007A0546C3ED007A8A4B84ED00AA74
:1035C000C3ED007A884BCDE90477CDE90677C3EDEA
:1035D000007A0CF03BFC41F26F73A0EB0902044649
:1035E0009A4200F2DF80831B092B40F2C380431B09
:1035F0000A3607EE903A831BF8EE677A092B88BFEC
:10360000064667EEA87AF4EEE87AF1EE10FA00F1D9
:10361000A8809FED768AF4EEC87AF1EE10FA38FEB3
:10362000278A734DB0EE480AFDF726FA7AEE4DCAA6
:10363000D5ED007A6BEEE77AECEE897AF4EEE97A72
:10364000F1EE10FA00F18A80F4EEC97AF1EE10FA88
:1036500079FE277A28EE0B8A3CEE487AB4EEE77AB8
:10366000F1EE10FA77DC3CEE088AF4EEC87AF1EE5F
:1036700010FA38FE27CAB0EE4C1A6946F0EE6A0A14
:103680009FED550A5B488BED00CA08F031FB00281E
:1036900000F08C80584B1B6843B9584B1B68002BBB
:1036A0006ED1574B1B780BB9FEF726FC08F036FF9E
:1036B00018B908F039FF00286ED1684608F0C0FC40
:1036C00058B9504B1A68092A01D005221A60002007
:1036D00009B0BDEC0C8BBDE8F08F0CF0B7FB04A972
:1036E00008F0FCFC70B9B8F1000F04D1464807F0AF
:1036F000A9FE444BE9E7CDE90400CDE906004348C3
:1037000007F0A0FEA4EB0A032D4AF92B92ED00DA94
:103710002AD8F0EEECCA0AF011FADFED3D7AF4EEA9
:10372000E7CAF1EE10FA12D8D5ED007A9FED397A9A
:10373000F0EEE77AF4EEC77AF1EE10FA07D837B375
:10374000E31B4F2B36D84FF00008254641E70027F2
:103750002546B8463DE7B0EE47CA8CE7F0EE697AF9
:1037600078E7B0EE688A5CE704A92046A246FDF738
:103770002DFACEE72C4601200CF06EFB254628E7FB
:10378000254B1B78002B91D1FDF730FC8EE72746A7
:103790004FF0000825461CE7FDF726F9194B0922D2
:1037A0001A608FE7174B07221A6090E7154B062225
:1037B0001A608CE7FEF7E8FC8AE700BF8C05002062
:1037C000AC0500206F12833ACDCC4C3ECDCC0C40E2
:1037D000CDCC0CC03333734000000000A80500209E
:1037E000980500209405002090050020CDCC4C3D8C
:1037F000B005002040060208DC040020E804002098
:103800006F050020BC05002020E20108FCE1010852
:103810000AD7A33C0AD7233DE6040020A4050020D4
:103820002DE9F04F00232DED108BE5B0DFED958AEB
:10383000B0EE408A1993B0EE60EACDED128ACDED7C
:10384000138ACDED148ACDE91A33CDE91C33CDE9C5
:103850001E33CDE92033CDE917338B4BD3ED00EA8E
:103860000CF0F4FAF0EE682ADFED951AB0EE682A53
:1038700023AA01230490CDED228A07EE903AF0EEC0
:10388000480A16A915A8B8EEE70A013320EE210A66
:10389000FDF768F8F0EE627ADDED162AB0EE427AB6
:1038A0009DED152A412B72EEE77A52ED016A32EE58
:1038B000477A67EEA77AE7EE077AB1EEE77A77EE16
:1038C000267AE2EC017AD8D19DED62BA9FED6FCAFB
:1038D000B4EECCBAF1EE10FA08D86D4B06220020F7
:1038E0001A6065B0BDEC108BBDE8F08FDFED65AA06
:1038F000684BDFED697AB0EE6A9AC3ED00AAF0EE8C
:103900006ABA664B6EEE277A9FED65FAB0EE6AAA48
:10391000C3ED00AAF0EE6A9A624B28EE0F7A049E7D
:10392000F0EE6ADAC3ED00AAB0EE6ADA5E4BF0EEB2
:103930006ACACDED087A7EEEA77AC3ED00AA3746B3
:103940005A4BB0468DED027AC3ED00AAA6F1FA03F8
:10395000CDED077A0693FEF773FB002301220A934D
:10396000059209930CF072FA0646FEF769FB049A79
:1039700042F22733B21A9A4200F23F83F31B092B1B
:1039800040F2BC83A6EB08030A3707EE903AF31B1C
:10399000F8EE677A092B88BF374667EE8C7AF4EE2B
:1039A000CC7AF1EE10FA00F18783DFED41FAF4EE04
:1039B000EF7AF1EE10FA7FFEA7FAB0EE6F0AFDF78C
:1039C0005BF814AB12AA1EA9009313AB394808F098
:1039D00007FA8046002800F0CF83DFF8DCB0DBED8B
:1039E000007A77EEEE8AB0EE680A15F045FBB0EE8D
:1039F00040FAB0EE680A15F03FFA9DED137ADDED5E
:103A0000127AF0EE401A67EE006A9DF8643027EEF5
:103A10000F7AE7EE8F6AA0EE677AB0EE66EAF0EE14
:103A2000478A002B00F05083B0EE6F2A17A8B0EE43
:103A30004F1AF0EE470AB0EE660AFDF737FF9DED2C
:103A400017EADDED188A89EE8B6AB5EEC06AF1EEF1
:103A500010FA00F13483F7EE002AB4EEE26AF1EED8
:103A600010FAF5EEC09A32FE866AF1EE10FA40F2D4
:103A70008783F4EECB9AF1EE10FA58DA23AA0123E9
:103A800030E000BF000000008C0500206F12833A78
:103A9000BC050020A8050020DA0FC93FA4050020BE
:103AA000B7D1303F980500209405002090050020F4
:103AB000CDCC4C3D40060208AC050020BD37863514
:103AC0000000803CCDCCCC3E9A99193F3333B3BE35
:103AD0009A9919BE0AD75BC0AE47613F0133412BAB
:103AE00000F04783D2ED007A0432F4EEE79AF1EE6B
:103AF00010FAF3D8013B1FED0F5A0DEB8302D2ED04
:103B0000225A77EEE57AF4EEC57AF1EE10FA40F338
:103B1000078379EEE55A85EEA75A07EE903AF8EE5C
:103B2000E72A5FED197A72EE852A62EEA72AF0EE97
:103B3000480A16A9B0EE620A15A88DED036AFCF7D3
:103B400011FFF7EE005A5FED217AF0EE084A1FED03
:103B5000224A28EE275A1FED237A75EEE25A9DED90
:103B6000023AF1EE087A9DED036AA8EE443A65EE5A
:103B7000A43A65EEA77A62EEA44A63EEA53AF0EEA7
:103B8000455A67EEA27A64EEA24AD8EE045A65EE70
:103B9000A75A67EE877A1FED327AE5EE235A1FEDBA
:103BA000335AE3EE877AE4EE835AE4EE857A25EE23
:103BB000A55AA7EEA75AF1EEC53AF4EECC3AF1EECB
:103BC00010FA40F2D982C5EEA34A5FED3D5AE54BAB
:103BD000D3ED002A87EEA34ADFEDE33A68EEA33A7D
:103BE0006EEE255A7BEE697AA3EEAFDAE5EEAFCA48
:103BF00023EEA43AA5EE843A63EE843AE4EEE53A85
:103C0000F0EE625AB0EEC35AE3EE2FDAE5EE2F5A29
:103C1000C3ED005A7BEE6D5AF4EEE5AAF1EE10FA10
:103C2000F4EEE7AA3AFEA50AF1EE10FA7AFEA77AB8
:103C3000F4EEC07AF1EE10FA30FE270AB5EE400A33
:103C4000F1EE10FA00F1BB82F1EEC07ADFEDC72A87
:103C5000F4EEE72AF1EE10FA77FEA27AB4EEE7AAC4
:103C6000F6EE002AF1EE10FA6FEEA22A40F10A8277
:103C70007AEE222AF4EEE72AF1EE10FA37FEA2AA33
:103C8000EAEE2F9ADFEDBA7AF4EECB9AF1EE10FA63
:103C90007BFE299A79EEED2A62EEA72AFDEE007AE4
:103CA000F4EEE72AF1EE10FA07D4F5EE007AF4EE1E
:103CB000E72AF1EE10FA77FEA27A7AEE277AFDEE85
:103CC000002AF4EEE27AF1EE10FA00F10E82DFED56
:103CD000A72AF4EEE27AF1EE10FA72FEA77A37EE36
:103CE000C33ADFEDA42A63EE222AE2EEAFBAFDEE7C
:103CF000002AF4EEE2BAF1EE10FA00F1F381F5EEEB
:103D0000002AF4EEE2BAF1EE10FA72FEABBADFED81
:103D10009A2AE3EE227AFDEE002A77EEAB7AF4EEF1
:103D2000E27AF1EE10FA07D4DFED902AF4EEE27AAF
:103D3000F1EE10FA72FEA72ADDED167A9DED152A36
:103D40007DEE677ADFED8D0A3CEEC22A8C4B67EE82
:103D5000847AC3ED002AE4EEC27A9FED8A2AB0EE9F
:103D6000673ADFED897A67EEE37AE3EE027AF4EE02
:103D7000E07AF1EE10FA07D4DFED840AF4EEE07A8F
:103D8000F1EE10FA70FEA70A814BDDED027A83EDA9
:103D9000003A9FED803A37EECD2A7F4B33EE6C3AF6
:103DA000C3ED000A62EE027A7C4BB5EEC03AC3ED79
:103DB000003AF1EE10FA00F1778177EEAA7AB0EED0
:103DC0006A3AF1EEE73ADFED767AB4EEE76AF1EEC1
:103DD00010FAC0F26081DFED737AF4EEE73AF1EEAB
:103DE00010FA05D9F4EECC3AF1EE10FA00F39B810B
:103DF000DFED6D0AF0EE6A7AB0EE603A604BC3ED2B
:103E0000007AF7EE004A9DED087A82EE8B4A674B06
:103E1000B4EEE46AB0EE001AF0EE082AF1EE10FA01
:103E2000F1EE087A21EEE00A34FE862AE2EE412A1B
:103E300074EEC64A22EE022A66EE277A60EE8F0AF8
:103E4000A3EE0F0A62EE822A9FED592A67EEA47A4A
:103E5000F0EE6E4AE3EE210AE7EE224A67EE272AE9
:103E6000DBED007A93ED003A74EEE77A67EE827A42
:103E7000E2EE847A9FED4F4AE3EE447A9FED4E4A9C
:103E8000F4EEC47AF1EE10FA00F12981F4EEC27A70
:103E9000F1EE10FA72FE277A9FED484A6FEE84FA2F
:103EA00039EE6F4AB4EEE74AF1EE10FA00F31481EE
:103EB00079EE2FFAF4EEEF7AF1EE10FA3FFEA79AC0
:103EC0003F4A9DED077A82ED009A3E4ADBED007A8B
:103ED000C2ED004ADFED324A77EE677AB4EEE46A6B
:103EE000F0EEE77AF1EE10FA80F2AE80F0EEE55AED
:103EF0009FED357AF4EEC75AF1EE10FA00F2B78072
:103F00009FED287AB4EEC75AF1EE10FA00F2AF80B6
:103F10009FED2E7AF4EEC77AF1EE10FA0AD8D3EDBF
:103F2000007A9FED2B7AF0EEE77AF4EEC77AF1EEA5
:103F300010FA0DD9124BC3ED00AA174BC3ED00AA1E
:103F40000A9B002B00F0E080CDF828804FF000089D
:103F5000B0EE491A1AA91F4807F0CAFE002800F05F
:103F60000B8139E0A00500209A99B93F3333B33F64
:103F70009A99993FCDCC4C3F3333B33E9A9999BE31
:103F8000A80500209A9919C0AE47613E9A99993EBA
:103F9000980500200AD77BC09405002090050020DA
:103FA0009A99593F8FC2F53C00000000B0050020EF
:103FB000CDCC0C40CDCC4C3ECDCC0CC0333373407B
:103FC000A40500208C0500206F12033C0AD7A33CF7
:103FD0000AD7233D400602081AA8FEF7A1F80028D8
:103FE00000F0DA800BF032FF1EA908F077F8A0B9D4
:103FF000059B5BB9844807F025FA844B05221A60BB
:10400000002065B0BDEC108BBDE8F08FCDE91E003F
:10401000CDE920007E4807F015FA069BF31AF92B2C
:1040200066D809F08BFDB8F1000F09D0099B002B71
:1040300068D0F31A3B2B4FF0000300F2B3800993D2
:104040000023B04605938DE49FED726AF4EEC63A04
:10405000F1EE10FA0BD828EEA87AAEEE0E7AF1EE59
:10406000C76AF4EEC66AF1EE10FA7FF651AF9FED23
:104070006A7AF4EEC77AF1EE10FA1AD81B684FF09C
:10408000000865E77AEE622AF4EEE27AF1EE10FAC1
:1040900037FEA2AAF4E524EEE03A60EE840AA4EE2C
:1040A000223AE4EEA20AACE6E3EE037AB1EE433A3A
:1040B00087E64FF000084BE7F0EE4CFA7DE4B0EEF7
:1040C0006A6AF0EE6A2A32E50123CDED176A8DEDBA
:1040D000187A8DF86430B6E4B0EE449AF0E6F0EE6B
:1040E000447AD9E6F0EE62BA11E6F0EE627AF6E5CD
:1040F0001EA93046FCF76AFD069692E701200BF0F8
:10410000ABFE2FE409969BE74448CDED0A0A8DEDFE
:10411000030A07F097F9DDED0A0A9DED030A13E79C
:10412000B0EE6A5AF9E4DFED3E0ADFED3E7A62EE68
:10413000200A9FED3D4A23EE273A60EEA04AE3EEC7
:10414000034AF1EEE47AF4EEC47AF1EE10FA1ADCE6
:10415000DFED364AF4EEE47AF1EE10FA7FF54EAE7A
:1041600084EEA74AF0EE647A23EE043A60EE840A05
:1041700044E6F7EE002ADAE4244B06221A603FE711
:10418000DFED2B2AD3E4C4EE274AF0EE447A23EE87
:10419000243A60EEA40A31E61C4B1A68092A7FF41F
:1041A0002DAF2DE7234ADDED077AC2ED007A224AD2
:1041B0001360224A1360FDF7E7FFFFF792BBCDEDD6
:1041C000111A8DED106ACDED0F5ACDED0E3A8DED31
:1041D0000D3ACDED0C4A8DED0B4A8DED035A14F0DE
:1041E00021FEDDED111AF0EE407A9DED106ADDED55
:1041F0000F5ADDED0E3A9DED0D3ADDED0C4A9DEDC9
:104200000B4A9DED035A21E520E20108BC05002080
:10421000FCE101080AD7A33D0AD7A33C4CE2010800
:104220009A99993F9A9999BF6666E63E8FC2F53D85
:10423000000000008C050020A8050020A405002037
:104240009FEDDC7A60EEA07A0023002231EE477AFF
:10425000E0EE007AF0EEC76A9FEDD77A2DE9F04FD5
:10426000F4EEC76ADFF89C83064698ED006AF1EE2B
:1042700010FA2DED108BE7B0B1EEE79A329336933A
:104280002C933593B0EE608A3993F0EE408AF0EECD
:1042900041FACDED1A6AB0EE61BA8DED0C6AB0EE5E
:1042A00042CA269227922892CDED072ACDE93333D0
:1042B000CDE93733CDE92D33C04BD3ED007ACDEDC9
:1042C0000A7A00F23083F0EE087ACDED107ADFED55
:1042D000BC7ACDED0F7ADFEDBB7ACDED0E7A002EF4
:1042E00000F01C83DFEDB87ACDED1B7AF0EEC87AD2
:1042F000B0EEE87AF4EEC77AF1EE10FA40F30583F7
:10430000F1EE047ACDED0D7AF5EE007ACDED0B7A73
:10431000DFEDAECA0BF09AFDB4EEEC9AF1EE10FAB6
:1043200000F1EA82DFEDAA7AF4EEE7FAF1EE10FA94
:1043300040F2E282B4EEE7BAF1EE10FA40F2DC822B
:10434000B4EEE7CAF1EE10FA40F2D68288EE89DACE
:10435000A04B9FED9B7A4FF0000CC3ED007A07460F
:104360009D4B8BFE477A8DED237A0546C8EE09DA20
:10437000C3ED007A994B9DED077AC3ED007A984B17
:10438000B0EE67FA9749C3ED007A974BF0EE4F9A7B
:10439000CDF870C0C3ED007AF0EE4F8ADDED0A7AF9
:1043A000B0EE4F9A914BF0EE4FBA77EE877ACDF898
:1043B00054C0664508BF1946A0F1FA03B0EE4FAAF3
:1043C000CDF874C0CDED167A6FEE8D7A149301237B
:1043D0002291CDED177A6FEEAD7A09938DED13FA38
:1043E000CDED187A8DED12FA8DED06FA8DED05FA08
:1043F000CDF864C011900BF029FD119A43F6972374
:104400000446821A9A4200F26B85794B1B6823B1ED
:10441000784B1B78002B40F08085E31B092B40F282
:10442000F483631B0A3707EE903AE31BF8EE677AD2
:10443000092B88BF274667EEAC7AF4EEEC7AF1EEF2
:1044400010FA00F1C3839FED6C2AF4EEC27AF1EE0C
:1044500010FA72FE27EAC9EE2F7AF5EEC07AF1EE75
:1044600010FA00F1AE83B7EE008AB0EE007AF4EEF7
:10447000C87AF1EE10FA38FE278AF0EE087AE8EEF4
:10448000477A28EE087A67EE877A9DED077AB0EED4
:104490006E0ADDED0AAA494BE7EE27AAC3ED00AA92
:1044A000FCF7EAFA28AB26AA36A95448009327ABB2
:1044B00007F096FC0546002800F01E829DED0C7A60
:1044C000D8ED007A77EEC77AB0EE670ACDED087ABC
:1044D00014F0D2FDB0EE40EA9DED080A14F0CCFCD9
:1044E000DDED270ADDED267AF0EE401A20EE806A37
:1044F0009DF8B83060EE8E0AA7EE8E6AE0EE670A8D
:10450000002B00F06683B0EE460A2CA8B0EE6E2AAF
:10451000B0EE4E1AFDF7CAF99DED2C6ADDED2D0ABD
:104520006DEEA05ADDED057A3FEEC97A344BEEEE22
:10453000867AEDEE065A7CEE0C6ACDED057AE5EE54
:10454000AEBADDED067AB0EEE54AEEEEA07A3FEEC9
:10455000EB5ACDED067A6DEE207AB4EEC5AAEDEEFB
:10456000C67AF1EE10FAB4EEC7AA3AFE050AF1EEE9
:1045700010FAA7EEAEFA3AFE077AB4EEC07AF1EE80
:1045800010FA30FE070A93ED007A20EE260AA4EE18
:104590002E7AB5EE400AF1EE10FA83ED007A0F4B59
:1045A00083ED00FA104BC3ED007A00F18086B1EE86
:1045B000C07A31E0C87E24400AD7233C8C05002015
:1045C0009A99993E5C8FC23E6F12033C6F12833AF8
:1045D00000000000A8050020A40500209805002088
:1045E0009405002080E2010890050020C0E2010847
:1045F000E8040020E7040020CDCC4C3D4006020832
:10460000A0050020AC0500209A99993FCDCC4C3FE5
:104610003333B33E17B7D138B4EEC7BA6CEE2E3A87
:10462000F1EE10FA37FE0B7AF4EEC78AF1EE10FACB
:1046300040F1938278EEA38AF4EEC78AF1EE10FA85
:1046400077FE288AA8EEAE9A9DED073A1FED0F7A05
:10465000F0EEC34AB4EEEF9AF1EE10FAF4EEC74A68
:104660003FFE899AF1EE10FA40F37482C8EEAF6A09
:10467000B1EE087A23EE077AB7EE003A27EE087A11
:1046800033EE483A27EE037A27EE267A39EE6B3A74
:104690005FED236A23EE263AFDEE006AB4EEE63AB9
:1046A000F1EE10FA07D4F5EE006AB4EEE63AF1EE58
:1046B00010FA76FE836A78EEA66ABDEE003AF4EE52
:1046C000C36AF1EE10FA00F18F82F4EECB6AF1EEDC
:1046D00010FA7BFE266A76EEE55A5FED342ABDEECF
:1046E000003A65EEA22AE2EEAE9AF4EEC39AF1EE3B
:1046F00010FA00F17682B5EE003AF4EEC39AF1EECC
:1047000010FA73FE299A1FED3E3AE5EE836AFDEE3C
:10471000005A76EEA96AF4EEE56AF1EE10FA00F1BD
:104720006682F4EECB6AF1EE10FA7BFE266A5FED4C
:10473000475A834BF4EEE54AC3ED006AF1EE10FAF6
:1047400000F31482002E40F01782F0EEE65A9FED3F
:104750007D3ADFED7D2A65EE835A85EEA23ADFEDE4
:104760007B2AB4EEE23AF1EE10FA72FE832AB1EE41
:10477000623AD8ED005A9DED0D2A75EEEA5ADFF83F
:10478000F0B1A5EEC27ADBED005A9DED0B2AA5EE45
:10479000C27AB4EEC37AF1EE10FA05D4B4EEE27A3E
:1047A000F1EE10FA32FE873A9DED0F7ADDED0E5AEA
:1047B00067EE677A9DED107A654BE7EE4F7A83EDF1
:1047C000003AB1EE657AF4EEC77AF1EE10FA05D44C
:1047D000F4EEE57AF1EE10FA35FEA77ADDED187AFF
:1047E000DDED065A5B4B77EEE5AADDED177ADDEDE0
:1047F000055A83ED007A37EEE58A002E00F0C68078
:10480000DFED5D7A6FEEA77AF4EEEB7AF1EE10FA57
:1048100000F2F6811D9668EE087A199BEAEEAA7AF4
:10482000B1EEE77AD3B92298CDED211A8DED207A39
:104830008DED1F6ACDED1E0ACDED193ACDED084A7A
:1048400006F000FEDDED211A9DED207A9DED1F6A38
:10485000DDED1E0ADDED193ADDED084ADDED1B7ACE
:10486000F4EEC77AF1EE10FA00F1F881344B83EDE3
:1048700000AAC0F2D68126EE066ADFED377AA0EEF6
:10488000A06AB1EEC67AB4EEE77AF1EE10FA00F261
:10489000C8819DED167AD8ED007A77EE677A9FEDA4
:1048A000397AF0EEE77AF4EEC77AF1EE10FA00F218
:1048B0008982DBED007AF0EEE77A002E00F0508579
:1048C0009FED317AF4EEC77AF1EE10FA00F27C82B5
:1048D000DDED137A3546DFED210A01237AEE676AB2
:1048E000DDED127A19963AEE677A26EEA66AF0EEB8
:1048F000607AA7EE076AA3E0194B06221A6000202F
:1049000067B0BDEC108BBDE8F08FF2EE027ACDED12
:104910000D7ADFED147ACDED0B7AF9E4DFED157A3F
:10492000CDED1B7AE2E4DFED107ACDED0F7ADFED0D
:104930000F7ACDED107ADFED0B7ACDED0E7ACEE465
:10494000A80500206666263F7B14AE3E3333333F16
:10495000A405002094050020CDCCCC3C0000000034
:10496000BC0500209A99993EAE47613E9A9919403C
:10497000B00500200AD7233CCDCC4C3E6F12033C3F
:104980008FC2F53C0AD7A33C0AD7233D5FED077AD7
:10499000DDED1A5AF4EEE75AF1EE10FA09D85FEDA0
:1049A0000A7A6FEEA77AF4EEC97AF1EE10FA7FF682
:1049B00032AFB0EEC55A6DEEC77A6DEE070A1FED45
:1049C000117AB4EEC75AEDEE267AEDEEA60AF1EEB4
:1049D00010FA00F2DC801FED167AB4EEC74AF1EE51
:1049E00010FA00F2D480DDED166A98ED007A36EE0A
:1049F000C77A5FED1C6AB0EEC77AB4EEE67AF1EEE4
:104A000010FA00F2A9819BED007A5FED216AB0EE09
:104A1000C77AB4EEE67A002E00F07E81F1EE10FA4D
:104A200000F253819DED137A002570EEC76A9DED6B
:104A3000127A2B4637EEC77A26EEA66AA7EE076AE9
:104A4000F1EEC65AF4EEE53AF1EE10FA40F1348197
:104A500063EEA66A23EE877A86EEA56ADDED126A1A
:104A6000C7EE257A9DED137A37EE067A8DED137A2F
:104A700027EE077A76EEA77AA7EEA77ACDED127A1F
:104A8000F1EEC77ABF4A9DED127ABF49C2ED007AB6
:104A9000DDED137A6DEE277AEDEEC77AC1ED007A7F
:104AA000002B00F0078192ED007ADFEDB87AB4EECA
:104AB000E77AF1EE10FA94BF4FF001094FF00009C8
:104AC000DDED130ADDED127A21EEE00AB04B60EE67
:104AD0008E0A32A993ED001AA7EE8E0AAD48E7EED2
:104AE000A10A07F005F900283FF406AF32A8FDF748
:104AF00017FB002800F000820BF0A8F936A907F098
:104B0000EDFA78B9099B33B9A34806F09BFCA34B97
:104B100005221A60F3E6CDE93600CDE93800A04859
:104B200006F090FC149BE31AF92B63D809F006F801
:104B3000B9F1000F25D0002D159A0CBF3C23FA23A4
:104B4000002A69D0A21A9A4280F0EF8100232546FC
:104B5000099350E4B0EE4A7A98E578EEE38AB4EE31
:104B6000E87AF1EE10FA77FE288A6BE526B99FED18
:104B70008D3ADFED8D2AFCE59FED8C3ADFED8C2A36
:104B8000F7E52546CDF85490CDF8249033E4DDEDDB
:104B9000166A98ED007A36EEC77ADFED866AB0EED7
:104BA000C77AB4EEE67AF1EE10FA01D8DBF80030FD
:104BB0000025A9462B46002E86D02A461C9D1C9215
:104BC0009AE0F0EE4A7A9FED7E8A5EE4F0EE6CEABF
:104BD00041E401238DED2C6ACDED2D0A8DF8B8301E
:104BE0009EE4F0EE439A8EE5F0EE436A73E5F0EE54
:104BF000656A9CE536A92046FBF7E8FF149495E723
:104C00001D9B002B7FF407AED3E62C4601200BF052
:104C100023F92546FFF7EFBB254615940992FFF7C8
:104C2000EABBDFED670AF0EE607ADDED166A98ED1B
:104C3000007A36EEC77ADFED5F6AB0EEC77AB4EE7F
:104C4000E67AF1EE10FA01D8DBF800304FF00009F7
:104C500019954B46002E3FF437AFAEE77AEEAA0A1D
:104C600078EE087A60EEA06AE7EEA76AB1EEE67A1F
:104C7000DDED236AF4EEC76AF1EE10FA5FD4DFEDE2
:104C80004E6AB4EEE67AF1EE10FA0FD59DED236A86
:104C9000C6FE666A86EE876A60EE860A67EE867AE8
:104CA00060EEA06AE7EEA76AB1EEE67A354B83EDD7
:104CB000007ABAE7994603E720EEA07ACDED130A11
:104CC000CDED127AA7EEA77ADAE6DFED3C7AF4EEC4
:104CD000E74AF1EE10FA40F3A6800023294A136058
:104CE000294A13601C9B002B00F00B81DFED340A76
:104CF0000023F0EE607A1C939DED137A1C9A70EEFF
:104D0000C76A9DED127A1C95154637EEC77A26EED6
:104D1000A66AA7EE076A93E6F1EE10FA324694BF50
:104D20004FF00109B1464B469FED247AF4EEC74A95
:104D3000F1EE10FA00F29480A9461546C4E6C6EEDC
:104D4000876A60EEA60A67EEA67A60EEA06AE7EED2
:104D5000A76AB1EEE67AA9E7002EB6D19FED177AE1
:104D60003246F4EEC74AF1EE10FAE5D9B1463346C1
:104D70009FED127AF4EEC74AF1EE10FA74DC154694
:104D8000A2E600BFA805002094050020CDCCCC3CB5
:104D9000A40500204006020820E20108BC0500200E
:104DA000FCE10108333333BF3333333F3333B3BE16
:104DB0003333B33E0AD7A33C8FC2F53C17B7D13883
:104DC00000000000002E7DD05FED047AF4EEE74A8B
:104DD000F1EE10FA40F388805FED070A694BC3EDEE
:104DE000000A694BC3ED000A1C9B002B40F0578260
:104DF00099462A4619956548CDED201ACDED1E3A03
:104E000008931F9206F01EFBDFED610A1C95F0EE81
:104E1000607A1F9DDDED201ADDED1E3A089B002E05
:104E20003FF452AEC9E64FF00009564B83ED00AA9D
:104E3000554B83ED00AA1C9B2BB3DDED137A4D4639
:104E4000DFED530A00237AEE676ADDED127A3AEE5F
:104E5000677A26EEA66AF0EE607AA7EE076AEFE5BB
:104E6000B9F1000F84D067E7464981ED00AA4649B1
:104E700081ED00AA1C990029BDD0DFED450A154639
:104E8000F0EE607A20E64148CDED1E1ACDED083AED
:104E900006F0D8FADDED137A0023DFED3D0A7AEE55
:104EA000676ADDED127A1C954D463AEE677ADDEDC4
:104EB000083A26EEA66ADDED1E1AF0EE607AA7EE3D
:104EC000076ABDE5DFED337A2A461995F4EEE74A25
:104ED000DFED2F7AF1EE10FA09D8F0EE670A2BE732
:104EE0002D4B05221A600AE5A94619959DE7F0EEBB
:104EF000670AB14633463BE7274B1A68092AF0D1C7
:104F0000FDE42248CDED1C1ACDED083A06F09AFAE0
:104F1000DDED083ADDED1C1AE8E6FDF735F9002372
:104F2000184A13601D4A1360E9E41D4B0024DDEDAF
:104F3000167AC3ED007A134B1C60002E42D0DFEDD1
:104F4000197AA021184A3EA82AEEA76A28EE277AE5
:104F5000B7EEC66AB7EEC77A8DED026B8DED007BBA
:104F600015F00AF93EA806F06DFAFDF70DF90028D4
:104F70007FF4C6AC084B1A68092A3FF4C1AC05227D
:104F80001A60BDE4A80500209405002000E3010894
:104F90000000000017B7D138BC050020A405002090
:104FA0008C05002000007A4444E301086F12833A24
:104FB0003333B3BE6F12033CEC5138BE9A9919C01B
:104FC000AE47613E3A963E962F963D9641965FEDEE
:104FD000098A5FED099A5FED06AA1FED08AA1FED89
:104FE0000A9A1FED0CBACDE93B66CDE93F66CDE9E3
:104FF00030660AF02BFFCA4B824601201C60C94B69
:105000005746554683ED00FAC74B1C60AAF1FA03D8
:105010000593FBF795FD06960AF018FFA0EB0A032F
:105020000446B3F5FA5F80F06481C31B092B40F29C
:105030002C81431B0A3707EE903AC31BF8EE677AC0
:10504000092B88BF074667EEA87AF4EEE87AF1EEFE
:1050500010FA00F103819FEDB58AF4EEC87AF1EE03
:1050600010FA38FE278AB0EE480AFBF705FD2BAB95
:1050700029AA3EA900932AABAD4806F0B1FE00284C
:1050800000F00781DDED0C7A98ED00CA3CEE67CAAE
:10509000B0EE4C0A13F0F0FFF0EE40BAB0EE4C0A5E
:1050A00013F0EAFEDDED2A0AF0EE401ADDED297A72
:1050B00020EE200A9DF8C4306BEEA00AABEEA70AE2
:1050C000E1EEE70A002B00F0D280B0EE482A2FA8CC
:1050D000B0EE6B1AFCF7EAFB9DED2F0ADDED300A0E
:1050E0006DEE200A934BDDED0B6AEDEEC00AC3EDC9
:1050F000000AD3ED007A8B4BA8EE27FADDED167A85
:1051000083ED00FA98ED007A37EE677ADBED007AEE
:1051100067EEE67ADDED0D6AE6EEC77AF4EEE97A3F
:10512000F1EE10FA00F1A0809FED837AF4EEC77AD9
:10513000F1EE10FA77FE277A804BC3ED007A7D4BB3
:10514000D3ED007A6AEEE77AEFEE0A7AF4EEC97AE6
:10515000F1EE10FA00F185809FED797AF4EEC77ACE
:10516000F1EE10FA77FE277A6F4B3AA97048C3ED3B
:10517000007AD3ED007AD3ED000A6DEEE77A6F4B3B
:105180006DEE200A93ED001A20EEE10A6BEEA00A04
:10519000ABEEA70AE1EEA70A06F0AAFD002878D038
:1051A0003AA8FCF7BDFF002800F0AF800AF04EFEE1
:1051B0003EA906F093FF90B9B9F1000F08D16148FC
:1051C00006F040F9604B052230461A60FFF798BBA5
:1051D000CDE93E00CDE940005C4806F033F9059B7F
:1051E000E31AF92B4BD808F0A9FCF0EECF7AF4EED5
:1051F000CB7AF1EE10FA2ED84E4B9FED557AD3EDC7
:10520000007AF0EEE77AF4EEC77AF1EE10FA22D8DF
:10521000D8ED007ADDED166A9FED4E7A77EEE67AEC
:10522000F0EEE77AF4EEC77AF1EE10FA13D8DBED80
:10523000007A9FED497AF0EEE77AF4EEC77AF1EE64
:1052400010FA08D8069B83B3E31A3B2B65D8254692
:105250004FF00009E0E600230693F8E7B0EE688A15
:1052600001E7F0EE497A7FE7F0EE697A64E701231F
:105270008DED2F0ACDED300A8DF8C43030E73EA910
:105280002046FBF7A3FC0594ADE701200AF0E4FDFE
:10529000C2E62D4B062230461A60FFF731BB1C9D3B
:1052A000F0EE607A0023199526E50694CFE7CDED60
:1052B000251A8DED246ACDED210A8DED205ACDED14
:1052C0001F7ACDED1E5A8DED084A13F0ABFDDDEDD2
:1052D000251AB0EE407A9DED246ADDED210A9DEDA0
:1052E000205ADDED1F7ADDED1E5A9DED084AFFF7CD
:1052F00093B9002303200C4A1360FBF721FCFCF751
:1053000043FF06463046FFF7FBBA0F4B1A68092ADF
:105310007FF459AF3046FFF7F3BA00230220EAE7E3
:10532000A80500209805002094050020CDCC4C3D18
:1053300040060208900500203333B33EA405002048
:10534000EC51383E20E20108BC050020FCE10108D8
:105350008FC2F53C0AD7A33C0AD7233D00000000CA
:105360001FED037A2A461995F4EEC77A5FED057AA8
:10537000F0EE670AF1EE10FA94BF4FF001094FF01A
:1053800000094B46D0E400BF2DE9F047C6B06021CC
:1053900006A809F0BBFF002835D006AD934E944F08
:1053A00005EB0008DFF8A49206E0611C7F292DD8E8
:1053B00031603B55A84526D015F8013B34680D2BCC
:1053C00006D0A3F10A02B2FA82F25209002AECD006
:1053D0000023884986483B5515F00CF8824650B1A9
:1053E000B84208D0FAF77EFF044651463846621CA0
:1053F00014F066FF346014B1D9F80030E3B900232B
:10540000A8453360D8D146B0BDE8F087DFF840A2A8
:1054100032609AF80020D9F80030002A5DD0764A30
:105420000192A021754A1EA80092754A14F0A4FEAC
:105430001EA805F0D3FFBDE705AC72480DF11302BD
:105440002146FBF749FD002849D02368D9F8002000
:10545000DFF8FCA193425CD00DF1130221466A48AB
:10546000FBF73AFD20B12368D9F8002093426BD0B6
:105470000DF1130221466548FBF72EFD20B123688C
:10548000D9F80020934277D00DF1130221466048ED
:10549000FBF722FD28B12368D9F80020934200F0E1
:1054A00082800DF1130221465A48FBF715FDD9F809
:1054B00000309AF8002010B124689C4214D08AB1C0
:1054C0004D4A0192544A00924D4AA0211EA814F060
:1054D00053FE1EA805F082FF91E7504AA0E7DFF8CF
:1054E00070A1B9E74D4AECE79DF813109142E6D15F
:1054F0004B4B00224B481A7005F058FF9AF80030C9
:10550000002B6ED03C4B434A009323460192464AFF
:10551000DBE79DF813109AF8002091429CD1434A92
:10552000127812B9424A012111704248039305F0E2
:105530003DFF9AF80020039B002A4CD1374A009285
:10554000304A0192384AC0E79DF813109AF80020BB
:1055500091428DD1384A012138480393117005F0EA
:1055600025FF9AF80020039B002A36D0224A009299
:10557000254A01922C4AA8E79DF813109AF80020BA
:10558000914281D12E4A01212E480393117005F0DA
:105590000DFF9AF80020039B0AB3174A00921B4A9A
:1055A0000192214A91E79DF813109AF80020914248
:1055B0007FF477AF1A4A012123480393117005F055
:1055C000F5FE9AF80020039B6AB10B4A0092104A3C
:1055D0000192154A79E7084AB1E7104AC7E70F4A2E
:1055E000DCE70E4B8FE70D4AF0E700BF7C0300209D
:1055F000FC02002080D3010808D30108BCE40108A4
:1056000084E4010874D50108B4D50108F8D4010870
:1056100024E4010854E40108B4E401080CD30108AF
:10562000D40400205CE40108A4E30108D5040020B0
:10563000D80400207CE30108D7040020D4E301084B
:10564000D6040020FCE301082CE40108DC0400205F
:10565000E4040020B5EEC00A00230022F1EE10FAA7
:105660002DE9F04F2DED108BC3B0F0EE60CA129310
:1056700016930F921092119215931993CDE913334B
:10568000CDE9173300F12F83B7EE00DADFF808A376
:10569000B0EEC0BA9AED00CA0AF0D8FBA0F1FA0346
:1056A000A54A06460693A54B12681B68002B00F01E
:1056B000EF82131EF6EE00FAA14A18BF01239FEDF8
:1056C000A1FADFEDA1AA089301239FEDA0EA0793B9
:1056D000CDE90423DFED9E7A35469E4BB0EE4E9A1F
:1056E0009D4AF0EE679AC3ED007AF0EE678A9B4B15
:1056F000B0EE67AAB146DFED9ABAC3ED007AAB46C9
:10570000984BDFED99EAC3ED007A984BDFED98DA1C
:10571000C3ED007A974BC3ED007ADAF800301360DE
:10572000002301221E46039302920AF08FFB039A84
:10573000A0EB0B0304469B1A049A934280F0DD828F
:10574000059B002B40F02A81631B092B40F2B2819C
:105750000A35631B092B00F2EB804B46A146E31A86
:1057600008EE103AB8EE488A28EE2B8AB4EEEB8A9F
:10577000F1EE10FA00F19481B4EEED8AF1EE10FA38
:105780003DFE888AB0EE480AFBF776F911AB0FAA06
:1057900016A9009310AB784806F022FB002800F011
:1057A000A582DAED007AB5EE007A77EECC7A9AED42
:1057B00000CAF0EEE76AF4EEC76AF1EE10FA07D815
:1057C000EDEE279AB4EEE9AAF1EE10FA7AFE299AE4
:1057D0007BEE697A079BB4EEE7AAF1EE10FA7AFE47
:1057E000277A002B00F0A180644B2FEE887A1B787B
:1057F000002B4EFE0F6AB4EEE69AF1EE10FA40F17D
:10580000528139EE079A89FE669A3AEEAA0A20EE8C
:10581000270AB5EE400AF1EE10FA00F13983F1EEF5
:10582000C07AB4EEE79A2AEE887AF1EE10FA78EEB2
:10583000C76A77FE897A67EE8D7AF4EEE67AF1EE42
:1058400010FA00F1248178EE878AF4EEE87AF1EE1E
:1058500010FA78FEA78A6CEEE80A3E4BB0EE681AA2
:1058600012A9B0EE4A0A4448F0EEE07AC3ED007A9D
:105870003A4BC3ED008A06F03BFA002800F036826E
:1058800012A8FCF74DFC002800F03B820AF0DEFA7B
:1058900016A906F023FCA0B9029B5BB9384805F0B5
:1058A000D1FD384B05221A60002043B0BDEC108BAF
:1058B000BDE8F08FCDE91600CDE91800324805F0BB
:1058C000C1FDDDED117A314BF0EEE77A93ED007A10
:1058D00067EEAC7AA7EE887A83ED007A069BE31A2E
:1058E000F92B00F2D78008F029F97BEE6E7AF4EEFE
:1058F000E97AF1EE10FA15D8254B9FED267AD3ED13
:10590000007AF0EEE77AF4EEC77AF1EE10FA09D8F1
:10591000002E00F04781A41B4F2C00F2B28200231E
:10592000029302E700260296FFE6B0EE4E9A6CE77D
:105930004B462546A14612E7D0040020DC04002097
:10594000C0D401000AD7A33D9A99193FCDCC4C3E53
:1059500000000000A80500208C050020A405002000
:105960006F12833A980500200AD7A33C94050020C3
:10597000CDCC4C3D9005002040060208D404002008
:1059800020E20108BC050020FCE10108A005002080
:10599000B00500200AD7233DAC0500200AF056FAD6
:1059A000089B0A90002B00F08980A24BA24F1B6835
:1059B0000993FCF77DF897F80080B8F1000F40F0EC
:1059C000F5809E4A1378002B3FF4BEAEFCF7DCFB5B
:1059D0009A4A002800F04B82012382F80080984AFE
:1059E0001370984B1B78002B00F06481964B1AA81B
:1059F0000193099BA0218046944A0093944B14F094
:105A0000BBFB4046CDF82C8005F0E8FC0AF01EFAFE
:105A10008B4B1B78002B3FF497AE8046CDE90C549E
:105A20000B9C09E008F08AF80A200AF015FA844B6A
:105A30001B78002B00F05E810AF008FA0546FCF79F
:105A400037F806F071FDA5EB0802002840F06181EF
:105A50003B78002B40F09B817E490978002940F07B
:105A6000F081F92ADED9774B1B78002B00F03981C1
:105A7000754B099AA0212046A846CDE90023744B16
:105A8000724A14F079FB204605F0A8FCCAE7F0EE54
:105A9000668AE0E616A92046FBF798F8069422E706
:105AA000B0EE6B8A6EE67FF7B0AE39EE479A89FEAC
:105AB000269AAAE601200AF0CFF936E6664B1B6863
:105AC0000993FFF761FC654B1B78002B40F0878042
:105AD000634B1B78002B3FF437AEFCF755FB0028D7
